:020000040000FA
:0600000002011D021D4378
:03002B0002246844
:03003B0002248C10
:0300430002243F55
:03005300021DB6D5
:03006B000224FE6E
:10008300021BF7E5C754F84401F5C77901220000C4
:100093000080FB120086B90003020107E47921788E
:1000A30008B800028004F709D8FCE479297802B87B
:1000B30000028004F709D8FCE4900281788D790B63
:1000C3008002F0A3D8FCD9FA781A90014D7A01BACC
:1000D30000028007E493A3F608DAF9900D0DAA82D3
:1000E300AB8390014E788179038015E493A3AC82AE
:1000F300AD838A828B83F0A3AA82AB838C828D83A8
:10010300D8E9D9E775829E7583FF740212012F75B2
:100113008291758300740012012F75D00075813FA1
:10012300751881751902759F00020096C09FF59F8F
:10013300E473D09F22D083D082C09FE493C0E07445
:100143000193C0E0740293F59F2201FF0000B40005
:100153000028002800283075A000A000A000A000FF
:1001630000080008E001F00010001000100010006B
:100173001000100050005000500010001000D00775
:100183000000000000000F000100050030750700AB
:100193001000010081FF0000FFC605E405CC05FF48
:1001A30002020208025000A0000000E803023082AD
:1001B3000100001982022C82010000620D022682D6
:1001C300010000B202022C82010000630D021C82B6
:1001D300010000C802022C82010000640D021E828D
:1001E300010000CA02022C82010000650D02208278
:1001F300080000CB02022C82010000660D0222825D
:10020300010000670DFF0100FF20023082010000A2
:100213001682022C82010000CB0D02248200000012
:10022300000002288203000018039C0B9C0B9C0B0C
:100233009C0B9C0B9C0B9C0B9C0B9C0B9C0B9C0B83
:100243009C0B9C0B2A0E420E240EFFFF020202029D
:100253000202020202010D000000100102308201BD
:1002630000001082022C820100000E0E0244820163
:1002730000007807022C820100000F0E0242820167
:1002830000003381022C82010000100E0240820123
:1002930000002581022C82010000110E023E820122
:1002A3000000B980022C82010000120E023C820180
:1002B3000000A780022C82010000130E023A820183
:1002C30000008380022C82010000140E0238820198
:1002D30000009580022C82010000150E0236820177
:1002E30000000981022C82010000160E024E8201D9
:1002F3000000170E01E803053F10FF0001307503EE
:1003030002010600000000000000000000000000E1
:10031300000000000000000000000000000000FFDB
:10032300FF0600800CE80301000809424C455465B0
:100333007374051214001400020A0002010503027B
:10034300E7FE09FF0D0000000000000052795A6526
:100353006E543800000000000000000000000000A0
:1003630000681200006E120843686172616374656D
:100373007269737469632031002043686172616339
:1003830074657269737469632032000230820100FC
:10039300001382022C82010000290F02488202000E
:1003A30000D20C022A820100002A0F022C820100D3
:1003B300003B0F024A82000000040D022882030062
:1003C30000050D022A820100003C0F120138C79478
:1003D30003120138DE94031201380D95031201381C
:1003E3004695031201386E95031201389C9503124A
:1003F3000138B39503120138CA9503120138E09509
:10040300031201380796031201381A9603120138B2
:1004130030960312013858960312013811A40212C0
:10042300013810A50212013845A50212013866A54C
:100433000212013876A50212013897A5021201387B
:10044300A3A60212013870A702120138E3A7021211
:10045300013869A802120138ACA802120138E3A8D6
:100463000212013869A9021201383BAA02120138AB
:1004730099AA02120138B1AA021201382BAB021257
:1004830001382EAB0212013831AB02120138D8AB5E
:1004930002120138F0AB0212013820AC021201380B
:1004A30040AC021201382EAD02120138E4AD021243
:1004B300013821DC0212013849DC0212013877DCF1
:1004C30002120138AEDC0212013816DD02120138C5
:1004D3005FDD02120138AADD02120138E8DD0212E3
:1004E300013825DE0212013853DE02120138FADE2A
:1004F3000212013804DF0212013811DF021201383F
:1005030044DF0212013806E00212013812E002123F
:1005130001382AE00212013834E002120138ED9B5F
:1005230003120138FB9B03120138139C0312013899
:100533002B9C03120138DFB3011201387DB4011281
:100543000138F5B4011201380AB60112013844B674
:1005530001120138EDB601120138C2B70112013898
:1005630026B9011201387DB90112013804BA01120A
:100573000138EBBA0112013838BB01120138C6BB8E
:1005830001120138EABB01120138BFBD0112013863
:1005930000BE0112013822BE01120138A3BE0112AE
:1005A30001388DBF0112013853C0011201381CC636
:1005B30002120138EEC60212013897C7021201383F
:1005C300DAC70212013867C802120138F3C80212EF
:1005D3000138D4C90212013803CA02120138FFCA12
:1005E3000212013847CB0212013849CC02120138FA
:1005F3008DCC02120138B3CC021201386CFF011208
:100603000138E3F102120138F9F1021201381FF245
:100613000212013847F30212013851F30212013872
:10062300AAF402120138AAF50212013828CD0212E7
:1006330001385DCE0212013890CE02120138DACEB3
:100643000212013898D002120138029601120138C1
:10065300659601120138AA9701120138BA9701125F
:100663000138DD9701120138289801120138CD981D
:1006730001120138C399011201388D9A0112013810
:10068300059C01120138479C01120138E59C0112B7
:1006930001380B9D01120138F99E01120138FE9EAB
:1006A30001120138DFA00112013833A10112013810
:1006B30095A101120138BDA10112013861A20112F5
:1006C300013823A30112013854A30112013857A39F
:1006D300011201389FA301120138E1A3011201386D
:1006E30048A40112013848FD021201385BFD0212D1
:1006F300013874FD02120138BFFD021201389AFE5F
:100703000212013829FF0212013874FF0212013864
:10071300773D00120138833D00120138BC3D0012C1
:100723000138013E00120138B83E001201383E3F45
:10073300001201386A3F00120138A33F001201384A
:10074300B741001201389343001201387E4500126D
:100753000138B54600120138154900120138014A23
:1007630000120138474B00120138544C0012013873
:10077300714C00120138A94C00120138C34C00120D
:1007830001382B4D00120138C55100120138665251
:1007930000120138B75200120138DE52001201383C
:1007A3002C53001201384A53001201389E53001291
:1007B3000138A654001201382E55001201384BD7C8
:1007C3000212013855D70212013820D8021201381B
:1007D3003BD80212013861D802120138A5D802129F
:1007E3000138DDD80212013806D9021201387FD947
:1007F3000212013894D902120138A9D90212013820
:10080300E0D902120138F4D90212013825DA0212B2
:1008130001385FDA021201388BDA02120138C3DAC7
:100823000212013861DB02120138AADB021201381D
:10083300D4DB02120138F9DB02120138F7ED0212A0
:100843000138C1EE02120138A4EF021201381AF086
:10085300021201385CF00212013889F102120138E8
:1008630000800212013829800212013842800212EC
:1008730001388781021201386582021201388482AD
:100883000212013811830212013854830212013813
:10089300A18402120138408502120138BF87021277
:1008A30001385688021201382A89021201380C8A4B
:1008B30002120138788B021201380B8C02120138B4
:1008C300FE9703120138679803120138BB9803128D
:1008D3000138E2980312013856E502120138C3E5E4
:1008E300021201380EE60212013803E70212013840
:1008F300FFE702120138E9E8021201384FAE021293
:10090300013891AE021201386BAF0212013844B0C4
:10091300021201383FB1021201381EB2021201382D
:100923008AB20212013851B302120138BCB3021267
:10093300013823B4021201384EB402120138BFB495
:100943000212013852B502120138BBB50212013846
:10095300D0B50212013818B60212013831B60212AC
:10096300013896B60212013899B602120138C686CA
:1009730003120138EE86031201382C870312013863
:10098300EA8703120138558803120138718803126C
:100993000138998803120138C98803120138D888AD
:1009A300031201385289031201387889031201387E
:1009B30012A501120138EFA601120138EAA80112AB
:1009C3000138BDA90112013808AA0112013853AA3E
:1009D3000112013865AA01120138A5AA01120138D2
:1009E300DAAA0112013826AB0112013855AB011204
:1009F300013878AB01120138C5AB011201384EAC96
:100A0300011201385BAE0112013846B00112013800
:100A130089B001120138EEB1011201382FB201126F
:100A23000138A2B201120138EEB2011201380FB33C
:100A330001120138828C02120138AD8C0212013886
:100A4300949302120138B895021201387397021277
:100A53000138D098021201383C2500120138D32501
:100A63000012013800260012013846260012013810
:100A7300852700120138A9270012013840290012E6
:100A83000138BA2900120138D529001201384A2A3F
:100A930000120138792B00120138D42C00120138CE
:100AA300D62D00120138332F001201384C2F0012BB
:100AB3000138A92F001201388B3000120138BE30E3
:100AC300001201382E3100120138A831001201380A
:100AD300F73100120138C33200120138C833001253
:100AE3000138A73400120138323500120138A0351D
:100AF300001201381436001201383D360012013855
:100B0300FC3600120138763800120138933800128F
:100B13000138B238001201384339001201386839FC
:100B2300001201389039001201380B3A00120138D3
:100B3300653A00120138B93B00120138763C0012C5
:100B43000138493D0012013806D10112013856D14E
:100B53000112013862D1011201383FD2011201386A
:100B63006FD201120138A7D20112013826D3011224
:100B730001385ED301120138B0D301120138EDD32D
:100B83000112013812D6011201383ED80112013880
:100B930039DA0112013814DC01120138F17F001235
:100BA30001385182011201389B82011201387A887F
:100BB30001120138FB89011201385A9001120138E0
:100BC300559101120138929101120138B591011228
:100BD3000138F791011201380092011201380A928B
:100BE30001120138F69201120138EA930112013819
:100BF3009555001201380D60001201381360001280
:100C030001381F67001201380080031201389680F3
:100C130003120138AC800312013826810312013814
:100C23007C8103120138BA8103120138178203123F
:100C330001389482031201389D8203120138A9827C
:100C430003120138BC8203120138F88203120138FF
:100C53000E83031201386D8303120138ABE90212CC
:100C63000138B8E902120138D2E90212013811EA57
:100C7300021201384FEA02120138B4EA02120138B3
:100C8300C9EA02120138D4EA02120138E1EA021277
:100C93000138F8EA0212013806EB0212013811EBAF
:100CA300021201381DEB021201382CEB021201383B
:100CB30037EB021201385AEB0212013803EC02122D
:100CC300013813EC021201382DEC021201384AEC00
:100CD3000212013866EC021201388BEC0212013861
:100CE30095EC02120138A9EC02120138C8EC021289
:100CF300013829ED021201382FED0212013835EDCA
:100D0300021201383BED0212013847ED021201389D
:100D13007AED02120138DADE011201385CDF0112CA
:100D2300013805E0011201384DE1011201385BE39E
:100D33000112013841E40112013876E4011201384D
:100D430098E40112013841E50112013811E701125B
:100D530001383AE701120138B2E701120138E4E73A
:100D630001120138F1E7011201383CE801120138A0
:100D730060E801120138B1EA01120138BBEB01123C
:100D8300013817EC0112013888C20112013899C3E6
:100D9300011201387DC40112013887C401120138E0
:100DA300A9C401120138B5C40112013859C6011290
:100DB300013886C6011201389CC701120138F1C7F8
:100DC3000112013840C90112013815CA0112013854
:100DD30071CA01120138DCCA0112013811CB0112A8
:100DE300013854CB011201381ECE0112013836CE20
:100DF30001120138C7CE01120138D5CE01120138D4
:100E030022CF0112013830CF011201389CCF0112D9
:100E1300013817D0011201386ED001120138F3984E
:100E230002120138159902120138269B0212013869
:100E3300E59D021201380F9F02120138CD9F021265
:100E43000138B9A0021201380E930312013833930B
:100E530003120138A99303120138FFBE02120138AD
:100E630008BF0212013811BF02120138E9BF021292
:100E730001389AC102120138CAC102120138F5C100
:100E83000212013825C20212013850C2021201387F
:100E930084C202120138B0C202120138F3C2021234
:100EA30001381EC30212013865C302120138BAC3E6
:100EB30002120138FCC30212013856C4021201386F
:100EC30081C402120138D0C40212013800C50212D3
:100ED30001382BC50212013859C5021201387CC5ED
:100EE30002120138169E03120138429E0312013882
:100EF3006F9E03120138799E03120138899E0312F3
:100F03000138E6F901120138F0F9011201382EFA1D
:100F13000112013877FA01120138B1FA01120138CE
:100F23000BFB011201382CFB0112013835FB0112B6
:100F3300013882FB01120138ABFB01120138B5FB0A
:100F43000112013821FC01120138B3FC01120138EE
:100F5300FDFC0112013833FD01120138BFFD0112FE
:100F6300013800FE0112013837FE0112013849FE33
:100F73000112013868FE0112013871FE01120138B5
:100F83003EFF01120138179A031201381D91031213
:100F93000138539103120138899103120138D49215
:100FA300031201387E9D03120138949D0312013808
:100FB3009E9D03120138E89D031201380A9F031214
:100FC3000138C9E002120138DEE0021201388EE175
:100FD30002120138CEE102120138E7E102120138B0
:100FE30022E2021201386FE202120138A1E2021278
:100FF3000138E3E202120138E4E4021201380E9BE5
:1010030003120138379B03120138669B0312013820
:10101300A89B03120138C08903120138E589031222
:1010230001380F8A031201386E9F03120138DA6BFD
:1010330000120138B76D001201385D6F00120138DC
:101043001170001201389B70001201381C710012DC
:101053000138457100120138037500120138897592
:1010630000120138B07600120138EA760012013816
:101073002B7700120138737800120138D0780012F0
:101083000138197900120138847900120138F57991
:1010930000120138277A001201383F7A0012013812
:1010A3006B7B001201387B7B00120138257D001217
:1010B30001383C7D001201386E7D00120138227F19
:1010C30000120138AF7F0012013824A00312013847
:1010D300C49C03120138D49C03120138E09C031210
:1010E3000138719D0312013813990312013898993D
:1010F30003120138FE9903120138EE7F0012013802
:101103000EA0031201381EA00312013821A00312FE
:101113000138F87F00120138E38E0312013873900F
:1011230003120138D490031201381A9103120138C3
:1011330081F90212013811FA021201389AFA0212E5
:10114300013836FB02120138C7FB0212013875FC65
:10115300021201387EFC0212013800FD021201382E
:1011630013FD0212013829FD0212013832FD021269
:10117300013845FD02120138939E031201386A9625
:1011830003120138BC96031201382F97031201385A
:101193009897031201389E8C03120138C88C0312EE
:1011A3000138968D03120138718E03120138BDB6D2
:1011B3000212013884B702120138BBB70212013898
:1011C300E5B70212013845B8021201389BB8021282
:1011D300013800B90212013898B902120138A7BACE
:1011E300021201383EBC02120138CBBC0212013894
:1011F30032BD0212013849BD0212013863BE021228
:101203000138A1BE0212013864EC01120138B1EFBA
:10121300011201382DF10112013884F10112013854
:10122300A1F1011201381FF201120138A2F30112D8
:10123300013887F4011201386DF80112013843F9BE
:1012430001120138B4F502120138DDF5021201383A
:1012530041F60212013899F6021201384ED20212F7
:10126300013857D40212013827D50212013815D795
:10127300021201389D8303120138E28303120138FD
:101283000484031201383B8403120138D38403120C
:1012930001387A8603120138C49F03120138F09F84
:1012A30003E066701008A3E066700A08A3E06670A6
:1012B3000408A3E06622C3E7960809E7960809E74E
:1012C300960809E79622C3E09608A3E09608A3E0F0
:1012D3009608A3E09622C008C3E096F50808A3E0A9
:1012E30096420808A3E096420808A3E096450870D2
:1012F30001D3D00822080808EAC0E0EBC0E086F07A
:10130300E7A4FA180986F0E7A42AFA180986F0E791
:10131300A42AFA180986F0E7A42AFA1986F0E7A4A2
:10132300FBE5F02AFA190886F0E7A42BFBE5F03A6F
:10133300FA190886F0E7A42BFBE5F03AFA18180926
:1013430086F0E7A4C5F02BFBE43AFA1908E7C5F0E9
:10135300C6A426F6E5F03BFBE43AFA1886F0E7A4C8
:10136300F6E5F00826F6E43B08F6E43A08F6D0E0A2
:10137300FBD0E0FA22E4CFC0E0E4CEC0E0E4CDC08D
:10138300E0E4CCC0E075F020C3E633F608E633F6BC
:1013930008E633F608E633F6181818EC33FCED3399
:1013A300FDEE33FEEF33FFC3EC9709ED9709EE979C
:1013B30009EF97191919400FFFEC97FC09ED97FDF9
:1013C30009EE97FE191906D5F0BEECF709EDF709FA
:1013D300EEF709EFF7191919D0E0FCD0E0FDD0E0E2
:1013E300FED0E0FF226016080808C6C313C618C65D
:1013F30013C618C613C618C613C6D5E0EA22700969
:10140300080808226016181818C6C333C608C6335E
:10141300C608C633C608C633C6D5E0EA22E627F6B1
:101423000809E637F60809E637F60809E637F6222B
:10143300E026F608A3E036F608A3E036F608A3E0B4
:1014430036F622E026F008A3E036F008A3E036F0F3
:1014530008A3E036F022C3E697F60809E697F608F4
:1014630009E697F60809E697F622C3E096F008A383
:10147300E096F008A3E096F008A3E096F022E05689
:10148300F608A3E056F608A3E056F608A3E056F6DE
:1014930022E056F008A3E056F008A3E056F008A3B4
:1014A300E056F022E0F608A3E0F608A3E0F608A36E
:1014B300E0F622E6F008A3E6F008A3E6F008A3E6C8
:1014C300F022E0FAA3E0FBA3E0FCA3E0FD22EAF0B4
:1014D300A3EBF0A3ECF0A3EDF022CAC0E0E6F0A387
:1014E30008DAFAD0E0FA22CAC0E0E0A3C582CCC58C
:1014F30082C583CDC583F0A3C582CCC582C583CD08
:10150300C583DAE6D0E0CA22C3E498F8E499F91275
:10151300154C8026C3E49AFAE49BFBE920E7E91221
:10152300154CE498F8E499F922C3E498F8E499F99E
:1015330012154CE498F8E499F9C3E49AFAE49BFB96
:1015430022EB20E7CFE920E7E0B90010BB0008E871
:101553008AF084F8AAF022E4FBC8FA22EB70227B1B
:1015630010C833C8C933C9335007C39AC3DBF280E9
:10157300069A50012ADBEAC833F4C8C933F4C9FA1E
:101583002275F008E4C833C8C933C933C99AC99B63
:101593005004C92AC93BD5F0ECFBC833F4C8E4C9ED
:1015A300FA22600D08C6A2E713C618C613C6D5E013
:1015B300F322600C08C6C313C618C613C6D5E0F4DD
:1015C30022700422600D18C6C333C608C633C6D5BD
:1015D300E0F41822251810AF08F5184002151980F9
:1015E30008F51840021519D2AF22C0D0251810AF44
:1015F30008F518500205198008F51850020519D28C
:10160300AFD0D0222518F58210AF08F51840021587
:10161300198008F51840021519D2AF8519832225C0
:1016230018F582E43519F58322E4732518C582C0C1
:10163300E0E51934FFC583C0E0E518C3958224F8BB
:1016430010AF0885831985821880088583198582E0
:1016530018D2AFCEF0A3E520F0A37808E608F0A3F4
:10166300DEFAEFF0A3E58124FAF8E608F0A3E60832
:10167300F0A3E608F0A30808E608F0A3E608F0A341
:1016830015811581D0E0FED0E0F815811581158113
:10169300E8C0E0EEC0E0222518C582C0E0E51934B9
:1016A300FFC583C0E0E518C3958224F910AF088510
:1016B30083198582188008858319858218D2AFCE55
:1016C300F0A3E520F0A37808E608F0A3DEFAEFF034
:1016D300A3E58124FBF8E608F0A3E608F0A30808D5
:1016E300E608F0A3E608F0A315811581D0E0FED04B
:1016F300E0F815811581E8C0E0EEC0E0228519838A
:10170300851882E0A3FEE0A3F5207808E0A3F6089D
:10171300DFFAE0A3FFE0A3C0E0E0A3C0E0E0A3C0E2
:10172300E0E0A3C0E0E0A3C0E010AF088582188525
:1017330083198008858218858319D2AFD083D0821C
:10174300020135851983851882E0A3FEE0A3F52005
:101753007808E0A3F608DFFAE0A3FFE0A3C0E0E027
:10176300A3C0E0E0A3C0E0E0A3C0E010AF0885821F
:10177300188583198008858218858319D2AFD08391
:10178300D08222C0D02518C582C0E0E51934FFC538
:1017930083C0E0E518C3958224F310AF088583194D
:1017A3008582188008858319858218D2AFC8F0A373
:1017B300E9F0A3EAF0A3EBF0A37908E709F0A3D8D3
:1017C300FAECF0A3EDF0A3EEF0A3EFF0A3D0E0F07A
:1017D300A3D0E0F0A3D0E0F0A3E520F0A3E5F0F080
:1017E300A322851983851882E0C0E0A3E0F9A3E072
:1017F300FAA3E0FBA37808E0F608A3DFFAE0FCA372
:10180300E0FDA3E0FEA3E0FFA3E0C0E0A3E0C0E0AF
:10181300A3E0F5D0A3E0F520A3E0A3F5F010AF0813
:101823008583198582188008858319858218D2AF2C
:10183300D082D083D0E0F8D0E03274048006740202
:1018430080027401C0E0F404121607D0E01214DD24
:10185300227404800474028000CCC0E0EDC0E0E593
:1018630018C39CCCAD1950011D10AF068C188D19EF
:1018730080068C188D19D2AF1214EAD0E0FDD0E0A7
:10188300FC22D083D082E9C0E0E493A3C386F0C5F1
:10189300F095F0F908E493A386F0C5F095F0700B8A
:1018A300E493A3C3994005E9048002A3E475F0021D
:1018B300A42582F582E5F03583F583D0E0F9E4933E
:1018C300A3C0E0E493C0E022D083D082ECC0E0ED7B
:1018D300C0E0E493A3FCE493A3FDED4C600D121967
:1018E30017EC24FFFCED34FFFD80EFE493A3FCE44D
:1018F30093A3FDED4C600D121956EC24FFFCED345F
:10190300FFFD80EFD0E0FDD0E0FCE493A3C0E0E472
:1019130093C0E022C0E0C3E4939608740193961841
:10192300400FE493667008087401936618700070A2
:1019330019A3A3C3E49396087401939618A3A34031
:101943000DD0E0D0E0D0E0021907A3A3A3A3A3A383
:10195300D0E022C0E0C0F088F0E493667008087419
:10196300019366187000A8F0A3A3700BD0F0D0E029
:0E197300D0E0D0E0021907A3A3D0F0D0E0220C
:1019840074F512169AEAFEEBFFEE2434F8EF3400F5
:10199400F988088909EE2435F582EF3400F583E0EF
:1019A400F8EE2437F582EF3400F583E0F50AEC8590
:1019B4000AF0A4FCAAF0850AF0EDA42AFDE82CF8AC
:1019C400E43DF97A257B0012154CEA8508828509E5
:1019D40083F05407F87401B800028004C333D8FCC0
:1019E400C0E0E0131313541FF8EE28F8EF3400F9A5
:1019F400E8245DF582E93400F583D0E0F8E058602E
:101A040008EE2434F582EF801EEE2436F582EF349E
:101A140000F583E0F5F0EA84A8F0EE28F8EF34004E
:101A2400F9E82438F582E93400F583E0F97F04020B
:101A3400174674F512169AEAFEEBFFEE2434F5828B
:101A4400EF3400F583E0C0E0EE2435F582EF340096
:101A5400F583D0E0F08E828F83A3A3A3A3A3A3A3D3
:101A6400C082C0838E828F83A3A3A3A3A3E0F8A321
:101A7400E0F9D083D082E0C398F508A3E099F50992
:101A8400EE2480F582EF3400F583E064017069EEA2
:101A94002481F582EF3400F583E0F8A3E0F98E8227
:101AA4008F83A3A3A3A3A3A3A3E0FCA3E0FD8E823F
:101AB4008F83A3A3A3A3A3E0FAA3E0FBC3EA9CEB55
:101AC4009D5027C3EC98ED99402EC3EA98EB9950AA
:101AD400277CFD7D04EEFAEFFB120AFAEE2480F572
:101AE40082EF3400F583E4F0800EC3EA98EB99406A
:101AF400E0C3EC98ED9950D9EE2434F8EF3400F9B2
:101B0400E8FCE9FDEE2435F582EF3400F583E0F8D6
:101B1400EE2437F582EF3400F583E0F50AE5088515
:101B24000AF0A4F508AAF0850AF0E509A42AF50943
:101B3400E82508F8E43509F97A257B0012154CEA02
:101B44008C828D83F05407F87401B800028004C3BA
:101B540033D8FCC0E0E0131313541FF8EE28F8EF59
:101B64003400F9E8245DF582E93400F583D0E0F827
:101B7400E0586008EE2434F582EF801EEE2436F53A
:101B840082EF3400F583E0F5F0EA84A8F0EE28F85B
:101B9400EF3400F9E82438F582E93400F583E0F9FC
:101BA400122431021A31C082C083851882851983B8
:101BB400E0F8A3E0F9C3EA9CEB9D5012C3EC98ED66
:101BC400994019C3EA98EB99501279018010C3EA3D
:101BD40098EB9940F5C3EC98ED9950EE7900D083D9
:101BE400D08222EAC39CFAEB9DFB220085218785E3
:101BF40022C622C0E0C0D0E8C0E0E9C0E0EAC0E00C
:101C0400EBC0E0ECC0E0EDC0E0C008C009C00AC011
:101C14000BC082C083C0F0759B00906182E0A2E695
:101C24004003021CD5E591A2E64003021CD5759140
:101C3400BF9003C2E064057008120C32120C3E809F
:101C440003120C38752100120C98E99003C3F07943
:101C540000120C8C120A6A7A017B009003C1E0F92D
:101C6400120F5C907803E064426003021D1E90052D
:101C74005FE014F06003021D1EC2AF121C820078E4
:101C84002AD0E0F618D0E0F6E59F5407F9700590E5
:101C940081B480039081A878081214A7E9C4C0E035
:101CA4007829E65508F50808E65509F509740B780E
:101CB400081215B5D0E02508F8906270E0A2E7405C
:101CC400F8E8C333906272F0906270E0D2E0F08082
:101CD40049E0A2E55024E591A2E5501E7591DF90FC
:101CE40003C2E0640D70139003E4E004F064287010
:101CF40002E4F07A00E0F9120D0A906181E0A2E3B7
:101D04005009E5E9A2E3500375E9F7A3E0A2E7501F
:101D140009E591A2E7500375917FD0F0D083D0827A
:101D2400D00BD00AD009D008D0E0FDD0E0FCD0E040
:101D3400FBD0E0FAD0E0F9D0E0F8D0D0D0E032C067
:101D4400E0C0D0C082C083906183E0A2E05009E586
:101D5400BFA2E0500375BFFEE0A2E15009E5BFA2B7
:101D6400E1500375BFFDE0A2E25009E5BFA2E250D5
:101D74000375BFFBE0A2E35009E5BFA2E35003757E
:101D8400BFF7E0A2E45009E5BFA2E4500375BFEF3A
:101D9400E0A2E55009E5BFA2E5500375BFDFE0A26C
:101DA400E65009E5BFA2E6500375BFBFD083D082D9
:101DB4008088C0E0C0D0E8C0E0E9C0E0EAC0E0EB61
:101DC400C0E0ECC0E0EDC0E0C0F0E5A7A2E6500F33
:101DD400E5A1A2E6500953A7BF75A1BF121E1BE5DA
:101DE400A7A2E5500CE5A1A2E5500653A7DF75A113
:101DF400DFE5A7A2E15009E5A1A2E1500375A1FD29
:101E0400E5A7A2E2500CE5A1A2E2500653A7FB7598
:101E1400A1FBD0F0021D2C74F812169A75210190C2
:101E240003C2E064067015120BC68A828B83A3A3D7
:101E3400A3A3A3A3E0FAA3E0FB120C20A2AFE43314
:101E4400FED2AF9003C8E0640170187A207B009042
:101E540003C1E0F9120FE67A207B009003C1E0F998
:101E6400120F62906182E0D2E6F090055EE060219C
:101E740085C62280169003C7E064017008E5C65445
:101E8400F84405F5C653BEFC121BF07401652160CD
:101E9400E4EEA2E092AF7F01021746008E238F2466
:101EA400858228858327851882851983E0CEA3E05F
:101EB400CF852882852783EBC9EAC8EDCBECCA75A8
:101EC400F010C3E833C8E933C9EA33CAEB33CBC3F0
:101ED400EA9EF526EB9FF525B35004AB25AA26EC24
:101EE40033CCED33CDD5F0DAAE23AF242274EB122C
:101EF400169A74FA1215D78A088B098C148D1590CA
:101F040003C2E024F7C3940550069081C002205315
:101F1400120BC68A0A8B0BAE0AAF0BEE4F7003028C
:101F24002050AC08AD09851882851983AA82AB8339
:101F3400120C508E828F83A3A378081214A7908169
:101F44009C7808121481851882851983780C1214E0
:101F5400A790819C780C1214817808790C1212B91C
:101F6400501F7808790C1214599081807808121245
:101F7400D94047850810850911850A12850B1380FD
:101F840041850C10850D11850E12850F137810797B
:101F94000812145990818078101212D9501C7510AF
:101FA400007511007512007513017810790C121464
:101FB400597810790812142080089081C078101282
:101FC40014A7740978101214019081C478081214AB
:101FD400A7781079081213788E828F83A3A3A3A302
:101FE400A3A3E0F8A3E0F97AD07B0312154C880888
:101FF4008909E4F50AF50B781079081214207404A1
:10200400121622E0F8A3E0F97AD07B0312154CE80B
:10201400FA8A08E4F509781079081212B950077899
:102024001079081214599003C2E06408600AE0644D
:10203400066005E06405701C90818478101212D942
:102044005012908188781012143380089081F078AF
:10205400101214A785148285158378101214B6748F
:10206400061215ED7F0E02174674F712169A120C1B
:102074006290055CE064017010906245E4F0A3F0A6
:1020840053F4F343FE0C5390F3120C0EE5C6548044
:102094004449F5C6E59E547F644970F8906185749F
:1020A4000FF090055AE0F47002A3E0604E90055BD7
:1020B400E0600814601B14602E80407508017509E7
:1020C4000090055AE078081215C4E508F45280809F
:1020D4002A75080175090090055AE078081215C49C
:1020E400E508F45290801475080175090090055AAA
:1020F400E078081215C4E508F452A079007F0202C2
:10210400174674F712169AE9FEEAFF74016E700C12
:102114007A807B009003C1E0F9120F5C902534E4CF
:1021240093F46008E493F9120A5E800953C680E5CB
:102134009E547F70FA120C1490055CE064017003E5
:10214400120A7C90055AE0F47002A3E0604B9005FB
:102154005BE0600814601A14602C803D75080175FA
:10216400090090055AE078081215C4E508428080F9
:102174002875080175090090055AE078081215C4FD
:10218400E5084290801375080175090090055AE02E
:1021940078081215C4E50842A0120C62120BC68A14
:1021A400088B09A808A909E8496015E5E170FCE86D
:1021B4002414F582E93400F583E0F46003E0F5E1EA
:1021C40074016F700A7A019003C1E0F9120FB00232
:1021D400210174F112169A8A088B098C0A8D0B74EA
:1021E4000F121622780C1214A790819C78081214EE
:1021F4008190819C780C1214817808790C1212B9A0
:1022040050157808790C12145990818078081212AC
:10221400D9401579018013780C79081214599081EA
:1022240080780C1212D940EB79007F0802174674AB
:10223400ED12169A8A088B098C0A8D0B74131216E8
:1022440022780C1214A790819C7808121481908132
:102254009C780C121481780C79081212B940117808
:1022640008790C121459AA08AB09AC0AAD0B8022E8
:102274007510007511007512007513017810790C32
:1022840012145978107908121420AA10AB11AC1248
:10229400AD137F0C02174690819C78081214A78A0C
:1022A400828B8378081214947F0402174674F51203
:1022B400169A8C828D8378081214A78A828B83786D
:1022C4000812146DEA2404F8EB3400F98C828D832F
:1022D400A3A3A3A3E0FCA3E0FD88828983C3E09CBD
:1022E400F0A3E09DF088828983C3E09420A3E09466
:1022F4004E402290820078081214A78A828B837839
:10230400081214468A828B83A3A3A3A3E02420F09B
:10231400A3E0344EF0808074F512169AE9FE90051D
:1023240014E0FAA3E0FBEEC333F8E433F974CB28EA
:10233400F582748039F583E02AF508A3E03BF509BA
:1023440078081218419081FC1214C5121EA0740260
:102354001215ED8A088B098C0A8D0B7410780812FB
:1023640013E8AA08AB097F0402174674F112169AFF
:102374008A0C8B0D8C0E8D0F740F121622E0FAA3AB
:10238400E0FB7411121622E0F508A3E0F5097413BA
:10239400121622E0FEA3E0FF7808121841EA240195
:1023A400F508EB3400F509E4F50AF50B780C790827
:1023B4001212F890819478081214A7780C790812F4
:1023C40012F8AA0CAB0DAC0EAD0F121EA0740212C3
:1023D40015ED8B09EA450960047A0180027A00EC64
:1023E4002AFCED3400FDECF8EDF97A717B0212154C
:1023F4004C88088909E4F50AF50B8E828F837808E6
:102404001214B6ECF8EDF97A717B0212154C8A08B5
:102414008B09740578081215C48E828F83A3A3A335
:10242400A3E508F0A3E509F07F08021746C082C0BF
:1024340083E9906000F0D083D08222C0E074F2126D
:102444001786A2AFE433FED2AFC2C0E5D1A2E450F6
:102454000653D1EF121172751A00EEA2E092AF7F0B
:10246400010217E5C0E0C0D0E8C0E0E9C0E0E5A89B
:10247400D2AFC2C7751A00A2E7A2E792AFD0E0F9C3
:10248400D0E0F8D0D0D0E032C0E0C0D0E8C0E0E97D
:10249400C0E0C008C009C082C083A2AFE433F9D24F
:1024A400AF9009DAE0F8A3E0687008539AFBA374CC
:1024B400018026C2E99009DAE0F50874012508F0E4
:1024C400745A2508F58274093400F583E0F5C19047
:1024D40009DAE0C394804002E4F0900C96E06002D4
:1024E40014F0E9A2E092AFD083D082D009D008D012
:1024F400E0F9D0E0F8D0D0D0E032C0E074F21217A6
:1025040086E5A8FED2AF758900C2C5C286900C9735
:102514007401F07A207B00900C95E0F9120F5C7541
:0E2524001A00EEA2E7A2E792AF7F010217E5D0
:10253400FFFFFFFFFFFFFFFFC082C0839061907425
:1025440004F0A37448F0A37402F09061807440F026
:102554009061BC7403F09061877419F090626574A3
:102564001BF090619C740DF090619A7433F0A37425
:1025740055F09061A0743AF090055CE06401700934
:10258400C2919003C6746780059003C67461F0908D
:10259400253AE493906186F0902534E493F460271F
:1025A400E493540FF8906185E0686012E5C65480A6
:1025B4004449F5C6E59E547F644970F8E8F053C673
:1025C40080E59E547F70FA7905120CEC02277EC0D8
:1025D40082C083E9540FF9906185E0696012E5C611
:1025E40054804449F5C6E59E547F644970F8E9F087
:1025F40053C680E59E547F70FA02277EC082C08352
:10260400E5A8F853A87E906181E4F0A3F0A3F0C29A
:10261400BA539AFEC289759B00C2C275E9007591CE
:102624000075BF0075A91175B905906181F0A37497
:10263400C0F0A3E4F0D2BA439A0174805842A802CD
:10264400277EC082C08374F81215D79003C4E0F8C3
:10265400A3E0F9E84970030227749003C4E05440EE
:1026640060237908851882851983AA82AB83120BAB
:1026740054851882851983AA82AB83120824900397
:10268400C4E054BFF0E054806010790C7A807B057C
:10269400120B549003C4E0547FF0E0A2E050319058
:1026A400619A7433F0A37455F09061A0743AF09079
:1026B400055CE064017009C2919003C674678005EB
:1026C4009003C67461F012082A9003C4E054FEF02B
:1026D400E05402603190619A743FF0A3745AF09010
:1026E40061A0747FF090055CE064017009D2919060
:1026F40003C6747180059003C6746AF012082A90A8
:1027040003C4E054FDF0E054046013902538E493CE
:10271400906186F01208309003C4E054FBF0E0545A
:10272400086013902539E493906186F01208309084
:1027340003C4E054F7F0E05410601390253AE49396
:10274400906186F01208309003C4E054EFF0E05436
:1027540020600A1208309003C4E054DFF0A3E05470
:1027640001600D120A7C1208369003C5E054FEF095
:1027740074081215ED8003F0A3F0D083D082020117
:1027840035C082C083E9600814600A14600C8013A9
:102794009025388008902539800390253AE4939059
:1027A4006186F080D574EC12162E74F41215D78558
:1027B4001882851983AC82AD837583817582D87440
:1027C400041214EA90253893F460030229369078B1
:1027D40008E0C3940250030229167404121622ACB2
:1027E40082AD8375838175824874081214EA851852
:1027F400828519838582128583137404121622AC90
:1028040082AD83750EFF750FFF7FFF7E00750C4848
:10281400750D78801574086E70030228A974096E0A
:1028240070030228A9740A6E607B850C82850D836F
:1028340078081214A78C828D83A909E50AC9F8883F
:1028440010741878081213E8E5104508F8C3E098E6
:10285400A3E099850C82850D8378081214A740188B
:102864008C828D83741878081213E8E5104508F8F3
:10287400E0C398F8A3E0801C741878081213E8E504
:10288400104508FAE9FB8C828D83E0F8A3E0F9EAAD
:10289400C398F8EB99F9C3E8950EE9950F500688AB
:1028A4000E890FEEFF0EE50C2404F50CE50D340043
:1028B400F50DEEC39413500302281974FF650E70CE
:1028C4000474FF650F60238F08740278081215C41E
:1028D40074482508F58274783509F583780812144C
:1028E400A7851282851383E508F0EC24020C0CED15
:1028F4003400FD851282851383A385821285831398
:10290400740C121622E5826C7003E5836D60030279
:102914002807750801750900780812184174021215
:102924001622AC82AD837A4E7B091210EE74021229
:1029340015ED740C1215ED7F0C021700C082C083D4
:102944009061AE7468F0A3746AF090624574FBF011
:10295400A304F053F4FD43FE0290055C7401F0906F
:1029640061A0E0643A90619A70237433F0A37455C3
:10297400F09061A0743AF0740164017009C29190FE
:1029840003C6746780289003C674618021743FF085
:10299400A3745AF09061A0747FF07401640170090B
:1029A400D2919003C6747180059003C6746A02279D
:1029B4007D7F04021700C082C08390050EE064018D
:1029C400700A900513E06004790C800279000227F4
:1029D4007EC082C08375E1F1900511E060551460FA
:1029E400081460591460518059120A8E900507E04A
:1029F400F97A087B05120C6E9081F41214C5120C3E
:102A0400A49081D01214C5120C7A900512E0F91228
:102A14000C867901120CE0900505E02416F8A3E079
:102A24003400F98882898374A6F0A3740AF07900CB
:102A340002277E120A9480B4120A9A80AF120AA066
:102A440080AA791280EA74F412162E75D90D9004B6
:102A5400F6E0A2E0E4331313F8900507E0C433333F
:102A640054C0484401F5D97805790588828983A33F
:102A7400A3A3E0F5D988828983A3A882A983E86403
:102A84000B7003E9640570E378F67904888289831E
:102A9400A3E0F5D988828983A3A882A983E864FC8A
:102AA4007003E9640470E575E1959004F6E0F97A41
:102AB400F77B04120C74900DEC7434F0A3740AF0D8
:102AC400A3749CF0A3740BF0A3749CF0A3740BF098
:102AD400A3749CF0A3740BF0A3743AF0A3740AF0EB
:102AE400A3749CF0A3740BF0A37452F0A3740AF0C3
:102AF400900DFA749CF0A3740BF0A3749CF0A3746F
:102B04000BF0A3749CF0A3740BF0A3749CF0A37457
:102B14000BF0A3749CF0A3740BF0A3749CF0A37447
:102B24000BF0900505E0F8A3E0F5838882A3A37871
:102B3400081214A79081E8780812143390819C78C5
:102B440008121481900505E0240EF8A3E03400F97E
:102B54008882898378081214B6900505E02414F855
:102B6400A3E03400F9888289837413F09003C2745B
:102B740002F00229B5C082C083900517E02407F54E
:102B8400D9900507E0C4333354C0F5D978057905E5
:102B940088828983A3A3A3E0F5D988828983A3A823
:102BA40082A983E8640B7003E9640570E390051758
:102BB400E0601F78057905FAE82413F582E934000A
:102BC400F583E0F5D988828983A3A882A9831AEAC8
:102BD40070E6900537E02407F5D9900507E0C43383
:102BE4003354C04404F5D97805790588828983A3D0
:102BF400A3A3E0F5D988828983A3A882A983E86482
:102C04000B7003E9640570E3900537E0601F7805F5
:102C14007905FAE82433F582E93400F583E0F5D93F
:102C240088828983A3A882A9831AEA70E675E1954C
:102C3400900DEC7440F0A3740AF0A3749CF0A37498
:102C44000BF0A3749CF0A3740BF0A3749CF0A37416
:102C54000BF0A3743AF0A3740AF0A3749CF0A37469
:102C64000BF0A37452F0A3740AF0900DFA749CF064
:102C7400A3740BF0A3749CF0A3740BF0A3749CF0E6
:102C8400A3740BF0A3749CF0A3740BF0A3749CF0D6
:102C9400A3740BF0A3749CF0A3740BF09082001245
:102CA40014C5900505E0240EF8A3E03400F98882E9
:102CB40089831214D1900505E02414F8A3E03400AC
:102CC400F9888289837412F09003C2740102277D0B
:102CD400C082C083900517E02407F5D9900507E06A
:102CE400C4333354C04402F5D97805790588828900
:102CF40083A3A3A3E0F5D988828983A3A882A983A7
:102D0400E8640B7003E9640570E3900517E0601F45
:102D140078057905FAE82413F582E93400F583E0AF
:102D2400F5D988828983A3A882A9831AEA70E675F3
:102D3400E195900DEC744CF0A3740AF0A3744CF07C
:102D4400A3740AF0A3744CF0A3740AF0A3744CF0B7
:102D5400A3740AF0A3744CF0A3740AF0A3744CF0A7
:102D6400A3740AF0A37452F0A3740AF0900DFA74D9
:102D74009CF0A3740BF0A3749CF0A3740BF0A374E5
:102D84009CF0A3740BF0A3749CF0A3740BF0A374D5
:102D94009CF0A3740BF0A3749CF0A3740BF09082CA
:102DA400001214C5900505E0240EF8A3E03400F9E0
:102DB400888289831214D1900505E02414F8A3E0D5
:102DC4003400F9888289837414F09003C274040275
:102DD400277DC082C083900517E02407F5D99005AC
:102DE40007E0C4333354C04406F5D978057905881F
:102DF400828983A3A3A3E0F5D988828983A3A882C7
:102E0400A983E8640B7003E9640570E3900517E097
:102E1400601F78057905FAE82413F582E93400F592
:102E240083E0F5D988828983A3A882A9831AEA70EA
:102E3400E6900537E02407F5D9900507E0C433335D
:102E440054C04404F5D97805790588828983A3A3FD
:102E5400A3E0F5D988828983A3A882A983E8640BB7
:102E64007003E9640570E3900537E0601F78057925
:102E740005FAE82433F582E93400F583E0F5D988CE
:102E8400828983A3A882A9831AEA70E675E19590E2
:102E94000DEC7446F0A3740AF0A3749CF0A3740BB5
:102EA400F0A3749CF0A3740BF0A3749CF0A3740BB4
:102EB400F0A3749CF0A3740BF0A3749CF0A3740BA4
:102EC400F0A37452F0A3740AF0900DFA749CF0A36A
:102ED400740BF0A3749CF0A3740BF0A3749CF0A384
:102EE400740BF0A3749CF0A3740BF0A3749CF0A374
:102EF400740BF0A3749CF0A3740BF0908200121472
:102F0400C5900505E0240EF8A3E03400F988828911
:102F1400831214D1900505E02414F8A3E03400F9D9
:102F2400888289837415F09003C2740302277DC0DC
:102F340082C083900505E0F8A3E0F5838882A3A30B
:102F4400A3A3A3A3E402277B74F712162E9003F025
:102F5400E0F875F004A4C8AAF02AF974F228F87409
:102F64000339F9E82405FAE93400FB8A828B83E00B
:102F7400FCA3E0FD88828983A3A3A3A3A3A3A3A3A3
:102F8400A3ECF0A3EDF088828983A3A3A3A3A3A356
:102F9400A3E024FFF8A3E034FFF98A828B83E8F0EE
:102FA400A3E90231F174F712162EEAFEEBFF9061E9
:102FB400D0E0600302308675D90E75D90375D90443
:102FC400EE248CF582EF3400F583E5822408F8E5DD
:102FD400833400F9E0F5D9A3E865827003E96583D9
:102FE40070F2EE2484F582EF3400F583E582240444
:102FF400F8E5833400F9E0F5D9A3E865827003E9C4
:10300400658370F275E1957908EE248CFAEF34004B
:10301400FB120B487904EE2484FAEF3400FB120B04
:10302400487C00EEF8EFF9ECFAC3E49AFA95E0FB79
:10303400EE2AFAEF3BFBEA248BF582EB3400F583AE
:10304400E0C0E0E824ABF582E93400F583D0E0F099
:103054000C88828983A3A882A983ECC3940840C7FF
:10306400EE2470F582EF3400F583E0F8A3E0F9EE86
:103074002472F582EF3400F583E8F0A3E9F07901D6
:10308400800279000231F2C082C08375D90275D9F9
:103094000375D90575E195EA2470F582EB3400F5E2
:1030A40083E0F8A3E0F9EA2472F582EB3400F583B7
:1030B400E8F0A3E9F0790102277E74F612162EEAED
:1030C400FEEBFF9005607406F075086075090578DD
:1030D400081218417C017903120B9074021215ED49
:1030E40075D90675D903758260758305E0F5D9A392
:1030F400E58264657004E583640570F075E195907C
:1031040003C2E06408701EEE2470F582EF3400F50B
:1031140083E0F8A3E0F9EE2472F582EF3400F5833E
:10312400E8F0A3E9F079010232BE74F612162EEA31
:10313400FEEBFF9061D0E070667801900560740B3F
:10314400F09003C2E064077019750860750905788A
:10315400081218417C017903120B9074021215EDC8
:103164007805740128F5D975D903758260758305CE
:10317400E8FAE0F5D9A31AEA70F875E195EE24703F
:10318400F582EF3400F583E0F8A3E0F9EE2472F55C
:1031940082EF3400F583E8F0A3E9F0790180027945
:1031A400000232BE74F712162EEAFEEBFF75D90345
:1031B40075D90375D90DEE24DEF582EF3400F5835D
:1031C400E0F5D975E1957904120CAAEE2470F58224
:1031D400EF3400F583E0F8A3E0F9EE2472F582EF12
:1031E4003400F583E8F0A3E9F079018001F07F0170
:1031F40002170074F612162EEAFEEBFF9061D0E07F
:10320400F87480C398FAEE2483F582EF3400F583D2
:10321400E06004780480027800E8240BF8EAC3989C
:1032240050030232BC7D09900560EDF0EE24E3F812
:10323400EF3400F97A617B057C0888828983E08A0F
:10324400828B83F088828983A3A882A9838A828B54
:1032540083A3AA82AB831CEC70E0EE2483F582EF97
:103264003400F583E0601D7508607509057808125F
:1032740018417C097903EEFAEFFB120B90740212E9
:1032840015ED7D0D74012DF5D975D9037582607521
:1032940083058D08E0F5D9A31508E50870F675E1F6
:1032A400957904120CAAEE241DF582EF3400F583FF
:1032B400E4F0A3F07901800279007F020217007420
:1032C400F612162EEAFEEBFF9061D0E0F87480C38C
:1032D40098FAEE2483F582EF3400F583E0600478F5
:1032E4000480027800E82408F8EAC3985003023303
:1032F400C37D06900560740CF09003DFE0900561D7
:10330400F07AE07B03786279057C028A828B83E021
:1033140088828983F08A828B83A3AA82AB83888282
:103324008983A3A882A9831CEC70E07AE27B037CE6
:10333400028A828B83E088828983F08A828B83A3CA
:10334400AA82AB8388828983A3A882A9831CEC7098
:10335400E0EE2483F582EF3400F583E0601D750808
:103364006075090578081218417C067903EEFAEFB6
:10337400FB120B9074021215ED7D0A74012DF5D920
:1033840075D9037582607583058D08E0F5D9A31599
:1033940008E50870F675E1957904120CAAEE24701C
:1033A400F582EF3400F583E0F8A3E0F9EE2472F53A
:1033B40082EF3400F583E8F0A3E9F0790180027923
:1033C400000232BE74F612162EEAFEEBFF9061D0B4
:1033D400E0F87480C398FAEE2483F582EF3400F5A4
:1033E40083E06004780480027800E82404F8EAC3E7
:1033F4009850030234A27802900560E8F0EE24F5B8
:10340400F582EF3400F583E0900561F0EE2483F556
:1034140082EF3400F583E0601B7508607509057858
:10342400081218417C027903EEFA120B907402120E
:1034340015ED7806740128F5D975D9037582607580
:1034440083058808E0F5D9A31508E50870F675E149
:1034540095EE2474F582EF3400F583E4F0EE2480D5
:10346400F582EF3400F583E4F0EE241DF582EF34A9
:1034740000F583E4F0A3F07904120CAAEE240DF510
:1034840082EF3400F583E0F8A3E0F9EE2472F582CC
:10349400EF3400F583E8F0A3E9F0790180027900C4
:1034A4000232BE74F612162E9061D0E0F87480C316
:1034B40098FCEA2483F582EB3400F583E060047819
:1034C4000480027800E82404F8ECC398405B790295
:1034D4009005607407F0EA24F6F582EB3400F58376
:1034E400E0900561F0EA2483F582EB3400F583E093
:1034F400601875086075090578081218417C02097E
:10350400120B9074021215ED7906740129F5D97520
:10351400D903758260758305E9F8E0F5D9A318E845
:1035240070F875E1957901800279000232BE74F574
:1035340012162EE9FCA2AFE433F50AC2AF7D008077
:10354400010DEA246FF582EB3400F583E0F8EDC356
:1035540098501A8D08EA2508F8EB3400F9E8246B32
:10356400F582E93400F583E06C70D68024EA246F98
:10357400F8EB3400F9E0FEEA2EFAEB3400FBEA241F
:103584006BF582EB3400F583ECF088828983E004E8
:10359400F0E50AA2E092AF7F0302170074F6121658
:1035A4002EA2AFE433FDC2AFEA246FF582EB340000
:1035B400F583E014F07C0060368C08EA2508F8EB0B
:1035C4003400F9E8246CF582E93400F583E0C0E0C6
:1035D400E8246BF582E93400F583D0E0F00CEA24AA
:1035E4006FF582EB3400F583E0F8ECC39840CAEA47
:1035F400246EF582EB3400F58374FFF0EA246AF557
:1036040082EB3400F583E4F0EDA2E092AF0232BE27
:10361400C082C083E5A8F8C2AFEA246BF582EB341C
:1036240000F583E9F0EA246AF582EB3400F583E4DB
:10363400F0E8A2E792AF02277E74F312162EEAFE98
:10364400EBFFECFAEDFB8A828B83A3A3A3A3E054E4
:103654001FF0EE2436F582EF3400F583E4F0F50A2A
:10366400EEFCEFFD8A828B83E0C0E0EC245DF58202
:10367400ED3400F583D0E0F0750B00E50A33333305
:1036840054F8F50C8A828B83E0F508750900E50B84
:1036940078081215A5E508A2E0502FEE2436F8EFBD
:1036A4003400F988828983E0F508EE2508F508EFEF
:1036B4003400F509E5082438F582E5093400F5837A
:1036C400E50CF088828983E004F0050B050CE50B1A
:1036D400C3940840AF050A8A828B83A3AA82AB8372
:1036E4008C828D83A3AC82AD83E50AC39405500319
:1036F4000236687F0502170074F712162E9003EE47
:10370400E0640170077A007B000238737E00900346
:10371400F4E070F17401F0A3E4F0A3F09004540415
:10372400F0900457E4F0A3F090045A04F09003F7E7
:10373400E4F0A3F0A3F0A3F090040104F0900427B4
:10374400E4F09081F01214C590040A1214D190048C
:103754000EE4F0A3F0A3F0900472F0900466F090ED
:10376400045B7480F0A3E4F0900461F0900459F0D9
:103774009004DDF0A3F0A3F0A3F0A3F0A3F0A3F072
:10378400A3F09004E6F0900475F09004C5F0A3F063
:103794009081F01214C59004C71214D19081F012D4
:1037A40014C59004CB1214D19004D1E4F09004D346
:1037B400F09004CFF09004E9F0A3F0A3F0A3F0A3F9
:1037C400F0A3F0A3F0A3F078EE7903E8246FF58278
:1037D400E93400F58374FFF00E88828983A3A882FC
:1037E400A983EEC3940440E37AEE7B0378FD790465
:1037F40088828983E0C0E0EA2461F582EB3400F535
:1038040083D0E0F088828983A3A882A9838A828BEB
:1038140083A3AA82AB83E864027003E9640570D0D1
:103824007AEE7B0378D5790388828983A3E0C0E0AC
:10383400EA24E7F582EB3400F583D0E0F08882894E
:1038440083A3A882A9838A828B83A3AA82AB83E8F9
:1038540064DD7003E9640370CF9003EEE004F06468
:103864000170089003F6E09003F0F07AF27B030213
:1038740031F2C082C0839003F5E4F09003F4F09039
:1038840003EEF0A3F0A374FFF075E1F102277EC00C
:1038940082C083780079009003F5E0600478F279BF
:1038A4000388828983A3A3A3A3E0F902277E74F685
:1038B40012162EEAFEEBFF8E828F83A3A3A3E06091
:1038C4000F8E828F83A3A3A3E4F09003EFE014F0A0
:1038D4009003EEE014F070069003F074FFF08E8213
:1038E4008F83A3A3E4F0900502E0700D9003EFE052
:1038F400640170057900120C8CEE2465F582EF34B6
:1039040000F583E0F8A3E0F9E8496029EE2465F8BE
:10391400EF3400F9880889098882F583E0FCA3E084
:10392400FD9003F0E0FA7B0012085A8508828509AD
:1039340083E4F0A3F0EEFAEFFB120BC00232BE7484
:10394400F712162EEAFEEBFF8E828F83A3A3A3A3A6
:10395400E0FA7B0012089CEEFAEFFB120B12120B3A
:10396400A80231F2C082C08378D579038882898322
:10397400A3E4F088828983A3A882A983E864DD7024
:1039840003E9640370E69003D6022CCF74F6121692
:103994002EEAFEEBFFEC2403F8ED3400F9880889E5
:1039A40009EC2407F8ED3400F9E8FCE9FD8C828D7C
:1039B40083E0F8A3E0F9850882850983E0FAA3E0AF
:1039C400FB12154CEE240DF582EF3400F583E8F07C
:1039D400A3E9F08C828D83E0F8A3E0F98508828561
:1039E4000983E0FAA3E0FB12154C8B09EA45096050
:1039F40013EE240DF582EF3400F583E02401F0A3E7
:103A0400E03400F00232BE74F612162EEAFEEBFF2A
:103A1400EE242EF582EF3400F583E0FCA3E0FD787C
:103A24000079FAECFAEDFB12154CEE2470F582EFF6
:103A34003400F583E8F0A3E9F0780079FAECFAEDC4
:103A4400FB12154C8B09EA45096013EE2470F582CC
:103A5400EF3400F583E02401F0A3E03400F00232F7
:103A6400BE74F012162EEAFEEBFF741012162278C2
:103A7400081214A7120C4A8A0C8B0D8C0E8D0F9011
:103A840081E0780C12143390819C780C12148178A4
:103A94000C12183D8E828F83E0F8A3E0F5838882B0
:103AA400A3A31214C51221D674041215EDE9600300
:103AB400023BB28E828F83E02402F8A3E03400F943
:103AC400E8FAE9FB8A828B83780812144690819C79
:103AD40078081214A78A828B837808121494EE242F
:103AE4000BF582EF3400F583C082C0838E828F830E
:103AF400A3A3A3A3A3E02401F8A3E03400F9D08393
:103B0400D082E0687003A3E06970057901023BB4D8
:103B14008E828F83A3A3A3A3A3A3A3E02401F0A372
:103B2400E03400F0EE2474F582EF3400F583E064B1
:103B3400017036EE2475F582EF3400F583E0F8A3C6
:103B4400E0F98E828F83A3A3A3A3A3A3A3E0687049
:103B540003A3E0697013EE2475F582EF3400F58356
:103B6400E02401F0A3E03400F0EE2480F582EF3489
:103B740000F583E064017036EE2481F582EF3400B1
:103B8400F583E0F8A3E0F98E828F83A3A3A3A3A314
:103B9400A3A3E0687003A3E0697013EE2481F582A7
:103BA400EF3400F583E02401F0A3E03400F0790061
:103BB4007F0802170074F712162E9003F0E0F875D0
:103BC400F004A4C8AAF02AF974F228FE740339FF99
:103BD4008028EE2465F8EF3400F988828983E0FCBC
:103BE400A3E0FD88828983E4F0A3F08E828F83A30F
:103BF400A3A3A3E0FA7B0012085AEE2465F582EF32
:103C04003400F583E0F8A3E0F9E849604FEE24645A
:103C1400F582EF3400F583E0F5087808121845EED4
:103C24002463F582EF3400F583E0F9EE2465F58230
:103C3400EF3400F583E0FCA3E0FDEEFAEFFB120B9A
:103C44003C74011215EDE96089EE2465F582EF34C8
:103C540000F583E0F8A3E0F9E84970137C007D00E7
:103C64008E828F83A3A3A3A3E0FA7B0012085A02D7
:103C740031F274F212162EEAFEEBFF890A740E1268
:103C84001622E0FAEE2462F582EF3400F583E06454
:103C9400016003023D429061D0E0F87480C398F55E
:103CA4000CEE2483F582EF3400F583E0600478049D
:103CB400800278008908E928F8E43400F9E824024D
:103CC4000808E93400F9E50C98E499A2D265D033E8
:103CD4004068EA7005750B028003750B01E06039DA
:103CE40075090078081218417A607B05120B72740A
:103CF400021215ED7508607509057808121841ACB3
:103D04000AA90BEEFAEFFB120B9074021215ED7474
:103D140004250AF50A7C607D057401250AF5D98518
:103D24000BD9E50A600D8C828D83F8E0F5D9A318D0
:103D3400E870F875E195790080067907800279FFCB
:103D44007F06021700C082C083E960208C828D83C5
:103D5400E08A828B83F08C828D83A3AC82AD838ACC
:103D6400828B83A3AA82AB8319E970E0ECFAEDFBA2
:103D740002277EC082C083E9900DCAF0023F967488
:103D8400F712162EE99002E0F07C187D037AFF7B8F
:103D9400FF12079A9002E174FFF0A3F0A3E4F0A3EA
:103DA400F079051207289002E0E0F91206567AB27B
:103DB4007B07120974024CA474F412162E8A088B21
:103DC40009EB548060309002E0E0F9120F448A0A53
:103DD4008B0BAE0AAF0BEE4F60138E828F83E064C1
:103DE400B0700312073AEEFAEFFB120F32AA08E59D
:103DF400096480FB80047A007B00023F6574F21240
:103E0400162E74FC1215D7EAFEEBFF74121216225A
:103E140012518BEE4F7003023EA47402121622EE6E
:103E2400F0A3EF1241A0ECF0A3ED1241A0AA82ABE3
:103E340083120650E9F50A706AE508450960648E44
:103E4400828F83125171EE4F60567A067B00120FF7
:103E5400988A0C8B0DA80CA90DE8497005750A13F6
:103E6400804188828983E4123EB1EEF0A3EF1251BF
:103E74009CE508F0A3E509F09002E6123F389002B1
:103E8400E67005124C4E801B124C3C8003EAFCEB9E
:103E9400FD8C828D83123F3870F38C828D8380E396
:103EA400750A02A90A74041215ED02538BF0A312C9
:103EB4005142A32274F212162E890AE975F017A44E
:103EC400FEAFF09002E5E4F09002E3123F38600A9E
:103ED400120F9E9002E3E4F0A3F0EEFAEFFB120F50
:103EE400988A088B09EA4509602FEEFCEFFD7900FA
:103EF400120F209002E3E508F0A3E509F07B0080AF
:103F040008123F22E4F0A3F00BEBC3950A40F2E55C
:103F14000A9002E5F079008002791302538BEB7565
:103F2400F017A4F8A9F09002E3E028FAA3E0398A94
:103F340082F583221248E0EA4B2274F412162E7999
:103F440000EAA2E0501B75086E7509817808121802
:103F5400417C047D007ACC7B0D1207227402121579
:103F6400ED7F04021700C082C0839002E6123F9DD9
:103F7400601C88828983A3A3E06A7003A3E06B8832
:103F840082898370E8A3A3A3A31248DC80047A0087
:103F94007B00D083D082020135125471E849227427
:103FA400EE12162E74FC1215D7EAFEEBFF8518826A
:103FB400851983E4F0A3F0EE2402124C2EEE2405BE
:103FC400125149EE2404F50EEF124555E024FE602B
:103FD4003924FC604624FE605224FE605E24FE7098
:103FE400030240B624FE700302411A24FE70030249
:103FF400412924FE700302413824FC700302414726
:1040040024FE70030241560241939002FF7417F09C
:10401400A3E41241A81203D402419385188285199E
:1040240083AC82AD831207400241638518828519EF
:1040340083AC82AD83120746024163850C08850D6B
:10404400097402121622AC82AD8385088285098325
:104054001248DC1206748A0C8B0DAC0CAD0DEC4DC1
:10406400603BE4F50CF50D780C121841750CFF75E6
:104074000D02780C121841750C00750D03780C12A2
:10408400184174081216221218581254951215ED7C
:10409400E9F50C700B1248D21203EC800F750C0179
:1040A400850882850983124196124C4E850C0802BC
:1040B40041667402121622AC82AD83850C82850D92
:1040C400831246A7603C850C82850D83A3A3121836
:1040D400587510FF7511027810121841751000758B
:1040E400110378101218417408121622121858126B
:1040F40054951215EDE9F509700B1248D21203F22A
:10410400800F750901850C82850D83124196124C2E
:104114004E850908804C851882851983AC82AD834D
:1041240012074C803A851882851983AC82AD8312BC
:104134000752802B851882851983AC82AD831207C0
:1041440058801C851882851983AC82AD8312075E62
:10415400800D851882851983AC82AD83120764E9CA
:10416400F508E50860298E828F83A3E06414601F3C
:10417400850E82850F83E09002FF1241A012546DD8
:10418400900300124C4EE508A31241A81203CE027C
:104194004B3D12547185188285198322F08518824B
:1041A40085198322F07CFF7D02850A82850B8312A8
:1041B40048E02274EE12162E74FC1215D78A0A8B6C
:1041C4000B8C0E8D0FEA2405F508EB3400F5097C01
:1041D400157D0079007AFF7B02120F20E508240286
:1041E400F50CE50912514C851882851983858210D6
:1041F4008583117810121841850882850983A3A349
:10420400A3A312469E121841E5082405F510E509FA
:104214003400F5117810121841850C82850D831233
:1042240049F312066E74061215ED8A108B11AE1046
:10423400AF11E50A2402F50AE50B124C31EE4F707A
:1042440003024375801774021216221248DC888216
:104254008983EAF0A3EBF09002FFE004F09002FF00
:10426400E0C394054003024375E4F510F51178109A
:104274001218417510E87511027810121841751062
:10428400E9751102781012184174061216221218D8
:10429400587910EEFCEFFD1254971215EDE9705E9B
:1042A400850882850983A3A3A3A3A3A3A3E0F8900D
:1042B40002E8E068704812469E1218417CE97D02CB
:1042C400E5082408FAE5093400FB120F1A740212F7
:1042D40015EDE960298E828F83A3A3A3A31248DC82
:1042E4009002FFE0F510740278101215C4740025D2
:1042F40010F58274033511F583EAF0A3EBF0740230
:1043040012162285821085831178101218417402C6
:10431400121622121858850C82850D831249021236
:1043240015ED8A108B11AE10AF119002FFE0F5105D
:10433400751100740278101215C474FF2510F874F6
:10434400023511F988828983A3123F38700302422F
:1043540041E82403080808E93400F9EE4F60030239
:10436400424A8882898374FFF0A3F09002FFE0043C
:10437400F09002FFE0600A1248D21203E079008054
:104384000B850882850983124C45790A024B3D74DA
:10439400EA12162E74FE1215D78C128D13EA240518
:1043A400F50CEB12547F125175750800750900EA7B
:1043B4002402F510EB3400F51185188285198385E4
:1043C400820A85830B780A121841850C82850D8335
:1043D400A3A3A3A312456B121841E50C2405F50A07
:1043E400E50D124C31780A121841850C82850D8333
:1043F40012456F12066E74061215ED8A0A8B0BEACB
:10440400450B7003024510EA2404F50EEB124555E2
:104414001251758A828B83A3A3A3E0F98510828548
:1044240011831248E66003024510E4F514F515788B
:10443400141218417514E875150278141218417590
:1044440014E9751502781412184174061216221212
:1044540018587913AC0AAD0B851082851183125458
:104464009D1215EDE9F50960030245109002E8E09C
:10447400F8E5087009E02402900300F0801490032A
:1044840000E0FCE82402FAE43400FBEA6C7001EB7F
:10449400707E850882AA82124695941412468D5025
:1044A4006B850E82850F83E0C0E074012A12454CAF
:1044B400D0E0F00508850E82850F83A3E0C0E08577
:1044C400080A7401250A12454CD0E0F00508900250
:1044D400E812456B1218417CE97D0285080A7401D3
:1044E400250A12455F1215ED9002E8E02508F5084B
:1044F40074FF6E700374FF6F6012EE24010EEF34CC
:1045040000FFE508C3941450030243BDE50860139B
:104514001248F08510828511831248DC1203E67973
:10452400008014E509700375090A851282851383D6
:10453400EEF0A3EFF0A90974021215ED7F0E021735
:104544000085080C7401250CF58274033400F5838E
:10455400223400F50F850E82F58322FA74033400A9
:10456400FB120F087402221251AB22A3A312457549
:1045740022124C3CFDEEFAEFFB2274EE12162E745E
:10458400FE1215D78C0E8D0FEA2405F50CEB125193
:104594004C750B009002FFE4F0F50AEA2402F508DA
:1045A400EB3400F50980449002FFE0FA9002E8E061
:1045B400F8124695941712468D400D9002FFE0F8CC
:1045C4007416C3989002E8F012469E1218417CE9D2
:1045D4007D0274002AFA74031245621215ED9002EA
:1045E400E8E0F89002FFE028F0050AE50C2416F54F
:1045F40082E50D124550E0F8E50AC3985074900224
:10460400FFE0C39416506BE50AC333F8E433F9E5CD
:104614000C28FEE50D39FF851882851983AC82AD1F
:10462400838E828F831246A77008750B01124C414A
:104634008050E4F510F51178101218417510E875E2
:10464400110278101218417510E9751102781012D0
:104654001841740612162212185879168508828594
:10466400098312549D1215EDE9F50B70030245AB55
:1046740080BB7CFF7D028508828509831248DC1299
:1046840003F8A90B7402024B3FE99400C365D033CD
:1046940022EA28F8E43400F9E822E0F51075110064
:1046A400781022124B348A108B11AC10AD11EC4DE2
:1046B4002274EA12162E74FC1215D78A0C8B0D8CF8
:1046C400128D13EA2405F50AEB124C3175080075B6
:1046D4000900E50A2402F510E50B3400F511740213
:1046E40012162285820E85830F780E121841850AD0
:1046F40082850B83A3A3A3A3125151121841E50A87
:104704002405F50EE50B3400F50F780E12184185DB
:104714001082851183124C371248D612066E740625
:104724001215ED8A0E8B0FAE0EAF0FE50C2402F5B9
:104734000EE50D3400F50F80388882898374FFF00C
:10474400050812454574FFF005089002E8E0F50CF1
:10475400750D00780C1218417CE97D0285080C74F3
:1047640001250C12455F1215ED9002E8E02508F5CD
:1047740008EE4F60278E828F83A3A3A3E0F9850EF2
:1047840082850F831248E6EE2404125149E960271A
:10479400850C82850D831248C8124C4EE5087003BF
:1047A4000248AE1248F0850E82850F831248DC124F
:1047B40003FE79000248C3E4F514F51578141218C1
:1047C400417514E875150278141218417514E975C9
:1047D4001502781412184174081216221218587906
:1047E40011EEFCEFFD850E82850F8312549D121588
:1047F400EDE9F509709A850882AA82EA9002E870C8
:1048040009E02404900300F08025E0F8900300E020
:10481400F514E82404FCE43400FDEC65147001EDA7
:104824007081124695941212468D40030247A78563
:104834000C82850D83E0C0E074012A12454CD0E05F
:10484400F00508850C82850D83A3E0C0E012454580
:10485400D0E012490B85820C85830D780C12184127
:104864007404121622121858851082851183124975
:10487400021215ED8A0C8B0DAE0CAF0D85080C746D
:1048840001250CF874033400F9EE4F700302473D20
:10489400851882851983E08882898312490BA3E0F5
:1048A400C0E0124545D0E002474BE50970037509A5
:1048B4000A850A82850B831248C8124C4EA90974D2
:1048C4000402453D125471851282851383227CFFB4
:1048D4007D02850A82850B831248E022E0FAA3E078
:1048E400FB221248E012065CE9F50922900300E07D
:1048F400F5F0E508849002FFF07CFF7D022212456A
:104904007512067A740422F00508851882851983C5
:104914002274EC12162E74FE1215D78A088B098C99
:104924000E8D0FEA2405FEEB3400FF124B1EEE241D
:1049340018125149EA450B70030249C1124B075042
:10494400291249E68A108B11EA4511606B7912AC81
:104954000AAD0B8508828509831248DC851082859F
:10496400118312162CE9F50A7058E4F50AF50B7850
:104974000A1218418E828F83A3A3E0F50A780A12E3
:104984001841EE2403124C2E780A1218418E828F9D
:10499400831249F312078874061215EDE9F50A70BB
:1049A40021850C82850D83E0701F8508828509832B
:1049B4001248DC1204048011750A0E8009750A017C
:1049C4008004E50A6003124C41850C82850D83E066
:1049D400600479008002A90A74021215ED7F0C02AA
:1049E40017008518828519831248E012077622126F
:1049F4004C3CFD8508828509831248E02274EE123E
:104A0400162E74FE1215D78A088B098C0C8D0DEAAC
:104A14002405FEEB3400FF750E00124B1EEA450B15
:104A24007003024AE5124B07502C1249E68A0E8B9A
:104A34000FEA450F604A7912AC0AAD0B85088285EE
:104A440009831248DC850E82850F8312162CE9F542
:104A54000E6003024AE8850882850983124D23AA61
:104A64000AFB124AF970147AFF7BFF124AF9606C50
:104A740088828983E50AF0A3E50BF0750A008007B4
:104A8400750E0E805F050A9002E5E0FAE50AC39A06
:104A9400504AE50A75F017A4FAABF088828983A31B
:104AA400A3E02AFAA3E03BFB8A828B83124C37EC07
:104AB4004D70D2750A17750B00780A121841EEFC76
:104AC400EFFD120F0874021215EDEEFCEFFD8508E0
:104AD400828509831248DC12040A8014750E098049
:104AE40003750E01125469850C82850D83124C4E98
:104AF400A90E02468812076A8A108B11A810A91100
:104B0400E84922E5082402F508E5093400F5098A94
:104B1400828B83A3A3A3E0A2E5228518828519834F
:104B2400AC82AD838E828F83124B348A0A8B0B2224
:104B3400E0FAA3E0FB1206742274041215ED7F0A56
:104B440002170074EC12162E8C108D11EA2405F550
:104B54000CEB12514C750F00EA2402F50AEB124CCF
:104B640031850A82F5831248DC1255237003024C06
:104B740023750E008071850C82850D83E0640170BD
:104B84004F8E828F83A3A31218588E828F83A3A380
:104B9400A3A3E0F5127513007812121841EE240550
:104BA400F512EF3400F51378121218411248D61298
:104BB400078874061215EDE9F50F6014850C8285DB
:104BC4000D83E4F0125469851082851183124C4ED2
:104BD4007C177D007900EEFAEFFB120F208E828F96
:104BE40083E4F0A3F0050E9002E5E0F8E50EC39827
:104BF400501EE50E75F017A4F8A9F0850882850902
:104C040083A3A3125489124C37EC4D6003024B7AF0
:104C140085088285098374FFF0A3F0E50F700612FE
:104C240048D6120410A90F0249E1F50AEF3400F541
:104C34000B22A3124C3CFD22E0FCA3E0228E828FC7
:104C440083125471850E82850F83E8F0A3E9F02264
:104C5400C082C0839002E1E06A7003A3E06B700637
:104C64007AE17B0280047A007B00023F9674F7129B
:104C7400162E7F00EF75F003A4F8A9F0EC28F8EDE8
:104C840039F988828983E06A7003A3E06B7006E8CF
:104C9400FAE9FB800B0FEFC3940240D87A007B0043
:104CA4007F0102170074F612162E12525A70067AF9
:104CB400007B008007A3A3A3A31248DC02531B7448
:104CC400F212162EE9FE740E121622124D237410DF
:104CD40012162212518B8C828D83E06402703BA3E6
:104CE40012546D88828983E0F50CA3E0F9A80C7452
:104CF400026870037429697021750C02750D0078BF
:104D04000C1218417808121841780A121841EEF969
:104D14001207AC74061215ED8002790102538BE080
:104D2400F50AA3E0F50B2274E812162E74FB121593
:104D3400D7E9851882851983F08A168B178C0E8D16
:104D44000F741F12162212518B7421121622124D47
:104D54002374231216221251757510008C828D83D0
:104D6400A3A3A3E0A2E4502A741D1216221249EC54
:104D74008A828B83E58245837003024E37790AACBD
:104D84000EAD0FAA16AB1712162CE9F5106003022C
:104D94004E3A850E82850F83E0640260030250F070
:104DA400A312546D850882850983A38582128583A5
:104DB40013E50E2406F50CE50F12514C8882898305
:104DC400E0FAA3E0F9EA2400F514E439F5157814BF
:104DD4001218CB010000280128FF4D07000228D635
:104DE4004E0328464E00290050012928500229CF9D
:104DF4004F0329005004299150F050EE4F703E8526
:104E04000C82850D83125166FAE9FB8A828B83E05A
:104E1400850A82850B831251A21218418A828B83E0
:104E2400A3124C3CFDAA08AB09120F087402121518
:104E3400ED800375100EA910740502547775100BDC
:104E440080F4EE4F70F7850A82850B837401F012AB
:104E5400517B850882850983F07C007D00850E8264
:104E6400850F83A3A3A3A3E02401FAA3E03400FBEA
:104E7400120674EA4B60418A828B83E02402F8852F
:104E84000A82850B83E028F0EA2404F8EB3400F965
:104E940088828983E08512828513831251B412516A
:104EA400A21218418A828B83124C36E5082403FA35
:104EB400E5093400FB024E2D850A82850B83E0242C
:104EC40004F07C047D007900AA12AB13120F2002B7
:104ED4004E3AEE4F6003024E4112517BFEA3E0FFB7
:104EE400850A82850B837404F0EE85088285098324
:104EF400F0EF851282851383F07403121622AC82BC
:104F0400AD83EEFAEFFB1252487003024FAC8A8273
:104F14008B83A3A3125171740112162285820E850C
:104F2400830F780E12184174051216221218587C39
:104F3400FF7DFF12067A74041215ED8B0FEA450FFC
:104F44007033850C82850D83125151121841850CE2
:104F540082850D83A31218587C027D007A2E7B82F1
:104F64001204A674041215EDE9700A7401121622D3
:104F740074FFF0A3F08E828F83E064027034750CAA
:104F840002750D00780C1218418E828F83124C36F4
:104F9400E5082404FAE5091245621215ED850A8232
:104FA400850B83E0240280097401121622EEF0A31B
:104FB400EFF07401121622125162F07401121622DB
:104FC400A312515AA3A3A3F0024E3AEE4F60030278
:104FD4004E41850C82850D83124C37AA16AB1712ED
:104FE40007A0850A82850B837402F0EA850882850E
:104FF4000983F0851282851383EB80CBEE4F600327
:10500400024E4112517BF8A3E0F9850A82850B8395
:105014007402F0E8850882850983F0E985128285A7
:10502400138380A3850C82850D831248DC120F0242
:10503400EAFC8C82A882C39EE49F404BE86E700118
:10504400EF70047C00801F851882851983E0FAEED6
:105054002AFAEF3400FBC3EA98EB94005003E08093
:1050640004EECCC39CFCEC850A82850B83F08C0A8D
:10507400750B00780A121841850C82850D83E02E89
:10508400FCA3E03F024E28751007024E3AEE4F6033
:1050940003024E41850C82850D8312546D850A826C
:1050A400850B837407F08882898312515A12514206
:1050B400E0851282851383F0E82402FAE93400FBC8
:1050C4008A828B8312515A125193125162A3125144
:1050D4009C12516BF0E82405F8E93400F9888289C0
:1050E4008312516BA31251B4A3024FC8741D12163C
:1050F400221252537003024E3712546D880C890DDC
:10510400E8450D7003024E378E108F117810121877
:1051140041780A12184178081218417406121622AE
:10512400E0F9AC0EAD0FAA16AB17850C82850D8382
:1051340012162C74061215EDE9F510024E3AF08899
:10514400828983A322F50CEF3400F50D22E0F50EDD
:10515400750F00780E22E08508828509832212519A
:10516400BB22125471E8221251BBA3A322A3A3A30E
:10517400A3E0FEA3E0FF22850C82850D83E0F8A363
:10518400E0F5838882E022E0F508A3E0F50922A394
:10519400A3F08A828B83A322123EB3A3A322F08AB4
:1051A400828B831251AB22E0F50A750B00780A2238
:1051B4001251421251BB22E0850882850983A3A3C0
:1051C4002274EE12162E74FE1215D78A0A8B0BEC7B
:1051D400FAEDFB7414121622E0F510A3E0F5117435
:1051E40016121622E0FE7418121622E0F50EA3E041
:1051F400F50F851882851983AC82AD8312524860FD
:105204003E851882851983125253602FA3A312512D
:105214008BE50845096024780E121841781012189D
:1052240041EEF9AC0CAD0DAA0AAB0B8508828509D9
:105234008312162C74041215ED8006790E800279FF
:10524400010246881206748A0C8B0DEA450D22125F
:1052540048E012525A221207348A828B83E582452F
:10526400832274F612162E74FE1215D7740C1216BD
:1052740022125166851882851983F0740112162250
:10528400E9F0E4F508F50978081218417508027880
:10529400081218417404121622858208858309783D
:1052A4000812184112078874061215ED74021215BB
:1052B400ED806474F712162EEAFEEBFF89087C1861
:1052C4007D031207A0EA5402600BA908EEFAEFFB73
:1052D40012066880027901024CA474F612162E7428
:1052E400FF6A700374FF6B701C7B00EB75F003A402
:1052F400F8A9F0EC28F8ED39F91253200BEBC3941C
:1053040002501480E61207708A088B09A808A909BC
:10531400E84960031253207F0202170088828983C0
:1053240074FF123EB1E4F02274F612162E120770C6
:105334008A828B83E58245836006A3A3E0FA800218
:105344007A007B0080D174F212162E8A088B09EC45
:10535400FEEDFF740E121622E0F50A125390701C33
:10536400EEFCEFFD7AFF7BFF1253907004791180FD
:105374001688828983E508F0A3E509F08882898389
:10538400A3A3E50AF079007F060217001207708ACA
:105394000C8B0DA80CA90DE8492274EE12162EEA06
:1053A400FEEBFF8C088D09890C741212162212541C
:1053B4006D7414121622124C3774161216221248E7
:1053C400DC750D00EC4D60030254617402650C60E1
:1053D4000302545C88828983124C3CF9EC2400F566
:1053E4000EE439F50FEAF4F8EBF4F9EC58F8E50FAC
:1053F40059F9E849705DE5082406F8E5093400F92F
:10540400880A890B8882F5831245711207A08A10D5
:105414008B11E50E65107004E50F65116042780E7E
:10542400121841850A82850B831245711207A674EE
:10543400021215EDE9F50D7027780E121841850852
:1054440082850983A3A312456F1207B8740212154B
:10545400ED800D750D808008750D0D8003750D0BA5
:10546400A90D024B428E828F8312547122E0F8A35D
:10547400E0F9221215ED7F100217003400F50D85B6
:105484000C82F58322E028FEA3E039FF8E828F830D
:10549400227916850A82850B831248E012078274EA
:1054A400082274F212162EEAFEEBFF890B740165D2
:1054B4000B600E7402650B70637901120992E97036
:1054C4005BEEFAEFFB1255236047750A00800B7CF4
:1054D400177D007900120F20050A9002E5E0F8E537
:1054E4000AC3985021E50A75F017A4F8A9F08508B5
:1054F40082850983A3A3E028FAA3E039FB8A828B7F
:1055040083123F9D70C985088285098374FFF0A3C7
:10551400F07C187D03EEFAEFFB12079A02538B120C
:10552400076A8A088B09EA45092274F212162E8A40
:10553400088B09ECFEEDFF740E121622124D239017
:105544000DCAE0F4603D7A097B00120F2CEA4B602F
:10555400328A828B8374B1F0A3E4125195A3125161
:1055640093A3E508F0A3E50912558AEEF0A3EF1220
:10557400558AA3A3E50AF0A3E50BF0900DCAE0F960
:10558400120F3802538BF08A828B83A3A3A3A3A3A5
:105594002274EA12162E907803E06442705E90053D
:1055A4005FE014F07056C2AF1255AF00782AD0E015
:1055B400F618D0E0F6E59F5407F970059081B480A1
:1055C400039081A878081214A7E9C4C0E07829E6FA
:1055D4005508F50808E65509F509740B78081215FD
:1055E400B5D0E02508F8906270E0A2E740F8E8C37F
:1055F40033906272F0906270E0D2E0F09003F0E0D9
:10560400F470030259B8E0F875F004A4C8AAF02AAB
:10561400F974F228FE740339FFEE2402F582EF34A4
:1056240001F583E0F8A3E0F9E849601EEE2402F5F1
:1056340082EF3401F583E0FAA3E0FBEE2401F58266
:10564400EF3401F583E0F9120F5C8E828F83A3A3FC
:10565400A3A3A3A3A3E0F8A3E0F98E828F83A3A35B
:10566400A3A3A3E8F0A3E9F0906054E09003C9F089
:10567400906055E09003CAF0906056E09003CBF040
:10568400906057E09003CCF0906058E09003CDF028
:10569400906059E09003CEF090605AE09003CFF010
:1056A40090605BE09003D0F090605CE0FC9003D1EC
:1056B400F090605DE0FB9003D2F090605EE0FD90BE
:1056C40003D3F090605FE0FA9003D4F09003CFE04E
:1056D4008C082508F8E43400F98D08E82508F8E971
:1056E4003400F98B08E82508F8E93400F98A08E859
:1056F4002508FAE93400FBEE24F7F582EF3400F5CF
:1057040083E02AF0A3E03BF08C08EE24F9F582EF65
:105714003400F583E02508F0A3E03400F0EE24FB28
:10572400F582EF3400F583E02401F0A3E03400F0C7
:10573400EE24FFF582EF3400F583E0F8A3E0F9E806
:10574400496042906000E0C333FCE433FDE82CF58B
:1057540082E93DF583E02AF0A3E03BF0906000E0AD
:10576400FA9003D1E0FCEAC333FAE433FBE82AF805
:10577400E93BF9E8244AF582E93400F583E02CF0AA
:10578400A3E03400F09003CFE070119003D2E070F6
:105794000BA3E07007A3E070030258988E828F83F6
:1057A400A3A3A3A3A3E0F8A3E0F9EE240DF582EFED
:1057B4003400F583E028F8A3E039F9EE240BF582F0
:1057C400EF3400F583E8F0A3E9F0EE240FF582EF5F
:1057D4003400F583E4F0EE241CF582EF3400F58305
:1057E400E06401701EEE2420F582EF3400F583E0BE
:1057F400F8A3E0F9EE241DF582EF3400F583E8F018
:10580400A3E9F09003CAE06052EE241CF582EF3461
:1058140000F5837401F0EE246AF582EF3400F58319
:10582400E07038EE2474F582EF3400F583E0702BD9
:10583400EE2480F582EF3400F583E0701EEE242020
:10584400F582EF3400F583E0F8A3E0F9EE241DF5CA
:1058540082EF3400F583E8F0A3E9F0906062E07031
:105864000302594B8E828F83E0F8A3E0F9E8240603
:10587400FCE93400FDE82402FAE93400FB120C448C
:105884008E828F83E02412F8A3E03400F9888289A1
:10589400830259559003D1E0603AEE240FF582EF6C
:1058A4003400F583E4F0EE241CF582EF3400F58334
:1058B400E064017040EE2420F582EF3400F583E0CB
:1058C400F8A3E0F9EE241DF582EF3400F583E8F047
:1058D400A3E98020EE24FDF582EF3400F583E02473
:1058E40001F0A3E03400F0EE241DF582EF3400F55E
:1058F40083E4F0A3F0EE240BF582EF3400F583E0AB
:10590400F8A3E0F98E828F83A3A3A3A3A3E0687016
:1059140003A3E0696003025807EE240FF582EF3415
:1059240000F583E060128E828F83A3A3A3A3A3E078
:1059340064057002A3E0600B7908EEFAEFFB120B2A
:10594400188071793E80F3EE241DF582EF3400F562
:1059540083E4F0A3F0906060E0C0E0EE2469F58297
:10596400EF3400F583D0E0F09003CFE0F8EE246745
:10597400F582EF3400F583E028025AB890055DE023
:1059840064017035120CF8EE2467F582EF3400F5EB
:1059940083E070069060607480F0EEFAEFFB120C06
:1059A40002E96401600E120B36120BFCE96401601B
:1059B40003120BA87F0E021700EE2483F582EF3446
:1059C40000F583E06004780480027800E50CC39855
:1059D400F912084E8A0A8B0BEA450B60A7EE248362
:1059E400F582EF3400F583E070048A088B09E50C36
:1059F4006012850882850983F512E5D9F0A3151292
:105A0400E51270F6EE2483F582EF3400F583E0604E
:105A14003774FC250CF50C7808121841AC0CA90D50
:105A2400EEFAEFFB120B9674021215EDE97019747D
:105A340003650D7003025AF8E50A24FBFAE50B34FA
:105A4400FFFB120F9E025AF87403650D7003025A8D
:105A5400FD850C0E750F00780E121841AC08AD09C7
:105A6400AA0AAB0B120B7274021215EDEE2469F53F
:105A740082EF3400F583E064807004747F8001E079
:105A8400F5087808121845E50DF508780812184548
:105A9400A90CAC0AAD0B9003F0E0FA7B0012085499
:105AA40074021215ED120D04EE2467F582EF340032
:105AB400F583E014F0E070030259987508607509E5
:105AC40005750A00750B00E5D914F50CE5D95403E6
:105AD400F50D60207403650D70030259F2E50C7036
:105AE40003025980EE2468F582EF3400F583E06008
:105AF40003025980793D02593E850882850983E075
:105B0400F8A3858208858309603B147003025CF561
:105B1400147003025FE9147003025D5324FD7003E3
:105B2400025E73147003025AA9147003025EC9243E
