:020000040000FA
:0600000002011D021FCEEB
:03002B00021D08AB
:0300530002204444
:03006B00021CD4A0
:10008300021EBFE5C754F84401F5C77901220000F9
:100093000080FB120086B90003020107E47921788E
:1000A30008B800028004F709D8FCE479297802B87B
:1000B30000028004F709D8FCE49002817860790893
:1000C3008002F0A3D8FCD9FA781A90014D7A01BACC
:1000D30000028007E493A3F608DAF99009E0AA8204
:1000E300AB8390014E78AC79048015E493A3AC8282
:1000F300AD838A828B83F0A3AA82AB838C828D83A8
:10010300D8E9D9E77582A67583FF740212012F75AA
:100113008291758300740012012F75D00075813FA1
:10012300751881751902759F00020096C09FF59F8F
:10013300E473D09F22D083D082C09FE493C0E07445
:100143000193C0E0740293F59F2201FFFF020202B4
:10015300020202020202010D0000001001021E90C1
:10016300010000FB8F021890010000E209023690A3
:100173000100009E02021890010000E3090234907E
:10018300010000138F021890010000E4090232906D
:10019300010000F78E021890010000E5090230907B
:1001A300010000A38E021890010000E609022E90C0
:1001B3000100007F8E021890010000E709022C90D5
:1001C300010000918E021890010000E809022A90B4
:1001D300010000B58E021890010000E90902289081
:1001E300010000058F021890010000EA0902269021
:1001F300010000EB0901E803053F100809476C758E
:10020300636F7365020105050208180A18476C75C8
:10021300636F73652053656E736F72000000000097
:100223000000031F01000E11171601DD0700005027
:10023300C0110000031F02000600000201DC0700DA
:10024300003CC022FFFF031F03000B17000502DC65
:1002530007000037C0335555031F04000C02000E7E
:1002630001DB073C0065B144AAAA031F05000D0585
:100273000C0C01DB073C00F6B1F5A5A5031B06003A
:10028300070F000502DB073C007EB0165A5A031B1A
:1002930007000904000E04DB0788FF64B017AA55A2
:1002A300031B08000000000101DD0788FF5AB02886
:1002B30055AA031B09000C00000502DD0788FF484F
:1002C300B03911115F01000001090001510807460F
:1002D30001640032005F020000010A0001510807B7
:1002E3004601640031007F030000010A0001510848
:1002F300074601640031005F040000010A00015158
:1003030008074601640031005F050000010A00018F
:100313005108074601640031007F060000010A000E
:10032300015108074601640031005F070000010A1C
:1003330000015108074601640031005F0800000115
:100343000B00015108074601640030007F090000DB
:10035300010C0001510807460164002F0009003910
:10036300070000101002FF0728021E90010000FE84
:100373008F021890010000F80B020690000000AEF7
:1003830003021690030000A803021890010000F96D
:100393000B020490000000AF03021690030000B0AC
:1003A30003021890010000FA0B021C90010000FBED
:1003B3000B021890010000FD0B0224900A0000B606
:1003C30003021690030000B703FF00013075030218
:1003D3000106000000000000000000000000000013
:1003E3000000000000000000000000000000FFFF0C
:1003F3000600800CE803FF0000B40000280028007A
:10040300283075A000A000A000A00000080008E0AC
:1004130001F0001000100010001000100010005038
:10042300005000500010001000D007000000000032
:10043300000F000100050030750700100001008166
:10044300FF0000FFD10BEF0BD70BFF0202020802E4
:100453005000A0000000E803021E90010000F88F86
:10046300021890010000E00C021490010000F50452
:10047300021890010000E10C0212900100000B052C
:10048300021890010000E20C0210900100000D051B
:10049300021890010000E30C020E900800000E0504
:1004A300021890010000E40C020C90010000E50C1E
:1004B300FFFF0100FF20021E9001000001900218BF
:1004C300900100004A0D020A90000000000002168D
:1004D300900300009D053D123D123D123D123D1259
:1004E3003D123D123D123D123D123D123D123D1291
:1004F30013152B150D151201384CF6021201386134
:10050300F602120138B9F60212013820F70212017D
:100513003868F702120138DEF7021201380DF802CB
:100523001201381BF8021201387FF802120138BD9C
:10053300F802120138D8F80212013870F9021201D8
:100543003819FA021201389CFA02120138D5FA025C
:1005530012013860FB02120138B7FB021201381690
:10056300FC0212013828FC021201384EFC0212016F
:100573003857FC02120138B6FD02120138E9C903EB
:10058300120138C8CA0312013824CB0312013844BC
:10059300CB031201386DE30312013874D503120142
:1005A30038B9D503120138FFD50312013892D703A6
:1005B3001201389FE203120138BAE203120138CA6A
:1005C300E20312013821E303120138298E031201D9
:1005D30038498E031201384D8F03120138998F0366
:1005E300120138B98F031201380C900312013879C4
:1005F3009003120138BF90031201382391031201B3
:1006030038D5930312013856940312013841DD03A0
:1006130012013871DD03120138A1DD03120138C163
:10062300DD031201381BDE03120138A09E03120101
:1006330038C59E03120138009F031201385EFF0183
:10064300120138F64900120138614C0012013821B9
:100653004E00120138CC4E00120138704F001201C7
:1006630038095000120138385000120138A45000E4
:100673001201380A5600120138B556001201382506
:1006830058001201388D58001201384159001201E7
:1006930038C15A00120138005B00120138745B0044
:1006A300120138D35B00120138325C00120138A109
:1006B3005C00120138945D00120138DA5D0012010A
:1006C300381F5E00120138425E00120138925F004B
:1006D300120138A55F001201381760001201384E6D
:1006E30060001201387A6000120138CD60001201F7
:1006F30038EE600012013832610012013884630061
:10070300120138C56300120138706400120138DB2E
:1007130064001201384026001201385B28001201E0
:1007230038DE2800120138182900120138FB2A008C
:100733001201384C2B00120138453000120138E108
:100743003100120138573200120138883200120189
:10075300385337001201381C3C001201385B3C004F
:10076300120138A03C00120138133D00120138ADCC
:100773003D001201384A3E00120138E73E001201E3
:10078300386D3F00120138F540001201387D4200F8
:100793001201383C44001201381A4500120138F89E
:1007A3004500120138314700120138424800120156
:1007B30038834800120138CF48001201388D99035D
:1007C300120138F69903120138099A031201385AB3
:1007D3009A03120138AB9A031201380A9B031201E0
:1007E30038DB9B031201384D9E0312013860E50389
:1007F30012013883DE0312013893DE03120138A796
:10080300DE03120138AFDF03120138EFCF03120109
:100813003895D003120138B1D203120138E8DB0353
:1008230012013815DC0312013880DC0312013897FA
:10083300DC03120138F3DC0312013830DD0312014B
:100843003833DD0312013896A303120138B5A3032D
:100853001201384AA4031201383AA503120138974A
:10086300A703120138F7A70312013860A803120186
:1008730038F87F00120138CCD203120138BED403FA
:100883001201382AD50312013871D5031201380D2C
:100893007E001201386C7E001201381A7F001201AB
:1008A30038997F00120138A0BE03120138D2BE036B
:1008B300120138DABF03120138FFC003120138BB3B
:1008C300C10312013872DA0212013858DB02120135
:1008D30038A5DB02120138E8DB021201385DDC02C5
:1008E300120138BEDC0212013833DD021201380F67
:1008F300DE021201381ADF021201389BDF021201F5
:100903003842E102120138D8E1021201384BE20207
:10091300120138C7E202120138DEE2021201381571
:10092300E4021201386FE40212013805A401120136
:100933003857A8011201381CAB0112013845AB012D
:100943001201386CAB011201381EAC01120138F1EF
:10095300AD011201382CAF011201381AB401120192
:100963003853B40112013897B401120138A9B50103
:10097300120138D5E003120138EBE00312013818F5
:10098300E10312013848E10312013869E10312015E
:10099300389AE103120138B1E10312013835DA0361
:1009A3001201384CDA031201387BDA03120138B42E
:1009B300DA03120138DCDA031201380ADB0312010D
:1009C3003821DB0312013838DB031201384EDB0315
:1009D30012013875DB0312013888DB031201389EDC
:1009E300DB03120138B1DB03120138D6DB0312013A
:1009F3003895C30212013894C402120138BEC402EE
:100A030012013813C50212013834C5021201384DE0
:100A1300C5021201384FC50212013870C502120116
:100A23003873C60212013830C702120138FDC702FB
:100A330012013870C80212013873C802120138F962
:100A4300C8021201383CC90212013873C9021201EB
:100A530038F9C902120138CBCA02120138CECA02D0
:100A63001201382CCB0212013844CB02120138BEDA
:100A7300CB02120138C1CB02120138C4CB021201DE
:100A830038C7CB021201386ECC0212013881CC0276
:100A930012013899CC02120138C9CC02120138D69E
:100AA300CC02120138D9CC0212013845CD02120111
:100AB3003833CE02120138E9CE0212013840AD03B9
:100AC30012013868AD0312013896AD03120138CD17
:100AD300AD0312013835AE031201387EAE031201A5
:100AE30038C9AE0312013807AF0312013844AF030C
:100AF30012013872AF0312013819B00312013823FF
:100B0300B00312013830B00312013863B00312018D
:100B13003825B10312013831B10312013849B10349
:100B230012013853B103120138C8E103120138D658
:100B3300E103120138EEE10312013806E203120168
:100B43003814E701120138B2E7011201382AE8012B
:100B53001201383FE90112013879E9011201382203
:100B6300EA01120138F7EA011201385BEC011201C4
:100B730038B2EC0112013839ED0112013820EE01CF
:100B83001201386DEE01120138FBEE011201381F1C
:100B9300EF01120138F4F00112013835F1011201AD
:100BA3003857F101120138D8F101120138C2F201AC
:100BB30012013888F3011201381D8703120138EF3F
:100BC3008703120138988803120138DB8803120166
:100BD30038688903120138F48903120138D58A036E
:100BE300120138048B03120138008C0312013848B8
:100BF3008C031201384A8D031201388E8D031201C2
:100C030038B48D0312013810E40312013882C20391
:100C130012013898C203120138BEC203120138E62A
:100C2300C303120138F0C30312013849C50312018B
:100C33003849C6031201386794031201389C95039F
:100C4300120138CF9503120138199603120138D7D0
:100C530097031201387E8E02120138078F021201A8
:100C630038488F021201384C910212013803930263
:100C73001201387F93021201385C94021201388A00
:100C8300970212013828980212013885990212013D
:100C9300380E9B02120138459B02120138EA9B026F
:100CA300120138B9C8011201381CC9011201386197
:100CB300CA0112013871CA0112013894CA01120122
:100CC30038DFCA0112013884CB011201387ACC0112
:100CD30012013844CD01120138BCCE01120138FE95
:100CE300CE011201389CCF01120138E9CF01120164
:100CF300380FD001120138FDD10112013802D2019F
:100D0300120138E3D30112013837D40112013899A3
:100D1300D401120138C1D40112013865D501120181
:100D23003827D60112013858D6011201385BD60193
:100D3300120138A3D601120138E5D6011201384C4D
:100D4300D701120138D6D703120138E9D7031201AC
:100D530038F2D7031201380BD80312013856D803DF
:100D630012013831D903120138C0D9031201380BEB
:100D7300DA03120138EF6500120138FB6500120136
:100D83003834660012013879660012013830670082
:100D9300120138B66700120138E267001201381BEE
:100DA30068001201382F6A001201380B6C0012011F
:100DB30038F66D001201382D6F001201388D710065
:100DC300120138797200120138BF7300120138CC56
:100DD3007400120138E97400120138217500120100
:100DE300383B7500120138A375001201383D7A00B3
:100DF300120138DE7A001201382F7B0012013856B7
:100E03007B00120138A47B00120138C27B0012015F
:100E130038167C001201381E7D00120138A67D00B1
:100E2300120138E8B103120138F2B103120138BDDF
:100E3300B203120138D8B203120138FEB203120111
:100E43003842B3031201387AB303120138A3B30350
:100E53001201381CB40312013831B40312013846AD
:100E6300B4031201387DB40312013891B4031201A3
:100E730038C2B403120138FCB40312013828B50395
:100E83001201389FB503120138E8B5031201381275
:100E9300B60312013837B603120138B4BA0312018C
:100EA300387EBB0312013861BC03120138D7BC037F
:100EB30012013819BD0312013846BE03120138135B
:100EC300B7021201383CB70212013855B7021201BA
:100ED300389AB80212013878B90212013897B90268
:100EE30012013824BA0212013867BA02120138B467
:100EF300BB0212013853BC02120138D2BE021201E6
:100F03003869BF021201383DC0021201381FC10205
:100F13001201388BC2021201381EC302120138B506
:100F2300DF031201381EE00312013872E0031201DD
:100F33003899E0031201385FB603120138CCB603C7
:100F430012013817B7031201380CB803120138081D
:100F5300B903120138F2B903120138DEED021201AE
:100F63003820EE02120138FAEE02120138D3EF02F2
:100F7300120138CEF002120138ADF1021201381914
:100F8300F202120138E0F2021201384BF3021201AD
:100F930038B2F302120138DDF3021201384EF402C3
:100FA300120138E1F4021201384AF5021201385FE6
:100FB300F502120138A7F502120138C0F502120139
:100FC3003825F60212013828F602120138F5CC034F
:100FD3001201381DCD031201385BCD0312013819FC
:100FE300CE0312013884CE03120138A0CE031201BE
:100FF30038C8CE03120138F8CE0312013807CF03E5
:1010030012013881CF03120138A7CF03120138161A
:10101300D801120138B3D90112013899DB01120149
:101023003863DC01120138AADC01120138F1DC015A
:1010330012013803DD0112013843DD011201387258
:10104300DD01120138BEDD01120138F6DD011201A6
:101053003824DE0112013875DE0112013804DF0184
:10106300120138F2E101120138CCE3011201380810
:10107300E40112013862E501120138A9E501120108
:10108300381EE6011201386CE601120138DBE40276
:10109300120138F8E40212013892EA02120138947C
:1010A300EB021201380EED02120138BCED021201FF
:1010B300383D9001120138869001120138B3900136
:1010C300120138E69001120138F39001120138FF42
:1010D3009001120138119101120138E691011201B8
:1010E30038449201120138799201120138159401A2
:1010F300120138629401120138869401120138F307
:101103009401120138989501120138549601120185
:1011130038D39601120138979701120138A6970127
:10112300120138279801120138C69801120138F8C4
:101133009801120138939901120138F199011201B2
:10114300382B9A01120138AC9A01120138759B01B0
:101153001201381E9C01120138A59C01120138FDB1
:101163009C011201385E9D01120138879D01120115
:10117300383D9E01120138879F01120138CA9F0131
:10118300120138E79F0112013806A00112013851FC
:10119300A00112013876A0011201389FA0011201AB
:1011A300380EA10112013850A10112013854A201D5
:1011B300120138EEA201120138BAA301120138D389
:1011C300A301120138BDF50112013810F601120115
:1011D300381CF601120138F1F60112013818F70133
:1011E30012013853F701120138BFF701120138F326
:1011F300F7011201382CF80112013844F8011201E9
:10120300389DF801120138B6F801120138FFF801D0
:1012130012013812F9011201382CF9011201384276
:10122300F9011201385EFA011201386FFB01120154
:1012330038BCFC01120138A1FD01120138F27F0014
:101243001201382DAA0212013861AA02120138CC08
:10125300AD0212013816AF02120138E0AF021201DB
:10126300386AB10212013845B2021201387FB20264
:10127300120138A2B202120138E4B202120138EDAF
:10128300B20212013837B30212013841B30212011C
:1012930038EDB302120138C1B40212013815B50298
:1012A30012013877B502120138CAB502120138F9B2
:1012B300B50212013838B60212013869B6011201BB
:1012C30038C3BE01120138C9BE0112013884C401FA
:1012D3001201386AC80112013853C603120138C912
:1012E300C603120138DFC6031201381CC7031201FB
:1012F3003854C703120138D1C7031201380CC8038D
:1013030012013887C803120138C3C803120138CC4D
:10131300C803120138D8C803120138F2C8031201F6
:101323003817C9031201382DC90312013856C903EE
:10133300120138B9C9031201387EA803120138918A
:10134300A803120138ABA803120138D4A803120171
:101353003817A90312013856A90312013894A903B7
:10136300120138F9A9031201380EAA031201381920
:10137300AA0312013826AA031201383DAA03120157
:10138300384BAA0312013856AA0312013862AA0382
:1013930012013875AA0312013880AA03120138A377
:1013A300AA031201384CAB031201385CAB031201E0
:1013B3003876AB0312013893AB03120138AFAB039A
:1013C300120138D4AB03120138DEAB03120138F239
:1013D300AB0312013811AC0312013872AC031201D2
:1013E3003878AC031201387EAC0312013884AC03A5
:1013F30012013890AC03120138C3AC03120138A3B5
:101403009C02120138259D02120138CE9D02120161
:1014130038169F0212013824A1021201380AA202CF
:101423001201383FA20212013861A2021201380AE6
:10143300A302120138DAA40212013803A502120131
:10144300387BA502120138ADA502120138BAA502F4
:1014530012013805A60212013829A6021201387AB0
:10146300A80212013884A902120138E0A90212016C
:1014730038008002120138118102120138F581020D
:10148300120138FF81021201382182021201382D24
:101493008202120138D18302120138FE8302120143
:1014A30038148502120138698502120138B88602A0
:1014B3001201388D8702120138E98702120138546C
:1014C3008802120138898802120138CC880212017D
:1014D30038968B02120138AE8B021201383F8C0210
:1014E3001201384D8C021201389A8C02120138A86D
:1014F3008C02120138148D021201388F8D021201F1
:1015030038E68D0212013854CF0212013876CF0229
:1015130012013887D10212013846D4021201387001
:10152300D5021201382ED6021201381AD70212013F
:1015330038EDFD0212013812FE0212013888FE0254
:101543001201380080031201380980031201381296
:101553008003120138EA80031201389B82031201CF
:1015630038CB8203120138F6820312013826830333
:10157300120138518303120138858303120138B1F4
:101583008303120138F483031201381F8403120109
:1015930038668403120138BB8403120138FD8403C7
:1015A300120138578503120138828503120138D19D
:1015B30085031201380186031201382C86031201B8
:1015C300385A86031201387D860312013899E403E1
:1015D300120138C5E403120138F2E403120138FCA6
:1015E300E4031201380CE50312013816E503120176
:1015F3003842E503E066701008A3E066700A08A3AA
:10160300E066700408A3E06622C3E7960809E7963C
:101613000809E7960809E79622C3E09608A3E0962F
:1016230008A3E09608A3E09622C008C3E096F50855
:1016330008A3E096420808A3E096420808A3E096B0
:1016430045087001D3D00822080808EAC0E0EBC0BF
:10165300E086F0E7A4FA180986F0E7A42AFA180945
:1016630086F0E7A42AFA180986F0E7A42AFA19866D
:10167300F0E7A4FBE5F02AFA190886F0E7A42BFBB0
:10168300E5F03AFA190886F0E7A42BFBE5F03AFAFD
:1016930018180986F0E7A4C5F02BFBE43AFA1908F9
:1016A300E7C5F0C6A426F6E5F03BFBE43AFA188654
:1016B300F0E7A4F6E5F00826F6E43B08F6E43A087A
:1016C300F6D0E0FBD0E0FA22E4CFC0E0E4CEC0E005
:1016D300E4CDC0E0E4CCC0E075F020C3E633F60807
:1016E300E633F608E633F608E633F6181818EC3353
:1016F300FCED33FDEE33FEEF33FFC3EC9709ED97BB
:1017030009EE9709EF97191919400FFFEC97FC0998
:10171300ED97FD09EE97FE191906D5F0BEECF70912
:10172300EDF709EEF709EFF7191919D0E0FCD0E04E
:10173300FDD0E0FED0E0FF226016080808C6C31300
:10174300C618C613C618C613C618C613C6D5E0EA0C
:10175300227009080808226016181818C6C333C671
:1017630008C633C608C633C608C633C6D5E0EA2260
:10177300E627F60809E637F60809E637F60809E624
:1017830037F622E026F608A3E036F608A3E036F69D
:1017930008A3E036F622E026F008A3E036F008A31B
:1017A300E036F008A3E036F022C3E697F60809E630
:1017B30097F60809E697F60809E697F622C3E09636
:1017C300F008A3E096F008A3E096F008A3E096F0F3
:1017D30022E056F608A3E056F608A3E056F608A35F
:1017E300E056F622E056F008A3E056F008A3E056D0
:1017F300F008A3E056F022E0F608A3E0F608A3E021
:10180300F608A3E0F622E6F008A3E6F008A3E6F064
:1018130008A3E6F022E0FAA3E0FBA3E0FCA3E0FDCB
:1018230022EAF0A3EBF0A3ECF0A3EDF022CAC0E0B0
:10183300E6F0A308DAFAD0E0FA22CAC0E0E0A3C5D2
:1018430082CCC582C583CDC583F0A3C582CCC582B6
:10185300C583CDC583DAE6D0E0CA22C3E498F8E4B1
:1018630099F912189F8026C3E49AFAE49BFBE920B6
:10187300E7E912189FE498F8E499F922C3E498F889
:10188300E499F912189FE498F8E499F9C3E49AFAF1
:10189300E49BFB22EB20E7CFE920E7E0B90010BB94
:1018A3000008E88AF084F8AAF022E4FBC8FA22EBE5
:1018B30070227B10C833C8C933C9335007C39AC3D6
:1018C300DBF280069A50012ADBEAC833F4C8C93335
:1018D300F4C9FA2275F008E4C833C8C933C933C957
:1018E3009AC99B5004C92AC93BD5F0ECFBC833F411
:1018F300C8E4C9FA22600D08C6A2E713C618C613C6
:10190300C6D5E0F322600C08C6C313C618C613C6B7
:10191300D5E0F422700422600D18C6C333C608C68E
:1019230033C6D5E0F41822251810AF08F518400285
:1019330015198008F51840021519D2AF22C0D02519
:101943001810AF08F518500205198008F518500251
:101953000519D2AFD0D0222518F58210AF08F5189B
:10196300400215198008F51840021519D2AF8519E0
:1019730083222518F582E43519F58322E4732518AB
:10198300C582C0E0E51934FFC583C0E0E518C395FF
:101993008224F810AF08858319858218800885830F
:1019A30019858218D2AFCEF0A3E520F0A37808E61C
:1019B30008F0A3DEFAEFF0A3E58124FAF8E608F0D5
:1019C300A3E608F0A3E608F0A30808E608F0A3E6F8
:1019D30008F0A315811581D0E0FED0E0F81581153C
:1019E300811581E8C0E0EEC0E0222518C582C0E081
:1019F300E51934FFC583C0E0E518C3958224F910C7
:101A0300AF08858319858218800885831985821814
:101A1300D2AFCEF0A3E520F0A37808E608F0A3DE6A
:101A2300FAEFF0A3E58124FBF8E608F0A3E608F05B
:101A3300A30808E608F0A3E608F0A315811581D0F2
:101A4300E0FED0E0F815811581E8C0E0EEC0E022A9
:101A5300851983851882E0A3FEE0A3F5207808E0CA
:101A6300A3F608DFFAE0A3FFE0A3C0E0E0A3C0E031
:101A7300E0A3C0E0E0A3C0E0E0A3C0E010AF0885AE
:101A830082188583198008858218858319D2AFD07F
:101A930083D082020135851983851882E0A3FEE095
:101AA300A3F5207808E0A3F608DFFAE0A3FFE0A39C
:101AB300C0E0E0A3C0E0E0A3C0E0E0A3C0E010AF5B
:101AC300088582188583198008858218858319D231
:101AD300AFD083D08222C0D02518C582C0E0E519DB
:101AE30034FFC583C0E0E518C3958224F310AF0823
:101AF3008583198582188008858319858218D2AF5A
:101B0300C8F0A3E9F0A3EAF0A3EBF0A37908E7098F
:101B1300F0A3D8FAECF0A3EDF0A3EEF0A3EFF0A35B
:101B2300D0E0F0A3D0E0F0A3D0E0F0A3E520F0A351
:101B3300E5F0F0A322851983851882E0C0E0A3E0D5
:101B4300F9A3E0FAA3E0FBA37808E0F608A3DFFA21
:101B5300E0FCA3E0FDA3E0FEA3E0FFA3E0C0E0A35D
:101B6300E0C0E0A3E0F5D0A3E0F520A3E0A3F5F007
:101B730010AF0885831985821880088583198582AB
:101B830018D2AFD082D083D0E0F8D0E03274048092
:101B930006740280027401C0E0F40412195AD0E002
:101BA300121830227404800474028000CCC0E0ED6B
:101BB300C0E0E518C39CCCAD1950011D10AF068CD5
:101BC300188D1980068C188D19D2AF12183DD0E0EC
:101BD300FDD0E0FC22D083D082E9C0E0E493A3C32C
:101BE30086F0C5F095F0F908E493A386F0C5F09567
:101BF300F0700BE493A3C3994005E9048002A3E4C6
:101C030075F002A42582F582E5F03583F583D0E0F3
:101C1300F9E493A3C0E0E493C0E022D083D082EC44
:101C2300C0E0EDC0E0E493A3FCE493A3FDED4C60BE
:101C33000D121C6AEC24FFFCED34FFFD80EFE493EE
:101C4300A3FCE493A3FDED4C600D121CA9EC24FF4F
:101C5300FCED34FFFD80EFD0E0FDD0E0FCE493A386
:101C6300C0E0E493C0E022C0E0C3E49396087401AB
:101C7300939618400FE493667008087401936618EE
:101C830070007019A3A3C3E4939608740193961884
:101C9300A3A3400DD0E0D0E0D0E0021C5AA3A3A33D
:101CA300A3A3A3D0E022C0E0C0F088F0E493667061
:101CB300080874019366187000A8F0A3A3700BD0F2
:101CC300F0D0E0D0E0D0E0021C5AA3A3D0F0D0E0E3
:101CD30022C0E074F2121AD9A2AFE433FED2AFE508
:101CE30089A2E04006E589A2E1500312083575890F
:101CF30000758900C2C5751A00EEF8EEA2E092AF36
:101D03007F01021B38C0E0C0D0E8C0E0E9C0E0A218
:101D1300AFE433F8D2AFC2C7751A00E8F9E8A2E01E
:101D230092AFD0E0F9D0E0F8D0D0D0E03274F51221
:101D330019EDEAFEEBFFEE2434F8EF3400F98808DE
:101D43008909EE2435121E68F8EE2437121E68F551
:101D53000AEC850AF0A4FCAAF0850AF0EDA42AFD9A
:101D6300E82CF8E43DF97A257B0012189FEA8508F0
:101D730082850983F05407F87401B800028004C314
:101D830033D8FCC0E0E0131313541FF8EE28F8EF28
:101D93003400F9E8245DF582E93400F583D0E0F8F6
:101DA300E0586008850882850983801DEE24361279
:101DB3001E68F5F0EA84A8F0EE28F8EF3400F9E89D
:101DC3002438F582E93400F583E0F97F04021A9997
:101DD30074F51219EDEAFEEBFFEE2434121E68C00F
:101DE300E0EE2435F582EF3400F583D0E0F08E8207
:101DF3008F83A3A3A3A3A3E0FAA3E0FB8E828F8325
:101E0300A3A3A3A3A3A3A3E0FCA3E0FDECC39AF5C0
:101E13000AED9BF50BEE2480F508EF3400F50985F8
:101E23000882F583E06401702BEE2481F582EF34A0
:101E330000F583121BAB121E717402121940E96084
:101E4300137C827D07EEFAEFFB12116B8508828506
:101E53000983E4F0AC0AAD0BEEFAEFFB121D30126E
:101E6300262A021DCEF582EF3400F583E022C082DC
:101E7300C083851882851983E0F8A3E0F9C3EA9C3F
:101E8300EB9D5012C3EC98ED994019C3EA98EB9976
:101E9300501279018010C3EA98EB9940F5C3EC988E
:101EA300ED9950EE7900D083D08222EAC39CFAEBFD
:101EB3009DFB2200008521878522C622C0E074EFA6
:101EC300121AD9759B00906182E0A2E64003021FBB
:101ED30080E591A2E64003021F807591BF900647FB
:101EE300E064057008121309121315800312130F0F
:101EF300752100121381E9900648F07900121375D9
:101F03001210D57A017B00900646E0F91205539032
:101F13007803E064426003021FC99007E4E014F011
:101F23006003021FC9C2AF121F2D00782AD0E0F64A
:101F330018D0E0F6E59F5407F97005908FE480030D
:101F4300908F6878081217FAE9C4C0E07829E6553B
:101F530008F50808E65509F509740B7808121908FD
:101F6300D0E02508F8906270E0A2E740F8E8C333B8
:101F7300906272F0906270E0D2E0F08049E0A2E5F6
:101F83005024E591A2E5501E7591DF900647E06469
:101F93000D7013900669E004F064287002E4F07A8F
:101FA30000E0F91213F3906181E0A2E35009E5E93F
:101FB300A2E3500375E9F7A3E0A2E75009E591A274
:101FC300E7500375917F7F04021B38C0E0C0D0C087
:101FD30082C083906183E0A2E05009E5BFA2E05094
:101FE3000375BFFEE0A2E15009E5BFA2E15003750E
:101FF300BFFDE0A2E25009E5BFA2E2500375BFFBBB
:10200300E0A2E35009E5BFA2E3500375BFF7E0A2E6
:10201300E45009E5BFA2E4500375BFEFE0A2E55029
:1020230009E5BFA2E5500375BFDFE0A2E65009E56D
:10203300BFA2E6500375BFBFD083D082D0D0D0E01B
:1020430032C0E074F2121AD9E5A7A2E4500FE5A159
:10205300A2E4500953A7EF75A1EF122098E5A7A2B8
:10206300E5500CE5A1A2E5500653A7DF75A1DFE516
:10207300A7A2E15009E5A1A2E1500375A1FDE5A7DF
:10208300A2E2500CE5A1A2E2500653A7FB75A1FB07
:102093007F01021B3874F81219ED75210190064770
:1020A300E0640670077A007B001212F1A2AFE433FA
:1020B300FED2AF90064DE0640170187A207B009049
:1020C3000646E0F91205EF7A207B00900646E0F918
:1020D300120559906182E0D2E6F09007E3E06021B7
:1020E30085C622801690064CE064017008E5C6544C
:1020F300F84405F5C653BEFC121EB8740165216091
:10210300E4EEA2E092AF7F01021A9900008E238FC2
:1021130024858228858327851882851983E0CEA3A9
:10212300E0CF852882852783EBC9EAC8EDCBECCACB
:1021330075F010C3E833C8E933C9EA33CAEB33CBCC
:10214300C3EA9EF526EB9FF525B35004AB25AA26DB
:10215300EC33CCED33CDD5F0DAAE23AF242274E9E2
:102163001219ED74FA12192AEAFEEBFF8C088D0995
:10217300900647E024F7C394055006908FAC0222E3
:102183008812126D8A0A8B0BEA450B7003022285B3
:102193001213278A0C8B0D121327EA650C7003EBBD
:1021A300650D60ECEEFCEFFD851882851983AA822C
:1021B300AB8312132D850A82850B83A3A3780C129C
:1021C30017FA908F88780C1217D485188285198393
:1021D30078141217FA908F8878141217D4780C7920
:1021E3001412160C501F780C79141217AC908F70C0
:1021F300780C12162C4047850C10850D11850E1294
:10220300850F1380418514108515118516128517C6
:10221300137810790C1217AC908F70781012162C5B
:10222300501C75100075110075120075130178109C
:1022330079141217AC7810790C1217738008908FE9
:10224300AC78101217FA74097810121754908FBCD7
:10225300780C1217FA7810790C1216CB900647E017
:102263006408600AE064066005E06405701C908FF2
:102273008C781012162C5012908F7C7810121786BF
:102283008008908FEC78101217FA850882850983ED
:10229300781012180974061219407F10021A9974E3
:1022A300F71219ED12133F9007E1E06401701090EB
:1022B3006245E4F0A3F053F4F343FE0C5390F3129E
:1022C30012DFE5C654804449F5C6E59E547F644950
:1022D30070F8906185740FF09007DFE0F47002A34B
:1022E300E0602C7508017509009007DFE07808129B
:1022F3001917E508F4FAA3E0600814600A14600CE7
:10230300800DEA52808008EA52908003EA52A07955
:10231300007F02021A9974F71219EDE9FEEAFF74BD
:10232300016E700C7A807B00900646E0F91205532B
:10233300902638E493F46008E493F91210B7800907
:1023430053C680E59E547F70FA1212E59007E1E0D0
:10235300640170031210ED9007DFE0F47002A3E054
:10236300602A7508017509009007DFE078081219E3
:1023730017AA08A3E0600814600A14600C800DEA31
:1023830042808008EA42908003EA42A012126D8ADA
:10239300088B09A808A909E8496017E5E170FCE87A
:1023A3002414F582E93400F583E0F874FF686002D1
:1023B30088E174016F700A7A01900646E0F912050C
:1023C300BF02231474F11219ED8A088B098C0A8D4C
:1023D3000B740F121975780C1217FA908F887808FE
:1023E3001217D4908F88780C1217D47808790C12AE
:1023F300160C50157808790C1217AC908F7078086A
:1024030012162C401579018013780C79081217AC39
:10241300908F70780C12162C40EB79007F08021A0B
:102423009974ED1219ED8A088B098C0A8D0B7413BC
:10243300121975780C1217FA908F8878081217D42E
:10244300908F88780C1217D4780C790812160C40E8
:10245300117808790C1217ACAA08AB09AC0AAD0BBA
:102463008022751000751100751200751301781024
:10247300790C1217AC78107908121773AA10AB11E4
:10248300AC12AD137F0C021A99908F88780812173B
:10249300FA8A828B8378081217E77F04021A9974E9
:1024A300F51219ED8C828D8378081217FA8A828BC4
:1024B3008378081217C01224F6C3E098F0A3E099BA
:1024C3001224E8401E908F9478081217FA8A828BA0
:1024D3008378081217998E828F83E02420F0A3E07B
:1024E300344EF080A4F08E828F83C3E09420A3E067
:1024F300944E22EA2404F8EB3400F9E8FEE9FF8C59
:10250300828D83A3A3A3A3E0F8A3E0F98E828F8334
:102513002274F51219EDE9FE900799E0FAA3E0FBA6
:10252300EEC333F8E433F974C728F582748E39F5B2
:1025330083E02AF508A3E03BF5097808121B949081
:102543008F5812181812211074021219408A088B1E
:10255300098C0A8D0B7410780812173BAA08AB0973
:102563007F04021A9974F11219ED8A0C8B0D8C0EEB
:102573008D0F740F121975E0FAA3E0FB7411121991
:1025830075E0F508A3E0F5097413121975E0FEA3CD
:10259300E0FF7808121B94EA2401F508EB3400F5F8
:1025A30009E4F50AF50B780C790812164B908FA8FD
:1025B30078081217FA780C790812164BAA0CAB0D8F
:1025C300AC0EAD0F12211074021219408B09EA45AB
:1025D3000960047A0180027A00EC2AFCED3400FDE4
:1025E300ECF8EDF97A717B0212189F88088909E4E7
:1025F300F50AF50B8E828F837808121809ECF8ED33
:10260300F97A717B0212189F8A088B09740578087E
:102613001219178E828F83A3A3A3A3E508F0A3E562
:1026230009F07F08021A99C082C083E9906000F024
:10263300D083D08222FFFFFFFFFFFFFFFF74F7125B
:10264300198174EC12192AE9FE900352F0740512F1
:1026530019757400F0740E1219757400F0A37400E8
:10266300F074041219757400F0740C12197574C89F
:10267300F0A37400F0740A1219757440F0A3740681
:10268300F074081219757401F0A37400F074061243
:10269300197574E8F0A37403F07405121975AC820C
:1026A300AD8379017A057B0312092BE9740E1219A4
:1026B30075AC82AD8379027A067B0312092BE97C20
:1026C300907D0A79097A087B0312092BE97C997DAD
:1026D3000A79097A077B0312092BE9740412197525
:1026E300AC82AD8379017A107B0312092BE9740C58
:1026F300121975AC82AD8379027A117B0312092B0F
:10270300E9740A121975AC82AD8379027A127B03DC
:1027130012092BE97408121975AC82AD8379027A18
:10272300137B0312092BE97406121975AC82AD836E
:1027330079027A147B0312092BE97CA27D0A7A15AC
:102743007900120C37E97AC77B4C7C007D0074104A
:10275300121975EAF0A3EBF0A3ECF0A3EDF0740308
:102763001219757401F074021219757401F0740171
:102773001219757400F08518828519837401F07439
:1027830010121975AC82AD8379047A087B041206A2
:1027930043E97403121975AC82AD8379017A007B26
:1027A30004120643E97402121975AC82AD837901F0
:1027B3007A027B04120643E97401121975AC82ADE7
:1027C3008379017A037B04120643E985188285190C
:1027D30083AC82AD8379017A067B04120643E91246
:1027E3000C55E9FF900352E0F9120C5B908F9412A1
:1027F3001818120C3DE9908F94121818120D93E9D2
:10280300908F941218181207BDE912062BE97A6308
:102813007B071207C3900352E0F9120619E97A0005
:10282300790312084DE975F30075F40075F5007529
:10283300FDFC75FEFF75FF1F75800375900075A085
:10284300007A017B00900352E0F9120553E97414F6
:102853001219407F01021A5374F2121981890AEA8C
:10286300FEEBFFEE5400F8EF5480F9E84960319035
:102873000352E0F912053B8A0C8B0DA80CA90D88B5
:10288300088909E849600FAA08AB09120721AA08B9
:10289300AB09120529E9EE6400FAEF6480FB803688
:1028A300EEA2E0501B7AF47B0B120937E9F5087AA4
:1028B300907B8F120661EE6401FAEF6400FB8016D1
:1028C300EE5402600D12072DEE6402FAEF6400FB72
:1028D30080047A007B007F06021A5374F712198171
:1028E300EAFEEBFF8E828F83E02440600624E060E3
:1028F30018801D8E828F83A3A3A3E0FA8E828F8319
:10290300A3A3E0F91207278007EEFAEFFB120733C0
:102913007F01021A5374F712198174FF12192AE9FD
:10292300FEEAFFEFA2E04003022A759003A4E060F1
:1029330003022A751207ABE9C39401403A7A02797C
:1029430001120769E99003A5E02401F91207B1E92F
:102953009003A5F09003A5E06409700A79001207BB
:10296300B1E99003A5F0900353E064056003022AE4
:102973007512074B022A757D00EDC39403400302D1
:102983002A75EDF87900E875F012A4C8AAF075F07D
:1029930000A42AFA75F012E9A42AF974B728F5827B
:1029A300740A39F583E0D2E0F0900BF2E02401F8E9
:1029B300A3E03400F9900BF2E8F0A3E9F0EDFA7B21
:1029C30000EA75F012A4CAACF075F000A42CFC75F3
:1029D300F012EBA42CFB74B92AF582740A3BF5833D
:1029E300E8F0A3E9F0900BF2E0FAA3E0FBEDF8794D
:1029F30000E875F011A4C8ACF075F000A42CFC75C8
:102A0300F011E9A42CF9745A28F582740B39F58373
:102A1300EAF0A3EBF0ED75F00284E5F06029EDF840
:102A23007900E875F012A4C8AAF075F000A42AFA98
:102A330075F012E9A42AF974B828F582740A39F5F5
:102A430083E0D2E4F08027EDF87900E875F012A472
:102A5300C8AAF075F000A42AFA75F012E9A42AF9BD
:102A630074B828F582740A39F583E0C2E4F00D02E4
:102A7300297CEFA2E15077900353E06405606F7CFB
:102A8300207D007A067B00120ABDE97C207D007A56
:102A9300077B00120ABDE97C1E7D007A017B0012D0
:102AA3000ABDE9851882851983AC82AD837A057BDB
:102AB30003120931E9851882851983E070047401D2
:102AC30080027400851882851983F0851882851920
:102AD30083AC82AD8379017A057B0312092BE985E7
:102AE3001882851983E070069003A37401F07401C2
:102AF3001219407F01021A53C082C0839003A2E0DF
:102B0300600B9003A27400F012075180359003A468
:102B1300E0602F9003A5E02401F91207B1E99003C7
:102B2300A5F09003A5E0640970159003A57400F067
:102B33009003A47400F07A017901120757800312FD
:102B4300074BD083D08202013574F212198174EEDF
:102B530012192A8A088B09850882850983A3A3A3EE
:102B6300E0FE850882850983A3A3A3A3E0FF750A7A
:102B730001EE14600914600614601214701EEF70E5
:102B830025EEFA7903120757750A008019EF6016CC
:102B9300EEFA7903120757750A00800AEEFA7902F2
:102BA300120757750A00E50A700302303BEF601BFA
:102BB300146018147003022EA9147003022EA914B2
:102BC300603E146006146003023034850882850970
:102BD30083A3A3E06402701EE4F50CF50D780C12D8
:102BE3001B947C007D007B00EFFAEEF91207B774AB
:102BF300021219408007EEFA790512075702303B9B
:102C0300850882850983A3A3A3A3A3E064016003CA
:102C1300022CF2850882850983A3A3E0640760037D
:102C2300022CF2850882850983A3A3A3A3A3A3E0AF
:102C3300FA7B00850882850983A3A3A3A3A3A3A387
:102C4300E0F87900E4C8F9EA28F8EB39F985188245
:102C5300851983E8F0A3E9F0850882850983A3A396
:102C6300A3A3A3A3A3A3E0FA7B008508828509831A
:102C7300A3A3A3A3A3A3A3A3A3E0F87900E4C8F9A0
:102C8300EA28F8EB39F97409121975E8F0A3E9F0A9
:102C93007409121975C082C083851882851983E06F
:102CA300F8A3E0F9D083D082C3E098A3E09940353C
:102CB300740912197585820C85830D780C121B9487
:102CC3007402121975AC82AD83850882850983A3CA
:102CD300A3A3A3A3E0FBEFFAEEF91207B774021262
:102CE300194002303BEEFA790512075702303B8553
:102CF3000882850983A3A3A3A3A3E064026003025C
:102D03002E9F850882850983A3A3E06411600302D3
:102D13002E9F850882850983A3A3A3A3A3A3E0FA17
:102D23007B00850882850983A3A3A3A3A3A3A3E0B0
:102D3300F87900E4C8F9EA28F8EB39F974071219AD
:102D430075E8F0A3E9F0850882850983A3A3A3A30B
:102D5300A3A3A3A3E0C0E07406121975D0E0F08525
:102D63000882850983A3A3A3A3A3A3A3A3A3E0C06A
:102D7300E07405121975D0E0F0850882850983A3F4
:102D8300A3A3A3A3A3A3A3A3A3E0C0E07404121962
:102D930075D0E0F0E508240BF582E5093400F583EE
:102DA300E0C0E07403121975D0E0F0E508240CF5D7
:102DB30082E5093400F583E0C0E07402121975D08E
:102DC300E0F0E508240DF582E5093400F583E0FA27
:102DD3007B00E508240EF582E5093400F583E0F86D
:102DE3007900E4C8F9EA28F8EB39F9741012197577
:102DF300E8F0A3E9F0E508240FF582E5093400F5CE
:102E030083E0C0E0740F121975D0E0F0E5082410D8
:102E1300F582E5093400F583E0C0E0740E121975FC
:102E2300D0E0F0E5082411F582E5093400F583E0EC
:102E3300C0E0740D121975D0E0F0E5082412F58294
:102E4300E5093400F583E0C0E0740C121975D0E095
:102E5300F0E5082413F582E5093400F583E0C0E0CA
:102E6300740B121975D0E0F0740B12197585820C6E
:102E730085830D780C121B947404121975AC82AD02
:102E830083850882850983A3A3A3A3A3E0FBEFFAA9
:102E9300EEF91207B774021219408007EEFA7905AA
:102EA30012075702303B850882850983A3A3A3A396
:102EB300A3E064017071850882850983A3A3E0649C
:102EC300057064850882850983A3A3A3A3A3A3E054
:102ED300FA7B00850882850983A3A3A3A3A3A3A3E5
:102EE300E0F87900E4C8F9EA28F8EB39F9851882A3
:102EF300851983E8F0A3E9F0E4F50CF50D780C12DD
:102F03001B947402121975AC82AD838508828509FE
:102F130083A3A3A3A3A3E0FBEFFAEEF91207B7740D
:102F23000212194002303B850882850983A3A3A3BB
:102F3300A3A3E06402600302302B85088285098322
:102F4300A3A3E0640A600302302B8508828509830A
:102F5300A3A3A3A3A3A3E0FA7B0085088285098327
:102F6300A3A3A3A3A3A3A3E0F87900E4C8F9EA28E1
:102F7300F8EB39F97407121975E8F0A3E9F085083D
:102F830082850983A3A3A3A3A3A3A3A3E0C0E0749F
:102F930006121975D0E0F0850882850983A3A3A3DF
:102FA300A3A3A3A3A3A3E0C0E07405121975D0E003
:102FB300F0850882850983A3A3A3A3A3A3A3A3A343
:102FC300A3E0C0E07404121975D0E0F0E508240B07
:102FD300F582E5093400F583E0C0E0740312197546
:102FE300D0E0F0E508240CF582E5093400F583E030
:102FF300C0E07402121975D0E0F0E4F50CF50D7819
:103003000C121B947404121975AC82AD838508826B
:10301300850983A3A3A3A3A3E0FBEFFAEEF91207A9
:10302300B774021219408010EEFA7909120757801B
:1030330007EEFA790412075774121219407F060239
:103043001A5374F612198174F612192AE9FE7405DB
:103053006E70030231D2900353E0640560030230C3
:10306300F274056E70030230F27401121975740163
:10307300F09003A47400F09003A27400F07A027B32
:1030830000900352E0F91205EFE974046E70267C98
:10309300207D007A067B00120ABDE97C207D007A40
:1030A300077B00120ABDE97C1E7D007A017B0012BA
:1030B3000ABDE980247C407D067A067B00120ABDA6
:1030C300E97C407D067A077B00120ABDE97C1E7D00
:1030D300007A017B00120ABDE97401121975AC82F2
:1030E300AD8379017A057B0312092BE90231D29072
:1030F3000353E06402707174036E706C9003A3E079
:1031030060099003A37400F00231D27A067B0012A7
:103113000AC38A088B097420650870047400650962
:1031230060030231D28518828519837401F07C40D3
:103133007D067A067B00120ABDE97C407D067A078C
:103143007B00120ABDE97C1E7D007A017B00120A16
:10315300BDE9851882851983AC82AD8379017A052F
:103163007B0312092BE9806774016E70627402128B
:103173001975AC82AD837A047B03120931E97407B4
:10318300121975E0C0E07409121975D0E0F07406E5
:10319300121975E0C0E07408121975D0E0F07405D7
:1031A300121975E0C0E07407121975D0E0F07406C7
:1031B3001219757400F074051219757400F0740215
:1031C300121975AC82AD837A087900120631E9EEE3
:1031D300900353F0740A1219407F02021A5374F2D7
:1031E3001219818A088B09890A8C0B7401650A708C
:1031F3005EE50B705A90035BE0FAA3E0FB120FE568
:103203008A0C8B0DA80CA90DE8FEE9FFE849603F85
:103213008E828F83A3A3A3E0A2E25004D2F08002A4
:10322300C2F0A2F0E433900354F0900354E0601F23
:10323300750C06750D00780C121B94EE2405FCEF3B
:103243003400FD7A557B031204FF74021219407F88
:1032530006021A5374F41219818A088B09ECFEEDE5
:10326300FF890A740C121975E0F50B908F98121BE5
:10327300A77900EEFAEFFB1206677404121940E90E
:103283007F04021A5374F4121981750860750903D7
:103293009003A5E0F87900E875F012A4C8AAF075C8
:1032A300F000A42AFA75F012E9A42AF974B828F5F3
:1032B30082740A39F583E0FEEE850882850983F07E
:1032C300850882850983A38582088583099003A5E0
:1032D300E0F87900E875F012A4C8AAF075F000A42C
:1032E3002AFA75F012E9A42AF974B928F582740A46
:1032F30039F583E0F8A3E0F9E8850882850983F0CE
:10330300850882850983A38582088583099003A59F
:10331300E0F87900E875F012A4C8AAF075F000A4EB
:103323002AFA75F012E9A42AF974B928F582740A05
:1033330039F583E0F8A3E0F9E4E9F8850882850923
:1033430083F0850882850983A38582088583099094
:1033530003A5E0F87900E875F012A4C8AAF075F0A7
:1033630000A42AFA75F012E9A42AF974C028F58298
:10337300740A39F583E0F8A3E0F9E8850882850942
:1033830083F0850882850983A38582088583099054
:1033930003A5E0F87900E875F012A4C8AAF075F067
:1033A30000A42AFA75F012E9A42AF974C028F58258
:1033B300740A39F583E0F8A3E0F9E4E9F8850882B3
:1033C300850983F0850882850983A385820885831F
:1033D300099003A5E0F87900E875F012A4C8AAF0F3
:1033E30075F000A42AFA75F012E9A42AF974BF282B
:1033F300F582740A39F583E02401850882850983FF
:10340300F0850882850983A3858208858309900353
:10341300A5E0F87900E875F012A4C8AAF075F000E9
:10342300A42AFA75F012E9A42AF974BE28F5827465
:103433000A39F583E02401850882850983F085082C
:1034430082850983A38582088583099003A5E0F813
:103453007900E875F012A4C8AAF075F000A42AFA5E
:1034630075F012E9A42AF974BD28F582740A39F5B6
:1034730083E0850882850983F0850882850983A313
:103483008582088583099003A5E0F87900E875F043
:1034930012A4C8AAF075F000A42AFA75F012E9A4E0
:1034A3002AF974BC28F582740A39F583E085088209
:1034B300850983F0850882850983A385820885832E
:1034C300099003A5E0F87900E875F012A4C8AAF002
:1034D30075F000A42AFA75F012E9A42AF974BB283E
:1034E300F582740A39F583E0850882850983F085BE
:1034F3000882850983A3858208858309EEA2E040BB
:10350300030235939003A5E0F87900E875F012A45F
:10351300C8AAF075F000A42AFA75F012E9A42AF9F2
:1035230074C228F582740A39F583E0F8A3E0F9E858
:10353300850882850983F0850882850983A38582AE
:10354300088583099003A5E0F87900E875F012A4D3
:10355300C8AAF075F000A42AFA75F012E9A42AF9B2
:1035630074C228F582740A39F583E0F50AA3E0F5FD
:103573000B7408780A1218F8E50A8508828509830E
:10358300E50AF0850882850983A385820885830976
:10359300EEA2E140030236589003A5E0F87900E873
:1035A30075F012A4C8AAF075F000A42AFA75F012F7
:1035B300E9A42AF974C428F582740A39F583E0F87A
:1035C300A3E0F9E8850882850983F08508828509E7
:1035D30083A38582088583099003A5E0F87900E831
:1035E30075F012A4C8AAF075F000A42AFA75F012B7
:1035F300E9A42AF974C428F582740A39F583E0F83A
:10360300A3E0F9E4E9F8850882850983F085088257
:10361300850983A38582088583099003A5E0F8794A
:1036230000E875F012A4C8AAF075F000A42AFA7590
:10363300F012E9A42AF974C628F582740A39F583CD
:10364300E0850882850983F0850882850983A3853F
:103653008208858309EEA2E340030236E29003A5C4
:10366300E0F87900E875F012A4C8AAF075F000A498
:103673002AFA75F012E9A42AF974C728F582740AA4
:1036830039F583E0F8A3E0F9E8850882850983F03A
:10369300850882850983A38582088583099003A50C
:1036A300E0F87900E875F012A4C8AAF075F000A458
:1036B3002AFA75F012E9A42AF974C728F582740A64
:1036C30039F583E0F8A3E0F9E4E9F8850882850990
:1036D30083F0850882850983A3858208858309E5AC
:1036E30008C3946090035FF09003A5E0F87900E8C5
:1036F30075F012A4C8AAF075F000A42AFA75F012A6
:10370300E9A42AF974B728F582740A39F583E064C9
:10371300037038EEA2E450069003A27401F0900304
:1037230052E0F97C5D7D0390035BE0FAA3E0FB12BA
:1037330007C9E9908F9C121BA77A027B0090035262
:10374300E0F91205E37404121940E97F04021A53E5
:1037530074F61219817508777509039003A5E0F8CB
:103763007900E875F011A4C8AAF075F000A42AFA4C
:1037730075F011E9A42AF9745928F582740B39F507
:1037830083E0FEEE850882850983F085088285093A
:1037930083A38582088583099003A5E0F87900E86F
:1037A30075F011A4C8AAF075F000A42AFA75F011F7
:1037B300E9A42AF9745A28F582740B39F583E0F8E1
:1037C300A3E0F9E8850882850983F08508828509E5
:1037D30083A38582088583099003A5E0F87900E82F
:1037E30075F011A4C8AAF075F000A42AFA75F011B7
:1037F300E9A42AF9745A28F582740B39F583E0F8A1
:10380300A3E0F9E4E9F8850882850983F085088255
:10381300850983A3858208858309EEA2E7503B903F
:1038230003A5E0F87900E875F011A4C8AAF075F0D3
:1038330000A42AFA75F011E9A42AF9745C28F58228
:10384300740B39F583E0850882850983F085088246
:10385300850983A3858208858309EEA2E0400302DC
:1038630039229003A5E0F87900E875F011A4C8AAFD
:10387300F075F000A42AFA75F011E9A42AF9745D31
:1038830028F582740B39F583E0850882850983F076
:10389300850882850983A38582088583099003A50A
:1038A300E0F87900E875F011A4C8AAF075F000A457
:1038B3002AFA75F011E9A42AF9745E28F582740BCB
:1038C30039F583E0F8A3E0F9E8850882850983F0F8
:1038D300850882850983A38582088583099003A5CA
:1038E300E0F87900E875F011A4C8AAF075F000A417
:1038F3002AFA75F011E9A42AF9745E28F582740B8B
:1039030039F583E0F8A3E0F9E4E9F885088285094D
:1039130083F0850882850983A3858208858309EE60
:10392300A2E1503B9003A5E0F87900E875F011A4FB
:10393300C8AAF075F000A42AFA75F011E9A42AF9CF
:10394300746028F582740B39F583E0850882850954
:1039530083F0850882850983A3858208858309EE20
:10396300A2E2503B9003A5E0F87900E875F011A4BA
:10397300C8AAF075F000A42AFA75F011E9A42AF98F
:10398300746128F582740B39F583E0850882850913
:1039930083F0850882850983A3858208858309EEE0
:1039A300A2E34003023A679003A5E0F87900E875C3
:1039B300F011A4C8AAF075F000A42AFA75F011E971
:1039C300A42AF9746228F582740B39F583E0F8A30D
:1039D300E0F9E8850882850983F0850882850983F3
:1039E300A38582088583099003A5E0F87900E8752B
:1039F300F011A4C8AAF075F000A42AFA75F011E931
:103A0300A42AF9746228F582740B39F583E0F8A3CC
:103A1300E0F9E4E9F8850882850983F08508828561
:103A23000983A38582088583099003A5E0F87900BB
:103A3300E875F011A4C8AAF075F000A42AFA75F08D
:103A430011E9A42AF9746428F582740B39F583E02B
:103A5300850882850983F0850882850983A3858289
:103A630008858309EEA2E44003023B2C9003A5E002
:103A7300F87900E875F011A4C8AAF075F000A42A3B
:103A8300FA75F011E9A42AF9746528F582740B39E3
:103A9300F583E0850882850983F08508828509839B
:103AA300A38582088583099003A5E0F87900E8756A
:103AB300F011A4C8AAF075F000A42AFA75F011E970
:103AC300A42AF9746628F582740B39F583E0F8A308
:103AD300E0F9E8850882850983F0850882850983F2
:103AE300A38582088583099003A5E0F87900E8752A
:103AF300F011A4C8AAF075F000A42AFA75F011E930
:103B0300A42AF9746628F582740B39F583E0F8A3C7
:103B1300E0F9E4E9F8850882850983F08508828560
:103B23000983A3858208858309EEA2E64003023B4D
:103B3300B69003A5E0F87900E875F011A4C8AAF0DF
:103B430075F000A42AFA75F011E9A42AF97468281B
:103B5300F582740B39F583E0F8A3E0F9E885088270
:103B6300850983F0850882850983A3858208858377
:103B7300099003A5E0F87900E875F011A4C8AAF04C
:103B830075F000A42AFA75F011E9A42AF9746828DB
:103B9300F582740B39F583E0F8A3E0F9E4E9F885DD
:103BA3000882850983F0850882850983A3858208B5
:103BB300858309E508C39477900376F09003A5E025
:103BC300F87900E875F012A4C8AAF075F000A42AE9
:103BD300FA75F012E9A42AF974B728F582740A3940
:103BE300F583E06403702D900352E0F97C747D0348
:103BF30090035BE0FAA3E0FB1207CFE9908F9C12DE
:103C03001BA77A027B00900352E0F91205E37404C8
:103C1300121940E97F02021A5374F7121981E9FE5F
:103C2300EAFF90038D7404F090038E7406F0900302
:103C33008F7400F0EF900390F0EE900391F09003F7
:103C430052E0F97C8B7D0390035BE0FAA3E0FB1267
:103C530007D5E97F01021A5374F7121981EAFEEBC3
:103C6300FF90038D7404F090038E7405F090038F1E
:103C73007400F0EE900390F0EEF8EFF9E4E9F890B9
:103C83000391F0900352E0F97C8B7D0390035BE09A
:103C9300FAA3E0FB1207D5E97F01021A5374F2126B
:103CA3001981890CEAFEEBFF8C0D7407650C705BC0
:103CB3007A177B001205238A0A8B0B850A08850B6A
:103CC30009E5084509604485088285098374E0F0A5
:103CD300E50D850882850983A3A3E50DF0850D0A0B
:103CE300750B00780A121B94EEFCEFFDE508240324
:103CF300FAE5093400FB1204FF7402121940AA0802
:103D0300AB09900352E0F912052FE97F06021A531B
:103D130074F7121981E9FF79007B00EBC394094022
:103D230003023DA8EBFC7D00EC75F012A4CCA8F0D7
:103D330075F000A428F875F012EDA428FD74B72CD3
:103D4300F582740A3DF583E0A2E0500109EF602893
:103D5300EBFC7D00EC75F012A4CCA8F075F000A488
:103D630028F875F012EDA428FD74B72CF582740AB7
:103D73003DF583E04AF08029EAF4FEEBFC7D00EC9C
:103D830075F012A4CCA8F075F000A428F875F01211
:103D9300EDA428FD74B72CF582740A3DF583E05E2B
:103DA300F00B023D1E7F01021A5374F7121981E9C9
:103DB300FE7C00ECC394094003023E43ECF8790017
:103DC300E875F012A4C8ABF075F000A42BFB75F0F6
:103DD30012E9A42BF974B728F582740A39F583E044
:103DE300A2E05058EE6028ECF87900E875F012A4D0
:103DF300C8ABF075F000A42BFB75F012E9A42BF906
:103E030074B728F582740A39F583E04AF08029EA09
:103E1300F4FDECF87900E875F012A4C8ABF075F086
:103E230000A42BFB75F012E9A42BF974B728F582D3
:103E3300740A39F583E05DF0790180060C023DB622
:103E430079007F01021A5374F7121981E9FE7C0984
:103E5300ECC394015003023EE0ECF87900E875F0FE
:103E630012A4C8ABF075F000A42BFB75F012E9A403
:103E73002BF974A528F582740A39F583E0A2E05082
:103E830058EE6028ECF87900E875F012A4C8ABF09E
:103E930075F000A42BFB75F012E9A42BF974A52887
:103EA300F582740A39F583E04AF08029EAF4FDECDF
:103EB300F87900E875F012A4C8ABF075F000A42BF4
:103EC300FB75F012E9A42BF974A528F582740A395D
:103ED300F583E05DF0790180061C023E5379007F93
:103EE30001021A53C082C0838A828B83A3A3A3A334
:103EF300A3C3E094D0A3E0940740138A828B83A3E7
:103F0300A3A3A3A3C3E09440A3E0940840047900CF
:103F130080518A828B83A3A3A3E0600D8A828B8363
:103F2300A3A3A3E0C394204004790080368A828B44
:103F330083A3A3A3A3E0600E8A828B83A3A3A3A37B
:103F4300E0C3940D4004790080198A828B83A3A374
:103F5300A3E024FFF08A828B83A3A3A3A3E024FF1F
:103F6300F07901D083D08202013574E8121981748B
:103F7300FC12192A7402121975EAF0A3EBF0E9C0D6
:103F8300E07401121975D0E0F0EC8518828519836D
:103F9300F07F007402121975E0FAA3E0FB12077BAD
:103FA300E9700579000240EB7402121975E0FAA377
:103FB300E0FB12058F8A108B118C128D138510086C
:103FC30085110985120A85130B7E00EEC3940940FF
:103FD300030240E9EEF87900E875F012A4C8AAF0EC
:103FE30075F000A42AFA75F012E9A42AF974BB2823
:103FF300FA740A39FB12058F8A148B158C168D17E8
:10400300EEF87900E875F012A4C8AAF075F000A4E0
:104013002AFA75F012E9A42AF974C228F582740AFF
:1040230039F583E0F510A3E0F511E5113395E0F5DB
:1040330012F5137814791012177385140C85150D66
:1040430085160E85170F780C790812160C5003028B
:1040530040E5EEF87900E875F012A4C8AAF075F00F
:1040630000A42AFA75F012E9A42AF974B728F58294
:10407300740A39F583E0A2E050010F740112197537
:10408300E06030851882851983E0FBEEF87900E85B
:1040930075F012A4C8AAF075F000A42AFA75F012FC
:1040A300E9A42AF974B728F582740A39F583E04B39
:1040B300F0802F851882851983E0F4FBEEF87900F0
:1040C300E875F012A4C8AAF075F000A42AFA75F0F6
:1040D30012E9A42AF974B728F582740A39F583E042
:1040E3005BF00E023FCEEFF974041219407F100209
:1040F3001A5374E812198174FC12192A74021219E2
:1041030075EAF0A3EBF0E9C0E07401121975D0E091
:10411300F0EC851882851983F07F007402121975FB
:10412300E0FAA3E0FB12077BE97005790002427312
:104133007402121975E0FAA3E0FB12058F8A108B43
:10414300118C128D1385100885110985120A8513A8
:104153000B7E00EEC394094003024271EEF879002E
:10416300E875F012A4C8AAF075F000A42AFA75F055
:1041730012E9A42AF974BB28FA740A39FB12058FD1
:104183008A148B158C168D17EEF87900E875F012EA
:10419300A4C8AAF075F000A42AFA75F012E9A42ABB
:1041A300F974C228F582740A39F583E0F510A3E0A7
:1041B300F511E5113395E0F512F513781479101222
:1041C300177385140C85150D85160E85170F780842
:1041D300790C12160C500302426DEEF87900E87563
:1041E300F012A4C8AAF075F000A42AFA75F012E937
:1041F300A42AF974B728F582740A39F583E0A2E09A
:1042030050010F7401121975E06030851882851909
:1042130083E0FBEEF87900E875F012A4C8AAF07504
:10422300F000A42AFA75F012E9A42AF974B728F564
:1042330082740A39F583E04BF0802F851882851943
:1042430083E0F4FBEEF87900E875F012A4C8AAF055
:1042530075F000A42AFA75F012E9A42AF974B728B4
:10426300F582740A39F583E05BF00E024156EFF9EB
:1042730074041219407F10021A5374E812198174DE
:10428300F712192A7403121975EAF0A3EBF07401FB
:10429300121975ECF0A3EDF0E9851882851983F006
:1042A3007F007403121975E0FAA3E0FB12077BE9A0
:1042B300700579000244327401121975E0FAA3E023
:1042C300FB12077BE970057900024432740312196B
:1042D30075E0FAA3E0FB12058F8A108B118C128D07
:1042E3001385100885110985120A85130B740112B1
:1042F3001975E0FAA3E0FB12058F74051219751204
:1043030018247E00EEC394094003024430EEF8798A
:1043130000E875F012A4C8AAF075F000A42AFA7593
:10432300F012E9A42AF974BB28FA740A39FB1205BE
:104333008F8A148B158C168D17EEF87900E875F0BB
:1043430012A4C8AAF075F000A42AFA75F012E9A421
:104353002AF974C228F582740A39F583E0F510A3AB
:10436300E0F511E5113395E0F512F51378147910A2
:1043730012177385140C85150D85160E85170F7886
:1043830008790C12160C500302442C74051219758B
:10439300780C12161C500302442CEEF87900E875D1
:1043A300F012A4C8AAF075F000A42AFA75F012E975
:1043B300A42AF974B728F582740A39F583E0A2E0D8
:1043C30050010F851882851983E0602F742112191B
:1043D30075E0FBEEF87900E875F012A4C8AAF07551
:1043E300F000A42AFA75F012E9A42AF974B728F5A3
:1043F30082740A39F583E04BF0802E74211219750B
:10440300E0F4FBEEF87900E875F012A4C8AAF075A1
:10441300F000A42AFA75F012E9A42AF974B728F572
:1044230082740A39F583E05BF00E024307EFF974F7
:10443300091219407F10021A5374F612198189095F
:10444300ECF879007F00EFC3940940030245158A15
:10445300828B83C082C083EFFC7D00EC75F012A4D5
:10446300CCAEF075F000A42EFE75F012EDA42EFD77
:1044730074B92CF582740A3DF583E0FCA3E0FDD00A
:1044830083D082C3E09CA3E09D5003024511EFFC5F
:104493007D00EC75F012A4CCAEF075F000A42EFEF6
:1044A30075F012EDA42EFD74B72CF582740A3DF558
:1044B30083E0A2E0500109E5096028EFFC7D00ECF0
:1044C30075F012A4CCAEF075F000A42EFE75F012B8
:1044D300EDA42EFD74B72CF582740A3DF583E048F4
:1044E300F0802BE8F4F508EFFC7D00EC75F012A4E6
:1044F300CCAEF075F000A42EFE75F012EDA42EFDE7
:1045030074B72CF582740A3DF583E05508F00F0269
:1045130044497F02021A5374F61219818909ECF88F
:1045230079007F00EFC3940940030245F3EFFC7D5C
:1045330000EC75F012A4CCAEF075F000A42EFE755D
:10454300F012EDA42EFD74B92CF582740A3DF583A7
:10455300C082C0838A828B83E0FCA3E0FDD083D03A
:1045630082C3E09CA3E09D50030245EFEFFC7D0076
:10457300EC75F012A4CCAEF075F000A42EFE75F02D
:1045830012EDA42EFD74B72CF582740A3DF583E079
:10459300A2E0500109E5096028EFFC7D00EC75F00D
:1045A30012A4CCAEF075F000A42EFE75F012EDA4AB
:1045B3002EFD74B72CF582740A3DF583E048F08034
:1045C3002BE8F4F508EFFC7D00EC75F012A4CCAEFB
:1045D300F075F000A42EFE75F012EDA42EFD74B755
:1045E3002CF582740A3DF583E05508F00F02452748
:1045F3007F02021A5374F41219818908740C121978
:1046030075E0F50979007800E8C39409400302478F
:104613002CE8FE7F00EE75F012A4CE85F00A75F04B
:1046230000A4250AF50A75F012EFA4250AFF74B950
:104633002EF582740A3FF583C082C0838A828B83FE
:10464300E0FEA3E0FFD083D082C3E09EA3E09F50AF
:10465300030247288C828D83C082C083E8FE7F00DB
:10466300EE75F012A4CE85F00A75F000A4250AF5C4
:104673000A75F012EFA4250AFF74B92EF582740AA5
:104683003FF583E0FEA3E0FFD083D082C3E09EA387
:10469300E09F5003024728E8FE7F00EE75F012A466
:1046A300CE85F00A75F000A4250AF50A75F012EF1D
:1046B300A4250AFF74B72EF582740A3FF583E0A29E
:1046C300E0500109E508602DE8FE7F00EE75F01269
:1046D300A4CE85F00A75F000A4250AF50A75F01238
:1046E300EFA4250AFF74B72EF582740A3FF583E021
:1046F3004509F08030E509F4F50BE8FE7F00EE751F
:10470300F012A4CE85F00A75F000A4250AF50A7507
:10471300F012EFA4250AFF74B72EF582740A3FF551
:1047230083E0550BF00802460B7F04021A5374EF23
:10473300121981890D8A098C0A8D0B8B0874111249
:104743001975E0F50EA3E0F50F7413121975E0FE69
:104753007414121975E0F50C7F00E50D601B1460ED
:10476300221470030247EC147003024810146037DC
:1047730014601C146025024834AA0C7904120757EC
:1047830002483BEEFAA908120769E9FF02483BEE2B
:10479300FAA90812076FE9FF02483BEEFAA90812CB
:1047A3000775E9FF02483B74016509701EEEF510B9
:1047B3007810121B98A908AC0EAD0FAA0AAB0B1206
:1047C300079F7401121940E9FF806DEEF510781010
:1047D300121B98A908AC0EAD0FAA0AAB0B12078DDA
:1047E3007401121940E9FF804F74016509700FEEDF
:1047F300FCA908AA0AAB0B120793E9FF803AEEFC67
:10480300A908AA0AAB0B120781E9FF802B74016583
:1048130009700FEEFCA908AA0AAB0B120799E9FF6E
:104823008016EEFCA908AA0AAB0B120787E9FF80E2
:1048330007AA0C7903120757EFF97F09021A53C02D
:1048430082C08379007C00ECC39409502CECFA7B82
:1048530000EA75F012A4CAA8F075F000A428F87550
:10486300F012EBA428FB74B72AF582740A3BF58394
:10487300E0A2E05001090C80CED083D08202013542
:10488300C082C083E9FCECC39409400479098035F4
:10489300ECFAEAC39409502BEAF87900E875F012B0
:1048A300A4C8ABF075F000A42BFB75F012E9A42BA0
:1048B300F974B728F582740A39F583E06403600359
:1048C3000A80CFEAF9D083D08202013574F212193B
:1048D3008189088A098B0AECFEEDFF740E121975A3
:1048E300E0F50CA3E0F50DE5081460121460641400
:1048F30070030249961470030249B80249F17A021F
:104903007900120769E9E508F50B780B121B987516
:104913000B02780B121B98780C121B947B01EEFC94
:10492300EFFDAA0AA9091207A57404121940E9C3E5
:10493300940140159003A47401F079001207B1E9C2
:104943009003A5F012074B8007AA087906120757B0
:104953000249F1E508F50B780B121B98750B0178EA
:104963000B121B98780C121B947B00EEFCEFFDAA34
:104973000AA9091207A57404121940E9C394014056
:1049830009AA0879011207578064AA087906120751
:1049930057805B9003A47400F09003A27400F07A34
:1049A300027B00900352E0F91205EFE9AA087901AE
:1049B30012075780397A027900120769E9E508F589
:1049C3000B780B121B98750B02780B121B98780C43
:1049D300121B947B01EEFCEFFDAA0AA9091207A59D
:1049E3007404121940890BAA0B7B0012075D7F0622
:1049F300021A5374F01219818A0A8B0B8909ECFE8F
:104A0300EDFF750800850A0C850B0D780C121BD879
:104A130000040D314C344A554A744A954AB64AD774
:104A23004A0A4B2B4B424B704B9B4BBC4BDC4B060C
:104A33004C7401650970158E828F83E0C394035013
:104A43000B8E828F83E0900A8AF080037508180228
:104A53004C5A7402650970138E828F83E0F8A3E0C9
:104A6300F9900A8BE8F0A3E9F08003750818024C6B
:104A73005A7401650970158E828F83E0C3940250C6
:104A83000B8E828F83E09002A7F0800375081802D3
:104A93004C5A7401650970158E828F83E0C39405A7
:104AA300500B8E828F83E09002A8F0800375081864
:104AB300024C5A7401650970158E828F83E0C3948A
:104AC30002500B8E828F83E09002A9F08003750859
:104AD30018024C5A741065097027750C10750D0077
:104AE300780C121B94EEFCEFFD7AAA7B021204FFF2
:104AF30074021219408A0C8B0D850C82850D8380FC
:104B030003750818024C5A7401650970158E828F5B
:104B130083E0C39402500B8E828F83E09002BAF03D
:104B23008003750818024C5A74016509700B8E8254
:104B33008F83E0900A8EF08003750818024C5A7434
:104B43000465097022908F58780C1217FA8E828FA1
:104B530083780C12161C500F8E828F8312181890B4
:104B630002BC1218248003750818024C5AE5097018
:104B730021120C1FE970131206C1E9F50C795012CA
:104B83000925E9F50D1206AF800B90034F7401F070
:104B93008003750818024C5A7401650970158E82DA
:104BA3008F83E0C39402500B8E828F83E09002BB0D
:104BB300F08003750818024C5A7401650970158E4C
:104BC300828F83E0C3940A500B8E828F83E0900A16
:104BD3008DF08003750818807E74016509701F8E3F
:104BE300828F83E0C3940740158E828F83E0C39442
:104BF30011500B8E828F83E0900A8FF080597508D5
:104C030018805474016509702090034EE0F50C8EF2
:104C1300828F83E090034EF0E50C703B90034EE0EF
:104C2300640170331206AF802E7508188029C3E51E
:104C33000A9426E50B9400501B7402650970158EC7
:104C4300828F83E0FCA3E0FDAA0AAB0B120ABDE945
:104C5300F5088003750802A9087F08021A5374EC4B
:104C630012198174DA12192A890D8A128B138C0A8C
:104C73008D0B743A121975E0F50C908F34C082C015
:104C830083851882851983AC82AD83D083D08274E7
:104C93000612183D851882851983AC82AD83AA124A
:104CA300AB13A90D12064FE9FEEEC3940A400302AB
:104CB3004E00EEF9120691E9FF900A8AE064027051
:104CC30004740180027400F5087808121B98AD0C77
:104CD300EFFCEEF9AA0AAB0B120703740112194099
:104CE3007C147D0079007412121975AA82AB8312A9
:104CF30005178A0E8B0F850E08850F09741212197A
:104D030075AC82AD837A1075F006EEA42424F912F3
:104D1300091FE970437C1079FF7412121975AA8276
:104D2300AB83120577E970307422121975AC82AD2A
:104D3300837A0475F006EEA42425F912091FE9F518
:104D4300087412121975AC82AD83EFA2E0E433F953
:104D5300AA0AAB0B120B47E97406121975AC82ADA4
:104D6300837A0C74702EF912091FE9707E7406128F
:104D73001975AA82AB83120685750E00E50EC394DE
:104D8300045068E50EA80E7900E875F003A4C8AADC
:104D9300F075F000A42AFA75F003E9A42AF9740661
:104DA300121975E58228F508E58339F50985088226
:104DB300850983E0F8A3E0F9E849602B850882853B
:104DC3000983A3A3E0F5107511007810121B9485D5
:104DD3000882850983E0FCA3E0FDAA0AAB0B120D50
:104DE300F37402121940E9050E8091EFA2E1500D10
:104DF3009002A6E0F9AA0AAB0B120DF9E974046557
:104E03000C700F900A8AE064027007AA0AAB0B12B7
:104E130006FD790074261219407F0C021A5374F2AE
:104E2300121981890BEAFEEBFF8C088D09750A0ABA
:104E3300E50B600C146009146044146064024EC5F1
:104E4300EEFAEFFB1206A3E9F50AE50AC3940A504A
:104E530071E5084509606B750C06750D00780C1239
:104E63001B94EEFCEFFDAA08AB091204FF740212B7
:104E730019408A0C8B0D850C82850D838044EEFAD4
:104E8300EFFB12069DE9F50AE50AC3940A5033E5E0
:104E9300084509602DAA08AB09A90A120697E980FB
:104EA30021EEFAEFFB1206A9E9F50AE50AC3940A13
:104EB3005010E5084509600AAA08AB09A90A1206B9
:104EC30097E9A90A7F06021A5374F21219818A0C10
:104ED3008B0DE9FE7F1574FF650C700474FF650D7F
:104EE300702A750800E508C3940A5014EEFC7A0290
:104EF3007B00A908120673E960027F00050880E5BC
:104F0300EE60637AEB7B06121003805AAA0CAB0D9A
:104F1300120FE58A0A8B0B850A08850B09E50845FC
:104F23000960417C007D00E5082405FAE5093400A9
:104F3300FB850882850983A3A3A3A3E0F912064F87
:104F4300E9F50AE50AC3940A500EEEFC7A027B00E7
:104F5300A90A120673E97F00EE600BAA08AB0912D7
:104F630006EB80027F14EFF97F06021A5374EE12E8
:104F730019818A0E8B0F8C0A8D0B7412121975E02E
:104F8300F50CA3E0F50D75081574FF650E70047438
:104F9300FF650F701E7E00EEC3940A5062AC0CAD29
:104FA3000DAA0AAB0BEEF9120679E9600375080046
:104FB3000E80E4AA0EAB0F120FE58A108B11AE1010
:104FC300AF11EE4F60367C007D00EE2405FAEF341E
:104FD30000FB8E828F83A3A3A3A3E0F912064FE9FC
:104FE300F509E509C3940A5016AC0CAD0DAA0AAB3A
:104FF3000BA909120679E97508008003750814A93D
:10500300087F0A021A5374F7121981EAFEEBFF9024
:1050130002C0EEF0A3EFF09002A6E0FC7D007A253B
:105023007B00120ABDE9F5089002A6E0F9120D759E
:105033007F01021A5374EE1219818A108B11E9FE53
:105043007412121975780C1217FA7F00EE704185ED
:105053000C08850D09850E0A850F0B908F58780C67
:105063001217FA7808790C1216CB7810121B94AA2F
:105073000CAB0DAC0EAD0F120B597402121940E9B3
:10508300FFEF60167901AA10AB11120B53E9800AE6
:10509300EEF9AA10AB11120B53E9EFF97F0A021ACA
:1050A3005374EE12198174EC12192A8A0A8B0B8538
:1050B3000A82850B83A3A3E024FA70030255DD243F
:1050C300FD700302545314700302519714601024AB
:1050D300FD70030253FB147003025493025600AE97
:1050E3000AAF0B9002C0E0F8A3E0F9E849606990C9
:1050F30002C0E0F8A3E0F5838882E0F8A3E0F9E8D2
:10510300496055EE240CF582EF3400F583E0F50891
:105113007808121B98EE240BF582EF3400F583E038
:10512300F98E828F83A3A3A3A3A3A3A3A3A3E0FCCA
:10513300A3E0FDEE2403FAEF3400FB9002C0E0F895
:10514300A3E0F5838882E0F8A3E0F583888212194F
:105153007F740112194080398E828F83A3A3A3A386
:10516300A3A3A3A3A3121BAB9002BC121818120B88
:10517300597402121940E9601879018E828F83A352
:10518300A3A3A3A3A3A3A3A3E0FAA3E0FB120B533C
:10519300E9025600AE0AAF0B8E828F83A3E0600351
:1051A3000253A98E828F83A3A3A3A3A3E0A2E0400B
:1051B300030253A97C0E7D0079008518828519832B
:1051C300AA82AB831205178A088B09AA08AB098E3A
:1051D300828F83A3A3A3A3A3A3A3A3E0F8A3E0F9CC
:1051E300E849603D7508067509007808121B948E1E
:1051F300828F83A3A3A3A3A3A3A3A3E02410FCA34D
:10520300E03400FD7402121975AA82AB831204FF05
:1052130074021219408A088B0985088285098380E4
:10522300548E828F83A3A3A3E0FAA3E0FB120FE5BE
:105233008A0C8B0D850C08850D09E508450960323C
:10524300750C06750D00780C121B94E5082405FCFB
:10525300E5093400FD7402121975AA82AB831204A6
:10526300FF74021219408A0C8B0D850C82850D8305
:1052730080030256008E828F83A3A3A3A3A3E0A27D
:10528300E25004D2F08002C2F0A2F0E433F87900D5
:10529300740C121975E048F0A3E049F08E828F83F5
:1052A300A3A3A3A3A3A3A3A3A3A3E0F8A3E0F9E861
:1052B3004960238E828F83A3A3A3A3A3A3A3A3A342
:1052C300A3E0F8A3E0C82410F582E83400F583785E
:1052D3000C1217FA800C750CFF750DFF750EFF7518
:1052E3000FFF8E828F83A3A3A3A3A3A3A3A3A3A32D
:1052F300E0F8A3E0F9E84960178E828F83A3A3A3A4
:10530300A3A3A3A3A3A3A3E0F508A3E0F509800641
:105313007508007509008E828F83A3A3A3A3A3A39B
:10532300A3A3E0F8A3E0F9E84960158E828F83A375
:10533300A3A3A3A3A3A3A3E0F510A3E0F511800601
:10534300751000751100780C121B907808121B94CD
:105353007810121B94EE240CF582EF3400F58312BF
:105363001BAB8E828F83A3A3A3A3A3A3E0FCA3E021
:10537300FD740A121975AA82AB8312068B740A1282
:105383001940E9F5088E828F83A3A3A3E0F8A3E075
:10539300F9900350E8F0A3E9F07A017B009002A6AC
:1053A300E0F9120553E99002C0E0F8A3E0F9E849F7
:1053B30060439002C0E0F8A3E0F5838882A3A3E0F2
:1053C300F8A3E0F9E849602D8E828F83A3E0FC798E
:1053D300018E828F83A3A3A3E0FAA3E0FB9002C014
:1053E300E0F8A3E0F5838882A3A3E0F8A3E0F583C4
:1053F300888212197F025600AE0AAF0B9002C0E0FA
:10540300F8A3E0F9E84960459002C0E0F8A3E0F5AD
:10541300838882A3A3E0F8A3E0F9E849602F850A13
:1054230082850B83A3E0FC79028E828F83A3A3A3DF
:10543300E0FAA3E0FB9002C0E0F8A3E0F5838882E2
:10544300A3A3E0F8A3E0F583888212197F02560034
:10545300AE0AAF0B7C007D00EE2404FAEF3400FBB0
:105463008E828F83A3A3A3E0F912064FE9F508E523
:1054730008C3940A5017EE240AFCEF3400FD7A04A3
:1054830075F006E508A42425F9120919E902560066
:10549300AE0AAF0B9002BBE06018900A8DE0F98E64
:1054A300828F83A3A3A3E0FAA3E0FB120B53E902C9
:1054B3005600900A8AE0701579058E828F83A3A324
:1054C300A3E0FAA3E0FB120B53E90256008E828F8E
:1054D30083A3A3A3E0FAA3E0FB120FE58A0C8B0DD1
:1054E300850C08850D098E828F83A3A3A3A3A3A391
:1054F300A3E0A2E05075E5084509606C8508828544
:105503000983A3A3A3A3E060628E828F83A3A3A3D3
:10551300A3A3A3A3A3A3E0F8A3E0F9E8C4540FF85B
:1055230079005401F8E95400F9E8A2E0403D740E13
:10553300121975AC82AD83E5082405FAE509340038
:10554300FB850882850983A3A3A3A3E0F912064F71
:10555300E9701879038E828F83A3A3A3E0FAA3E0F3
:10556300FB120B53E9025600025600EE2405FCEF32
:105573003400FD850882850983A3A3A3A3E0F98EE4
:10558300828F83A3A3A3E0FAA3E0FB1206F79002A2
:10559300C0E0F8A3E0F9E84960639002C0E0F8A333
:1055A300E0F5838882A3A3E0F8A3E0F9E849604D1E
:1055B3007C0079008E828F83A3A3A3E0FAA3E0FB90
:1055C3009002C0E0F8A3E0F5838882A3A3E0F8A3E8
:1055D300E0F583888212197F8023120C1FE9701D66
:1055E30090034FE06401700B1206C1E9F890034F7A
:1055F3007400F07950120925E9FE1206AF741412F3
:1056030019407F0A021A5374F312198174F21219A2
:105613002A8909EAFEEBFF8C0C851882851983AC75
:1056230082AD837A0E75F006E509A42420F91209E8
:105633001FE970727C0679FF851882851983AA8217
:10564300AB83120577E9705E740C121975E0F8A349
:10565300E0F9E8F508E50C6005EE42088004EEF495
:10566300520885080A750B00740C121975E0650A57
:105673007004A3E0650B602AE508A8087900740CA0
:10568300121975E508F0A3E9F0851882851983AC32
:1056930082AD837A0E75F006E509A42420F9120978
:1056A30019E9790180027900740E1219407F05020D
:1056B3001A5374F012198174E612192A890B8A0C91
:1056C3008B0DECFEEDFF740C121975AC82AD837A71
:1056D3000E75F006E50BA42420F912091FE96003F7
:1056E3000258197C0679FF740C121975AA82AB83D0
:1056F300120577E96003025819851882851983AC6E
:1057030082AD837A0C7470250BF912091FE96003CB
:10571300025815750A00851882851983AA82AB83FE
:10572300120685E50C450D703A7C0C7900851882CC
:10573300851983AA82AB83120577E960030257EFC9
:105743007C0C7D007900851882851983AA82AB833E
:105753001205178A088B09850882850983750A0152
:105763000257EF851882851983AC82AD83AA0CABEF
:105773000D12067F8A0E8B0F850E08850F09E5082B
:1057830045097036EE4F6021851882851983AC82F6
:10579300AD837A007B0012067F8A0E8B0FA80EA9B9
:1057A3000F88088909E84970047900806B850882AD
:1057B300850983E50CF0A3E50DF08508828509834F
:1057C300A3A3E0F87900EE687002EF69601EEE852E
:1057D3000882850983A3A3F0EE4F700D85088285A7
:1057E30009837400F0A37400F0750A01E50A6022CE
:1057F300851882851983AA82AB8312068585188250
:10580300851983AC82AD837A0C7470250BF9120968
:1058130019E9790180027900741A1219407F08028C
:105823001A5374F7121981EAFEEBFF7B00EBC39462
:1058330004504EEBF87900E875F003A4C8AAF0759C
:10584300F000A42AFA75F003E9A42AF9EC28F582FA
:10585300ED39F583E06E7003A3E06F7021EBF87907
:1058630000E875F003A4C8AAF075F000A42AFA753D
:10587300F003E9A42AF9EC28FAED39FB80070B8041
:10588300AC7A007B007F01021A5374F71219817FEF
:1058930000EFC39404400302593CEFF87900E87524
:1058A300F003A4C8ACF075F000A42CFC75F003E978
:1058B300A42CF9EA28F582EB39F583E0F4FCA3E0A4
:1058C300F4FDEFF87900E875F003A4C8AEF075F0C5
:1058D30000A42EFE75F003E9A42EF9EA28F582EB65
:1058E30039F583ECF0A3EDF0EFF87900E875F003F8
:1058F300A4C8ACF075F000A42CFC75F003E9A42C4B
:10590300F9EA28F582EB39F583A3A3E0F4C0E0EFCD
:10591300F87900E875F003A4C8ACF075F000A42C86
:10592300FC75F003E9A42CF9EA28F582EB39F58339
:10593300A3A3D0E0F00F0258947F01021A5374EA34
:1059430012198174F412192AEAFEEBFF8C108D11DF
:105953007422121975E0F50EA3E0F50F74241219E1
:1059630075E0F50CA3E0F50D7426121975E0F50A40
:10597300A3E0F50BEE4F7005790A025AB7EEFAEF82
:10598300FB1206A3E9F508E508C3940A40061206CC
:10599300B5E9F508E508C3940A4003025AB5EEFCDD
:1059A300EFFD7A0E75F006E508A42420F912091913
:1059B300E9F8E51045116013AC10AD117A1B75F0D1
:1059C30006E508A42421F9120919E9E50E450F603B
:1059D30013AC0EAD0F7A1B75F006E508A42422F96B
:1059E300120919E9E50C450D6013AC0CAD0D7A10E5
:1059F30075F006E508A42423F9120919E9E50A4517
:105A03000B602DAC0AAD0B7A1075F006E508A424E3
:105A130024F9120919E9F5097428121975AC82AD34
:105A2300837A0475F006E508A42425F9120919E917
:105A33007C0C7D0079FF851882851983AA82AB834C
:105A43001205178A128B1385121485131585188274
:105A5300851983AC82AD837A0C74702508F9120919
:105A630019E9F50975120E7513007812121B94EEDD
:105A7300FCEFFDE508A8087900E875F00EA4C8AAB4
:105A8300F075F000A42AFA75F00EE9A42AF974C29D
:105A930028FA740239FB1204FF74021219408A12A5
:105AA3008B13A812A91390034EE060031207091287
:105AB30006F1A908740C1219407F0E021A5374F7E9
:105AC30012198174F212192AE9FE85188285198345
:105AD300AC82AD837A0E75F006A42420F912091F57
:105AE300E9700E740C121975E0F8A3E0F9E8F98077
:105AF300027900740E1219407F01021A5374F412D2
:105B0300198174F212192A8909EAFEEBFFE509C328
:105B1300940A5004EE4F70047902804B85188285F5
:105B23001983AC82AD837A0E75F006E509A42420AF
:105B3300F912091FE9F508E508702A750A06750BBD
