:020000040000FA
:0600000002010A0220B219
:03002B00021D13A0
:03003300021D3477
:030053000221285F
:03007B00021CD094
:10008300021FA3E5C754F84401F5C7790122000014
:100093000080FB120086B900030200F4E4792178A2
:1000A30008B800028004F709D8FCE479297802B87B
:1000B30000028004F709D8FCE49002817877790E76
:1000C3008002F0A3D8FCD9FA900FF7AA82AB8390F1
:1000D300013A781579028015E493A3AC82AD838A43
:1000E300828B83F0A3AA82AB838C828D83D8E9D9D8
:1000F300E77582267583D3740312011C758291758B
:100103008300740012011C75D00075813F7518813E
:10011300751902759F00020096C09FF59FE473D086
:100123009F22D083D082C09FE493C0E0740193C028
:10013300E0740293F59F22FFFF01E803053F1002DD
:100143000000FA0400001205FFFF01484944204162
:10015300647652656D6F7465FF00C4137814581587
:10016300881588150000000101FF00FF00BE07D0BD
:1001730007FA07C407FF0000B4000028002800287E
:100183003075A000A000A000A00000080008E00156
:10019300F0001000100010001000100010005000BC
:1001A3005000500010001000D007000000000000B5
:1001B3000F0001000500307507001000010081FFEA
:1001C3000000FF02020208025000A0000000E80342
:1001D300026E8F010000AD8E026A8F010000831052
:1001E30002668F010000F404026A8F01000084108C
:1001F30002648F0100000A05026A8F010000851066
:1002030002628F0100000C05026A8F010000861054
:1002130002608F0800000D05026A8F01000087103D
:10022300025E8F0100008810FFFFFF980F980F9860
:100233000F980F980F980F980F980F980F980F9883
:100243000F980F980FD811F611D2111201250080C3
:10025300031201250A800312012548800312012598
:10026300918003120125CB800312012525810312FE
:1002730001254681031201254F81031201259C812B
:1002830003120125C58103120125CF810312012524
:100293003B8203120125CD8203120125178303122A
:1002A30001254D8303120125D983031201251A84E5
:1002B30003120125518403120125638403120125CE
:1002C3008284031201258B840312012553850312B3
:1002D30001257DCB03120125CCD2031201250FC0CA
:1002E3000312012545C0031201257BC0031201251A
:1002F300C6C10312012502D20312012518D203122B
:10030300012522D203120125AB9D03120125C09DB5
:1003130003120125739E03120125B39E03120125C7
:10032300CC9E03120125079F03120125549F03123C
:100333000125869F03120125C89F03120125D3A11E
:100343000312012574CC031201259DCC0312012550
:10035300CCCC03120125E4CC0312012526CD0312D4
:100363000125A48F03120125E68F0312012568904E
:10037300031201257B9003120125CC900312012562
:100383001191031201252091031201257B91031280
:100393000125CA9103120125209203120125159309
:1003A300031201250C94031201254994031201251C
:1003B30093D103120125A35900120125935B001267
:1003C3000125735C001201250D5E00120125C35E39
:1003D300001201254D5F00120125D25F0012012595
:1003E300FB5F001201251964001201259F640012AE
:1003F3000125C6650012012500660012012541662C
:1004030000120125896700120125BD67001201252D
:100413001A6800120125636800120125CA680012D8
:1004230001254369001201257269001201258A69B9
:1004330000120125B66A00120125C66A00120125C1
:10044300796C00120125906C00120125C26C001218
:100453000125716E00120125FE6E00120125C5D320
:10046300031201257CD303120125BBD303120125FB
:10047300D6D303120125FBCE031201250BCF0312A2
:10048300012523CF031201258BCF0312012579CA3E
:1004930003120125FECA0312012564CB03120125B1
:1004A3005ACE031201255DCE0312012596CE031207
:1004B3000125E9CE031201259DA903120125B1A946
:1004C300031201252BAA031201250FAB03120125E9
:1004D300E6AC03120125228D02120125CB8E0212F6
:1004E3000125109002120125139002120125169086
:1004F30002120125579302120125B8930212012516
:100503006D9602120125A49602120125C7960212C6
:100513000125D99602120125249802120125A798D4
:1005230002120125E398021201258899021201257E
:1005330051C503120125A3C50312012516C60312D3
:1005430001257FC60312012513FD021201253DFD7E
:10055300021201250BFE02120125E6FE02120125FD
:100563006DFF021201254FCC0212012516CD021296
:1005730001254DCD0212012577CD02120125D7CDDC
:10058300021201252DCE0212012592CE021201255F
:100593002ACF0212012539D002120125D0D102122D
:1005A30001255DD202120125C4D202120125DBD23C
:1005B30002120125F5D30212012533D402120125BB
:1005C300267E00120125707E00120125807E001216
:1005D3000125D97E00120125407F001201257B7F72
:1005E3000012012553C803120125C0C803120125B7
:1005F300D1C8031201251AC90312012550C90312D8
:10060300012557B403120125ADB403120125CCB45F
:10061300031201251FB70312012557B70312012542
:100623007CB70312012595CF03120125AACF03122C
:10063300012524D1031201254FD10312012579D1BC
:10064300031201257BD1031201257DD1031201255C
:100653008ED10312012590D1031201256CD203120E
:100663000125DFFF0212012591D4021201256DD568
:10067300021201255CD6021201256DD60212012554
:100683007ED602120125C8D60212012551D80212C4
:100693000125B1D902120125E1D902120125AFDAF0
:1006A300021201250FDB02120125F0C603120125F8
:1006B30006C70312012533C70312012563C70312BB
:1006C300012584C703120125B5C70312012506C8F6
:1006D300031201251DC80312012534C80312012585
:1006E300ABD003120125C2D00312012512D103128C
:1006F3000125B49902120125B39A02120125DD9A4C
:1007030002120125279B021201255F9B021201257C
:10071300619B02120125829B02120125859C021214
:100723000125429D02120125179E02120125AE9E4C
:1007330002120125B19E02120125419F02120125D9
:10074300939F0212012529A002120125B2A00212D1
:100753000125FBA00212012508A1021201250BA10C
:100763000212012569A10212012503A20212012529
:1007730006A202120125CDA202120125E5A2021250
:10078300012515A30212012522A30212012525A387
:100793000212012591A3021201257FA40212012551
:1007A30035A502120125D7AF02120125B2B00212FC
:1007B3000125E0B00212012560B10212012580B1CA
:1007C30002120125BEB10212012511B20212012546
:1007D30079B2021201250AB302120125D5B302121E
:1007E3000125E4B60212012550B80212012573B89F
:1007F300021201254BAD03120125DCAE03120125C4
:100803002DAF031201258CAF031201259AAF0312FA
:100813000125C3AF03120125818503120125A98593
:1008230003120125D785031201250E860312012524
:10083300768603120125BF86031201250A87031258
:100843000125488703120125858703120125B387F4
:10085300031201255A880312012564880312012516
:10086300718803120125A4880312012566890312E6
:1008730001257289031201258A89031201259489AE
:1008830003120125128A031201256BCD03120125E0
:1008930079CD0312012591CD03120125A9CD0312B0
:1008A3000125C1CD031201257AD60112012518D7DE
:1008B3000112012590D701120125A5D801120125A6
:1008C300DFD80112012588D9011201255DDA011251
:1008D3000125C1DB0112012518DC011201259FDC72
:1008E3000112012586DD01120125D3DD0112012547
:1008F30061DE0112012585DE011201255AE0011294
:1009030001259BE001120125BDE00112012582E1D1
:100913000112012548E2011201257DE4011201259E
:10092300CCA503120125E2A50312012508A6031293
:10093300012530A7031201253AA70312012593A825
:100943000312012593A903120125B9C3031201253B
:10095300F5C403120125BCB5011201253AB60112F3
:1009630001254AB60112012525B70112012562B7F7
:1009730001120125BBB701120125C6B701120125DA
:10098300B0B8011201254CB90112012550BB011267
:10099300012507BD0112012583BD0112012560BE9A
:1009A300011201258EC1011201252CC2011201255C
:1009B30089C301120125FCC401120125A5C5011239
:1009C3000125EEC50112012525C601120125CAC65E
:1009D3000112012548C7011201258CE401120125EA
:1009E300E8E4011201250BE50112012556E5011288
:1009F3000125FBE501120125F1E601120125BBE703
:100A03000112012533E90112012575E901120125BE
:100A130013EA0112012539EA0112012527EC01121B
:100A230001252CEC011201250DEE0112012561EEC9
:100A330001120125C3EE01120125EBEE011201257E
:100A43008FEF0112012551F00112012582F00112ED
:100A5300012585F001120125CDF0011201250FF1C9
:100A63000112012576F101120125B0BD0312012502
:100A7300C3BD03120125CCBD03120125E5BD03123D
:100A8300012530BE031201250BBF031201259ABFB6
:100A930003120125E5BF0312012518F002120125F7
:100AA3002DF0021201258FF002120125C7F0021268
:100AB3000125E9F00212012580F50212012521F634
:100AC3000212012575F6021201259CF60212012578
:100AD300CDF602120125D7F60212012573F7021291
:100AE30001253AF80212012559F8021201257FF86F
:100AF30002120125BEF802120125F6F802120125A1
:100B030042F9021201257CF902120125A0F9021211
:100B1300012569FA021201257FFA0212012592FAD0
:100B230002120125A7FA0212012539FB021201253F
:100B330073FB02120125CBFB021201250FFC0212EB
:100B4300012553FC021201259CFC02120125C6FC5F
:100B530002120125EBFC02120125E0A1031201257B
:100B6300AAA2031201258DA30312012503A40312D4
:100B7300012545A40312012572A5031201253D6F2A
:100B830000120125666F001201257F6F00120125F7
:100B9300C47000120125A27100120125C171001257
:100BA30001254E7200120125917200120125C973AD
:100BB300001201253574001201252B760012012540
:100BC300B978001201254C7900120125207A001210
:100BD3000125C37A00120125AD7B00120125197D81
:100BE30000120125AF7D001201256CC903120125F6
:100BF300D5C90312012529CA0312012558CA0312B4
:100C03000125569903120125C399031201250E9A52
:100C130003120125039B03120125FF9B03120125E8
:100C2300E99C0312012550E90212012597E90212FA
:100C3300012570EA021201256BEB021201254AEC31
:100C430002120125B6EC02120125D2ED0212012592
:100C530039EE021201253CEE0212012567EE021263
:100C63000125D8EE021201257BEF0212012590EF38
:100C730002120125D8EF02120125F1EF021201251C
:100C8300F4EF02120125DBB00312012517B10312A1
:100C9300012555B1031201251FB20312012592B29A
:100CA30003120125CDB2031201250BB30312012553
:100CB3003BB30312012562B303120125CDB3031223
:100CC30001250FB403120125FF4000120125ED4257
:100CD300001201257945001201254B46001201251A
:100CE3008E4600120125D74600120125E94600125F
:100CF3000125294700120125584700120125A44761
:100D030000120125DC4700120125084800120125C5
:100D1300594800120125E54800120125DF4B001256
:100D23000125DC4C00120125AF4E00120125F64EC1
:100D330000120125D0530012012501540012012590
:100D43003F5400120125505600120125135800127A
:100D530001257259001201250ABB031201257CBB30
:100D630003120125D2BB0312012516BC0312012570
:100D730036BC0312012583BC03120125CBBC03122D
:100D830001251EBD031201256FBD031201254CC3AE
:100D93000212012569C30212012503C902120125AA
:100DA30005CA021201257FCB021201252DCC0212A6
:100DB3000125C0240012012509250012012536252D
:100DC300001201256925001201257925001201254C
:100DD3008525001201259625001201256B26001298
:100DE3000125C92600120125FE26001201259A2895
:100DF30000120125E72800120125362900120125DA
:100E0300A02900120125322A00120125D82A001236
:100E130001255D2B00120125DF2B00120125292C52
:100E230000120125592D00120125B42E00120125AF
:100E33008B2F00120125B02F00120125F52F001270
:100E4300012505300012012521300012012524302F
:100E530000120125DE3000120125A7310012012501
:100E6300373200120125D33200120125F832001265
:100E73000125573300120125E633001201253B34C7
:100E830000120125643400120125C4340012012527
:100E93005235001201251B3600120125B836001207
:100EA30001253F3700120125963700120125F73738
:100EB30000120125313800120125DA38001201250C
:100EC300CA3A001201251A3B001201256A3B00129F
:100ED3000125DF3B00120125693C00120125B43CCA
:100EE30000120125D93C001201252A3D00120125DB
:100EF300533D00120125983D00120125073E0012C3
:100F03000125493E00120125493F00120125E33F17
:100F130000120125B44000120125CD400012012525
:100F2300ABB902120125FEB9021201250ABA021257
:100F33000125DFBA0212012506BB0212012541BBBE
:100F430002120125ADBB02120125E1BB02120125EC
:100F53001ABC0212012532BC021201258BBC0212FB
:100F63000125A4BC02120125EDBC0212012500BD1E
:100F7300021201251ABD0212012530BD02120125FC
:100F83004CBE021201255DBF02120125AAC0021246
:100F930001258FC102120125FBFF01120125819456
:100FA30003120125F397031201250B99031201255F
:100FB300008002120125F38502120125F985021230
:100FC3000125798802120125A38A031201254E8B7C
:100FD30003120125FE8B03120125238C0312012525
:100FE3001A8E031201256D8F03120125758F0112CD
:100FF3000125A98F01120125AE9901120125FA9A43
:1010030001120125179C01120125A19D0112012541
:10101300839E01120125BD9E01120125E09E01124E
:101023000125229F011201256C9F01120125769F44
:101033000112012522A001120125F6A001120125AA
:101043004AA101120125ACA101120125FFA1011240
:1010530001252EA2011201256DA2011201256CA307
:1010630001120125C6AB01120125CCAB01120125EA
:1010730087B1011201256DB501120125BCB7031219
:10108300012532B80312012548B80312012585B89A
:1010930003120125BDB8031201253AB90312012534
:1010A30075B903120125F0B9031201252CBA0312F5
:1010B300012535BA0312012541BA031201255BBA92
:1010C3000312012580BA0312012596BA03120125E2
:1010D300DABA031201257AE2021201258DE2021225
:1010E3000125A7E202120125D0E20212012513E332
:1010F3000212012552E30212012590E30212012597
:10110300F5E3021201250AE40212012515E4021295
:10111300012522E40212012539E40212012547E4E4
:101123000212012556E4021201256BE40212012585
:1011330080E4021201258BE40212012597E40212D6
:101143000125A4E402120125B7E402120125C2E439
:1011530002120125E7E40212012590E5021201259E
:10116300A5E502120125BAE502120125D4E5021212
:101173000125EFE5021201250CE60212012517E60F
:1011830002120125D3E602120125BFE7021201254F
:10119300E4E702120125EEE70212012502E802123A
:1011A300012521E80212012582E80212012588E8BF
:1011B300021201258EE80212012594E8021201258C
:1011C300A0E802120125D3E802120125A0A502120C
:1011D3000125CCA502120125B0A6021201254AA9B8
:1011E3000212012560AA021201257DAB021201251C
:1011F30020AC02120125C6AC0212012545F20112F0
:101203000125C7F20112012570F301120125B8F47B
:1012130001120125C6F601120125ACF701120125C1
:10122300E1F70112012503F801120125ACF80112BF
:1012330001257CFA01120125A5FA011201251DFBE6
:10124300011201254FFB011201255CFB011201254F
:10125300A7FB01120125CBFB011201251CFE011284
:10126300012526FF0112012582FF01120125FCC77A
:10127300011201250DC901120125F1C90112012530
:10128300FBC9011201251DCA0112012529CA011238
:101293000125CDCB01120125FACB0112012510CD79
:1012A3000112012565CD01120125B4CE01120125DC
:1012B30089CF01120125E5CF0112012550D001127A
:1012C300012585D001120125C8D00112012592D331
:1012D30001120125AAD3011201253BD401120125D4
:1012E30049D40112012596D401120125A4D4011277
:1012F300012510D5011201258BD501120125E2D557
:101303000112012500C20312012525C20312012582
:101313009BC2031201258BDB0212012594DB02120F
:1013230001259DDB0212012575DC0212012526DE53
:101333000212012556DE0212012581DE0212012569
:10134300B1DE02120125DCDE0212012510DF0212DA
:1013530001253CDF021201257FDF02120125AADFEE
:1013630002120125F1DF0212012546E002120125D6
:1013730088E002120125E2E0021201250DE10212CA
:1013830001255CE1021201258CE102120125B7E17E
:1013930002120125DAE1021201252ED003120125E2
:1013A3005AD00312012587D00312012591D00312CD
:1013B3000125A1D003120125CFFF01120125E07FF2
:1013C3000012010002000000205104B416000101C4
:1013D30002030109025400030100A01909040000DB
:1013E3000103010100092111010001223F0007054A
:1013F300810308000A090401000103000000092118
:1014030011010001226D00070582030C000A090483
:10141300030001030102000921110100012234002C
:10142300070584030F000A04030904240354006519
:1014330000780061007300200049006E007300749F
:1014430000720075006D0065006E00740073001E6D
:10145300035500530042002000430043003200358F
:1014630000340030002000480049004400080330E5
:10147300003000310005010906A101950875010539
:101483000719E029E71500250181029501750881F7
:101493000195057501050819012905910295017545
:1014A300039101950675080507190029651500259F
:1014B300658100C0050C0901A1010902A10205090A
:1014C3001901290A1501250A750495018100C00532
:1014D3000C098615FF250175029501814609E90965
:1014E300EA150075019502810209E20930098309B1
:1014F3008109CD094009B209B309B409B509B6098F
:10150300B71501250C7504950181000980A1020519
:1015130009190129031501250375028100C08103FF
:10152300C005010902A1010901A100050919012949
:101533000315002501750195038102750595018148
:101543000105010930093109381581257F75089591
:10155300038106C0C02200000078143F002200006F
:1015630001B7146D0022000003241534002100008C
:1015730000E8130900210000010114090021000003
:10158300031A140900DF130000F8130000111400FC
:1015930000E066701008A3E066700A08A3E06670B6
:1015A3000408A3E06622C3E7960809E7960809E75B
:1015B300960809E79622C3E09608A3E09608A3E0FD
:1015C3009608A3E09622C008C3E096F50808A3E0B6
:1015D30096420808A3E096420808A3E096450870DF
:1015E30001D3D00822BB0102E722C082C0838982D3
:1015F3008A83BB0003E08002E493D083D08222BBC2
:10160300000EC082C0838A838982F0D083D0822275
:10161300BB0101F722080808EAC0E0EBC0E086F04E
:10162300E7A4FA180986F0E7A42AFA180986F0E76E
:10163300A42AFA180986F0E7A42AFA1986F0E7A47F
:10164300FBE5F02AFA190886F0E7A42BFBE5F03A4C
:10165300FA190886F0E7A42BFBE5F03AFA18180903
:1016630086F0E7A4C5F02BFBE43AFA1908E7C5F0C6
:10167300C6A426F6E5F03BFBE43AFA1886F0E7A4A5
:10168300F6E5F00826F6E43B08F6E43A08F6D0E07F
:10169300FBD0E0FA22E4CFC0E0E4CEC0E0E4CDC06A
:1016A300E0E4CCC0E075F020C3E633F608E633F699
:1016B30008E633F608E633F6181818EC33FCED3376
:1016C300FDEE33FEEF33FFC3EC9709ED9709EE9779
:1016D30009EF97191919400FFFEC97FC09ED97FDD6
:1016E30009EE97FE191906D5F0BEECF709EDF709D7
:1016F300EEF709EFF7191919D0E0FCD0E0FDD0E0BF
:10170300FED0E0FF226016080808C6C313C618C639
:1017130013C618C613C618C613C6D5E0EA22700945
:10172300080808226016181818C6C333C608C6333B
:10173300C608C633C608C633C6D5E0EA22E627F68E
:101743000809E637F60809E637F60809E637F62208
:10175300E026F608A3E036F608A3E036F608A3E091
:1017630036F622E026F008A3E036F008A3E036F0D0
:1017730008A3E036F022C3E697F60809E697F608D1
:1017830009E697F60809E697F622C3E096F008A360
:10179300E096F008A3E096F008A3E096F022E6575F
:1017A300F60809E657F60809E657F60809E657F674
:1017B30022E056F608A3E056F608A3E056F608A37F
:1017C300E056F622E056F008A3E056F008A3E056F0
:1017D300F008A3E056F022E066F608A3E066F608F8
:1017E300A3E066F608A3E066F622E0F608A3E0F6B7
:1017F30008A3E0F608A3E0F622E6F008A3E6F00863
:10180300A3E6F008A3E6F022E0FAA3E0FBA3E0FCE2
:10181300A3E0FD22EAF0A3EBF0A3ECF0A3EDF022AA
:10182300CAC0E0E6F0A308DAFAD0E0FA22CAC0E0C0
:10183300E0A3C582CCC582C583CDC583F0A3C58291
:10184300CCC582C583CDC583DAE6D0E0CA22C3E422
:1018530098F8E499F91218928026C3E49AFAE49B63
:10186300FBE920E7E9121892E498F8E499F922C316
:10187300E498F8E499F9121892E498F8E499F9C312
:10188300E49AFAE49BFB22EB20E7CFE920E7E0B9F7
:101893000010BB0008E88AF084F8AAF022E4FBC831
:1018A300FA22EB70227B10C833C8C933C9335007FF
:1018B300C39AC3DBF280069A50012ADBEAC833F4E9
:1018C300C8C933F4C9FA2275F008E4C833C8C93368
:1018D300C933C99AC99B5004C92AC93BD5F0ECFB4B
:1018E300C833F4C8E4C9FA22600D08C6A2E713C6D8
:1018F30018C613C6D5E0F322600C08C6C313C61876
:10190300C613C6D5E0F422700422600D18C6C33393
:10191300C608C633C6D5E0F41822251810AF08F55B
:1019230018400215198008F51840021519D2AF2284
:10193300C0D0251810AF08F518500205198008F516
:101943001850020519D2AFD0D0222518F58210AF56
:1019530008F518400215198008F51840021519D228
:10196300AF851983222518F582E43519F58322E41E
:10197300732518C582C0E0E51934FFC583C0E0E5CF
:1019830018C3958224F810AF0885831985821880BF
:1019930008858319858218D2AFCEF0A3E520F0A382
:1019A3007808E608F0A3DEFAEFF0A3E58124FAF85D
:1019B300E608F0A3E608F0A3E608F0A30808E608A3
:1019C300F0A3E608F0A315811581D0E0FED0E0F87E
:1019D300158115811581E8C0E0EEC0E0222518C508
:1019E30082C0E0E51934FFC583C0E0E518C39582E2
:1019F30024F910AF08858319858218800885831917
:101A0300858218D2AFCEF0A3E520F0A37808E608CC
:101A1300F0A3DEFAEFF0A3E58124FBF8E608F0A3D8
:101A2300E608F0A30808E608F0A3E608F0A315818A
:101A33001581D0E0FED0E0F815811581E8C0E0EE15
:101A4300C0E022851983851882E0A3FEE0A3F52078
:101A53007808E0A3F608DFFAE0A3FFE0A3C0E0E024
:101A6300A3C0E0E0A3C0E0E0A3C0E0E0A3C0E010B7
:101A7300AF088582188583198008858218858319A4
:101A8300D2AFD083D082020122851983851882E0E8
:101A9300A3FEE0A3F5207808E0A3F608DFFAE0A3AD
:101AA300FFE0A3C0E0E0A3C0E0E0A3C0E0E0A3C088
:101AB300E010AF0885821885831980088582188510
:101AC3008319D2AFD083D08222C0D02518C582C05B
:101AD300E0E51934FFC583C0E0E518C3958224F31C
:101AE30010AF08858319858218800885831985823C
:101AF30018D2AFC8F0A3E9F0A3EAF0A3EBF0A379FF
:101B030008E709F0A3D8FAECF0A3EDF0A3EEF0A3F5
:101B1300EFF0A3D0E0F0A3D0E0F0A3D0E0F0A3E592
:101B230020F0A3E5F0F0A322851983851882E0C095
:101B3300E0A3E0F9A3E0FAA3E0FBA37808E0F6084A
:101B4300A3DFFAE0FCA3E0FDA3E0FEA3E0FFA3E034
:101B5300C0E0A3E0C0E0A3E0F5D0A3E0F520A3E05C
:101B6300A3F5F010AF088583198582188008858353
:101B730019858218D2AFD082D083D0E0F8D0E0327A
:101B83007404800A74038006740280027401C0E046
:101B9300F40412194DD0E01218232274048008743F
:101BA30003800474028000CCC0E0EDC0E0E518C3FC
:101BB3009CCCAD1950011D10AF068C188D198006F1
:101BC3008C188D19D2AF121830D0E0FDD0E0FC2272
:101BD300D083D082E9C0E0E493A3C386F0C5F09537
:101BE300F0F908E493A386F0C5F095F0700BE49345
:101BF300A3C3994005E9048002A3E475F002A42578
:101C030082F582E5F03583F583D0E0F9E493A3C050
:101C1300E0E493C0E022D083D082ECC0E0EDC0E0EA
:101C2300E493A3FCE493A3FDED4C600D121C65EC5F
:101C330024FFFCED34FFFD80EFE493A3FCE493A3C6
:101C4300FDED4C600D121CA4EC24FFFCED34FFFDF4
:101C530080EFD0E0FDD0E0FCE493A3C0E0E493C0C8
:101C6300E022C0E0C3E49396087401939618400FF2
:101C7300E49366700808740193661870007019A3E2
:101C8300A3C3E49396087401939618A3A3400DD0BD
:101C9300E0D0E0D0E0021C55A3A3A3A3A3A3D0E00C
:101CA30022C0E0C0F088F0E49366700808740193E2
:101CB30066187000A8F0A3A3700BD0F0D0E0D0E0BA
:0C1CC300D0E0021C55A3A3D0F0D0E0221A
:101CD000C0E074F2121ACCA2AFE433FED2AFE58AB0
:101CE000A2E250079003B9E0D2E0F0E58AA2E35007
:101CF000079003B9E0D2E1F0758A00C2EB7A107B5D
:101D0000009003B5E0F91202A8EEA2E092AF7F01C5
:101D1000021B2BC0E0C0D0E8C0E0E9C0E0E5A8D2DB
:101D2000AFC2C7A2E7A2E792AFD0E0F9D0E0F8D007
:101D3000D0D0E032C0E074ED121ACCA2AFE433FC94
:101D4000D2AF7480659E70FA90620F7403F0E0A2C7
:101D5000E750FB906206E0F50A7406550A7006E546
:101D60008BA2E55045E50AA2E250339004BDE0F8AD
:101D7000A3E0E890620B121E07740478081218FBA7
:101D8000E508906207121E07740978081218FBE52F
:101D900008543E906209F0906201E0D2E0F0E50A5A
:101DA000D2E1F50A9004BFE48017E50AA2E05012E0
:101DB00090620FE0C2E1F0E0A2E740FB9004BF7444
:101DC00001F0906202E0F50C906204E0F508750DF8
:101DD000007404780C12190AE50A450CFA7509001A
:101DE0007409780812190AEAF8E50D4509F9900412
:101DF000BBE048F0A3E049F0758B00C2E8ECA2E03C
:101E000092AF7F06021B2BF09004BDE0F508A3E023
:101E1000F5092274F51219E0EAFEEBFFEE2434F81E
:101E2000EF3400F988088909EE2435121F4BF8EECB
:101E30002437121F4BF50AEC850AF0A4FCAAF085A2
:101E40000AF0EDA42AFDE82CF8E43DF97A257B00A0
:101E5000121892EA850882850983F05407F8740104
:101E6000B800028004C333D8FCC0E0E0131313545D
:101E70001FF8EE28F8EF3400F9E8245DF582E93424
:101E800000F583D0E0F8E058600885088285098372
:101E9000801DEE2436121F4BF5F0EA84A8F0EE28E0
:101EA000F8EF3400F9E82438F582E93400F583E0EE
:101EB000F97F04021A8C74F51219E0EAFEEBFFEECA
:101EC0002434121F4BC0E0EE2435F582EF3400F5C8
:101ED00083D0E0F08E828F83A3A3A3A3A3E0FAA311
:101EE000E0FB8E828F83A3A3A3A3A3A3A3E0FCA301
:101EF000E0FDECC39AF50AED9BF50BEE2480F508A6
:101F0000EF3400F509850882F583E06401702BEE5B
:101F10002481F582EF3400F583121BA6121F54743E
:101F200002121933E960137CEE7D09EEFAEFFB1221
:101F30000EB4850882850983E4F0AC0AAD0BEEFA95
:101F4000EFFB121E131224A8021EB1F582EF34001B
:101F5000F583E022C082C083851882851983E0F86A
:101F6000A3E0F9C3EA9CEB9D5012C3EC98ED9940B5
:101F700019C3EA98EB99501279018010C3EA98EBE3
:101F80009940F5C3EC98ED9950EE7900D083D0825A
:101F900022EAC39CFAEB9DFB220000008521878585
:101FA00022C622C0E074EF121ACC759B00906182A9
:101FB000E0A2E64003022064E591A2E6400302208D
:101FC000647591BF9006A5E0640570081210AC120C
:101FD00010B880031210B2752100121130E990067A
:101FE000A6F07900121112120DD67A017B0090062C
:101FF000A4E0F91202A8907803E064426003022092
:10200000AD900A7AE014F060030220ADC2AF122056
:102010001100782AD0E0F618D0E0F6E59F5407F9D1
:102020007005908F568003908F1278081217EDE993
:10203000C4C0E07829E65508F50808E65509F50911
:10204000740B78081218FBD0E02508F8906270E055
:10205000A2E740F8E8C333906272F0906270E0D279
:10206000E0F08049E0A2E55024E591A2E5501E751C
:1020700091DF9006A5E0640D70139006C7E004F0B0
:1020800064287002E4F07A00E0F91211C0906181D6
:10209000E0A2E35009E5E9A2E3500375E9F7A3E004
:1020A000A2E75009E591A2E7500375917F7F0402F2
:1020B0001B2BC0E0C0D0C082C083906183E0A2E04F
:1020C0005009E5BFA2E0500375BFFEE0A2E1500950
:1020D000E5BFA2E1500375BFFDE0A2E25009E5BFF4
:1020E000A2E2500375BFFBE0A2E35009E5BFA2E303
:1020F000500375BFF7E0A2E45009E5BFA2E4500326
:1021000075BFEFE0A2E55009E5BFA2E5500375BF3A
:10211000DFE0A2E65009E5BFA2E6500375BFBFD0DD
:1021200083D082D0D0D0E032C0E074F2121ACCE575
:10213000A7A2E4500FE5A1A2E4500953A7EF75A1AF
:10214000EF12217CE5A7A2E5500CE5A1A2E550061F
:1021500053A7DF75A1DFE5A7A2E15009E5A1A2E140
:10216000500375A1FDE5A7A2E2500CE5A1A2E25043
:102170000653A7FB75A1FB7F01021B2B74F81219F4
:10218000E07521019006A5E0640670077A007B00E7
:10219000121094A2AFE433FED2AF9006ABE064011C
:1021A00070187A207B009006A4E0F912032C7A20A4
:1021B0007B009006A4E0F91202AE906182E0D2E6C4
:1021C000F0900A79E0602185C62280169006AAE088
:1021D00064017008E5C654F84405F5C653BEFC1208
:1021E0001F9C7401652160E4EEA2E092AF7F0102C2
:1021F0001A8C00008E238F248582288583278518DA
:1022000082851983E0CEA3E0CF852882852783EBE2
:10221000C9EAC8EDCBECCA75F010C3E833C8E9339E
:10222000C9EA33CAEB33CBC3EA9EF526EB9FF5250B
:10223000B35004AB25AA26EC33CCED33CDD5F0DA80
:10224000AE23AF242274F11219E08A088B098C0A9C
:102250008D0B740F121968780C1217ED908F267879
:10226000081217B4908F26780C1217B47808790CDE
:102270001215A950157808790C121779908EFE78EE
:10228000081215C9401579018013780C79081217C6
:1022900079908EFE780C1215C940EB79007F080208
:1022A0001A8C74ED1219E08A088B098C0A8D0B7454
:1022B00013121968780C1217ED908F2678081217F0
:1022C000B4908F26780C1217B4780C79081215A9DF
:1022D00040117808790C121779AA08AB09AC0AAD3D
:1022E0000B802275100075110075120075130178AE
:1022F00010790C12177978107908121740AA10ABD0
:1023000011AC12AD137F0C021A8C908F2678081234
:1023100017ED8A828B8378081217C77F04021A8C04
:1023200074F51219E08C828D8378081217ED8A8279
:102330008B83780812178D122374C3E098F0A3E002
:1023400099122366401E908F4278081217ED8A82F8
:102350008B8378081217668E828F83E02420F0A387
:10236000E0344EF080A4F08E828F83C3E09420A3EB
:10237000E0944E22EA2404F8EB3400F9E8FEE9FF89
:102380008C828D83A3A3A3A3E0F8A3E0F98E828FB0
:10239000832274F51219E0E9FE900A05E0FAA3E041
:1023A000FBEEC333F8E433F9748D28F582748E396B
:1023B000F583E02AF508A3E03BF5097808121B8BAA
:1023C000908F1612180B1221F474021219338A0816
:1023D0008B098C0A8D0B74107808121708AA08ABA9
:1023E000097F04021A8C74F11219E08A0C8B0D8C8F
:1023F0000E8D0F740F121968E0FAA3E0FB7411122E
:102400001968E0F508A3E0F5097413121968E0FEF5
:10241000A3E0FF7808121B8BEA2401F508EB3400D7
:10242000F509E4F50AF50B780C7908121618908F67
:102430001A78081217ED780C7908121618AA0CAB46
:102440000DAC0EAD0F1221F474021219338B09EA90
:10245000450960047A0180027A00EC2AFCED340020
:10246000FDECF8EDF97A717B02121892880889095F
:10247000E4F50AF50B8E828F8378081217FCECF8CE
:10248000EDF97A717B021218928A088B097405782B
:102490000812190A8E828F83A3A3A3A3E508F0A3D1
:1024A000E509F07F08021A8CC082C083E9906000C1
:0624B000F0D083D082226F
:1024B800FFFFFFFFFFFFFFFFC082C08390619074A2
:1024C80004F0A37448F0A3E4F09061807440F090A5
:1024D80061BC7407F09061877469F09061B67416F6
:1024E800F07900120DDC7902120DE29024B8E49321
:1024F800F46006E493F9120DB879051211A20229C5
:102508002FC082C083E9540FF9906185E069601299
:10251800E5C654804449F5C6E59E547F644970F881
:10252800E9F053C680E59E547F70FA02292F74F7AC
:10253800121974E5A8FE53A87E120DC4C2BA539AA4
:10254800FEC289759B00C2C2120DCA75A91175B960
:1025580005120DD0D2BA439A0174805E42A80234A3
:1025680056C082C083906181E4F0A3F0A3F00229F1
:102578002F75E90075910075BF00020122C082C065
:1025880083906181E4F0A374C0F0A3E480DFC0828B
:10259800C08374F812191D9006A712334DE84970CC
:1025A8000302264D9006A7E0544060237908851859
:1025B80082851983AA82AB83120F2C85188285190C
:1025C80083AA82AB83120B429006A7E054BFF0E0C7
:1025D80054806010790C7A9B7B0A120F2C9006A706
:1025E800E0547FF0E0A2E05008790012265554FE2E
:1025F800F0E054026008790112265554FDF0E054C9
:10260800046008790012266054FBF0E05408600862
:10261800790112266054F7F0E0541060087902122C
:10262800266054EFF0E054206008790312266054C5
:10263800DFF0A3E05401600D120DEE120B5490066A
:10264800A8E054FEF0740812193302292F120DDC89
:10265800120B489006A7E022120DE2120B4E9006CC
:10266800A7E022C082C083E9600514602A804F90E9
:10267800619A7433F0A37455F09061A0743AF090A5
:102688000A77E064017009C2919006A97467802DE9
:102698009006A97461802690619A743FF0A3745AD9
:1026A800F09061A0747FF0900A77E064017009D21D
:1026B800919006A9747180059006A9746AF00229A0
:1026C8002FC082C083E9600B14600D14600F146082
:1026D8001180209024BC80159024BD80109024BEC9
:1026E800800B900A77E0640160F39024BFE4939034
:1026F8006186F002292F74EE12197474F412191DF0
:10270800851882851983AC82AD8375838F75823A6B
:1027180074041218309024BC93F46003022890903B
:102728007808E0C3940250030228707404121968F0
:10273800AC82AD8375838E7582B67408121830F931
:102748007AFF7BFF7FFF7E00898285821080187464
:10275800086E700302282574096E70030228257418
:102768000A6E7003022825E510C333FCE433FD74B8
:1027780004121968E5822CF582E5833DF583E0F5BE
:102788000EA3E0F50F8E0875090074027808121977
:102798000A74482508FC74783509FD8C828D837885
:1027A800081217ED7408780812170885080C8509AF
:1027B8000D8C828D8378081217ED7418780812171B
:1027C80008E50C4508F508E50DF509C3E50E95087B
:1027D800E50F95098C828D8378081217ED8C828D10
:1027E8008378081217ED741878084014121708E552
:1027F8000C4508FCAD0DE50EC39CFCE50F9D800F54
:10280800121708E50C4508C3950EFCE50D950FFD5C
:10281800C3EC9AED9B5006ECFAEDFBEEFF0EEEC30F
:102828009413500302275774FF6A700374FF6B6098
:102838002D8F087402780812190A7448123D4E74D4
:10284800783509F58378081217ED8518828519837C
:10285800E5822510F582E583123818E508F009E9C4
:10286800C3940450030227487508017509007808C5
:10287800121B8B7402121968AC82AD837A2F7B0904
:102888001204947402121933740C1219337F0A0259
:102898001A46C082C083906186E0F89024BFE49312
:1028A8006870099024BEE493906186F09061AE74DC
:1028B80068F0A3746AF090624574FBF0A304F053C7
:1028C800F4FD43FE02900A777401F09061A0E06481
:1028D8003A7004790080027901120DDC02292FC0B8
:1028E80082C083900A55E064017017900A5BE0F893
:1028F8007401686009E8700AA3E064017004790C47
:102908008020900A6CE064017008900A72E064010B
:1029180060EC9009FFE064017006900A04E070DE44
:1029280079008003122D21D083D082020122C08237
:10293800C08375E1F1900A02E0604A1460081460EF
:102948004E146046804E120E009009F8E0F97AF9AC
:102958007B091210F4908F3612180B122D1A1218C8
:102968000B121100900A03E0F912110C79011211EF
:10297800969009F6E02416122B387430F0A3740EE2
:10298800F0790080A2120E0680BF120E0C80BA12D7
:102998000E1280B5791280EB74F412197475D90D82
:1029A8009009E7E0A2E0E4331313F8122AA248449E
:1029B80001F5D97800122AAC40FB7800880874E841
:1029C800123D4E7409122AB640F275E1959009E756
:1029D800E0F97AE87B091210FA9010EB748EF0A3F4
:1029E800740D122ABC122D3074ACF0A3740D122D84
:1029F800439009F6122FA178081217ED908F4678A8
:102A080008121753908F2678081217B49009F6E029
:102A1800240E122B3878081217FC122B327413125A
:102A28002BDA7402F07F04021A4674F61219741233
:102A38002A98FA8AD97800122AAC40FB78008006D6
:102A4800122B27123168E8C39940F5122BC8122AB5
:102A5800AC40FB78008008123D4A740A123168E8DD
:102A6800C39940F375E1959010EB749AF0A3740D37
:102A7800122ABC122AC612180B9009F6E0240E126C
:102A88002B38121817122B327412122BDA0233DE7B
:102A9800900A08E0F9740729F5D99009F8E0C433D9
:102AA8003354C022880874F92508F5827409123352
:102AB800A4940622122E987494F0A3740D22122D59
:102AC80036F0A374ACF0A3740D122D47908F4222F8
:102AD80074F6121974122A984402F5D97800122A49
:102AE800AC40FB78008006122B27123168E8C399A6
:102AF80040F575E1959010EB122B47F0A3122B4788
:102B0800122AC912180B9009F6E0240E122B38125B
:102B18001817122B327414122BDA74040233E0885B
:102B28000874092508F582740A229009F6E024142D
:102B3800F8A3E0122B3F223400F98882898322749B
:102B4800A6122B54122B54F0A3740D22F0A3740D6B
:102B5800F0A374A62274F6121974122A98FA74064D
:102B68004AF5D97800122AAC40FB78008006122B6F
:102B780027123168E8C39940F5122BC8122AAC40D5
:102B8800FB78008008123D4A740A123168E8C3993C
:102B980040F375E1959010EB74A0F0A3740D122E1C
:102BA80091122AC612180B9009F6E0240E122B383F
:102BB800121817122B327415122BDA74030233E031
:102BC800900A28E0F9740729F5D974044AF5D978E8
:102BD8000022F09006A522C082C083900A5F742567
:102BE800F0900A5D7401F0A3E4F07A01FB12111E63
:102BF800900A4BE02416122B38743CF0A3740EF0A4
:102C0800900A5CE064017016900A5BE0701079012C
:102C180012117E12114E121178790012118A0229AE
:102C28002F74F612197474FA12191D900A54E0647C
:102C3800017008120E18900A54E4F075E1F1900A38
:102C48004BE02415122B387401F0900A56E0640109
:102C58007053908ECAC082851882851983AC82AD64
:102C68008375838ED082740612183075D90D900A38
:102C78004D122AA54403F5D978008808744E123DF0
:102C88004E740A122AB640F27800880885188285A0
:102C98001983E582123D4EE583122AB640EC75E1B0
:102CA800957901800279001211249010EB74C8F014
:102CB800A3740FF0A374CEF0A3740F122D27122D56
:102CC80027122D30122D3CF0A374D4F0A3740F12E8
:102CD8002D43900A4DE0F97A4E7B0A1210F4900ABF
:102CE8005F122D21790112112A908F3612180B12BA
:102CF8002D1A12180B1211007900121196900A4B16
:102D0800122B357416122BDA7405F00412193302DB
:102D180033E1121142908F1E22E0F91224A822F00A
:102D2800A374C8F0A3740F22122D36F0A322122D1B
:102D38003A22F0A37498F0A3740F22122D4722F0C0
:102D48009010F9122D3C122E9C122D3C122D3AF0A7
:102D58002274F41219748908A808123BCC900A64EA
:102D6800E0F97A657B0A1210F4900A72E0701A7919
:102D7800001211609009E7E0700B79007AE87B098E
:102D88001210FA8009790180F3790112116075E156
:102D9800F175D923900A64122AA54405F5D978005B
:102DA800880A7465250AF582740A122AB640F175F4
:102DB800D90075D90075D90075D90075D90075D9AC
:102DC800007A0012409F242212321D40F67A001227
:102DD800409F2426F582E912345E0AEAC394034030
:102DE800EEEE242B12345B7A0012409F242C123210
:102DF8002340F67A0012409F242E12322340F67A9E
:102E08000012409F243012322340F67A0012409F6D
:102E1800243212322340F67A008A0AEE250AF8EFA5
:102E28001238C8123230940540EFEE2437123B0DA9
:102E3800541FF8EE242A123B0DC43354E048F5D948
:102E480075E1959010EB749EF0A3740FF0A374A431
:102E5800F0A3740F122E91F0A374AAF0A3740F12AA
:102E68002D43900A71122D21908F3612180B122DB6
:102E78001A12180B12110090600DE4F0790112116A
:102E8800969006A57406022A2C122E98122D3C2222
:102E9800122E9C22122EA97498F0A3740F122EA938
:102EA80022F0A37498F0A3740FF0A32274EC121903
:102EB80074900A62122FA178101217ED900A73E02D
:102EC800FAF875F006A4C8ACF02CF9740328F5825A
:102ED800740739F583E0FEA3E0FFEEC333FEEF335A
:102EE800FF8E0CF50D750E00750F00851008851105
:102EF8000985120A85130B908F4A780812175378A0
:102F080008121B8385100885110985120A85130B81
:102F18007808790C1217407810790C121698E4F595
:102F28000EF50F7808790C1217798A0C750D007454
:102F380003780C12190A7808790C121740908F261A
:102F480078081217B4AA08AB09AC0AAD0B1222A272
:102F580074041219338A088B09A808A909C3EE98C2
:102F6800EF995006E82EF8E93FF9E890600EF0E98D
:102F7800A3F0EEA3F0EFA3F090600D74C1F07F0C06
:102F8800021A46C082C0839009F6122FA1A3A3A3F8
:102F9800A3E40225738E828F83122FA522E0F8A363
:102FA800E0F5838882A3A32274F7121974123FD123
:102FB800F8740639F9E82405FAE93400FB8A828BAB
:102FC80083123CAE88828983A3A3A3A3A3A3A3A34C
:102FD800A3ECF0A3ED123AC4E024FFF8A3E034FF19
:102FE800F98A828B83E8F0A3E9F0023456C082C0E4
:102FF80083900A4B123015900A5F02292CC082C0B8
:1030080083900A62123015900A7102292C122FA59A
:10301800A3A3A3A3E4F0A3F02202012274F21219DD
:103028007412316FF50AEF123610600478048002CA
:103038007800E8240EF8EAC39850030230CD7508EA
:103048000C900A7BE4F0EE2477123B0D900A7CF09A
:103058007902EE2478FCEF3400FD7A7D7B0A120FAA
:103068001A7902EE247A1230D2247C1230D2247ECD
:10307800FCEF3400FD120F1AEE2475123185850A13
:1030880082850B83E0601675087B75090A7808123B
:103098001B8B7C0C12372412193375081074012508
:1030A80008F5D975D90378008009880A747B250A40
:1030B800123164E8C3950840F175E195790412115D
:1030C800487901800279000238C3FCEF3400FD1210
:1030D8000F1A7902EE2274F212197412316FF50880
:1030E800EF3400F509850882F583E06004780480F0
:1030F800027800E8240AF8EAC3984055750A08904F
:103108000A7B7401F079057CEE7D097A7C7B0A12D2
:103118000F1AEE2481123185850882850983E060C3
:103128001675087B75090A7808121B8B7C081237FC
:1031380024121933750A0C1234B8800312315EE870
:10314800C3950A40F775E195790412114879018011
:103158000279000238C38808747B2508F582740A4E
:10316800123B14F5D9082212317322EAFEEBFF90C4
:1031780061D0E0F87480C398FAEE248322FCEF341F
:1031880000FD8E828F83A3A3A3A3A31233518C8245
:103198008D83E028F0A3E039F07902120F1A227427
:1031A800F6121974EAFEEBFF9061D0E0706275D9EF
:1031B8001875D90375D9037A008A08EE25081240D4
:1031C800A4249C1232CD40F17A008A08EE25081218
:1031D80040A424A412322340F17A008A08EE25087C
:1031E8001240A424941232CD40F17A008A08EE25C8
:1031F800081240A4248812321D40F175E19579081F
:10320800EE24941232C624881232BD1233BC8002D6
:1032180079000233E11232299404221232299402ED
:1032280022F582E93400F583E0F5D90AEAC322746D
:10323800F6121974EAFEEBFF9061D0E0707275D94E
:103248000E75D90375D9047A008A08EE250812404C
:10325800A4248C1232CD40F17A008A08EE25081297
:1032680040A4248412321D40F175E1957908EE24BA
:103278008C1232C624841232BD7C008C82AA82C38E
:10328800E49AF895E0F9EE28F8EF39F9E8248BF597
:1032980082E9123B10C0E0EE2A1240A424AB123897
:1032A80015D0E0F00CECC3940840D01233C1800272
:1032B80079000233E1FAEF3400FB120F20221232B8
:1032C800BD7904EE22123229940822C082C0837587
:1032D800D90275D90375D90575E195EA2470F58287
:1032E800EB12334AEA2472F582EB1233D302292F08
:1032F80074F6121974EAFEEBFF900A7B7406123317
:10330800AF121B8B7C01790312372A12193375D936
:103318000675D903780012339440FB75E195900641
:10332800A5E064087017EE2470F582EF12334AEEB8
:103338002472F582EF123818E8F0A3E9F079010257
:1033480033E11238D512335122E0F8A3E0F92274A0
:10335800F6121974EAFEEBFF9061D0E0702A900A29
:103368007B740A1233AF121B8B7C01790312372A44
:1033780012193375D90675D903780012339440FBB6
:1033880075E1951233C180027900804D8808747BFD
:103398002508F582740A1233A49405223400F583B3
:1033A800E0F5D908E8C322F075087B75090A7808A2
:1033B8002275E1957904121148EE2470F582EF1216
:1033C80038D5123351EE2472F582EF1238D5E8F071
:1033D800A3E9F07901227401F07F02021A4674F61B
:1033E800121974EAFEEBFF9061D0E0704279019007
:1033F8000A7B740B122BDAE06407701775087B756B
:10340800090A7808121B8B7C01090912372A12193C
:10341800337905740129F5D975D903780080031229
:10342800315EE8C39940F875E1951233C18002799D
:103438000080A674F7121974EAFEEBFF75D90375BC
:10344800D90375D90DEE24DE12345B1233B97F012E
:10345800021A46F582EF123B14F5D92274F51219B7
:10346800741235466004780480027800E8240BF86A
:10347800EAC3984036750A09900A7B7408F0F91275
:10348800352F601475087B75090A7808121B8B1292
:103498003722121933750A0D1234B8800312315EBF
:1034A800E8C3950A40F71233B980027900023791D0
:1034B8007401250AF5D975D90378002274F5121913
:1034C800741235466004780480027800E8240BF80A
:1034D800EAC3984041750A09900A7B7409F0790893
:1034E80012352F601475087B75090A7808121B8B32
:1034F800123722121933750A0D1234B880031231AB
:103508005EE8C3950A40F775E195790412114812EF
:103518003523790180027900023791EE241DF58266
:10352800EF12382AA3F022EE24E5FCEF3400FD7AEE
:103538007C7B0A120F1A850882850983E0221231E2
:1035480073F8EF123CA2F583E02274F31219748A1F
:10355800088B09123735FAE5082483F50AEB123689
:10356800106004780480027800E82408F8EAC39818
:103578005003023609750C06900A7B740CF090060D
:10358800C2E0900A7CF07402C0E0F97CC37D067A40
:103598007D7B0A120F1AD0E0F97CC57D06120F1A3E
:1035A800850A82850B83E0601C750A7B750B0A7897
:1035B8000A121B8B7C067903AA08AB0912372A1258
:1035C8001933750C0A7401250CF5D975D9037800DF
:1035D8008009880A747B250A123164E8C3950C4077
:1035E800F175E1957904121148E5082470F582E532
:1035F8000912334AE5082472F582E5091233D380AB
:103608000279007F05021A463400F50B850A82F517
:1036180083E02274F6121974EAFEEBFF123735FCC8
:10362800EE2483F8EF12373060047A0480027A00BF
:10363800EA2404FAECC39A405E7A02900A7BEAF024
:10364800EE24F7F582EF1236AB601975087B750921
:103658000A7808121B8B7C027903EEFA12372A12B9
:1036680019337A0674012AF5D975D90378008003CD
:1036780012315EE8C39A40F875E195EE247412366B
:10368800A4EE24801236A41235237904121148EED0
:10369800240D1233C4800279000233E1F582EF125F
:1036A800382A22123B14900A7CF088828983E0220F
:1036B80074F6121974123735FEEA2483F8EB1237C0
:1036C8003060047C0480027C00EC2404FCEEC39C83
:1036D80040437C02900A7B7407F0EA24F8F582EBF9
:1036E8001236AB601575087B75090A7808121B8BB2
:1036F800790312372A1219337C0674012CF5D9750F
:10370800D9037800800312315EE8C39C40F875E164
:10371800957901800279000233E17C097903EEFA98
:10372800EFFB120F8C740222122B3FE0229061D023
:10373800E0F87480C3982274F5121974E9FEA2AFF8
:10374800E433F50AC2AF7F00EA246FF8EB3400F9DE
:1037580080010F88828983E0FCEFC39C50188F0892
:10376800EA2508FCEB3400FDEC246BF582ED123BF6
:10377800106E70DE800DEA2CFAEB123AA9EE1236C2
:10378800B104F0E50AA2E092AF7F03021A4674F68C
:10379800121974A2AFE433FFC2AFEA246FF8EB1238
:1037A80040A6FCE9FD8C828D83E014F07E00801E2B
:1037B8008E08EA2508F8EB1240A6246CF582E91277
:1037C8003B10C0E0E8246B123815D0E0F00E8C8274
:1037D8008D83E0F8EEC39840D7EA246EF582EB12A9
:1037E800381874FF12381CEFA2E092AF0233E1C020
:1037F80082C083E5A8F8C2AFEA246BF582EB1238E1
:1038080018E912381CE8A2E792AF02292FF582E9DD
:103818001238D522F0EA246AF582EB12382A22F50A
:1038280082E93400F583E4F02274F21219748C8270
:103838008D83A3A3A3A3E0541FF0EA2436123DDC32
:103848008E828F83E4F0F50C850C8285820AEC2544
:103858000AF8ED123C9EF583E0C0E0EA250AF8EB91
:103868001238C8D0E0F0750D00850882850983E01C
:10387800F50A750B00E50D780A1218EBE50AA2E0C7
:103888005027E50C33333354F8250DC0E08E828F72
:1038980083E0F8EA28F8EB1240A62438123815D04D
:1038A800E0F08E828F83E004F0050DE50DC39408E7
:1038B80040B7050CE50CC39405408D7F06021A46F7
:1038C8003400F9E8245D1238D222F582E93400F593
:1038D800832274F61219749006D1E0640370077A93
:1038E800007B000233E17C00ECF875F006A4C8AA5E
:1038F800F02AF974D728F582740639F583E0600355
:10390800023A8D123D177401123B61E4F0E8240479
:10391800FAE93400FBEAFEEBFFEC8E828F83F0E8D5
:103928002462123A9A2465123ABB24681238157434
:1039380001123B57E4F0A3123AC4123ABF240F1203
:103948003A9A2435123AA212180BE824181238159C
:10395800121817E8241C123AB6241D123ABB248008
:10396800123AB62474123AB624691238157480F0E3
:10397800E8246A123AB6246F123AB62467123AB6A5
:1039880024ED123AB624EE123AB624EF123AB624CF
:10399800F0123AB624F1123ABB24F3123ABB24F6D9
:1039A800123AB62483123AB624D3123AB624D41261
:1039B8003AA212180BE824D5123815121817908F4E
:1039C8000A12180BE824D9123815121817E824DF40
:1039D800123AB624E1123AB624DD123AB624E212BB
:1039E8003AB624E3123AB624F9123ABB24FB123A47
:1039F800BB24FD123ABB24FFF582E9123529FC8C61
:103A080008E82508FAE9123AA974FFF00CECC39407
:103A18000440EC7C008C82AA8274EE2AF582740938
:103A2800123B10C0E0E82AFAE93400FBEA245DF50D
:103A380082EB123818D0E0F00CECC3940540D67C29
:103A4800008C82AA8274B92AF5827406123B10C0CF
:103A5800E0E82AFAE93400FBEA24E5F582EB1238BB
:103A680018D0E0F00CECC3940840D69006D1E004DE
:103A7800F0640170098E828F83E09006D3F0E8FA33
:103A8800E9FB0238EB0CECC3940340030238E7026D
:103A980038F01238D27401F0E822123827908F0AD1
:103AA800223400FBEA246BF582EB1238D522123857
:103AB80027E8221238D2E4F0A3F0E822123B5BA3F5
:103AC800A322C082C083EA2403F582EB123B106074
:103AD80008E4F09006D2E014F09006D1E014F070FB
:103AE800069006D374FFF08A828B83A3A3E4F09038
:103AF80009F3E0700D9006D2E064017005790012B8
:103B0800111202292FF582EF123B14223400F5839B
:103B1800E022C082C0837B00EBF875F006A4C8AA37
:103B2800F02AF974D128F87406123D21A3A3A3A39F
:103B3800A3E4123B57A3F00BEBC3940340DA9006BF
:103B4800D1E4F0A3F0A374FFF075E1F102292F127C
:103B58003B5B22123B61A3A322F088828983A3A343
:103B6800A32274F5121974750800750900750A0006
:103B7800A80A123BCC8E828F83A3A3A3E0602DE515
:103B8800084509700AEEF8EFF988088909801D854B
:103B98000882850983122FA1121B9E122F9D1218CD
:103BA8000B1222457404121933E960D9050AE50A93
:103BB800C3940340BB850882850983A3A3A3A3E01C
:103BC800F9023791E875F006A4C8AAF02AF974D565
:103BD80028FE740639FF2274F712197478FF79FFEA
:103BE8007F00EFFC75F006A4CCAEF02EFD74D52C4A
:103BF800FC74063DFD8C828D83A3A3A3E06040EC9A
:103C08002474F582ED123B10FE74FF68700374FF94
:103C180069701574016E700BEC247AF582ED12331D
:103C28004A801CEC242E80F374016E700AEC247A0E
:103C3800123C5C500A80E1EC242E123C5C40E40FFC
:103C4800EFC39403409CC3EA98EB994004E8FAE96F
:103C5800FB023456F582ED1238D5C3E098A3E099FB
:103C68002274F6121974EAFEEBFF120EC0EE2465F8
:103C7800F8EF123C9E123CACEC4D60109006D3124B
:103C88003FC9850882850983E4F0A3F0EEFAEFFBCB
:103C98001210100233E1123CA2223400F98808897C
:103CA80009888222F583E0FCA3E0FD2274F712194B
:103CB80074EAFEEBFF8E828F83A3A3A3A3E0FA7BB3
:103CC80000120BC0EEFAEFFB120ED8120FF20234FC
:103CD80056C082C0837B00EBF875F006A4C8AAF032
:103CE8002AF9123D17A3E0601AE8246FF582E91259
:103CF8003B10600FE8246BF582E9123B10700479E1
:103D08000180090BEBC3940340CD790002292F747D
:103D1800D528F87406123D212239F988828983A3AF
:103D2800A32274F61219747800880874B9123D4EEB
:103D380074061236A708E8C3940840ED9006B90245
:103D480033DE880874292508F58222C082C083746E
:103D5800FC12191D908F0A12180B85188285198379
:103D6800121817120F26E9851882851983F0120F89
:103D7800267401121968E9F0120F267402121968E4
:103D8800E9F085188285198312180B740402264FEE
:103D980074F6121974EA240D123DDCEC2403F8EDD4
:103DA8003400F988088909EC2407F8ED1240A6FCCC
:103DB800E9FD123DE61218928E828F83E8F0A3E99E
:103DC800F0123DE61218928B09EA45096003123D8C
:103DD800F90233E1F8EB3400F9E8FEE9FF228C82BE
:103DE8008D83123351850882850983E0FAA3E0FBAD
:103DF800228E828F83E02401F0A3E03400F0227445
:103E0800F6121974EA242EF582EB3400123CACEA5F
:103E18002470123DDC780079FAECFAEDFB12189266
:103E28008E828F83E8F0A3E9F0780079FAECFAED56
:103E3800FB1218928B09EA45096003123DF9023317
:103E4800E174F0121974EAFEEBFF74101219687825
:103E5800081217ED1210C48A0C8B0D8C0E8D0F9062
:103E68008F4E780C121753908F26780C1217B4784F
:103E78000C121B83122F9D12180B12224574041268
:103E88001933E96003023F2D8E828F83E02402F804
:103E9800A3E01240A6FAE9FB8A828B8378081217FE
:103EA80066908F2678081217ED8A828B837808121D
:103EB80017C7EE240BF582EF123818C082C0838E24
:103EC800828F83A3A3A3A3A3E02401F8A3E0340073
:103ED800F9D083D082E0687003A3E06970047901A7
:103EE8008045EE2407F8EF122B3F123DFDEE2474B7
:103EF8001240AB7014EE2475123F347003A3E06DCA
:103F080070078A828B83123DFDEE24801240AB70CD
:103F180014EE2481123F347003A3E06D70078A8287
:103F28008B83123DFD79007F08021A46FAEF3400B0
:103F3800FB8A828B83E0FCA3E0FD88828983E06CA6
:103F48002274F3121974123FD1FE740639FFEE245D
:103F580004F50AEF3400F50BEE2465F508EF34009C
:103F6800F5098010123CAE850882850983E4F0A328
:103F7800F0123FC3850882850983123CAEEC4D6080
:103F880030EE2464123B0DF50C780C121B8FEE24D6
:103F980063123B0DF9EEFAEFFB120F0E74011219C2
:103FA80033E985088285098360BA12334DE8497080
:103FB800077C007D00123FC302360B850A82850B01
:103FC80083E0FA7B00120B78229006D3E0F875F0B4
:103FD80006A4C8AAF02AF974D5282274F212197412
:103FE800EAFEEBFF890A740E121968E0FAEE246201
:103FF8001240AB600302409A123735F50CEE248369
:10400800123B0DFB60047804800278008908E928D7
:10401800F8E41240A624020808E93400F9E50C98EF
:10402800E499A2D265D0334065EA7005750B028029
:1040380003750B01EB60337509007808121B8B7A46
:104048007B7B0A120F56740212193375087B7509A7
:104058000A7808121B8BAC0AA90B123726121933DF
:104068007404250AF50A7C7B7D0A7401250AF5D9B2
:10407800850BD97800800A8808EC123D4EED123184
:1040880068E8C3950A40F075E195790080067907DC
:10409800800279FF0238C38A0AEE250AF8EF340055
:1040A800F9E822F582EF123B14640122C082C08332
:1040B80080031240E2E9F874FF28190470F4ECFA5E
:1040C800EDFB02292FC082C08380031240E2E9F889
:1040D80074FF28190470F402292F8C828D83E08ADA
:1040E800828B83F08C828D83A3AC82AD838A828B92
:1040F80083A3AA82AB832274F4121974E99006A4EC
:10410800F01210D6907800E0C4540F54076403707E
:1041180004793F8002797F750806750900780812CE
:104128001B8B7C927D067AEA7B0712048E7402123E
:104138001933900692E0F47049A3E0F47044A3E0C8
:10414800F4703FA3E0F4703AA3E0F47035A3E0F410
:10415800703090780EE0900692F090780FE090061C
:1041680093F0907810E0900694F0907811E0900623
:1041780095F0907812E0900696F0907813E090060B
:1041880097F09006981242E412590A9006C27406F3
:10419800F0A3740D124BAF7432F0A37401F09009C0
:1041A800F91242E49009F8E4F09009FFF0A374A032
:1041B800124BAF7403F0A37407124BAF7428124B61
:1041C800AF04F0A3E4F0900A28F0900A4E1242E4FB
:1041D800900A4DE4F0900A5404124BAF1242D2E414
:1041E800F0A304F0A3124BAF124BADF0900A651286
:1041F80042E4900A64E4F0900A6B04F0A3E41242EB
:10420800D2124BADF0A37405F0900A7574FFF0A3B9
:10421800E4F0900A77F0900A7904F0120DE8120C95
:10422800D412107C79017A7A7B0A120F2C900A7AC0
:10423800E075F01484E5F004F0790C7A9B7B0A129F
:104248000F2C120F4A7A009006A4E0F9120302908C
:104258007803E06442705E900A7AE014F07056C207
:10426800AF12426C00782AD0E0F618D0E0F6E59F4D
:104278005407F97005908F568003908F12780812B2
:1042880017EDE9C4C0E07829E65508F50808E655B1
:1042980009F509740B78081218FBD0E02508F89086
:1042A8006270E0A2E740F8E8C333906272F090626F
:1042B80070E0D2E0F09006CFE4F0A3F07A80FB90B3
:1042C80006A4E0F91202A8024BD01242DB1242DB2C
:1042D800F0A322F0A37480F0A374022274FF1246A4
:1042E80042F0A3F02274F6121974EAFEEBFFEEA274
:1042F800E050439006A6E0C39480E0500FC333F823
:10430800E433F974EB28F5827410800EF4C333F8A3
:10431800E433F974F928F582741039F5831253914E
:104328001219727A009006A4E0F9120302EE6401F1
:10433800FAEFFB02450954086045900A731245617B
:104348007508007808121B8F1245371218FB780879
:10435800121B8BEA243012450C121BA61245481278
:104368001B8B7508E87509097808121B8B9009E7FB
:10437800E0FD7C0012451F121933EE640880B1EE8F
:104388005410603E7508007808121B8FE4F5097810
:1043980008121B8B7808121B8B7808121B8B750868
:1043A800E87509097808121B8B9009E7E0FD7C0085
:1043B8007A007B007902124531121933EE6410023B
:1043C8004338EE540260367508007808121B8FE4F3
:1043D800F5097808121B8B7808121B8B7808121BBA
:1043E8008B7508E87509097808121B8B1245137933
:1043F8003C124531121933EE6402024338EE54047C
:10440800604E9006D3124561EA242AF582EB1253D6
:1044180083F5087808121B8F1245371218FB7808A5
:10442800121B8BEA242012450C121BA612454812B7
:104438001B8B7508E87509097808121B8B9009E72A
:10444800E0FD7C0112451F121933EE640402433863
:10445800EE544060367508007808121B8FE4F509A1
:104468007808121B8B7808121B8B7808121B8B7527
:1044780008E87509097808121B8B124513793B1255
:104488004531121933EE6440024338EE54806022FD
:1044980079001202FC908F22121B9E7A007B0190F9
:1044A80006A4E0F91203207404121933EE648002A2
:1044B8004338EF5401600D79011202FCEEFAEF6403
:1044C8000102433A9006ABE064017031EE5420607B
:1044D8002C9006A5E024F9600314701B793F900620
:1044E800D3E0FA75F006A4CAA8F028FB74D52AFA16
:1044F80074063BFB120EDEEE64200243387A007B22
:1045080000024BDAF582EB12563F229009E7E0FDF4
:104518007C017A007B00228A828B83A3A3A3A3E079
:10452800FA7B00790012453122120BBA740922EA8B
:104538002432F582EB12563F125371740478082224
:10454800EA242EF582EB1257D9F508A3E0C313F538
:1045580009E50813F508780822E0F875F006A4C8FC
:10456800AAF012456E222AF974D528FA740639FB86
:1045780022C082C083C2AF1210B2E5E170FC75E1BF
:1045880001124BB51210EE79071211907901121130
:1045980096790212111812114E121178790012111F
:1045A8008A790112118A908F1E12180B121100902D
:1045B80009E7E41242E6A3F09009FFF0A3F0A3F0A4
:1045C800900A037407F0900A027403F0900A08E452
:1045D800F0900A07F0900A28F0900A55F0900A6CBB
:1045E800F0120EC6120FEC120EEA790012119C900E
:1045F80009EE74FF124642741FF0906012E4F0A3B3
:10460800F0906063F07521009006A5F09006A7F081
:10461800A3F09009F3F09009F404F09009F5E4F0A0
:104628009006AAF09006AB04F09006C17403F090CF
:104638000A78E4F0D2AFF9025806F0A3F0A3F0A389
:10464800F0A322C082C083900692E08A828B8312F4
:104658004CD68A828B83A3124CD08A828B83A3A3E5
:10466800124CCA8A828B83A3A3A3124CC48A828B5E
:1046780083A3A3A3A3F0900697E08A828B83A3A3C6
:10468800A3A3A3025803C082C0838A828B83E090CD
:1046980006981246C4E09006991246C4A3E0900614
:1046A8009A1246C4A3A3E090069B1246C9E090065E
:1046B8009C1246C9A3E090069D0258031246D1A356
:1046C800221246D1A3A3A3A322F08A828B8322C0FD
:1046D80082C083120DF4E9700512114E7900025858
:1046E8000674F7121974EAFEEBFF8908120DF4E953
:1046F800702CE508600A74016508600A7912801E4A
:104708007C00790080047C007901EEFAEFFB12113D
:1047180054E9F87403687004790780027900024B41
:10472800D574F6121974740A12196812580D600AB1
:10473800EC4D6006E508450970047912800F780889
:10474800121B8B120F4474021219337900024BDAD0
:1047580074F4121974EAFEEBFF89089006A5E06468
:10476800096014E0640A600FE0640B600AE0640CFE
:104778006005E0640D7004790C801E1210168B0B16
:10478800EA450B700BA908EEFAEFFB120F2C800913
:104798009006A7E04440F0790D024BD074F412194A
:1047A80074EAFEEBFF890BEE4F6003E9700479129F
:1047B800801F750A00120F26850A08EE2508F58263
:1047C800EF12450FE9F0050AE50AC3950B40E679B3
:1047D80000024BD0C082C083E9F8740168700B9066
:1047E8000A787401F07900025806E87006900A7891
:1047F800E480F1791280F0F582EB1257D964012236
:1048080074F6121974EAFEEBFF8C088D099006A560
:10481800E0640C700590618E80121257BF702F12E1
:104828005948743E2EF58274073FF583E0F9748089
:1048380069700A850882850983747F800E9006A9AD
:10484800E0F8E9C398850882850983F07900024B6E
:10485800DA74F7121974EAFEEBFF89087405650823
:10486800602874136508602274146508601C741548
:1048780065086016741A6508601074296508600A6E
:10488800743B65086004791280401257BF703B1270
:104898004EF1241DF8EB3400F9EA24F7FCEB340060
:1048A800FDEA246A1247FF7019EA246BF582EB12BD
:1048B800538364027004793A80101248D5120EAE00
:1048C80080061248D5120EA27900024BD58C828D33
:1048D80083E5081258F8E4F0A3F079022274E8128C
:1048E800197474FE12191DE9851882851983F08AD6
:1048F8000C8B0D8C0A8D0B741A121968E0F508ECF4
:10490800450B6016851882851983E0C3941C500AEC
:10491800E508600B7401650860057912024B9A126C
:1049280057BF6003024B9AA80CE875F006A4C8AA02
:10493800F02AFA75F006E50DA42AF974D528FE7454
:104948000639FFEE2465F510EF3400F51185108265
:10495800124BA44970C4A2AFE433C0E07401121929
:1049680068D0E0F0C2AF1210168A148B158A828BB9
:1049780083E0F874406860177480686003024B60D5
:104988009006D3E0650C7002E50D6003024B6012DF
:1049980010CA8A0C8B0D1210CAEA650C7003EB65FD
:1049A8000D7003024B60125962E5142402F516E5F6
:1049B800153400F517908F06780C121753780C12DF
:1049C8001B8385168285178312180B1257FD12193F
:1049D80033E964016003024B60E508F509780912C0
:1049E8001B8F7401121968E0F9AC0AAD0BEEFAEFEF
:1049F800FB120F0E7401121933E96003024B609029
:104A080009F4E064016003024B52EE241DF582EFC5
:104A18003400124BA4497003024B52125962EE241F
:104A28002EF508EF3400F509850882F583E0F510C6
:104A3800A3E0F511E4F512F513780C79101217407C
:104A4800908F52780C121753780C121B838516829C
:104A580085178312180B1257FD121933E964016088
:104A680003024B52E5142408F50AE5153400F50B4A
:104A7800850A82F583121B9EAA0CAB0DAC0EAD0FF6
:104A88001257F7121933850882850983121BA6125B
:104A980021F474021219338A0C8B0D8C0E8D0F744D
:104AA80010780C1217088E828F83A3A3A3A3A3A345
:104AB800A3A3A3124BCA8E828F83A3A3A3A3A3127B
:104AC80053C4E8250CF8E9350DF98E828F83A3A32A
:104AD800A3A3A3A3A31253C4850A82850B83C08210
:104AE800C083850882850983124E7B780C79081269
:104AF8001618D083D082780C121753908F26780C12
:104B08001217B4851682851783E50CF0A3E50DF01E
:104B1800A3E50EF0A3E50FF0851482851583A3A302
:104B2800A3A3A3A3E4F0A3F0EE2435125380C0E0BE
:104B3800EE2434F582EF12450FD0E0F0EEFAEFFBE9
:104B4800121EB6AA14AB15120FF87401121968E0F8
:104B5800A2E092AF7900803A851082851183E50A38
:104B6800F0A3E50BF0851882851983E0C0E0EE24F8
:104B780063F582EF12450FD0E0F0EE2464F582EF82
:104B880012450FE508F07401121968E0A2E092AF2F
:104B9800790774021219337F10021A46F583E0F878
:104BA800A3E0F9E8227425F0A3E4F0A322120DBED5
:104BB800120DB275E1F1227F05021A468518828529
:104BC8001983E0F8A3E0F9227F04021A467F010264
:104BD8001A467F02021A4674F7121974E9FE74091C
:104BE800121968E0FF740A121968E0F508EE60050A
:104BF80074016E7028EF600574016F7020124E41C9
:104C0800501BEC24FCF8ED124E465011C3EA9CEB05
:104C18009D400AE508600B74016508600579120279
:104C28004CC1900A55E064017005790C024CC1EE44
:104C3800A3F0E508900A5BF0EF900A4D7027E4F0C6
:104C4800900692E0900A4E124CD6900A4F124CD021
:104C5800900A50124CCA900A51124CC4900A52F051
:104C6800900697802E7401F0900698E0900A4EF016
:104C7800900699E0900A4FF090069AE0900A50F05A
:104C880090069BE0900A51F090069CE0900A52F042
:104C980090069DE0900A53F0900A57124EA9A3EC93
:104CA800F0A3EDF0E5087004790080087401650848
:104CB8007005790112115A7900024BD5F0900696C9
:104CC800E022F0900695E022F0900694E022F09021
:104CD8000693E02274F4121974E9FEEAFF9006A51F
:104CE800E064096014E0640A600FE0640B600AE0A5
:104CF800640C6005E0640D70057921024E3E900A4F
:104D080056E0F86005740168703A900A4DE0F86062
:104D180005740168702E900A57124E61124E415068
:104D280023A3124BA624FCFCE934FFFDC3EC94FD3D
:104D3800ED943F500FC3EA98EB994008EF600A746E
:104D4800016F60057912024E3EEE607C1470F5909A
:104D58000A55E0640160A2790212100A900A4B1207
:104D68004EA9900A557401F0900A54F0EF900A5C2D
:104D7800F09006A5E06003024E3C120E1E124E4A49
:104D8800908F2E7808121753908F2678081217B430
:104D9800900A4B124E671217FC900A4B124E9D90C8
:104DA8000A4B125387C082C083900A59124E7BD097
:104DB80083D0827808121753900A4B124E6D7808E8
:104DC8001217FC120FF2806C900A55E07003024D26
:104DD80001A2AFE433F508C2AF7A4B7B0A12101078
:104DE800900A55E4F0121028E97020124E56E5E1B9
:104DF80070FC75E1017591BF790112119675E1F1A9
:104E08009006ABE064017003124E84E508A2E092BC
:104E1800AF900A5BE0F8740168700512117880148D
:104E2800A3E06401700EE8700B12114E121178792C
:104E3800011211847900024BD0EA24FCF8EB1253DA
:104E4800A4221210C48A088B098C0A8D0B22121016
:104E5800B2906182E0C2E6F022E0FAA3E0FB2212FF
:104E6800538B780822E0240EF8A3E03400F98882F6
:104E7800898322125371E4F50AF50B227A207B000C
:104E88009006A4E0F912032C7A207B009006A4E097
:104E9800F91202AE2212538BA3A3A3A3E4F0A3F04A
:104EA80022EAF0A3EBF02274F7121974EAFEEBFF82
:104EB8009006A5E064076004790C802A1257BF7039
:104EC80025124EF124DD1247FF700DEA24F7124532
:104ED8000C7406F07902800BEA24DE12450C740685
:104EE800F0790D125625024BD51257EBEA2274E8D9
:104EF80012197474FC12191D7402121968124EA941
:104F0800851882851983ECF0A3EDF08915741D12BC
:104F18001968E0F50AA3E0F50B741F121968E0F5AB
:104F28001474201219681253717422121968E0F56A
:104F380016A3E0F5177426121968E0FEA3E0FF74C3
:104F480028121968E0F50CA3E0F50D742A12196807
:104F5800E0F50EA3E0F50F900A6CE06401600779B4
:104F6800041253797005792102536C9006A5E06408
:104F78000960F3E0640A60EEE0640B60E9E0640C49
:104F880060E4E0640D60DF740212196812539A50ED
:104F98005685188285198312539A504B7402121938
:104FA80068C082C083124BC4D083D082C3E098A368
:104FB800E0994033E515600874016515702980068D
:104FC800E50A450B6021741C121968E0600464014D
:104FD8007015E514600674016514700BC3E50E9531
:104FE8000CE50F950D5005791202536CE50824FA6B
:104FF800F8E50912561C50EFE51624FAF8E51712E1
:10500800561C50E3C3E5169508E517950940D87472
:1050180024121968C3E094F4A3E0940150C912560D
:105028000E50C479011253797012900A02E0F87098
:1050380003024F6E7401687003024F6E7940125379
:10504800797003024F6E851608851709E508C33382
:10505800F508E50933F5097424121968E02401F507
:1050680010A3E03400F511E4F512F51385080C855A
:10507800090DF50EF50F7810790C1216188E0C8F95
:105088000D7403780C12190A780C79101215A940BE
:1050980003024FEF120EE4E964017005793A0253F6
:1050A8006C9006D2E0605785080C85090D7AFF7B65
:1050B800FF120ED28A088B09740378081218FB9025
:1050C80006D2E0F8C3E50898E50994005005793B55
:1050D80002536CC3EA950CEB950D5010A80CA90D62
:1050E8001218928B09EA450970E48012EAF8EBF984
:1050F800AA0CAB0D1218928B09EA450970D0E51578
:105108007009E50A450B7003024FEF120EBA8A08C0
:105118008B09A808A909E8497005790902536CE8C0
:105128002404F50CE93400F50D850C82F583E09034
:105138000A73F07402121968124BCA900A6D12535E
:10514800C4124BC4900A6F1253C4E515900A72F04A
:105158007A008A82A882125634E0C0E0E50828F86E
:10516800EB3400F9E8245DF582E912450FD0E0F050
:105178000AEAC3940540DBE508245DFCEB3400FD36
:10518800AA08120EB4E5082436F582E509125383FD
:10519800C39402500AAA08AB09120EC0024FEF8549
:1051A8000A82850B83E09009E81253B8E09009E978
:1051B8001253AFE09009EA1253AFA3E09009EB1243
:1051C80053CAE09009EC1253CAA3E09009EDF0E548
:1051D80014900A64F07025900692E0900A65124CCB
:1051E800D6900A66124CD0900A67124CCA900A6888
:1051F800124CC4900A69F0900697802B900698E0AC
:10520800900A65F0900699E0900A66F090069AE098
:10521800900A67F090069BE0900A68F090069CE080
:10522800900A69F090069DE0900A6AF0741C1219C1
:1052380068E09009E7F0120EF0E5082426F582E50B
:105248000912450F121817120D5EE5082422F5827F
:10525800E50912450F121817E508242EF582E5090D
:1052680012450FE516F0A3E517F0E5082432F5829C
:10527800E50912562B7424121968124BCAE5082442
:1052880030F582E5091253C1900A74E0C0E0E508E0
:10529800242AF582E50912450FD0E0F0E508242B11
:1052A800F582E50912450F7402F0120F26E975F030
:1052B8000C84E5F02405C0E0E5082437F582E5090B
:1052C80012450FD0E0F0900A717425F09006D2E0F4
:1052D800C3940240057901121112790412100A9040
:1052E8000A62124EA9900A6C7401F0900A62E024D6
:1052F80016124E707442F0A3740EF0900A62E02405
:1053080014124E707417F09006A5E070551210C470
:105318008A108B118C128D13908F327810121753BC
:10532800908F2678101217B4900A6212538778105B
:105338001217FC900A62124E9D900A6F124E7B78EB
:10534800107908121740900A62124E6D78101217E1
:10535800FC850C82850D83E0F9120E24120E2A12A8
:105368000FF279007404024B9CE0F508A3E0F509FC
:105378002212101CE9640122F582EF1257D9221279
:10538800538B22125391A3A322E0F8A3E0F583885C
:105398008222E024FCF8A3E01253A42234FFF9C3CC
:1053A800E894FDE9943F221253B3221253B8A32282
:1053B800F0850A82850B83A32212563FE8F0A3E901
:1053C800F0221253B3A3A322C082C083900A6CE0D8
:1053D8006008790412101CE97004790C8018900A8E
:1053E8006CE4F0121028E9700B9006ABE0640170D1
:1053F80003124E847900025806C082C083C3EB941E
:105408000F5009C3EA9403EB9400400479128024F6
:10541800EA75F006A4CAA8F028F875F006EBA428E7
:10542800FB74D82AF58274063BF583E07004790290
:105438008002790002580674EA1219748A088B09E6
:105448007416121968E0F512A3E0F513741812190E
:1054580068E0F514A3E0F515741A121968E0FEA3C4
:10546800E0FF9006A5E064086005790C025609EC97
:1054780024FAF8ED12561C5025E51224FAF8E51323
:1054880012561C5019C3E5129CE5139D4010C3E544
:105498001494F4E5159401500512560E400579123E
:1054A8000256091257BF6003025609E50875F0064F
:1054B800A4C508A8F028F875F006E509A428F50998
:1054C80074D52508F51074063509F511E510246F13
:1054D800F582E511125383600DE510246BF582E522
:1054E80011125383600DE5102474F582E5111248FA
:1054F800027005793A025609E512C333FAE5133307
:10550800FBE5142401F508E5153400F509E4F50A6E
:10551800F50B8A0C8B0DF50EF50F7808790C121621
:10552800188E0C8F0D7403780C12190A780C7908F0
:105538001215A940030254A69006D2E0C394024073
:10554800558A088B097AFF7BFF120ED28A0A8B0BC9
:105558007403780A1218FB9006D2E0F8C3E50A989B
:10556800E50B94005005793B025609C3EA9508EB10
:1055780095095010A808A9091218928B09EA45093B
:1055880070E48012EAF8EBF9AA08AB091218928BBA
:1055980009EA450970D0E5102477F582E51112452E
:1055A8000F7402F0E5102478F582E51112450FE436
:1055B800F0A3F0E5102430F582E511125644E51009
:1055C8002475F582E5111253C1E510247AF582E5B8
:1055D8001112450FE512F0A3E513F0E510247CF550
:1055E80082E51112450FE514F0A3E515F0E5102446
:1055F8007EF582E51112562B7900AA10AB111256CE
:10560800257F0E021A46EE24F6F8EF12593B9477DE
:10561800E9940C2212593B947BE9940C22120EA2B5
:1056280079002212563FEEF0A3EFF02274EE28F52F
:1056380082740912563F223400F583221257D92466
:1056480007F8A3E03400F92274F2121974EAFEEBA9
:10565800FF8C088D09740E121968E0F50CA3E0F5AB
:105668000D7410121968E0F50AA3E0F50B9006A571
:10567800E064086005790C0257BAEC4509600CE54E
:105688000C450D6006E50A450B700579120257BAFC
:105698001257BF60030257BA125941FE74063FFF02
:1056A800EE24E412538070257A008A82A882125769
:1056B800CEC0E0EE28F8EF3400F9E824E5F582E9F9
:1056C80012450FD0E0F00AEAC3940840DDEE24E565
:1056D800125380A2E0400579110257BA7A008A82F3
:1056E800A882E50828F582E509125383C0E0EE2870
:1056F800F8EF3400F9E8249CF582E912450FD0E070
:10570800F00AEAC3940840D6850C82850D83E0C070
:10571800E0EE24A4F582EF12450FD0E0F0850C826C
:10572800850D83A3E0C0E0EE24A5F582EF12450FB6
:10573800D0E0F07A008A82AC82E50A2CF582E50B8B
:10574800125383C0E0C3E49CF895E0F9EE28F8EF23
:105758001257DFD0E0F00AEAC3941040D8EE249440
:10576800FAEF3400FB120F32EE2488FAEF3400FB14
:10577800120F389006A7E04480F0EE24621257C456
:1057880024D31257C424D41257C424DDF8EF3400AC
:10579800F9EE2483F582EF12480288828983700724
:1057A8007401F0790A8004E4F07903EEFAEFFB1251
:1057B80056257F06021A46120D3AE922F582EF12A3
:1057C800563FE4F0EE2274B928F58274061257D9D0
:1057D800223400F583E02239F9E824D2F582E9126F
:1057E800563F2212595074D52EFA74063FFB2212E6
:1057F80022A2740422122245740422F07900D08374
:10580800D082020122125371EA4B2274F3121974E6
:10581800EA4B700579120258F19006A5E060057907
:105828000C0258F1EA2405F8EB3400F9EA2404FCE8
:10583800EB3400FDEA2403FEEB3400FFEA2402F512
:1058480008EB3400F5098A828B83A385820A858355
:105858000B8A828B83E0F47059850A82850B83E07A
:10586800F4704F850882850983E0F470458E828F35
:1058780083E0F4703D8C828D83E0F47035888289F2
:1058880083E0F4702D90069EE0900692F090069FBB
:10589800E0900693F09006A0E0900694F09006A1A0
:1058A800E0900695F09006A2E0900696F09006A388
:1058B800803012590A8A828B83E0900692F0850A1A
:1058C80082850B83E0900693F0850882850983E042
:1058D8009006941258FE9006951259059006961255
:1058E80058F4E0900697F07900024BBF1258F8225E
:1058F800F08882898322F08E828F83E02212599D5C
:10590800E022900692E090069EF0900693E09006C2
:105918009FF0900694E09006A0F0900695E090061F
:10592800A1F0900696E09006A2F0900697E0900607
:10593800A3F02234FFF9C3E82212594C74D52E2261
:1059480012594C2212595022EE75F006A4CEA8F036
:1059580028F875F006EFA428FF22125966221210C3
:10596800C48A0C8B0D8C0E8D0F22C082C083E9F87F
:105978009006D1E06004790C800EE8600E14701176
:10598800900A797401F07900025806900A79E48047
:10599800F4791280F3F08C828D832274F4121974D6
:1059A800E9FF7E008A088B097808121BD300040FD0
:1059B800665BDA59F759105A275A445A5B5A7C5A87
:1059C800935AA65ACF5AEC5AFC5A125B2B5B665B69
:1059D8004B5B74016F6003025B628C828D83E0F81D
:1059E800C394034003025B62E8900FF9025B5F74A3
:1059F800026F6003025B628C828D831263FB900FDF
:105A0800FAE8F0A3E9025B5F74016F6003025B626E
:105A1800125B894003025B62E89002E1025B5F74FB
:105A2800016F6003025B628C828D83E0F8C394058A
:105A38004003025B62E89002E2025B5F74016F6000
:105A480003025B62125B894003025B62E89002E337
:105A5800025B5F74106F6003025B627508108E0949
:105A68007808121B8B7AE47B021202547402121912
:105A780033025B8474016F6003025B62125B8940CE
:105A880003025B62E89002F4025B5F74016F6003DB
:105A9800025B628C828D83E0900FFD025B5F740471
:105AA8006F6003025B628C828D8378081217ED9019
:105AB8008F1678081215C95003025B629002F678B7
:105AC800081217FC025B84EF6003025B6212093262
:105AD800E9700A12042879501205BA806190038986
:105AE8007401807374016F7071125B89506CE89057
:105AF80002F5806374016F70618C828D83E0F8C356
:105B0800940A5056E8900FFC804D74016F704B8CCE
:105B1800828D83E0F874F928C3940A503DE8900F09
:105B2800FE803474016F7032900388E0F88C828DA7
