:020000040000FA
:0600000002011D021F0EAB
:03002B00021C486C
:03005300021F8405
:03006B00021C1460
:10008300021DFFE5C754F84401F5C77901220000BA
:100093000080FB120086B90003020107E47921788E
:1000A30008B800028004F709D8FCE479297802B87B
:1000B30000028004F709D8FCE490028178457909AD
:1000C3008002F0A3D8FCD9FA781A90014D7A01BACC
:1000D30000028007E493A3F608DAF9900AC5AA821E
:1000E300AB8390014E788079038015E493A3AC82AF
:1000F300AD838A828B83F0A3AA82AB838C828D83A8
:10010300D8E9D9E77582897583FF740112012F75C8
:100113008291758300740012012F75D00075813FA1
:10012300751881751902759F00020096C09FF59F8F
:10013300E473D09F22D083D082C09FE493C0E07445
:100143000193C0E0740293F59F2201FFFF1209425D
:100153006C6F6F6450726573737572652053656E4F
:10016300736F720512C8004006020A0002010503FC
:10017300021018426C6F6F64507265737375726509
:100183002053656E736F72000F0F0F0F0F0E780001
:1001930050005A003C000147050000200C100202E9
:1001A3003F900100000690021D90010000150B0214
:1001B3004590000000D803021B90030000D2030205
:1001C3001990010000160B021D90010000170B028D
:1001D3004390000000D903021B90030000DA0302DE
:1001E3001D90010000180B024190010000E0030282
:1001F3000202020202020202010D000000100102CB
:100203003F900100000390021D90010000690B0262
:100213003B90010000E203021D900100006A0B0203
:100223003990010000138F021D900100006B0B0237
:100233003790010000058F021D900100006C0B0236
:100243003590010000918E021D900100006D0B029C
:100253003390010000A38E021D900100006E0B027B
:100263003190010000B58E021D900100006F0B025A
:100273002F900100007F8E021D90010000700B0281
:100283002D90010000F78E021D90010000710B02FA
:100293002B90010000720B01E803053F10FF0001E2
:1002A300307503020106000000000000000000009A
:1002B300000000000000000000000000000000003B
:1002C3000000FFFF0600800CE803FF0000B40000FD
:1002D30028002800283075A000A000A000A000007E
:1002E300080008E001F000100010001000100010DA
:1002F30000100050005000500010001000D0070004
:1003030000000000000F0001000500307507001019
:1003130000010081FF0000FFCF0AED0AD50AFF02AA
:10032300020208025000A0000000E803023F90010F
:1003330000000C90021D90010000990C021790011F
:100343000000DA05021D900100009A0C02159001CD
:100353000000F005021D900100009B0C02119001AA
:100363000000F205021D900100009C0C020F900892
:100373000000F305021D900100009D0C024990014D
:1003830000009E0CFFFF0100FF20023F90010000D0
:100393000990021D90010000030D0213900000005C
:1003A3000000021B9003000082067D117D117D1168
:1003B3007D117D117D117D117D117D117D117D11CA
:1003C3007D117D1153146B144D1412013836E40260
:1003D3001201384BE402120138A3E4021201380A75
:1003E300E50212013852E502120138C8E502120192
:1003F30038F7E50212013805E60212013869E60210
:10040300120138A7E602120138C2E6021201385A75
:10041300E70212013803E80212013886E8021201EA
:1004230038BFE8021201384AE902120138A1E90291
:1004330012013800EA0212013812EA0212013838B6
:10044300EA0212013841EA02120138A0EB0212015A
:100453003885DC031201383E86031201381D8703F9
:10046300120138798703120138938703120138A4E4
:1004730087031201389F8A03120138BF8A031201CE
:100483003890C803120138D5C8031201381BC903B9
:10049300120138AECA03120138B7DB03120138D296
:1004A300DB03120138E2DB0312013839DC031201EA
:1004B300380080031201382080031201382481039D
:1004C300120138708103120138908103120138E35D
:1004D30081031201385082031201389682031201FC
:1004E30038FA8203120138AC85031201382D8603D2
:1004F30012013857D70312013887D703120138B7CF
:10050300D703120138D7D70312013831D8031201A8
:1005130038759A02120138999C02120138079E021B
:100523001201383F9E02120138E49E021201382262
:10053300A102120138A3A10212013807A20212017B
:1005430038A4A20212013823A30212013812A40212
:1005530012013830A402120138DBA4021201380C54
:10056300A50212013828A602120138EAA6021201D6
:1005730038C9B80312013827B9031201383AB9034D
:1005830012013843B903120138A2B903120138F337
:10059300B903120138AFBA0312013833BC03120195
:1005A30038FB9A03120138209B0312013828DD031C
:1005B300120138802500120138EB2700120138ABF5
:1005C3002900120138562A00120138FA2A001201B2
:1005D30038932B00120138C22B001201382E2C0045
:1005E3001201389431001201383F3200120138AF42
:1005F3003300120138173400120138CB34001201D2
:10060300384B36001201388A3600120138FE3600A4
:100613001201385D3700120138BC37001201382B44
:1006230038001201381E39001201386439001201F2
:1006330038A93900120138CC39001201381C3B00AB
:100643001201382F3B00120138A13B00120138D8A8
:100653003B00120138043C00120138573C001201E0
:1006630038783C00120138BC3C001201380E3F00C0
:100673001201384F3F00120138FA3F00120138656A
:100683004000120138E3FF0112013899D803120127
:1006930038A9D803120138BDD803120138C5D903CC
:1006A3001201380BC303120138B1C303120138CD51
:1006B300C503120138FED5031201382BD6031201EC
:1006C3003896D603120138ADD60312013809D70381
:1006D30012013846D70312013849D7031201387083
:1006E3008C031201388F8C03120138248D031201FD
:1006F30038148E03120138719003120138D190031C
:100703001201383A9103120138F87F00120138E8D8
:10071300C503120138DAC70312013846C8031201B0
:10072300388DC80312013851CD03120138B0CD03FF
:100733001201385ECE03120138DDCE0312013816E2
:10074300B10312013848B10312013850B203120148
:100753003875B30312013831B403120138BBBE023A
:10076300120138A1BF02120138EEBF021201383163
:10077300C002120138A6C00212013807C1021201D9
:10078300387CC10212013858C20212013863C30215
:10079300120138E4C3021201388BC5021201382159
:1007A300C60212013894C60212013810C7021201A0
:1007B3003827C7021201385EC802120138B8C802CE
:1007C3001201385F6D00120138B1710012013876E1
:1007D30074001201389F7400120138C674001201AC
:1007E300387875001201384B77001201388678008B
:1007F300120138747D00120138AD7D00120138F109
:100803007D00120138037F0012013826FF02120116
:100813003836CF03120138BAD00312013858910386
:10082300120138799103120138C891031201383B40
:10083300DE031201388BD403120138A1D403120151
:1008430038CED403120138FED40312013815D50370
:1008530012013836D50312013867D503120138B8AF
:10086300D503120138CFD503120138E6D50312019F
:1008730038CDD203120138E4D20312013813D30363
:100883001201384CD30312013874D303120138A276
:10089300D303120138B9D303120138D0D3031201A1
:1008A30038E6D3031201380DD40312013820D403E0
:1008B30012013836D40312013849D4031201386EB9
:1008C300D40312013834F10112013833F201120159
:1008D300385DF201120138B2F201120138D3F2018C
:1008E300120138ECF201120138EEF2011201380F55
:1008F300F30112013808F4011201384AF50112011B
:100903003807F601120138D4F60112013838F7011D
:10091300120138CFF701120138D2F701120138580A
:10092300F8011201389BF801120138EDF8011201A8
:1009330038F0F80112013827F9011201384EF90194
:10094300120138E4F9011201386DFA01120138B6C7
:10095300FA01120138C3FA01120138C6FA01120171
:100963003824FB011201383CFB01120138B6FB01AC
:10097300120138B9FB01120138DCFB01120138DF27
:10098300FB0112013886FC01120138A9FC01120196
:1009930038C1FC01120138F1FC01120138FEFC01DF
:1009A30012013801FD011201386DFD011201385B9E
:1009B300FE0112013811FF01120138B69F03120123
:1009C30038DE9F031201380CA00312013843A00341
:1009D300120138ABA003120138F4A0031201383F0F
:1009E300A1031201387DA103120138BAA103120138
:1009F30038E8A1031201388FA20312013899A20328
:100A0300120138A6A203120138D9A2031201389B9E
:100A1300A303120138A7A303120138BFA3031201D2
:100A230038C9A303120138E0DA03120138EEDA03FE
:100A330012013806DB031201381EDB031201380DE5
:100A4300D401120138ABD40112013823D5011201AC
:100A53003838D60112013872D6011201381BD7017A
:100A6300120138F0D70112013854D901120138AB01
:100A7300D90112013832DA0112013819DB011201EE
:100A83003866DB01120138F4DB0112013818DC018E
:100A9300120138EDDD011201382EDE01120138504A
:100AA300DE01120138D1DE01120138BBDF01120170
:100AB3003881E001120138F4F202120138C6F30260
:100AC3001201386FF402120138B2F4021201383FF6
:100AD300F502120138CBF502120138ACF60212010D
:100AE30038DBF602120138D7F7021201381FF80279
:100AF30012013821F90212013865F9021201388B0B
:100B0300F902120138B2DD03120138F8B4031201FD
:100B1300380EB50312013834B5031201385CB6033D
:100B230012013866B603120138BFB703120138BF8A
:100B3300B80312013800FA0212013835FB02120120
:100B43003868FB02120138B2FB0212013870FD0251
:100B53001201384C9001120138D59001120138E589
:100B63009001120138C09101120138FD9101120167
:100B730038849201120138D09201120138DB9201BC
:100B8300120138B49301120138169401120138B2DC
:100B93009401120138B696011201386D98011201C1
:100BA30038E99801120138C69901120138F49C0101
:100BB300120138929D01120138EF9E011201386231
:100BC300A0011201380BA10112013854A101120135
:100BD300388BA10112013830A201120138AEA201F3
:100BE300120138B2B50112013815B6011201385A93
:100BF300B7011201386AB7011201388DB70112012A
:100C030038D8B7011201387DB80112013873B90120
:100C13001201383DBA01120138B5BB01120138F790
:100C2300BB0112013895BC01120138E2BC0112016B
:100C33003808BD01120138F6BE01120138FBBE01AE
:100C4300120138DCC00112013830C101120138929F
:100C5300C101120138BAC1011201385EC201120189
:100C63003820C30112013851C30112013854C301A2
:100C73001201389CC301120138DEC3011201384549
:100C8300C401120138F2CA0312013805CB03120161
:100C9300380ECB0312013827CB0312013872CB0372
:100CA3001201384DCC03120138DCCC031201382772
:100CB300CD03120138794100120138854100120138
:100CC30038BE4100120138034200120138BA420013
:100CD3001201384043001201386C4300120138A559
:100CE3004300120138B9450012013895470012013B
:100CF30038804900120138B74A00120138174D00F5
:100D0300120138034E00120138494F0012013856C0
:100D13005000120138735000120138AB5000120119
:100D230038C550001201382D5100120138C7550043
:100D3300120138685600120138B95600120138E022
:100D430056001201382E57001201384C5700120179
:100D530038A05700120138A8580012013830590042
:100D63001201385EA40312013868A4031201383358
:100D7300A5031201384EA50312013874A50312010D
:100D830038B8A503120138F0A50312013819A603D8
:100D930012013892A603120138A7A603120138BC28
:100DA300A603120138F3A60312013807A7031201A1
:100DB3003838A70312013872A7031201389EA7031C
:100DC30012013815A8031201385EA80312013888EE
:100DD300A803120138ADA8031201382AAD0312018A
:100DE30038F4AD03120138D7AE031201384DAF0307
:100DF3001201388FAF03120138BCB0031201381B44
:100E0300A70212013844A7021201385DA70212019A
:100E130038A2A80212013880A9021201389FA90240
:100E23001201382CAA021201386FAA02120138BC2F
:100E3300AB021201385BAC02120138DAAE021201C6
:100E43003871AF0212013845B00212013827B102DE
:100E530012013893B20212013826B302120138CBC1
:100E6300D90312013834DA0312013888DA03120184
:100E730038AFDA03120138D5A80312013842A903A7
:100E83001201388DA90312013882AA031201387E98
:100E9300AB0312013868AC03120138C8DB0212013C
:100EA300380ADC02120138E4DC02120138BDDD022B
:100EB300120138B8DE0212013897DF02120138033B
:100EC300E002120138CAE00212013835E1021201D0
:100ED300389CE102120138C7E10212013838E202FC
:100EE300120138CBE20212013834E302120138490D
:100EF300E30212013891E302120138AAE30212015C
:100F0300380FE40212013812E40212013811C0034F
:100F130012013839C00312013877C0031201383582
:100F2300C103120138A0C103120138BCC10312016D
:100F330038E4C10312013814C20312013823C20377
:100F43001201389DC203120138C3C2031201380FC4
:100F5300C501120138ACC60112013892C801120151
:100F6300385CC901120138A3C901120138EAC90169
:100F7300120138FCC9011201383CCA011201386B55
:100F8300CA01120138B7CA01120138EFCA011201AE
:100F9300381DCB011201386ECB01120138FDCB0194
:100FA300120138EBCE01120138C5D001120138010C
:100FB300D1011201385BD201120138A2D201120110
:100FC3003817D30112013865D301120138C5D20293
:100FD300120138E2D2021201387CD8021201387EA3
:100FE300D902120138F8DA02120138A6DB02120123
:100FF30038975900120138E059001201380D5A0090
:10100300120138405A001201384D5A001201385962
:101013005A001201386B5A00120138405B0012016A
:10102300389E5B00120138D35B001201386F5D00FC
:10103300120138BC5D00120138E05D001201384D29
:101043005E00120138F25E00120138AE5F00120139
:10105300382D6000120138F1600012013800610080
:1010630012013881610012013820620012013852E6
:101073006200120138ED62001201384B6300120165
:1010830038856300120138066400120138CF64000A
:10109300120138786500120138FF650012013857D4
:1010A3006600120138B86600120138E166001201C9
:1010B30038976700120138E168001201382469008B
:1010C300120138416900120138606900120138AB1E
:1010D3006900120138D06900120138F96900120160
:1010E30038686A00120138AA6A00120138AE6B0030
:1010F300120138486C00120138146D001201382DAA
:101103006D0012013824C90212013877C902120195
:101113003883C90212013858CA021201387FCA0241
:10112300120138BACA0212013826CB021201385A08
:10113300CB0212013893CB02120138ABCB0212015E
:101143003804CC021201381DCC0212013866CC02DD
:1011530012013879CC0212013893CC02120138A95A
:10116300CC02120138C5CD02120138D6CE021201CB
:101173003823D00212013808D102120138EF7F0060
:101183001201388F8D02120138C38D021201382EDD
:10119300910212013878920212013842930212012D
:1011A30038CC9402120138A79502120138E1950256
:1011B3001201380496021201384696021201384F82
:1011C3009602120138999602120138A3960212016F
:1011D300384F970212013823980212013877980288
:1011E300120138D998021201382C99021201385B86
:1011F30099021201389A990212013862A30112016D
:1012030038BCAB01120138C2AB011201387DB10108
:1012130012013863B5011201387BBC03120138F1A6
:10122300BC0312013807BD0312013844BD03120188
:10123300387CBD03120138F9BD0312013834BE03F3
:10124300120138AFBE03120138EBBE03120138F4AA
:10125300BE0312013800BF031201381ABF03120183
:10126300383FBF0312013855BF031201387EBF0355
:10127300120138E1BF031201383996031201384CC9
:1012830096031201386696031201388F96031201F2
:1012930038D296031201381197031201384F97037E
:1012A300120138B49703120138C99703120138D4D5
:1012B3009703120138E19703120138F897031201DB
:1012C300380698031201381198031201381D980348
:1012D3001201383098031201383B98031201385E2B
:1012E3009803120138079903120138179903120161
:1012F300383199031201384E99031201386A990360
:101303001201388F9903120138999903120138ADEC
:101313009903120138CC99031201382D9A03120153
:1013230038339A03120138399A031201383F9A036A
:101333001201384B9A031201387E9A0312013805C1
:1013430080021201388780021201383081021201B3
:10135300387882021201388684021201386C8502C1
:10136300120138A18502120138C385021201386CBB
:1013730086021201383C8802120138658802120184
:1013830038DD88021201380F89021201381C8902E4
:101393001201386789021201388B8902120138DC85
:1013A3008B02120138E68C02120138428D021201BF
:1013B30038B6E201120138C7E301120138ABE40188
:1013C300120138B5E401120138D7E401120138E300
:1013D300E40112013887E601120138B4E601120173
:1013E30038CAE7011201381FE8011201386EE9011A
:1013F30012013843EA011201389FEA011201380A47
:10140300EB011201383FEB0112013882EB011201AB
:10141300384CEE0112013864EE01120138F5EE0189
:1014230012013803EF0112013850EF011201385E47
:10143300EF01120138CAEF0112013845F001120120
:10144300389CF0011201389DB302120138BFB30278
:10145300120138D0B5021201388FB802120138B91F
:10146300B90212013877BA0212013863BB021201C2
:101473003814D10312013839D103120138AFD10323
:10148300120138D7EB02120138E0EB02120138E9FE
:10149300EB02120138C1EC0212013872EE021201A2
:1014A30038A2EE02120138CDEE02120138FDEE022F
:1014B30012013828EF021201385CEF02120138885A
:1014C300EF02120138CBEF02120138F6EF021201DC
:1014D300383DF00212013892F002120138D4F002C2
:1014E3001201382EF10212013859F102120138A803
:1014F300F102120138D8F10212013803F20212018B
:101503003831F20212013854F202120138BEDE03FE
:10151300120138EADE0312013817DF031201382102
:10152300DF0312013831DF03120138C37F001201D8
:10153300383BDF03E066701008A3E066700A08A377
:10154300E066700408A3E06622C3E7960809E796FD
:101553000809E7960809E79622C3E09608A3E096F0
:1015630008A3E09608A3E09622C008C3E096F50816
:1015730008A3E096420808A3E096420808A3E09671
:1015830045087001D3D00822080808EAC0E0EBC080
:10159300E086F0E7A4FA180986F0E7A42AFA180906
:1015A30086F0E7A42AFA180986F0E7A42AFA19862E
:1015B300F0E7A4FBE5F02AFA190886F0E7A42BFB71
:1015C300E5F03AFA190886F0E7A42BFBE5F03AFABE
:1015D30018180986F0E7A4C5F02BFBE43AFA1908BA
:1015E300E7C5F0C6A426F6E5F03BFBE43AFA188615
:1015F300F0E7A4F6E5F00826F6E43B08F6E43A083B
:10160300F6D0E0FBD0E0FA22E4CFC0E0E4CEC0E0C5
:10161300E4CDC0E0E4CCC0E075F020C3E633F608C7
:10162300E633F608E633F608E633F6181818EC3313
:10163300FCED33FDEE33FEEF33FFC3EC9709ED977B
:1016430009EE9709EF97191919400FFFEC97FC0959
:10165300ED97FD09EE97FE191906D5F0BEECF709D3
:10166300EDF709EEF709EFF7191919D0E0FCD0E00F
:10167300FDD0E0FED0E0FF226016080808C6C313C1
:10168300C618C613C618C613C618C613C6D5E0EACD
:10169300227009080808226016181818C6C333C632
:1016A30008C633C608C633C608C633C6D5E0EA2221
:1016B300E627F60809E637F60809E637F60809E6E5
:1016C30037F622E026F608A3E036F608A3E036F65E
:1016D30008A3E036F622E026F008A3E036F008A3DC
:1016E300E036F008A3E036F022C3E697F60809E6F1
:1016F30097F60809E697F60809E697F622C3E096F7
:10170300F008A3E096F008A3E096F008A3E096F0B3
:1017130022E056F608A3E056F608A3E056F608A31F
:10172300E056F622E056F008A3E056F008A3E05690
:10173300F008A3E056F022E0F608A3E0F608A3E0E1
:10174300F608A3E0F622E6F008A3E6F008A3E6F025
:1017530008A3E6F022E0FAA3E0FBA3E0FCA3E0FD8C
:1017630022EAF0A3EBF0A3ECF0A3EDF022CAC0E071
:10177300E6F0A308DAFAD0E0FA22CAC0E0E0A3C593
:1017830082CCC582C583CDC583F0A3C582CCC58277
:10179300C583CDC583DAE6D0E0CA22C3E498F8E472
:1017A30099F91217DF8026C3E49AFAE49BFBE92038
:1017B300E7E91217DFE498F8E499F922C3E498F80B
:1017C300E499F91217DFE498F8E499F9C3E49AFA73
:1017D300E49BFB22EB20E7CFE920E7E0B90010BB55
:1017E3000008E88AF084F8AAF022E4FBC8FA22EBA6
:1017F30070227B10C833C8C933C9335007C39AC397
:10180300DBF280069A50012ADBEAC833F4C8C933F5
:10181300F4C9FA2275F008E4C833C8C933C933C917
:101823009AC99B5004C92AC93BD5F0ECFBC833F4D1
:10183300C8E4C9FA22600D08C6A2E713C618C61386
:10184300C6D5E0F322600C08C6C313C618C613C678
:10185300D5E0F422700422600D18C6C333C608C64F
:1018630033C6D5E0F41822251810AF08F518400246
:1018730015198008F51840021519D2AF22C0D025DA
:101883001810AF08F518500205198008F518500212
:101893000519D2AFD0D0222518F58210AF08F5185C
:1018A300400215198008F51840021519D2AF8519A1
:1018B30083222518F582E43519F58322E47325186C
:1018C300C582C0E0E51934FFC583C0E0E518C395C0
:1018D3008224F810AF0885831985821880088583D0
:1018E30019858218D2AFCEF0A3E520F0A37808E6DD
:1018F30008F0A3DEFAEFF0A3E58124FAF8E608F096
:10190300A3E608F0A3E608F0A30808E608F0A3E6B8
:1019130008F0A315811581D0E0FED0E0F8158115FC
:10192300811581E8C0E0EEC0E0222518C582C0E041
:10193300E51934FFC583C0E0E518C3958224F91087
:10194300AF088583198582188008858319858218D5
:10195300D2AFCEF0A3E520F0A37808E608F0A3DE2B
:10196300FAEFF0A3E58124FBF8E608F0A3E608F01C
:10197300A30808E608F0A3E608F0A315811581D0B3
:10198300E0FED0E0F815811581E8C0E0EEC0E0226A
:10199300851983851882E0A3FEE0A3F5207808E08B
:1019A300A3F608DFFAE0A3FFE0A3C0E0E0A3C0E0F2
:1019B300E0A3C0E0E0A3C0E0E0A3C0E010AF08856F
:1019C30082188583198008858218858319D2AFD040
:1019D30083D082020135851983851882E0A3FEE056
:1019E300A3F5207808E0A3F608DFFAE0A3FFE0A35D
:1019F300C0E0E0A3C0E0E0A3C0E0E0A3C0E010AF1C
:101A0300088582188583198008858218858319D2F1
:101A1300AFD083D08222C0D02518C582C0E0E5199B
:101A230034FFC583C0E0E518C3958224F310AF08E3
:101A33008583198582188008858319858218D2AF1A
:101A4300C8F0A3E9F0A3EAF0A3EBF0A37908E70950
:101A5300F0A3D8FAECF0A3EDF0A3EEF0A3EFF0A31C
:101A6300D0E0F0A3D0E0F0A3D0E0F0A3E520F0A312
:101A7300E5F0F0A322851983851882E0C0E0A3E096
:101A8300F9A3E0FAA3E0FBA37808E0F608A3DFFAE2
:101A9300E0FCA3E0FDA3E0FEA3E0FFA3E0C0E0A31E
:101AA300E0C0E0A3E0F5D0A3E0F520A3E0A3F5F0C8
:101AB30010AF08858319858218800885831985826C
:101AC30018D2AFD082D083D0E0F8D0E03274048053
:101AD30006740280027401C0E0F40412189AD0E084
:101AE300121770227404800474028000CCC0E0EDED
:101AF300C0E0E518C39CCCAD1950011D10AF068C96
:101B0300188D1980068C188D19D2AF12177DD0E06D
:101B1300FDD0E0FC22D083D082E9C0E0E493A3C3EC
:101B230086F0C5F095F0F908E493A386F0C5F09527
:101B3300F0700BE493A3C3994005E9048002A3E486
:101B430075F002A42582F582E5F03583F583D0E0B4
:101B5300F9E493A3C0E0E493C0E022D083D082EC05
:101B6300C0E0EDC0E0E493A3FCE493A3FDED4C607F
:101B73000D121BAAEC24FFFCED34FFFD80EFE49370
:101B8300A3FCE493A3FDED4C600D121BE9EC24FFD1
:101B9300FCED34FFFD80EFD0E0FDD0E0FCE493A347
:101BA300C0E0E493C0E022C0E0C3E493960874016C
:101BB300939618400FE493667008087401936618AF
:101BC30070007019A3A3C3E4939608740193961845
:101BD300A3A3400DD0E0D0E0D0E0021B9AA3A3A3BF
:101BE300A3A3A3D0E022C0E0C0F088F0E493667022
:101BF300080874019366187000A8F0A3A3700BD0B3
:101C0300F0D0E0D0E0D0E0021B9AA3A3D0F0D0E064
:101C130022C0E074F2121A19A2AFE433FED2AFE588
:101C230089A2E04006E589A2E150031206CD758939
:101C330000758900C2C5751A00EEF8EEA2E092AFF6
:101C43007F01021A78C0E0C0D0E8C0E0E9C0E0A29A
:101C5300AFE433F8D2AFC2C7751A00E8F9E8A2E0DF
:101C630092AFD0E0F9D0E0F8D0D0D0E03274F512E2
:101C7300192DEAFEEBFFEE2434F8EF3400F988085F
:101C83008909EE2435121DA8F8EE2437121DA8F594
:101C93000AEC850AF0A4FCAAF0850AF0EDA42AFD5B
:101CA300E82CF8E43DF97A257B001217DFEA850872
:101CB30082850983F05407F87401B800028004C3D5
:101CC30033D8FCC0E0E0131313541FF8EE28F8EFE9
:101CD3003400F9E8245DF582E93400F583D0E0F8B7
:101CE300E0586008850882850983801DEE2436123A
:101CF3001DA8F5F0EA84A8F0EE28F8EF3400F9E81F
:101D03002438F582E93400F583E0F97F040219D918
:101D130074F512192DEAFEEBFFEE2434121DA8C050
:101D2300E0EE2435F582EF3400F583D0E0F08E82C7
:101D33008F83A3A3A3A3A3E0FAA3E0FB8E828F83E5
:101D4300A3A3A3A3A3A3A3E0FCA3E0FDECC39AF581
:101D53000AED9BF50BEE2480F508EF3400F50985B9
:101D63000882F583E06401702BEE2481F582EF3461
:101D730000F583121AEB121DB17402121880E96088
:101D8300137C677D08EEFAEFFB1210AB85088285A2
:101D93000983E4F0AC0AAD0BEEFAEFFB121C7012F0
:101DA300256A021D0EF582EF3400F583E022C0821E
:101DB300C083851882851983E0F8A3E0F9C3EA9C00
:101DC300EB9D5012C3EC98ED994019C3EA98EB9937
:101DD300501279018010C3EA98EB9940F5C3EC984F
:101DE300ED9950EE7900D083D08222EAC39CFAEBBE
:101DF3009DFB2200008521878522C622C0E074EF67
:101E0300121A19759B00906182E0A2E64003021E3C
:101E1300C0E591A2E64003021EC07591BF90072C56
:101E2300E064057008121249121255800312124F12
:101E33007521001212C1E990072DF079001212B535
:101E43001210157A017B0090072BE0F912042790FA
:101E53007803E064426003021F099008C9E014F0AC
:101E63006003021F09C2AF121E6D00782AD0E0F68C
:101E730018D0E0F6E59F5407F97005908F6380034F
:101E8300908F5F780812173AE9C4C0E07829E655C5
:101E930008F50808E65509F509740B78081218487F
:101EA300D0E02508F8906270E0A2E740F8E8C33379
:101EB300906272F0906270E0D2E0F08049E0A2E5B7
:101EC3005024E591A2E5501E7591DF90072CE06444
:101ED3000D701390074EE004F064287002E4F07A6A
:101EE30000E0F9121333906181E0A2E35009E5E9C0
:101EF300A2E3500375E9F7A3E0A2E75009E591A235
:101F0300E7500375917F7F04021A78C0E0C0D0C008
:101F130082C083906183E0A2E05009E5BFA2E05054
:101F23000375BFFEE0A2E15009E5BFA2E1500375CE
:101F3300BFFDE0A2E25009E5BFA2E2500375BFFB7B
:101F4300E0A2E35009E5BFA2E3500375BFF7E0A2A7
:101F5300E45009E5BFA2E4500375BFEFE0A2E550EA
:101F630009E5BFA2E5500375BFDFE0A2E65009E52E
:101F7300BFA2E6500375BFBFD083D082D0D0D0E0DC
:101F830032C0E074F2121A19E5A7A2E4500FE5A1DA
:101F9300A2E4500953A7EF75A1EF121FD8E5A7A23A
:101FA300E5500CE5A1A2E5500653A7DF75A1DFE5D7
:101FB300A7A2E15009E5A1A2E1500375A1FDE5A7A0
:101FC300A2E2500CE5A1A2E2500653A7FB75A1FBC8
:101FD3007F01021A7874F812192D75210190072CCC
:101FE300E0640670077A007B00121231A2AFE4337B
:101FF300FED2AF900732E0640170187A207B009024
:10200300072BE0F91204D57A207B0090072BE0F927
:1020130012042D906182E0D2E6F09008C8E06021BE
:1020230085C6228016900731E064017008E5C65426
:10203300F84405F5C653BEFC121DF8740165216012
:10204300E4EEA2E092AF7F010219D900008E238F44
:1020530024858228858327851882851983E0CEA36A
:10206300E0CF852882852783EBC9EAC8EDCBECCA8C
:1020730075F010C3E833C8E933C9EA33CAEB33CB8D
:10208300C3EA9EF526EB9FF525B35004AB25AA269C
:10209300EC33CCED33CDD5F0DAAE23AF242274E9A3
:1020A30012192D74FA12186AEAFEEBFF8C088D09D7
:1020B30090072CE024F7C394055006908FFF02216C
:1020C300C81211AD8A0A8B0BEA450B70030221C5B6
:1020D3001212678A0C8B0D121267EA650C7003EB00
:1020E300650D60ECEEFCEFFD851882851983AA82ED
:1020F300AB8312126D850A82850B83A3A3780C121E
:10210300173A908FA7780C121714851882851983B4
:10211300781412173A908FA77814121714780C7941
:102123001412154C501F780C79141216EC908F7BF7
:10213300780C12156C4047850C10850D11850E1215
:10214300850F138041851410851511851612851787
:10215300137810790C1216EC908F7B781012156C93
:10216300501C75100075110075120075130178105D
:1021730079141216EC7810790C1216B38008908F2C
:10218300FF781012173A74097810121694908FCFB3
:10219300780C12173A7810790C12160B90072CE072
:1021A3006408600AE064066005E06405701C908FB3
:1021B300AB781012156C5012908F7F78101216C6E0
:1021C3008008908F87781012173A850882850983D3
:1021D300781012174974061218807F100219D974E7
:1021E300F712192D12127F9008C6E0640170109047
:1021F3006245E4F0A3F053F4F343FE0C5390F3125F
:10220300121FE5C654804449F5C6E59E547F6449D0
:1022130070F8906185740FF09008C4E0F47002A325
:10222300E0602C7508017509009008C4E078081275
:102233001857E508F4FAA3E0600814600A14600C68
:10224300800DEA52808008EA52908003EA52A07916
:10225300007F020219D974F712192DE9FEEAFF74FF
:10226300016E700C7A807B0090072BE0F912042733
:10227300902578E493F46008E493F9120FF780094A
:1022830053C680E59E547F70FA1212259008C6E06B
:102293006401700312102D9008C4E0F47002A3E0EF
:1022A300602A7508017509009008C4E078081218BF
:1022B30057AA08A3E0600814600A14600C800DEAB2
:1022C30042808008EA42908003EA42A01211AD8A5C
:1022D300088B09A808A909E8496017E5E170FCE83B
:1022E3002414F582E93400F583E0F874FF68600292
:1022F30088E174016F700A7A0190072BE0F91204E8
:10230300A502225474F112192D8A088B098C0A8DA7
:102313000B740F1218B5780C12173A908FA7780820
:10232300121714908FA7780C1217147808790C12CF
:10233300154C50157808790C1216EC908F7B7808A1
:1023430012156C401579018013780C79081216EC7C
:10235300908F7B780C12156C40EB79007F08021983
:10236300D974ED12192D8A088B098C0A8D0B7413FD
:102373001218B5780C12173A908FA7780812171411
:10238300908FA7780C121714780C790812154C400B
:10239300117808790C1216ECAA08AB09AC0AAD0B3C
:1023A30080227510007511007512007513017810E5
:1023B300790C1216EC781079081216B3AA10AB1127
:1023C300AC12AD137F0C0219D9908FA7780812179E
:1023D3003A8A828B8378081217277F040219D974EB
:1023E300F512192D8C828D83780812173A8A828B05
:1023F300837808121700122436C3E098F0A3E099FB
:10240300122428401E908FB7780812173A8A828BBD
:102413008378081216D98E828F83E02420F0A3E0FC
:10242300344EF080A4F08E828F83C3E09420A3E027
:10243300944E22EA2404F8EB3400F9E8FEE9FF8C19
:10244300828D83A3A3A3A3E0F8A3E0F98E828F83F5
:102453002274F512192DE9FE90087EE0FAA3E0FB41
:10246300EEC333F8E433F974E728F582748E39F553
:1024730083E02AF508A3E03BF5097808121AD49003
:102483008F8F12175812205074021218808A088BEB
:10249300098C0A8D0B7410780812167BAA08AB09F5
:1024A3007F040219D974F112192D8A0C8B0D8C0E2D
:1024B3008D0F740F1218B5E0FAA3E0FB7411121814
:1024C300B5E0F508A3E0F50974131218B5E0FEA30F
:1024D300E0FF7808121AD4EA2401F508EB3400F57A
:1024E30009E4F50AF50B780C790812158B908F83A4
:1024F300780812173A780C790812158BAA0CAB0DD1
:10250300AC0EAD0F12205074021218808B09EA45ED
:102513000960047A0180027A00EC2AFCED3400FDA4
:10252300ECF8EDF97A717B021217DF88088909E468
:10253300F50AF50B8E828F837808121749ECF8EDB4
:10254300F97A717B021217DF8A088B097405780800
:102553001218578E828F83A3A3A3A3E508F0A3E5E4
:1025630009F07F080219D9C082C083E9906000F0A6
:10257300D083D08222FFFFFFFFFFFFFFFF74F01223
:1025830018C18A0A8B0B8909ECFEEDFF75080085DB
:102593000A0C850B0D780C121B1800040DBB27BE0B
:1025A30025DF25FE251F26402661269426B526CC49
:1025B30026FA262527462766279027740165097082
:1025C300158E828F83E0C39403500B8E828F83E03A
:1025D300900C11F080037508180227E47402650952
:1025E30070138E828F83E0F8A3E0F9900C12E8F069
:1025F300A3E9F080037508180227E47401650970E4
:10260300158E828F83E0C39402500B8E828F83E0FA
:102613009003EBF080037508180227E47401650941
:1026230070158E828F83E0C39405500B8E828F8347
:10263300E09003ECF080037508180227E474016549
:102643000970158E828F83E0C39402500B8E828FA4
:1026530083E09003EDF080037508180227E47410FB
:1026630065097027750C10750D00780C121AD4EEDD
:10267300FCEFFD7AEE7B031203D374021218808AF7
:102683000C8B0D850C82850D83800375081802273A
:10269300E47401650970158E828F83E0C394025040
:1026A3000B8E828F83E09003FEF08003750818027F
:1026B30027E474016509700B8E828F83E0900C15FB
:1026C300F080037508180227E474046509702290EA
:1026D3008F8F780C12173A8E828F83780C12155CC9
:1026E300500F8E828F831217589004001217648044
:1026F300037508180227E4E5097021120B1DE97020
:1027030013120631E9F50C79501207BDE9F50D12E4
:10271300061F800B9004937401F080037508180260
:1027230027E47401650970158E828F83E0C39402D8
:10273300500B8E828F83E09003FFF080037508189F
:102743000227E47401650970158E828F83E0C394B8
:102753000A500B8E828F83E0900C14F0800375086F
:1027630018807E74016509701F8E828F83E0C39485
:102773000740158E828F83E0C39411500B8E828F96
:1027830083E0900C16F08059750818805474016525
:10279300097020900492E0F50C8E828F83E0900400
:1027A30092F0E50C703B900492E0640170331206E2
:1027B3001F802E7508188029C3E50A9426E50B941B
:1027C30000501B7402650970158E828F83E0FCA391
:1027D300E0FDAA0AAB0B1209BBE9F50880037508F3
:1027E30002A9087F0802199374EC1218C174DA1253
:1027F300186A890D8A128B138C0A8D0B743A12187E
:10280300B5E0F50C908F47C082C083851882851987
:1028130083AC82AD83D083D082740612177D851872
:1028230082851983AC82AD83AA12AB13A90D12055D
:10283300BFE9FEEEC3940A400302298AEEF91206A9
:1028430001E9FF900C11E0640270047401800274CA
:1028530000F5087808121AD8AD0CEFFCEEF9AA0AB5
:10286300AB0B12067374011218807C147D0079007F
:1028730074121218B5AA82AB831203EB8A0E8B0F64
:10288300850E08850F0974121218B5AC82AD837AD0
:102893001075F006EEA42424F91207B7E970437CFF
:1028A3001079FF74121218B5AA82AB8312044BE994
:1028B300703074221218B5AC82AD837A0475F006B9
:1028C300EEA42425F91207B7E9F50874121218B516
:1028D300AC82AD83EFA2E0E433F9AA0AAB0B120A90
:1028E30045E974061218B5AC82AD837A0C74702E68
:1028F300F91207B7E9707E74061218B5AA82AB8382
:102903001205F5750E00E50EC394045068E50EA894
:102913000E7900E875F003A4C8AAF075F000A42AA4
:10292300FA75F003E9A42AF974061218B5E58228AA
:10293300F508E58339F509850882850983E0F8A35D
:10294300E0F9E849602B850882850983A3A3E0F5B4
:10295300107511007810121AD4850882850983E056
:10296300FCA3E0FDAA0AAB0B120D3374021218800C
:10297300E9050E8091EFA2E1500D9003EAE0F9AA78
:102983000AAB0B120D39E97404650C700F900C112E
:10299300E064027007AA0AAB0B12066D7900742675
:1029A3001218807F0C02199374F21218C1890BEA72
:1029B300FEEBFF8C088D09750A0AE50B600C1460A9
:1029C30009146044146064022A4FEEFAEFFB120606
:1029D30013E9F50AE50AC3940A5071E5084509604D
:1029E3006B750C06750D00780C121AD4EEFCEFFD16
:1029F300AA08AB091203D374021218808A0C8B0D38
:102A0300850C82850D838044EEFAEFFB12060DE9F7
:102A1300F50AE50AC3940A5033E5084509602DAA6F
:102A230008AB09A90A120607E98021EEFAEFFB12A7
:102A33000619E9F50AE50AC3940A5010E5084509A1
:102A4300600AAA08AB09A90A120607E9A90A7F06C0
:102A530002199374F21218C18A0C8B0DE9FE7F15CB
:102A630074FF650C700474FF650D702A750800E52A
:102A730008C3940A5014EEFC7A027B00A9081205DD
:102A8300E3E960027F00050880E5EE60637A5B7B23
:102A930006120F43805AAA0CAB0D120F258A0A8B1C
:102AA3000B850A08850B09E508450960417C007D13
:102AB30000E5082405FAE5093400FB850882850949
:102AC30083A3A3A3A3E0F91205BFE9F50AE50AC3AB
:102AD300940A500EEEFC7A027B00A90A1205E3E980
:102AE3007F00EE600BAA08AB0912065B80027F141D
:102AF300EFF97F0602199374EE1218C18A0E8B0F39
:102B03008C0A8D0B74121218B5E0F50CA3E0F50DC9
:102B130075081574FF650E700474FF650F701E7ED3
:102B230000EEC3940A5062AC0CAD0DAA0AAB0BEED7
:102B3300F91205E9E960037508000E80E4AA0EABFB
:102B43000F120F258A108B11AE10AF11EE4F6036A6
:102B53007C007D00EE2405FAEF3400FB8E828F8328
:102B6300A3A3A3A3E0F91205BFE9F509E509C394FB
:102B73000A5016AC0CAD0DAA0AAB0BA9091205E954
:102B8300E97508008003750814A9087F0A021993E0
:102B930074F71218C1EAFEEBFF900404EEF0A3EF02
:102BA300F09003EAE0FC7D007A257B001209BBE983
:102BB300F5089003EAE0F9120CB57F01021993744A
:102BC300EE1218C18A108B11E9FE74121218B5782F
:102BD3000C12173A7F00EE7041850C08850D0985AC
:102BE3000E0A850F0B908F8F780C12173A7808799D
:102BF3000C12160B7810121AD4AA0CAB0DAC0EAD36
:102C03000F120A577402121880E9FFEF6016790158
:102C1300AA10AB11120A51E9800AEEF9AA10AB11FE
:102C2300120A51E9EFF97F0A02199374EE1218C1DF
:102C330074EC12186A8A0A8B0B850A82850B83A3AC
:102C4300A3E024FA700302316724FD7003022FDD31
:102C5300147003022D2114601024FD7003022F85CC
:102C630014700302301D02318AAE0AAF0B900404C4
:102C7300E0F8A3E0F9E8496069900404E0F8A3E010
:102C8300F5838882E0F8A3E0F9E8496055EE240C67
:102C9300F582EF3400F583E0F5087808121AD8EED0
:102CA300240BF582EF3400F583E0F98E828F83A342
:102CB300A3A3A3A3A3A3A3A3E0FCA3E0FDEE240388
:102CC300FAEF3400FB900404E0F8A3E0F583888274
:102CD300E0F8A3E0F58388821218BF74011218800C
:102CE30080398E828F83A3A3A3A3A3A3A3A3A31239
:102CF3001AEB900400121758120A57740212188024
:102D0300E9601879018E828F83A3A3A3A3A3A3A34E
:102D1300A3A3E0FAA3E0FB120A51E902318AAE0A47
:102D2300AF0B8E828F83A3E06003022F338E828FDB
:102D330083A3A3A3A3A3E0A2E04003022F337C0E4B
:102D43007D007900851882851983AA82AB831203DB
:102D5300EB8A088B09AA08AB098E828F83A3A3A3EE
:102D6300A3A3A3A3A3E0F8A3E0F9E849603D750892
:102D7300067509007808121AD48E828F83A3A3A341
:102D8300A3A3A3A3A3E02410FCA3E03400FD7402D7
:102D93001218B5AA82AB831203D374021218808A65
:102DA300088B0985088285098380548E828F83A3CB
:102DB300A3A3E0FAA3E0FB120F258A0C8B0D850C6D
:102DC30008850D09E50845096032750C06750D0087
:102DD300780C121AD4E5082405FCE5093400FD74C7
:102DE300021218B5AA82AB831203D374021218809D
:102DF3008A0C8B0D850C82850D83800302318A8EAC
:102E0300828F83A3A3A3A3A3E0A2E25004D2F08002
:102E130002C2F0A2F0E433F87900740C1218B5E0A2
:102E230048F0A3E049F08E828F83A3A3A3A3A3A3B7
:102E3300A3A3A3A3E0F8A3E0F9E84960238E828F5C
:102E430083A3A3A3A3A3A3A3A3A3A3E0F8A3E0C87B
:102E53002410F582E83400F583780C12173A800CBD
:102E6300750CFF750DFF750EFF750FFF8E828F8337
:102E7300A3A3A3A3A3A3A3A3A3A3E0F8A3E0F9E8B5
:102E83004960178E828F83A3A3A3A3A3A3A3A3A3A2
:102E9300A3E0F508A3E0F5098006750800750900AD
:102EA3008E828F83A3A3A3A3A3A3A3A3E0F8A3E08A
:102EB300F9E84960158E828F83A3A3A3A3A3A3A3D9
:102EC300A3E0F510A3E0F51180067510007511005D
:102ED300780C121AD07808121AD47810121AD4EE79
:102EE300240CF582EF3400F583121AEB8E828F8364
:102EF300A3A3A3A3A3A3E0FCA3E0FD740A1218B544
:102F0300AA82AB831205FB740A121880E9F5088EB6
:102F1300828F83A3A3A3E0F8A3E0F9900494E8F0DD
:102F2300A3E9F07A017B009003EAE0F9120427E9B0
:102F3300900404E0F8A3E0F9E8496043900404E056
:102F4300F8A3E0F5838882A3A3E0F8A3E0F9E849B6
:102F5300602D8E828F83A3E0FC79018E828F83A301
:102F6300A3A3E0FAA3E0FB900404E0F8A3E0F58355
:102F73008882A3A3E0F8A3E0F58388821218BF0236
:102F8300318AAE0AAF0B900404E0F8A3E0F9E849F4
:102F93006045900404E0F8A3E0F5838882A3A3E0EE
:102FA300F8A3E0F9E849602F850A82850B83A3E043
:102FB300FC79028E828F83A3A3A3E0FAA3E0FB90A4
:102FC3000404E0F8A3E0F5838882A3A3E0F8A3E078
:102FD300F58388821218BF02318AAE0AAF0B7C00D8
:102FE3007D00EE2404FAEF3400FB8E828F83A3A3CB
:102FF300A3E0F91205BFE9F508E508C3940A5017E1
:10300300EE240AFCEF3400FD7A0475F006E508A40B
:103013002425F91207B1E902318AAE0AAF0B9003F6
:10302300FFE06018900C14E0F98E828F83A3A3A3B2
:10303300E0FAA3E0FB120A51E902318A900C11E095
:10304300701579058E828F83A3A3A3E0FAA3E0FB17
:10305300120A51E902318A8E828F83A3A3A3E0FA75
:10306300A3E0FB120F258A0C8B0D850C08850D0937
:103073008E828F83A3A3A3A3A3A3A3E0A2E050758F
:10308300E5084509606C850882850983A3A3A3A38A
:10309300E060628E828F83A3A3A3A3A3A3A3A3A3AE
:1030A300E0F8A3E0F9E8C4540FF879005401F8E913
:1030B3005400F9E8A2E0403D740E1218B5AC82AD9D
:1030C30083E5082405FAE5093400FB8508828509B0
:1030D30083A3A3A3A3E0F91205BFE9701879038EB4
:1030E300828F83A3A3A3E0FAA3E0FB120A51E902B0
:1030F300318A02318AEE2405FCEF3400FD85088213
:10310300850983A3A3A3A3E0F98E828F83A3A3A33B
:10311300E0FAA3E0FB120667900404E0F8A3E0F9E9
:10312300E8496063900404E0F8A3E0F5838882A390
:10313300A3E0F8A3E0F9E849604D7C0079008E82B2
:103143008F83A3A3A3E0FAA3E0FB900404E0F8A316
:10315300E0F5838882A3A3E0F8A3E0F583888212D5
:1031630018BF8023120B1DE9701D900493E06401C6
:10317300700B120631E9F89004937400F079501241
:1031830007BDE9FE12061F74141218807F0A021984
:103193009374F31218C174F212186A8909EAFEEBE8
:1031A300FF8C0C851882851983AC82AD837A0E75EA
:1031B300F006E509A42420F91207B7E970727C062A
:1031C30079FF851882851983AA82AB8312044BE9A0
:1031D300705E740C1218B5E0F8A3E0F9E8F508E5A1
:1031E3000C6005EE42088004EEF4520885080A7567
:1031F3000B00740C1218B5E0650A7004A3E0650BAC
:10320300602AE508A8087900740C1218B5E508F0DF
:10321300A3E9F0851882851983AC82AD837A0E7594
:10322300F006E509A42420F91207B1E97901800227
:103233007900740E1218807F0502199374F0121826
:10324300C174E612186A890B8A0C8B0DECFEEDFF34
:10325300740C1218B5AC82AD837A0E75F006E50BCB
:10326300A42420F91207B7E960030233A37C06798B
:10327300FF740C1218B5AA82AB8312044BE96003E6
:103283000233A3851882851983AC82AD837A0C74CB
:1032930070250BF91207B7E9600302339F750A0023
:1032A300851882851983AA82AB831205F5E50C453F
:1032B3000D703A7C0C7900851882851983AA82AB3C
:1032C3008312044BE960030233797C0C7D0079009F
:1032D300851882851983AA82AB831203EB8A088B34
:1032E30009850882850983750A0102337985188265
:1032F300851983AC82AD83AA0CAB0D1205EF8A0E40
:103303008B0F850E08850F09E50845097036EE4FCA
:103313006021851882851983AC82AD837A007B0096
:103323001205EF8A0E8B0FA80EA90F88088909E8EA
:103333004970047900806B850882850983E50CF068
:10334300A3E50DF0850882850983A3A3E0F879003E
:10335300EE687002EF69601EEE850882850983A31B
:10336300A3F0EE4F700D8508828509837400F0A3E6
:103373007400F0750A01E50A6022851882851983B5
:10338300AA82AB831205F5851882851983AC82ADB9
:10339300837A0C7470250BF91207B1E97901800265
:1033A3007900741A1218807F0802199374F712189F
:1033B300C1EAFEEBFF7B00EBC39404504EEBF879BC
:1033C30000E875F003A4C8AAF075F000A42AFA7502
:1033D300F003E9A42AF9EC28F582ED39F583E06ED0
:1033E3007003A3E06F7021EBF87900E875F003A494
:1033F300C8AAF075F000A42AFA75F003E9A42AF923
:10340300EC28FAED39FB80070B80AC7A007B007F58
:103413000102199374F71218C17F00EFC39404409B
:10342300030234C6EFF87900E875F003A4C8ACF0E2
:1034330075F000A42CFC75F003E9A42CF9EA28F537
:1034430082EB39F583E0F4FCA3E0F4FDEFF87900B7
:10345300E875F003A4C8AEF075F000A42EFE75F075
:1034630003E9A42EF9EA28F582EB39F583ECF0A3FE
:10347300EDF0EFF87900E875F003A4C8ACF075F04F
:1034830000A42CFC75F003E9A42CF9EA28F582EBDF
:1034930039F583A3A3E0F4C0E0EFF87900E875F011
:1034A30003A4C8ACF075F000A42CFC75F003E9A4E8
:1034B3002CF9EA28F582EB39F583A3A3D0E0F00FCA
:1034C30002341E7F0102199374EA1218C174F412B4
:1034D300186AEAFEEBFF8C108D1174221218B5E006
:1034E300F50EA3E0F50F74241218B5E0F50CA3E074
:1034F300F50D74261218B5E0F50AA3E0F50BEE4FAF
:103503007005790A023641EEFAEFFB120613E9F56C
:1035130008E508C3940A4006120625E9F508E508FC
:10352300C3940A400302363FEEFCEFFD7A0E75F0BA
:1035330006E508A42420F91207B1E9F8E5104511BE
:103543006013AC10AD117A1B75F006E508A42421B5
:10355300F91207B1E9E50E450F6013AC0EAD0F7A12
:103563001B75F006E508A42422F91207B1E9E50C5E
:10357300450D6013AC0CAD0D7A1075F006E508A48B
:103583002423F91207B1E9E50A450B602DAC0AAD16
:103593000B7A1075F006E508A42424F91207B1E9A3
:1035A300F50974281218B5AC82AD837A0475F00658
:1035B300E508A42425F91207B1E97C0C7D0079FF05
:1035C300851882851983AA82AB831203EB8A128B37
:1035D30013851214851315851882851983AC82AD62
:1035E300837A0C74702508F91207B1E9F50975128D
:1035F3000E7513007812121AD4EEFCEFFDE508A83D
:10360300087900E875F00EA4C8AAF075F000A42AA2
:10361300FA75F00EE9A42AF9740628FA740439FB42
:103623001203D374021218808A128B13A812A913DF
:10363300900492E06003120679120661A908740CE3
:103643001218807F0E02199374F71218C174F212C4
:10365300186AE9FE851882851983AC82AD837A0ED8
:1036630075F006A42420F91207B7E9700E740C1242
:1036730018B5E0F8A3E0F9E8F980027900740E12B6
:1036830018807F0102199374F41218C174F212188E
:103693006A8909EAFEEBFFE509C3940A5004EE4F79
:1036A30070047902804B851882851983AC82AD83BF
:1036B3007A0E75F006E509A42420F91207B7E9F597
:1036C30008E508702A750A06750B00780A121AD4E1
:1036D30074021218B5AC82AD83EEFAEFFB1203D37A
:1036E30074021218808A0A8B0B850A82850B83A9C0
:1036F30008740E1218807F0402199374F41218C10F
:10370300EAFEEBFF750800E508C3940A5045750A05
:1037130006750B00780A121AD4EEFCEFFDE508A833
:10372300087900E875F00EA4C8AAF075F000A42A81
:10373300FA75F00EE9A42AF9740C28FA740439FB1B
:103743001203E57402121880E96004A908800605D3
:103753000880B4790A7F0402199374F41218C1EA39
:10376300FEEBFF750800E508C3940A5045750A0689
:10377300750B00780A121AD4EEFCEFFDE508A808D1
:103783007900E875F00EA4C8AAF075F000A42AFA2F
:1037930075F00EE9A42AF9740628FA740439FB12A9
:1037A30003E57402121880E96004A908800605087D
:1037B30080B4790A7F0402199374F71218C174F064
:1037C30012186AEAFEEBFF750800E508C3940A5075
:1037D3004B851882851983AC82AD837A1075F00608
:1037E300E508A42423F91207B7E9702C7C1079FFAC
:1037F300851882851983AA82AB8312044BE970185A
:10380300EEFCEFFD851882851983AA82AB83120A29
:1038130027E97004A9088006050880AE790A7410A8
:103823001218807F0102199374F41218C1750800ED
:10383300E508C3940A400302390DE508A808790096
:10384300E875F00EA4C8AAF075F000A42AFA75F082
:103853000EE9A42AF9740628FC740439FD7A0E755E
:10386300F006E508A42420F91207B7E9700302392A
:10387300087C067D0079FFE508AA087B00EA75F05D
:103883000EA4CAA8F075F000A428F875F00EEBA4F6
:1038930028FB74062AFA74043BFB1203EB8A0A8B97
:1038A3000BAE0AAF0B7C067D0079FFE508AA087B07
:1038B30000EA75F00EA4CAA8F075F000A428F87504
:1038C300F00EEBA428FB740C2AFA74043BFB1203DE
:1038D300EB8A0A8B0BAC0AAD0BE508A8087900E864
:1038E30075F00EA4C8AAF075F000A42AFA75F00EBC
:1038F300E9A42AF9741228F582740439F583740053
:10390300F0A37400F00508023833900492E06003DA
:103913001206791206617F0402199374F71218C113
:103923007E00EEC3940A50327C0679FFEEFA7B00E8
:10393300EA75F00EA4CAA8F075F000A428F875F093
:103943000EEBA428FB74062AFA74043BFB12044B07
:10395300E96004EEF980050E80C8790A7F01021937
:103963009374F71218C17E007F00EFC3940A502F9F
:103973007C0679FFEFFA7B00EA75F00EA4CAA8F083
:1039830075F000A428F875F00EEBA428FB74062A42
:10399300FA74043BFB12044BE970010E0F80CBEE6B
:1039A300F97F0102199374F71218C17E007F00EFAB
:1039B300C3940A500DEE700AEFF9120637E9FE0FB1
:1039C30080EDEEF97F0102199374EE1218C174CBE6
:1039D30012186AE9FE74271218B5AC82AD837A0E09
:1039E30075F006EEA42420F91207B7E96003023B41
:1039F3000D7C0679FF74271218B5AA82AB831204D3
:103A03004BE96003023B0D7C0E7D0079FF742712A6
:103A130018B5AA82AB831203EB8A0A8B0B850A0EB5
:103A2300850B0F7C1B7D0079FF740C1218B5AA82DD
:103A3300AB831203EB8A0A8B0B850A0C850B0D7C77
:103A43000C7D0079FF851882851983AA82AB8312C6
:103A530003EB8A108B1185100A85110B742712183A
:103A6300B5AC82AD837A0E75F006EEA42420F9126C
:103A730007B1E9F508740C1218B5AC82AD837A1B53
:103A830075F006EEA42421F91207B1E94208740C7B
:103A93001218B5AC82AD837A1B75F006EEA424220E
:103AA300F91207B1E94208740C1218B5AC82AD8360
:103AB3007A1075F006EEA42423F91207B1E942083F
:103AC300740C1218B5AC82AD837A1075F006EEA4AF
:103AD3002424F91207B1E94208740C1218B5AC8218
:103AE300AD837A0475F006EEA42425F91207B1E933
:103AF3004208851882851983AC82AD837A0C747071
:103B03002EF91207B1E942088003750800A9087469
:103B1300351218807F0A02199374F71218C1E9FE4F
:103B23009003EAF012061F7F0102199374F2121830
:103B3300C1890A8A088B09E5085400F8E50954800D
:103B4300F9E84960339003EAE0F912040F8A0C8B19
:103B53000DA80CA90DE8FEE9FFE849600FEEFAEFA6
:103B6300FB120649EEFAEFFB1203FDE9E5086400D8
:103B7300FAE5096480FB8021E508A2E05017900470
:103B830094E0FAA3E0FB12067FE5086401FAE50975
:103B93006400FB80047A007B007F0602199374F7AC
:103BA3001218C1EAFEEBFF8E828F83E0245060106F
:103BB30014601624E17019EEFAEFFB1205DD801094
:103BC300EEFAEFFB12064F8007EEFAEFFB120655F3
:103BD3007F0102199374F71218C1EAFEEBFF8E827C
:103BE3008F83A3A3A3A3E0641E701179008E828F39
:103BF30083A3A3E0FAA3E0FB1205C5E97F01021941
:103C03009374F61218C1EAFEEBFF8E828F83A3A38F
:103C1300A3A3E0703A8E088F09850882850983A3E0
:103C2300A3A3A3A3A3A3121AEB850882850983A3E5
:103C3300A3A3A3A3E0FCA3E0FD850882850983A3D6
:103C4300A3E0FAA3E0FB1205CB7402121880E97F0C
:103C53000202199374F71218C1EAFEEBFF9003EA0C
:103C6300E0F98E828F83A3E0FAA3E0FB120D39E91A
:103C73007F01021993C082C08374FF12186A12066F
:103C83002BE9C39402400B8518828519837402F0D3
:103C93008009851882851983740AF085188285192D
:103CA30083AC82AD837A017905120B35E974011275
:103CB3001880D083D08202013574F21218C174E8DF
:103CC30012186AEAFEEBFF890A8C088D097C187DBD
:103CD300007900851882851983AA82AB831203EBCE
:103CE3008A0C8B0DAC0CAD0D851882851983EEF013
:103CF300A3EFF09003ECE0C0E074021218B5D0E03B
:103D0300F09003EDE0C0E074031218B5D0E0F0903A
:103D13000C16E0C0E074171218B5D0E0F074151259
:103D230018B5E054FEF8A3E054FFF9900C15E0A297
:103D3300E0E433FA7B00E84AF8E94BF9741512180A
:103D4300B5E8F0A3E9F0900C15E0A2E15004D2F03D
:103D53008002C2F074151218B5E054FDFAA3E054C2
:103D6300FFFBA2F0E433F87900C333F8E933F9EA4F
:103D730048F8EB49F974151218B5E8F0A3E9F09087
:103D83000C15E0A2E35004D2F08002C2F0741512C5
:103D930018B5E054F7FAA3E054FFFBA2F0E433F5BF
:103DA3000C750D007403780C121857EA450CF8EBE8
:103DB300450DF974151218B5E8F0A3E9F0900C1548
:103DC300E0A2E45004D2F08002C2F074151218B5D8
:103DD300E054EFFAA3E054FFFBA2F0E433F50C75D3
:103DE3000D007404780C121857EA450CF8EB450DD6
:103DF300F974151218B5E8F0A3E9F0900C15E0A2D8
:103E0300E55004D2F08002C2F074151218B5E054E4
:103E1300DFFAA3E054FFFBA2F0E433F50C750D00C9
:103E23007405780C121857EA450CF8EB450DF97434
:103E3300151218B5E8F0A3E9F0900C15E0A2E250D2
:103E430004D2F08002C2F074151218B5E054FBFAE4
:103E5300A3E054FFFBA2F0E433F50C750D007402EC
:103E6300780C121857EA450CF8EB450DF974151246
:103E730018B5E8F0A3E9F09003EDE0602A750C10A3
:103E8300750D00780C121AD47CEE7D03740612189B
:103E9300B5AA82AB831203D374021218808A0C8BE7
:103EA3000D850C82850D839003FEE06012E50A60A8
:103EB3000E74151218B5E04402F0A3E04400F0902C
:103EC30003FEE060067801790080047800790074CD
:103ED300141218B5E048F09003EBE060067804791B
:103EE3000080047800790074141218B5E048F0AC2F
:103EF30008AD09851882851983AA82AB83120A4B00
:103F0300E974181218807F0602199374F71218C106
:103F1300EAFEEBFF7508009003FEE0600678017986
:103F230000800478007900E842089003EBE0600623
:103F330078047900800478007900E84208A908EE43
:103F4300FAEFFB120B05E97F0102199374EE1218C5
:103F5300C174E512186A8A0C8B0DE9FF8C088D0970
:103F6300742D1218B5E0F50A74086509700A75F026
:103F730006EFA42422FE800875F006EFA42421FE98
:103F83007C1B7D007900851882851983AA82AB8307
:103F93001203EB8A108B1185100E85110F85188281
:103FA300851983AC82AD837A1BEEF91207B7E970EA
:103FB3003C741A1218B5E0C394074031741A1218EE
:103FC300B5E0C394115026E50AF50B780B121AD805
:103FD30074011218B5AC82AD83E508A2E0E433F9AD
:103FE300AA0CAB0D120A5D7401121880E9741B123E
:103FF30018807F0A02199374F71218C1120DA5E9EC
:104003007E00EEC3940A50557C0679FFEEFA7B00DE
:10401300EA75F00EA4CAA8F075F000A428F875F0AC
:104023000EEBA428FB74062AFA74043BFB12044B20
:10403300E97027EEF87900E875F00EA4C8AAF075C8
:10404300F000A42AFA75F00EE9A42AF9740628FAF6
:10405300740439FB7900120DABE90E80A57F0102D0
:10406300199374F41218C174FB12186A8A088B0925
:1040730074031218B585820A85830B780A121AD441
:10408300750A02750B00780A121AD4750A1B750B90
:1040930090780A121AD47CFF7DFF7A017B00120C00
:1040A3000774061218808A0A8B0BAE0AAF0BEE4F09
:1040B300700302416FE4F50AF50B780A121AD474FF
:1040C300041218B585820A85830B780A121AD474F0
:1040D300041218B585820A85830B780A121AD474E0
:1040E300091218B5121AEB7902EEFCEFFDAA08AB20
:1040F30009120D277408121880E970438518828508
:104103001983E0FA7B0074011218B5E0F87900E432
:10411300C8F9EA28F50AEB39F50BE50A450B601FE8
:10412300780A121AD48E828F83A3A3A3A3E0FCA3DD
:10413300E0FDAA08AB091205CB7402121880E9E46A
:10414300F50AF50B780A121AD474051218B5121A67
:10415300EB7CFF7DFFEEFAEFFB120C1374041218D5
:10416300808A0A8B0BAE0AAF0B0240B1740512189A
:10417300807F04021993C082C083E9900D02F0028C
:10418300439874F71218C1E990064AF07C827D06C1
:104193007AFF7BFF120D3F90064B74FFF0A3F0A351
:1041A300E4F0A3F07905120CCD90064AE0F9120B66
:1041B300EF7A577B0D120F130250A674F41218C135
:1041C3008A088B09EB5480603090064AE0F91204A8
:1041D3000F8A0A8B0BAE0AAF0BEE4F60138E828FE2
:1041E30083E064B07003120CDFEEFAEFFB1203FD01
:1041F300AA08E5096480FB80047A007B0002436718
:1042030074F21218C174FC12186AEAFEEBFF7412FE
:104213001218B512558DEE4F70030242A6740212A6
:1042230018B5EEF0A3EF1245A2ECF0A3ED1245A2F0
:10423300AA82AB83120BE9E9F50A706AE50845091E
:1042430060648E828F83125573EE4F60567A067BBD
:104253000012048D8A0C8B0DA80CA90DE84970057A
:10426300750A13804188828983E41242B3EEF0A376
:10427300EF12559EE508F0A3E509F09006501243AE
:104283003A9006507005125050801B12503E800326
:10429300EAFCEBFD8C828D8312433A70F38C828DA2
:1042A3008380E3750A02A90A740412188002578DE9
:1042B300F0A3125544A32274F21218C1890AE975B6
:1042C300F017A4FEAFF090064FE4F090064D1243B2
:1042D3003A600A12049390064DE4F0A3F0EEFAEF6D
:1042E300FB12048D8A088B09EA4509602FEEFCEF67
:1042F300FD79001203EB90064DE508F0A3E509F004
:104303007B008008124324E4F0A3F00BEBC3950A6F
:1043130040F2E50A90064FF07900800279130257C4
:104323008DEB75F017A4F8A9F090064DE028FAA3D9
:10433300E0398A82F58322124CE2EA4B2274F412AA
:1043430018C17900EAA2E0501B75083575098F780A
:1043530008121AD47C047D007A047B0D120CC774F6
:10436300021218807F04021993C082C08390065002
:1043730012439F601C88828983A3A3E06A7003A30E
:10438300E06B8882898370E8A3A3A3A3124CDE8029
:10439300047A007B00D083D082020135125873E87F
:1043A300492274EE1218C174FC12186AEAFEEBFF7C
:1043B300851882851983E4F0A3F0EE2402125030AD
:1043C300EE240512554BEE2404F50EEF124957E087
:1043D30024FE603924FC604624FE605224FE605EA5
:1043E30024FE70030244B824FE700302451C24FE1D
:1043F300700302452B24FE700302453A24FC70032C
:1044030002454924FE70030245580245959006690A
:104413007417F0A3E41245AA12087702459585188C
:1044230082851983AC82AD83120CE502456585183C
:1044330082851983AC82AD83120CEB024565850C32
:1044430008850D0974021218B5AC82AD8385088204
:10445300850983124CDE120C0D8A0C8B0DAC0CAD4E
:104463000DEC4D603BE4F50CF50D780C121AD47588
:104473000C69750D06780C121AD4750C6A750D0645
:10448300780C121AD474081218B5121AEB12589732
:10449300121880E9F50C700B124CD412088F800FA0
:1044A300750C018508828509831245981250508541
:1044B3000C0802456874021218B5AC82AD83850CF2
:1044C30082850D83124AA9603C850C82850D83A3E6
:1044D300A3121AEB7510697511067810121AD475A8
:1044E300106A7511067810121AD474081218B512CE
:1044F3001AEB125897121880E9F509700B124CD475
:10450300120895800F750901850C82850D8312456C
:1045130098125050850908804C851882851983AC00
:1045230082AD83120CF1803A851882851983AC829F
:10453300AD83120CF7802B851882851983AC82AD6D
:1045430083120CFD801C851882851983AC82AD8390
:10455300120D03800D851882851983AC82AD8312F9
:104563000D09E9F508E50860298E828F83A3E064CD
:1045730014601F850E82850F83E09006691245A2A1
:1045830012586F90066A125050E508A31245AA12FA
:104593000871024F3F12587385188285198322F0E0
:1045A30085188285198322F07C697D06850A8285B8
:1045B3000B83124CE22274EE1218C174FC12186AB7
:1045C3008A0A8B0B8C0E8D0FEA2405F508EB340059
:1045D300F5097C157D0079007A697B061203EBE50A
:1045E300082402F50CE50912554E851882851983B6
:1045F3008582108583117810121AD4850882850963
:1046030083A3A3A3A3124AA0121AD4E5082405F591
:1046130010E5093400F5117810121AD4850C82853F
:104623000D83124DF5120C0774061218808A108B35
:1046330011AE10AF11E50A2402F50AE50B1250334F
:10464300EE4F7003024777801774021218B5124CAD
:10465300DE88828983EAF0A3EBF0900669E004F038
:10466300900669E0C394054003024777E4F510F52B
:10467300117810121AD47510527511067810121A87
:10468300D47510537511067810121AD474061218C3
:10469300B5121AEB7910EEFCEFFD1258991218803F
:1046A300E9705E850882850983A3A3A3A3A3A3A3BB
:1046B300E0F8900652E0687048124AA0121AD47CBF
:1046C300537D06E5082408FAE5093400FB1203E5E7
:1046D3007402121880E960298E828F83A3A3A3A397
:1046E300124CDE900669E0F5107402781012185728
:1046F300746A2510F58274063511F583EAF0A3EB8D
:10470300F074021218B58582108583117810121A7D
:10471300D474021218B5121AEB850C82850D83121C
:104723004D041218808A108B11AE10AF11900669D8
:10473300E0F510751100740278101218577469258A
:1047430010F874063511F988828983A312433A70ED
:1047530003024643E82403080808E93400F9EE4F4E
:10476300600302464C8882898374FFF0A3F09006AD
:1047730069E004F0900669E0600A124CD4120883E1
:104783007900800B850882850983125047790A02D4
:104793004F3F74EA1218C174FE12186A8C128D13FB
:1047A300EA2405F50CEB125881125577750800754C
:1047B3000900EA2402F510EB3400F511851882850F
:1047C300198385820A85830B780A121AD4850C8291
:1047D300850D83A3A3A3A312496D121AD4E50C2458
:1047E30005F50AE50D125033780A121AD4850C82A6
:1047F300850D83124971120C0774061218808A0AF8
:104803008B0BEA450B7003024912EA2404F50EEB05
:104813001249571255778A828B83A3A3A3E0F985A4
:104823001082851183124CE86003024912E4F514E7
:10483300F5157814121AD4751452751506781412D6
:104843001AD47514537515067814121AD4740612F3
:1048530018B5121AEB7913AC0AAD0B8510828511CA
:104863008312589F121880E9F509600302491290D8
:104873000652E0F8E5087009E0240290066AF08029
:104883001490066AE0FCE82402FAE43400FBEA6CC4
:104893007001EB707E850882AA82124A97941412E3
:1048A3004A8F506B850E82850F83E0C0E0746B2ABC
:1048B30012494ED0E0F00508850E82850F83A3E0F0
:1048C300C0E085080A746B250A12494ED0E0F00552
:1048D3000890065212496D121AD47C537D0685083E
:1048E3000A746B250A124961121880900652E0255A
:1048F30008F50874FF6E700374FF6F6012EE2401F5
:104903000EEF3400FFE508C3941450030247BFE5DC
:10491300086013124CF2851082851183124CDE124B
:10492300088979008014E509700375090A851282E4
:10493300851383EEF0A3EFF0A90974021218807FA8
:104943000E02199385080C746B250CF582740634DA
:1049530000F583223400F50F850E82F58322FA7465
:10496300063400FB1203D37402221255AD22A3A313
:104973001249772212503EFDEEFAEFFB2274EE123B
:1049830018C174FE12186A8C0E8D0FEA2405F50CFB
:10499300EB12554E750B00900669E4F0F50AEA2414
:1049A30002F508EB3400F5098044900669E0FA90BB
:1049B3000652E0F8124A979417124A8F400D900658
:1049C30069E0F87416C398900652F0124AA0121ABE
:1049D300D47C537D06746A2AFA7406124964121849
:1049E30080900652E0F8900669E028F0050AE50C8D
:1049F3002416F582E50D124952E0F8E50AC39850F2
:104A030074900669E0C39416506BE50AC333F8E467
:104A130033F9E50C28FEE50D39FF851882851983E6
:104A2300AC82AD838E828F83124AA97008750B0105
:104A33001250438050E4F510F5117810121AD47512
:104A430010527511067810121AD475105375110689
:104A53007810121AD474061218B5121AEB79168547
:104A6300088285098312589F121880E9F50B700399
:104A73000249AD80BB7C697D068508828509831266
:104A83004CDE12089BA90B7402024F41E99400C348
:104A930065D03322EA28F8E43400F9E822E0F5107F
:104AA300751100781022124F368A108B11AC10AD9D
:104AB30011EC4D2274EA1218C174FC12186A8A0CA4
:104AC3008B0D8C128D13EA2405F50AEB1250337506
:104AD3000800750900E50A2402F510E50B3400F51A
:104AE3001174021218B585820E85830F780E121A7F
:104AF300D4850A82850B83A3A3A3A3125553121A49
:104B0300D4E50A2405F50EE50B3400F50F780E12F3
:104B13001AD4851082851183125039124CD8120C85
:104B23000774061218808A0E8B0FAE0EAF0FE50CBA
:104B33002402F50EE50D3400F50F80388882898351
:104B430074FFF0050812494774FFF00508900652F8
:104B5300E0F50C750D00780C121AD47C537D068594
:104B6300080C746B250C124961121880900652E0F0
:104B73002508F508EE4F60278E828F83A3A3A3E059
:104B8300F9850E82850F83124CE8EE240412554BEF
:104B9300E96027850C82850D83124CCA125050E5BB
:104BA300087003024CB0124CF2850E82850F8312FB
:104BB3004CDE1208A17900024CC5E4F514F5157812
:104BC30014121AD47514527515067814121AD47562
:104BD30014537515067814121AD474081218B512E2
:104BE3001AEB7911EEFCEFFD850E82850F831258C7
:104BF3009F121880E9F509709A850882AA82EA90C3
:104C030006527009E0240490066AF08025E0F890CB
:104C1300066AE0F514E82404FCE43400FDEC6514B2
:104C23007001ED7081124A979412124A8F40030269
:104C33004BA9850C82850D83E0C0E0746B2A124971
:104C43004ED0E0F00508850C82850D83A3E0C0E01B
:104C5300124947D0E0124D0D85820C85830D780CE7
:104C6300121AD474041218B5121AEB851082851126
:104C730083124D041218808A0C8B0DAE0CAF0D8578
:104C8300080C746B250CF874063400F9EE4F7003AE
:104C9300024B3F851882851983E088828983124DF0
:104CA3000DA3E0C0E0124947D0E0024B4DE5097087
:104CB3000375090A850A82850B83124CCA12505068
:104CC300A909740402493F1258738512828513831C
:104CD300227C697D06850A82850B83124CE222E0E1
:104CE300FAA3E0FB22124CE2120BF5E9F50922903C
:104CF300066AE0F5F0E50884900669F07C697D06B4
:104D030022124977120C13740422F00508851882C5
:104D13008519832274EC1218C174FE12186A8A086A
:104D23008B098C0E8D0FEA2405FEEB3400FF124F26
:104D330020EE241812554BEA450B7003024DC312A3
:104D43004F095029124DE88A108B11EA4511606B07
:104D53007912AC0AAD0B850882850983124CDE8576
:104D630010828511831218BFE9F50A7058E4F50A19
:104D7300F50B780A121AD48E828F83A3A3E0F50A67
:104D8300780A121AD4EE2403125030780A121AD475
:104D93008E828F83124DF5120D2D7406121880E941
:104DA300F50A7021850C82850D83E0701F850882CA
:104DB300850983124CDE1208A78011750A0E80093B
:104DC300750A018004E50A6003125043850C82854D
:104DD3000D83E0600479008002A90A74021218802E
:104DE3007F0C021993851882851983124CE2120DE8
:104DF3001B2212503EFD850882850983124CE22254
:104E030074EE1218C174FE12186A8A088B098C0C8E
:104E13008D0DEA2405FEEB3400FF750E00124F20C2
:104E2300EA450B7003024EE7124F09502C124DE86E
:104E33008A0E8B0FEA450F604A7912AC0AAD0B85D7
:104E43000882850983124CDE850E82850F83121832
:104E5300BFE9F50E6003024EEA85088285098312D5
:104E63005125AA0AFB124EFB70147AFF7BFF124EE8
:104E7300FB606C88828983E50AF0A3E50BF0750A71
:104E8300008007750E0E805F050A90064FE0FAE575
:104E93000AC39A504AE50A75F017A4FAABF0888260
:104EA3008983A3A3E02AFAA3E03BFB8A828B8312C4
:104EB3005039EC4D70D2750A17750B00780A121A27
:104EC300D4EEFCEFFD1203D37402121880EEFCEF54
:104ED300FD850882850983124CDE1208AD801475A6
:104EE3000E098003750E0112586B850C82850D83A4
:104EF300125050A90E024A8A120D0F8A108B11A864
:104F030010A911E84922E5082402F508E50934004F
:104F1300F5098A828B83A3A3A3E0A2E522851882E5
:104F2300851983AC82AD838E828F83124F368A0AB2
:104F33008B0B22E0FAA3E0FB120C0D22740412186F
:104F4300807F0A02199374EC1218C18C108D11EA38
:104F53002405F50CEB12554E750F00EA2402F50AF1
:104F6300EB125033850A82F583124CDE12592570F9
:104F730003025025750E008071850C82850D83E038
:104F83006401704F8E828F83A3A3121AEB8E828FDC
:104F930083A3A3A3A3E0F5127513007812121AD406
:104FA300EE2405F512EF3400F5137812121AD41219
:104FB3004CD8120D2D7406121880E9F50F60148574
:104FC3000C82850D83E4F012586B85108285118362
:104FD3001250507C177D007900EEFAEFFB1203EBC1
:104FE3008E828F83E4F0A3F0050E90064FE0F8E580
:104FF3000EC398501EE50E75F017A4F8A9F08508A6
:1050030082850983A3A312588B125039EC4D600398
:10501300024F7C85088285098374FFF0A3F0E50FB6
:105023007006124CD81208B3A90F024DE3F50AEF2C
:105033003400F50B22A312503EFD22E0FCA3E02234
:105043008E828F83125873850E82850F83E8F0A3B7
:10505300E9F022C082C08390064BE06A7003A3E0AC
:105063006B70067A4B7B0680047A007B00024398C0
:1050730074F71218C17F00EF75F003A4F8A9F0ECE0
:1050830028F8ED39F988828983E06A7003A3E06B1D
:105093007006E8FAE9FB800B0FEFC3940240D87A5D
:1050A300007B007F0102199374F61218C112565C3B
:1050B30070067A007B008007A3A3A3A3124CDE0231
:1050C300571D74F21218C1E9FE740E1218B512516D
:1050D3002574101218B512558D8C828D83E06402ED
:1050E300703BA312586F88828983E0F50CA3E0F923
:1050F300A80C74026870037429697021750C027519
:105103000D00780C121AD47808121AD4780A121ADD
:10511300D4EEF9120D51740612188080027901023F
:10512300578DE0F50AA3E0F50B2274E81218C17459
:10513300FB12186AE9851882851983F08A168B1782
:105143008C0E8D0F741F1218B512558D7421121801
:10515300B512512574231218B51255777510008CAA
:10516300828D83A3A3A3E0A2E4502A741D1218B571
:10517300124DEE8A828B83E5824583700302523996
:10518300790AAC0EAD0FAA16AB171218BFE9F510CA
:10519300600302523C850E82850F83E06402600344
:1051A3000254F2A312586F850882850983A385826E
:1051B30012858313E50E2406F50CE50F12554E8870
:1051C300828983E0FAA3E0F9EA2400F514E439F5CF
:1051D300157814121B5E01000028012801520700F4
:1051E3000228D852032848520029025401292A547C
:1051F3000229D1530329025404299354F254EE4F44
:10520300703E850C82850D83125568FAE9FB8A820C
:105213008B83E0850A82850B831255A4121AD48AE4
:10522300828B83A312503EFDAA08AB091203D374E9
:1052330002121880800375100EA9107405025879A4
:1052430075100B80F4EE4F70F7850A82850B83741B
:1052530001F012557D850882850983F07C007D006D
:10526300850E82850F83A3A3A3A3E02401FAA3E001
:105273003400FB120C0DEA4B60418A828B83E024DD
:1052830002F8850A82850B83E028F0EA2404F8EB10
:105293003400F988828983E085128285138312554D
:1052A300B61255A4121AD48A828B83125038E50899
:1052B3002403FAE5093400FB02522F850A82850B89
:1052C30083E02404F07C047D007900AA12AB13125E
:1052D30003EB02523CEE4F600302524312557DFE34
:1052E300A3E0FF850A82850B837404F0EE850882B0
:1052F300850983F0EF851282851383F074031218F6
:10530300B5AC82AD83EEFAEFFB12564A700302533B
:10531300AE8A828B83A3A312557374011218B585C9
:10532300820E85830F780E121AD474051218B512E3
:105333001AEB7CFF7DFF120C1374041218808B0F81
:10534300EA450F7033850C82850D83125553121A6B
:10535300D4850C82850D83A3121AEB7C027D007A1F
:10536300217B901209AF7404121880E9700A74014A
:105373001218B574FFF0A3F08E828F83E06402707D
:1053830034750C02750D00780C121AD48E828F833B
:10539300125038E5082404FAE5091249641218800A
:1053A300850A82850B83E02402800974011218B5F3
:1053B300EEF0A3EFF074011218B5125564F0740106
:1053C3001218B5A312555CA3A3A3F002523CEE4FEF
:1053D3006003025243850C82850D83125039AA164D
:1053E300AB17120D45850A82850B837402F0EA859B
:1053F3000882850983F0851282851383EB80CBEEC7
:105403004F600302524312557DF8A3E0F9850A82E7
:10541300850B837402F0E8850882850983F0E985AA
:10542300128285138380A3850C82850D83124CDE43
:105433001203CDEAFC8C82A882C39EE49F404BE812
:105443006E7001EF70047C00801F851882851983BC
:10545300E0FAEE2AFAEF3400FBC3EA98EB9400502B
:1054630003E08004EECCC39CFCEC850A82850B83AD
:10547300F08C0A750B00780A121AD4850C82850DFC
:1054830083E02EFCA3E03F02522A75100702523C30
:10549300EE4F6003025243850C82850D8312586FD1
:1054A300850A82850B837407F08882898312555C91
:1054B300125544E0851282851383F0E82402FAE949
:1054C3003400FB8A828B8312555C12559512556406
:1054D300A312559E12556DF0E82405F8E93400F93E
:1054E3008882898312556DA31255B6A30253CA74D9
:1054F3001D1218B5125655700302523912586F888F
:105503000C890DE8450D70030252398E108F117806
:1055130010121AD4780A121AD47808121AD47406FC
:105523001218B5E0F9AC0EAD0FAA16AB17850C82B5
:10553300850D831218BF7406121880E9F510025204
:105543003CF088828983A322F50CEF3400F50D2209
:10555300E0F50E750F00780E22E085088285098339
:10556300221255BD22125873E8221255BDA3A3225D
:10557300A3A3A3A3E0FEA3E0FF22850C82850D83F2
:10558300E0F8A3E0F5838882E022E0F508A3E0F5E4
:105593000922A3A3F08A828B83A3221242B5A3A379
:1055A30022F08A828B831255AD22E0F50A750B0037
:1055B300780A221255441255BD22E08508828509D6
:1055C30083A3A32274EE1218C174FE12186A8A0A06
:1055D3008B0BECFAEDFB74141218B5E0F510A3E095
:1055E300F51174161218B5E0FE74181218B5E0F52B
:1055F3000EA3E0F50F851882851983AC82AD831263
:10560300564A603E851882851983125655602FA32A
:10561300A312558DE50845096024780E121AD47833
:1056230010121AD4EEF9AC0CAD0DAA0AAB0B850817
:10563300828509831218BF74041218808006790EBC
:1056430080027901024A8A120C0D8A0C8B0DEA45FD
:105653000D22124CE212565C22120CD98A828B83E1
:10566300E58245832274F61218C174FE12186A7417
:105673000C1218B5125568851882851983F07401C8
:105683001218B5E9F0E4F508F5097808121AD4758B
:1056930008027808121AD474041218B58582088592
:1056A30083097808121AD4120D2D74061218807407
:1056B30002121880806474F71218C1EAFEEBFF89A6
:1056C300087C827D06120D45EA5402600BA908EEA0
:1056D300FAEFFB120C01800279010250A674F61254
:1056E30018C174FF6A700374FF6B701C7B00EB7549
:1056F300F003A4F8A9F0EC28F8ED39F91257220BBE
:10570300EBC39402501480E6120D158A088B09A886
:1057130008A909E84960031257227F0202199388F6
:1057230082898374FF1242B3E4F02274F61218C123
:10573300120D158A828B83E58245836006A3A3E05D
:10574300FA80027A007B0080D174F21218C18A08B1
:105753008B09ECFEEDFF740E1218B5E0F50A125733
:1057630092701CEEFCEFFD7AFF7BFF1257927004E0
:105773007911801688828983E508F0A3E509F0880A
:10578300828983A3A3E50AF079007F0602199312A5
:105793000D158A0C8B0DA80CA90DE8492274EE1285
:1057A30018C1EAFEEBFF8C088D09890C74121218DC
:1057B300B512586F74141218B512503974161218A2
:1057C300B5124CDE750D00EC4D6003025863740294
:1057D300650C600302585E8882898312503EF9EC9F
:1057E3002400F50EE439F50FEAF4F8EBF4F9EC587C
:1057F300F8E50F59F9E849705DE5082406F8E5096D
:105803003400F9880A890B8882F583124973120DD3
:10581300458A108B11E50E65107004E50F65116064
:1058230042780E121AD4850A82850B8312497312A9
:105833000D4B7402121880E9F50D7027780E121AB9
:10584300D4850882850983A3A3124971120D5D745F
:1058530002121880800D750D808008750D0D800370
:10586300750D0BA90D024F448E828F83125873223C
:10587300E0F8A3E0F9221218807F10021993340094
:10588300F50D850C82F58322E028FEA3E039FF8E17
:10589300828F83227916850A82850B83124CE2124A
:1058A3000D2774082274F21218C1EAFEEBFF890B6C
:1058B3007401650B600E7402650B70637901120F3E
:1058C30031E9705BEEFAEFFB1259256047750A0068
:1058D300800B7C177D0079001203EB050A90064FBD
:1058E300E0F8E50AC3985021E50A75F017A4F8A972
:1058F300F0850882850983A3A3E028FAA3E039FB96
:105903008A828B8312439F70C985088285098374B9
:10591300FFF0A3F07C827D06EEFAEFFB120D3F024F
:10592300578D120D0F8A088B09EA45092274F2126A
:1059330018C18A088B09ECFEEDFF740E1218B5121C
:105943005125900D02E0F4603D7A097B001203F7C4
:10595300EA4B60328A828B8374B1F0A3E4125597C9
:10596300A3125595A3E508F0A3E50912598CEEF0AF
:10597300A3EF12598CA3A3E50AF0A3E50BF0900D56
:1059830002E0F912040302578DF08A828B83A3A3EA
:10599300A3A3A322C082C0839061907404F0A37474
:1059A30048F0A3E4F09061807440F09061BC740708
:1059B300F09061877469F09061B67416F079001203
:1059C300101B7902121021902578E493F46006E409
:1059D30093F9120FF77905121315025DD9C082C02E
:1059E30083E9540FF9906185E0696012E5C654803C
:1059F3004449F5C6E59E547F644970F8E9F053C6FF
:105A030080E59E547F70FA025DD974F71218C1E5E0
:105A1300A8FE53A87E121003C2BA539AFEC2897518
:105A23009B00C2C212100975A91175B90512100F96
:105A3300D2BA439A0174805E42A8026366C082C0F0
:105A430083906181E4F0A3025DD675E9007591004E
:105A530075BF00020135C082C083906181E4F0A369
:105A630074C0F0A3E4025DD8C082C08374F8121836
:105A73006A90072E126248E8497003025B2290077E
:105A83002EE0544060237908851882851983AA8201
:105A9300AB83121111851882851983AA82AB8312F5
:105AA3000DC390072EE054BFF0E054806010790CD2
:105AB3007AEA7B0812111190072EE0547FF0E0A2DE
:105AC300E050087900125B2A54FEF0E054026008AB
:105AD3007901125B2A54FDF0E05404600879001246
:105AE3005B3554FBF0E0540860087901125B3554D0
:105AF300F7F0E0541060087902125B3554EFF0E0E0
:105B0300542060087903125B3554DFF0A3E054019D
:105B1300600D12102D120DD590072FE054FEF07476
:105B230008121880025DD912101B120DC990072E9E
:105B3300E022121021120DCF90072EE022C082C066
