:020000040000FA
:104000005577FFFF0100007C42424242FFFFFFFF65
:10401000FFFFFFFFFFFFFFFFFFFFFFFFFFFFFFFFB0
:10402000000102030405060708090A0BFFFFFFFF52
:10403000024497024E42FFFFFFFFFFFFFFFFFFFF1B
:10404000FFFFFFFFFFFFFFFFFFFFFFFFFFFFFFFF80
:10405000FFFFFFFFFFFFFFFFFFFFFF02551CFFFFFA
:10406000FFFFFF0254FEFFFFFFFFFF025540FFFF6F
:10407000FFFFFF0254ACFFFFFFFFFFFFFFFFFFFF4B
:10408000FFFFFF024EB8FFFFFFFFFFFFFFFFFFFF35
:10409000FFFFFFFFFFFFFFFFFFFFFF0255AAFFFF2C
:1040A000FFFFFFFFFFFFFFFFFFFFFFFFFFFFFFFF20
:1040B000FFFFFF024D3301FF0000B400002800287D
:1040C00000283075A000A000A000A0000008000893
:1040D000E001F000100010001000100010001000AF
:1040E00050005000500010001000D00700000000E9
:1040F00000000F00010005003075070010000100EE
:1041000081FF0000FFD457F257DA57FF020202087E
:10411000025000A0000000E803025990010000498D
:1041200090025590010000870B026990010000B1D8
:1041300002025590010000880B026590010000C743
:1041400002025590010000890B025F90010000C936
:10415000020255900100008A0B024F90080000CA2D
:10416000020255900100008B0B0251900100008C5F
:104170000BFF0100FF200259900100004C900255F6
:1041800090010000F00B0253900000000000027745
:10419000900300001703045E045E045E045E045E88
:1041A000045E045E045E045E045E045E045E045EFF
:1041B000DA60F260D460FFFF020202020202020231
:1041C00002010D0000001001025990010000718FE2
:1041D000025590010000330C027390010000770734
:1041E000025590010000340C027190010000458FCF
:1041F000025590010000350C026F90010000378FCE
:10420000025590010000360C026D90010000C58E31
:10421000025590010000370C026B90010000A18E46
:10422000025590010000380C026790010000B38E27
:10423000025590010000390C026390010000D78EF6
:104240000255900100003A0C026190010000298F94
:104250000255900100003B0C0287900100003C0CCD
:1042600001E803053F101C0259900100004690022E
:104270005590010000E10C104E8E020000E409028E
:104280007790030000E609027990010000528F0246
:104290005590010000E10C105E8E020000E509025D
:1042A0007790030000EC090279900100005F8FFF16
:1042B000FFFF00013075030201060000000000004E
:1042C00000000000000000000000000000000000EE
:1042D000000000000000FFFF0600800CE803140946
:1042E00053696D706C65424C4550657269706865C4
:1042F00072616C051250002003020A0002010503DE
:1043000002F0FF53696D706C6520424C452050658A
:10431000726970686572616C9065000096650A4309
:1043200068617261637465726973746963203100D6
:1043300002436861726163746572697374696320B2
:1043400032000843686172616374657269737469ED
:10435000632033001043686172616374657269732E
:10436000746963203400024368617261637465722A
:10437000697374696320350002599001000043900D
:10438000025590010000990D027D90030000100B72
:104390000279900100009A0D025590010000AB0DCA
:1043A000027F90010000240B027990010000AC0D07
:1043B000025590010000BD0D028190020000250B06
:1043C000027990010000BE0D025590010000CF0D52
:1043D000028390000000260B027790030000270B59
:1043E000027990010000D00D025590010000E10D0E
:1043F0000285900400002D0B027990010000E20D6F
:10440000E5C754F84404F5C779012200000080FB99
:10441000124400B90003024481E479217808B8000D
:10442000028004F709D8FCE479297802B8000280F8
:1044300004F709D8FCE490028078B379098002F08F
:10444000A3D8FCD9FA781C9040B67A01BA00028051
:1044500007E493A3F608DAF9900B32AA82AB8390B3
:1044600040B7784A79048015E493A3AC82AD838A7F
:10447000828B83F0A3AA82AB838C828D83D8E9D907
:10448000E77582AD7583D074031244A975820B75EC
:10449000834474001244A975D00075813F751A8059
:1044A000751B02759F00024410C09FF59FE473D0F6
:1044B0009F22D083D082C09FE493C0E0740193C058
:1044C000E0740293F59F22E066701008A3E0667026
:1044D0000A08A3E066700408A3E06622C3E7960812
:1044E00009E7960809E7960809E79622C3E09608C7
:1044F000A3E09608A3E09608A3E09622C00AC3E0D2
:1045000096F50A08A3E096420A08A3E096420A0834
:10451000A3E096450A7001D3D00A22080808EAC031
:10452000E0EBC0E086F0E7A4FA180986F0E7A42AD9
:10453000FA180986F0E7A42AFA180986F0E7A42AEF
:10454000FA1986F0E7A4FBE5F02AFA190886F0E7E5
:10455000A42BFBE5F03AFA190886F0E7A42BFBE55B
:10456000F03AFA18180986F0E7A4C5F02BFBE43AF4
:10457000FA1908E7C5F0C6A426F6E5F03BFBE43AD5
:10458000FA1886F0E7A4F6E5F00826F6E43B08F60C
:10459000E43A08F6D0E0FBD0E0FA22E4CFC0E0E451
:1045A000CEC0E0E4CDC0E0E4CCC0E075F020C3E6CE
:1045B00033F608E633F608E633F608E633F618185D
:1045C00018EC33FCED33FDEE33FEEF33FFC3EC9715
:1045D00009ED9709EE9709EF97191919400FFFECAC
:1045E00097FC09ED97FD09EE97FE191906D5F0BE67
:1045F000ECF709EDF709EEF709EFF7191919D0E013
:10460000FCD0E0FDD0E0FED0E0FF226016080808F4
:10461000C6C313C618C613C618C613C618C613C613
:10462000D5E0EA227009080808226016181818C692
:10463000C333C608C633C608C633C608C633C6D594
:10464000E0EA22E627F60809E637F60809E637F633
:104650000809E637F622E026F608A3E036F608A3B6
:10466000E036F608A3E036F622E026F008A3E036AE
:10467000F008A3E036F008A3E036F022C3E697F690
:104680000809E697F60809E697F60809E697F6227C
:10469000C3E096F008A3E096F008A3E096F008A324
:1046A000E096F022E056F608A3E056F608A3E0569E
:1046B000F608A3E056F622E056F008A3E056F0080C
:1046C000A3E056F008A3E056F022E0F608A3E0F6D7
:1046D00008A3E0F608A3E0F622E6F008A3E6F00857
:1046E000A3E6F008A3E6F022E0FAA3E0FBA3E0FCD7
:1046F000A3E0FD22EAF0A3EBF0A3ECF0A3EDF0229F
:10470000CAC0E0E6F0A308DAFAD0E0FA22CAC0E0B4
:10471000E0A3C582CCC582C583CDC583F0A3C58285
:10472000CCC582C583CDC583DAE6D0E0CA22C3E416
:1047300098F8E499F912476F8026C3E49AFAE49B4B
:10474000FBE920E7E912476FE498F8E499F922C3FE
:10475000E498F8E499F912476FE498F8E499F9C3FA
:10476000E49AFAE49BFB22EB20E7CFE920E7E0B9EB
:104770000010BB0008E88AF084F8AAF022E4FBC825
:10478000FA22EB70227B10C833C8C933C9335007F3
:10479000C39AC3DBF280069A50012ADBEAC833F4DD
:1047A000C8C933F4C9FA2275F008E4C833C8C9335C
:1047B000C933C99AC99B5004C92AC93BD5F0ECFB3F
:1047C000C833F4C8E4C9FA22600D08C6A2E713C6CC
:1047D00018C613C6D5E0F322600C08C6C313C6186A
:1047E000C613C6D5E0F422700422600D18C6C33388
:1047F000C608C633C6D5E0F41822251A10AF08F54E
:104800001A4002151B8008F51A4002151BD2AF2270
:10481000C0D0251A10AF08F51A5002051B8008F504
:104820001A5002051BD2AFD0D022251AF58210AF44
:1048300008F51A4002151B8008F51A4002151BD214
:10484000AF851B8322251AF582E4351BF58322E40C
:1048500073251AC582C0E0E51B34FFC583C0E0E5BF
:104860001AC3958224F810AF0885831B85821A80AD
:104870000885831B85821AD2AFCEF0A3E520F0A372
:10488000780AE608F0A3DEFAEFF0A3E58124FAF84F
:10489000E608F0A3E608F0A3E608F0A30808E60897
:1048A000F0A3E608F0A315811581D0E0FED0E0F872
:1048B000158115811581E8C0E0EEC0E022251AC5FA
:1048C00082C0E0E51B34FFC583C0E0E51AC39582D2
:1048D00024F910AF0885831B85821A800885831B05
:1048E00085821AD2AFCEF0A3E520F0A3780AE608BD
:1048F000F0A3DEFAEFF0A3E58124FBF8E608F0A3CD
:10490000E608F0A30808E608F0A3E608F0A315817E
:104910001581D0E0FED0E0F815811581E8C0E0EE09
:10492000C0E022851B83851A82E0A3FEE0A3F52068
:10493000780AE0A3F608DFFAE0A3FFE0A3C0E0E016
:10494000A3C0E0E0A3C0E0E0A3C0E0E0A3C0E010AB
:10495000AF0885821A85831B800885821A85831B90
:10496000D2AFD083D0820244AF851B83851A82E008
:10497000A3FEE0A3F520780AE0A3F608DFFAE0A39F
:10498000FFE0A3C0E0E0A3C0E0E0A3C0E0E0A3C07C
:10499000E010AF0885821A85831B800885821A85FE
:1049A000831BD2AFD083D08222C0D0251AC582C04B
:1049B000E0E51B34FFC583C0E0E51AC3958224F30C
:1049C00010AF0885831B85821A800885831B85822A
:1049D0001AD2AFC8F0A3E9F0A3EAF0A3EBF0A379F1
:1049E0000AE709F0A3D8FAECF0A3EDF0A3EEF0A3E8
:1049F000EFF0A3D0E0F0A3D0E0F0A3D0E0F0A3E587
:104A000020F0A3E5F0F0A322851B83851A82E0C085
:104A1000E0A3E0F9A3E0FAA3E0FBA3780AE0F6083C
:104A2000A3DFFAE0FCA3E0FDA3E0FEA3E0FFA3E028
:104A3000C0E0A3E0C0E0A3E0F5D0A3E0F520A3E050
:104A4000A3F5F010AF0885831B85821A8008858343
:104A50001B85821AD2AFD082D083D0E0F8D0E0326A
:104A600074048006740280027401C0E0F4041248E9
:104A70002AD0E0124700227404800474028000CC23
:104A8000C0E0EDC0E0E51AC39CCCAD1B50011D1089
:104A9000AF068C1A8D1B80068C1A8D1BD2AF124765
:104AA0000DD0E0FDD0E0FC22D083D082E9C0E0E46C
:104AB00093A3C386F0C5F095F0F908E493A386F0BC
:104AC000C5F095F0700BE493A3C3994005E9048009
:104AD00002A3E475F002A42582F582E5F03583F5A2
:104AE00083D0E0F9E493A3C0E0E493C0E022D08354
:104AF000D082ECC0E0EDC0E0E493A3FCE493A3FD1E
:104B0000ED4C600D124B3AEC24FFFCED34FFFD80C0
:104B1000EFE493A3FCE493A3FDED4C600D124B79FD
:104B2000EC24FFFCED34FFFD80EFD0E0FDD0E0FC95
:104B3000E493A3C0E0E493C0E022C0E0C3E4939612
:104B4000087401939618400FE49366700808740186
:104B500093661870007019A3A3C3E49396087401B8
:104B6000939618A3A3400DD0E0D0E0D0E0024B2AEA
:104B7000A3A3A3A3A3A3D0E022C0E0C0F088F0E4E5
:104B8000936670080874019366187000A8F0A3A3D8
:104B9000700BD0F0D0E0D0E0D0E0024B2AA3A3D03D
:104BA000F0D0E02274F51248BDEAFEEBFFEE2434AB
:104BB000F8EF3400F9880A890BEE2435124CDCF842
:104BC000EE2437124CDCF50CEC850CF0A4FCAAF0BA
:104BD000850CF0EDA42AFDE82CF8E43DF97A257B5C
:104BE0000012476FEA850A82850B83F05407F87438
:104BF00001B800028004C333D8FCC0E0E0131313F3
:104C0000541FF8EE28F8EF3400F9E8245DF582E946
:104C10003400F583D0E0F8E0586008850A82850BFF
:104C200083801DEE2436124CDCF5F0EA84A8F0EE09
:104C300028F8EF3400F9E82438F582E93400F583E8
:104C4000E0F97F0402496974F51248BDEAFEEBFF02
:104C5000EE2434124CDCC0E0EE2435F582EF340053
:104C6000F583D0E0F08E828F83A3A3A3A3A3E0FA01
:104C7000A3E0FB8E828F83A3A3A3A3A3A3A3E0FC43
:104C8000A3E0FDECC39AF50CED9BF50DEE2480F549
:104C90000AEF3400F50B850A82F583E06401702B7E
:104CA000EE2481F582EF3400F583124A7B124CE545
:104CB0007402124810E960137CFC7D04EEFAEFFBED
:104CC000125D32850A82850B83E4F0AC0CAD0DEEEB
:104CD000FAEFFB124BA412549E024C42F582EF34C1
:104CE00000F583E022C082C083851A82851B83E0A1
:104CF000F8A3E0F9C3EA9CEB9D5012C3EC98ED9940
:104D00004019C3EA98EB99501279018010C3EA98D0
:104D1000EB9940F5C3EC98ED9950EE7900D083D033
:104D20008222EAC39CFAEB9DFB22FFFF8521878547
:104D300022C622C0E074EF1249A9759B00906182DF
:104D4000E0A2E64003024DF4E591A2E64003024DE5
:104D5000F47591BF9003C1E064057008125ED01233
:104D60005EDC8003125ED6752100125F48E9900375
:104D7000C2F07900125F3C125C9C7A017B009003C8
:104D8000C0E0F912620C907803E064426003024EC6
:104D90003D90055EE014F06003024E3DC2AF124D3F
:104DA000A100782AD0E0F618D0E0F6E59F5407F984
:104DB0007005908FCB8003908FC7780A1246CAE99E
:104DC000C4C0E07829E6550AF50A08E6550BF50B4C
:104DD000740B780A1247D8D0E0250AF8906270E088
:104DE000A2E740F8E8C333906272F0906270E0D2BC
:104DF000E0F08049E0A2E55024E591A2E5501E755F
:104E000091DF9003C1E0640D70139003E3E004F0C0
:104E100064287002E4F07A00E0F9125FBA906181D0
:104E2000E0A2E35009E5E9A2E3500375E9F7A3E046
:104E3000A2E75009E591A2E7500375917F7F040234
:104E40004A08C0E0C0D0C082C083906183E0A2E085
:104E50005009E5BFA2E0500375BFFEE0A2E1500992
:104E6000E5BFA2E1500375BFFDE0A2E25009E5BF36
:104E7000A2E2500375BFFBE0A2E35009E5BFA2E345
:104E8000500375BFF7E0A2E45009E5BFA2E4500368
:104E900075BFEFE0A2E55009E5BFA2E5500375BF7D
:104EA000DFE0A2E65009E5BFA2E6500375BFBFD020
:104EB00083D082D0D0D0E032C0E074F21249A9E5AC
:104EC000A7A2E4500FE5A1A2E4500953A7EF75A1F2
:104ED000EF124F0CE5A7A2E5500CE5A1A2E55006A4
:104EE00053A7DF75A1DFE5A7A2E15009E5A1A2E183
:104EF000500375A1FDE5A7A2E2500CE5A1A2E25086
:104F00000653A7FB75A1FB7F01024A0874F81248FB
:104F1000BD7521019003C1E0640670077A007B0033
:104F2000125EB8A2AFE433FED2AF9003C7E06401D3
:104F300070187A207B009003C0E0F91262967A2004
:104F40007B009003C0E0F9126212906182E0D2E629
:104F5000F090055DE0602185C62280169003C6E0D2
:104F600064017008E5C654F84405F5C653BEFC124A
:104F70004D2C7401652160E4EEA2E092AF7F010246
:104F80004969FFFF8E238F24858228858327851A10
:104F900082851B83E0CEA3E0CF852882852783EB23
:104FA000C9EAC8EDCBECCA75F010C3E833C8E933E1
:104FB000C9EA33CAEB33CBC3EA9EF526EB9FF5254E
:104FC000B35004AB25AA26EC33CCED33CDD5F0DAC3
:104FD000AE23AF242274E91248BD74FA1247FAEAEC
:104FE000FEEBFF8C0A8D0B9003C1E024F7C3940500
:104FF0005006908FD70250FC125E348A0C8B0DEA5B
:10500000450D70030250F9125EEE8A0E8B0F125E90
:10501000EEEA650E7003EB650F60ECEEFCEFFD85CC
:105020001A82851B83AA82AB83125EF4850C82856B
:105030000D83A3A3780E1246CA909017780E1246DD
:10504000A4851A82851B8378161246CA9090177819
:10505000161246A4780E79161244DC501F780E7989
:105060001612467C908FAF780E1244FC4047850E96
:1050700012850F1385101485111580418516128530
:1050800017138518148519157812790E12467C901D
:105090008FAF78121244FC501C7512007513007506
:1050A00014007515017812791612467C7812790E63
:1050B0001246438008908FD778121246CA74097836
:1050C0001212462490903B780E1246CA7812790E3E
:1050D00012459B9003C1E06408600AE06406600525
:1050E000E06405701C90901B78121244FC501290E2
:1050F0008FB378121246568008908FEB78121246C2
:10510000CA850A82850B8378121246D97406124822
:10511000107F1002496974F71248BD125F069005AE
:105120005BE064017010906245E4F0A3F053F4F387
:1051300043FE0C5390F3125EA6E5C654804449F535
:10514000C6E59E547F644970F8906185740FF090B5
:105150000559E0F47002A3E0602C750A01750B009C
:10516000900559E0780A1247E7E50AF4FAA3E060EF
:105170000814600A14600C800DEA52808008EA521C
:10518000908003EA52A079007F0202496974F71205
:1051900048BDE9FEEAFF74016E700C7A807B0090D6
:1051A00003C0E0F912620C9065DCE493F46008E45B
:1051B00093F9125C7E800953C680E59E547F70FA95
:1051C000125EAC90055BE064017003125CB4900564
:1051D00059E0F47002A3E0602A750A01750B009093
:1051E0000559E0780A1247E7AA0AA3E060081460AC
:1051F0000A14600C800DEA42808008EA4290800325
:10520000EA42A0125E348A0A8B0BA80AA90BE8496D
:105210006017E5E170FCE82414F582E93400F583B9
:10522000E0F874FF68600288E174016F700A7A0127
:105230009003C0E0F912626002518874F11248BD17
:105240008A0A8B0B8C0C8D0D740F124845780E1248
:1052500046CA909017780A1246A4909017780E12BA
:1052600046A4780A790E1244DC5015780A790E1299
:10527000467C908FAF780A1244FC40157901801368
:10528000780E790A12467C908FAF780E1244FC405B
:10529000EB79007F0802496974ED1248BD8A0A8BD8
:1052A0000B8C0C8D0D7413124845780E1246CA9063
:1052B0009017780A1246A4909017780E1246A47898
:1052C0000E790A1244DC4011780A790E12467CAA43
:1052D0000AAB0BAC0CAD0D80227512007513007576
:1052E00014007515017812790E12467C7812790A2D
:1052F000124643AA12AB13AC14AD157F0C024969D8
:10530000909017780A1246CA8A828B83780A1246CE
:10531000B77F0402496974F51248BD8C828D837889
:105320000A1246CA8A828B83780A12469012536AFE
:10533000C3E098F0A3E09912535C401E908FDB7895
:105340000A1246CA8A828B83780A1246698E828F35
:1053500083E02420F0A3E0344EF080A4F08E828F0E
:1053600083C3E09420A3E0944E22EA2404F8EB34B3
:1053700000F9E8FEE9FF8C828D83A3A3A3A3E0F8E4
:10538000A3E0F98E828F832274F51248BDE9FE9066
:105390000513E0FAA3E0FBEEC333F8E433F9741924
:1053A00028F582748F39F583E02AF50AA3E03BF5EE
:1053B0000B780A124A6490902B1246E8124F8474BC
:1053C000021248108A0A8B0B8C0C8D0D7410780A0F
:1053D00012460BAA0AAB0B7F0402496974F112480A
:1053E000BD8A0E8B0F8C108D11740F124845E0FA98
:1053F000A3E0FB7411124845E0F50AA3E0F50B7435
:1054000013124845E0FEA3E0FF780A124A64EA243A
:1054100001F50AEB3400F50BE4F50CF50D780E7987
:105420000A12451B908FBF780A1246CA780E790A75
:1054300012451BAA0EAB0FAC10AD11124F847402B3
:105440001248108B0BEA450B60047A0180027A0047
:10545000EC2AFCED3400FDECF8EDF97A717B0212D8
:10546000476F880A890BE4F50CF50D8E828F8378DF
:105470000A1246D9ECF8EDF97A717B0212476F8A6D
:105480000A8B0B7405780A1247E78E828F83A3A3D9
:10549000A3A3E50AF0A3E50BF07F08024969C082E7
:1054A000C083E9906000F0D083D08222C0E074F223
:1054B0001249A9A2AFE433FED2AFC2C0E5D1A2E443
:1054C000500653D1EF126464751C00EEA2E092AF57
:1054D0007F01024A08C0E074F21249A9A2AFE43386
:1054E000FED2AFE589A2E150031263E0758900C2E4
:1054F000C5751C00EEA2E092AF7F01024A08C0E031
:1055000074F21249A9A2AFE433FED2AFE58BA2E058
:1055100050031263E0758B00C2E880D5C0E0C0D0B4
:10552000E8C0E0E9C0E0E5A8D2AFC2C7751C00A2A0
:10553000E7A2E792AFD0E0F9D0E0F8D0D0D0E032E7
:10554000C0E0C0D0E8C0E0E9C0E0C00AC00BC08243
:10555000C083A2AFE433F9D2AF9009DEE0F8A3E054
:10556000687008539AFBA374018026C2E99009DE93
:10557000E0F50A7401250AF0745E250AF5827409C3
:105580003400F583E0F5C19009DEE0C39480400269
:10559000E4F0E9A2E092AFD083D082D00BD00AD061
:1055A000E0F9D0E0F8D0D0D0E032C0E074F2124997
:1055B000A9E5A8FED2AF758900C2C5751C007A04A2
:1055C0007B00900B07E0F912620CEEA2E7A2E792D3
:1055D000AF7F01024A081244B2B0C5031244B2C7F9
:1055E000C5031244B2F6C5031244B22FC6031244D7
:1055F000B257C6031244B285C6031244B29CC60316
:105600001244B2B3C6031244B2C9C6031244B2F084
:10561000C6031244B203C7031244B219C7031244AB
:10562000B22CC7031244B251C7031244B266BF0280
:105630001244B265C0021244B29AC0021244B2BB14
:10564000C0021244B2CBC0021244B2ECC0021244F7
:10565000B2F8C1021244B2C5C2021244B238C30247
:105660001244B2BEC3021244B201C4021244B238A0
:10567000C4021244B2BEC4021244B290C502124423
:10568000B2EEC5021244B206C6021244B280C6028D
:105690001244B283C6021244B286C6021244B22D2C
:1056A000C7021244B245C7021244B275C70212447F
:1056B000B295C7021244B283C8021244B239C90279
:1056C0001244B2BE8E031244B2E68E031244B214E8
:1056D0008F031244B24B8F031244B2B38F031244B0
:1056E000B2FC8F031244B24790031244B285900378
:1056F0001244B2C290031244B2F090031244B29723
:1057000091031244B2A191031244B2AE9103124428
:10571000B2E191031244B2A392031244B2AF9203D6
:105720001244B2C792031244B2D192031244B2514E
:10573000CE031244B25FCE031244B277CE031244BA
:10574000B28FCE031244B258D9011244B2F6D90135
:105750001244B26EDA011244B283DB011244B2BDCC
:10576000DB011244B266DC011244B23BDD0112449B
:10577000B29FDE011244B2F6DE011244B27DDF01B7
:105780001244B264E0011244B2B1E0011244B23FEB
:10579000E1011244B263E1011244B238E301124460
:1057A000B279E3011244B29BE3011244B21CE4015A
:1057B0001244B206E5011244B2CCE5011244B21221
:1057C000EB021244B2E4EB021244B28DEC0212443A
:1057D000B2D0EC021244B25DED021244B2E9ED0225
:1057E0001244B2CAEE021244B2F9EE021244B2F509
:1057F000EF021244B23DF0021244B23FF1021244F1
:10580000B283F1021244B2A9F1021244B2C0CF0332
:105810001244B23AA4031244B250A4031244B27622
:10582000A4031244B29EA5031244B2A8A5031244D5
:10583000B201A7031244B201A8031244B2008003CC
:105840001244B23581031244B26881031244B2B2E9
:1058500081031244B27083031244B2FBC9011244A3
:10586000B25ECA011244B2A3CB011244B2B3CB015F
:105870001244B2D6CB011244B221CC011244B2C6BA
:10588000CC011244B2BCCD011244B286CE01124406
:10589000B2FECF011244B240D0011244B2DED001B8
:1058A0001244B22BD1011244B251D1011244B23F81
:1058B000D3011244B244D3011244B225D50112449B
:1058C000B279D5011244B2DBD5011244B203D6013C
:1058D0001244B2A7D6011244B269D7011244B29A57
:1058E000D7011244B29DD7011244B2E5D701124448
:1058F000B227D8011244B28ED8011244B208B903BB
:105900001244B21BB9031244B234B9031244B27F39
:10591000B9031244B25ABA031244B2E9BA031244A8
:10592000B234BB031244B2E065001244B2EC65002D
:105930001244B22566001244B26A66001244B221D3
:1059400067001244B2A767001244B20C6800124408
:10595000B23868001244B27168001244B2856A001D
:105960001244B2616C001244B24C6E001244B28315
:105970006F001244B2E371001244B2CF72001244BD
:10598000B21574001244B22275001244B23F750081
:105990001244B27775001244B29175001244B2F904
:1059A00075001244B2937A001244B2347B00124460
:1059B000B2857B001244B2AC7B001244B2FA7B0089
:1059C0001244B2187C001244B26C7C001244B245FE
:1059D0007D001244B2CC7E001244B2547F001244C7
:1059E000B22685031244B23085031244B2FB85030C
:1059F0001244B21686031244B23C86031244B280AB
:105A000086031244B2B886031244B2E186031244FC
:105A1000B25A87031244B26F87031244B2848703D9
:105A20001244B2BB87031244B2CF87031244B200C0
:105A300088031244B23A88031244B26688031244BF
:105A4000B29E88031244B23C89031244B285890392
:105A50001244B2AF89031244B2D489031244B24E45
:105A6000A0031244B218A1031244B2FBA1031244D2
:105A7000B271A2031244B2B3A2031244B2E0A30370
:105A80001244B2C6A7021244B2EFA7021244B208EF
:105A9000A8021244B24DA9021244B22BAA02124427
:105AA000B24AAA021244B2D7AA021244B21AAB02F4
:105AB0001244B267AC021244B206AD021244B2857F
:105AC000AF021244B21CB0021244B2F0B00212444F
:105AD000B2D2B1021244B23EB3021244B2D1B30206
:105AE0001244B2AAFE021244B213FF021244B26779
:105AF000FF021244B28EFF021244B2F39703124423
:105B0000B26098031244B2AB98031244B2A0990356
:105B10001244B29C9A031244B2869B031244B245CB
:105B2000D3021244B287D3021244B261D4021244A7
:105B3000B23AD5021244B235D6021244B214D70298
:105B40001244B280D7021244B247D8021244B2B211
:105B5000D8021244B219D9021244B244D9021244F2
:105B6000B2B5D9021244B248DA021244B2B1DA0232
:105B70001244B2C6DA021244B20EDB021244B22759
:105B8000DB021244B28CDB021244B28FDB021244FD
:105B9000B230B3031244B258B3031244B296B30303
:105BA0001244B254B4031244B2BFB4031244B2DB81
:105BB000B4031244B203B5031244B233B503124422
:105BC000B242B5031244B2BCB5031244B2E2B5030B
:105BD0001244B22CBA011244B2C9BB011244B2AF92
:105BE000BD011244B279BE011244B2C0BE011244DA
:105BF000B207BF011244B219BF011244B259BF012A
:105C00001244B288BF011244B2D4BF011244B20C94
:105C1000C0011244B23AC0011244B28BC001124416
:105C2000B21AC1011244B208C4011244B2E2C50161
:105C30001244B21EC6011244B278C7011244B2BF68
:105C4000C7011244B234C8011244B282C8011244DE
:105C5000B2A8C8011244B27FF6011244B29CF60108
:105C60001244B236FC011244B238FD011244B2B201
:105C7000FE011244B260FF011244B21494011244B6
:105C8000B25D94011244B28A94011244B2BD9401EF
:105C90001244B2CA94011244B2D694011244B2E83A
:105CA00094011244B2BD95011244B21B96011244F4
:105CB000B25096011244B2EC97011244B2399801E5
:105CC0001244B25D98011244B2CA98011244B26FF4
:105CD00099011244B22B9A011244B2AA9A011244B9
:105CE000B26E9B011244B27D9B011244B2FE9B0135
:105CF0001244B29D9C011244B2CF9C011244B26A7C
:105D00009D011244B2C89D011244B2029E01124488
:105D1000B2839E011244B24C9F011244B2F59F011E
:105D20001244B27CA0011244B2D4A0011244B23594
:105D3000A1011244B25EA1011244B214A2011244A4
:105D4000B25EA3011244B2A1A3011244B2BEA301E8
:105D50001244B2DDA3011244B228A4011244B24D90
:105D6000A4011244B276A4011244B2E5A401124483
:105D7000B227A5011244B22BA6011244B2C5A60156
:105D80001244B291A7011244B2AAA7011244B2A4CC
:105D9000C9021244B2F7C9021244B203CA02124441
:105DA000B2D8CA021244B2FFCA021244B23ACB02BB
:105DB0001244B2A6CB021244B2DACB021244B2139E
:105DC000CC021244B22BCC021244B284CC02124454
:105DD000B29DCC021244B2E6CC021244B2F9CC021B
:105DE0001244B213CD021244B229CD021244B2457C
:105DF000CE021244B256CF021244B2A3D0021244D1
:105E0000B288D1021244B2EE7F001244B2E09A028C
:105E10001244B2149B021244B27F9E021244B2C9D1
:105E20009F021244B293A0021244B21DA202124475
:105E3000B2F8A2021244B232A3021244B255A30233
:105E40001244B297A3021244B2A0A3021244B2EACF
:105E5000A3021244B2F4A3021244B2A0A402124458
:105E6000B274A5021244B2C8A5021244B22AA60214
:105E70001244B27DA6021244B2ACA6021244B2EBA6
:105E8000A6021244B2DCA7011244B236B001124499
:105E9000B23CB0011244B2F7B5011244B2DDB9010F
:105EA0001244B29AAF031244B210B0031244B226A5
:105EB000B0031244B263B0031244B29BB003124465
:105EC000B218B1031244B253B1031244B2CEB103BB
:105ED0001244B20AB2031244B213B2031244B21F04
:105EE000B2031244B239B2031244B25EB203124496
:105EF000B274B2031244B29DB2031244B200B303AF
:105F00001244B2FC89031244B20F8A031244B2292C
:105F10008A031244B2528A031244B2958A0312448D
:105F2000B2D48A031244B2128B031244B2778B03A9
:105F30001244B28C8B031244B2978B031244B2A466
:105F40008B031244B2BB8B031244B2C98B031244BD
:105F5000B2D48B031244B2E08B031244B2F38B032E
:105F60001244B2FE8B031244B2218C031244B2CA13
:105F70008C031244B2DA8C031244B2F48C03124440
:105F8000B2118D031244B22D8D031244B2528D030F
:105F90001244B25C8D031244B2708D031244B28F6E
:105FA0008D031244B2F08D031244B2F68D031244F5
:105FB000B2FC8D031244B2028E031244B20E8E0361
:105FC0001244B2418E031244B20580021244B287D9
:105FD00080021244B23081021244B278820212442A
:105FE000B28684021244B26C85021244B2A18502C8
:105FF0001244B2C385021244B26C86021244B23C0F
:1060000088021244B26588021244B2DD880212444A
:10601000B20F89021244B21C89021244B26789028B
:106020001244B28B89021244B2DC8B021244B2E6F3
:106030008C021244B2428D021244B201E8011244B1
:10604000B212E9011244B2F6E9011244B200EA01C7
:106050001244B222EA011244B22EEA011244B2D230
:10606000EB011244B2FFEB011244B215ED011244F0
:10607000B26AED011244B2B9EE011244B28EEF01E0
:106080001244B2EAEF011244B255F0011244B28A4E
:10609000F0011244B2CDF0011244B297F301124460
:1060A000B2AFF3011244B240F4011244B24EF40113
:1060B0001244B29BF4011244B2A9F4011244B21585
:1060C000F5011244B290F5011244B2E7F501124411
:1060D000B248B4021244B26AB4021244B27BB602AD
:1060E0001244B23AB9021244B264BA021244B22261
:1060F000BB021244B20EBC021244B2F7C3031244F4
:10610000B21CC4031244B292C4031244B2F5E302B7
:106110001244B2FEE3021244B207E4021244B2DFB8
:10612000E4021244B290E6021244B2C0E602124403
:10613000B2EBE6021244B21BE7021244B246E70297
:106140001244B27AE7021244B2A6E7021244B2E95C
:10615000E7021244B214E8021244B25BE8021244AD
:10616000B2B0E8021244B2F2E8021244B24CE902C0
:106170001244B277E9021244B2C6E9021244B2F6FE
:10618000E9021244B221EA021244B24FEA02124476
:10619000B272EA021244B282FF011244B2AEFF01AF
:1061A0001244B2DBFF011244B2E5FF011244B2F522
:1061B000FF011244B224F9021244B22EF902124431
:1061C000B26CF9021244B2B5F9021244B2EFF9020C
:1061D0001244B249FA021244B26AFA021244B27389
:1061E000FA021244B2C0FA021244B2E9FA021244AC
:1061F000B2F3FA021244B25FFB021244B2F1FB02A4
:106200001244B23BFC021244B271FC021244B2FDD1
:10621000FC021244B23EFD021244B275FD02124469
:10622000B287FD021244B2A6FD021244B2AFFD02D3
:106230001244B27CFE021244B29DCB031244B20659
:10624000C2031244B23CC2031244B272C2031244EB
:10625000B2BDC3031244B228CF031244B23ECF03EF
:106260001244B248CF031244B292CF031244B2494F
:10627000D0031244B26693031244B27B93031244D8
:10628000B22B94031244B26B94031244B28494036D
:106290001244B2BF94031244B20C95031244B23EAE
:1062A00095031244B28095031244B28197031244BD
:1062B000B294CC031244B2BDCC031244B2ECCC0372
:1062C0001244B22ECD031244B22AB6031244B24F86
:1062D000B6031244B279B6031244B205D103124494
:1062E000B20080011244B2DD81011244B283830105
:1062F0001244B23784011244B2C184011244B24242
:1063000085011244B26B85011244B22989011244FD
:10631000B2AF89011244B2D68A011244B2108B0185
:106320001244B2518B011244B2998C011244B2F65C
:106330008C011244B23F8D011244B2AA8D01124465
:10634000B21B8E011244B24D8E011244B2658E0111
:106350001244B2918F011244B2A18F011244B24B88
:1063600091011244B26291011244B294910112441B
:10637000B24893011244B2D593011244B2E77F00B0
:106380001244B2DDFF021244B2E8FF021244B2ED41
:10639000FF021244B271D1031244B273CD0312440E
:1063A000B283CD031244B292CD031244B244CE0361
:1063B0001244B299CA031244B21ECB031244B284EF
:1063C000CB031244B263C7031244B28CC703124416
:1063D000B2F2C7031244B212C8031244B263C80334
:1063E0001244B2BEC8031244B2F8C8031244B2FB4E
:1063F000C8031244B25BD1031244B26BD1031244FE
:10640000B26ED1031244B2F87F001244B2A3BD03AE
:106410001244B237BF031244B298BF031244B2DE33
:10642000BF031244B20BA8031244B29BA803124448
:10643000B224A9031244B2C0A9031244B251AA0360
:106440001244B2FFAA031244B20DAB031244B28B42
:10645000AB031244B29EAB031244B2B4AB0312447A
:10646000B2BEAB031244B2D1AB031244B21EF2026D
:106470001244B260F2021244B27BF2021244B24CF5
:10648000F3021244B232F4021244B2A4F6021244ED
:10649000B216F7021244B2FEF7021244B2E0F8025A
:1064A0001244B205C9031244B257C9031244B2CA16
:1064B000C9031244B233CA031244B25EBB0312448E
:1064C000B288BB031244B256BC031244B231BD03BE
:1064D0001244B2B3DB021244B27ADC021244B2B10B
:1064E000DC021244B2DBDC021244B23BDD02124495
:1064F000B291DD021244B2F6DD021244B28EDE0227
:106500001244B29DDF021244B234E1021244B2C11D
:10651000E1021244B228E2021244B23FE202124403
:10652000B259E3021244B297E3021244B28F8D02D1
:106530001244B2DC90021244B25892021244B2AF3A
:1065400092021244B2CC92021244B24A9302124412
:10655000B2CD94021244B2B295021244B2679902CB
:106560001244B23D9A021244B2E1BF031244B2890E
:10657000C0031244B2B7C0031244B224C103124490
:10658000B259C1031244B2D4AB031244B259AE03A0
:106590001244B2AFAE031244B259AF031244B24830
:1065A0009C031244B28D9C031244B2AA9C03124471
:1065B000B25D9D031244B2BB9D031244B29E9E0382
:1065C0001244B2AC9F031244B2E59F031244B2BB23
:1065D0007F001244B2BFFF02FFFFFFFFFFFFFFFF7C
:1065E000C082C083E9900BEFF002686474F7124830
:1065F00051E99002DFF07C177D037AFF7BFF12598F
:10660000B49002E074FFF0A3F0A3E4F0A3F07905E6
:1066100012593C9002DFE0F91258647AD27B591289
:106620005B9402757274F41248518A0A8B0BEB5416
:106630008060309002DFE0F91261F48A0C8B0DAEBD
:106640000CAF0DEE4F60138E828F83E064B0700349
:10665000125954EEFAEFFB1261E2AA0AE50B6480CC
:10666000FB80047A007B0002683374F21248517494
:10667000FC1247FAEAFEEBFF7412124845127A59EF
:10668000EE4F700302670D7402124845EEF0A3EF5F
:10669000126A6EECF0A3ED126A6EAA82AB831258F6
:1066A0005EE9F50C706AE50A450B60648E828F83A3
:1066B000127A3FEE4F60567A067B001262488A0ECD
:1066C0008B0FA80EA90FE8497005750C138041883F
:1066D000828983E412671AEEF0A3EF127A6AE50A60
:1066E000F0A3E50BF09002E51267A19002E57005BA
:1066F00012751C801B12750A8003EAFCEBFD8C826C
:106700008D831267A170F38C828D8380E3750C02F8
:10671000A90C7404124810027C59F0A3127A10A339
:106720002274F2124851890CE975F017A4FEAFF0FB
:106730009002E4E4F09002E21267A1600A12624E55
:106740009002E2E4F0A3F0EEFAEFFB1262488A0A4C
:106750008B0BEA450B602FEEFCEFFD79001261D048
:106760009002E2E50AF0A3E50BF07B0080081267D7
:106770008BE4F0A3F00BEBC3950C40F2E50C900218
:10678000E4F0790080027913027C59EB75F017A4CC
:10679000F8A9F09002E2E028FAA3E0398A82F583B2
:1067A000221271AEEA4B2274F4124851740C124852
:1067B00045127A34FEE9FF750A00750B00800CE57E
:1067C0000A2401F50AE50B3400F50BC3E50A9CE544
:1067D0000B9D5032850A0C850B0D7403780C124703
:1067E000E7EA250CF8EB350DF988828983A3A3A38A
:1067F000A3A3A31275F1EE650C7003EF650D70BFD6
:10680000E8FAE9FB80047A007B00802774F41248E0
:10681000517900EAA2E0501B750A92750B8F780A35
:10682000124A647C047D007AF17B0B1259367402A3
:106830001248107F04024923C082C0839002E512EF
:10684000686B601C88828983A3A3E06A7003A3E05D
:106850006B8882898370E8A3A3A3A31271AA800422
:106860007A007B00D083D0820244AF127D3FE8499A
:106870002274EE12485174FC1247FAEAFEEBFF85CF
:106880001A82851B83E4F0A3F0EE24021274FCEE5E
:106890002405127A17EE2404F510EF126E23E0247B
:1068A000FE603924FC604624FE605224FE605E24B3
:1068B000FE700302698424FE70030269E824FE70FE
:1068C000030269F724FE7003026A0624FC700302C7
:1068D0006A1524FE7003026A24026A619002FE7443
:1068E00017F0A3E4126A761255DC026A61851A82F7
:1068F000851B83AC82AD8312595A026A31851A8294
:10690000851B83AC82AD83125960026A31850E0A01
:10691000850F0B7402124845AC82AD83850A8285CF
:106920000B831271AA1258828A0E8B0FAC0EAD0F18
:10693000EC4D603BE4F50EF50F780E124A64750ECF
:10694000FE750F02780E124A64750EFF750F0278FD
:106950000E124A647408124845124A7B127EBB121A
:106960004810E9F50E700B1271A01255F4800F75E6
:106970000E01850A82850B83126A6412751C850ECE
:106980000A026A347402124845AC82AD83850E82D5
:10699000850F83126F75603C850E82850F83A3A3DC
:1069A000124A7B7512FE7513027812124A64751230
:1069B000FF7513027812124A647408124845124A8D
:1069C0007B127EBB124810E9F50B700B1271A012FE
:1069D00055FA800F750B01850E82850F83126A644C
:1069E00012751C850B0A804C851A82851B83AC822C
:1069F000AD83125966803A851A82851B83AC82ADBD
:106A00008312596C802B851A82851B83AC82AD83DF
:106A1000125972801C851A82851B83AC82AD831249
:106A20005978800D851A82851B83AC82AD831259FB
:106A30007EE9F50AE50A60298E828F83A3E064145B
:106A4000601F851082851183E09002FE126A6E122B
:106A50007D3B9002FF12751CE50AA3126A7612555F
:106A6000D602740B127D3F851A82851B8322F08526
:106A70001A82851B8322F07CFE7D02850C82850DA7
:106A8000831271AE2274EE12485174FC1247FA8AD6
:106A90000C8B0D8C108D11EA2405F50AEB3400F5F2
:106AA0000B7C157D0079007AFE7B021261D0E50A2D
:106AB0002402F50EE50B127A1A851A82851B83854E
:106AC00082128583137812124A64850A82850B83A9
:106AD000A3A3A3A3126F6C124A64E50A2405F5125E
:106AE000E50B3400F5137812124A64850E82850F87
:106AF000831272C112587C74061248108A128B13CA
:106B0000AE12AF13E50C2402F50CE50D1274FFEE86
:106B10004F7003026C43801774021248451271AA29
:106B200088828983EAF0A3EBF09002FEE004F09003
:106B300002FEE0C394054003026C43E4F512F51332
:106B40007812124A647512E77513027812124A64B9
:106B50007512E87513027812124A647406124845D9
:106B6000124A7B7910EEFCEFFD127EBD124810E94F
:106B7000705E850A82850B83A3A3A3A3A3A3A3E0CE
:106B8000F89002E7E0687048126F6C124A647CE883
:106B90007D02E50A2408FAE50B3400FB1261CA7491
:106BA00002124810E960298E828F83A3A3A3A31247
:106BB00071AA9002FEE0F512740278121247E7748F
:106BC000FF2512F58274023513F583EAF0A3EBF08A
:106BD00074021248458582128583137812124A6422
:106BE0007402124845124A7B850E82850F8312710A
:106BF000D01248108A128B13AE12AF139002FEE02F
:106C0000F512751300740278121247E774FE25120C
:106C1000F874023513F988828983A31267A170037F
:106C2000026B0FE82403080808E93400F9EE4F600E
:106C300003026B188882898374FFF0A3F09002FE30
:106C4000E004F09002FEE0600A1271A01255E879AB
:106C500000800B850A82850B83127513790A0274F2
:106C60000B74EA12485174FE1247FA8C148D15EA1F
:106C70002405F50EEB127EA5127A43750A00750BFA
:106C800000EA2402F512EB3400F513851A82851B05
:106C90008385820C85830D780C124A64850E82856B
:106CA0000F83A3A3A3A3126E39124A64E50E240531
:106CB000F50CE50F1274FF780C124A64850E82857C
:106CC0000F83126E3D12587C74061248108A0C8B8A
:106CD0000DEA450D7003026DDEEA2404F510EB1297
:106CE0006E23127A438A828B83A3A3A3E0F98512D1
:106CF000828513831271B46003026DDEE4F516F52C
:106D0000177816124A647516E77517027816124A34
:106D1000647516E87517027816124A6474061248EC
:106D200045124A7B7913AC0CAD0D85128285138315
:106D3000127EC3124810E9F50B6003026DDE90026B
:106D4000E7E0F8E50A7009E024029002FFF0801401
:106D50009002FFE0FCE82402FAE43400FBEA6C70E5
:106D600001EB707E850A82AA82126F639414126FFF
:106D70005B506B851082851183E0C0E074002A129D
:106D80006E1AD0E0F0050A851082851183A3E0C059
:106D9000E0850A0C7400250C126E1AD0E0F0050A8A
:106DA0009002E7126E39124A647CE87D02850A0C73
:106DB0007400250C126E2D1248109002E7E0250A8F
:106DC000F50A74FF6E700374FF6F6012EE24010EFB
:106DD000EF3400FFE50AC394145003026C8BE50AFC
:106DE00060131271BE8512828513831271AA125527
:106DF000EE79008014E50B7003750B0A851482850B
:106E00001583EEF0A3EFF0A90B74021248107F0E69
:106E1000024923850A0E7400250EF582740334009E
:106E2000F583223400F511851082F58322FA74036C
:106E30003400FB1261B8740222127A7922A3A312E1
:106E40006E432212750AFDEEFAEFFB2274EE124831
:106E50005174FE1247FA8C108D11EA2405F50EEBE1
:106E6000127A1A750D009002FEE4F0F50CEA240285
:106E7000F50AEB3400F50B80449002FEE0FA900234
:106E8000E7E0F8126F639417126F5B400D9002FEFB
:106E9000E0F87416C3989002E7F0126F6C124A641F
:106EA0007CE87D0274FF2AFA7402126E30124810D8
:106EB0009002E7E0F89002FEE028F0050CE50E24D1
:106EC00016F582E50F126E1EE0F8E50CC3985074BB
:106ED0009002FEE0C39416506BE50CC333F8E43324
:106EE000F9E50E28FEE50F39FF851A82851B83AC74
:106EF00082AD838E828F83126F757008750D0112BB
:106F0000750F8050E4F512F5137812124A64751269
:106F1000E77513027812124A647512E87513027845
:106F200012124A647406124845124A7B7916850A81
:106F300082850B83127EC3124810E9F50D7003029F
:106F40006E7980BB7CFE7D02850A82850B8312717F
:106F5000AA125600A90D740202740DE99400C365CB
:106F6000D03322EA28F8E43400F9E822E0F512757B
:106F700013007812221274028A128B13AC12AD1312
:106F8000EC4D2274EA12485174FC1247FA8A0E8BB7
:106F90000F8C148D15EA2405F50CEB1274FF750A9D
:106FA00000750B00E50C2402F512E50D3400F51315
:106FB00074021248458582108583117810124A6444
:106FC000850C82850D83A3A3A3A3127A1F124A64A2
:106FD000E50C2405F510E50D3400F5117810124A82
:106FE000648512828513831275051271A412587C70
:106FF00074061248108A108B11AE10AF11E50E24E2
:1070000002F510E50F3400F5118038888289837409
:10701000FFF0050A126E1374FFF0050A9002E7E014
:10702000F50E750F00780E124A647CE87D02850A21
:107030000E7400250E126E2D1248109002E7E02506
:107040000AF50AEE4F60278E828F83A3A3A3E0F98F
:107050008510828511831271B4EE2404127A17E927
:107060006027850E82850F8312719612751CE50AC2
:10707000700302717C1271BE8510828511831271BA
:10708000AA1256067900027191E4F516F5177816E2
:10709000124A647516E77517027816124A64751657
:1070A000E87517027816124A647408124845124AA5
:1070B0007B7911EEFCEFFD851082851183127EC372
:1070C000124810E9F50B709A850A82AA82EA9002AA
:1070D000E77009E024049002FFF08025E0F89002B8
:1070E000FFE0F516E82404FCE43400FDEC651670BE
:1070F00001ED7081126F639412126F5B4003027096
:1071000075850E82850F83E0C0E074002A126E1A26
:10711000D0E0F0050A850E82850F83A3E0C0E0125F
:107120006E13D0E01271D985820E85830F780E120E
:107130004A647404124845124A7B8512828513837F
:107140001271D01248108A0E8B0FAE0EAF0F850A47
:107150000E7400250EF874033400F9EE4F7003022C
:10716000700B851A82851B83E0888289831271D90E
:10717000A3E0C0E0126E13D0E0027019E50B7003BB
:10718000750B0A850C82850D8312719612751CA9E8
:107190000B7404026E0B127D3F85148285158322C9
:1071A0007CFE7D02850C82850D831271AE22E0FA91
:1071B000A3E0FB221271AE12586AE9F50B2290028D
:1071C000FFE0F5F0E50A849002FEF07CFE7D0222ED
:1071D000126E43125888740422F0050A851A8285BB
:1071E0001B832274EC12485174FE1247FA8A0A8BF0
:1071F0000B8C108D11EA2405FEEB3400FF1273ECAA
:10720000EE2418127A17EA450D700302728F12737A
:10721000D550291272B48A128B13EA4513606B7928
:1072200012AC0CAD0D850A82850B831271AA8512F2
:107230008285138312484FE9F50C7058E4F50CF57C
:107240000D780C124A648E828F83A3A3E0F50C782C
:107250000C124A64EE24031274FC780C124A648EF9
:10726000828F831272C11259A27406124810E9F576
:107270000C7021850E82850F83E0701F850A828540
:107280000B831271AA12560C8011750C0E800975B1
:107290000C018004E50C600312750F850E82850FCA
:1072A00083E0600479008002A90C74021248107F08
:1072B0000C024923851A82851B831271AE125990E4
:1072C0002212750AFD850A82850B831271AE227423
:1072D000EE12485174FE1247FA8A0A8B0B8C0E8DFF
:1072E0000FEA2405FEEB3400FF7510001273ECEA80
:1072F000450D70030273B31273D5502C1272B48A09
:10730000108B11EA4511604A7912AC0CAD0D850A5B
:1073100082850B831271AA85108285118312484FD2
:10732000E9F51060030273B6850A82850B83127536
:10733000F1AA0CFB1273C770147AFF7BFF1273C79C
:10734000606C88828983E50CF0A3E50DF0750C0074
:10735000800775100E805F050C9002E4E0FAE50CE2
:10736000C39A504AE50C75F017A4FAABF0888289ED
:1073700083A3A3E02AFAA3E03BFB8A828B831275E6
:1073800005EC4D70D2750C17750D00780C124A641F
:10739000EEFCEFFD1261B87402124810EEFCEFFD36
:1073A000850A82850B831271AA12561280147510F9
:1073B000098003751001127D37850E82850F8312B7
:1073C000751CA910026F561259848A128B13A812C9
:1073D000A913E84922E50A2402F50AE50B3400F571
:1073E0000B8A828B83A3A3A3E0A2E522851A828560
:1073F0001B83AC82AD838E828F831274028A0C8BC6
:107400000D22E0FAA3E0FB12588222740412481005
:107410007F0A02492374EC1248518C128D13EA241E
:1074200005F50EEB127A1A751100EA2402F50CEB41
:107430001274FF850C82F5831271AA127F497003C2
:107440000274F17510008071850E82850F83E064EF
:1074500001704F8E828F83A3A3124A7B8E828F830B
:10746000A3A3A3A3E0F5147515007814124A64EEE3
:107470002405F514EF3400F5157814124A641271DE
:10748000A41259A27406124810E9F5116014850E71
:1074900082850F83E4F0127D378512828513831273
:1074A000751C7C177D007900EEFAEFFB1261D08E1F
:1074B000828F83E4F0A3F005109002E4E0F8E51079
:1074C000C398501EE51075F017A4F8A9F0850A823C
:1074D000850B83A3A3127EAF127505EC4D600302EA
:1074E0007448850A82850B8374FFF0A3F0E5117060
:1074F000061271A4125618A9110272AFF50CEF34DE
:1075000000F50D22A312750AFD22E0FCA3E0228EF5
:10751000828F83127D3F851082851183E8F0A3E975
:10752000F022C082C0839002E0E06A7003A3E06BA7
:1075300070067AE07B0280047A007B000268647443
:10754000F71248517F00EF75F003A4F8A9F0EC287A
:10755000F8ED39F988828983E06A7003A3E06B70E3
:1075600006E8FAE9FB800B0FEFC3940240D87A00DB
:107570007B007F0102492374F6124851127B287068
:10758000067A007B008007A3A3A3A31271AA027B43
:10759000E974F2124851E9FE740E1248451275F171
:1075A0007410124845127A598C828D83E0640270FF
:1075B0003BA3127D3B88828983E0F50EA3E0F9A806
:1075C0000E74026870037429697021750E02750FBC
:1075D00000780E124A64780A124A64780C124A64DF
:1075E000EEF91259C6740612481080027901027C25
:1075F00059E0F50CA3E0F50D2274E812485174FB34
:107600001247FAE9851A82851B83F08A188B198C38
:10761000108D11741F124845127A59742112484571
:107620001275F17423124845127A437512008C8248
:107630008D83A3A3A3E0A2E4502A741D124845122F
:1076400072BA8A828B83E58245837003027705795B
:107650000AAC10AD11AA18AB1912484FE9F5126027
:1076600003027708851082851183E06402600302BB
:1076700079BEA3127D3B850A82850B83A385821484
:10768000858315E5102406F50EE511127A1A888215
:107690008983E0FAA3E0F9EA2400F516E439F51746
:1076A0007816124AEE010000280128CD7607000264
:1076B00028A477032814770029CE780129F67802C8
:1076C000299D780329CE7804295F79BE79EE4F7021
:1076D0003E850E82850F83127A34FAE9FB8A828B0B
:1076E00083E0850C82850D83127A70124A648A8247
:1076F0008B83A312750AFDAA0AAB0B1261B8740240
:10770000124810800375120EA9127405027E9D7531
:10771000120B80F4EE4F70F7850C82850D83740197
:10772000F0127A49850A82850B83F07C007D008502
:107730001082851183A3A3A3A3E02401FAA3E0345C
:1077400000FB125882EA4B60418A828B83E024025C
:10775000F8850C82850D83E028F0EA2404F8EB34E8
:1077600000F988828983E0851482851583127A82E4
:10777000127A70124A648A828B83127504E50A2495
:1077800003FAE50B3400FB0276FB850C82850D8342
:10779000E02404F07C047D007900AA14AB1512618A
:1077A000D0027708EE4F600302770F127A49FEA3EA
:1077B000E0FF850C82850D837404F0EE850A8285D6
:1077C0000B83F0EF851482851583F074031248450E
:1077D000AC82AD83EEFAEFFB127B16700302787A6F
:1077E0008A828B83A3A3127A3F7401124845858253
:1077F000108583117810124A647405124845124AA4
:107800007B7CFF7DFF12588874041248108B11EAAC
:1078100045117033850E82850F83127A1F124A64D8
:10782000850E82850F83A3124A7B7C027D007A57E6
:107830007B901256B47404124810E9700A74011255
:10784000484574FFF0A3F08E828F83E064027034A9
:10785000750E02750F00780E124A648E828F8312A5
:107860007504E50A2404FAE50B126E3012481085FF
:107870000C82850D83E0240280097401124845EED4
:10788000F0A3EFF07401124845127A30F07401123F
:107890004845A3127A28A3A3A3F0027708EE4F600D
:1078A0000302770F850E82850F83127505AA18AB28
:1078B000191259BA850C82850D837402F0EA850A83
:1078C00082850B83F0851482851583EB80CBEE4F88
:1078D000600302770F127A49F8A3E0F9850C8285DC
:1078E0000D837402F0E8850A82850B83F0E9851424
:1078F0008285158380A3850E82850F831271AA125B
:1079000061B2EAFC8C82A882C39EE49F404BE86E81
:107910007001EF70047C00801F851A82851B83E054
:10792000FAEE2AFAEF3400FBC3EA98EB9400500316
:10793000E08004EECCC39CFCEC850C82850D83F0CA
:107940008C0C750D00780C124A64850E82850F83AD
:10795000E02EFCA3E03F0276F6751207027708EEF0
:107960004F600302770F850E82850F83127D3B8562
:107970000C82850D837407F088828983127A28121D
:107980007A10E0851482851583F0E82402FAE93440
:1079900000FB8A828B83127A28127A61127A30A3D2
:1079A000127A6A127A39F0E82405F8E93400F98885
:1079B000828983127A39A3127A82A3027896741D7F
:1079C000124845127B217003027705127D3B880E19
:1079D000890FE8450F70030277058E128F13781216
:1079E000124A64780C124A64780A124A64740612C5
:1079F0004845E0F9AC10AD11AA18AB19850E828587
:107A00000F8312484F7406124810E9F512027708E6
:107A1000F088828983A322F50EEF3400F50F22E06F
:107A2000F510751100781022E0850A82850B8322FB
:107A3000127A8922127D3FE822127A89A3A322A317
:107A4000A3A3A3E0FEA3E0FF22850E82850F83E0BF
:107A5000F8A3E0F5838882E022E0F50AA3E0F50BC5
:107A600022A3A3F08A828B83A32212671CA3A322E2
:107A7000F08A828B83127A7922E0F50C750D0078FA
:107A80000C22127A10127A8922E0850A82850B83F1
:107A9000A3A32274EE12485174FE1247FA8A0C8B8B
:107AA0000DECFAEDFB7414124845E0F512A3E0F575
:107AB000137416124845E0FE7418124845E0F5109C
:107AC000A3E0F511851A82851B83AC82AD83127BFE
:107AD00016603E851A82851B83127B21602FA3A32B
:107AE000127A59E50A450B60247810124A6478121C
:107AF000124A64EEF9AC0EAD0FAA0CAB0D850A82EA
:107B0000850B8312484F74041248108006790E804A
:107B1000027901026F561258828A0E8B0FEA450FC6
:107B2000221271AE127B282212594E8A828B83E573
:107B30008245832274F612485174FE1247FA740C7F
:107B4000124845127A34851A82851B83F07401121B
:107B50004845E9F0E4F50AF50B780A124A64750A1B
:107B600002780A124A64740412484585820A8583A1
:107B70000B780A124A641259A27406124810740251
:107B8000124810806474F7124851EAFEEBFF890A2C
:107B90007C177D031259BAEA5402600BA90AEEFA67
:107BA000EFFB1258768002790102757274F6124862
:107BB0005174FF6A700374FF6B701C7B00EB75F0EF
:107BC00003A4F8A9F0EC28F8ED39F9127BEE0BEBE1
:107BD000C39402501480E612598A8A0A8B0BA80AB1
:107BE000A90BE8496003127BEE7F020249238882D9
:107BF000898374FF12671AE4F02274F61248511256
:107C0000598A8A828B83E58245836006A3A3E0FAC2
:107C100080027A007B0080D174F21248518A0A8B6C
:107C20000BECFEEDFF740E124845E0F50C127C5E85
:107C3000701CEEFCEFFD7AFF7BFF127C5E70047916
:107C400011801688828983E50AF0A3E50BF088820B
:107C50008983A3A3E50CF079007F0602492312591A
:107C60008A8A0E8B0FA80EA90FE8492274EE1248DB
:107C700051EAFEEBFF8C0A8D0B890E7412124845F7
:107C8000127D3B741412484512750574161248454E
:107C90001271AA750F00EC4D6003027D2F7402650E
:107CA0000E6003027D2A8882898312750AF9EC240A
:107CB00000F510E439F511EAF4F8EBF4F9EC58F8B2
:107CC000E51159F9E849705DE50A2406F8E50B3439
:107CD00000F9880C890D8882F583126E3F1259BA1B
:107CE0008A128B13E51065127004E511651360426A
:107CF0007810124A64850C82850D83126E3F1259EA
:107D0000C07402124810E9F50F70277810124A6407
:107D1000850A82850B83A3A3126E3D1259D8740283
:107D2000124810800D750F808008750F0D80037547
:107D30000F0BA90F0274108E828F83127D3F22E0F9
:107D4000F8A3E0F92274E812485174E71247FA8563
:107D50001A82851B83EAF0A3EBF08C188D19891029
:107D60007431124845E0F514A3E0F5157433124858
:107D700045E0F516A3E0F5177435124845E0F51116
:107D8000750A00750B00E50B75F003A4F8A9F085E2
:107D90001A82851B83127EAFE0F47003A3E0F470B7
:107DA00003027E8DEE2402F50EEF127EA5E0700335
:107DB000027E8D85180C85190D780C124A64AC165C
:107DC000AD17AA14AB1512594274021248108A0C4E
:107DD0008B0DEA450D7003027E8DE4F512F51378E4
:107DE00012124A64740612484585821285831378FC
:107DF00012124A64740912484585821285831378E9
:107E000012124A64851482851583A3A3A3A3124A80
:107E10007B7914AC0CAD0D8E828F83127EC3124819
:107E200010E97069850C82850D83A3A3A3A3127D3D
:107E30003B740212484512751C850E82850F83E043
:107E4000A2E05018A9107402124845AC82AD838E8E
:107E5000828F831271AA12589AE9420A850E82858E
:107E60000F83E0A2E15026E511F50C780C124A6868
:107E7000A9107403124845AC82AD838E828F8312A1
:107E800071AA1258947401124810E9420A050BE5D0
:107E90000BC394025003027D86A90A74191248107C
:107EA0007F100249233400F50F850E82F58322E00E
:107EB00028FEA3E039FF8E828F83227916850C82FB
:107EC000850D831271AE12599C74082274F2124807
:107ED00051EAFEEBFF890D7401650D600E740265B9
:107EE0000D70637901125BB2E9705BEEFAEFFB1281
:107EF0007F496047750C00800B7C177D007900126C
:107F000061D0050C9002E4E0F8E50CC3985021E53F
:107F10000C75F017A4F8A9F0850A82850B83A3A33A
:107F2000E028FAA3E039FB8A828B8312686B70C960
:107F3000850A82850B8374FFF0A3F07C177D03EE26
:107F4000FAEFFB1259B4027C591259848A0A8B0B3E
:107F5000EA450B2274F21248518A0A8B0BECFEEDB3
:107F6000FF740E1248451275F1900BEFE0F4603D7E
:107F70007A097B001261DCEA4B60328A828B83745F
:107F8000B1F0A3E4127A63A3127A61A3E50AF0A325
:107F9000E50B127FB0EEF0A3EF127FB0A3A3E50CC8
:107FA000F0A3E50DF0900BEFE0F91261E8027C59C7
:107FB000F08A828B83A3A3A3A3A322C082C083855C
:107FC0001A82851B83E0F8A3E0F9E84960128A82EF
:107FD0008B83ECF0A3E824FF18E934FFF94870F232
:107FE000D083D0820244AF7A007B000244AF0244C7
:107FF000AFFFFFFFFFFFFFFF851C87C2AF0244AF4B
:1080000074F4124851E9FF7E008A0A8B0B780A1239
:108010004AA800040DA68133805080698080809D2D
:1080200080B480D580EC80FF8028814281528168B5
:1080300081828174016F60030281A28C828D83E052
:10804000F8C3940340030281A2E8900CDB02817F15
:1080500074026F60030281A28C828D831289059065
:108060000CDCE8F0A3E902817F74016F60030281F8
:10807000A21281C940030281A2E890078002817F99
:1080800074016F60030281A28C828D83E0F8C39437
:108090000540030281A2E890078102817F74016F8D
:1080A00060030281A21281C940030281A2E8900705
:1080B0008202817F74106F60030281A2750A108EA4
:1080C0000B780A124A647A837B071261B874021231
:1080D00048100281C474016F60030281A21281C939
:1080E00040030281A2E890079302817F74016F60D0
:1080F000030281A28C828D83E0900CDF02817F7469
:10810000046F60030281A28C828D83780A1246CAB2
:1081100090902B780A1244FC50030281A29007959C
:10812000780A1246D90281C4EF7077125822E9709A
:108130000A12634479501265248062900828740101
:10814000803D74016F705B1281C95056E8900794AE
:10815000802D74016F704B8C828D83E0F8C3940A7C
:108160005040E8900CDE801774016F70358C828D62
:1081700083E0F874F928C3940A5027E8900CE0F0E3
:10818000804274016F701B900827E0F88C828D8309
:10819000E0900827F0E8702CE06401702712633843
:1081A00080227E18801EC3EA9426EB94005013743C
:1081B000026F700E8C828D831288FF1256C0E9FE0A
:1081C00080020E0EEEF90281D88C828D83E0F8C316
:1081D000940222740E1248107F0402492374F01294
:1081E000485174CC1247FA8C0C8D0D7420124845FE
:1081F000AC82AD8375838F758298740612470D74B7
:1082000020124845AC82AD831262EAE9F50A744453
:10821000124845E0FEE9C3940A400302834B75F01F
:1082200006E9A4F50B7426124845AC82AD837A0E9C
:108230007420250BF912651EE97009743212484545
:10824000E0FF80027F00900CDBE0640270047401A8
:108250008001E4F50F780F124A68EEFDEFFCA90AE1
:10826000AA0CAB0D12636E74011248107C147D00D1
:108270007900740C124845AA82AB831261D0740C49
:10828000124845AC82AD837A107424250BF912652F
:108290001EE9703C7C1079FF740C124845AA82AB31
:1082A00083126230E97029741C124845AC82AD8398
:1082B0007A047425250BF912651E740C124845AC1E
:1082C00082AD83EFA2E0E433F9AA0CAB0D12574A5A
:1082D000851A82851B83AC82AD837A0C7470250A63
:1082E000F912651EE97053851A82851B83AA82AB39
:1082F0008312631A750A00E50A75F003A4F8A9F061
:10830000851A82851B83E58228F8E583128B091282
:108310008C91601D88828983A3A3E0F510751100FC
:108320007810124A64AA0CAB0D1259A874021248B4
:1083300010050AE50AC3940440BDEFA2E1500C9079
:10834000077FE0F9AA0CAB0D1259AE74046E7027CA
:10835000900CDBE06402701F7A00900793E06001EC
:108360000A900780E06004780480027800E84AF907
:10837000AA0CAB0D12580A790074341248107F0809
:1083800002492374F0124851EAFEEBFF8C0A8D0B70
:10839000750C0AE9600C14600914603714607902E6
:1083A000843212632CE9F50CC3940A400302843230
:1083B000E50A450B607C7510067511007810124AAD
:1083C00064EEFCEFFDAA0AAB0B1261B8740212480E
:1083D00010805F750D007510067511007810124A37
:1083E00064EEFCEFFDE50D75F00EA4F8A9F074A1A4
:1083F00028FA740739FB1261CA7402124810E96046
:108400000C850D0CE50CC3940A50278016050DE56C
:108410000DC3940A501C80BE126332E9F50CC3945C
:108420000A500FE50A450B6009AA0AAB0BA90C120A
:108430006326A90C02837E74F4124851890A750BD5
:108440001574FF6A700374FF6B70277E00AC0A7AA4
:10845000027B00EEF9126308E96003750B000EEE73
:10846000C3940A40E8E50A60537A5C7B63125BC4FC
:10847000804A125BA68A0C8B0DAE0CAF0DEE4F60DE
:10848000387C007D00EE2405FAEF3400FB8E828FED
:1084900083A3A3A3A3E0F91262EAE9C3940A500CF0
:1084A000AC0A7A027B00126308750B00E50A600CC7
:1084B000EEFAEFFB12635C8003750B14A90B0281CB
:1084C000D874F2124851ECFEEDFF750A15740E12C5
:1084D00048451288F274FF6A700374FF6B7021754F
:1084E0000B00AC0CAD0DEEFAEFFBA90B12630EE91D
:1084F0006003750A00050BE50BC3940A503F80E248
:10850000125BA68A828B83E5824583602D7C007D89
:1085100000E5822405FAE5833400FBA3A3A3A3E0CE
:10852000F91262EAE9C3940A5013AC0CAD0DEEFAED
:10853000EFFB12630E750A008003750A14A90A0284
:108540009332C082C083900799EAF0A3EBF09007C2
:108550007FE0FC7D007A257B001256C090077FE00B
:10856000F9125924D083D0820244AF74EA124851E0
:1085700074EC1247FAEAFEEBFFEE240CF516EF342A
:1085800000F517EE240AF50EEF3400F50FEE240582
:10859000F510EF3400F511EE2409F50CEF3400F579
:1085A0000DEE2403F50AEF3400F50B8E828F83A3C2
:1085B000A3E024FA70030288CA24FD70030287E551
:1085C00014700302865014601024FD70030287B5F6
:1085D00014700302881A0288E812890B604AE0F5D9
:1085E000838882128905880E890FE8450F603985D6
:1085F0001682851783E0F5107810124A68EE240B76
:10860000F582EF3400F583E0F9850C82850D831245
:1086100088FF0A0A0AAB0B850E82850F8312484F2A
:1086200074011248100288E8850C82850D83124A75
:108630007B9007951246E812575C7402124810E9C5
:1086400070030288E87901850C82850D8302889683
:108650008E828F83A3858214858315E06003028751
:1086600098851082851183E0A2E040030287987C00
:108670000E7D007900851A82851B83AA82AB831246
:1086800061D0EE2408F512EF3400F513851282F55F
:1086900083129145EA4B6010750C06750D00780C3D
:1086A000124A64EA2410801B12913F125BA6EA4B27
:1086B00070030288E8750C06750D00780C124A6488
:1086C000EA2405FCEB3400FD7402124845AA82AB93
:1086D000831261B87402124810851082851183E0FC
:1086E000A2E25004D2F08002C2F0A2F0E433F874A7
:1086F0000C124845E048F0850E82850F831288F2FF
:10870000E50C450D6013E50C2410F582E50D3400F1
:10871000F583780E1246CA800C750EFF750FFF7533
:1087200010FF7511FFE50C450D7006750C00750DF9
:1087300000851282851383E0F512A3E0F513E5129C
:1087400045137006751200751300780E124A607892
:108750000C124A647812124A6485168285178312B5
:108760004A7B8E828F83A31288FA740A124845AA24
:1087700082AB83126320740A124810850A82850B2B
:1087800083128905900829E8F0A3E9F07A017B00BB
:1087900090077FE0F912620C12890B70030288E8DF
:1087A00012891670030288E8851482851583E0FC1F
:1087B00079010288BE12890B70030288E8E0F58314
:1087C0008882A3A3128905890DE8450D70030288EC
:1087D000E88E828F83A3E0FC790212913F88828524
:1087E0000D830288C57C007D00EE2404FAEF34007E
:1087F000FB850A82850B83E0F91262EAE9F8C394EB
:108800000A40030288E8AC0EAD0F7A0475F006E862
:10881000A42425F91265180288E812913F90079464
:10882000E06007900CDEE0F9806F900CDBE07004F4
:1088300079058065125BA68A0E8B0FA80EA90FE83A
:108840002404F50EE93400F50F8E828F83A3A3A3D1
:10885000A3A3A3A3E0A2E05045E84970030288E87F
:10886000850E82850F83E0FE6034850C82850D8342
:10887000E054107029740E124845AC82AD83E82490
:1088800005FAE93400FBEEF91262EAE970107903A7
:10889000850A82850B83129145125756804AAC1087
:1088A000AD11850E82850F83E0F912913F12636846
:1088B00012890B6033128916602E7C0079001291A8
:1088C0003F8E828F8312484F801E125822E9701803
:1088D000900828E064017008126344900828E4F0CE
:1088E000795012652412633874141248107F0E02F6
:1088F0004923E0F50CA3E0F50D22A3A3A3A3A3E075
:10890000FCA3E0FD22E0F8A3E0F922900799E0F84B
:10891000A3E0F9E84922E0F5838882A3A3E0F8A365
:10892000E0F9E8FEE9FFEE4F2274F412485174F2C8
:108930001247FAEAFE8C0D75F006E9A42420F50A28
:10894000851A82851B83AC82AD837A0EF912651E6F
:10895000E970577C0679FF851A82851B83AA82AB52
:1089600083126230E97043740C124845128905E89D
:10897000F50BE50D6005EE420B8004EEF4520B851D
:108980000B82AA82E86A7001E9601B740C124845E8
:10899000EAF0A3E4F0851A82851B83AC82AD837A6A
:1089A0000EA90A1265187901800279000281D37438
:1089B000F212485174E61247FA890C8A0A8B0BECC2
:1089C000FEEDFF740C124845AC82AD837A0E75F053
:1089D00006E9A42420F912651EE96003028ACF7C0F
:1089E0000679FF740C124845AA82AB83126230E903
:1089F0006003028ACF7470250CF50D851A82851BE1
:108A000083AC82AD837A0CF912651EE96003028A99
:108A1000CB851A82851B83AA82AB8312631AE50A6F
:108A2000450B702C7C0C7900851A82851B83AA82E9
:108A3000AB83126230E96003028ACB7C0C7D007943
:108A400000851A82851B83AA82AB831261D0805D68
:108A5000851A82851B83AC82AD83AA0AAB0B126395
:108A6000148A0E8B0FA80EA90FE8497028EE4F60EC
:108A70005E851A82851B83AC82AD837A007B0012EF
:108A80006314EAF8EBF9EA4B604588828983E50ACA
:108A9000F0A3E50BF0128B45FAEE6A7001EF602B44
:108AA000EEF04F700888828983E4F0A3F0851A8283
:108AB000851B83AA82AB8312631A851A82851B8366
:108AC000AC82AD837A0CA90D126518790180027908
:108AD00000741A02932F74F71248517F00EF75F05B
:108AE00003A4F8A9F0EC28F8ED128B09E06A7003F2
:108AF000A3E06B7006E8FAE9FB800B0FEFC3940468
:108B000040DB7A007B00028E4839F9888289832213
:108B100074F71248517E00EE75F003A4F8A9F0EA4C
:108B200028F8EB128B09E0F4FCA3E0F4FD888289BD
:108B300083ECF0A3EDF0128B45F4F00EEEC3940439
:108B400040D5028E48E82402F582E93400F583E03E
:108B50002274F412485174F41247FAEAFEEBFF8CC7
:108B60000A8D0BEE4F7005790A028C7B12632CE99B
:108B7000F50CC3940A4024750D007C0679FFE50DC1
:108B800075F00EA4FAABF0749B2AFA74073BFB1243
:108B90006230E97003028C80850D0CE50CC3940AE9
:108BA0004003028C7975F006E50CA4F50DEEFCEFA0
:108BB000FD7A0E7420250DF9126518E50A450B6043
:108BC0000EAC0AAD0B7A1B7421250DF912651874D1
:108BD00018124845128C91600A7A1B7422250DF9EF
:108BE000126518741A124845128C91600A7A107432
:108BF00023250DF9126518741C124845128C9160DA
:108C00001D7A107424250DF9126518741E1248453A
:108C1000AC82AD837A047425250DF91265187C0C9D
:108C20007D0079FF851A82851B83AA82AB8312613E
:108C3000D0851A82851B83AC82AD837A0C74702533
:108C40000CF9126518750A0E750B00780A124A6441
:108C5000EEFCEFFDE50C75F00EA4F8A9F0749B286E
:108C6000FA740739FB1261B8740212481090082791
:108C7000E06003126374126362A90C740C0281D564
:108C8000050DE50DC3940A5003028B7A750C0A801A
:108C9000E8E0FCA3E0FDEC4D2274F412485174F2BC
:108CA0001247FAEAFEEBFFE9C3940A5004EE4F7054
:108CB000047902803E851A82851B83AC82AD837A5B
:108CC0000E75F006E9A42420F912651EE9F50A7074
:108CD00020750C06750D00780C124A647402124857
:108CE00045AC82AD83EEFAEFFB1261B87402124814
:108CF00010A90A0281D374F4124851EAFEEBFF7501
:108D00000A00750C06750D00780C124A64EEFCEF33
:108D1000FDE50A75F00EA4F8A9F0749B28FA740713
:108D200039FB1261CA7402124810E96004A90A8072
:108D30000B050AE50AC3940A40C8790A0281D8746F
:108D4000F712485174F01247FAEAFEEBFF750A0079
:108D5000851A82851B83AC82AD837A1075F006E597
:108D60000AA42423F912651EE9702C7C1079FF8572
:108D70001A82851B83AA82AB83126230E97018EED7
:108D8000FCEFFD851A82851B83AA82AB8312572CC8
:108D9000E97004A90A800B050AE50AC3940A40B0E9
:108DA000790A7410124810028E4874F712485175EF
:108DB0000A00E50A75F00EA4F8A9F0749B28FE7469
:108DC0000739FFEEFCEFFD7A0E75F006E50AA424E4
:108DD00020F912651EE9602C7C067D0079FFEEFA11
:108DE000EFFB1261D07C067D0079FFEE2406FAEFDE
:108DF0003400FB1261D0EE240CF582EF3400F583D1
:108E0000E4F0A3F0050AE50AC3940A40A5900827F8
:108E1000E06003126374126362802D74F71248518C
:108E20007E007F007C0679FFEF75F00EA4FAABF0B0
:108E3000749B2AFA74073BFB126230E970010E0F33
:108E4000EFC3940A40DEEEF97F0102492374F71262
:108E500048517E00EEF912634A0EEEC3940A5003A5
:108E6000E960F180E374F312485174CB1247FAE9D8
:108E7000FF75F006A4F50A7420250AFE742712482F
:108E800045AC82AD837A0EEEF912651EE9600302ED
:108E90008F827C0679FF7427124845AA82AB831221
:108EA0006230E96003028F827C0E7D0079FF7427B7
:108EB000124845AA82AB831261D07C1B7D0079FFEA
:108EC000740C124845AA82AB831261D07C0C7D00E1
:108ED00079FF851A82851B83AA82AB831261D074C5
:108EE00027124845AC82AD837A0EEEF9126518E977
:108EF000F50B740C124845AC82AD837A1B742125A6
:108F00000AF9126518E9FE740C124845AC82AD836B
:108F10007A1B7422250AF9126518E9F50C740C12F3
:108F20004845AC82AD837A107423250AF91265187E
:108F3000E9F50D740C124845AC82AD837A107424A7
:108F4000250AF9126518E9F50E740C124845AC8231
:108F5000AD837A047425250AF9126518E9F50A85A6
:108F60001A82851B83AC82AD837A0C74702FF91240
:108F70006518E9F8EE450C450D450E450A48420BCB
:108F80008003750B00A90B74351248107F05024948
:108F90002374F7124851E990077FF0126338028E6C
:108FA0004874F212485174FB1247FA8A0A8B0BEB91
:108FB0005480700302903990077FE0F91261F48ABF
:108FC0000C8B0DAE0CAF0DEE4F60648E828F83E084
:108FD0002450603814600624E1604A804BA3A3A3A8
:108FE000A3E070448E828F83A3A3A3A3A3A3A312A1
:108FF0004A7B8E828F831288FA8E828F83A3A3127C
:1090000091451262F67402124810801CA3A3A3A318
:10901000E0641E701379008E828F83A3A3129145A2
:109020001262F08003126302EEFAEFFB1261E2AA11
:109030000AE50B6480FB02913AEAA2E04003029148
:10904000369008291288F2740312484585820E85ED
:10905000830F780E124A64750E02750F00780E1297
:109060004A64750E77750F90780E124A647CFF7D06
:10907000FF7A017B0012587C740612481002911E80
:10908000E4F50EF50F780E124A6474041248458513
:10909000820E85830F780E124A6474041248458547
:1090A000820E85830F780E124A64740912484512A5
:1090B0004A7B7902EEFCEFFDAA0CAB0D12599C74B1
:1090C00008124810E97035851A82851B83E0FA740E
:1090D00001124845E0F9EA2400F50EE439F50FEAFB
:1090E000450F6018780E124A648E828F831288FBB7
:1090F000AA0CAB0D1262F67402124810E4F50EF5DC
:109100000F780E124A647405124845124A7B7CFFA0
:109110007DFFEEFAEFFB12588874041248108A0E95
:109120008B0FAE0EAF0FEE4F6003029080E50A6426
:1091300001FAAB0B80047A007B00740502932F8543
:109140000A82850B83E0FAA3E0FB22C082C08390F1
:10915000077FE0F98A828B83A31291451259AE02F0
:109160008564C082C08374FF1247FA12633EE9C36C
:109170009402851A82851B83400474028002740A5B
:10918000F0AC82AD837A01790512583A7401124825
:109190001002856474F212485174E81247FAEAFE2C
:1091A000EBFF890C8C0A8D0B7C187D007900851AE9
:1091B00082851B83AA82AB831261D0851A82851BAC
:1091C00083EEF0A3EFF0900781E0C0E07402124854
:1091D00045D0E0F0900782E0C0E07403124845D02B
:1091E000E0F0900CE0E0C0E07417124845D0E0F0E9
:1091F0007415124845E054FEF8A3E0F9900CDFE046
:10920000A2E0E433FAE84AF8741512484512933E96
:10921000A2E15004D2F08002C2F0E854FDFAA2F0BC
:10922000E43333F8EA48F8741512484512933EA225
:10923000E35004D2F08002C2F0E854F7FAA2F0E45E
:1092400033F50E750F007403780E1247E71293374B
:1092500012484512933EA2E45004D2F08002C2F0BC
:10926000E854EFFAA2F0E433F50E7404780E1247D6
:10927000E712933712484512933EA2E55004D2F00C
:109280008002C2F0E854DFFAA2F0E433F50E740570
:10929000780E1247E712933712484512933EA2E226
:1092A0005004D2F08002C2F0E854FBFAA2F0E4339A
:1092B000F50E7402780E1247E7129337124845E80C
:1092C000F0A3E9F0900782E0601D750E10780E1291
:1092D0004A647C837D077406124845AA82AB8312D8
:1092E00061B87402124810900793E06011E50C60B9
:1092F000097415124845E04402F0780180027800B4
:109300007414124845E048F0900780E06004780447
:10931000800278007414124845E048F0AC0AAD0BA6
:10932000851A82851B83AA82AB8312575074181248
:1093300048107F06024923EA450EF8741522E8F02A
:10934000A3E9F0900CDFE02274F312485174E512A7
:1093500047FAEAFEEBFF8C0B8D0C7428124845E0AF
:10936000F50E75F006E9A4F87408650C7004742213
:109370008002742128F50D7C1B7D007900851A82FE
:10938000851B83AA82AB831261D0851A82851B83D9
:10939000AC82AD837A1BA90D12651EE97032741A76
:1093A000124845E024F9C3940A5025E50EF50D78DE
:1093B0000D124A687401124845AC82AD83E50BA2D8
:1093C000E0E433F9EEFAEFFB125762740112481031
:1093D000741B028F8974F7124851125A20750A00C3
:1093E000E50A75F00EA4F8A9F0749B28FE740739FD
:1093F000FF7C0679FFEEFAEFFB126230E97009EEAE
:10940000FAEFFB7900125A26050AE50AC3940A40CE
:10941000CF028E48C082C0839061907404F0A37420
:1094200048F0A3E4F09061807440F09061BC740750
:10943000F09061877469F09061B67416F07900124B
:109440005CA27902125CA89065DCE493F46006E407
:1094500093F9125C7E7905125F9C029856C082C017
:1094600083E9540FF9906185E0696012E5C6548084
:109470004449F5C6E59E547F644970F8E9F053C647
:1094800080E59E547F70FA02985674F7124851E5B1
:10949000A8FE53A87E125C8AC2BA539AFEC289758E
:1094A0009B00C2C2125C9075A91175B905125C9639
:1094B000D2BA439A0174805E42A8029DE3C082C082
:1094C00083906181E4F0A302985375E900759100DF
:1094D00075BF000244AFC082C083906181E4F0A3F5
:1094E00074C0F0A3E4029855C082C08374F8124798
:1094F000FA9003C3129CC5E849700302959F90033C
:10950000C3E0544060237908851A82851B83AA82B0
:10951000AB83125D98851A82851B83AA82AB831266
:109520005A449003C3E054BFF0E054806010790CBB
:109530007A7F7B05125D989003C3E0547FF0E0A230
:10954000E0500879001295A754FEF0E0540260083C
:1095500079011295A754FDF0E054046008790012D7
:1095600095B254FBF0E05408600879011295B254AA
:10957000F7F0E05410600879021295B254EFF0E071
:109580005420600879031295B254DFF0A3E054012F
:10959000600D125CB4125A569003C4E054FEF0748D
:1095A00008124810029856125CA2125A4A9003C33D
:1095B000E022125CA8125A509003C3E022C082C07D
:1095C00083E9600514602A804F90619A7433F0A398
:1095D0007455F09061A0743AF090055BE0640170FE
:1095E00009C2919003C57467802D9003C574618092
:1095F0002690619A743FF0A3745AF09061A0747F32
:10960000F090055BE064017009D2919003C574711C
:1096100080059003C5746AF0029856C082C083E941
:10962000600B14600D14600F14601180209065D8D9
:1096300080159065D980109065DA800B90055BE00D
:10964000640160F39065DBE493906186F0029856C4
:1096500074EE12485174F41247FA851A82851B83FE
:10966000AC82AD8375839075820B740412470D90A4
:1096700065D893F460030297E2907808E0C39402FF
:1096800050030297C27404124845AC82AD837583BF
:109690008F758269740812470DF97AFF7BFF7FFF8F
:1096A0007E008982858212801874086E700302978A
:1096B0007774096E7003029777740A6E70030297CD
:1096C00077E512C333FCE433FD7404124845E582A8
:1096D0002CF582E5833DF583E0F510A3E0F5118ECE
:1096E0000A750B007402780A1247E77448250AFCD1
:1096F0007478350BFD8C828D83780A1246CA740803
:10970000780A12460B850A0E850B0F8C828D8378A2
:109710000A1246CA7418780A12460BE50E450AF575
:109720000AE50FF50BC3E510950AE511950B8C8240
:109730008D83780A1246CA8C828D83780A1246CAB3
:109740007418780A401412460BE50E450AFCAD0F5A
:10975000E510C39CFCE5119D800F12460BE50E45FC
:109760000AC39510FCE50F9511FDC3EC9AED9B50D3
:1097700006ECFAEDFBEEFF0EEEC3941350030296D7
:10978000A974FF6A700374FF6B602D8F0A740278EE
:109790000A1247E7744812A4717478350BF5837880
:1097A0000A1246CA851A82851B83E5822512F58234
:1097B000E58312A1FEE50AF009E9C394045003020F
:1097C000969A750A01750B00780A124A647402129F
:1097D0004845AC82AD837A767B191263B674021267
:1097E0004810740C1248107F0A024923C082C083BB
:1097F000906186E0F89065DBE4936870099065DA23
:10980000E493906186F09061AE7468F0A3746AF09E
:1098100090624574FBF0A304F053F4FD43FE029004
:10982000055B7401F09061A0E0643A7004790080F7
:10983000027901125CA2029856C082C08390050D85
:10984000E06401700A900512E06004790C800279EE
:10985000008003F0A3F0D083D0820244AFC082C066
:109860008375E1F1900510E0604D146008146051BB
:109870001460498051125CC6900506E0F97A077BB6
:1098800005125F1E9090071246E8125F5490901FD9
:109890001246E8125F2A900511E0F9125F3679014D
:1098A000125F90900504E024161299EB74DEF0A389
:1098B000745CF07900809F125CCC80BC125CD2801A
:1098C000B7125CD880B2791280EB74F412485175EB
:1098D000D90D9004F5E0A2E0E4331313F812995780
:1098E000484401F5D978001299D540FB7800880AE0
:1098F00074F612A47174041299DF40F275E1959028
:1099000004F5E0F97AF67B04125F24900C1174548C
:10991000F0A3745C1299FA129A1A129A11129B52BD
:10992000129961780A1246CA908FFF780A12465639
:10993000909017780A1246A41299E5780A1246D92F
:10994000900504E024141299EB7413F09003C17491
:1099500002F07F04024923900506E0C4333354C06B
:1099600022900504E0F8A3E0F5838882A3A3227483
:10997000F6124851129B238AD978001299D540FBE0
:1099800078008006129A89129BD5E8C39940F51297
:109990009B151299D540FB7800800812A46D7405C0
:1099A000129BD5E8C39940F375E195900C11746052
:1099B000F0A3745C1299FA129A041246E81299E51F
:1099C0001246F4900504E024141299EB7412F090FE
:1099D00003C1029DC0880A7407250AF58274051226
:1099E0009D31940622900504E0240EF8A3E012991C
:1099F000F2223400F98882898322129B3B745AF048
:109A0000A3745C22129A1A129A11129B56908FDB41
:109A100022F0A37472F0A3745C22129A1E22129A8E
:109A20002222F0A37404F0A3745E2274F61248514B
:109A3000129A7E1299574402F5D978001299D540AE
:109A4000FB78008006129A89129BD5E8C39940F5ED
:109A500075E195900C11129A94F0A3129A94129AAF
:109A6000071246E81299E51246F4900504E0241422
:109A70001299EB7414F09003C17404029DC2900516
:109A800016E0F9740729F5D922880A7417250AF512
:109A900082740522746C129AA1129AA1F0A3745CCC
:109AA00022F0A3745CF0A3746C2274F61248511275
:109AB0009B2374064AF5D978001299D540FB7800AB
:109AC0008006129A89129BD5E8C39940F5129B151E
:109AD0001299D540FB7800800812A46D7405129B82
