:020000040000FA
:0600000002011A021C229D
:03002B000222E8C6
:0300430002228C0A
:03005300021C98F4
:03006B0002230C61
:10008300021B13E5C754F84401F5C77901220000A8
:100093000080FB120086B90003020104E479217891
:1000A30008B800028004F709D8FCE479297802B87B
:1000B30000028004F709D8FCE490028178FC790DF2
:1000C3008002F0A3D8FCD9FA781A90014A7A01BACF
:1000D30000028007E493A3F608DAF97A7C7B0F9099
:1000E300014B787379038015E493A3AD82AE838AC1
:1000F300828B83F0A3AA82AB838D828E83D8E9D9C6
:10010300E775829B75837F740012012C758291754C
:100113008300740012012C75D00075813F7518811E
:10012300751902759F00020096C09FF59FE473D076
:100133009F22D083D082C09FE493C0E0740193C018
:10014300E0740293F59F2201FF0000B40000280031
:100153002800283075A000A000A000A0000008001F
:1001630008E001F000100010001000100010001053
:100173000050005000500010001000D00700000095
:100183000000000F0001000500307507001000019A
:100193000081FF0000FFB505D305BB05FF02020286
:1001A30008025000A0000000E803020090010000D4
:1001B300EA8F020490010000D10F020A90010000AF
:1001C300B202020490010000D20F020C9001000061
:1001D300C802020490010000D30F020E9001000038
:1001E300CA02020490010000D40F0210900800001C
:1001F300CB02020490010000D50F0212900100000F
:10020300D60FFF0100FF20020090010000ED8F02D6
:1002130004900100003A1002149000000000000254
:1002230008900300001803CD0BCD0BCD0BCD0BCDE8
:100233000BCD0BCD0BCD0BCD0BCD0BCD0BCD0BCDFB
:100243000BA30EBB0E9D0EFFFF020202020202026F
:100253000202010D0000001001020090010000E401
:100263008F0204900100007D1002169001000078B7
:10027300070204900100007E1002FA8F01000015AE
:100283008F0204900100007F1002F88F0100000725
:100293008F020490010000801002F68F010000A578
:1002A3008E020490010000811002F08F010000B75C
:1002B3008E020490010000821002F28F010000817F
:1002C3008E020490010000831002F48F010000935A
:1002D3008E0204900100008410020290010000F9D4
:1002E3008E02049001000085100222900100008616
:1002F3001001E803053F10FF0001307503020106FA
:1003030000000000000000000000000000000000EA
:10031300000000000000000000000000FFFF0600D6
:10032300800CE8030100070952794D6F76650512C9
:1003330008000800020A000201050302E7FE09FFA4
:100343000D0000000000000052794D6F76652D12FC
:1003530000003312084368617261637465726973E4
:10036300746963203100204368617261637465724C
:100373006973746963203200020090010000E78F03
:100383000204900100008811021E90020000410F38
:1003930002069001000089110204900100009A11E5
:1003A300022090000000730F020890030000740FF6
:1003B3000206900100009B110100120135959C0378
:1003C300120135AC9C03120135DB9C031201351479
:1003D3009D031201353C9D031201356A9D031201F1
:1003E30035819D03120135989D03120135AE9D039E
:1003F300120135D59D03120135E89D03120135FE27
:100403009D03120135269E0312013586A4021201B3
:100413003585A502120135BAA502120135DBA50205
:10042300120135EBA5021201350CA6021201351893
:10043300A702120135E5A70212013558A8021201DD
:1004430035DEA80212013521A90212013558A9028D
:10045300120135DEA902120135B0AA021201350ECE
:10046300AB0212013526AB02120135A0AB02120119
:1004730035A3AB02120135A6AB021201354DAC0216
:1004830012013565AC0212013595AC02120135B586
:10049300AC02120135A3AD0212013559AE021201AD
:1004A300353AEA0212013562EA0212013590EA0294
:1004B300120135C7EA021201352FEB02120135781A
:1004C300EB02120135C3EB0212013501EC021201FA
:1004D300353EEC021201356CEC0212013513ED02CC
:1004E3001201351DED021201352AED021201355DAF
:1004F300ED021201351FEE021201352BEE0212013D
:100503003543EE021201354DEE02120135F1A2031D
:10051300120135FFA20312013517A3031201352F70
:10052300A303120135EEBE011201358CBF01120186
:100533003504C00112013519C10112013553C1013E
:10054300120135FCC101120135D1C2011201353549
:10055300C4011201358CC40112013513C501120106
:1005630035FAC50112013547C601120135D5C60159
:10057300120135F9C601120135CEC8011201350F3A
:10058300C90112013531C901120135B2C901120184
:10059300359CCA0112013562CB01120135D6C9025D
:1005A300120135A8CA0212013551CB02120135944A
:1005B300CB0212013521CC02120135ADCC0212015E
:1005C300358ECD02120135BDCD02120135B9CE02F1
:1005D30012013501CF0212013503D0021201354752
:1005E300D0021201356DD002120135EAA5031201C2
:1005F300350080031201351680031201353C800358
:100603001201356481031201356E8103120135C76E
:100613008203120135C783031201358ED6021201FC
:1006230035C3D702120135F6D70212013540D8027D
:10063300120135FED902120135DEAF011201354137
:10064300B00112013586B10112013596B1011201D3
:1006530035B9B10112013504B201120135A9B20154
:100663001201359FB30112013569B401120135E15D
:10067300B50112013523B601120135C1B6011201CC
:1006830035E7B601120135D5B801120135DAB801E3
:10069300120135BBBA011201350FBB0112013571CD
:1006A300BB0112013599BB011201353DBC01120199
:1006B30035FFBC0112013530BD0112013533BD01D7
:1006C3001201357BBD01120135BDBD011201352477
:1006D300BE011201356A96031201357D960312019C
:1006E30035969603120135E19603120135BC970343
:1006F3001201354B98031201359698031201358484
:100703002300120135902300120135C92300120181
:10071300350E2400120135C524001201354B250086
:10072300120135772500120135B02500120135C4B9
:100733002700120135A029001201358B2B0012016D
:1007430035C22C00120135222F001201350E300064
:100753001201355431001201356132001201357E28
:100763003200120135B63200120135D032001201C7
:1007730035383300120135D2370012013573380092
:10078300120135C43800120135EB38001201353936
:100793003900120135573900120135AB3900120106
:1007A30035B33A001201353B3B00120135A2E0029A
:1007B300120135ACE00212013577E10212013592E4
:1007C300E102120135B8E102120135FCE102120126
:1007D3003534E2021201355DE202120135D6E2023E
:1007E300120135EBE20212013500E3021201353743
:1007F300E3021201354BE3021201357CE3021201DD
:1008030035B6E302120135E2E3021201351AE402BE
:10081300120135B8E40212013501E5021201352B4C
:10082300E50212013550E502120135C6FB02120141
:100833003590FC0212013573FD02120135E9FD0208
:100843001201352BFE0212013558FF02120135E663
:100853008C021201350F8D02120135288D0212010F
:10086300356D8E021201354B8F021201356A8F02EC
:10087300120135F78F021201353A900212013587C2
:100883009102120135269202120135A5940212013A
:10089300353C9502120135109602120135F296028B
:1008A3001201355E9802120135F19802120135D614
:1008B300A0031201353FA10312013593A1031201D5
:1008C30035BAA1031201354AF302120135B7F30217
:1008D30012013502F402120135F7F402120135F365
:1008E300F502120135DDF60212013568C10212016B
:1008F30035AAC10212013584C2021201355DC30259
:1009030012013558C40212013537C502120135A34D
:10091300C5021201356AC602120135D5C60212019B
:10092300353CC70212013567C702120135D8C70229
:100933001201356BC802120135D4C802120135E920
:10094300C80212013531C9021201354AC902120126
:1009530035AFC902120135B2C9021201351D910327
:10096300120135459103120135839103120135417B
:100973009203120135AC9203120135C8920312019E
:1009830035F092031201352093031201352F93039F
:10099300120135A993031201350FA001120135ACE1
:1009A300A10112013592A3011201355CA4011201C8
:1009B30035A3A401120135EAA401120135FCA401F7
:1009C3001201353CA5011201356BA501120135B7A2
:1009D300A501120135EFA5011201351DA601120172
:1009E300356EA601120135FDA601120135EBA901F1
:1009F300120135C5AB0112013501AC011201355BA2
:100A0300AD01120135A2AD0112013517AE0112017C
:100A13003565AE011201358BAE0112013565B802A1
:100A230012013582B8021201351CBE021201351EB5
:100A3300BF0212013598C00212013546C1021201EC
:100A430035665200120135AF5200120135DC5200F7
:100A53001201350F53001201351C530012013528C2
:100A630053001201353A53001201350F540012019D
:100A7300356D5400120135A254001201353E560063
:100A83001201358B5600120135AF56001201351C89
:100A93005700120135C157001201357D580012016C
:100AA30035FC5800120135C05900120135CF5900E9
:100AB300120135505A00120135EF5A001201352147
:100AC3005B00120135BC5B001201351A5C00120198
:100AD30035545C00120135D55C001201359E5D0072
:100AE300120135475E00120135CE5E001201352634
:100AF3005F00120135875F00120135B05F001201FC
:100B030035666000120135B06100120135F36100F2
:100B13001201351062001201352F62001201357A7D
:100B230062001201359F6200120135C86200120192
:100B3300353763001201357963001201357D640096
:100B4300120135176500120135E36500120135FC0A
:100B53006500120135C4AE0212013517AF0212014E
:100B63003523AF02120135F8AF021201351FB0026F
:100B73001201355AB002120135C6B002120135FA1C
:100B8300B00212013533B1021201354BB102120129
:100B930035A4B102120135BDB10212013506B2020C
:100BA30012013519B20212013533B202120135496D
:100BB300B20212013565B30212013576B402120195
:100BC30035C3B502120135A8B602120135FCFF0187
:100BD3001201350080021201353480021201359F63
:100BE3008302120135E98402120135B38502120131
:100BF300353D8702120135188802120135528802E9
:100C0300120135758802120135B78802120135C009
:100C130088021201350A8902120135148902120170
:100C230035C08902120135948A02120135E88A021D
:100C33001201354A8B021201359D8B02120135CC0C
:100C43008B021201350B8C021201352E6600120144
:100C530035886E001201358E6E001201354974001D
:100C63001201352F7800120135D183031201354764
:100C730084031201355D84031201359A8403120142
:100C830035D284031201354F85031201358A85035A
:100C93001201350586031201354186031201354AD7
:100CA300860312013556860312013570860312013D
:100CB30035958603120135AB8603120135D48603BD
:100CC30012013537870312013578E5021201358B9E
:100CD300E502120135A5E502120135CEE502120146
:100CE3003511E60212013550E6021201358EE60295
:100CF300120135F3E60212013508E702120135133A
:100D0300E70212013520E70212013537E70212012B
:100D13003545E70212013550E7021201355CE7025F
:100D23001201356FE7021201357AE7021201359D90
:100D3300E70212013546E80212013556E8021201B4
:100D43003570E8021201358DE802120135A9E80277
:100D5300120135CEE802120135D8E802120135EC52
:100D6300E8021201350BE9021201356CE9021201A6
:100D73003572E90212013578E9021201357EE90282
:100D83001201358AE902120135BDE90212013592D9
:100D9300EA0112013514EB01120135BDEB01120119
:100DA3003505ED0112013513EF01120135F9EF019C
:100DB3001201352EF00112013550F001120135F9FF
:100DC300F001120135C9F201120135F2F2011201EB
:100DD300356AF3011201359CF301120135A9F301C0
:100DE300120135F4F30112013518F40112013569CA
:100DF300F60112013573F701120135CFF701120124
:100E03003597CD01120135A8CE011201358CCF01E2
:100E130012013596CF01120135B8CF01120135C445
:100E2300CF0112013568D10112013595D1011201AB
:100E330035ABD20112013500D3011201354FD40174
:100E430012013524D50112013580D501120135EB8C
:100E5300D50112013520D60112013563D6011201E5
:100E6300352DD90112013545D901120135D6D901E4
:100E7300120135E4D90112013531DA011201353F8E
:100E8300DA01120135ABDA0112013526DB01120159
:100E9300357DDB011201356899021201358A990209
:100EA3001201359B9B021201355A9E0212013584B1
:100EB3009F0212013542A0021201352EA102120136
:100EC30035DC9A03120135019B03120135779B032D
:100ED3001201357E780012013587780012013590B2
:100EE3007800120135687900120135197B0012016F
:100EF30035497B00120135747B00120135A47B0058
:100F0300120135CF7B00120135037C001201352F0E
:100F13007C00120135727C001201359D7C001201A8
:100F230035E47C00120135397D001201357B7D00EB
:100F3300120135D57D00120135007E001201354FB7
:100F43007E001201357F7E00120135AA7E00120158
:100F530035D87E00120135FB7E0012013573A603DE
:100F63001201359FA603120135CCA603120135D613
:100F7300A603120135E6A603120135E2D0021201DF
:100F830035ECD0021201352ED10212013579D1028E
:100F9300120135D0D1021201352AD2021201354B8A
:100FA300D20212013555D202120135A6D202120124
:100FB30035D4D202120135C3D302120135E9D4026A
:100FC30012013529D5021201356FD502120135817F
:100FD300D502120135A0D502120135A9D50212019D
:100FE3003564D602120135959F03120135F08A0349
:100FF300120135268B031201359D8C03120135F640
:101003008D0312013552A50312013568A5031201A0
:101013003572A503120135BCA503120135F0A603F1
:10102300120135B4DB02120135C9DB02120135B1FD
:10103300DC02120135E5DC0212013532DD02120158
:101043003590DD02120135FCDD0212013537E00275
:10105300120135C8A303120135F1A3031201351F91
:10106300A4031201356787031201358C870312012C
:1010730035B88703120135B5FF01120135A23B00D4
:10108300120135A63D00120135663F00120135E914
:101093004000120135AB4200120135D44200120167
:1010A30035C8460012013525480012013565480050
:1010B300120135374A00120135184B001201350968
:1010C3004C00120135194C00120135A850001201D1
:1010D30035B4A7031201358EA4031201359EA40370
:1010E300120135AAA40312013545A503120135EBFC
:1010F300A10312013572A203120135D8A203120112
:1011030035F37F001201359EA703120135AEA70305
:10111300120135B1A703120135F87F00120135C062
:101123009803120135D99A031201351CF8011201F3
:1011330035C8F8011201350FFA0112013564FB01BC
:1011430012013538FC0112013501FD011201353E52
:10115300FD01120135D9FD01120135EFFD01120127
:10116300356AFE0112013580FE0112013593FE013D
:101173001201359DFE0112013570FF011201353850
:101183009E031201358D9E031201350A9F0312013E
:1011930035F193031201351B9403120135F09403C7
:1011A300120135F8950312013515DC01120135DB07
:1011B300DF011201357BE001120135E3E301120186
:1011C3003596E701120135ADE70112013558E90102
:1011D300120135A2E901120135259001120135BB37
:1011E30094011201353A96011201359196011201CB
:1011F30035B39601120135319701120135059B0173
:10120300120135119C01120135E2EE02120135691A
:10121300EF02120135EBEF0212013518F002120151
:10122300359FF70212013575F9021201354AFA02A8
:101233001201355AFB02120135308E031201357546
:101243008E03120135928E03120135C98E031201EA
:1012530035758F03120135809003120135B7900362
:10126300120135B2FF0212013554A7031201358072
:10127300A703E066701008A3E066700A08A3E0669F
:10128300700408A3E06622C3E7960809E7960809F5
:10129300E7960809E79622C3E09608A3E09608A319
:1012A300E09608A3E09622C008C3E096F50808A3D9
:1012B300E096420808A3E096420808A3E096450892
:1012C3007001D3D00822080808EAC0E0EBC0E0862A
:1012D300F0E7A4FA180986F0E7A42AFA180986F0B9
:1012E300E7A42AFA180986F0E7A42AFA1986F0E790
:1012F300A4FBE5F02AFA190886F0E7A42BFBE5F036
:101303003AFA190886F0E7A42BFBE5F03AFA181825
:101313000986F0E7A4C5F02BFBE43AFA1908E7C500
:10132300F0C6A426F6E5F03BFBE43AFA1886F0E7AC
:10133300A4F6E5F00826F6E43B08F6E43A08F6D00E
:10134300E0FBD0E0FA22E4CFC0E0E4CEC0E0E4CD9D
:10135300C0E0E4CCC0E075F020E626F608E633F6FC
:1013630008E633F608E633F6181818EC33FCED33C9
:10137300FDEE33FEEF33FFC3EC9709ED9709EE97CC
:1013830009EF97191919400FFFEC97FC09ED97FD29
:1013930009EE97FE191906D5F0BFECF709EDF70929
:1013A300EEF709EFF7191919D0E0FCD0E0FDD0E012
:1013B300FED0E0FF226016080808C6C313C618C68D
:1013C30013C618C613C618C613C6D5E0EA22700999
:1013D300080808226016181818C6C333C608C6338F
:1013E300C608C633C608C633C6D5E0EA22E627F6E2
:1013F3000809E637F60809E637F60809E637F6225C
:10140300E026F608A3E036F608A3E036F608A3E0E4
:1014130036F622E026F008A3E036F008A3E036F023
:1014230008A3E036F022C3E697F60809E697F60824
:1014330009E697F60809E697F622C3E096F008A3B3
:10144300E096F008A3E096F008A3E096F022E056B9
:10145300F608A3E056F608A3E056F608A3E056F60E
:1014630022E056F008A3E056F008A3E056F008A3E4
:10147300E056F022E0F608A3E0F608A3E0F608A39E
:10148300E0F622E6F008A3E6F008A3E6F008A3E6F8
:10149300F022E0FAA3E0FBA3E0FCA3E0FD22EAF0E4
:1014A300A3EBF0A3ECF0A3EDF022E0F8A3E0F9A3A3
:1014B300E0FAA3E0FB22E8F0A3E9F0A3EAF0A3EB50
:1014C300F022CAC0E0E6F0A308DAFAD0E0FA22CAB2
:1014D300C0E0E0A3C582CCC582C583CDC583F0A39C
:1014E300C582CCC582C583CDC583DAE6D0E0CA22E6
:1014F300C3E498F8E499F91215348026C3E49AFA00
:10150300E49BFBE920E7E9121534E498F8E499F940
:1015130022C3E498F8E499F9121534E498F8E499AD
:10152300F9C3E49AFAE49BFB22EB20E7CFE920E737
:10153300E0B90010BB0008E88AF084F8AAF022E4BE
:10154300FBC8FA22EB70227B10C833C8C933C933F6
:101553005007C39AC3DBF280069A50012ADBEAC81C
:1015630033F4C8C933F4C9FA2275F008E4C833C8A0
:10157300C933C933C99AC99B5004C92AC93BD5F099
:10158300ECFBC833F4C8E4C9FA22600D08C6A2E72D
:1015930013C618C613C6D5E0F322600C08C6C313DE
:1015A300C618C613C6D5E0F422700422600D18C60F
:1015B300C333C608C633C6D5E0F41822251810AFC6
:1015C30008F518400C15198008F51840021519D2B2
:1015D300AF2200C0D0251810AF08F518500C05191C
:1015E3008008F51850020519D2AFD0D0222518F57E
:1015F3008210AF08F518400C15198008F518400241
:101603001519D2AF851983222518F582E43519F50A
:1016130083222518F8E43519F9222518FAE4351937
:10162300FB222518FCE43519FD22E4732518C58235
:10163300C0E0E51934FFC583C0E0E518C3958224F3
:10164300F810AF088583198582188008858319856A
:101653008218D2AFCEF0A3E520F0A37808E608F015
:10166300A3DEFAEFF0A3E58124FAF8E608F0A3E697
:1016730008F0A3E608F0A30808E608F0A3E608F0DC
:10168300A315811581D0E0FED0E0F81581158115F1
:1016930081E8C0E0EEC0E0222518C582C0E0E5196C
:1016A30034FFC583C0E0E518C3958224F910AF0861
:1016B3008583198582188008858319858218D2AF9E
:1016C300CEF0A3E520F0A37808E608F0A3DEFAEF56
:1016D300F0A3E58124FBF8E608F0A3E608F0A308ED
:1016E30008E608F0A3E608F0A315811581D0E0FE13
:1016F300D0E0F815811581E8C0E0EEC0E02285193D
:1017030083851882E0A3FEE0A3F5207808E0A3F622
:1017130008DFFAE0A3FFE0A3C0E0E0A3C0E0E0A39A
:10172300C0E0E0A3C0E0E0A3C0E010AF08858218EA
:101733008583198008858218858319D2AFD083D019
:1017430082020132851983851882E0A3FEE0A3F5A6
:10175300207808E0A3F608DFFAE0A3FFE0A3C0E0E7
:10176300E0A3C0E0E0A3C0E0E0A3C0E010AF0885C1
:1017730082188583198008858218858319D2AFD092
:1017830083D08222C0D02518C582C0E0E51934FF7A
:10179300C583C0E0E518C3958224F310AF088583A1
:1017A300198582188008858319858218D2AFC8F0FD
:1017B300A3E9F0A3EAF0A3EBF0A37908E709F0A308
:1017C300D8FAECF0A3EDF0A3EEF0A3EFF0A3D0E092
:1017D300F0A3D0E0F0A3D0E0F0A3E520F0A3E5F080
:1017E300F0A322851983851882E0C0E0A3E0F9A362
:1017F300E0FAA3E0FBA37808E0F608A3DFFAE0FC35
:10180300A3E0FDA3E0FEA3E0FFA3E0C0E0A3E0C0EC
:10181300E0A3E0F5D0A3E0F520A3E0A3F5F010AF3B
:10182300088583198582188008858319858218D2D3
:10183300AFD082D083D0E0F8D0E032740480067455
:101843000280027401C0E0F4041215F0D0E0121417
:10185300C5227404800474028000CCC0E0EDC0E0B3
:10186300E518C39CCCAD1950011D10AF068C188D23
:101873001980068C188D19D2AF1214D2D0E0FDD086
:10188300E0FC22D083D082E9C0E0E493A3C386F0D6
:10189300C5F095F0F908E493A386F0C5F095F070D0
:1018A3000BE493A3C3994005E9048002A3E475F014
:1018B30002A42582F582E5F03583F583D0E0F9E4CF
:1018C30093A3C0E0E493C0E022D083D082ECC0E0D5
:1018D300EDC0E0E493A3FCE493A3FDED4C600D1293
:1018E3001918EC24FFFCED34FFFD80EFE493A3FC17
:1018F300E493A3FDED4C600D121957EC24FFFCEDAE
:1019030034FFFD80EFD0E0FDD0E0FCE493A3C0E022
:10191300E493C0E022C0E0C3E49396087401939675
:1019230018400FE4936670080874019366187000FA
:101933007019A3A3C3E49396087401939618A3A301
:10194300400DD0E0D0E0D0E0021908A3A3A3A3A3E5
:10195300A3D0E022C0E0C0F088F0E49366700808EA
:1019630074019366187000A8F0A3A3700BD0F0D095
:0F197300E0D0E0D0E0021908A3A3D0F0D0E0222A
:1019840074F512169BEAFEEBFFEE2434F8EF3400F4
:10199400F988088909EE2435121ABCF8EE243712A6
:1019A4001ABCF50AEC850AF0A4FCAAF0850AF0ED4D
:1019B400A42AFDE82CF8E43DF97A257B00121534BD
:1019C400EA850882850983F05407F87401B8000297
:1019D4008004C333D8FCC0E0E0131313541FF8EEA3
:1019E40028F8EF3400F9E8245DF582E93400F58342
:1019F400D0E0F8E0586008850882850983801DEEF0
:101A04002436121ABCF5F0EA84A8F0EE28F8EF3474
:101A140000F9E82438F582E93400F583E0F97F041D
:101A240002174774F512169BEAFEEBFFEE243412FC
:101A34001ABCC0E0EE2435F582EF3400F583D0E023
:101A4400F08E828F83A3A3A3A3A3E0FAA3E0FB8E6B
:101A5400828F83A3A3A3A3A3A3A3E0FCA3E0FDEC31
:101A6400C39AF50AED9BF50BEE2480F508EF3400DC
:101A7400F509850882F583E06401702BEE2481F575
:101A840082EF3400F583121859121AC57402121524
:101A9400D5E960137CFD7D04EEFAEFFB120AFB85A9
:101AA4000882850983E4F0AC0AAD0BEEFAEFFB1271
:101AB400198412227E021A22F582EF3400F583E0A3
:101AC40022C082C083851882851983E0F8A3E0F9D7
:101AD400C3EA9CEB9D5012C3EC98ED994019C3EAFC
:101AE40098EB99501279018010C3EA98EB9940F56C
:101AF400C3EC98ED9950EE7900D083D08222EAC3EA
:101B04009CFAEB9DFB2200008521878522C622C01A
:101B1400E074EF121787759B00906182E0A2E640A3
:101B240003021BD4E591A2E64003021BD47591BFC6
:101B34009003C2E064057008120C99120CA580038E
:101B4400120C9F752100120D11E99003C3F0790066
:101B5400120D05120A657A017B009003C1E0F912A7
:101B64000FBD907803E064426003021C1D90055F82
:101B7400E014F06003021C1DC2AF121B8100782A1E
:101B8400D0E0F618D0E0F6E59F5407F97005908F81
:101B9400688003908F6C7808121477E9C4C0E078E9
:101BA40029E65508F50808E65509F509740B78087F
:101BB40012159DD0E02508F8906270E0A2E740F885
:101BC400E8C333906272F0906270E0D2E0F0804932
:101BD400E0A2E55024E591A2E5501E7591DF900343
:101BE400C2E0640D70139003E4E004F06428700212
:101BF400E4F07A00E0F9120D83906181E0A2E350F1
:101C040009E5E9A2E3500375E9F7A3E0A2E7500967
:101C1400E591A2E7500375917F7F040217E6C0E0C7
:101C2400C0D0C082C083906183E0A2E05009E5BFC8
:101C3400A2E0500375BFFEE0A2E15009E5BFA2E1B6
:101C4400500375BFFDE0A2E25009E5BFA2E25003D4
:101C540075BFFBE0A2E35009E5BFA2E3500375BFE3
:101C6400F7E0A2E45009E5BFA2E4500375BFEFE03A
:101C7400A2E55009E5BFA2E5500375BFDFE0A2E687
:101C84005009E5BFA2E6500375BFBFD083D082D010
:101C9400D0D0E032C0E074F2121787E5A7A2E45076
:101CA4000FE5A1A2E4500953A7EF75A1EF121CECB4
:101CB400E5A7A2E5500CE5A1A2E5500653A7DF7500
:101CC400A1DFE5A7A2E15009E5A1A2E1500375A1B6
:101CD400FDE5A7A2E2500CE5A1A2E2500653A7FB42
:101CE40075A1FB7F010217E674F812169B7521019A
:101CF4009003C2E0640670077A007B00120C81A294
:101D0400AFE433FED2AF9003C8E0640170187A20C8
:101D14007B009003C1E0F912103B7A207B00900312
:101D2400C1E0F9120FC3906182E0D2E6F090055E43
:101D3400E0602185C62280169003C7E06401700824
:101D4400E5C654F84405F5C653BEFC121B0C7401D9
:101D5400652160E4EEA2E092AF7F01021747000024
:101D64008E238F248582288583278518828519836D
:101D7400E0CEA3E0CF852882852783EBC9EAC8EDAE
:101D8400CBECCA75F010C3E833C8E933C9EA33CAE7
:101D9400EB33CBC3EA9EF526EB9FF525B35004AB9A
:101DA40025AA26EC33CCED33CDD5F0DAAE23AF241F
:101DB4002274E912169B74FA1215BFEAFEEBFF8C2B
:101DC400088D099003C2E024F7C394055006908F50
:101DD400BC021EDC120BFD8A0A8B0BEA450B700356
:101DE400021ED9120CB78A0C8B0D120CB7EA650CC3
:101DF4007003EB650D60ECEEFCEFFD851882851930
:101E040083AA82AB83120CBD850A82850B83A3A3AC
:101E1400780C121477908FDC780C12145185188288
:101E24008519837814121477908FDC781412145166
:101E3400780C791412128A501F780C791412142910
:101E4400908F8C780C1212AA4047850C10850D11C6
:101E5400850E12850F138041851410851511851682
:101E6400128517137810790C121429908F8C78101E
:101E74001212AA501C75100075110075120075130A
:101E840001781079141214297810790C1213F08047
:101E940008908FBC7810121477740978101213D13B
:101EA400908F90780C1214777810790C1213499053
:101EB40003C2E06408600AE064066005E06405703B
:101EC4001C908FD878101212AA5012908F94781008
:101ED4001214038008908FC078101214778508823A
:101EE400850983781012148674061215D57F1002A2
:101EF400174774F712169B120CCF90055CE064012F
:101F04007010906245E4F0A3F053F4F343FE0C53D5
:101F140090F3120C6FE5C654804449F5C6E59E540F
:101F24007F644970F8906185740FF090055AE0F46D
:101F34007002A3E0602C75080175090090055AE051
:101F440078081215ACE508F4FAA3E0600814600AF6
:101F540014600C800DEA52808008EA52908003EAF3
:101F640052A079007F0202174774F712169BE9FE0C
:101F7400EAFF74016E700C7A807B009003C1E0F973
:101F8400120FBD90237CE493F46008E493F9120AE1
:101F940047800953C680E59E547F70FA120C7590F1
:101FA400055CE064017003120A7D90055AE0F47048
:101FB40002A3E0602A75080175090090055AE078CB
:101FC400081215ACAA08A3E0600814600A14600C97
:101FD400800DEA42808008EA42908003EA42A0121F
:101FE4000BFD8A088B09A808A909E8496017E5E1EF
:101FF40070FCE82414F582E93400F583E0F874FFFA
:1020040068600288E174016F700A7A019003C1E08C
:10201400F9121011021F6874F112169B8A088B09B9
:102024008C0A8D0B740F12160B780C121477908F88
:10203400DC7808121451908FDC780C121451780853
:10204400790C12128A50157808790C121429908F81
:102054008C78081212AA401579018013780C79083B
:10206400121429908F8C780C1212AA40EB79007FFD
:102074000802174774ED12169B8A088B098C0A8D87
:102084000B741312160B780C121477908FDC7808EB
:10209400121451908FDC780C121451780C790812B8
:1020A400128A40117808790C121429AA08AB09ACD9
:1020B4000AAD0B802275100075110075120075139E
:1020C400017810790C121429781079081213F0AAE7
:1020D40010AB11AC12AD137F0C021747908FDC7854
:1020E400081214778A828B8378081214647F04029E
:1020F400174774F512169B8C828D83780812147717
:102104008A828B83780812143D12214AC3E098F026
:10211400A3E09912213C401E908FA87808121477EE
:102124008A828B8378081214168E828F83E024208F
:10213400F0A3E0344EF080A4F08E828F83C3E09449
:1021440020A3E0944E22EA2404F8EB3400F9E8FEDC
:10215400E9FF8C828D83A3A3A3A3E0F8A3E0F98E07
:10216400828F832274F512169BE9FE900514E0FA1F
:10217400A3E0FBEEC333F8E433F974E928F5827481
:102184008E39F583E02AF508A3E03BF509780812B7
:102194001842908FC8121495121D6474021215D53A
:1021A4008A088B098C0A8D0B741078081213B8AA4C
:1021B40008AB097F0402174774F112169B8A0C8B33
:1021C4000D8C0E8D0F740F12160BE0FAA3E0FB7446
:1021D4001112160BE0F508A3E0F509741312160B9F
:1021E400E0FEA3E0FF7808121842EA2401F508EBA8
:1021F4003400F509E4F50AF50B780C79081212C9D4
:10220400908FA07808121477780C79081212C9AA52
:102214000CAB0DAC0EAD0F121D6474021215D58BF0
:1022240009EA450960047A0180027A00EC2AFCED8F
:102234003400FDECF8EDF97A717B0212153488084C
:102244008909E4F50AF50B8E828F837808121486C7
:10225400ECF8EDF97A717B021215348A088B097453
:102264000578081215AC8E828F83A3A3A3A3E50877
:10227400F0A3E509F07F08021747C082C083E99004
:102284006000F0D083D08222C0E0C0D0E8C0E0E992
:10229400C0E0EAC0E0EBC0E0ECC0E0EDC0E0EEC0BE
:1022A400E0C082C083C0F0A2AFE433FED2AFC2C0AC
:1022B400E5D1A2E4500653D1EF121179751A00EE5C
:1022C400A2E092AFD0F0D083D082D0E0FED0E0FD87
:1022D400D0E0FCD0E0FBD0E0FAD0E0F9D0E0F8D0D8
:1022E400D0D0E032C0E0C0D0E8C0E0E9C0E0E5A86A
:1022F400D2AFC2C7751A00A2E7A2E792AFD0E0F945
:10230400D0E0F8D0D0D0E032C0E0C0D0E8C0E0E9FE
:10231400C0E0EAC0E0EBC0E0ECC0E0EDC0E0EEC03D
:10232400E0EFC0E0C082C083C0F0E5A8FED2AF7584
:102334008900C2C57A047B00900F28E0F9120FBD12
:10234400EEA2E7A2E792AF7C097D007A227B8F7927
:1023540000121167D0F0D083D082D0E0FFD0E0FE2D
:10236400D0E0FDD0E0FCD0E0FBD0E0FAD0E0F9D042
:07237400E0F8D0D0D0E03208
:10237C00FFFFFFFFFFFFFFFFC082C083E990103912
:10238C00F00225A374F712162FE99002E0F07C18E6
:10239C007D037AFF7BFF1207899002E174FFF0A3A3
:1023AC00F0A3E4F0A3F079051207179002E0E0F92E
:1023BC001206457AA17B071209630232B174F4123A
:1023CC00162F8A088B09EB548060309002E0E0F9FC
:1023DC00120FB78A0A8B0BAE0AAF0BEE4F60138E3F
:1023EC00828F83E064B07003120729EEFAEFFB12C0
:1023FC000FABAA08E5096480FB80047A007B00021D
:10240C00257274F212162F74FC1215BFEAFEEBFF44
:10241C00741212160B123798EE4F70030224B1741B
:10242C000212160BEEF0A3EF1227ADECF0A3ED1297
:10243C0027ADAA82AB8312063FE9F50A706AE5085C
:10244C00450960648E828F8312377EEE4F60567A18
:10245C00067B00120FF98A0C8B0DA80CA90DE8490C
:10246C007005750A13804188828983E41224BEEEBC
:10247C00F0A3EF1237A9E508F0A3E509F09002E606
:10248C001225459002E6700512325B801B12324910
:10249C008003EAFCEBFD8C828D8312254570F38C56
:1024AC00828D8380E3750A02A90A74041215D50281
:1024BC003998F0A312374FA32274F212162F890AFF
:1024CC00E975F017A4FEAFF09002E5E4F09002E39A
:1024DC00122545600A120FFF9002E3E4F0A3F0EE20
:1024EC00FAEFFB120FF98A088B09EA4509602FEE07
:1024FC00FCEFFD7900120F999002E3E508F0A3E5DB
:10250C0009F07B00800812252FE4F0A3F00BEBC33D
:10251C00950A40F2E50A9002E5F079008002791301
:10252C00023998EB75F017A4F8A9F09002E3E028B3
:10253C00FAA3E0398A82F58322122EEDEA4B22743B
:10254C00F412162F7900EAA2E0501B75084A75099F
:10255C008F78081218427C047D007A3B7B1012079E
:10256C001174021215D57F04021701C082C083902A
:10257C0002E61225AA601C88828983A3A3E06A70F4
:10258C0003A3E06B8882898370E8A3A3A3A3122E14
:10259C00E980047A007B00D083D082020132123AA7
:1025AC007EE8492274EE12162F74FC1215BFEAFE57
:1025BC00EBFF851882851983E4F0A3F0EE24021258
:1025CC00323BEE2405123756EE2404F50EEF122B97
:1025DC0062E024FE603924FC604624FE605224FE36
:1025EC00605E24FE70030226C324FE7003022727BC
:1025FC0024FE700302273624FE700302274524FCB8
:10260C00700302275424FE70030227630227A09054
:10261C0002FF7417F0A3E41227B51203C30227A01C
:10262C00851882851983AC82AD8312072F0227701F
:10263C00851882851983AC82AD8312073502277009
:10264C00850C08850D09740212160BAC82AD8385BE
:10265C000882850983122EE91206638A0C8B0DAC55
:10266C000CAD0DEC4D603BE4F50CF50D780C12182F
:10267C0042750CFF750D02780C121842750C007522
:10268C000D03780C121842740812160B12185912FA
:10269C003AA21215D5E9F50C700B122EDF1203DBE2
:1026AC00800F750C018508828509831227A31232CD
:1026BC005B850C08022773740212160BAC82AD8377
:1026CC00850C82850D83122CB4603C850C82850DA3
:1026DC0083A3A31218597510FF75110278101218E4
:1026EC0042751000751103781012184274081216F6
:1026FC000B121859123AA21215D5E9F509700B12E2
:10270C002EDF1203E1800F750901850C82850D8384
:10271C001227A312325B850908804C851882851913
:10272C0083AC82AD8312073B803A8518828519836E
:10273C00AC82AD83120741802B851882851983AC3E
:10274C0082AD83120747801C851882851983AC8261
:10275C00AD8312074D800D851882851983AC82AD2F
:10276C0083120753E9F508E50860298E828F83A34D
:10277C00E06414601F850E82850F83E09002FF12C7
:10278C0027AD123A7A90030012325BE508A31227A8
:10279C00B51203BD02314A123A7E8518828519831F
:1027AC0022F085188285198322F07CFF7D02850A30
:1027BC0082850B83122EED2274EE12162F74FC12EE
:1027CC0015BF8A0A8B0B8C0E8D0FEA2405F508EBCE
:1027DC003400F5097C157D0079007AFF7B02120F1D
:1027EC0099E5082402F50CE50912375985188285FC
:1027FC0019838582108583117810121842850882FE
:10280C00850983A3A3A3A3122CAB121842E50824B9
:10281C0005F510E5093400F5117810121842850CF5
:10282C0082850D8312300012065D74061215D58A4E
:10283C00108B11AE10AF11E50A2402F50AE50B124C
:10284C00323EEE4F70030229828017740212160B6F
:10285C00122EE988828983EAF0A3EBF09002FFE064
:10286C0004F09002FFE0C394054003022982E4F5D2
:10287C0010F51178101218427510E87511027810C5
:10288C001218427510E9751102781012184274066C
:10289C0012160B1218597910EEFCEFFD123AA41215
:1028AC0015D5E9705E850882850983A3A3A3A3A32C
:1028BC00A3A3E0F89002E8E0687048122CAB121861
:1028CC00427CE97D02E5082408FAE5093400FB1294
:1028DC000F9374021215D5E960298E828F83A3A3FE
:1028EC00A3A3122EE99002FFE0F5107402781012E7
:1028FC0015AC74002510F58274033511F583EAF0DC
:10290C00A3EBF0740212160B8582108583117810DC
:10291C00121842740212160B121859850C82850D6E
:10292C0083122F0F1215D58A108B11AE10AF119088
:10293C0002FFE0F510751100740278101215AC74DA
:10294C00FF2510F874023511F988828983A31225AA
:10295C0045700302284EE82403080808E93400F9FE
:10296C00EE4F60030228578882898374FFF0A3F02E
:10297C009002FFE004F09002FFE0600A122EDF12DA
:10298C0003CF7900800B8508828509831232527936
:10299C000A02314A74EA12162F74FE1215BF8C12F9
:1029AC008D13EA2405F50CEB123A8C12378275085C
:1029BC0000750900EA2402F510EB3400F5118518B6
:1029CC008285198385820A85830B780A12184285C1
:1029DC000C82850D83A3A3A3A3122B78121842E5B6
:1029EC000C2405F50AE50D12323E780A12184285C0
:1029FC000C82850D83122B7C12065D74061215D584
:102A0C008A0A8B0BEA450B7003022B1DEA2404F592
:102A1C000EEB122B621237828A828B83A3A3A3E064
:102A2C00F9851082851183122EF36003022B1DE4AD
:102A3C00F514F51578141218427514E8751502780A
:102A4C00141218427514E975150278141218427490
:102A5C000612160B1218597913AC0AAD0B8510829D
:102A6C00851183123AAA1215D5E9F5096003022BD8
:102A7C001D9002E8E0F8E5087009E02402900300DC
:102A8C00F08014900300E0FCE82402FAE43400FB2C
:102A9C00EA6C7001EB707E850882AA82122CA294DB
:102AAC0014122C9A506B850E82850F83E0C0E07453
:102ABC00012A122B59D0E0F00508850E82850F8370
:102ACC00A3E0C0E085080A7401250A122B59D0E056
:102ADC00F005089002E8122B781218427CE97D026E
:102AEC0085080A7401250A122B6C1215D59002E880
:102AFC00E02508F50874FF6E700374FF6F6012EE2A
:102B0C0024010EEF3400FFE508C39414500302298E
:102B1C00CAE5086013122EFD851082851183122ED2
:102B2C00E91203D579008014E509700375090A854B
:102B3C001282851383EEF0A3EFF0A909740212152B
:102B4C00D57F0E02170185080C7401250CF58274D3
:102B5C00033400F583223400F50F850E82F58322B1
:102B6C00FA74033400FB120F817402221237B8225C
:102B7C00A3A3122B8222123249FDEEFAEFFB227430
:102B8C00EE12162F74FE1215BF8C0E8D0FEA240553
:102B9C00F50CEB123759750B009002FFE4F0F50AB7
:102BAC00EA2402F508EB3400F50980449002FFE0BA
:102BBC00FA9002E8E0F8122CA29417122C9A400D0D
:102BCC009002FFE0F87416C3989002E8F0122CAB58
:102BDC001218427CE97D0274002AFA7403122B6FDE
:102BEC001215D59002E8E0F89002FFE028F0050AF3
:102BFC00E50C2416F582E50D122B5DE0F8E50AC311
:102C0C009850749002FFE0C39416506BE50AC333DE
:102C1C00F8E433F9E50C28FEE50D39FF85188285BB
:102C2C001983AC82AD838E828F83122CB47008759D
:102C3C000B0112324E8050E4F510F5117810121879
:102C4C00427510E875110278101218427510E9756A
:102C5C0011027810121842740612160B12185979B8
:102C6C0016850882850983123AAA1215D5E9F50B47
:102C7C007003022BB880BB7CFF7D0285088285091E
:102C8C0083122EE91203E7A90B740202314CE9946A
:102C9C0000C365D03322EA28F8E43400F9E822E0D6
:102CAC00F5107511007810221231418A108B11AC7D
:102CBC0010AD11EC4D2274EA12162F74FC1215BFD4
:102CCC008A0C8B0D8C128D13EA2405F50AEB12324B
:102CDC003E750800750900E50A2402F510E50B3471
:102CEC0000F511740212160B85820E85830F780E77
:102CFC00121842850A82850B83A3A3A3A312375E05
:102D0C00121842E50A2405F50EE50B3400F50F7890
:102D1C000E121842851082851183123244122EE352
:102D2C0012065D74061215D58A0E8B0FAE0EAF0F00
:102D3C00E50C2402F50EE50D3400F50F8038888281
:102D4C00898374FFF00508122B5274FFF00508906C
:102D5C0002E8E0F50C750D00780C1218427CE97D48
:102D6C000285080C7401250C122B6C1215D59002DF
:102D7C00E8E02508F508EE4F60278E828F83A3A329
:102D8C00A3E0F9850E82850F83122EF3EE24041234
:102D9C003756E96027850C82850D83122ED51232A9
:102DAC005BE5087003022EBB122EFD850E82850F8B
:102DBC0083122EE91203ED7900022ED0E4F514F5FE
:102DCC001578141218427514E87515027814121837
:102DDC00427514E97515027814121842740812160B
:102DEC000B1218597911EEFCEFFD850E82850F83BD
:102DFC00123AAA1215D5E9F509709A850882AA82A9
:102E0C00EA9002E87009E02404900300F08025E0C9
:102E1C00F8900300E0F514E82404FCE43400FDEC25
:102E2C0065147001ED7081122CA29412122C9A4030
:102E3C0003022DB4850C82850D83E0C0E074012A59
:102E4C00122B59D0E0F00508850C82850D83A3E088
:102E5C00C0E0122B52D0E0122F1885820C85830D06
:102E6C00780C121842740412160B12185985108221
:102E7C00851183122F0F1215D58A0C8B0DAE0CAF4A
:102E8C000D85080C7401250CF874033400F9EE4F11
:102E9C007003022D4A851882851983E08882898304
:102EAC00122F18A3E0C0E0122B52D0E0022D58E5EF
:102EBC0009700375090A850A82850B83122ED512B7
:102ECC00325BA9097404022B4A123A7E8512828560
:102EDC001383227CFF7D02850A82850B83122EEDE3
:102EEC0022E0FAA3E0FB22122EED12064BE9F509C3
:102EFC0022900300E0F5F0E508849002FFF07CFFDF
:102F0C007D0222122B82120669740422F0050885B8
:102F1C0018828519832274EC12162F74FE1215BFB9
:102F2C008A088B098C0E8D0FEA2405FEEB3400FF0A
:102F3C0012312BEE2418123756EA450B7003022F70
:102F4C00CE1231145029122FF38A108B11EA45112D
:102F5C00606B7912AC0AAD0B850882850983122E41
:102F6C00E985108285118312162DE9F50A7058E453
:102F7C00F50AF50B780A1218428E828F83A3A3E010
:102F8C00F50A780A121842EE240312323B780A1220
:102F9C0018428E828F831230001207777406121536
:102FAC00D5E9F50A7021850C82850D83E0701F85AB
:102FBC000882850983122EE91203F38011750A0E1B
:102FCC008009750A018004E50A600312324E850CF3
:102FDC0082850D83E0600479008002A90A740212D4
:102FEC0015D57F0C021701851882851983122EEDD9
:102FFC0012076522123249FD850882850983122E3B
:10300C00ED2274EE12162F74FE1215BF8A088B096E
:10301C008C0C8D0DEA2405FEEB3400FF750E0012AE
:10302C00312BEA450B70030230F2123114502C1282
:10303C002FF38A0E8B0FEA450F604A7912AC0AAD5A
:10304C000B850882850983122EE9850E82850F83F4
:10305C0012162DE9F50E60030230F58508828509FC
:10306C0083123330AA0AFB12310670147AFF7BFFED
:10307C00123106606C88828983E50AF0A3E50BF0B7
:10308C00750A008007750E0E805F050A9002E5E058
:10309C00FAE50AC39A504AE50A75F017A4FAABF0A0
:1030AC0088828983A3A3E02AFAA3E03BFB8A828B64
:1030BC0083123244EC4D70D2750A17750B00780AE6
:1030CC00121842EEFCEFFD120F8174021215D5EEB0
:1030DC00FCEFFD850882850983122EE91203F98025
:1030EC0014750E098003750E01123A76850C8285D3
:1030FC000D8312325BA90E022C951207598A108B84
:10310C0011A810A911E84922E5082402F508E509DF
:10311C003400F5098A828B83A3A3A3E0A2E5228560
:10312C001882851983AC82AD838E828F83123141D4
:10313C008A0A8B0B22E0FAA3E0FB120663227404CA
:10314C001215D57F0A02170174EC12162F8C108DF4
:10315C0011EA2405F50CEB123759750F00EA24021D
:10316C00F50AEB12323E850A82F583122EE9123BE8
:10317C00307003023230750E008071850C82850D23
:10318C0083E06401704F8E828F83A3A31218598E33
:10319C00828F83A3A3A3A3E0F512751300781212F8
:1031AC001842EE2405F512EF3400F51378121218BC
:1031BC0042122EE312077774061215D5E9F50F604B
:1031CC0014850C82850D83E4F0123A768510828585
:1031DC00118312325B7C177D007900EEFAEFFB1243
:1031EC000F998E828F83E4F0A3F0050E9002E5E038
:1031FC00F8E50EC398501EE50E75F017A4F8A9F06B
:10320C00850882850983A3A3123A96123244EC4DA9
:10321C00600302318785088285098374FFF0A3F06F
:10322C00E50F7006122EE31203FFA90F022FEEF525
:10323C000AEF3400F50B22A3123249FD22E0FCA365
:10324C00E0228E828F83123A7E850E82850F83E870
:10325C00F0A3E9F022C082C0839002E1E06A70031F
:10326C00A3E06B70067AE17B0280047A007B00029B
:10327C0025A374F712162F7F00EF75F003A4F8A99D
:10328C00F0EC28F8ED39F988828983E06A7003A3A1
:10329C00E06B7006E8FAE9FB800B0FEFC394024079
:1032AC00D87A007B007F0102170174F612162F12D8
:1032BC00386770067A007B008007A3A3A3A3122EA5
:1032CC00E902392874F212162FE9FE740E12160B4D
:1032DC00123330741012160B1237988C828D83E0D7
:1032EC006402703BA3123A7A88828983E0F50CA3BE
:1032FC00E0F9A80C74026870037429697021750CCC
:10330C0002750D00780C1218427808121842780ACF
:10331C00121842EEF912079B74061215D580027929
:10332C0001023998E0F50AA3E0F50B2274E81216B5
:10333C002F74FB1215BFE9851882851983F08A1644
:10334C008B178C0E8D0F741F12160B12379874215D
:10335C0012160B123330742312160B12378275109F
:10336C00008C828D83A3A3A3E0A2E4502A741D12C7
:10337C00160B122FF98A828B83E582458370030228
:10338C003444790AAC0EAD0FAA16AB1712162DE900
:10339C00F5106003023447850E82850F83E06402CA
:1033AC0060030236FDA3123A7A850882850983A34D
:1033BC00858212858313E50E2406F50CE50F123772
:1033CC005988828983E0FAA3E0F9EA2400F514E431
:1033DC0039F51578141218CC0100002801280C348A
:1033EC0007000228E3340328533400290D36012941
:1033FC0035360229DC3503290D3604299E36FD3677
:10340C00EE4F703E850C82850D83123773FAE9FB03
:10341C008A828B83E0850A82850B831237AF121860
:10342C00428A828B83A3123249FDAA08AB09120F80
:10343C008174021215D5800375100EA91074050243
:10344C003A8475100B80F4EE4F70F7850A82850B69
:10345C00837401F0123788850882850983F07C001B
:10346C007D00850E82850F83A3A3A3A3E02401FA1C
:10347C00A3E03400FB120663EA4B60418A828B8323
:10348C00E02402F8850A82850B83E028F0EA240404
:10349C00F8EB3400F988828983E0851282851383E6
:1034AC001237C11237AF1218428A828B8312324301
:1034BC00E5082403FAE5093400FB02343A850A8254
:1034CC00850B83E02404F07C047D007900AA12AB08
:1034DC0013120F99023447EE4F600302344E123729
:1034EC0088FEA3E0FF850A82850B837404F0EE85C9
:1034FC000882850983F0EF851282851383F07403AB
:10350C0012160BAC82AD83EEFAEFFB12385570033A
:10351C000235B98A828B83A3A312377E74011216EB
:10352C000B85820E85830F780E12184274051216C5
:10353C000B1218597CFF7DFF12066974041215D505
:10354C008B0FEA450F7033850C82850D8312375E25
:10355C00121842850C82850D83A31218597C027DAA
:10356C00007A1A7B9012049574041215D5E9700A2E
:10357C00740112160B74FFF0A3F08E828F83E0643B
:10358C00027034750C02750D00780C1218428E8284
:10359C008F83123243E5082404FAE509122B6F12CB
:1035AC0015D5850A82850B83E024028009740112EB
:1035BC00160BEEF0A3EFF0740112160B12376FF02E
:1035CC00740112160BA3123767A3A3A3F00234479E
:1035DC00EE4F600302344E850C82850D831232440B
:1035EC00AA16AB1712078F850A82850B837402F01B
:1035FC00EA850882850983F0851282851383EB8026
:10360C00CBEE4F600302344E123788F8A3E0F985F5
:10361C000A82850B837402F0E8850882850983F0A1
:10362C00E985128285138380A3850C82850D831214
:10363C002EE9120F7BEAFC8C82A882C39EE49F4089
:10364C004BE86E7001EF70047C00801F851882853A
:10365C001983E0FAEE2AFAEF3400FBC3EA98EB94F4
:10366C00005003E08004EECCC39CFCEC850A828500
:10367C000B83F08C0A750B00780A121842850C82A9
:10368C00850D83E02EFCA3E03F0234357510070254
:10369C003447EE4F600302344E850C82850D831245
:1036AC003A7A850A82850B837407F08882898312A3
:1036BC00376712374FE0851282851383F0E82402B6
:1036CC00FAE93400FB8A828B831237671237A01217
:1036DC00376FA31237A9123778F0E82405F8E934CC
:1036EC0000F988828983123778A31237C1A3023577
:1036FC00D5741D12160B1238607003023444123A42
:10370C007A880C890DE8450D70030234448E108FB5
:10371C00117810121842780A1218427808121842BE
:10372C00740612160BE0F9AC0EAD0FAA16AB17858A
:10373C000C82850D8312162D74061215D5E9F51021
:10374C00023447F088828983A322F50CEF3400F50C
:10375C000D22E0F50E750F00780E22E085088285AB
:10376C000983221237C822123A7EE8221237C8A3E4
:10377C00A322A3A3A3A3E0FEA3E0FF22850C8285D2
:10378C000D83E0F8A3E0F5838882E022E0F508A33E
:10379C00E0F50922A3A3F08A828B83A3221224C012
:1037AC00A3A322F08A828B831237B822E0F50A7524
:1037BC000B00780A2212374F1237C822E085088294
:1037CC00850983A3A32274EE12162F74FE1215BF63
:1037DC008A0A8B0BECFAEDFB741412160BE0F51045
:1037EC00A3E0F511741612160BE0FE741812160BEA
:1037FC00E0F50EA3E0F50F851882851983AC82AD38
:10380C0083123855603E85188285198312386060A2
:10381C002FA3A3123798E50845096024780E1218D7
:10382C00427810121842EEF9AC0CAD0DAA0AAB0B93
:10383C0085088285098312162D74041215D580060D
:10384C00790E80027901022C951206638A0C8B0D7D
:10385C00EA450D22122EED123867221207238A82B6
:10386C008B83E58245832274F612162F74FE121593
:10387C00BF740C12160B123773851882851983F0DE
:10388C00740112160BE9F0E4F508F5097808121822
:10389C00427508027808121842740412160B8582BD
:1038AC0008858309780812184212077774061215D6
:1038BC00D574021215D5806474F712162FEAFEEB3C
:1038CC00FF89087C187D0312078FEA5402600BA94C
:1038DC0008EEFAEFFB120657800279010232B1743E
:1038EC00F612162F74FF6A700374FF6B701C7B004A
:1038FC00EB75F003A4F8A9F0EC28F8ED39F91239BE
:10390C002D0BEBC39402501480E612075F8A088BD0
:10391C0009A808A909E849600312392D7F0202178A
:10392C00018882898374FF1224BEE4F02274F6129B
:10393C00162F12075F8A828B83E58245836006A36C
:10394C00A3E0FA80027A007B0080D174F212162F69
:10395C008A088B09ECFEEDFF740E12160BE0F50ACB
:10396C0012399D701CEEFCEFFD7AFF7BFF12399D26
:10397C0070047911801688828983E508F0A3E50923
:10398C00F088828983A3A3E50AF079007F060217E9
:10399C000112075F8A0C8B0DA80CA90DE849227443
:1039AC00EE12162FEAFEEBFF8C088D09890C7412AF
:1039BC0012160B123A7A741412160B123244741635
:1039CC0012160B122EE9750D00EC4D6003023A6EC7
:1039DC007402650C6003023A698882898312324949
:1039EC00F9EC2400F50EE439F50FEAF4F8EBF4F9F0
:1039FC00EC58F8E50F59F9E849705DE5082406F82C
:103A0C00E5093400F9880A890B8882F583122B7E2C
:103A1C0012078F8A108B11E50E65107004E50F6587
:103A2C00116042780E121842850A82850B83122B84
:103A3C007E12079574021215D5E9F50D7027780ED4
:103A4C00121842850882850983A3A3122B7C1207C6
:103A5C00A774021215D5800D750D808008750D0D9B
:103A6C008003750D0BA90D02314F8E828F83123A94
:103A7C007E22E0F8A3E0F9221215D57F100217017F
:103A8C003400F50D850C82F58322E028FEA3E03985
:103A9C00FF8E828F83227916850A82850B83122EE4
:103AAC00ED12077174082274F212162FEAFEEBFF66
:103ABC00890B7401650B600E7402650B70637901E0
:103ACC00120981E9705BEEFAEFFB123B306047752F
:103ADC000A00800B7C177D007900120F99050A9063
:103AEC0002E5E0F8E50AC3985021E50A75F017A441
:103AFC00F8A9F0850882850983A3A3E028FAA3E03E
:103B0C0039FB8A828B831225AA70C98508828509A4
:103B1C008374FFF0A3F07C187D03EEFAEFFB120721
:103B2C00890239981207598A088B09EA45092274C7
:103B3C00F212162F8A088B09ECFEEDFF740E12168A
:103B4C000B123330901039E0F4603D7A097B00128F
:103B5C000FA5EA4B60328A828B8374B1F0A3E41216
:103B6C0037A2A31237A0A3E508F0A3E509123B97EF
:103B7C00EEF0A3EF123B97A3A3E50AF0A3E50BF03D
:103B8C00901039E0F9120FB1023998F08A828B83C8
:103B9C00A3A3A3A3A32274F012162FE9FE7F008A1D
:103BAC00088B09780812188600040D813DD53BF26C
:103BBC003B0D3C2A3C473C643C853CA23CB53CE874
:103BCC003C173D2D3D433D5D3D74016E6003023D50
:103BDC007D8C828D83E0F8C394034003023D7DE825
:103BEC00901125023D5A74026E6003023D7D8C8259
:103BFC008D83E0F8A3E0F9901126E8F0A3E9023DEB
:103C0C005A74016E6003023D7D8C828D83E0F8C393
:103C1C0094024003023D7DE8900781023D5A7401F5
:103C2C006E6003023D7D8C828D83E0F8C394054069
:103C3C0003023D7DE8900782023D5A74016E6003D9
:103C4C00023D7D8C828D83E0F8C394024003023DDB
:103C5C007DE8900783023D5A74106E6003023D7D2F
:103C6C007508108F0978081218427A847B07120F96
:103C7C008174021215D5023DA174016E6003023DE0
:103C8C007D8C828D83E0F8C394024003023D7DE875
:103C9C00900794023D5A74016E6003023D7D8C8244
:103CAC008D83E0901129023D5A74046E6003023D2D
:103CBC007D8C828D837808121477750C40750D42BB
:103CCC00750E0F8F0F780C790812128A4003023D83
:103CDC007D9007967808121486023DA1EE600302CF
:103CEC003D7D120603E9701C8F08A9081210B9E972
:103CFC00F80508E508C3940A5003E860ED79501202
:103D0C0011D380689008297401804374016E70612E
:103D1C008C828D83E0F8C394025056E8900795800E
:103D2C002D74016E704B8C828D83E0F8C3940A5015
:103D3C0040E8901128801774016E70358C828D8349
:103D4C00E0F874F928C3940A5027E890112AF080FF
:103D5C004474016E701B900828E0F88C828D83E00F
:103D6C00900828F0E8702EE0640170291210B380DE
:103D7C00247F188020C3EA9426EB9400501574021B
:103D8C006E70108C828D83E0FCA3E0FD1204A1E91F
:103D9C00FF80020F0FEFF90246C374F012162F7456
:103DAC00B11215BF8C0E8D0F908F507420121625EA
:103DBC0074061214D27420121625121089E9F50A11
:103DCC00745F12160BE0F50CE9C3940A4003023F32
:103DDC003275F006E9A4F50974411216257A0E74B1
:103DEC00202509F91211CDE9700A744D12160BE059
:103DFC00F5088003750800901125E0640270047FBB
:103E0C000180027F007408650C70047422800274B7
:103E1C00212509FE7C1B7D007900742612161D12CB
:103E2C000F9974261216257A1BEEF91211CDE97032
:103E3C002D744012160BE024F9C3940A5020EFF5B0
:103E4C000B780B1218467427121625E508A2E0E42D
:103E5C0033F9AA0EAB0F12054374011215D57C145D
:103E6C007D007900740C12161D120F99740C121629
:103E7C00257A1074242509F91211CDE970357C10BE
:103E8C0079FF740C12161D120FE1E97026741C12C6
:103E9C00160BAC82AD837A0474252509F91211CD69
:103EAC00740C121625E508A2E0E433F9AA0EAB0F48
:103EBC0012052BAC18AD197A0C7470250AF9121175
:103ECC00CDE97050AA18AB191210A7750900A818E3
:103EDC00A919880A890BAE0AAF0B8E828F83E0FC7E
:103EEC00A3E0FDEC4D601D8E828F83A3A3E0F50A49
:103EFC00750B00780A121842AA0EAB0F12077D74CC
:103F0C00021215D50509EE2403FE50010FE509C375
:103F1C00940440C6E508A2E1500C900780E0F9AA91
:103F2C000EAB0F1207837404650C7027901125E0FB
:103F3C006402701F7A00900794E060010A90078178
:103F4C00E06004780480027800E84AF9AA0EAB0F0E
:103F5C001205EB7900744F0246C074F012162F74E0
:103F6C00E11215BFE9851882851983F08A0E8B0F33
:103F7C008C0C8D0D75080A600F14600C14606514A0
:103F8C00700302405B0240DA7509007E9C7F077566
:103F9C000A06750B00780A121842AC0EAD0FEEFA39
:103FAC00EFFB120F9374021215D5E970150509EE8B
:103FBC00240EFE50010FE509C3940A40030240DAB7
:103FCC0080CD850908E508C3940A40030240DAE570
:103FDC000C450D70030240DA780A121842AC0EAD93
:103FEC000F0240CE7509007EA27F07750A06750B7D
:103FFC0000780A121842AC0EAD0FEEFAEFFB120F5E
:10400C009374021215D5E970150509EE240EFE50B5
:10401C00010FE509C3940A40030240DA80CD8509FB
:10402C0008E508C3940A40030240DAE50C450D701C
:10403C00030240DA74011216257A0E75F006E508B3
:10404C00A42420F91211CDE960030240DA80697EC4
:10405C00007F23740F1216257A10EFF91211CDE997
:10406C00701E7C1079FF740F12161D120FE1E9708F
:10407C000FAC0EAD0F740F12161D12050DE9600D6D
:10408C000E74062FFFEEC3940A504380C68E08E5CB
:10409C0008C3940A5038E50C450D603274011216B1
:1040AC00257A0E75F006E508A42420F91211CDE945
:1040BC00701C750A06750B00780A121842740312EC
:1040CC001625AA0CAB0D120F8174021215D5A90876
:1040DC00741F0246C01215D57F0402170174F0122A
:1040EC00162F74E61215BF8C0E8D0F750815742AD9
:1040FC0012160BE0FEA3E0FF74FF6A700374FF6BF3
:10410C006003024268750900750C20740C121625A8
:10411C007A0EA90C1211CDE960030242247C0679B7
:10412C00FF740C12161D120FE1E960030242247495
:10413C00702509F50DAC18AD197A0CF91211CDE9F1
:10414C006003024221AA18AB191210A7E50E450F05
:10415C0070217C0C7900AA18AB19120FE1E96003ED
:10416C000242217C0C7D007900AA18AB19120F9920
:10417C0002420F7A00A818A91988828983E0650E7B
:10418C007004A3E0650F70030242360AE82403F8BA
:10419C00500109EAC3940440E078007900E84970C2
:1041AC0043EE4F60737C00A818A919880A890BAAE2
:1041BC000AAB0B8A828B83E0F8A3E0F9E849700321
:1041CC0002424F0CEA2403FA50010BECC394044056
:1041DC00E278007900E849603F88828983E50EF037
:1041EC00A3E50FF0E82402F582E439F583E0FAEE5A
:1041FC006A7001EF601FEEF04F700888828983E4CB
:10420C00F0A3F0AA18AB191210A7AC18AD197A0CC0
:10421C00A90D1211C775080005097406250CF50CBB
:10422C00E509C3940A5071024117EA75F003A4F82A
:10423C00A9F0851882851983E58228F8E58339F978
:10424C000241A9EC75F003A4F8A9F0851882851930
:10425C0083E58228F8E58339F90241E11209758A70
:10426C00828B83E5824583602C7C007D00E5822473
:10427C0005FAE43583FBA3A3A3A3E0F9121089E9A3
:10428C00C3940A5013EEFCEFFDAA0EAB0F1210A153
:10429C007508008003750814A908741A0246C0C07A
:1042AC0082C08390079AEAF0A3EBF0900780E0FCC1
:1042BC007D007A257B001204A1900780E0F912069C
:1042CC00FFD083D08202013274F012162F74EC12DC
:1042DC0015BFEAFEEBFF8E828F83A3A3E024FA7056
:1042EC000302469024FD70030245721470030243CE
:1042FC00A014601024FD70030245301470030245B5
:10430C00AA0246BE90079AE0F8A3E0F9E849605982
:10431C00E0F5838882E0F8A3E0F988088909E8458C
:10432C00096046EE240CF582E43FF583E0F50A784B
:10433C000A121846EE240BF582E43FF583E0F98E61
:10434C00828F83A3A3A3A3A3A3A3A3A3E0FCA3E0B3
:10435C00FDEE2403FAE43FFB8508828509831216DF
:10436C002D74011215D50246BEEE2409FE50010F24
:10437C008E828F8312185990079612149512053D50
:10438C0074021215D5E970030246BE79018E828F34
:10439C008302462C8E828F83A385820E85830FE049
:1043AC0060030244FFEE2405F508E43FF509850897
:1043BC0082F583E0A2E040030244FF7C0E7D00798D
:1043CC0000AA18AB19120F99EE2408F50CE43FF56E
:1043DC000D850C82F583E0FAA3E0FBEA4B601075C7
:1043EC000A06750B00780A121842EA241080248EF3
:1043FC00828F83A3A3A3E0FAA3E0FB120975EA4B17
:10440C0070030246BE750A06750B00780A12184234
:10441C00EA2405FCE43BFD740212161D120F817494
:10442C00021215D5850882850983E0A2E25004D2D8
:10443C00F08002C2F0A2F0E433F8740C12160BE018
:10444C0048F08E828F83A3A3A3A3A3A3A3A3A3A3A8
:10445C00E0FAA3E0FBEA4B6010EA2410F582E43B9F
:10446C00F5837808121477800C7508FF7509FF75B1
:10447C000AFF750BFFEA4B70047A007B00850C82F7
:10448C00850D83E0F8A3E0F9E8496006880C890DF6
:10449C008006750C00750D00780812183E8A088B82
:1044AC00097808121842780C121842EE240CF58286
:1044BC00E43FF5831218598E828F83A3A3A3A3A381
:1044CC00A3E0FCA3E0FD740A12161D1210AD740AD1
:1044DC001215D58E828F83A3A3A3E0F8A3E0F990E5
:1044EC00082AE8F0A3E9F07A017B00900780E0F954
:1044FC00120FBD90079AE0F8A3E0F9E849700302A7
:10450C0046BEE0F5838882A3A3E0F8A3E0F989090D
:10451C00E8450970030246BE850E82850F83E0FCD8
:10452C007901802E90079AE0F8A3E0F9E84970032E
:10453C000246BEE0F5838882A3A3E0F8A3E0F989E4
:10454C0009E8450970030246BE8E828F83A3E0FC06
:10455C0079028E828F83A3A3A3E0FAA3E0FB888267
:10456C0085098302468B7C007D00EE2404FAE43F2F
:10457C00FB8E828F83A3A3A3E0F9121089E9F8C301
:10458C00940A40030246BEEE240AFCE43FFD7A0482
:10459C0075F006E8A42425F91211C70246BEEE24D4
:1045AC0003F50AE43FF50B850A82F583E0FAA3E0F4
:1045BC00FB900795E06007901128E0F98067901157
:1045CC0025E070047905805D1209758A088B098EC7
:1045DC00828F83A3A3A3A3A3A3A3E0A2E0504CEADE
:1045EC00450970030246BE8A828B83A3A3A3A3E072
:1045FC00F960388E828F83A3A3A3A3A3A3A3A3A341
:10460C00E054107026740E121625EA2405FAE435CF
:10461C0009FB121089E970137903850A82850B83D3
:10462C00E0FAA3E0FB1205370246BEEE2405FCE4DB
:10463C003FFD850882850983A3A3A3A3E0F9850A1E
:10464C0082850B83E0FAA3E0FB1210CB90079AE073
:10465C00F8A3E0F9E849605AE0F5838882A3A3E067
:10466C00F8A3E0F9E8FEE9FFEE4F60467C00790024
:10467C00850A82850B83E0FAA3E0FB8E828F83127E
:10468C00162D802E120603E97028900829E064018B
:10469C0070187E00EEF91210B9E9F80EEEC3940A08
:1046AC005003E860EF900829E4F079501211D3120E
:1046BC0010B374141215D57F0802170174F2121678
:1046CC002F74E61215BF89098A0C8B0DECFEEDFFD9
:1046DC00740C1216257A0E75F006E9A42420F91232
:1046EC0011CDE960030248197C0679FF740C12168F
:1046FC001D120FE1E9600302481974702509F508D1
:10470C00AC18AD197A0CF91211CDE960030247E42B
:10471C00AA18AB191210A7E50C450D70217C0C7969
:10472C0000AA18AB19120FE1E960030247E47C0CF4
:10473C007D007900AA18AB19120F990247D27A00A2
:10474C00A818A91988828983E0650C7004A3E06518
:10475C000D70030247E80AE82403F8500109EAC384
:10476C00940440E078007900E849703BEE4F700308
:10477C000248197A00A818A91988828983E0FCA339
:10478C00E0FDEC4D606F0AE82403F8500109EAC320
:10479C00940440E578007900E84960718882898347
:1047AC00E50CF0A3E50DF0E82402F582E439F5837D
:1047BC00E0FAEE6A7001EF601FEEF04F700888822D
:1047CC008983E4F0A3F0AA18AB191210A7AC18ADAA
:1047DC00197A0CA9081211C779018033EA75F00314
:1047EC00A4F8A9F0851882851983E58228F8E58359
:1047FC0039F9024774EA75F003A4F8A9F085188218
:10480C00851983E58228F8E58339F9808B79007462
:10481C001A1215D57F0602170174F712162FEA2407
:10482C000CF8E43BF98A828B83E0F4FCA3E0F4FD02
:10483C008A828B83ECF0A3EDF0EA2402F582E43B50
:10484C00F583E0F4F0EA2403FA50010BE86A7002F5
:10485C00E96B70D17F0102170174F012162F74F3FB
:10486C001215BF8A0A8B0B8C0E8D0FEA450B700547
:10487C00790A024A327509007E9C7F07750C067511
:10488C000D00780C121842AC0AAD0BEEFAEFFB12CD
:10489C000F9374021215D5E970120509EE240EFE61
:1048AC0050010FE509C3940A500C80D0850908E526
:1048BC0008C3940A402E7509007E9C7F077C0679FC
:1048CC00FFEEFAEFFB120FE1E970160509EE240E6C
:1048DC00FE50010FE509C3940A40E275080A024A2A
:1048EC0030850908E508C3940A4003024A3075F084
:1048FC0006E508A4FEAC0AAD0B7A0E74202EF91254
:10490C0011C7E50E450F600DAC0EAD0F7A1B74216F
:10491C002EF91211C7741D12160BE0FCA3E0FDEC6E
:10492C004D60097A1B74222EF91211C7741F1216CE
:10493C000BE0FCA3E0FDEC4D60097A1074232EF91A
:10494C001211C7742112160BE0FCA3E0FDEC4D60B4
:10495C00177A1074242EF91211C774231216257AA3
:10496C000474252EF91211C77C0C7D0079FF74019B
:10497C0012161D120F9974011216257A0C747025DB
:10498C0008F91211C7750C0E780C121842AC0AAD4E
:10499C000BE50875F00EA4F8A9F0749C28FA7407BE
:1049AC0039FB120F8174021215D5900828E0602E85
:1049BC001207EF7E9C7F077C0679FFEEFAEFFB1265
:1049CC000FE1E97009EEFAEFFB79001207F5EE241E
:1049DC000EFE50010F64287003EF640870D975093E
:1049EC00007E9C7F077C0679FFEEFAEFFB120FE14D
:1049FC00E970020509EE240EFE50010F64287003C5
:104A0C00EF640870E0E509C3940285188285198368
:104A1C00400474028002740AF0AC18AD197A017962
:104A2C000512061BA908740D0246C074F712162F46
:104A3C0074FF1215BF7508007E9C7F07EEFCEFFD1E
:104A4C007A0E75F006E508A42420F91211CDE96060
:104A5C00297C067D0079FFEEFAEFFB120F997C069C
:104A6C007D0079FFEE2CFAE43FFB120F99EE240C3B
:104A7C00F582E43FF583E4F0A3F00508EE240EFE86
:104A8C0050010FE508C3940A40B2900828E0602E4C
:104A9C001207EF7E9C7F077C0679FFEEFAEFFB1284
:104AAC000FE1E97009EEFAEFFB79001207F5EE243D
:104ABC000EFE50010F64287003EF640870D975085E
:104ACC00007E9C7F077C0679FFEEFAEFFB120FE16C
:104ADC00E970020508EE240EFE50010F64287003E5
:104AEC00EF640870E0E508C3940285188285198389
:104AFC00400474028002740AF0AC18AD197A017982
:104B0C000512061B74011215D502486074F31216B7
:104B1C002F74CB1215BF890C75F006E9A4FE742016
:104B2C002EFF74271216257A0EEFF91211CDE960BB
:104B3C0003024BFA7C0679FF742712161D120FE143
:104B4C00E96003024BFA7C0E7D0079FF7427121684
:104B5C001D120F997C1B7D0079FF740C12161D120F
:104B6C000F997C0C7D0079FFAA18AB19120F997460
:104B7C00271216257A0EEFF91211C7E9F508740CF5
:104B8C001216257A1B74212EF91211C7E9FF740C29
:104B9C001216257A1B74222EF91211C7E9F5097425
:104BAC000C1216257A1074232EF91211C7E9F50A86
:104BBC00740C1216257A1074242EF91211C7E9F50B
:104BCC000B740C1216257A0474252EF91211C7E9F0
:104BDC00FEAC18AD197A0C7470250CF91211C7E9DA
:104BEC00F8EF4509450A450B4E4842088003750805
:104BFC0000A90874351215D57F0502170174F71238
:104C0C00162FE9900780F01210B302486074F0126E
:104C1C00162F74DB1215BF8A0E8B0FEB54807003AA
:104C2C00024DA8900780E0F9120FB78A088B09AEE5
:104C3C0008AF09EE4F7003024D9E8E828F83E024E5
:104C4C0050604914600A24E17003024D94024D97A0
:104C5C00A3A3A3A3E06003024D978E828F83A3A32B
:104C6C00A3A3A3A3A31218598E828F83A3A3A3A3D8
:104C7C00A3E0FCA3E0FD8E828F83A3A3E0FAA3E064
:104C8C00FB12108F74021215D5024D97A3A3A3A388
:104C9C00E0641E6003024D978E828F83A3A3E0FA1B
:104CAC00A3E0FB74FF6A700374FF6B705D750820E2
:104CBC00740B1216257A0EA9081211CDE9703A7CE4
:104CCC000679FF740B12161D120FE1E9702B741785
:104CDC0012160BE0F8A3E0F9E854FDFAE86A70014B
:104CEC00E96016741712160BEAF0A3E4F0740B12B9
:104CFC0016257A0EA9081211C774062508F5087432
:104D0C005C65087003024D9780A61209758A828B28
:104D1C0083E582458360747C007D00E5822405FA7E
:104D2C00E43583FBA3A3A3A3E0F9121089E9F8C32C
:104D3C00940A505775F006E8A42420F508740B1259
:104D4C0016257A0EA9081211CDE9703F7C0679FF61
:104D5C00740B12161D120FE1E97030741712160B3A
:104D6C00E0F8A3E0F9E854FDFAE86A7001E9601B89
:104D7C00741712160BEAF0A3E4F0740B1216257AD2
:104D8C000EA9081211C7800312109BEEFAEFFB124A
:104D9C000FABAA0EE50F6480FB0250A3EAA2E04021
:104DAC000302509F90082AE0F8A3E0F97409121648
:104DBC000BE8F0A3E9F07407121615880889097836
:104DCC000812184275080275090078081218427505
:104DDC00080875099078081218427CFF7DFF7A014B
:104DEC007B0012065D74061215D585188285198311
:104DFC00EAF0A3EBF0851882851983E0F8A3E0F9BB
:104E0C00E8497003025096E4F508F5097808121881
:104E1C004274081216158808890978081218427409
:104E2C0008121615880889097808121842740D1290
:104E3C00160B1218597902740812160BE0FCA3E039
:104E4C00FD741112160BE0FAA3E0FB120771740843
:104E5C001215D5E96003025051740412160BE0FAD6
:104E6C00740512160BE0F8E4C8F9EA28FEE439FFE1
:104E7C00EE4F7003025051851882851983E0F8A318
:104E8C00E0F5838882A3A3A3A3E0F8A3E0F974025E
:104E9C0012160BE8F0A3E9F0740912160BE0F4708B
:104EAC0003A3E0F4600302500D750800750920742B
:104EBC000B1216257A0EA9091211CDE96003024FC7
:104ECC00CC7C0679FF740B12161D120FE1E96003FE
:104EDC00024FCC74702508F50C74191216257A0C37
:104EEC00A90C1211CDE96003024FCC741912161DD6
:104EFC001210A7740212160BE0F8A3E0F9E849703F
:104F0C00237C0C7900741912161D120FE1E9600351
:104F1C00024FCC7C0C7D007900741912161D120FF7
:104F2C0099024FB87A00741912161588828983E099
:104F3C00FCA3E0FD740212160BE06C7003A3E06D91
:104F4C007003024FDE0AE82403F8500109EAC39407
:104F5C000440D878007900E849703D7A0074191241
:104F6C00161588828983E0FCA3E0FDEC4D607B0A7A
:104F7C00E82403F8500109EAC3940440E578007969
:104F8C0000E849603B740212160BE0FAA3E0FB88C0
:104F9C00828983EAF0A3EBF0E82402F582E439F588
:104FAC0083E0F8EE687001EF6016EEF074191216DB
:104FBC001D1210A774191216257A0CA90C1211C700
:104FCC00050874062509F509E508C3940A5076020C
:104FDC004EBBEA75F003A4F8A9F0741912160BE590
:104FEC008228F8E58339F9024F63EA75F003A4F8D7
:104FFC00A9F0741912160BE58228F8E58339F980AB
:10500C0080740912160BE0FAA3E0FB1209758A8270
:10501C008B83E5824583602D7C007D00E582240531
:10502C00FAE43583FBA3A3A3A3E0F9121089E9C327
:10503C00940A5011EEFCEFFD740212160BE0FAA369
:10504C00E0FB1210A1E4F508F50978081218427477
:10505C000912160B1218597CFF7DFF740412160BE3
:10506C00E0FAA3E0FB12066974041215D5851882C8
:10507C00851983EAF0A3EBF0851882851983E0F893
:10508C00A3E0F9E8496003024E13E50E6401FAABA4
:10509C000F80047A007B0074250246C074F412164B
:1050AC002F74E81215BF8A088B09E9FE8C0A8D0B48
:1050BC007C187D007900AA18AB19120F99851882FB
:1050CC00851983E508F0A3E509F0900782E0C0E0BC
:1050DC00740212160BD0E0F0900783E0C0E074036A
:1050EC0012160BD0E0F090112AE0C0E074171216E3
:1050FC000BD0E0F0741512160BE054FEF8A3E0F997
:10510C00901129E0A2E0E433FAE84AF8741512167B
:10511C000BE8F0A3E9F0901129E0A2E15004D2F0E1
:10512C008002C2F0E854FDFAA2F0E43325E0F8EA7C
:10513C0048F8741512160BE8F0A3E9F0901129E069
:10514C00A2E35004D2F08002C2F0E854F7FAA2F0C5
:10515C00E433F508750900740378081215ACEA45B8
:10516C0008F8741512160BE8F0A3E9F0901129E079
:10517C00A2E45004D2F08002C2F0E854EFFAA2F09C
:10518C00E433F508740478081215ACEA4508F87491
:10519C001512160BE8F0A3E9F0901129E0A2E550E6
:1051AC0004D2F08002C2F0E854DFFAA2F0E433F546
:1051BC0008740578081215ACEA4508F8741512162F
:1051CC000BE8F0A3E9F0901129E0A2E25004D2F030
:1051DC008002C2F0E854FBFAA2F0E433F508740242
:1051EC0078081215ACEA4508F8741512160BE8F09D
:1051FC00A3E9F0900783E0601D7508107808121879
:10520C00427C847D07740612160BAA82AB83120FA4
:10521C008174021215D5900794E06010EE60097449
:10522C001512160BE04402F0780180027800741419
:10523C0012160BE048F0900781E0600478048002BD
:10524C007800741412160BE048F0AC0AAD0BAA18D7
:10525C00AB1912053174180240E1C082C083906111
:10526C00907404F0A37448F0A3E4F090618074404F
:10527C00F09061BC7407F09061877469F09061B62E
:10528C007416F07900120A6B7902120A7190237C61
:10529C00E493F46006E493F9120A477905120D655C
:1052AC000256A8C082C083E9540FF9906185E06969
:1052BC006012E5C654804449F5C6E59E547F6449A6
:1052CC0070F8E9F053C680E59E547F70FA0256A838
:1052DC0074F712162FE5A8FE53A87E120A53C2BA11
:1052EC00539AFEC289759B00C2C2120A5975A91144
:1052FC0075B905120A5FD2BA439A0174805E42A84E
:10530C00025C35C082C083906181E4F0A30256A593
:10531C0075E90075910075BF00020132C082C0832F
:10532C00906181E4F0A374C0F0A3E40256A7C0829C
:10533C00C08374F81215BF9003C4125B17E8497050
:10534C00030253F19003C4E054406023790885189C
:10535C0082851983AA82AB83120B61851882851909
:10536C0083AA82AB831208139003C4E054BFF0E00D
:10537C0054806010790C7A807B05120B619003C409
:10538C00E0547FF0E0A2E0500879001253F954FE8B
:10539C00F0E05402600879011253F954FDF0E05426
:1053AC00046008790012540454FBF0E054086008BF
:1053BC00790112540454F7F0E05410600879021289
:1053CC00540454EFF0E05420600879031254045450
:1053DC00DFF0A3E05401600D120A7D120825900342
:1053EC00C5E054FEF074081215D50256A8120A6BCB
:1053FC001208199003C4E022120A7112081F9003BC
:10540C00C4E022C082C083E9600514602A804F90FA
:10541C00619A7433F0A37455F09061A0743AF090D3
:10542C00055CE064017009C2919003C67467802D1D
:10543C009003C67461802690619A743FF0A3745AED
:10544C00F09061A0747FF090055CE064017009D26B
:10545C00919003C6747180059003C6746AF002566D
:10546C00A8C082C083E9600B14600D14600F146037
:10547C0011802090238080159023818010902382AE
:10548C00800B90055CE0640160F3902383E49390BF
:10549C006186F00256A874EE12162F74F41215BF22
:1054AC00851882851983AC82AD8375838F7582AC28
:1054BC0074041214D290238093F460030256349037
:1054CC007808E0C394025003025614740412160BAD
:1054DC00AC82AD8375838F75824274081214D2F935
:1054EC007AFF7BFF7FFF7E00898285821080187493
:1054FC00086E70030255C974096E70030255C974A5
:10550C000A6E70030255C9E510C333FCE433FD7415
:10551C000412160BE5822CF582E5833DF583E0F54C
:10552C000EA3E0F50F8E08750900740278081215A9
:10553C00AC74482508FC74783509FD8C828D837811
:10554C0008121477740878081213B885080C8509AA
:10555C000D8C828D837808121477741878081213C6
:10556C00B8E50C4508F508E50DF509C3E50E9508F9
:10557C00E50F95098C828D8378081214778C828DB7
:10558C008378081214777418780840141213B8E54D
:10559C000C4508FCAD0DE50EC39CFCE50F9D800F82
:1055AC001213B8E50C4508C3950EFCE50D950FFDDF
:1055BC00C3EC9AED9B5006ECFAEDFBEEFF0EEEC33E
:1055CC00941350030254FB74FF6A700374FF6B60F6
:1055DC002D8F08740278081215AC74481262C374CB
:1055EC00783509F583780812147785188285198324
:1055FC00E5822510F582E583126050E508F009E993
:10560C00C3940450030254EC750801750900780822
:10561C00121842740212160BAC82AD837AE07B082E
:10562C001210F574021215D5740C1215D57F0A02DE
:10563C001701C082C083906186E0F8902383E493C5
:10564C00687009902382E493906186F09061AE7447
:10565C0068F0A3746AF090624574FBF0A304F053F5
:10566C00F4FD43FE0290055C7401F09061A0E064CF
:10567C003A7004790080027901120A6B0256A8C0B4
:10568C0082C08390050EE06401700A900513E060FF
:10569C0004790C800279008003F0A3F0D083D082CF
:1056AC00020132C082C08375E1F1900511E0604DBA
:1056BC001460081460511460498051120A8F9005CF
:1056CC0007E0F97A087B05120CE7908FA412149569
:1056DC00120D1D908FD4121495120CF3900512E03C
:1056EC00F9120CFF7901120D59900505E0241612E0
:1056FC00583D74A7F0A3740AF07900809F120A95A4
:10570C0080BC120A9B80B7120AA180B2791280EB7E
:10571C0074F412162F75D90D9004F6E0A2E0E43360
:10572C001313F81257A9484401F5D97800125827D9
:10573C0040FB7800880874F71262C3740412583165
:10574C0040F275E1959004F6E0F97AF77B04120CBF
:10575C00ED90105B741DF0A3740A12584C12586C27
:10576C001258631259A41257B37808121477908FF9
:10577C009C7808121403908FDC780812145112587C
:10578C00377808121486900505E0241412583D74DD
:10579C0013F09003C27402F07F0402170190050706
:1057AC00E0C4333354C022900505E0F8A3E0F58340
:1057BC008882A3A32274F612162F1259758AD978EF
:1057CC000012582740FB780080061258DB125A272B
:1057DC00E8C39940F512596712582740FB780080AE
:1057EC00081262BF7405125A27E8C39940F375E199
:1057FC009590105B7429F0A3740A12584C125856E9
:10580C001214951258371214A1900505E0241412A5
:10581C00583D7412F09003C2025C1288087408257B
:10582C0008F5827405125B83940622900505E0242A
:10583C000EF8A3E0125844223400F988828983229E
:10584C0012598D7423F0A3740A2212586C125863E7
:10585C001259A8908FA822F0A3743BF0A3740A22CB
:10586C001258702212587422F0A374CDF0A3740B4A
:10587C002274F612162F1258D01257A94402F5D9D9
:10588C00780012582740FB780080061258DB125A19
:10589C0027E8C39940F575E19590105B1258E6F036
:1058AC00A31258E61258591214951258371214A113
:1058BC00900505E0241412583D7414F09003C27442
:1058CC0004025C14900517E0F9740729F5D92288B5
:1058DC000874182508F58274052274351258F312D1
:1058EC0058F3F0A3740A22F0A3740AF0A3743522BF
:1058FC0074F612162F12597574064AF5D9780012DF
:10590C00582740FB780080061258DB125A27E8C350
:10591C009940F512596712582740FB7800800812FD
:10592C0062BF7405125A27E8C39940F375E195904C
:10593C00105B742FF0A3740A125983125856121468
:10594C00951258371214A1900505E0241412583DF5
:10595C007415F09003C27403025C1490053712584E
:10596C00D374044AF5D97800221258D0900507E078
:10597C00C4333354C0FA2212598D74CDF0A3740B76
:10598C00221259912212599E74CDF0A3740B125904
:10599C009E22125874F0A3221259A822F09010697A
:1059AC0074CDF0A3740B12599174CDF0A3740B1237
:1059BC005870F022C082C0831257B3A3A3A3A3E4F0
:1059CC000256A574F712162F126505F8740339F9EF
:1059DC00E82405FAE93400FB8A828B83126274880E
:1059EC00828983A3A3A3A3A3A3A3A3A3ECF0A3EDF6
:1059FC00F088828983A3A3A3A3A3A3A3E024FFF825
:105A0C00A3E034FFF98A828B83E8F0A3E9F0025C0F
:105A1C0035880874602508F582740512619BF5D9E8
:105A2C000822EAFEEBFF9061D0E0F87480C398FA8C
:105A3C00EE248322125A4694042212605EE0F5D9B9
:105A4C000AEAC32274F612162FEAFEEBFF9061D01D
:105A5C00E0707575D90E75D90375D9047A008A086A
:105A6C00EE25081265D3248C125AE940F17A008A8B
:105A7C0008EE25081265D32484125A4040F175E1D2
:105A8C00957908EE248C125AE22484125AD97C009F
:105A9C008C82AA82C3E49AF895E0F9EE28F8EF39E3
:105AAC00F9E8248BF582E9126197C0E0EE2A1265C1
:105ABC00D324ABF582E9126050D0E0F00CECC39427
:105ACC000840CD125B9F80027900025C15FAEF341E
:105ADC0000FB120B5522125AD97904EE22125A46A7
:105AEC00940822C082C08375D90275D90375D90573
:105AFC0075E195EA2470F582EB125B14EA2472F5D9
:105B0C0082EB125BB10256A8126061125B1B22E0A1
:105B1C00F8A3E0F92274F612162FEAFEEBFF9005BB
:105B2C00607406125B8D1218427C017903125EB907
