:020000040000FA
:0600000002011A021C06B9
:03002B000222CCE2
:03003B000222F0AE
:0300430002227026
:03005300021C7C10
:03006B0002235914
:10008300021AF7E5C754F84401F5C77901220000C5
:100093000080FB120086B90003020104E479217891
:1000A30008B800028004F709D8FCE479297802B87B
:1000B30000028004F709D8FCE49002817879790D75
:1000C3008002F0A3D8FCD9FA781A90014A7A01BACF
:1000D30000028007E493A3F608DAF97AF97B0E901D
:1000E300014B787179038015E493A3AD82AE838AC3
:1000F300828B83F0A3AA82AB838D828E83D8E9D9C6
:10010300E77582F77583A5740312012C75829175C7
:100113008300740012012C75D00075813F7518811E
:10012300751902759F00020096C09FF59FE473D076
:100133009F22D083D082C09FE493C0E0740193C018
:10014300E0740293F59F2201FF0000B40000280031
:100153002800283075A000A000A000A0000008001F
:1001630008E001F000100010001000100010001053
:100173000050005000500010001000D00700000095
:100183000000000F0001000500307507001000019A
:100193000081FF0000FFB305D105B905FF0202028C
:1001A30008025000A0000000E803021090010000C4
:1001B300FB8F0214900100004E0F021A9001000001
:1001C300B2020214900100004F0F021C90010000C4
:1001D300C802021490010000500F021E900100009B
:1001E300CA02021490010000510F0220900800007F
:1001F300CB02021490010000520F02229001000072
:10020300530FFF0100FF20021090010000FE8F0238
:100213001490010000B70F022490000000000002B8
:1002230018900300001803CB0BCB0BCB0BCB0BCBE2
:100233000BCB0BCB0BCB0BCB0BCB0BCB0BCB0BCB0B
:100243000BA10EB90E9B0EFFFF0202020202020275
:100253000202010D0000001001021090010000F8DD
:100263008F021490010000FA0F020A900100007837
:1002730007021490010000FB0F02089001000031F7
:100283008F021490010000FC0F020690010000F998
:100293008E021490010000FD0F023490010000B79C
:1002A3008E021490010000FE0F02049001000081F1
:1002B3008E021490010000FF0F02568F010000A56B
:1002C3008E021490010000001002169001000093AA
:1002D3008E02149001000001100228900100000713
:1002E3008F0214900100000210022A900100000303
:1002F3001001E803053F10FF0001307503020106FA
:1003030000000000000000000000000000000000EA
:10031300000000000000000000000000FFFF0600D6
:10032300800CE8030100070952794D6F76650512C9
:1003330008000800020A000201050302E7FE09FFA4
:100343000D0000000000000052794D6F7665191210
:1003530000001F12084368617261637465726973F8
:10036300746963203100204368617261637465724C
:1003730069737469632032000210900100000190D8
:100383000214900100000511022E90020000BE0E1F
:1003930002329001000006110214900100001711AF
:1003A300023090000000F00E021890030000F10EDE
:1003B3000232900100001811120135139D0312013E
:1003C300352A9D03120135599D03120135929D0370
:1003D300120135BA9D03120135E89D03120135FF61
:1003E3009D03120135169E031201352C9E03120143
:1003F30035539E03120135669E031201357C9E031D
:10040300120135A49E0312013586A402120135851B
:10041300A502120135BAA502120135DBA5021201AC
:1004230035EBA5021201350CA60212013518A702FD
:10043300120135E5A70212013558A802120135DE73
:10044300A80212013521A90212013558A90212018D
:1004530035DEA902120135B0AA021201350EAB0234
:1004630012013526AB02120135A0AB02120135A3EE
:10047300AB02120135A6AB021201354DAC021201DB
:100483003565AC0212013595AC02120135B5AC02EB
:10049300120135A3AD0212013559AE0212013586A0
:1004A300ED02120135AEED02120135DCED0212014F
:1004B3003513EE021201357BEE02120135C4EE0252
:1004C3001201350FEF021201354DEF021201358A89
:1004D300EF02120135B8EF021201355FF00212018B
:1004E3003569F00212013576F002120135A9F002E6
:1004F3001201356BF10212013577F1021201358FCA
:10050300F10212013599F1021201355AA2031201C7
:100513003568A20312013580A20312013598A203A4
:1005230012013500BF011201359EBF0112013516BC
:10053300C0011201352BC10112013565C101120140
:10054300350EC201120135E3C20112013547C40160
:100553001201359EC40112013525C5011201350C66
:10056300C60112013559C601120135E7C601120150
:10057300350BC701120135E0C80112013521C9014C
:1005830012013543C901120135C4C901120135AE47
:10059300CA0112013574CB011201352EF801120183
:1005A3003500F901120135A9F901120135ECF90100
:1005B30012013579FA0112013505FB01120135E605
:1005C300FB0112013515FC0112013511FD01120168
:1005D3003559FD011201355BFE011201359FFE0104
:1005E300120135C5FE011201358DA4031201350038
:1005F30080031201351680031201353C800312017A
:10060300356481031201356E8103120135C78203FC
:10061300120135C783031201351CD502120135516E
:10062300D60212013584D602120135CED60212014A
:10063300358CD802120135F0AF0112013553B001E8
:1006430012013598B101120135A8B101120135CB60
:10065300B10112013516B201120135BBB20112010B
:1006630035B1B3011201357BB401120135F3B50184
:1006730012013535B601120135D3B601120135F930
:10068300B601120135E7B801120135ECB8011201C8
:1006930035CDBA0112013521BB0112013583BB01EE
:1006A300120135ABBB011201354FBC0112013511EB
:1006B300BD0112013542BD0112013545BD011201D3
:1006C300358DBD01120135CFBD0112013536BE0195
:1006D300120135E89603120135FB96031201351416
:1006E30097031201355F97031201353A98031201FC
:1006F30035C99803120135149903120135C023003B
:10070300120135CC23001201350524001201354AAC
:10071300240012013501250012013587250012013D
:1007230035B32500120135EC2500120135002800F0
:10073300120135DC2900120135C72B00120135FEE9
:100743002C001201355E2F001201354A30001201D0
:10075300359031001201359D3200120135BA320055
:10076300120135F232001201350C330012013574D7
:1007730033001201350E3800120135AF3800120173
:10078300350039001201352739001201357539005A
:10079300120135933900120135E73900120135EFA3
:1007A3003A00120135773B0012013530DF021201A6
:1007B300353ADF0212013505E00212013520E0026D
:1007C30012013546E0021201358AE002120135C2F8
:1007D300E002120135EBE00212013564E10212017D
:1007E3003579E1021201358EE102120135C5E102CC
:1007F300120135D9E1021201350AE2021201354430
:10080300E20212013570E202120135A8E20212017E
:100813003546E3021201358FE302120135B9E302D3
:10082300120135DEE302120135E3FA02120135AD9E
:10083300FB0212013590FC0212013506FD02120182
:100843003548FD0212013575FE02120135E68C02B0
:100853001201350F8D02120135288D021201356DFB
:100863008E021201354B8F021201356A8F0212017B
:1008730035F78F021201353A900212013587910242
:10088300120135269202120135A594021201353C5C
:100893009502120135109602120135F296021201E9
:1008A300355E9802120135F19802120135CFFE022E
:1008B30012013538FF021201358CFF02120135B3E4
:1008C300FF021201358EF602120135FBF602120108
:1008D3003546F7021201353BF80212013537F902AA
:1008E30012013521FA0212013568C102120135AA3B
:1008F300C10212013584C2021201355DC302120125
:100903003558C40212013537C502120135A3C50299
:100913001201356AC602120135D5C6021201353CF1
:10092300C70212013567C702120135D8C702120187
:10093300356BC802120135D4C802120135E9C80269
:1009430012013531C9021201354AC902120135AF0C
:10095300C902120135B2C9021201359B910312017A
:1009630035C39103120135019203120135BF92037E
:100973001201352A93031201354693031201356E92
:1009830093031201359E9303120135AD93031201B4
:100993003527940312013521A001120135BEA101AF
:1009A300120135A4A3011201356EA401120135B55C
:1009B300A401120135FCA4011201350EA501120197
:1009C300354EA5011201357DA501120135C9A501D9
:1009D30012013501A6011201352FA601120135803E
:1009E300A6011201350FA701120135FDA90112015C
:1009F30035D7AB0112013513AC011201356DAD01D1
:100A0300120135B4AD0112013529AE01120135775A
:100A1300AE011201359DAE0112013565B802120116
:100A23003582B8021201351CBE021201351EBF0207
:100A330012013598C00212013546C102120135A2D6
:100A43005200120135EB5200120135185300120106
:100A5300354B5300120135585300120135645300CE
:100A63001201357653001201354B5400120135A99A
:100A73005400120135DE54001201357A560012017A
:100A830035C75600120135EB560012013558570091
:100A9300120135FD5700120135B9580012013538DE
:100AA3005900120135FC59001201350B5A0012018D
:100AB300358C5A001201352B5B001201355D5B004A
:100AC300120135F85B00120135565C0012013590B6
:100AD3005C00120135115D00120135DA5D0012016F
:100AE30035835E001201350A5F00120135625F0033
:100AF300120135C35F00120135EC5F00120135A20C
:100B03006000120135EC61001201352F6200120101
:100B1300354C62001201356B6200120135B662007A
:100B2300120135DB620012013504630012013573D3
:100B33006300120135B56300120135B96400120177
:100B4300355365001201351F660012013538660002
:100B5300120135C4AE0212013517AF02120135235B
:100B6300AF02120135F8AF021201351FB0021201B4
:100B7300355AB002120135C6B002120135FAB0027D
:100B830012013533B1021201354BB102120135A402
:100B9300B102120135BDB10212013506B2021201D2
:100BA3003519B20212013533B20212013549B202CC
:100BB30012013565B30212013576B402120135C351
:100BC300B502120135A8B602120135F57F001201F4
:100BD300350080021201353480021201359F8302F1
:100BE300120135E98402120135B385021201353D44
:100BF3008702120135188802120135528802120148
:100C030035758802120135B78802120135C0880292
:100C13001201350A8902120135148902120135C005
:100C23008902120135948A02120135E88A021201FF
:100C3300354A8B021201359D8B02120135CC8B0292
:100C43001201350B8C021201356A6600120135C49C
:100C53006E00120135CA6E0012013585740012014F
:100C6300356B7800120135D18303120135478403B4
:100C73001201355D84031201359A8403120135D2C2
:100C830084031201354F85031201358A850312014E
:100C9300350586031201354186031201354A860361
:100CA30012013556860312013570860312013595FC
:100CB3008603120135AB8603120135D48603120174
:100CC3003537870312013506E40212013519E402B0
:100CD30012013533E4021201355CE4021201359F3F
:100CE300E402120135DEE4021201351CE5021201B1
:100CF3003581E50212013596E502120135A1E502BF
:100D0300120135AEE502120135C5E502120135D3F4
:100D1300E502120135DEE502120135EAE5021201B0
:100D230035FDE50212013508E6021201352BE60214
:100D3300120135D4E602120135E4E602120135FE52
:100D4300E6021201351BE70212013537E7021201F1
:100D5300355CE70212013566E7021201357AE702D4
:100D630012013599E702120135FAE7021201350043
:100D7300E80212013506E8021201350CE8021201FD
:100D83003518E8021201354BE802120135A4EA01D5
:100D930012013526EB01120135CFEB011201351794
:100DA300ED0112013525EF011201350BF00112019E
:100DB3003540F00112013562F0011201350BF101EA
:100DC300120135DBF20112013504F3011201357C06
:100DD300F301120135AEF301120135BBF301120128
:100DE3003506F4011201352AF4011201357BF601AF
:100DF30012013585F701120135E1F701120135A919
:100E0300CD01120135BACE011201359ECF01120177
:100E130035A8CF01120135CACF01120135D6CF0152
:100E23001201357AD101120135A7D101120135BD65
:100E3300D20112013512D30112013561D40112011D
:100E43003536D50112013592D501120135FDD50193
:100E530012013532D60112013575D6011201353F23
:100E6300D90112013557D901120135E8D90112010F
:100E730035F6D90112013543DA0112013551DA0190
:100E8300120135BDDA0112013538DB011201358F4C
:100E9300DB011201356899021201358A99021201A8
:100EA300359B9B021201355A9E02120135849F0223
:100EB30012013542A0021201352EA1021201355A48
:100EC3009B031201357F9B03120135F59B0312012E
:100ED30035BA7800120135C37800120135CC780099
:100EE300120135A47900120135557B0012013585B5
:100EF3007B00120135B07B00120135E07B0012014B
:100F0300350B7C001201353F7C001201356B7C00F0
:100F1300120135AE7C00120135D97C001201352057
:100F23007D00120135757D00120135B77D00120178
:100F330035117E001201353C7E001201358B7E0097
:100F4300120135BB7E00120135E67E001201351415
:100F53007F00120135377F0012013516A5031201F8
:100F63003542A5031201356FA50312013579A50397
:100F730012013589A503120135D6C902120135E0E4
:100F8300C90212013522CA021201356DCA021201C9
:100F930035C4CA021201351ECB021201353FCB0202
:100FA30012013549CB021201359ACB02120135C821
:100FB300CB02120135B7CC02120135DDCD0212018D
:100FC300351DCE0212013563CE0212013575CE02F4
:100FD30012013594CE021201359DCE02120135580D
:100FE300CF0212013513A0031201355B8E031201E8
:100FF30035918E0312013508900312013561910377
:10100300120135F5A3031201350BA40312013515A3
:10101300A4031201355FA40312013593A503120142
:101023003542DA0212013557DA021201353FDB028B
:1010330012013573DB02120135C0DB021201351ECA
:10104300DC021201358ADC02120135C5DE0212010F
:10105300353AFF0112013563FF0112013591FF019A
:101063001201356787031201358C8703120135B8E6
:1010730087031201354FA603120135DE3B0012012F
:1010830035E23D00120135A23F0012013525410032
:10109300120135E7420012013510430012013504F5
:1010A3004700120135614800120135A148001201C1
:1010B30035734A00120135544B00120135454C007B
:1010C300120135554C00120135E45000120135C2AE
:1010D300A60312013531A30312013541A303120103
:1010E300354DA303120135E8A30312013554A103BF
:1010F300120135DBA10312013541A203120135B5FB
:101103002300120135E4FF02120135F4FF0212013C
:1011130035F7FF02120135F87F001201353E9903BE
:10112300120135579B0312013582CF02120135C9D3
:10113300D0021201359AD10212013563D202120193
:1011430035F1D2021201356ED30212013584D30276
:101153001201352AD40212013538D4021201350B9B
:10116300D50212013519D502120135B69E031201BB
:10117300350B9F03120135889F031201356F9403CA
:101183001201359994031201356E950312013576D8
:10119300960312013527DC01120135EDDF0112013F
:1011A300358DE001120135F5E301120135A8E701A0
:1011B300120135BFE7011201356AE901120135B4A5
:1011C300E901120135379001120135CD9401120165
:1011D300354C9601120135A39601120135C59601CE
:1011E300120135439701120135179B011201352373
:1011F3009C01120135C8E8021201354FE9021201C0
:1012030035D1E9021201350AEA021201352EF20242
:1012130012013502F402120135D7F402120135CA64
:10122300F502120135F08A03120135358B031201E1
:1012330035528B03120135898B03120135358C032B
:10124300120135BE8D03120135F58D03120135965A
:10125300A603120135D77F00E066701008A3E0668D
:10126300700A08A3E066700408A3E06622C3E79649
:101273000809E7960809E7960809E79622C3E09666
:1012830008A3E09608A3E09608A3E09622C008C34B
:10129300E096F50808A3E096420808A3E096420802
:1012A30008A3E09645087001D3D00822080808EA8D
:1012B300C0E0EBC0E086F0E7A4FA180986F0E7A4E3
:1012C3002AFA180986F0E7A42AFA180986F0E7A48F
:1012D3002AFA1986F0E7A4FBE5F02AFA190886F042
:1012E300E7A42BFBE5F03AFA190886F0E7A42BFBF9
:1012F300E5F03AFA18180986F0E7A4C5F02BFBE4E9
:101303003AFA1908E7C5F0C6A426F6E5F03BFBE474
:101313003AFA1886F0E7A4F6E5F00826F6E43B0867
:10132300F6E43A08F6D0E0FBD0E0FA22E4CFC0E0DE
:10133300E4CEC0E0E4CDC0E0E4CCC0E075F020E64C
:1013430026F608E633F608E633F608E633F6181809
:1013530018EC33FCED33FDEE33FEEF33FFC3EC97B4
:1013630009ED9709EE9709EF97191919400FFFEC4B
:1013730097FC09ED97FD09EE97FE191906D5F0BF05
:10138300ECF709EDF709EEF709EFF7191919D0E0B2
:10139300FCD0E0FDD0E0FED0E0FF22601608080894
:1013A300C6C313C618C613C618C613C618C613C6B3
:1013B300D5E0EA227009080808226016181818C632
:1013C300C333C608C633C608C633C608C633C6D534
:1013D300E0EA22E627F60809E637F60809E637F6D3
:1013E3000809E637F622E026F608A3E036F608A356
:1013F300E036F608A3E036F622E026F008A3E0364E
:10140300F008A3E036F008A3E036F022C3E697F62F
:101413000809E697F60809E697F60809E697F6221B
:10142300C3E096F008A3E096F008A3E096F008A3C3
:10143300E096F022E056F608A3E056F608A3E0563D
:10144300F608A3E056F622E056F008A3E056F008AB
:10145300A3E056F008A3E056F022E0F608A3E0F676
:1014630008A3E0F608A3E0F622E6F008A3E6F008F6
:10147300A3E6F008A3E6F022E0FAA3E0FBA3E0FC76
:10148300A3E0FD22EAF0A3EBF0A3ECF0A3EDF0223E
:10149300E0F8A3E0F9A3E0FAA3E0FB22E8F0A3E974
:1014A300F0A3EAF0A3EBF022CAC0E0E6F0A308DA67
:1014B300FAD0E0FA22CAC0E0E0A3C582CCC582C557
:1014C30083CDC583F0A3C582CCC582C583CDC58337
:1014D300DAE6D0E0CA22C3E498F8E499F912151ABF
:1014E3008026C3E49AFAE49BFBE920E7E912151A84
:1014F300E498F8E499F922C3E498F8E499F9121509
:101503001AE498F8E499F9C3E49AFAE49BFB22EB12
:1015130020E7CFE920E7E0B90010BB0008E88AF034
:1015230084F8AAF022E4FBC8FA22EB70227B10C8ED
:1015330033C8C933C9335007C39AC3DBF280069A51
:1015430050012ADBEAC833F4C8C933F4C9FA227557
:10155300F008E4C833C8C933C933C99AC99B5004D6
:10156300C92AC93BD5F0ECFBC833F4C8E4C9FA2255
:10157300600D08C6A2E713C618C613C6D5E0F3224A
:10158300600C08C6C313C618C613C6D5E0F4227090
:101593000422600D18C6C333C608C633C6D5E0F4AB
:1015A3001822251810AF08F518400C15198008F5F6
:1015B3001840021519D2AF2200C0D0251810AF0869
:1015C300F518500C05198008F51850020519D2AF0B
:1015D300D0D0222518F58210AF08F518400C151944
:1015E3008008F51840021519D2AF851983222518F2
:1015F300F582E43519F583222518F8E43519F92223
:101603002518FAE43519FB222518FCE43519FD22C7
:10161300E4732518C582C0E0E51934FFC583C0E033
:10162300E518C3958224F810AF08858319858218BD
:101633008008858319858218D2AFCEF0A3E520F008
:10164300A37808E608F0A3DEFAEFF0A3E58124FA15
:10165300F8E608F0A3E608F0A3E608F0A30808E616
:1016630008F0A3E608F0A315811581D0E0FED0E0D1
:10167300F8158115811581E8C0E0EEC0E022251838
:10168300C582C0E0E51934FFC583C0E0E518C39502
:101693008224F910AF088583198582188008858311
:1016A30019858218D2AFCEF0A3E520F0A37808E61F
:1016B30008F0A3DEFAEFF0A3E58124FBF8E608F0D7
:1016C300A3E608F0A30808E608F0A3E608F0A315CC
:1016D300811581D0E0FED0E0F815811581E8C0E0E6
:1016E300EEC0E022851983851882E0A3FEE0A3F50E
:1016F300207808E0A3F608DFFAE0A3FFE0A3C0E048
:10170300E0A3C0E0E0A3C0E0E0A3C0E0E0A3C0E04A
:1017130010AF088582188583198008858218858310
:1017230019D2AFD083D08202013285198385188202
:10173300E0A3FEE0A3F5207808E0A3F608DFFAE0D3
:10174300A3FFE0A3C0E0E0A3C0E0E0A3C0E0E0A308
:10175300C0E010AF08858218858319800885821838
:10176300858319D2AFD083D08222C0D02518C582F9
:10177300C0E0E51934FFC583C0E0E518C3958224B2
:10178300F310AF088583198582188008858319852E
:101793008218D2AFC8F0A3E9F0A3EAF0A3EBF0A359
:1017A3007908E709F0A3D8FAECF0A3EDF0A3EEF083
:1017B300A3EFF0A3D0E0F0A3D0E0F0A3D0E0F0A338
:1017C300E520F0A3E5F0F0A322851983851882E0D4
:1017D300C0E0A3E0F9A3E0FAA3E0FBA37808E0F6F6
:1017E30008A3DFFAE0FCA3E0FDA3E0FEA3E0FFA370
:1017F300E0C0E0A3E0C0E0A3E0F5D0A3E0F520A3C0
:10180300E0A3F5F010AF0885831985821880088559
:101813008319858218D2AFD082D083D0E0F8D0E08C
:101823003274048006740280027401C0E0F404126E
:1018330015D6D0E01214AB22740480047402800025
:10184300CCC0E0EDC0E0E518C39CCCAD1950011D40
:1018530010AF068C188D1980068C188D19D2AF1213
:1018630014B8D0E0FDD0E0FC22D083D082E9C0E000
:10187300E493A3C386F0C5F095F0F908E493A38637
:10188300F0C5F095F0700BE493A3C3994005E90408
:101893008002A3E475F002A42582F582E5F0358386
:1018A300F583D0E0F9E493A3C0E0E493C0E022D051
:1018B30083D082ECC0E0EDC0E0E493A3FCE493A307
:1018C300FDED4C600D1218FEEC24FFFCED34FFFD22
:1018D30080EFE493A3FCE493A3FDED4C600D121998
:1018E3003DEC24FFFCED34FFFD80EFD0E0FDD0E0C4
:1018F300FCE493A3C0E0E493C0E022C0E0C3E4931C
:1019030096087401939618400FE493667008087460
:101913000193661870007019A3A3C3E49396087427
:1019230001939618A3A3400DD0E0D0E0D0E00218B5
:10193300EEA3A3A3A3A3A3D0E022C0E0C0F088F04A
:10194300E4936670080874019366187000A8F0A306
:10195300A3700BD0F0D0E0D0E0D0E00218EEA3A348
:10196300D0F0D0E02274F5121681EAFEEBFFEE24EC
:1019730034F8EF3400F988088909EE2435121AA0E7
:10198300F8EE2437121AA0F50AEC850AF0A4FCAA93
:10199300F0850AF0EDA42AFDE82CF8E43DF97A2558
:1019A3007B0012151AEA850882850983F05407F82B
:1019B3007401B800028004C333D8FCC0E0E0131301
:1019C30013541FF8EE28F8EF3400F9E8245DF5828C
:1019D300E93400F583D0E0F8E05860088508828593
:1019E3000983801DEE2436121AA0F5F0EA84A8F0CC
:1019F300EE28F8EF3400F9E82438F582E93400F5ED
:101A030083E0F97F0402172D74F5121681EAFEEBC9
:101A1300FFEE2434121AA0C0E0EE2435F582EF3431
:101A230000F583D0E0F08E828F83A3A3A3A3A3E06A
:101A3300FAA3E0FB8E828F83A3A3A3A3A3A3A3E0B4
:101A4300FCA3E0FDECC39AF50AED9BF50BEE2480B5
:101A5300F508EF3400F509850882F583E064017029
:101A63002BEE2481F582EF3400F58312183F121A0E
:101A7300A974021215BBE960137CFD7D04EEFAEF35
:101A8300FB120AF9850882850983E4F0AC0AAD0BE1
:101A9300EEFAEFFB121968122262021A06F582EFC0
:101AA3003400F583E022C082C083851882851983C0
:101AB300E0F8A3E0F9C3EA9CEB9D5012C3EC98ED68
:101AC300994019C3EA98EB99501279018010C3EA3F
:101AD30098EB9940F5C3EC98ED9950EE7900D083DB
:101AE300D08222EAC39CFAEB9DFB2200008521876A
:101AF3008522C622C0E074EF12176D759B009061BA
:101B030082E0A2E64003021BB8E591A2E64003028D
:101B13001BB87591BF9003C2E064057008120C975F
:101B2300120CA38003120C9D752100120D0FE99076
:101B330003C3F07900120D03120A637A017B00904C
:101B430003C1E0F9120FBB907803E0644260030223
:101B53001C0190055FE014F06003021C01C2AF1288
:101B63001B6500782AD0E0F618D0E0F6E59F54070D
:101B7300F97005908F988003908F7C780812145D1C
:101B8300E9C4C0E07829E65508F50808E65509F5E3
:101B930009740B7808121583D0E02508F890627059
:101BA300E0A2E740F8E8C333906272F0906270E01D
:101BB300D2E0F08049E0A2E55024E591A2E5501E71
:101BC3007591DF9003C2E0640D70139003E4E004A9
:101BD300F064287002E4F07A00E0F9120D8190615C
:101BE30081E0A2E35009E5E9A2E3500375E9F7A315
:101BF300E0A2E75009E591A2E7500375917F7F04C6
:101C03000217CCC0E0C0D0C082C083906183E0A241
:101C1300E05009E5BFA2E0500375BFFEE0A2E1502A
:101C230009E5BFA2E1500375BFFDE0A2E25009E55B
:101C3300BFA2E2500375BFFBE0A2E35009E5BFA2D8
:101C4300E3500375BFF7E0A2E45009E5BFA2E450F7
:101C53000375BFEFE0A2E55009E5BFA2E5500375A8
:101C6300BFDFE0A2E65009E5BFA2E6500375BFBFA0
:101C7300D083D082D0D0D0E032C0E074F212176D9E
:101C8300E5A7A2E4500FE5A1A2E4500953A7EF751D
:101C9300A1EF121CD0E5A7A2E5500CE5A1A2E550E7
:101CA3000653A7DF75A1DFE5A7A2E15009E5A1A2CD
:101CB300E1500375A1FDE5A7A2E2500CE5A1A2E264
:101CC300500653A7FB75A1FB7F010217CC74F812D2
:101CD30016817521019003C2E0640670077A007BC8
:101CE30000120C7FA2AFE433FED2AF9003C8E064CE
:101CF3000170187A207B009003C1E0F91210397A41
:101D0300207B009003C1E0F9120FC1906182E0D201
:101D1300E6F090055EE0602185C62280169003C739
:101D2300E064017008E5C654F84405F5C653BEFCEB
:101D3300121AF07401652160E4EEA2E092AF7F0114
:101D430002172D00008E238F248582288583278503
:101D53001882851983E0CEA3E0CF85288285278367
:101D6300EBC9EAC8EDCBECCA75F010C3E833C8E998
:101D730033C9EA33CAEB33CBC3EA9EF526EB9FF5AF
:101D830025B35004AB25AA26EC33CCED33CDD5F0E7
:101D9300DAAE23AF242274E912168174FA1215A560
:101DA300EAFEEBFF8C088D099003C2E024F7C3948D
:101DB300055006908FE4021EC0120BFB8A0A8B0BA0
:101DC300EA450B7003021EBD120CB58A0C8B0D1273
:101DD3000CB5EA650C7003EB650D60ECEEFCEFFDF2
:101DE300851882851983AA82AB83120CBB850A826C
:101DF300850B83A3A3780C12145D908FB8780C1213
:101E03001437851882851983781412145D908FB85E
:101E13007814121437780C7914121270501F780C3E
:101E2300791412140F908FF4780C12129040478596
:101E33000C10850D11850E12850F1380418514102A
:101E43008515118516128517137810790C12140F46
:101E5300908FF47810121290501C751000751100B9
:101E63007512007513017810791412140F78107914
:101E73000C1213D68008908FE4781012145D740945
:101E830078101213B7908FA0780C12145D78107924
:101E93000C12132F9003C2E06408600AE06406602A
:101EA30005E06405701C908FD878101212905012C0
:101EB300908FA478101213E98008908FE87810129D
:101EC300145D850882850983781012146C740612D8
:101ED30015BB7F1002172D74F7121681120CCD90CB
:101EE300055CE064017010906245E4F0A3F053F4E4
:101EF300F343FE0C5390F3120C6DE5C65480444932
:101F0300F5C6E59E547F644970F8906185740FF0BF
:101F130090055AE0F47002A3E0602C75080175097E
:101F23000090055AE07808121592E508F4FAA3E048
:101F3300600814600A14600C800DEA52808008EA7D
:101F430052908003EA52A079007F0202172D74F7A2
:101F5300121681E9FEEAFF74016E700C7A807B0031
:101F63009003C1E0F9120FBB9023B8E493F4600827
:101F7300E493F9120A45800953C680E59E547F70A5
:101F8300FA120C7390055CE064017003120A7B90F3
:101F9300055AE0F47002A3E0602A75080175090090
:101FA30090055AE07808121592AA08A3E060081475
:101FB300600A14600C800DEA42808008EA42908037
:101FC30003EA42A0120BFB8A088B09A808A909E8B7
:101FD300496017E5E170FCE82414F582E93400F563
:101FE30083E0F874FF68600288E174016F700A7A15
:101FF300019003C1E0F912100F021F4C74F1121685
:10200300818A088B098C0A8D0B740F1215F1780CD9
:1020130012145D908FB87808121437908FB8780C2B
:102023001214377808790C12127050157808790C4D
:1020330012140F908FF478081212904015790180D2
:1020430013780C790812140F908FF4780C121290F5
:1020530040EB79007F0802172D74ED1216818A0870
:102063008B098C0A8D0B74131215F1780C12145D05
:10207300908FB87808121437908FB8780C121437F1
:10208300780C790812127040117808790C12140F29
:10209300AA08AB09AC0AAD0B8022751000751100BC
:1020A3007512007513017810790C12140F781079DA
:1020B300081213D6AA10AB11AC12AD137F0C021782
:1020C3002D908FB8780812145D8A828B837808125A
:1020D300144A7F0402172D74F51216818C828D83A6
:1020E300780812145D8A828B8378081214231221D4
:1020F3002EC3E098F0A3E099122120401E908FCCCC
:10210300780812145D8A828B8378081213FC8E82FE
:102113008F83E02420F0A3E0344EF080A4F08E827D
:102123008F83C3E09420A3E0944E22EA2404F8EBC7
:102133003400F9E8FEE9FF8C828D83A3A3A3A3E017
:10214300F8A3E0F98E828F832274F5121681E9FEDB
:10215300900514E0FAA3E0FBEEC333F8E433F9741B
:10216300C928F582748E39F583E02AF508A3E03B8C
:10217300F5097808121828908FC412147B121D4891
:1021830074021215BB8A088B098C0A8D0B741078A4
:102193000812139EAA08AB097F0402172D74F112CB
:1021A30016818A0C8B0D8C0E8D0F740F1215F1E0B6
:1021B300FAA3E0FB74111215F1E0F508A3E0F509A9
:1021C30074131215F1E0FEA3E0FF7808121828EA51
:1021D3002401F508EB3400F509E4F50AF50B780C56
:1021E30079081212AF908FB0780812145D780C79C9
:1021F300081212AFAA0CAB0DAC0EAD0F121D487432
:10220300021215BB8B09EA450960047A0180027A40
:1022130000EC2AFCED3400FDECF8EDF97A717B0259
:1022230012151A88088909E4F50AF50B8E828F8343
:10223300780812146CECF8EDF97A717B0212151A16
:102243008A088B09740578081215928E828F83A3EE
:10225300A3A3A3E508F0A3E509F07F0802172DC0A7
:1022630082C083E9906000F0D083D08222C0E0C0B6
:10227300D0E8C0E0E9C0E0EAC0E0EBC0E0ECC0E0D9
:10228300EDC0E0EEC0E0C082C083C0F0A2AFE43393
:10229300FED2AFC2C0E5D1A2E4500653D1EF121172
:1022A30065751A00EEA2E092AFD0F0D083D082D051
:1022B300E0FED0E0FDD0E0FCD0E0FBD0E0FAD0E0DF
:1022C300F9D0E0F8D0D0D0E032C0E0C0D0E8C0E030
:1022D300E9C0E0E5A8D2AFC2C7751A00A2E7A2E73A
:1022E30092AFD0E0F9D0E0F8D0D0D0E032C0E0C077
:1022F300D0E8C0E0E9C0E0C008C009C082C083A242
:10230300AFE433F9D2AF9009DAE0F8A3E0687008DC
:10231300539AFBA374018025C2E99009DAE0F5081A
:1023230074012508F0745A2508F582E43409F5830D
:10233300E0F5C19009DAE0C394804002E4F0E9A239
:10234300E092AFD083D082D009D008D0E0F9D0E0BA
:10235300F8D0D0D0E032C0E0C0D0E8C0E0E9C0E0BF
:10236300EAC0E0EBC0E0ECC0E0EDC0E0EEC0E0C0EE
:1023730082C083C0F0E5A8FED2AF758900C2C57ADA
:10238300047B00900EA5E0F9120FBBEEA2E7A2E7D3
:1023930092AFD0F0D083D082D0E0FED0E0FDD0E089
:1023A300FCD0E0FBD0E0FAD0E0F9D0E0F8D0D0D018
:1023B300E032020132FFFFFFFFFFFFFFFFC082C0D9
:1023C30083E9900FB6F00225DF74F7121615E99032
:1023D30002E0F07C187D037AFF7BFF1207879002EF
:1023E300E174FFF0A3F0A3E4F0A3F079051207155D
:1023F3009002E0E0F91206437A9F7B07120961021B
:1024030032ED74F41216158A088B09EB5480603090
:102413009002E0E0F9120FB58A0A8B0BAE0AAF0BFC
:10242300EE4F60138E828F83E064B0700312072730
:10243300EEFAEFFB120FA9AA08E5096480FB8004FA
:102443007A007B000225AE74F212161574FC121585
:10245300A5EAFEEBFF74121215F11237D4EE4F709A
:10246300030224ED74021215F1EEF0A3EF1227E933
:10247300ECF0A3ED1227E9AA82AB8312063DE9F53E
:102483000A706AE508450960648E828F831237BA41
:10249300EE4F60567A067B00120FF78A0C8B0DA85D
:1024A3000CA90DE8497005750A1380418882898358
:1024B300E41224FAEEF0A3EF1237E5E508F0A3E502
:1024C30009F09002E61225819002E6700512329718
:1024D300801B1232858003EAFCEBFD8C828D831214
:1024E300258170F38C828D8380E3750A02A90A74B7
:1024F300041215BB0239D4F0A312378BA32274F252
:10250300121615890AE975F017A4FEAFF09002E5DB
:10251300E4F09002E3122581600A120FFD9002E3BA
:10252300E4F0A3F0EEFAEFFB120FF78A088B09EA47
:102533004509602FEEFCEFFD7900120F979002E33F
:10254300E508F0A3E509F07B00800812256BE4F0B1
:10255300A3F00BEBC3950A40F2E50A9002E5F0798C
:1025630000800279130239D4EB75F017A4F8A9F0AF
:102573009002E3E028FAA3E0398A82F58322122F3E
:1025830029EA4B2274F41216157900EAA2E0501BD3
:1025930075087075098F78081218287C047D007AF5
:1025A300B87B0F12070F74021215BB7F040216E7E4
:1025B300C082C0839002E61225E6601C888289836C
:1025C300A3A3E06A7003A3E06B8882898370E8A306
:1025D300A3A3A3122F2580047A007B00D083D0828B
:1025E300020132123ABAE8492274EE12161574FC4B
:1025F3001215A5EAFEEBFF851882851983E4F0A383
:10260300F0EE2402123277EE2405123792EE240400
:10261300F50EEF122B9EE024FE603924FC60462465
:10262300FE605224FE605E24FE70030226FF24FE39
:10263300700302276324FE700302277224FE7003D3
:1026430002278124FC700302279024FE70030227D3
:102653009F0227DC9002FF7417F0A3E41227F11204
:1026630003C10227DC851882851983AC82AD8312EE
:10267300072D0227AC851882851983AC82AD83129E
:1026830007330227AC850C08850D0974021215F176
:10269300AC82AD83850882850983122F25120661DA
:1026A3008A0C8B0DAC0CAD0DEC4D603BE4F50CF5D9
:1026B3000D780C121828750CFF750D02780C121882
:1026C30028750C00750D03780C1218287408121560
:1026D300F112183F123ADE1215BBE9F50C700B121A
:1026E3002F1B1203D9800F750C018508828509837E
:1026F3001227DF123297850C080227AF74021215D6
:10270300F1AC82AD83850C82850D83122CF0603C85
:10271300850C82850D83A3A312183F7510FF7511D5
:10272300027810121828751000751103781012180A
:102733002874081215F112183F123ADE1215BBE97C
:10274300F509700B122F1B1203DF800F750901852A
:102753000C82850D831227DF123297850908804C7E
:10276300851882851983AC82AD83120739803A8537
:102773001882851983AC82AD8312073F802B85189D
:1027830082851983AC82AD83120745801C8518822C
:10279300851983AC82AD8312074B800D8518828522
:1027A3001983AC82AD83120751E9F508E508602966
:1027B3008E828F83A3E06414601F850E82850F834E
:1027C300E09002FF1227E9123AB690030012329703
:1027D300E508A31227F11203BB023186123ABA8528
:1027E300188285198322F085188285198322F07C4B
:1027F300FF7D02850A82850B83122F292274EE1234
:10280300161574FC1215A58A0A8B0B8C0E8D0FEA14
:102813002405F508EB3400F5097C157D0079007A71
:10282300FF7B02120F97E5082402F50CE509123726
:1028330095851882851983858210858311781012F6
:102843001828850882850983A3A3A3A3122CE71262
:102853001828E5082405F510E5093400F51178106A
:10286300121828850C82850D8312303C12065B7486
:10287300061215BB8A108B11AE10AF11E50A2402A4
:10288300F50AE50B12327AEE4F70030229BE801768
:1028930074021215F1122F2588828983EAF0A3EBC3
:1028A300F09002FFE004F09002FFE0C394054003C0
:1028B3000229BEE4F510F51178101218287510E8F6
:1028C30075110278101218287510E9751102781025
:1028D30012182874061215F112183F7910EEFCEF46
:1028E300FD123AE01215BBE9705E85088285098303
:1028F300A3A3A3A3A3A3A3E0F89002E8E06870480E
:10290300122CE71218287CE97D02E5082408FAE571
:10291300093400FB120F9174021215BBE960298E72
:10292300828F83A3A3A3A3122F259002FFE0F510A8
:102933007402781012159274002510F58274033511
:1029430011F583EAF0A3EBF074021215F1858210FE
:10295300858311781012182874021215F112183F8A
:10296300850C82850D83122F4B1215BB8A108B1198
:10297300AE10AF119002FFE0F510751100740278EC
:102983001012159274FF2510F874023511F988821C
:102993008983A3122581700302288AE82403080887
:1029A30008E93400F9EE4F60030228938882898393
:1029B30074FFF0A3F09002FFE004F09002FFE060E8
:1029C3000A122F1B1203CD7900800B85088285091B
:1029D3008312328E790A02318674EA12161574FE56
:1029E3001215A58C128D13EA2405F50CEB123AC8C7
:1029F3001237BE750800750900EA2402F510EB349E
:102A030000F51185188285198385820A85830B78E1
:102A13000A121828850C82850D83A3A3A3A3122B66
:102A2300B4121828E50C2405F50AE50D12327A785C
:102A33000A121828850C82850D83122BB812065BA7
:102A430074061215BB8A0A8B0BEA450B7003022B23
:102A530059EA2404F50EEB122B9E1237BE8A828BA1
:102A630083A3A3A3E0F9851082851183122F2F601E
:102A730003022B59E4F514F515781412182875146C
:102A8300E875150278141218287514E9751502787B
:102A93001412182874061215F112183F7913AC0A90
:102AA300AD0B851082851183123AE61215BBE9F549
:102AB300096003022B599002E8E0F8E5087009E089
:102AC3002402900300F08014900300E0FCE8240249
:102AD300FAE43400FBEA6C7001EB707E850882AA8D
:102AE30082122CDE9414122CD6506B850E82850F25
:102AF30083E0C0E074012A122B95D0E0F00508852D
:102B03000E82850F83A3E0C0E085080A7401250ABD
:102B1300122B95D0E0F005089002E8122BB412189E
:102B2300287CE97D0285080A7401250A122BA81264
:102B330015BB9002E8E02508F50874FF6E70037476
:102B4300FF6F6012EE24010EEF3400FFE508C3941B
:102B5300145003022A06E5086013122F39851082E8
:102B6300851183122F251203D379008014E5097090
:102B73000375090A851282851383EEF0A3EFF0A98A
:102B83000974021215BB7F0E0216E785080C740147
:102B9300250CF58274033400F583223400F50F8588
:102BA3000E82F58322FA74033400FB120F7F740242
:102BB300221237F422A3A3122BBE22123285FDEE7A
:102BC300FAEFFB2274EE12161574FE1215A58C0E85
:102BD3008D0FEA2405F50CEB123795750B00900267
:102BE300FFE4F0F50AEA2402F508EB3400F5098066
:102BF300449002FFE0FA9002E8E0F8122CDE94170A
:102C0300122CD6400D9002FFE0F87416C398900280
:102C1300E8F0122CE71218287CE97D0274002AFAE6
:102C23007403122BAB1215BB9002E8E0F89002FF7D
:102C3300E028F0050AE50C2416F582E50D122B9920
:102C4300E0F8E50AC39850749002FFE0C39416506D
:102C53006BE50AC333F8E433F9E50C28FEE50D39D7
:102C6300FF851882851983AC82AD838E828F831290
:102C73002CF07008750B0112328A8050E4F510F5C0
:102C83001178101218287510E875110278101218AF
:102C9300287510E975110278101218287406121598
:102CA300F112183F7916850882850983123AE612D4
:102CB30015BBE9F50B7003022BF480BB7CFF7D028F
:102CC300850882850983122F251203E5A90B740257
:102CD300023188E99400C365D03322EA28F8E4344A
:102CE30000F9E822E0F51075110078102212317D09
:102CF3008A108B11AC10AD11EC4D2274EA1216152B
:102D030074FC1215A58A0C8B0D8C128D13EA240505
:102D1300F50AEB12327A750800750900E50A2402F8
:102D2300F510E50B3400F51174021215F185820ECE
:102D330085830F780E121828850A82850B83A3A337
:102D4300A3A312379A121828E50A2405F50EE50BFA
:102D53003400F50F780E121828851082851183121E
:102D63003280122F1F12065B74061215BB8A0E8B5C
:102D73000FAE0EAF0FE50C2402F50EE50D3400F592
:102D83000F80388882898374FFF00508122B8E74B4
:102D9300FFF005089002E8E0F50C750D00780C12C1
:102DA30018287CE97D0285080C7401250C122BA8D8
:102DB3001215BB9002E8E02508F508EE4F60278E58
:102DC300828F83A3A3A3E0F9850E82850F83122F3D
:102DD3002FEE2404123792E96027850C82850D8338
:102DE300122F11123297E5087003022EF7122F39B2
:102DF300850E82850F83122F251203EB7900022F94
:102E03000CE4F514F51578141218287514E87515E3
:102E13000278141218287514E9751502781412181B
:102E23002874081215F112183F7911EEFCEFFD8595
:102E33000E82850F83123AE61215BBE9F509709AE3
:102E4300850882AA82EA9002E87009E024049003CC
:102E530000F08025E0F8900300E0F514E82404FC7A
:102E6300E43400FDEC65147001ED7081122CDE94E6
:102E730012122CD64003022DF0850C82850D83E0BF
:102E8300C0E074012A122B95D0E0F00508850C826E
:102E9300850D83A3E0C0E0122B8ED0E0122F548562
:102EA300820C85830D780C12182874041215F11204
:102EB300183F851082851183122F4B1215BB8A0C84
:102EC3008B0DAE0CAF0D85080C7401250CF8740343
:102ED3003400F9EE4F7003022D868518828519831D
:102EE300E088828983122F54A3E0C0E0122B8ED096
:102EF300E0022D94E509700375090A850A82850BA2
:102F030083122F11123297A9097404022B86123AE5
:102F1300BA851282851383227CFF7D02850A82850E
:102F23000B83122F2922E0FAA3E0FB22122F29128E
:102F33000649E9F50922900300E0F5F0E5088490DD
:102F430002FFF07CFF7D0222122BBE12066774047F
:102F530022F005088518828519832274EC12161550
:102F630074FE1215A58A088B098C0E8D0FEA2405B1
:102F7300FEEB3400FF123167EE2418123792EA4554
:102F83000B700302300A123150502912302F8A106D
:102F93008B11EA4511606B7912AC0AAD0B8508827F
:102FA300850983122F25851082851183121613E953
:102FB300F50A7058E4F50AF50B780A1218288E8280
:102FC3008F83A3A3E0F50A780A121828EE240312CC
:102FD3003277780A1218288E828F8312303C1207B8
:102FE3007574061215BBE9F50A7021850C82850DEF
:102FF30083E0701F850882850983122F251203F150
:103003008011750A0E8009750A018004E50A6003C0
:1030130012328A850C82850D83E060047900800278
:10302300A90A74021215BB7F0C0216E78518828564
:103033001983122F2912076322123285FD85088214
:10304300850983122F292274EE12161574FE1215A8
:10305300A58A088B098C0C8D0DEA2405FEEB340040
:10306300FF750E00123167EA450B700302312E1211
:103073003150502C12302F8A0E8B0FEA450F604AC5
:103083007912AC0AAD0B850882850983122F258539
:103093000E82850F83121613E9F50E600302313198
:1030A30085088285098312336CAA0AFB12314270A8
:1030B300147AFF7BFF123142606C88828983E50AB0
:1030C300F0A3E50BF0750A008007750E0E805F050F
:1030D3000A9002E5E0FAE50AC39A504AE50A75F058
:1030E30017A4FAABF088828983A3A3E02AFAA3E0AA
:1030F3003BFB8A828B83123280EC4D70D2750A17A8
:10310300750B00780A121828EEFCEFFD120F7F747E
:10311300021215BBEEFCEFFD850882850983122F91
:10312300251203F78014750E098003750E01123AF8
:10313300B2850C82850D83123297A90E022CD1120F
:1031430007578A108B11A810A911E84922E5082412
:1031530002F508E5093400F5098A828B83A3A3A34A
:10316300E0A2E522851882851983AC82AD838E8225
:103173008F8312317D8A0A8B0B22E0FAA3E0FB12C4
:1031830006612274041215BB7F0A0216E774EC125F
:1031930016158C108D11EA2405F50CEB1237957575
:1031A3000F00EA2402F50AEB12327A850A82F583CC
:1031B300122F25123B6C700302326C750E00807166
:1031C300850C82850D83E06401704F8E828F83A30B
:1031D300A312183F8E828F83A3A3A3A3E0F51275D6
:1031E30013007812121828EE2405F512EF3400F5B7
:1031F300137812121828122F1F120775740612154E
:10320300BBE9F50F6014850C82850D83E4F0123A57
:10321300B28510828511831232977C177D00790065
:10322300EEFAEFFB120F978E828F83E4F0A3F00583
:103233000E9002E5E0F8E50EC398501EE50E75F01A
:1032430017A4F8A9F0850882850983A3A3123AD2AB
:10325300123280EC4D60030231C3850882850983F5
:1032630074FFF0A3F0E50F7006122F1F1203FDA9E0
:103273000F02302AF50AEF3400F50B22A312328530
:10328300FD22E0FCA3E0228E828F83123ABA850EE0
:1032930082850F83E8F0A3E9F022C082C083900205
:1032A300E1E06A7003A3E06B70067AE17B028004BD
:1032B3007A007B000225DF74F71216157F00EF7585
:1032C300F003A4F8A9F0EC28F8ED39F98882898392
:1032D300E06A7003A3E06B7006E8FAE9FB800B0F6A
:1032E300EFC3940240D87A007B007F010216E77493
:1032F300F61216151238A370067A007B008007A316
:10330300A3A3A3122F2502396474F2121615E9FE42
:10331300740E1215F112336C74101215F11237D4A6
:103323008C828D83E06402703BA3123AB688828953
:1033330083E0F50CA3E0F9A80C7402687003742908
:10334300697021750C02750D00780C121828780825
:10335300121828780A121828EEF91207997406121F
:1033630015BB800279010239D4E0F50AA3E0F50B1D
:103373002274E812161574FB1215A5E985188285C7
:103383001983F08A168B178C0E8D0F741F1215F18B
:103393001237D474211215F112336C74231215F100
:1033A3001237BE7510008C828D83A3A3A3E0A2E421
:1033B300502A741D1215F11230358A828B83E582EF
:1033C30045837003023480790AAC0EAD0FAA16ABA5
:1033D30017121613E9F5106003023483850E8285F4
:1033E3000F83E064026003023739A3123AB68508FB
:1033F30082850983A3858212858313E50E2406F54E
:103403000CE50F12379588828983E0FAA3E0F9EA85
:103413002400F514E439F51578141218B2010000EC
:103423002801284834070002281F3503288F340059
:1034330029493601297136022918360329493604E8
:1034430029DA363937EE4F703E850C82850D8312AB
:1034530037AFFAE9FB8A828B83E0850A82850B8387
:103463001237EB1218288A828B83A3123285FDAAA6
:1034730008AB09120F7F74021215BB800375100E7F
:10348300A9107405023AC075100B80F4EE4F70F763
:10349300850A82850B837401F01237C485088285FF
:1034A3000983F07C007D00850E82850F83A3A3A38F
:1034B300A3E02401FAA3E03400FB120661EA4B60A7
:1034C300418A828B83E02402F8850A82850B83E09C
:1034D30028F0EA2404F8EB3400F988828983E08534
:1034E30012828513831237FD1237EB1218288A8252
:1034F3008B8312327FE5082403FAE5093400FB02CB
:103503003476850A82850B83E02404F07C047D00F5
:103513007900AA12AB13120F97023483EE4F6003A4
:1035230002348A1237C4FEA3E0FF850A82850B8327
:103533007404F0EE850882850983F0EF8512828595
:103543001383F074031215F1AC82AD83EEFAEFFB33
:1035530012389170030235F58A828B83A3A3123745
:10356300BA74011215F185820E85830F780E121835
:103573002874051215F112183F7CFF7DFF120667B0
:1035830074041215BB8B0FEA450F7033850C8285CB
:103593000D8312379A121828850C82850D83A31286
:1035A300183F7C027D007A127B90120493740412FC
:1035B30015BBE9700A74011215F174FFF0A3F08EC4
:1035C300828F83E064027034750C02750D00780CF1
:1035D3001218288E828F8312327FE5082404FAE5BD
:1035E30009122BAB1215BB850A82850B83E02402DB
:1035F300800974011215F1EEF0A3EFF074011215B6
:10360300F11237ABF074011215F1A31237A3A3A380
:10361300A3F0023483EE4F600302348A850C828563
:103623000D83123280AA16AB1712078D850A828585
:103633000B837402F0EA850882850983F085128280
:10364300851383EB80CBEE4F600302348A1237C4B9
:10365300F8A3E0F9850A82850B837402F0E88508F4
:1036630082850983F0E985128285138380A3850C03
:1036730082850D83122F25120F79EAFC8C82A88292
:10368300C39EE49F404BE86E7001EF70047C0080A2
:103693001F851882851983E0FAEE2AFAEF3400FBBE
:1036A300C3EA98EB94005003E08004EECCC39CFC87
:1036B300EC850A82850B83F08C0A750B00780A125D
:1036C3001828850C82850D83E02EFCA3E03F02348D
:1036D30071751007023483EE4F600302348A850C40
:1036E30082850D83123AB6850A82850B837407F0AF
:1036F300888289831237A312378BE0851282851360
:1037030083F0E82402FAE93400FB8A828B831237C0
:10371300A31237DC1237ABA31237E51237B4F0E844
:103723002405F8E93400F9888289831237B4A31297
:1037330037FDA3023611741D1215F112389C700364
:10374300023480123AB6880C890DE8450D700302E5
:1037530034808E108F117810121828780A121828C6
:10376300780812182874061215F1E0F9AC0EAD0FA3
:10377300AA16AB17850C82850D83121613740612D5
:1037830015BBE9F510023483F088828983A322F5FF
:103793000CEF3400F50D22E0F50E750F00780E22C4
:1037A300E08508828509832212380422123ABAE896
:1037B30022123804A3A322A3A3A3A3E0FEA3E0FF42
:1037C30022850C82850D83E0F8A3E0F5838882E0EF
:1037D30022E0F508A3E0F50922A3A3F08A828B83F4
:1037E300A3221224FCA3A322F08A828B831237F430
:1037F30022E0F50A750B00780A2212378B1238047F
:1038030022E0850882850983A3A32274EE1216158C
:1038130074FE1215A58A0A8B0BECFAEDFB741412D5
:1038230015F1E0F510A3E0F51174161215F1E0FEA1
:1038330074181215F1E0F50EA3E0F50F85188285D3
:103843001983AC82AD83123891603E851882851945
:103853008312389C602FA3A31237D4E5084509606F
:1038630024780E1218287810121828EEF9AC0CAD33
:103873000DAA0AAB0B8508828509831216137404FB
:103883001215BB8006790E80027901022CD1120633
:10389300618A0C8B0DEA450D22122F291238A322BF
:1038A3001207218A828B83E58245832274F61216DE
:1038B3001574FE1215A5740C1215F11237AF851885
:1038C30082851983F074011215F1E9F0E4F508F526
:1038D3000978081218287508027808121828740441
:1038E3001215F185820885830978081218281207B2
:1038F3007574061215BB74021215BB806474F7123B
:103903001615EAFEEBFF89087C187D0312078DEA82
:103913005402600BA908EEFAEFFB120655800279F8
:10392300010232ED74F612161574FF6A700374FF08
:103933006B701C7B00EB75F003A4F8A9F0EC28F87E
:10394300ED39F91239690BEBC39402501480E61276
:10395300075D8A088B09A808A909E8496003123999
:10396300697F020216E78882898374FF1224FAE4CE
:10397300F02274F612161512075D8A828B83E58294
:1039830045836006A3A3E0FA80027A007B0080D11E
:1039930074F21216158A088B09ECFEEDFF740E12F1
:1039A30015F1E0F50A1239D9701CEEFCEFFD7AFF30
:1039B3007BFF1239D970047911801688828983E5D7
:1039C30008F0A3E509F088828983A3A3E50AF079C7
:1039D300007F060216E712075D8A0C8B0DA80CA95F
:1039E3000DE8492274EE121615EAFEEBFF8C088DE2
:1039F30009890C74121215F1123AB674141215F1E6
:103A030012328074161215F1122F25750D00EC4D2C
:103A13006003023AAA7402650C6003023AA5888225
:103A23008983123285F9EC2400F50EE439F50FEAA7
:103A3300F4F8EBF4F9EC58F8E50F59F9E849705D3F
:103A4300E5082406F8E5093400F9880A890B888219
:103A5300F583122BBA12078D8A108B11E50E6510B0
:103A63007004E50F65116042780E121828850A82EA
:103A7300850B83122BBA12079374021215BBE9F557
:103A83000D7027780E121828850882850983A3A351
:103A9300122BB81207A574021215BB800D750D8089
:103AA3008008750D0D8003750D0BA90D02318B8EEA
:103AB300828F83123ABA22E0F8A3E0F9221215BBEF
:103AC3007F100216E73400F50D850C82F58322E0A2
:103AD30028FEA3E039FF8E828F83227916850A821E
:103AE300850B83122F2912076F74082274F21216A2
:103AF30015EAFEEBFF890B7401650B600E7402651A
:103B03000B7063790112097FE9705BEEFAEFFB1228
:103B13003B6C6047750A00800B7C177D00790012AF
:103B23000F97050A9002E5E0F8E50AC3985021E5EE
:103B33000A75F017A4F8A9F0850882850983A3A361
:103B4300E028FAA3E039FB8A828B831225E670C949
:103B530085088285098374FFF0A3F07C187D03EE4A
:103B6300FAEFFB1207870239D41207578A088B0929
:103B7300EA45092274F21216158A088B09ECFEED48
:103B8300FF740E1215F112336C900FB6E0F4603D22
:103B93007A097B00120FA3EA4B60328A828B83740B
:103BA300B1F0A3E41237DEA31237DCA3E508F0A3D8
:103BB300E509123BD3EEF0A3EF123BD3A3A3E50A2F
:103BC300F0A3E50BF0900FB6E0F9120FAF0239D472
:103BD300F08A828B83A3A3A3A3A32274F0121615E6
:103BE300E9FE7F008A088B09780812186C00040D1F
:103BF300BD3D113C2E3C493C663C833CA03CC13C52
:103C0300DE3CF13C243D533D693D7F3D993D7401CC
:103C13006E6003023DB98C828D83E0F8C394034048
:103C230003023DB9E89010A2023D9674026E600350
:103C3300023DB98C828D83E0F8A3E0F99010A3E8EC
:103C4300F0A3E9023D9674016E6003023DB98C82D4
:103C53008D83E0F8C394024003023DB9E8900781E5
:103C6300023D9674016E6003023DB98C828D83E040
:103C7300F8C394054003023DB9E8900782023D96DC
:103C830074016E6003023DB98C828D83E0F8C394A6
:103C9300024003023DB9E8900783023D9674106E1B
:103CA3006003023DB97508108F0978081218287A45
:103CB300847B07120F7F74021215BB023DDD740172
:103CC3006E6003023DB98C828D83E0F8C394024099
:103CD30003023DB9E8900794023D9674016E6003B8
:103CE300023DB98C828D83E09010A6023D96740448
:103CF3006E6003023DB98C828D83780812145D7562
:103D03000C40750D42750E0F8F0F780C7908121247
:103D1300704003023DB9900796780812146C023D77
:103D2300DDEE6003023DB9120601E9701C8F08A99C
:103D3300081210B7E9F80508E508C3940A5003E828
:103D430060ED79501211BF80689008297401804397
:103D530074016E70618C828D83E0F8C394025056B7
:103D6300E8900795802D74016E704B8C828D83E0F3
:103D7300F8C3940A5040E89010A5801774016E7040
:103D8300358C828D83E0F874F928C3940A5027E8B0
:103D93009010A7F0804474016E701B900828E0F81F
:103DA3008C828D83E0900828F0E8702EE064017027
:103DB300291210B180247F188020C3EA9426EB9443
:103DC30000501574026E70108C828D83E0FCA3E0AA
:103DD300FD12049FE9FF80020F0FEFF90246FF7403
:103DE300F012161574B11215A58C0E8D0F908F64F9
:103DF300742012160B74061214B8742012160B12C8
:103E03001087E9F50A745F1215F1E0F50CE9C39424
:103E13000A4003023F6E75F006E9A4F509744112E6
:103E2300160B7A0E74202509F91211B9E9700A7478
:103E33004D1215F1E0F50880037508009010A2E01B
:103E4300640270047F0180027F007408650C7004B3
:103E53007422800274212509FE7C1B7D0079007485
:103E630026121603120F97742612160B7A1BEEF9FD
:103E73001211B9E9702D74401215F1E024F9C394BD
:103E83000A5020EFF50B780B12182C742712160B1F
:103E9300E508A2E0E433F9AA0EAB0F120541740161
:103EA3001215BB7C147D007900740C121603120FDB
:103EB30097740C12160B7A1074242509F91211B990
:103EC300E970357C1079FF740C121603120FDFE9C9
:103ED3007026741C1215F1AC82AD837A0474252507
:103EE30009F91211B9740C12160BE508A2E0E433B8
:103EF300F9AA0EAB0F120529AC18AD197A0C747020
:103F0300250AF91211B9E97050AA18AB191210A5B4
:103F1300750900A818A919880A890BAE0AAF0B8E78
:103F2300828F83E0FCA3E0FDEC4D601D8E828F83C6
:103F3300A3A3E0F50A750B00780A121828AA0EABA2
:103F43000F12077B74021215BB0509EE2403FE5002
:103F5300010FE509C3940440C6E508A2E1500C90A3
:103F63000780E0F9AA0EAB0F1207817404650C7089
:103F7300279010A2E06402701F7A00900794E0601B
:103F8300010A900781E06004780480027800E84A1F
:103F9300F9AA0EAB0F1205E97900744F0246FC74BF
:103FA300F012161574E11215A5E985188285198397
:103FB300F08A0E8B0F8C0C8D0D75080A600F146040
:103FC3000C146065147003024097024116750900D2
:103FD3007E9C7F07750A06750B00780A121828ACB9
:103FE3000EAD0FEEFAEFFB120F9174021215BBE93F
:103FF30070150509EE240EFE50010FE509C3940A5E
:10400300400302411680CD850908E508C3940A40A0
:1040130003024116E50C450D7003024116780A129E
:104023001828AC0EAD0F02410A7509007EA27F0766
:10403300750A06750B00780A121828AC0EAD0FEE40
:10404300FAEFFB120F9174021215BBE97015050903
:10405300EE240EFE50010FE509C3940A400302410A
:104063001680CD850908E508C3940A40030241166A
:10407300E50C450D7003024116740112160B7A0EFE
:1040830075F006E508A42420F91211B9E9600302CA
:10409300411680697E007F23740F12160B7A10EF8E
:1040A300F91211B9E9701E7C1079FF740F1216030F
:1040B300120FDFE9700FAC0EAD0F740F121603125F
:1040C300050BE9600D0E74062FFFEEC3940A5043EF
:1040D30080C68E08E508C3940A5038E50C450D6088
:1040E30032740112160B7A0E75F006E508A424202B
:1040F300F91211B9E9701C750A06750B00780A12DA
:104103001828740312160BAA0CAB0D120F7F74023E
:104113001215BBA908741F0246FC1215BB7F0402CB
:1041230016E774F012161574E61215A58C0E8D0F92
:10413300750815742A1215F1E0FEA3E0FF74FF6AF7
:10414300700374FF6B60030242A4750900750C20B1
:10415300740C12160B7A0EA90C1211B9E960030242
:1041630042607C0679FF740C121603120FDFE960BC
:104173000302426074702509F50DAC18AD197A0C71
:10418300F91211B9E9600302425DAA18AB191210C2
:10419300A5E50E450F70217C0C7900AA18AB191206
:1041A3000FDFE9600302425D7C0C7D007900AA18F1
:1041B300AB19120F9702424B7A00A818A9198882EB
:1041C3008983E0650E7004A3E0650F7003024272F9
:1041D3000AE82403F8500109EAC3940440E0780094
:1041E3007900E8497043EE4F60737C00A818A91961
:1041F300880A890BAA0AAB0B8A828B83E0F8A3E0B7
:10420300F9E849700302428B0CEA2403FA50010BCC
:10421300ECC3940440E278007900E849603F888267
:104223008983E50EF0A3E50FF0E82402F582E43973
:10423300F583E0FAEE6A7001EF601FEEF04F70084D
:1042430088828983E4F0A3F0AA18AB191210A5ACF5
:1042530018AD197A0CA90D1211B37508000509746C
:1042630006250CF50CE509C3940A5071024153EA83
:1042730075F003A4F8A9F0851882851983E58228CF
:10428300F8E58339F90241E5EC75F003A4F8A9F0E8
:10429300851882851983E58228F8E58339F9024276
:1042A3001D1209738A828B83E5824583602C7C000F
:1042B3007D00E5822405FAE43583FBA3A3A3A3E0F1
:1042C300F9121087E9C3940A5013EEFCEFFDAA0E0E
:1042D300AB0F12109F7508008003750814A90874AA
:1042E3001A0246FCC082C08390079AEAF0A3EBF05F
:1042F300900780E0FC7D007A257B0012049F9007E5
:1043030080E0F91206FDD083D08202013274F012EC
:10431300161574EC1215A5EAFEEBFF8E828F83A3AC
:10432300A3E024FA70030246CC24FD70030245AED9
:104333001470030243DC14601024FD700302456C07
:104343001470030245E60246FA90079AE0F8A3E0E8
:10435300F9E8496059E0F5838882E0F8A3E0F98839
:10436300088909E845096046EE240CF582E43FF527
:1043730083E0F50A780A12182CEE240BF582E43F49
:10438300F583E0F98E828F83A3A3A3A3A3A3A3A39F
:10439300A3E0FCA3E0FDEE2403FAE43FFB850882DF
:1043A30085098312161374011215BB0246FAEE2413
:1043B30009FE50010F8E828F8312183F90079612C9
:1043C300147B12053B74021215BBE970030246FA13
:1043D30079018E828F830246688E828F83A38582C2
:1043E3000E85830FE0600302453BEE2405F508E4E8
:1043F3003FF509850882F583E0A2E0400302453BCF
:104403007C0E7D007900AA18AB19120F97EE2408D1
:10441300F50CE43FF50D850C82F583E0FAA3E0FB90
:10442300EA4B6010750A06750B00780A121828EA21
:10443300241080248E828F83A3A3A3E0FAA3E0FB3E
:10444300120973EA4B70030246FA750A06750B00EC
:10445300780A121828EA2405FCE43BFD74021216BC
:1044630003120F7F74021215BB850882850983E04E
:10447300A2E25004D2F08002C2F0A2F0E433F87456
:104483000C1215F1E048F08E828F83A3A3A3A3A39C
:10449300A3A3A3A3A3E0FAA3E0FBEA4B6010EA24DF
:1044A30010F582E43BF583780812145D800C7508DF
:1044B300FF7509FF750AFF750BFFEA4B70047A005D
:1044C3007B00850C82850D83E0F8A3E0F9E8496061
:1044D30006880C890D8006750C00750D007808128E
:1044E30018248A088B097808121828780C121828BF
:1044F300EE240CF582E43FF58312183F8E828F83FE
:10450300A3A3A3A3A3A3E0FCA3E0FD740A121603D1
:104513001210AB740A1215BB8E828F83A3A3A3E080
:10452300F8A3E0F990082AE8F0A3E9F07A017B0008
:10453300900780E0F9120FBB90079AE0F8A3E0F927
:10454300E84970030246FAE0F5838882A3A3E0F802
:10455300A3E0F98909E8450970030246FA850E824A
:10456300850F83E0FC7901802E90079AE0F8A3E0A1
:10457300F9E84970030246FAE0F5838882A3A3E0D1
:10458300F8A3E0F98909E8450970030246FA8E8227
:104593008F83A3E0FC79028E828F83A3A3A3E0FA27
:1045A300A3E0FB88828509830246C77C007D00EE79
:1045B3002404FAE43FFB8E828F83A3A3A3E0F912C2
:1045C3001087E9F8C3940A40030246FAEE240AFC72
:1045D300E43FFD7A0475F006E8A42425F91211B32B
:1045E3000246FAEE2403F50AE43FF50B850A82F549
:1045F30083E0FAA3E0FB900795E060079010A5E045
:10460300F980679010A2E070047905805D12097348
:104613008A088B098E828F83A3A3A3A3A3A3A3E0FA
:10462300A2E0504CEA450970030246FA8A828B8362
:10463300A3A3A3A3E0F960388E828F83A3A3A3A3CC
:10464300A3A3A3A3A3E054107026740E12160BEABF
:104653002405FAE43509FB121087E9701379038501
:104663000A82850B83E0FAA3E0FB1205350246FAC2
:10467300EE2405FCE43FFD850882850983A3A3A3FB
:10468300A3E0F9850A82850B83E0FAA3E0FB12100D
:10469300C990079AE0F8A3E0F9E849605AE0F58386
:1046A3008882A3A3E0F8A3E0F9E8FEE9FFEE4F60F8
:1046B300467C007900850A82850B83E0FAA3E0FB40
:1046C3008E828F83121613802E120601E9702890B2
:1046D3000829E0640170187E00EEF91210B7E9F8BA
:1046E3000EEEC3940A5003E860EF900829E4F079D2
:1046F300501211BF1210B174141215BB7F080216A9
:10470300E774F212161574E61215A589098A0C8B43
:104713000DECFEEDFF740C12160B7A0E75F006E924
:10472300A42420F91211B9E960030248557C0679E3
:10473300FF740C121603120FDFE96003024855746D
:10474300702509F508AC18AD197A0CF91211B9E9FD
:104753006003024820AA18AB191210A5E50C450DF9
:1047630070217C0C7900AA18AB19120FDFE96003E2
:104773000248207C0C7D007900AA18AB19120F9710
:1047830002480E7A00A818A91988828983E0650C6B
:104793007004A3E0650D70030248240AE82403F8BB
:1047A300500109EAC3940440E078007900E84970B5
:1047B3003BEE4F70030248557A00A818A919888266
:1047C3008983E0FCA3E0FDEC4D606F0AE82403F865
:1047D300500109EAC3940440E578007900E8496090
:1047E3007188828983E50CF0A3E50DF0E82402F5D6
:1047F30082E439F583E0FAEE6A7001EF601FEEF0B0
:104803004F700888828983E4F0A3F0AA18AB1912C9
:1048130010A5AC18AD197A0CA9081211B37901804F
:1048230033EA75F003A4F8A9F0851882851983E5A6
:104833008228F8E58339F90247B0EA75F003A4F852
:10484300A9F0851882851983E58228F8E58339F96B
:10485300808B7900741A1215BB7F060216E774F772
:10486300121615EA240CF8E43BF98A828B83E0F4F0
:10487300FCA3E0F4FD8A828B83ECF0A3EDF0EA2441
:1048830002F582E43BF583E0F4F0EA2403FA5001F5
:104893000BE86A7002E96B70D17F010216E774F0CE
:1048A30012161574F31215A58A0A8B0B8C0E8D0F35
:1048B300EA450B7005790A024A6E7509007E9C7FF2
:1048C30007750C06750D00780C121828AC0AAD0B91
:1048D300EEFAEFFB120F9174021215BBE970120589
:1048E30009EE240EFE50010FE509C3940A500C8013
:1048F300D0850908E508C3940A402E7509007E9CFB
:104903007F077C0679FFEEFAEFFB120FDFE97016E3
:104913000509EE240EFE50010FE509C3940A40E297
:1049230075080A024A6C850908E508C3940A40031E
:10493300024A6C75F006E508A4FEAC0AAD0B7A0ECC
:1049430074202EF91211B3E50E450F600DAC0EADB8
:104953000F7A1B74212EF91211B3741D1215F1E095
:10496300FCA3E0FDEC4D60097A1B74222EF91211B1
:10497300B3741F1215F1E0FCA3E0FDEC4D60097A5E
:104983001074232EF91211B374211215F1E0FCA354
:10499300E0FDEC4D60177A1074242EF91211B374F4
:1049A3002312160B7A0474252EF91211B37C0C7D95
:1049B3000079FF7401121603120F97740112160B7C
:1049C3007A0C74702508F91211B3750C0E780C1259
:1049D3001828AC0AAD0BE50875F00EA4F8A9F0741D
:1049E3009C28FA740739FB120F7F74021215BB90CF
:1049F3000828E0602E1207ED7E9C7F077C0679FF76
:104A0300EEFAEFFB120FDFE97009EEFAEFFB790024
:104A13001207F3EE240EFE50010F64287003EF64B7
:104A23000870D97509007E9C7F077C0679FFEEFA32
:104A3300EFFB120FDFE970020509EE240EFE5001B1
:104A43000F64287003EF640870E0E509C3940285DE
:104A53001882851983400474028002740AF0AC182A
:104A6300AD197A017905120619A908740D0246FCDD
:104A730074F712161574FF1215A57508007E9C7F36
:104A830007EEFCEFFD7A0E75F006E508A42420F985
:104A93001211B9E960297C067D0079FFEEFAEFFB7C
:104AA300120F977C067D0079FFEE2CFAE43FFB1290
:104AB3000F97EE240CF582E43FF583E4F0A3F005B1
:104AC30008EE240EFE50010FE508C3940A40B2908D
:104AD3000828E0602E1207ED7E9C7F077C0679FF95
:104AE300EEFAEFFB120FDFE97009EEFAEFFB790044
:104AF3001207F3EE240EFE50010F64287003EF64D7
:104B03000870D97508007E9C7F077C0679FFEEFA52
:104B1300EFFB120FDFE970020508EE240EFE5001D1
:104B23000F64287003EF640870E0E508C3940285FE
:104B33001882851983400474028002740AF0AC1849
:104B4300AD197A01790512061974011215BB0248D1
:104B53009C74F312161574CB1215A5890C75F00607
:104B6300E9A4FE74202EFF742712160B7A0EEFF9B8
:104B73001211B9E96003024C367C0679FF742712DF
:104B83001603120FDFE96003024C367C0E7D0079B9
:104B9300FF7427121603120F977C1B7D0079FF7495
:104BA3000C121603120F977C0C7D0079FFAA18AB29
:104BB30019120F97742712160B7A0EEFF91211B30D
:104BC300E9F508740C12160B7A1B74212EF91211D5
:104BD300B3E9FF740C12160B7A1B74222EF912110F
:104BE300B3E9F509740C12160B7A1074232EF9121B
:104BF30011B3E9F50A740C12160B7A1074242EF90A
:104C03001211B3E9F50B740C12160B7A0474252EEA
:104C1300F91211B3E9FEAC18AD197A0C7470250CB6
:104C2300F91211B3E9F8EF4509450A450B4E48421D
:104C3300088003750800A90874351215BB7F0502A7
:104C430016E774F7121615E9900780F01210B102F7
:104C5300489C74F012161574DB1215A58A0E8B0F7F
:104C6300EB54807003024DE4900780E0F9120FB516
:104C73008A088B09AE08AF09EE4F7003024DDA8E36
:104C8300828F83E02450604914600A24E170030298
:104C93004DD0024DD3A3A3A3A3E06003024DD38E53
:104CA300828F83A3A3A3A3A3A3A312183F8E828FF0
:104CB30083A3A3A3A3A3E0FCA3E0FD8E828F83A31E
:104CC300A3E0FAA3E0FB12108D74021215BB024D90
:104CD300D3A3A3A3A3E0641E6003024DD38E828FEC
:104CE30083A3A3E0FAA3E0FB74FF6A700374FF6B72
:104CF300705D750820740B12160B7A0EA908121139
:104D0300B9E9703A7C0679FF740B121603120FDFB0
:104D1300E9702B74171215F1E0F8A3E0F9E854FDDC
:104D2300FAE86A7001E9601674171215F1EAF0A344
:104D3300E4F0740B12160B7A0EA9081211B3740661
:104D43002508F508745C65087003024DD380A6122C
:104D530009738A828B83E582458360747C007D00BE
:104D6300E5822405FAE43583FBA3A3A3A3E0F912A8
:104D73001087E9F8C3940A505775F006E8A4242075
:104D8300F508740B12160B7A0EA9081211B9E97003
:104D93003F7C0679FF740B121603120FDFE97030A4
:104DA30074171215F1E0F8A3E0F9E854FDFAE86A84
:104DB3007001E9601B74171215F1EAF0A3E4F074B3
:104DC3000B12160B7A0EA9081211B3800312109955
:104DD300EEFAEFFB120FA9AA0EE50F6480FB025057
:104DE300DFEAA2E040030250DB90082AE0F8A3E0E8
:104DF300F974091215F1E8F0A3E9F074071215FB31
:104E03008808890978081218287508027509007836
:104E13000812182875081875099078081218287C44
:104E2300FF7DFF7A017B0012065B74061215BB85BA
:104E33001882851983EAF0A3EBF08518828519831C
:104E4300E0F8A3E0F9E84970030250D2E4F508F56D
:104E530009780812182874081215FB88088909783C
:104E63000812182874081215FB8808890978081293
:104E73001828740D1215F112183F790274081215CF
:104E8300F1E0FCA3E0FD74111215F1E0FAA3E0FBDD
:104E930012076F74081215BBE9600302508D740486
:104EA3001215F1E0FA74051215F1E0F8E4C8F9EA15
:104EB30028FEE439FFEE4F700302508D851882857A
:104EC3001983E0F8A3E0F5838882A3A3A3A3E0F802
:104ED300A3E0F974021215F1E8F0A3E9F0740912E2
:104EE30015F1E0F47003A3E0F46003025049750880
:104EF30000750920740B12160B7A0EA9091211B949
:104F0300E960030250087C0679FF740B1216031242
:104F13000FDFE9600302500874702508F50C74195B
:104F230012160B7A0CA90C1211B9E960030250088E
:104F330074191216031210A574021215F1E0F8A3E6
:104F4300E0F9E84970237C0C7900741912160312F6
:104F53000FDFE960030250087C0C7D0079007419AF
:104F6300121603120F97024FF47A0074191215FBED
:104F730088828983E0FCA3E0FD74021215F1E06CE2
:104F83007003A3E06D700302501A0AE82403F8507B
:104F93000109EAC3940440D878007900E849703DD8
:104FA3007A0074191215FB88828983E0FCA3E0FD63
:104FB300EC4D607B0AE82403F8500109EAC394042A
:104FC30040E578007900E849603B74021215F1E08E
:104FD300FAA3E0FB88828983EAF0A3EBF0E82402DA
:104FE300F582E439F583E0F8EE687001EF6016EEC0
:104FF300F074191216031210A5741912160B7A0CF9
:10500300A90C1211B3050874062509F509E508C3AF
:10501300940A5076024EF7EA75F003A4F8A9F074E7
:10502300191215F1E58228F8E58339F9024F9FEA51
:1050330075F003A4F8A9F074191215F1E58228F8A4
:10504300E58339F9808074091215F1E0FAA3E0FBD6
:105053001209738A828B83E5824583602D7C007DF0
:1050630000E5822405FAE43583FBA3A3A3A3E0F9B7
:10507300121087E9C3940A5011EEFCEFFD7402127B
:1050830015F1E0FAA3E0FB12109FE4F508F50978A7
:105093000812182874091215F112183F7CFF7DFFBE
:1050A30074041215F1E0FAA3E0FB1206677404120C
:1050B30015BB851882851983EAF0A3EBF085188266
:1050C300851983E0F8A3E0F9E8496003024E4FE550
:1050D3000E6401FAAB0F80047A007B00742502464C
:1050E300FC74F412161574E81215A58A088B09E9E5
:1050F300FE8C0A8D0B7C187D007900AA18AB19125F
:105103000F97851882851983E508F0A3E509F090C8
:105113000782E0C0E074021215F1D0E0F09007833B
:10512300E0C0E074031215F1D0E0F09010A7E0C0E6
:10513300E074171215F1D0E0F074151215F1E05474
:10514300FEF8A3E0F99010A6E0A2E0E433FAE84AFF
:10515300F874151215F1E8F0A3E9F09010A6E0A297
:10516300E15004D2F08002C2F0E854FDFAA2F0E468
:105173003325E0F8EA48F874151215F1E8F0A3E9CD
:10518300F09010A6E0A2E35004D2F08002C2F0E84F
:1051930054F7FAA2F0E433F50875090074037808AC
:1051A300121592EA4508F874151215F1E8F0A3E90F
:1051B300F09010A6E0A2E45004D2F08002C2F0E81E
:1051C30054EFFAA2F0E433F5087404780812159248
:1051D300EA4508F874151215F1E8F0A3E9F0901008
:1051E300A6E0A2E55004D2F08002C2F0E854DFFA50
:1051F300A2F0E433F50874057808121592EA45081D
:10520300F874151215F1E8F0A3E9F09010A6E0A2E6
:10521300E25004D2F08002C2F0E854FBFAA2F0E4B8
:1052230033F50874027808121592EA4508F87415E4
:105233001215F1E8F0A3E9F0900783E0601D75080B
:105243001078081218287C847D0774061215F1AAB9
:1052530082AB83120F7F74021215BB900794E06038
:1052630010EE600974151215F1E04402F078018024
:1052730002780074141215F1E048F0900781E060A1
:105283000478048002780074141215F1E048F0AC3D
:105293000AAD0BAA18AB1912052F741802411DC0D1
:1052A30082C0839061907404F0A37448F0A3E4F087
:1052B3009061807440F09061BC7407F090618774D2
:1052C30069F09061B67416F07900120A69790212D6
:1052D3000A6F9023B8E493F46006E493F9120A4545
:1052E3007905120D630256E4C082C083E9540FF9B5
:1052F300906185E0696012E5C654804449F5C6E5CE
:105303009E547F644970F8E9F053C680E59E547F4C
:1053130070FA0256E474F7121615E5A8FE53A87E38
:10532300120A51C2BA539AFEC289759B00C2C212B5
:105333000A5775A91175B905120A5DD2BA439A01C4
:1053430074805E42A8025C71C082C083906181E474
:10535300F0A30256E175E90075910075BF000201E3
:1053630032C082C083906181E4F0A374C0F0A3E4EF
:105373000256E3C082C08374F81215A59003C412C9
:105383005B53E849700302542D9003C4E05440601A
:10539300237908851882851983AA82AB83120B5F50
:1053A300851882851983AA82AB831208119003C4DE
:1053B300E054BFF0E054806010790C7A807B0512D2
:1053C3000B5F9003C4E0547FF0E0A2E05008790043
:1053D30012543554FEF0E05402600879011254353A
:1053E30054FDF0E054046008790012544054FBF07B
:1053F300E054086008790112544054F7F0E0541067
:105403006008790212544054EFF0E05420600879A8
:105413000312544054DFF0A3E05401600D120A7BE1
:105423001208239003C5E054FEF074081215BB0262
:1054330056E4120A691208179003C4E022120A6F95
:1054430012081D9003C4E022C082C083E9600514E2
:10545300602A804F90619A7433F0A37455F0906181
:10546300A0743AF090055CE064017009C291900366
:10547300C67467802D9003C67461802690619A7408
:105483003FF0A3745AF09061A0747FF090055CE044
:1054930064017009D2919003C6747180059003C6AC
:1054A300746AF00256E4C082C083E9600B14600D95
:1054B30014600F14601180209023BC80159023BDCD
:1054C30080109023BE800B90055CE0640160F39034
:1054D30023BFE493906186F00256E474EE1216152E
:1054E30074F41215A5851882851983AC82AD837572
:1054F300838F7582D074041214B89023BC93F46024
:1055030003025670907808E0C39402500302565089
:1055130074041215F1AC82AD8375838F7582467462
:10552300081214B8F97AFF7BFF7FFF7E008982851A
:105533008210801874086E700302560574096E7029
:1055430003025605740A6E7003025605E510C33351
:10555300FCE433FD74041215F1E5822CF582E58336
:105563003DF583E0F50EA3E0F50F8E087509007491
:1055730002780812159274482508FC74783509FDE1
:105583008C828D83780812145D7408780812139E38
:1055930085080C85090D8C828D83780812145D743F
:1055A30018780812139EE50C4508F508E50DF50972
:1055B300C3E50E9508E50F95098C828D8378081253
:1055C300145D8C828D83780812145D7418780840FA
:1055D3001412139EE50C4508FCAD0DE50EC39CFCAF
:1055E300E50F9D800F12139EE50C4508C3950EFC35
:1055F300E50D950FFDC3EC9AED9B5006ECFAEDFB20
:10560300EEFF0EEEC39413500302553774FF6A7016
:105613000374FF6B602D8F0874027808121592745F
:10562300481262FF74783509F583780812145D8592
:105633001882851983E5822510F582E58312608C33
:10564300E508F009E9C394045003025528750801DD
:10565300750900780812182874021215F1AC82AD8E
:10566300837AEF7B081210F374021215BB740C12C9
:1056730015BB7F0A0216E7C082C083906186E0F8FB
:105683009023BFE4936870099023BEE493906186EE
:10569300F09061AE7468F0A3746AF090624574FB95
:1056A300F0A304F053F4FD43FE0290055C7401F093
:1056B3009061A0E0643A7004790080027901120AD3
:1056C300690256E4C082C08390050EE06401700A4B
:1056D300900513E06004790C800279008003F0A345
:1056E300F0D083D082020132C082C08375E1F19091
:1056F3000511E0604D146008146051146049805135
:10570300120A8D900507E0F97A087B05120CE590E3
:105713008FC812147B120D1B908FF012147B120C86
:10572300F1900512E0F9120CFD7901120D57900565
:1057330005E0241612587974A5F0A3740AF07900D1
:10574300809F120A9380BC120A9980B7120A9F8025
:10575300B2791280EB74F412161575D90D9004F614
:10576300E0A2E0E4331313F81257E5484401F5D9F6
:10577300780012586340FB7800880874F71262FFC0
:10578300740412586D40F275E1959004F6E0F97ACD
:10579300F77B04120CEB900FD8741BF0A3740A125E
:1057A30058881258A812589F1259E01257EF7808D8
:1057B30012145D908FB478081213E9908FB87808AB
:1057C300121437125873780812146C900505E024EC
:1057D300141258797413F09003C27402F07F040218
:1057E30016E7900507E0C4333354C022900505E063
:1057F300F8A3E0F5838882A3A32274F61216151288
:1058030059B18AD9780012586340FB780080061298
:105813005917125A63E8C39940F51259A3125863F2
:1058230040FB780080081262FB7405125A63E8C3D8
:105833009940F375E195900FD87427F0A3740A1279
:10584300588812589212147B1258731214879005B9
:1058530005E024141258797412F09003C2025C4ECE
:10586300880874082508F5827405125BBF94062224
:10587300900505E0240EF8A3E0125880223400F9C5
:1058830088828983221259C97421F0A3740A2212CF
:1058930058A812589F1259E4908FCC22F0A3743960
:1058A300F0A3740A221258AC221258B022F0A37447
:1058B300CBF0A3740B2274F612161512590C12575F
:1058C300E54402F5D9780012586340FB780080065E
:1058D300125917125A63E8C39940F575E195900F71
:1058E300D8125922F0A312592212589512147B127E
:1058F3005873121487900505E02414125879741410
:10590300F09003C27404025C50900517E0F9740729
:1059130029F5D922880874182508F582740522749C
:105923003312592F12592FF0A3740A22F0A3740AC9
:10593300F0A374332274F61216151259B174064A81
:10594300F5D9780012586340FB7800800612591786
:10595300125A63E8C39940F51259A312586340FBE6
:10596300780080081262FB7405125A63E8C39940F9
:10597300F375E195900FD8742DF0A3740A1259BFF3
:1059830012589212147B125873121487900505E073
:1059930024141258797415F09003C27403025C50F6
:1059A30090053712590F74044AF5D9780022125919
:1059B3000C900507E0C4333354C0FA221259C9745A
:1059C300CBF0A3740B221259CD221259DA74CBF007
:1059D300A3740B1259DA221258B0F0A3221259E41D
:1059E30022F0900FE674CBF0A3740B1259CD74CB55
:1059F300F0A3740B1258ACF022C082C0831257EF8D
:105A0300A3A3A3A3E40256E174F71216151265418A
:105A1300F8740339F9E82405FAE93400FB8A828B28
:105A2300831262B088828983A3A3A3A3A3A3A3A39E
:105A3300A3ECF0A3EDF088828983A3A3A3A3A3A37C
:105A4300A3E024FFF8A3E034FFF98A828B83E8F014
:105A5300A3E9F0025C71880874602508F582740577
:105A63001261D7F5D90822EAFEEBFF9061D0E0F886
:105A73007480C398FAEE248322125A829404221269
:105A8300609AE0F5D90AEAC32274F6121615EAFE03
:105A9300EBFF9061D0E0707575D90E75D90375D998
:105AA300047A008A08EE250812660F248C125B25FF
:105AB30040F17A008A08EE250812660F2484125AF0
:105AC3007C40F175E1957908EE248C125B1E2484E9
:105AD300125B157C008C82AA82C3E49AF895E0F9E4
:105AE300EE28F8EF39F9E8248BF582E91261D3C087
:105AF300E0EE2A12660F24ABF582E912608CD0E047
:105B0300F00CECC3940840CD125BDB8002790002F9
:105B13005C51FAEF3400FB120B5322125B1579042C
:105B2300EE22125A82940822C082C08375D902756C
