:020000040000FA
:0600000002011D021EAA10
:03002B00021BEACB
:03005300021F2069
:03006B00021BB8BD
:10008300021D9BE5C754F84401F5C779012200001E
:100093000080FB120086B90003020107E47921788E
:1000A30008B800028004F709D8FCE479297802B87B
:1000B30000028004F709D8FCE490028178BF790834
:1000C3008002F0A3D8FCD9FA781A90014D7A01BACC
:1000D30000028007E493A3F608DAF9900A3FAA82A4
:1000E300AB8390014E786779048015E493A3AC82C7
:1000F300AD838A828B83F0A3AA82AB838C828D83A8
:10010300D8E9D9E77582DF7583A4740312012F75CB
:100113008291758300740012012F75D00075813FA1
:10012300751881751902759F00020096C09FF59F8F
:10013300E473D09F22D083D082C09FE493C0E07445
:100143000193C0E0740293F59F2201FFFF1101990F
:10015300010F12640401028E900100005A9002887C
:1001630090010000460A02AC90010000470A028693
:1001730090030000A702027490010000480A0202E3
:1001830002020202020202010D0000001001028EAF
:10019300900100005790028890010000720A02A6A5
:1001A30090010000AD02028890010000730A02A4CE
:1001B30090010000698F028890010000740A02A276
:1001C300900100005B8F028890010000750A02A075
:1001D30090010000E78E028890010000760A029EDB
:1001E30090010000F98E028890010000770A029CBA
:1001F300900100000B8F028890010000780A029A98
:1002030090010000D58E028890010000790A0298BF
:10021300900100004D8F0288900100007A0A029637
:10022300900100007B0A01E803053F1001A80700C5
:10023300000D09484944204B6579626F617264027D
:1002430001050319C103050212180F1860EA000023
:10025300010208080800003F0202192A04060112DD
:1002630000010E0002120E120A0003028E9001001A
:10027300005490028A900100008E040288900100CD
:10028300004C0B026A900100004890028890010024
:1002930000500B0266900200009004028890010057
:1002A30000510B029490030000520B02889001004E
:1002B300004D0B026890010000FE8D027890010052
:1002C300004E0B028890010000530B02768F010051
:1002D30000910402869003000092040274900100CE
:1002E30000540B028890010000560B02768F030026
:1002F300009804027490010000570B0288900100DB
:1003030000590B02B090010000990402869003008B
:10031300009A040288900100005A0B026C900300BB
:1003230000A0040288900100005B0B026E900100A4
:1003330000A104028690030000A204028890010039
:10034300005C0B02768F030000A804027490010086
:10035300005D0BFF00013075030201060000000081
:10036300000000000000000000000000000000008A
:100373000000000000000000FFFF0600800CE803FF
:100383000410028E90010000639002889001000027
:10039300740C0276900200005A0502889001000056
:1003A300750C0270900000005E0502869003000049
:1003B3005F05FF0000B4000028002800283075A066
:1003C30000A000A000A00000080008E001F0001059
:1003D30000100010001000100010005000500050DA
:1003E3000010001000D0070000000000000F000103
:1003F300000500307507001000010081FF0000FFB9
:10040300080B260B0E0BFF02020208025000A0008D
:100413000000E803028E90010000609002889001C2
:100423000000FB0C028490010000960502889001F5
:100433000000FC0C02AA90010000AC0502889001A8
:100443000000FD0C028090010000AE0502889001BF
:100453000000FE0C027E90080000AF0502889001A8
:100463000000FF0C027C90010000000DFF0100FF63
:1004730020028E900100005D9002889001000064CC
:100483000D027A900000000000028690030000FC39
:1004930005201120112011201120112011201120DD
:1004A3001120112011201120112011F6130E14F028
:1004B300131201383ECC0212013848CC0212013823
:1004C30086CC02120138CFCC0212013809CD0212B8
:1004D300013863CD0212013884CD021201388DCD6B
:1004E30002120138DACD0212013803CE02120138AA
:1004F3000DCE0212013879CE021201380BCF02124F
:10050300013855CF021201388BCF0212013817D0B0
:100513000212013858D0021201388FD0021201386A
:10052300A1D002120138C0D002120138C9D0021280
:10053300013896D102120138BC9F03120138D293BD
:10054300031201380894031201383E940312013850
:100553008995031201385AA30312013870A30312B9
:1005630001387AA303120138C4A30312013854E0FB
:100573000212013869E00212013819E1021201384E
:1005830059E10212013872E102120138ADE102129F
:100593000138FAE1021201382CE2021201386EE24C
:1005A300021201386FE402120138E1E40212013849
:1005B3007BA403120138B3A003120138DCA0031299
:1005C30001380BA10312013823A10312013865A1DD
:1005D30003120138DFF9021201380FFA021201384F
:1005E30022FA0212013851FA02120138CFFA02122A
:1005F3000138EEFA0212013899FB021201382EFC7F
:1006030002120138B7FC0212013884FD02120138CC
:10061300618A03120138868A0312013837A503124F
:1006230001383A3D001201380D3F00120138ED3F09
:100633000012013894410012013848420012013877
:10064300D242001201385343001201387C43001296
:100653000138CE43001201388C470012013812488A
:100663000012013839490012013873490012013868
:10067300B44900120138FC4A00120138594B0012E8
:100683000138A24B001201380D4C001201387E4C88
:1006930000120138B04C00120138C84C0012013866
:1006A300F84D00120138084E00120138B24F001203
:1006B3000138C94F00120138FB4F00120138AF5106
:1006C300001201383C5200120138ED7F001201384C
:1006D300F47F00120138DC7F00120138AAA1031253
:1006E3000138BAA103120138C9A1031201387DA24E
:1006F30003120138B89E031201383D9F03120138DB
:10070300A39F03120138749C03120138969C0312B1
:100713000138F79C03120138099D03120138599DD2
:1007230003120138979D031201389A9D0312013871
:10073300DAF102120138EEF10212013868F2021204
:1007430001384CF30212013823F50212013888F5FF
:1007530002120138DFF502120138F87F0012013866
:100763006B8F031201380191031201386291031256
:100773000138A891031201382CF4011201388CF4CA
:10078300011201388EF501120138B0F5011201385A
:10079300C3F501120138D8F601120138BEF801126F
:1007A30001381EFB0112013823FC0112013888FCB9
:1007B30001120138E3FC0112013847FD011201382F
:1007C30088FD011201388BFD01120138DBFD011296
:1007D3000138DFFE011201382BFF0112013850FFEF
:1007E30001120138BAED021201389EEF02120138EC
:1007F300E6EF021201385DF002120138ACF002128A
:100803000138FBF002120138D7F102120138AB9123
:1008130003120138FE920312013866930312013862
:10082300E09A03120138329B03120138A59B03128D
:1008330001380E9C03120138BBFD02120138E5FD9D
:1008430002120138B3FE021201388EFF0212013880
:10085300F0BC02120138B7BD02120138EEBD02121C
:10086300013818BE0212013878BE02120138CEBE1A
:100873000212013833BF02120138CBBF0212013812
:10088300DAC00212013871C202120138FEC202122A
:10089300013865C3021201387CC30212013896C4C1
:1008A30002120138D4C402120138C4D9011201382A
:1008B30011DD011201388DDE01120138E4DE01126F
:1008C300013801DF011201387FDF0112013802E133
:1008D30001120138E7E101120138CDE501120138B7
:1008E300A3E6011201382F99031201385F9903120D
:1008F3000138779903120138CC9903120138D19941
:1009030003120138A99A031201387C9703120138A4
:10091300939703120138C29703120138FB9703120E
:10092300013823980312013851980312013868984B
:10093300031201387F980312013895980312013886
:10094300BC9803120138CF9803120138E5980312BB
:100953000138F898031201381D9903120138A09742
:10096300021201389F9802120138D49802120138FA
:10097300F5980212013805990212013826990212DC
:100983000138329A02120138FF9A02120138729B1F
:1009930002120138F89B021201383B9C0212013803
:1009A300729C02120138F89C02120138CA9D02128D
:1009B3000138289E02120138409E02120138BA9E65
:1009C30002120138BD9E02120138C09E0212013884
:1009D300679F021201387F9F02120138AF9F0212F4
:1009E3000138CF9F02120138BDA00212013873A152
:1009F30002120138ACDB02120138D4DB02120138D7
:100A030002DC0212013839DC02120138A1DC0212C5
:100A13000138EADC0212013835DD0212013873DDD8
:100A230002120138B0DD02120138DEDD0212013894
:100A330085DE021201388FDE021201389CDE0212BB
:100A43000138CFDE0212013891DF021201389DDF37
:100A530002120138B5DF02120138BFDF021201387A
:100A630083A20312013891A203120138A9A203122F
:100A73000138C1A2031201380EAF01120138ACAF25
:100A83000112013824B00112013839B101120138C1
:100A930073B1011201381CB201120138F1B2011213
:100AA300013855B401120138ACB40112013833B521
:100AB300011201381AB60112013867B60112013862
:100AC300F5B60112013819B701120138EEB8011257
:100AD30001382FB90112013851B901120138D2B9C5
:100AE30001120138BCBA0112013882BB011201386C
:100AF30032C50212013804C602120138ADC6021211
:100B03000138F0C6021201387DC70212013809C844
:100B130002120138EAC80212013819C90212013857
:100B230015CA021201385DCA021201385FCB0212E4
:100B33000138A3CB02120138C9CB02120138F2A348
:100B430003120138008003120138168003120138A2
:100B53003C80031201386481031201386E81031251
:100B63000138C78203120138C78303120138C4D185
:100B730002120138F9D2021201382CD302120138C1
:100B830076D30212013834D502120138B390011220
:100B930001381691011201385B92011201386B92F0
:100BA300011201388E9201120138D99201120138D3
:100BB3007E93011201387494011201383E9501129B
:100BC3000138B69601120138F8960112013896974A
:100BD30001120138E3970112013809980112013813
:100BE300F79901120138FC9901120138DD9B0112BA
:100BF3000138319C01120138939C01120138BB9CCE
:100C0300011201385F9D01120138219E0112013842
:100C1300529E01120138559E011201389D9E011208
:100C23000138DF9E01120138469F01120138158DEC
:100C330003120138288D03120138418D0312013844
:100C43008C8D03120138678E03120138F68E03125E
:100C53000138418F031201381C2500120138282561
:100C630000120138612500120138A625001201384F
:100C73005D2600120138E326001201380F27001207
:100C830001384827001201385C2900120138382B3B
:100C930000120138232D001201385A2E0012013898
:100CA300BA3000120138A63100120138EC320012BA
:100CB3000138F933001201381634001201384E346A
:100CC30000120138683400120138D03400120138A0
:100CD3006A39001201380B3A001201385C3A0012EB
:100CE3000138833A00120138D13A00120138EF3A41
:100CF30000120138433B001201384B3C001201380B
:100D0300D33C00120138EEE402120138F8E4021277
:100D13000138C3E502120138DEE50212013804E6A8
:100D23000212013848E60212013880E60212013845
:100D3300A9E60212013822E70212013837E702124C
:100D430001384CE70212013883E70212013897E7B2
:100D530002120138C8E70212013802E80212013810
:100D63002EE802120138A5E802120138EEE8021259
:100D7300013818E9021201383DE902120138F3F58E
:100D830002120138BDF602120138A0F7021201382F
:100D930016F80212013858F80212013885F90212C6
:100DA3000138008002120138298002120138428082
:100DB300021201388781021201386582021201385A
:100DC3008482021201381183021201385483021201
:100DD3000138A18402120138408502120138BF870D
:100DE300021201385688021201382A890212013888
:100DF3000C8A02120138788B021201380B8C021212
:100E03000138A39D031201380C9E03120138609E22
:100E130003120138879E0312013865E90212013873
:100E2300D2E9021201381DEA0212013812EB021252
:100E330001380EEC02120138F8EC0212013882B4C8
:100E430002120138C4B4021201389EB502120138ED
:100E530077B60212013872B70212013851B8021282
:100E63000138BDB80212013884B902120138EFB952
:100E73000212013856BA0212013881BA021201383D
:100E8300F2BA0212013885BB02120138EEBB02121C
:100E9300013803BC021201384BBC0212013864BC96
:100EA30002120138C9BC02120138CCBC021201384B
:100EB3006787031201388F8703120138CD87031226
:100EC30001388B8803120138F6880312013812891E
:100ED300031201383A89031201386A89031201386F
:100EE300798903120138F38903120138198A03122D
:100EF300013810A001120138ADA10112013893A3EA
:100F0300011201385DA401120138A4A401120138B1
:100F1300EBA401120138FDA4011201383DA5011211
:100F230001386CA501120138B8A501120138F0A5EA
:100F3300011201381EA6011201386FA601120138F1
:100F4300FEA601120138ECA901120138C6AB011249
:100F5300013802AC011201385CAD01120138A3ADB6
:100F63000112013818AE0112013866AE01120138C0
:100F73007FAB021201389CAB0212013836B1021268
:100F8300013838B202120138B2B30212013860B428
:100F9300021201387B5200120138C4520012013888
:100FA300F152001201382453001201383153001258
:100FB30001383D53001201384F53001201382454B5
:100FC30000120138825400120138B754001201385C
:100FD300535600120138A05600120138C4560012AD
:100FE3000138315700120138D65700120138925890
:100FF30000120138115900120138D5590012013875
:10100300E45900120138655A00120138045B0012DA
:101013000138365B00120138D15B001201382F5CB6
:1010230000120138695C00120138EA5C00120138D1
:10103300B35D001201385C5E00120138E35E0012FA
:1010430001383B5F001201389C5F00120138C55F15
:10105300001201387B6000120138C56100120138AB
:10106300086200120138256200120138446200123E
:1010730001388F6200120138B46200120138DD6258
:10108300001201384C63001201388E6300120138DC
:101093009264001201382C6500120138F8650012C1
:1010A3000138116600120138DEA10212013831A2A3
:1010B300021201383DA20212013812A302120138B2
:1010C30039A30212013874A302120138E0A30212F9
:1010D300013814A4021201384DA40212013865A488
:1010E30002120138BEA402120138D7A40212013839
:1010F30020A50212013833A5021201384DA50212B0
:10110300013863A5021201387FA60212013890A7A5
:1011130002120138DDA802120138C2A902120138F5
:10112300ABA50312013846E7011201387AE7011231
:101133000138E5EA011201382FEC01120138F9EC0C
:101143000112013883EE011201385EEF01120138FA
:1011530098EF01120138BBEF01120138FDEF0112C4
:10116300013806F00112013850F0011201385AF02B
:101173000112013806F101120138DAF101120138C6
:101183002EF20112013890F201120138E3F201123A
:10119300013812F30112013851F301120138436689
:1011A300001201389D6E00120138A36E001201383F
:1011B3005E7400120138447800120138D18303129F
:1011C30001384784031201385D84031201389A847D
:1011D30003120138D284031201384F8503120138F8
:1011E3008A850312013805860312013841860312EA
:1011F30001384A8603120138568603120138708675
:1012030003120138958603120138AB8603120138A5
:10121300D48603120138378703120138EAD6021243
:101223000138FDD60212013817D70212013840D710
:101233000212013883D702120138C2D702120138D1
:1012430000D80212013865D8021201387AD8021286
:10125300013885D80212013892D802120138A9D870
:1012630002120138B7D802120138C2D8021201386B
:10127300CED802120138E1D802120138ECD802129A
:1012830001380FD902120138B8D902120138C8D96E
:1012930002120138E2D902120138FFD902120138D1
:1012A3001BDA0212013840DA021201384ADA02125A
:1012B30001385EDA021201387DDA02120138DEDA11
:1012C30002120138E4DA02120138EADA02120138B2
:1012D300F0DA02120138FCDA021201382FDB0212B3
:1012E30001383ACC01120138BCCC0112013865CD6A
:1012F30001120138ADCE01120138BBD00112013801
:10130300A1D101120138D6D101120138F8D101124D
:101313000138A1D20112013871D4011201389AD4D3
:101323000112013812D50112013844D501120138D6
:1013330051D5011201389CD501120138C0D50112D3
:10134300013811D8011201381BD90112013877D99C
:1013530001120138B7BD01120138C8BE01120138AC
:10136300ACBF01120138B6BF01120138D8BF011258
:101373000138E4BF0112013888C101120138B5C137
:1013830001120138CBC20112013820C30112013806
:101393006FC40112013844C501120138A0C50112FE
:1013A30001380BC60112013840C60112013883C649
:1013B300011201384DC90112013865C90112013802
:1013C300F6C90112013804CA0112013851CA0112C7
:1013D30001385FCA01120138CBCA0112013846CB6A
:1013E300011201389DCB01120138828C021201389F
:1013F300A48C02120138B58E0212013874910212C4
:1014030001389E92021201385C930212013848940B
:1014130002120138C39503120138E895031201380B
:101423005E96031201389378001201389C780012FB
:101433000138A578001201387D79001201382E7B1E
:10144300001201385E7B00120138897B00120138DB
:10145300B97B00120138E47B00120138187C0012BA
:101463000138447C00120138877C00120138B27CB9
:1014730000120138F97C001201384E7D0012013848
:10148300907D00120138EA7D00120138157E0012AA
:101493000138647E00120138947E00120138BF7E49
:1014A30000120138ED7E00120138107F001201385E
:1014B30083FF01120138AFFF01120138DCFF011273
:1014C3000138E6FF01120138F6FF01120138B07F3F
:1014D300001201388DA503E066701008A3E0667062
:1014E3000A08A3E066700408A3E06622C3E796082F
:1014F30009E7960809E7960809E79622C3E09608E4
:10150300A3E09608A3E09608A3E09622C008C3E0F0
:1015130096F50808A3E096420808A3E09642080857
:10152300A3E09645087001D3D00822080808EAC052
:10153300E0EBC0E086F0E7A4FA180986F0E7A42AF6
:10154300FA180986F0E7A42AFA180986F0E7A42A0C
:10155300FA1986F0E7A4FBE5F02AFA190886F0E702
:10156300A42BFBE5F03AFA190886F0E7A42BFBE578
:10157300F03AFA18180986F0E7A4C5F02BFBE43A11
:10158300FA1908E7C5F0C6A426F6E5F03BFBE43AF2
:10159300FA1886F0E7A4F6E5F00826F6E43B08F629
:1015A300E43A08F6D0E0FBD0E0FA22E4CFC0E0E46E
:1015B300CEC0E0E4CDC0E0E4CCC0E075F020C3E6EB
:1015C30033F608E633F608E633F608E633F618187A
:1015D30018EC33FCED33FDEE33FEEF33FFC3EC9732
:1015E30009ED9709EE9709EF97191919400FFFECC9
:1015F30097FC09ED97FD09EE97FE191906D5F0BE84
:10160300ECF709EDF709EEF709EFF7191919D0E02F
:10161300FCD0E0FDD0E0FED0E0FF22601608080811
:10162300C6C313C618C613C618C613C618C613C630
:10163300D5E0EA227009080808226016181818C6AF
:10164300C333C608C633C608C633C608C633C6D5B1
:10165300E0EA22E627F60809E637F60809E637F650
:101663000809E637F622E026F608A3E036F608A3D3
:10167300E036F608A3E036F622E026F008A3E036CB
:10168300F008A3E036F008A3E036F022C3E697F6AD
:101693000809E697F60809E697F60809E697F62299
:1016A300C3E096F008A3E096F008A3E096F008A341
:1016B300E096F022E056F608A3E056F608A3E056BB
:1016C300F608A3E056F622E056F008A3E056F00829
:1016D300A3E056F008A3E056F022E0F608A3E0F6F4
:1016E30008A3E0F608A3E0F622E6F008A3E6F00874
:1016F300A3E6F008A3E6F022E0FAA3E0FBA3E0FCF4
:10170300A3E0FD22EAF0A3EBF0A3ECF0A3EDF022BB
:10171300CAC0E0E6F0A308DAFAD0E0FA22CAC0E0D1
:10172300E0A3C582CCC582C583CDC583F0A3C582A2
:10173300CCC582C583CDC583DAE6D0E0CA22C3E433
:1017430098F8E499F91217828026C3E49AFAE49B85
:10175300FBE920E7E9121782E498F8E499F922C338
:10176300E498F8E499F9121782E498F8E499F9C334
:10177300E49AFAE49BFB22EB20E7CFE920E7E0B908
:101783000010BB0008E88AF084F8AAF022E4FBC842
:10179300FA22EB70227B10C833C8C933C933500710
:1017A300C39AC3DBF280069A50012ADBEAC833F4FA
:1017B300C8C933F4C9FA2275F008E4C833C8C93379
:1017C300C933C99AC99B5004C92AC93BD5F0ECFB5C
:1017D300C833F4C8E4C9FA22600D08C6A2E713C6E9
:1017E30018C613C6D5E0F322600C08C6C313C61887
:1017F300C613C6D5E0F422700422600D18C6C333A5
:10180300C608C633C6D5E0F41822251810AF08F56C
:1018130018400215198008F51840021519D2AF2295
:10182300C0D0251810AF08F518500205198008F527
:101833001850020519D2AFD0D0222518F58210AF67
:1018430008F518400215198008F51840021519D239
:10185300AF851983222518F582E43519F58322E42F
:10186300732518C582C0E0E51934FFC583C0E0E5E0
:1018730018C3958224F810AF0885831985821880D0
:1018830008858319858218D2AFCEF0A3E520F0A393
:101893007808E608F0A3DEFAEFF0A3E58124FAF86E
:1018A300E608F0A3E608F0A3E608F0A30808E608B4
:1018B300F0A3E608F0A315811581D0E0FED0E0F88F
:1018C300158115811581E8C0E0EEC0E0222518C519
:1018D30082C0E0E51934FFC583C0E0E518C39582F3
:1018E30024F910AF08858319858218800885831928
:1018F300858218D2AFCEF0A3E520F0A37808E608DE
:10190300F0A3DEFAEFF0A3E58124FBF8E608F0A3E9
:10191300E608F0A30808E608F0A3E608F0A315819B
:101923001581D0E0FED0E0F815811581E8C0E0EE26
:10193300C0E022851983851882E0A3FEE0A3F52089
:101943007808E0A3F608DFFAE0A3FFE0A3C0E0E035
:10195300A3C0E0E0A3C0E0E0A3C0E0E0A3C0E010C8
:10196300AF088582188583198008858218858319B5
:10197300D2AFD083D082020135851983851882E0E6
:10198300A3FEE0A3F5207808E0A3F608DFFAE0A3BE
:10199300FFE0A3C0E0E0A3C0E0E0A3C0E0E0A3C099
:1019A300E010AF0885821885831980088582188521
:1019B3008319D2AFD083D08222C0D02518C582C06C
:1019C300E0E51934FFC583C0E0E518C3958224F32D
:1019D30010AF08858319858218800885831985824D
:1019E30018D2AFC8F0A3E9F0A3EAF0A3EBF0A37910
:1019F30008E709F0A3D8FAECF0A3EDF0A3EEF0A307
:101A0300EFF0A3D0E0F0A3D0E0F0A3D0E0F0A3E5A3
:101A130020F0A3E5F0F0A322851983851882E0C0A6
:101A2300E0A3E0F9A3E0FAA3E0FBA37808E0F6085B
:101A3300A3DFFAE0FCA3E0FDA3E0FEA3E0FFA3E045
:101A4300C0E0A3E0C0E0A3E0F5D0A3E0F520A3E06D
:101A5300A3F5F010AF088583198582188008858364
:101A630019858218D2AFD082D083D0E0F8D0E0328B
:101A730074048006740280027401C0E0F404121836
:101A83003DD0E0121713227404800474028000CC4A
:101A9300C0E0EDC0E0E518C39CCCAD1950011D10AA
:101AA300AF068C188D1980068C188D19D2AF1217BA
:101AB30020D0E0FDD0E0FC22D083D082E9C0E0E476
:101AC30093A3C386F0C5F095F0F908E493A386F0D9
:101AD300C5F095F0700BE493A3C3994005E9048026
:101AE30002A3E475F002A42582F582E5F03583F5BF
:101AF30083D0E0F9E493A3C0E0E493C0E022D08371
:101B0300D082ECC0E0EDC0E0E493A3FCE493A3FD3A
:101B1300ED4C600D121B4DEC24FFFCED34FFFD80FA
:101B2300EFE493A3FCE493A3FDED4C600D121B8C37
:101B3300EC24FFFCED34FFFD80EFD0E0FDD0E0FCB2
:101B4300E493A3C0E0E493C0E022C0E0C3E493962F
:101B5300087401939618400FE493667008087401A3
:101B630093661870007019A3A3C3E49396087401D5
:101B7300939618A3A3400DD0E0D0E0D0E0021B3D24
:101B8300A3A3A3A3A3A3D0E022C0E0C0F088F0E402
:101B9300936670080874019366187000A8F0A3A3F5
:101BA300700BD0F0D0E0D0E0D0E0021B3DA3A3D077
:041BB300F0D0E0226C
:101BB800C0E074F21219BCA2AFE433FED2AFE589DB
:101BC800A2E04006E589A2E1500312071E758900CC
:101BD800758900C2C5751A00EEA2E092AF7F0102B6
:101BE8001A1BC0E0C0D0E8C0E0E9C0E0E5A8D2AF69
:101BF800C2C7751A00A2E7A2E792AFD0E0F9D0E019
:101C0800F8D0D0D0E03274F51218D0EAFEEBFFEE2F
:101C18002434F8EF3400F988088909EE2435121DB8
:101C280046F8EE2437121D46F50AEC850AF0A4FCA6
:101C3800AAF0850AF0EDA42AFDE82CF8E43DF97A2B
:101C4800257B00121782EA850882850983F05407EC
:101C5800F87401B800028004C333D8FCC0E0E01374
:101C68001313541FF8EE28F8EF3400F9E8245DF553
:101C780082E93400F583D0E0F8E0586008850882EE
:101C8800850983801DEE2436121D46F5F0EA84A8E6
:101C9800F0EE28F8EF3400F9E82438F582E934004A
:101CA800F583E0F97F0402197C74F51218D0EAFE76
:101CB800EBFFEE2434121D46C0E0EE2435F582EF2A
:101CC8003400F583D0E0F08E828F83A3A3A3A3A36F
:101CD800E0FAA3E0FB8E828F83A3A3A3A3A3A3A30D
:101CE800E0FCA3E0FDECC39AF50AED9BF50BEE24AE
:101CF80080F508EF3400F509850882F583E0640172
:101D0800702BEE2481F582EF3400F583121A8E12BF
:101D18001D4F7402121823E960137CE17D07EEFA67
:101D2800EFFB12104E850882850983E4F0AC0AADFA
:101D38000BEEFAEFFB121C0E122506021CACF58204
:101D4800EF3400F583E022C082C0838518828519AC
:101D580083E0F8A3E0F9C3EA9CEB9D5012C3EC982A
:101D6800ED994019C3EA98EB99501279018010C394
:101D7800EA98EB9940F5C3EC98ED9950EE7900D0CC
:101D880083D08222EAC39CFAEB9DFB2285218785BA
:101D980022C622C0E074EF1219BC759B00906182C4
:101DA800E0A2E64003021E5CE591A2E64003021EA3
:101DB8005C7591BF9006A6E0640570081211EC12DC
:101DC80011F880031211F2752100121264E99006CD
:101DD800A7F07900121258120FB87A017B0090060A
:101DE800A5E0F912050E907803E064426003021E34
:101DF800A5900843E014F06003021EA5C2AF121EAE
:101E08000900782AD0E0F618D0E0F6E59F5407F9E3
:101E18007005908FB88003908FB478081216DDE9AA
:101E2800C4C0E07829E65508F50808E65509F5091B
:101E3800740B78081217EBD0E02508F8906270E070
:101E4800A2E740F8E8C333906272F0906270E0D283
:101E5800E0F08049E0A2E55024E591A2E5501E7526
:101E680091DF9006A6E0640D70139006C8E004F0B8
:101E780064287002E4F07A00E0F91212D6906181C9
:101E8800E0A2E35009E5E9A2E3500375E9F7A3E00E
:101E9800A2E75009E591A2E7500375917F7F0402FC
:101EA8001A1BC0E0C0D0C082C083906183E0A2E06A
:101EB8005009E5BFA2E0500375BFFEE0A2E150095A
:101EC800E5BFA2E1500375BFFDE0A2E25009E5BFFE
:101ED800A2E2500375BFFBE0A2E35009E5BFA2E30D
:101EE800500375BFF7E0A2E45009E5BFA2E4500330
:101EF80075BFEFE0A2E55009E5BFA2E5500375BF45
:101F0800DFE0A2E65009E5BFA2E6500375BFBFD0E7
:101F180083D082D0D0D0E032C0E074F21219BCE590
:101F2800A7A2E4500FE5A1A2E4500953A7EF75A1B9
:101F3800EF121F74E5A7A2E5500CE5A1A2E5500633
:101F480053A7DF75A1DFE5A7A2E15009E5A1A2E14A
:101F5800500375A1FDE5A7A2E2500CE5A1A2E2504D
:101F68000653A7FB75A1FB7F01021A1B74F8121810
:101F7800D07521019006A6E0640670077A007B0000
:101F88001211D4A2AFE433FED2AF9006ACE06401E4
:101F980070187A207B009006A5E0F91205927A2045
:101FA8007B009006A5E0F9120514906182E0D2E664
:101FB800F0900842E0602185C62280169006ABE0CA
:101FC80064017008E5C654F84405F5C653BEFC1212
:101FD8001D947401652160E4EEA2E092AF7F0102D6
:101FE800197C00008E238F248582288583278518F5
:101FF80082851983E0CEA3E0CF852882852783EBED
:10200800C9EAC8EDCBECCA75F010C3E833C8E933A8
:10201800C9EA33CAEB33CBC3EA9EF526EB9FF52515
:10202800B35004AB25AA26EC33CCED33CDD5F0DA8A
:10203800AE23AF242274E91218D074FA12180DEAEC
:10204800FEEBFF8C088D099006A6E024F7C39405E3
:1020580050069090340221641211508A0A8B0BEAC0
:10206800450B700302216112120A8A0C8B0D1212A1
:102078000AEA650C7003EB650D60ECEEFCEFFD857C
:102088001882851983AA82AB83121210850A828569
:102098000B83A3A3780C1216DD908FD8780C121638
:1020A800B785188285198378141216DD908FD87831
:1020B800141216B7780C79141214EF501F780C7993
:1020C8001412168F909040780C12150F4047850C0B
:1020D80010850D11850E12850F138041851410850A
:1020E80015118516128517137810790C12168F9012
:1020F8009040781012150F501C751000751100755E
:1021080012007513017810791412168F7810790C53
:10211800121656800890903478101216DD740978DB
:1021280010121637908FF4780C1216DD7810790C8F
:102138001215AE9006A6E06408600AE06406600521
:10214800E06405701C908FDC781012150F50129007
:1021580090207810121669800890901C781012163A
:10216800DD85088285098378101216EC740612182A
:10217800237F1002197C74F71218D01212229008CB
:1021880040E064017010906245E4F0A3F053F4F36A
:1021980043FE0C5390F31211C2E5C654804449F52E
:1021A800C6E59E547F644970F8906185740FF0907D
:1021B800083EE0F47002A3E0602C75080175090080
:1021C80090083EE078081217FAE508F4FAA3E060F0
:1021D8000814600A14600C800DEA52808008EA52E4
:1021E800908003EA52A079007F0202197C74F712EA
:1021F80018D0E9FEEAFF74016E700C7A807B0090BB
:1022080006A5E0F912050E902514E493F46008E49D
:1022180093F9120F9A800953C680E59E547F70FA8D
:102228001211C8900840E064017003120FD09008A2
:102238003EE0F47002A3E0602A7508017509009079
:10224800083EE078081217FAAA08A3E060081460AC
:102258000A14600C800DEA42808008EA42908003EC
:10226800EA42A01211508A088B09A808A909E8496E
:102278006017E5E170FCE82414F582E93400F58381
:10228800E0F874FF68600288E174016F700A7A01EF
:102298009006A5E0F91205620221F074F11218D037
:1022A8008A088B098C0A8D0B740F121858780C1237
:1022B80016DD908FD878081216B7908FD8780C1240
:1022C80016B77808790C1214EF50157808790C12A3
:1022D800168F909040780812150F401579018013D9
:1022E800780C790812168F909040780C12150F40D0
:1022F800EB79007F0802197C74ED1218D08A088BDC
:10230800098C0A8D0B7413121858780C1216DD906C
:102318008FD878081216B7908FD8780C1216B7781D
:102328000C79081214EF40117808790C12168FAA4C
:1023380008AB09AC0AAD0B80227510007511007549
:1023480012007513017810790C12168F781079081D
:10235800121656AA10AB11AC12AD137F0C02197CE1
:10236800908FD878081216DD8A828B837808121627
:10237800CA7F0402197C74F51218D08C828D837878
:10238800081216DD8A828B8378081216A31223D2CC
:10239800C3E098F0A3E0991223C4401E90901478EB
:1023A800081216DD8A828B83780812167C8E828F3B
:1023B80083E02420F0A3E0344EF080A4F08E828FD6
:1023C80083C3E09420A3E0944E22EA2404F8EB347B
:1023D80000F9E8FEE9FF8C828D83A3A3A3A3E0F8AC
:1023E800A3E0F98E828F832274F51218D0E9FE904B
:1023F80007F8E0FAA3E0FBEEC333F8E433F9742DF1
:1024080028F582748F39F583E02AF508A3E03BF5B7
:10241800097808121A77908FB01216FB121FEC7405
:10242800021218238A088B098C0A8D0B74107808FD
:1024380012161EAA08AB097F0402197C74F112183F
:10244800D08A0C8B0D8C0E8D0F740F121858E0FA71
:10245800A3E0FB7411121858E0F508A3E0F509741D
:1024680013121858E0FEA3E0FF7808121A77EA243E
:1024780001F508EB3400F509E4F50AF50B780C7959
:102488000812152E90904C78081216DD780C7908F1
:1024980012152EAA0CAB0DAC0EAD0F121FEC740268
:1024A8001218238B09EA450960047A0180027A0030
:1024B800EC2AFCED3400FDECF8EDF97A717B0212A0
:1024C800178288088909E4F50AF50B8E828F8378CC
:1024D800081216ECECF8EDF97A717B021217828A71
:1024E800088B09740578081217FA8E828F83A3A3C4
:1024F800A3A3E508F0A3E509F07F0802197CC082D0
:10250800C083E9906000F0D083D08222FFFFFFFFF4
:10251800FFFFFFFFC082C083E9900D63F002273BF5
:1025280074F7121864E99005C4F07CFC7D057AFF05
:102538007BFF120CE29005C574FFF0A3F0A3E4F052
:10254800A3F07905120C709005C4E0F9120B987A83
:10255800FA7B0C120EB602344974F41218648A0815
:102568008B09EB548060309005C4E0F91204F68AB8
:102578000A8B0BAE0AAF0BEE4F60138E828F83E08F
:1025880064B07003120C82EEFAEFFB1204E4AA089E
:10259800E5096480FB80047A007B0002270A74F254
:1025A80012186474FC12180DEAFEEBFF741212186C
:1025B80058123930EE4F7003022649740212185827
:1025C800EEF0A3EF122945ECF0A3ED122945AA82FB
:1025D800AB83120B92E9F50A706AE5084509606455
:1025E8008E828F83123916EE4F60567A067B001260
:1025F800054A8A0C8B0DA80CA90DE8497005750AC7
:1026080013804188828983E4122656EEF0A3EF12E4
:102618003941E508F0A3E509F09005CA1226DD90D6
:1026280005CA70051233F3801B1233E18003EAFCFC
:10263800EBFD8C828D831226DD70F38C828D838076
:10264800E3750A02A90A7404121823023B30F0A3A6
:102658001238E7A32274F2121864890AE975F01790
:10266800A4FEAFF09005C9E4F09005C71226DD601E
:102678000A1205509005C7E4F0A3F0EEFAEFFB123A
:10268800054A8A088B09EA4509602FEEFCEFFD79B7
:10269800001204D29005C7E508F0A3E509F07B0015
:1026A80080081226C7E4F0A3F00BEBC3950A40F2AA
:1026B800E50A9005C9F0790080027913023B30EBF6
:1026C80075F017A4F8A9F09005C7E028FAA3E03937
:1026D8008A82F58322123085EA4B2274F412186438
:1026E8007900EAA2E0501B75089E75098F780812D8
:1026F8001A777C047D007A657B0D120C6A740212CD
:1027080018237F04021936C082C0839005CA122795
:1027180042601C88828983A3A3E06A7003A3E06BEC
:102728008882898370E8A3A3A3A312308180047AE6
:10273800007B00D083D082020135123C16E8492282
:1027480074EE12186474FC12180DEAFEEBFF85187B
:1027580082851983E4F0A3F0EE24021233D3EE2429
:10276800051238EEEE2404F50EEF122CFAE024FEE2
:10277800603924FC604624FE605224FE605E24FE1C
:10278800700302285B24FE70030228BF24FE700336
:102798000228CE24FE70030228DD24FC70030228E0
:1027A800EC24FE70030228FB0229389005E3741715
:1027B800F0A3E412294D12091002293885188285E0
:1027C8001983AC82AD83120C88022908851882858A
:1027D8001983AC82AD83120C8E022908850C0885FA
:1027E8000D097402121858AC82AD838508828509D8
:1027F80083123081120BB68A0C8B0DAC0CAD0DEC2C
:102808004D603BE4F50CF50D780C121A77750CE366
:10281800750D05780C121A77750CE4750D05780C92
:10282800121A777408121858121A8E123C3A121893
:1028380023E9F50C700B123077120928800F750CFC
:102848000185088285098312293B1233F3850C0818
:1028580002290B7402121858AC82AD83850C82854C
:102868000D83122E4C603C850C82850D83A3A31228
:102878001A8E7510E37511057810121A777510E421
:102888007511057810121A777408121858121A8ED2
:10289800123C3A121823E9F509700B123077120925
:1028A8002E800F750901850C82850D8312293B1234
:1028B80033F3850908804C851882851983AC82AD6D
:1028C80083120C94803A851882851983AC82AD8373
:1028D800120C9A802B851882851983AC82AD8312DD
:1028E8000CA0801C851882851983AC82AD83120CDC
:1028F800A6800D851882851983AC82AD83120CAC35
:10290800E9F508E50860298E828F83A3E0641460E6
:102918001F850E82850F83E09005E3122945123C3E
:10292800129005E41233F3E508A312294D12090A9F
:102938000232E2123C1685188285198322F0851826
:102948008285198322F07CE37D05850A82850B83C5
:102958001230852274EE12186474FC12180D8A0A5B
:102968008B0B8C0E8D0FEA2405F508EB3400F50966
:102978007C157D0079007AE37B051204D2E50824F2
:1029880002F50CE5091238F18518828519838582CC
:10299800108583117810121A77850882850983A318
:1029A800A3A3A3122E43121A77E5082405F510E510
:1029B800093400F5117810121A77850C82850D8379
:1029C800123198120BB074061218238A108B11AEAC
:1029D80010AF11E50A2402F50AE50B1233D6EE4FC3
:1029E8007003022B1A80177402121858123081884B
:1029F800828983EAF0A3EBF09005E3E004F0900508
:102A0800E3E0C394054003022B1AE4F510F51178AE
:102A180010121A777510CC7511057810121A77757F
:102A280010CD7511057810121A77740612185812FD
:102A38001A8E7910EEFCEFFD123C3C121823E97057
:102A48005E850882850983A3A3A3A3A3A3A3E0F8B3
:102A58009005CCE0687048122E43121A777CCD7D21
:102A680005E5082408FAE5093400FB1204CC7402D1
:102A7800121823E960298E828F83A3A3A3A312309F
:102A8800819005E3E0F510740278101217FA74E4E7
:102A98002510F58274053511F583EAF0A3EBF0747F
:102AA800021218588582108583117810121A7774CB
:102AB80002121858121A8E850C82850D831230A7BF
:102AC8001218238A108B11AE10AF119005E3E0F5B0
:102AD80010751100740278101217FA74E32510F8B3
:102AE80074053511F988828983A31226DD700302E3
:102AF80029E6E82403080808E93400F9EE4F6003E2
:102B08000229EF8882898374FFF0A3F09005E3E03F
:102B180004F09005E3E0600A12307712091C79008E
:102B2800800B8508828509831233EA790A0232E22A
:102B380074EA12186474FE12180D8C128D13EA24AC
:102B480005F50CEB123C2412391A750800750900BA
:102B5800EA2402F510EB3400F511851882851983F3
:102B680085820A85830B780A121A77850C82850D6F
:102B780083A3A3A3A3122D10121A77E50C2405F53D
:102B88000AE50D1233D6780A121A77850C82850D5C
:102B980083122D14120BB074061218238A0A8B0B99
:102BA800EA450B7003022CB5EA2404F50EEB122C4F
:102BB800FA12391A8A828B83A3A3A3E0F9851082BB
:102BC80085118312308B6003022CB5E4F514F515DA
:102BD8007814121A777514CC7515057814121A77AB
:102BE8007514CD7515057814121A777406121858CD
:102BF800121A8E7913AC0AAD0B85108285118312D7
:102C08003C42121823E9F5096003022CB59005CC63
:102C1800E0F8E5087009E024029005E4F0801490DB
:102C280005E4E0FCE82402FAE43400FBEA6C7001F5
:102C3800EB707E850882AA82122E3A9414122E32E4
:102C4800506B850E82850F83E0C0E074E52A122C54
:102C5800F1D0E0F00508850E82850F83A3E0C0E07F
:102C680085080A74E5250A122CF1D0E0F0050890D1
:102C780005CC122D10121A777CCD7D0585080A74B3
:102C8800E5250A122D041218239005CCE02508F535
:102C98000874FF6E700374FF6F6012EE24010EEF6C
:102CA8003400FFE508C394145003022B62E5086062
:102CB80013123095851082851183123081120922F2
:102CC80079008014E509700375090A851282851355
:102CD80083EEF0A3EFF0A90974021218237F0E0205
:102CE800193685080C74E5250CF58274053400F551
:102CF80083223400F50F850E82F58322FA74053499
:102D080000FB1204BA74022212395022A3A3122D16
:102D18001A221233E1FDEEFAEFFB2274EE12186468
:102D280074FE12180D8C0E8D0FEA2405F50CEB12AB
:102D380038F1750B009005E3E4F0F50AEA2402F592
:102D480008EB3400F50980449005E3E0FA9005CCDF
:102D5800E0F8122E3A9417122E32400D9005E3E057
:102D6800F87416C3989005CCF0122E43121A777C8B
:102D7800CD7D0574E42AFA7405122D0712182390E4
:102D880005CCE0F89005E3E028F0050AE50C2416E8
:102D9800F582E50D122CF5E0F8E50AC39850749019
:102DA80005E3E0C39416506BE50AC333F8E433F93E
:102DB800E50C28FEE50D39FF851882851983AC825C
:102DC800AD838E828F83122E4C7008750B011233DF
:102DD800E68050E4F510F5117810121A777510CCCA
:102DE8007511057810121A777510CD7511057810C0
:102DF800121A777406121858121A8E7916850882D4
:102E0800850983123C42121823E9F50B7003022D41
:102E18005080BB7CE37D058508828509831230815B
:102E2800120934A90B74020232E4E99400C365D094
:102E38003322EA28F8E43400F9E822E0F5107511A5
:102E4800007810221232D98A108B11AC10AD11EC17
:102E58004D2274EA12186474FC12180D8A0C8B0D3A
:102E68008C128D13EA2405F50AEB1233D675080087
:102E7800750900E50A2402F510E50B3400F5117414
:102E88000212185885820E85830F780E121A7785DC
:102E98000A82850B83A3A3A3A31238F6121A77E537
:102EA8000A2405F50EE50B3400F50F780E121A7793
:102EB8008510828511831233DC12307B120BB074BB
:102EC800061218238A0E8B0FAE0EAF0FE50C2402E4
:102ED800F50EE50D3400F50F80388882898374FF7C
:102EE800F00508122CEA74FFF005089005CCE0F50F
:102EF8000C750D00780C121A777CCD7D0585080CB1
:102F080074E5250C122D041218239005CCE0250831
:102F1800F508EE4F60278E828F83A3A3A3E0F9857F
:102F28000E82850F8312308BEE24041238EEE9608E
:102F380027850C82850D8312306D1233F3E50870F6
:102F480003023053123095850E82850F831230812B
:102F580012093A7900023068E4F514F5157814126C
:102F68001A777514CC7515057814121A777514CD5F
:102F78007515057814121A777408121858121A8ED3
:102F88007911EEFCEFFD850E82850F83123C42120B
:102F98001823E9F509709A850882AA82EA9005CC77
:102FA8007009E024049005E4F08025E0F89005E439
:102FB800E0F514E82404FCE43400FDEC6514700129
:102FC800ED7081122E3A9412122E324003022F4CC9
:102FD800850C82850D83E0C0E074E52A122CF1D0BF
:102FE800E0F00508850C82850D83A3E0C0E0122C73
:102FF800EAD0E01230B085820C85830D780C121A65
:10300800777404121858121A8E851082851183124B
:1030180030A71218238A0C8B0DAE0CAF0D85080C47
:1030280074E5250CF874053400F9EE4F7003022E90
:10303800E2851882851983E0888289831230B0A3DB
:10304800E0C0E0122CEAD0E0022EF0E5097003752A
:10305800090A850A82850B8312306D1233F3A90998
:103068007404022CE2123C16851282851383227C9A
:10307800E37D05850A82850B8312308522E0FAA359
:10308800E0FB22123085120B9EE9F509229005E437
:10309800E0F5F0E508849005E3F07CE37D05221275
:1030A8002D1A120BBC740422F005088518828519A4
:1030B800832274EC12186474FE12180D8A088B09A6
:1030C8008C0E8D0FEA2405FEEB3400FF1232C3EE9E
:1030D80024181238EEEA450B70030231661232AC3E
:1030E800502912318B8A108B11EA4511606B7912C5
:1030F800AC0AAD0B85088285098312308185108260
:10310800851183121862E9F50A7058E4F50AF50B7F
:10311800780A121A778E828F83A3A3E0F50A780AB9
:10312800121A77EE24031233D3780A121A778E8292
:103138008F83123198120CD07406121823E9F50AFD
:103148007021850C82850D83E0701F8508828509B2
:10315800831230811209408011750A0E8009750AA0
:10316800018004E50A60031233E6850C82850D832D
:10317800E0600479008002A90A74021218237F0C07
:10318800021936851882851983123085120CBE22E1
:103198001233E1FD8508828509831230852274EE99
:1031A80012186474FE12180D8A088B098C0C8D0D88
:1031B800EA2405FEEB3400FF750E001232C3EA451F
:1031C8000B700302328A1232AC502C12318B8A0EE9
:1031D8008B0FEA450F604A7912AC0AAD0B8508825D
:1031E800850983123081850E82850F83121862E962
:1031F800F50E600302328D8508828509831234C872
:10320800AA0AFB12329E70147AFF7BFF12329E606C
:103218006C88828983E50AF0A3E50BF0750A0080C3
:1032280007750E0E805F050A9005C9E0FAE50AC326
:103238009A504AE50A75F017A4FAABF08882898398
:10324800A3A3E02AFAA3E03BFB8A828B831233DC38
:10325800EC4D70D2750A17750B00780A121A77EEC2
:10326800FCEFFD1204BA7402121823EEFCEFFD8580
:1032780008828509831230811209468014750E0967
:103288008003750E01123C0E850C82850D83123366
:10329800F3A90E022E2D120CB28A108B11A810A9B8
:1032A80011E84922E5082402F508E5093400F50982
:1032B8008A828B83A3A3A3E0A2E5228518828519BD
:1032C80083AC82AD838E828F831232D98A0A8B0BAC
:1032D80022E0FAA3E0FB120BB62274041218237F33
:1032E8000A02193674EC1218648C108D11EA240540
:1032F800F50CEB1238F1750F00EA2402F50AEB120F
:1033080033D6850A82F583123081123CC8700302D5
:1033180033C8750E008071850C82850D83E06401C9
:10332800704F8E828F83A3A3121A8E8E828F83A3EF
:10333800A3A3A3E0F5127513007812121A77EE24EE
:1033480005F512EF3400F5137812121A7712307B54
:10335800120CD07406121823E9F50F6014850C823C
:10336800850D83E4F0123C0E85108285118312339B
:10337800F37C177D007900EEFAEFFB1204D28E82FF
:103388008F83E4F0A3F0050E9005C9E0F8E50EC3BD
:1033980098501EE50E75F017A4F8A9F085088285E7
:1033A8000983A3A3123C2E1233DCEC4D60030233D5
:1033B8001F85088285098374FFF0A3F0E50F700666
:1033C80012307B12094CA90F023186F50AEF34003E
:1033D800F50B22A31233E1FD22E0FCA3E0228E824A
:1033E8008F83123C16850E82850F83E8F0A3E9F0DF
:1033F80022C082C0839005C5E06A7003A3E06B70A9
:10340800067AC57B0580047A007B0002273B74F7A7
:103418001218647F00EF75F003A4F8A9F0EC28F8FF
:10342800ED39F988828983E06A7003A3E06B70063E
:10343800E8FAE9FB800B0FEFC3940240D87A007BCF
:10344800007F0102193674F61218641239FF7006EB
:103458007A007B008007A3A3A3A3123081023AC09D
:1034680074F2121864E9FE740E1218581234C874F3
:10347800101218581239308C828D83E06402703B28
:10348800A3123C1288828983E0F50CA3E0F9A80C0A
:1034980074026870037429697021750C02750D0037
:1034A800780C121A777808121A77780A121A77EEB7
:1034B800F9120CF4740612182380027901023B30C9
:1034C800E0F50AA3E0F50B2274E812186474FB1205
:1034D800180DE9851882851983F08A168B178C0ECA
:1034E8008D0F741F1218581239307421121858127F
:1034F80034C8742312185812391A7510008C828D2A
:1035080083A3A3A3E0A2E4502A741D121858123111
:10351800918A828B83E582458370030235DC790AC0
:10352800AC0EAD0FAA16AB17121862E9F5106003BE
:103538000235DF850E82850F83E06402600302385E
:1035480095A3123C12850882850983A3858212857A
:103558008313E50E2406F50CE50F1238F1888289ED
:1035680083E0FAA3E0F9EA2400F514E439F51578C4
:1035780014121B01010000280128A43507000228A5
:103588007B360328EB350029A5370129CD370229D9
:1035980074370329A537042936389538EE4F703E1D
:1035A800850C82850D8312390BFAE9FB8A828B839D
:1035B800E0850A82850B83123947121A778A828B33
:1035C80083A31233E1FDAA08AB091204BA740212EC
:1035D8001823800375100EA9107405023C1C751081
:1035E8000B80F4EE4F70F7850A82850B837401F027
:1035F800123920850882850983F07C007D00850EBC
:1036080082850F83A3A3A3A3E02401FAA3E03400D7
:10361800FB120BB6EA4B60418A828B83E02402F8E6
:10362800850A82850B83E028F0EA2404F8EB34004D
:10363800F988828983E085128285138312395912A9
:103648003947121A778A828B831233DBE508240301
:10365800FAE5093400FB0235D2850A82850B83E03E
:103668002404F07C047D007900AA12AB131204D262
:103678000235DFEE4F60030235E6123920FEA3E083
:10368800FF850A82850B837404F0EE85088285091C
:1036980083F0EF851282851383F07403121858ACF7
:1036A80082AD83EEFAEFFB1239ED70030237518ACF
:1036B800828B83A3A3123916740112185885820EBF
:1036C80085830F780E121A777405121858121A8EFD
:1036D8007CFF7DFF120BBC74041218238B0FEA4584
:1036E8000F7033850C82850D831238F6121A778590
:1036F8000C82850D83A3121A8E7C027D007A8C7B46
:10370800901209E87404121823E9700A7401121857
:103718005874FFF0A3F08E828F83E06402703475D2
:103728000C02750D00780C121A778E828F83123373
:10373800DBE5082404FAE509122D07121823850A87
:1037480082850B83E0240280097401121858EEF078
:10375800A3EFF07401121858123907F07401121807
:1037680058A31238FFA3A3A3F00235DFEE4F60037E
:103778000235E6850C82850D831233DCAA16AB1759
:10378800120CE8850A82850B837402F0EA850882A8
:10379800850983F0851282851383EB80CBEE4F6019
:1037A800030235E6123920F8A3E0F9850A82850B71
:1037B800837402F0E8850882850983F0E98512821E
:1037C80085138380A3850C82850D831230811204B2
:1037D800B4EAFC8C82A882C39EE49F404BE86E70DA
:1037E80001EF70047C00801F851882851983E0FA38
:1037F800EE2AFAEF3400FBC3EA98EB94005003E09A
:103808008004EECCC39CFCEC850A82850B83F08C8B
:103818000A750B00780A121A77850C82850D83E0E9
:103828002EFCA3E03F0235CD7510070235DFEE4FC1
:1038380060030235E6850C82850D83123C12850AE9
:1038480082850B837407F0888289831238FF1238C7
:10385800E7E0851282851383F0E82402FAE9340050
:10386800FB8A828B831238FF123938123907A31268
:103878003941123910F0E82405F8E93400F9888252
:103888008983123910A3123959A302376D741D1296
:1038980018581239F870030235DC123C12880C896A
:1038A8000DE8450D70030235DC8E108F117810126B
:1038B8001A77780A121A777808121A777406121883
:1038C80058E0F9AC0EAD0FAA16AB17850C82850D22
:1038D800831218627406121823E9F5100235DFF016
:1038E80088828983A322F50CEF3400F50D22E0F5D8
:1038F8000E750F00780E22E0850882850983221252
:10390800396022123C16E822123960A3A322A3A32D
:10391800A3A3E0FEA3E0FF22850C82850D83E0F8D7
:10392800A3E0F5838882E022E0F508A3E0F5092208
:10393800A3A3F08A828B83A322122658A3A322F082
:103948008A828B8312395022E0F50A750B00780AB7
:10395800221238E712396022E0850882850983A39C
:10396800A32274EE12186474FE12180D8A0A8B0BC7
:10397800ECFAEDFB7414121858E0F510A3E0F511F9
:103988007416121858E0FE7418121858E0F50EA3B1
:10399800E0F50F851882851983AC82AD831239ED65
:1039A800603E8518828519831239F8602FA3A31207
:1039B8003930E50845096024780E121A7778101214
:1039C8001A77EEF9AC0CAD0DAA0AAB0B8508828507
:1039D800098312186274041218238006790E800273
:1039E8007901022E2D120BB68A0C8B0DEA450D2299
:1039F8001230851239FF22120C7C8A828B83E58271
:103A080045832274F612186474FE12180D740C1291
:103A1800185812390B851882851983F07401121809
:103A280058E9F0E4F508F5097808121A77750802DC
:103A38007808121A77740412185885820885830941
:103A48007808121A77120CD074061218237402120E
:103A58001823806474F7121864EAFEEBFF89087C67
:103A6800FC7D05120CE8EA5402600BA908EEFAEF97
:103A7800FB120BAA8002790102344974F612186409
:103A880074FF6A700374FF6B701C7B00EB75F003A6
:103A9800A4F8A9F0EC28F8ED39F9123AC50BEBC3F4
:103AA8009402501480E6120CB88A088B09A808A959
:103AB80009E8496003123AC57F02021936888289EB
:103AC8008374FF122656E4F02274F6121864120C5E
:103AD800B88A828B83E58245836006A3A3E0FA80D7
:103AE800027A007B0080D174F21218648A088B096C
:103AF800ECFEEDFF740E121858E0F50A123B357013
:103B08001CEEFCEFFD7AFF7BFF123B357004791148
:103B1800801688828983E508F0A3E509F088828900
:103B280083A3A3E50AF079007F06021936120CB8C0
:103B38008A0C8B0DA80CA90DE8492274EE121864A2
:103B4800EAFEEBFF8C088D09890C741212185812C2
:103B58003C1274141218581233DC741612185812C6
:103B68003081750D00EC4D6003023C067402650C53
:103B78006003023C01888289831233E1F9EC240056
:103B8800F50EE439F50FEAF4F8EBF4F9EC58F8E53A
:103B98000F59F9E849705DE5082406F8E50934008D
:103BA800F9880A890B8882F583122D16120CE88A87
:103BB800108B11E50E65107004E50F6511604278F1
:103BC8000E121A77850A82850B83122D16120CEEB7
:103BD8007402121823E9F50D7027780E121A7785EA
:103BE8000882850983A3A3122D14120D00740212F2
:103BF8001823800D750D808008750D0D8003750DD7
:103C08000BA90D0232E78E828F83123C1622E0F850
:103C1800A3E0F9221218237F100219363400F50D9B
:103C2800850C82F58322E028FEA3E039FF8E828F7F
:103C380083227916850A82850B83123085120CCA75
:103C480074082274F2121864EAFEEBFF890B7401FF
:103C5800650B600E7402650B70637901120ED4E96E
:103C6800705BEEFAEFFB123CC86047750A00800BE8
:103C78007C177D0079001204D2050A9005C9E0F886
:103C8800E50AC3985021E50A75F017A4F8A9F0854C
:103C98000882850983A3A3E028FAA3E039FB8A8276
:103CA8008B8312274270C985088285098374FFF0C7
:103CB800A3F07CFC7D05EEFAEFFB120CE2023B3030
:103CC800120CB28A088B09EA45092274F2121864A8
:103CD8008A088B09ECFEEDFF740E1218581234C8CE
:103CE800900D63E0F4603D7A097B001204DEEA4B34
:103CF80060328A828B8374B1F0A3E412393AA3123A
:103D08003938A3E508F0A3E509123D2FEEF0A3EF3B
:103D1800123D2FA3A3E50AF0A3E50BF0900D63E095
:103D2800F91204EA023B30F08A828B83A3A3A3A38F
:103D3800A32274F4121864E9FF7E008A088B0978BC
:103D480008121ABB00040DE03E6D3D8A3DA33DBA42
:103D58003DD73DEE3D0F3E263E393E623E7C3E8CD1
:103D68003EA23EBC3E74016F6003023EDC8C828D35
:103D780083E0F8C394034003023EDCE8900B1A0288
:103D88003EB974026F6003023EDC8C828D83124759
:103D980068900B1BE8F0A3E9023EB974016F600359
:103DA800023EDC123F034003023EDCE89002B6020A
:103DB8003EB974016F6003023EDC8C828D83E0F8AB
:103DC800C394054003023EDCE89002B7023EB97492
:103DD800016F6003023EDC123F034003023EDCE851
:103DE8009002B8023EB974106F6003023EDC750899
:103DF800108E097808121A777AB97B021204BA74FD
:103E080002121823023EFE74016F6003023EDC12A8
:103E18003F034003023EDCE89002C9023EB9740148
:103E28006F6003023EDC8C828D83E0900B1E023EA5
:103E3800B974046F6003023EDC8C828D83780812AB
:103E480016DD908FB0780812150F5003023EDC90F3
:103E580002CB78081216EC023EFEEF7077120B5672
:103E6800E9700A12069479501208A4806290035EE1
:103E78007401803D74016F705B123F035056E890E7
:103E880002CA802D74016F704B8C828D83E0F8C359
:103E9800940A5040E8900B1D801774016F70358CA0
:103EA800828D83E0F874F928C3940A5027E8900BB0
:103EB8001FF0804274016F701B90035DE0F88C82E4
:103EC8008D83E090035DF0E8702CE06401702712A8
:103ED800068880227E18801EC3EA9426EB94005040
:103EE8001374026F700E8C828D831247621209F46C
:103EF800E9FE80020E0EEEF9023FE88C828D83E027
:103F0800F8C394022274F41218648C088D097E0098
:103F18008A0A8B0B780A121ABB00040EC53F443F6D
:103F2800493F5A3F5F3F643F693F853F8A3F8F3F24
:103F3800C53FA03FA53FAA3FAF3FB93F900B1A80AE
:103F480069900B1B1247688C828D83E8F0A3E90205
:103F58003FDB9002B680539002B7804E9002B88043
:103F680049750A108E0B780A121A777CB97D02AA55
:103F780008AB091204BA7402121823805B9002C9B4
:103F88008028900B1E80239002CB1216FB85088296
:103F980085098312170780409002CA800D900B1D77
:103FA8008008900B1F800390035DE08C828D8380D6
:103FB8002212068EE98508828509838016C3EA9451
:103FC80026EB940050101209FA850882850983EAC5
:103FD800F0A3EBF080020E0E023EFE740E121823C0
:103FE8007F0402193674F012186474C612180D8C06
:103FF8000A8D0B7414121858AC82AD8375838F75B3
:1040080082AA74061217207414121858AC82AD8351
:10401800120634E9F508744A121858E0FEE9C39408
:104028000A400302415C75F006E9A4F509742C12F4
:104038001858AC82AD837A0E74202509F912089EAF
:10404800E970097438121858E0FF80027F00900B5D
:104058001AE06402700474018001E4F50D780D1211
:104068001A7BEEFDEFFCA908AA0AAB0B1206BE7478
:10407800011218237C147D00790085188285198324
:10408800AA82AB831204D2851882851983AC82ADCB
:10409800837A1074242509F912089EE9703E7C1071
:1040A80079FF851882851983AA82AB83120532E9C4
:1040B800702A7410121858AC82AD837A04742525BE
:1040C80009F912089E851882851983AC82AD83EFA1
:1040D800A2E0E433F9AA0AAB0B120A7E741A12188A
:1040E80058AC82AD837A1274702508F912089EE9DB
:1040F8007051741A121858AA82AB8312066A75088E
:1041080000E50875F003A4F8A9F0741A121858E528
:104118008228F8E58312496C124AF4601D88828966
:1041280083A3A3E0F50E750F00780E121A77AA0A7A
:10413800AB0B120CD674021218230508E508C394B9
:104148000640BEEFA2E1500C9002B5E0F9AA0AAB16
:104158000B120CDC74046E7027900B1AE06402706A
:104168001F7A009002C9E060010A9002B6E060047C
:10417800780480027800E84AF9AA0AAB0B120B3ED1
:104188007900743A1218237F0802193674F012184D
:1041980064EAFEEBFF8C088D09750A0AE9600C14C5
:1041A800600914603714607902424312067CE9F50D
:1041B8000AC3940A4003024243E5084509607C7536
:1041C8000E06750F00780E121A77EEFCEFFDAA089E
:1041D800AB091204BA7402121823805F750B0075BC
:1041E8000E06750F00780E121A77EEFCEFFDE50B40
:1041F80075F00EA4F8A9F074D728FA740239FB12E6
:1042080004CC7402121823E9600C850B0AE50AC372
:10421800940A50278016050BE50BC3940A501C809E
:10422800BE120682E9F50AC3940A500FE50845094B
:104238006009AA08AB09A90A120676A90A02418FE1
:1042480074F4121864890875091574FF6A70037488
:10425800FF6B70277E00AC087A027B00EEF912062D
:1042680058E960037509000EEEC3940A40E8E508B2
:1042780060537AAC7B06120EE6804A120EC88A0A90
:104288008B0BAE0AAF0BEE4F60387C007D00EE243E
:1042980005FAEF3400FB8E828F83A3A3A3A3E0F972
:1042A800120634E9C3940A500CAC087A027B001257
:1042B8000658750900E508600CEEFAEFFB1206AC2B
:1042C8008003750914A909023FE874F2121864EC16
:1042D800FEEDFF750815740E12185812475574FF35
:1042E8006A700374FF6B7021750900AC0AAD0BEEA0
:1042F800FAEFFBA90912065EE960037508000509D3
:10430800E509C3940A503F80E2120EC88A828B8363
:10431800E5824583602D7C007D00E5822405FAE571
:10432800833400FBA3A3A3A3E0F9120634E9C394E2
:104338000A5013AC0AAD0BEEFAEFFB12065E7508D5
:10434800008003750814A908025199C082C083909F
:1043580002CFEAF0A3EBF09002B5E0FC7D007A25ED
:104368007B001209F49002B5E0F9120C58D083D002
:104378008202013574EC1218648A088B09E9FE740C
:1043880014121858780C1216DD7F00EE702E78087B
:10439800121A77908FB078101216DD780C791012F7
:1043A80015AEAA10AB11AC12AD13120A907402121A
:1043B8001823E9FF60097901AA08AB09120A8AEFF4
:1043C800F97F0C02193674EA12186474EC12180D8D
:1043D800EAFEEBFFEE240CF514EF3400F515EE249D
:1043E8000AF50CEF3400F50DEE2405F50EEF340058
:1043F800F50FEE2409F50AEF3400F50BEE2403F56A
:1044080008EF3400F5098E828F83A3A3E024FA70A5
:104418000302472D24FD700302464814700302442A
:10442800B314601024FD700302461814700302468A
:104438007D02474B12476E604AE0F5838882124737
:1044480068880C890DE8450D6039851482851583C7
:10445800E0F50E780E121A7BEE240BF582EF34008D
:10446800F583E0F9850A82850B831247620A0A0AF6
:10447800AB09850C82850D8312186274011218230A
:1044880002474B850A82850B83121A8E9002CB1243
:1044980016FB120A907402121823E9700302474BA4
:1044A8007901850A82850B830246F98E828F83A360
:1044B800858212858313E060030245FB850E8285A1
:1044C8000F83E0A2E040030245FB7C0E7D007900EB
:1044D800851882851983AA82AB831204D2EE240838
:1044E800F510EF3400F511851082F583124FACEA10
:1044F8004B6010750A06750B00780A121A77EA24C1
:1045080010801B124FA6120EC8EA4B700302474BCD
:10451800750A06750B00780A121A77EA2405FCEB6F
:104528003400FD7402121858AA82AB831204BA74BC
:1045380002121823850E82850F83E0A2E25004D26E
:10454800F08002C2F0A2F0E433F8740C121858E0BC
:1045580048F0850C82850D83124755E50A450B60A6
:1045680013E50A2410F582E50B3400F583780C1264
:1045780016DD800C750CFF750DFF750EFF750FFFAE
:10458800E50A450B7006750A00750B0085108285D3
:104598001183E0F510A3E0F511E5104511700675DB
:1045A8001000751100780C121A73780A121A7778AD
:1045B80010121A77851482851583121A8E8E828FAF
:1045C80083A312475D740A121858AA82AB83120695
:1045D80070740A1218238508828509831247689027
:1045E800035FE8F0A3E9F07A017B009002B5E0F9F7
:1045F80012050E12476E700302474B12477970037B
:1046080002474B851282851383E0FC79010247211A
:1046180012476E700302474BE0F5838882A3A3120A
:104628004768890BE8450B700302474B8E828F83DE
:10463800A3E0FC7902124FA68882850B83024728E3
:104648007C007D00EE2404FAEF3400FB85088285A7
:104658000983E0F9120634E9F8C3940A40030247D3
:104668004BAC0CAD0D7A0475F006E8A42425F912BC
:10467800089802474B124FA69002CAE06007900BB9
:104688001DE0F9806F900B1AE070047905806512BF
:104698000EC88A0C8B0DA80CA90DE82404F50CE9AA
:1046A8003400F50D8E828F83A3A3A3A3A3A3A3E055
:1046B800A2E05045E849700302474B850C82850DFE
:1046C80083E0FE6034850A82850B83E054107029EC
:1046D800740E121858AC82AD83E82405FAE9340048
:1046E800FBEEF9120634E970107903850882850912
:1046F80083124FAC120A8A804AAC0EAD0F850C8229
:10470800850D83E0F9124FA61206B812476E603382
:10471800124779602E7C007900124FA68E828F8313
:10472800121862801E120B56E9701890035EE0643E
:1047380001700812069490035EE4F079501208A400
:1047480012068874141218237F0E021936E0F50A2F
:10475800A3E0F50B22A3A3A3A3A3E0FCA3E0FD22FF
:10476800E0F8A3E0F9229002CFE0F8A3E0F9E849E5
:1047780022E0F5838882A3A3E0F8A3E0F9E8FEE944
:10478800FFEE4F2274F412186474F212180DEAFE48
:104798008C0B75F006E9A42420F508851882851984
:1047A80083AC82AD837A0EF912089EE970577C06B5
:1047B80079FF851882851983AA82AB83120532E9AD
:1047C8007043740C121858124768E8F509E50B6035
:1047D80005EE42098004EEF45209850982AA82E8AE
:1047E8006A7001E9601B740C121858EAF0A3E4F02F
:1047F800851882851983AC82AD837A0EA9081208C0
:1048080098790180027900023FE374F21218647407
:10481800E012180D890A8A088B09ECFEEDFF741264
:10482800121858AC82AD837A0E75F006E9A42420DC
:10483800F912089EE960030249327C0679FF741276
:10484800121858AA82AB83120532E9600302493272
:104858007470250AF50B851882851983AC82AD839F
:104868007A12F912089EE9600302492E851882859A
:104878001983AA82AB8312066AE5084509702C7C65
:10488800127900851882851983AA82AB83120532B2
:10489800E9600302492E7C127D0079008518828523
:1048A8001983AA82AB831204D2805D851882851988
:1048B80083AC82AD83AA08AB091206648A0C8B0DFF
:1048C800A80CA90DE8497028EE4F605E851882850E
:1048D8001983AC82AD837A007B00120664EAF8EB98
:1048E800F9EA4B604588828983E508F0A3E509F079
:1048F8001249A8FAEE6A7001EF602BEEF04F7008CB
:1049080088828983E4F0A3F0851882851983AA82B6
:10491800AB8312066A851882851983AC82AD837AC7
:1049280012A90B12089879018002790074200251AB
:104938009674F71218647F00EF75F003A4F8A9F0D5
:10494800EC28F8ED12496CE06A7003A3E06B70067E
:10495800E8FAE9FB800B0FEFC3940640DB7A007B93
:1049680000024CAB39F9888289832274F7121864E3
:104978007E00EE75F003A4F8A9F0EA28F8EB1249D6
:104988006CE0F4FCA3E0F4FD88828983ECF0A3EDED
:10499800F01249A8F4F00EEEC3940640D5024CABD1
:1049A800E82402F582E93400F583E02274F4121851
:1049B8006474EE12180DEAFEEBFF8C088D09EE4FB9
:1049C8007005790A024ADE12067CE9F50AC3940AE0
:1049D8004024750B007C0679FFE50B75F00EA4FAF0
:1049E800ABF074D12AFA74023BFB120532E970036A
:1049F800024AE3850B0AE50AC3940A4003024ADC2B
:104A080075F006E50AA4F50BEEFCEFFD7A0E7420AE
:104A1800250BF9120898E5084509600EAC08AD09A0
:104A28007A1B7421250BF9120898741E1218581253
:104A38004AF4600A7A1B7422250BF912089874202C
:104A4800121858124AF4600A7A107423250BF912C6
:104A580008987422121858124AF4601D7A107424A7
:104A6800250BF91208987424121858AC82AD837A71
:104A7800047425250BF91208987C127D0079FF85AE
:104A88001882851983AA82AB831204D2851882857D
:104A98001983AC82AD837A127470250AF9120898CA
:104AA80075080E7509007808121A77EEFCEFFDE517
:104AB8000A75F00EA4F8A9F074D128FA740239FB2B
:104AC8001204BA740212182390035DE06003120600
:104AD800C41206B2A90A7412023FE5050BE50BC31E
:104AE800940A50030249DD750A0A80E8E0FCA3E055
:104AF800FDEC4D2274F412186474F212180DEAFEDB
:104B0800EBFFE9C3940A5004EE4F70047902803E2B
:104B1800851882851983AC82AD837A0E75F006E913
:104B2800A42420F912089EE9F5087020750A067574
:104B38000B00780A121A777402121858AC82AD83E7
:104B4800EEFAEFFB1204BA7402121823A908023F06
:104B5800E374F4121864EAFEEBFF750800750A06A0
:104B6800750B00780A121A77EEFCEFFDE50875F070
:104B78000EA4F8A9F074D128FA740239FB1204CCF7
:104B88007402121823E96004A908800B0508E508D7
:104B9800C3940A40C8790A023FE874F7121864748B
:104BA800F012180DEAFEEBFF7508008518828519CA
:104BB80083AC82AD837A1075F006E508A42423F946
:104BC80012089EE9702C7C1079FF8518828519835C
:104BD800AA82AB83120532E97018EEFCEFFD851846
:104BE80082851983AA82AB83120A60E97004A90836
:104BF800800B0508E508C3940A40B0790A741012BE
:104C08001823024CAB74F7121864750800E5087590
:104C1800F00EA4F8A9F074D128FE740239FFEEFC56
:104C2800EFFD7A0E75F006E508A42420F912089E17
:104C3800E9602C7C067D0079FFEEFAEFFB1204D2C6
:104C48007C067D0079FFEE2406FAEF3400FB12049F
:104C5800D2EE240CF582EF3400F583E4F0A3F005DE
:104C680008E508C3940A40A590035DE060031206B6
:104C7800C41206B2802D74F71218647E007F007C7F
:104C88000679FFEF75F00EA4FAABF074D12AFA7426
:104C9800023BFB120532E970010E0FEFC3940A4084
:104CA800DEEEF97F0102193674F71218647E00EE01
:104CB800F912069A0EEEC3940A5003E960F180E3F4
:104CC80074F312186474C512180DE9FF75F006A480
:104CD800F50874202508FE741B121858AC82AD83A1
:104CE8007A0EEEF912089EE96003024DE97C067916
:104CF800FF741B121858AA82AB83120532E96003AD
:104D0800024DE97C0E7D0079FF741B121858AA82A7
:104D1800AB831204D27C1B7D0079FF85188285192C
:104D280083AA82AB831204D27C127D0079FF742996
:104D3800121858AA82AB831204D2741B121858ACEA
:104D480082AD837A0EEEF9120898E9F50985188282
:104D5800851983AC82AD837A1B74212508F9120862
:104D680098E9FE851882851983AC82AD837A1B7415
:104D7800222508F9120898E9F50A85188285198309
:104D8800AC82AD837A1074232508F9120898E9F5E6
:104D98000B851882851983AC82AD837A107424251B
:104DA80008F9120898E9F50C851882851983AC82F0
:104DB800AD837A0474252508F9120898E9F5087472
:104DC80029121858AC82AD837A1274702FF9120820
:104DD80098E9F8EE450A450B450C45084842098014
:104DE80003750900A909743B1218237F05021936B7
:104DF80074F7121864E99002B5F0120688024CABF9
:104E080074F212186474FB12180D8A088B09EB549B
:104E1800807003024EA09002B5E0F91204F68A0AE7
:104E28008B0BAE0AAF0BEE4F60648E828F83E0244B
:104E380050603814600624E1604A804BA3A3A3A302
:104E4800E070448E828F83A3A3A3A3A3A3A3121A03
:104E58008E8E828F8312475D8E828F83A3A3124F1B
:104E6800AC1206407402121823801CA3A3A3A3E06B
:104E7800641E701379008E828F83A3A3124FAC1225
:104E8800063A8003120652EEFAEFFB1204E4AA086F
:104E9800E5096480FB024FA1EAA2E04003024F9DAE
:104EA80090035F124755740312185885820C858346
:104EB8000D780C121A77750C02750D00780C121A01
:104EC80077750C86750D90780C121A777CFF7DFF2C
:104ED8007A017B00120BB07406121823024F85E486
:104EE800F50CF50D780C121A77740412185885828F
:104EF8000C85830D780C121A777404121858858261
:104F08000C85830D780C121A777409121858121A26
:104F18008E7902EEFCEFFDAA0AAB0B120CCA7408DC
:104F2800121823E97035851882851983E0FA74010F
:104F3800121858E0F9EA2400F50CE439F50DEA45B1
:104F48000D6018780C121A778E828F8312475EAA2A
:104F58000AAB0B1206407402121823E4F50CF50D87
:104F6800780C121A777405121858121A8E7CFF7D65
:104F7800FFEEFAEFFB120BBC74041218238A0C8B99
:104F88000DAE0CAF0DEE4F6003024EE7E50864016D
:104F9800FAAB0980047A007B0074050251968508F3
:104FA80082850983E0FAA3E0FB22C082C0839002D5
:104FB800B5E0F98A828B83A3124FAC120CDC024352
:104FC80075C082C08374FF12180D12068EE9C3944F
:104FD80002851882851983400474028002740AF0DD
:104FE800AC82AD837A017905120B6E740112182315
:104FF80002437574F212186474E812180DEAFEEB95
:10500800FF890A8C088D097C187D00790085188233
:10501800851983AA82AB831204D2851882851983E5
:10502800EEF0A3EFF09002B7E0C0E0740212185857
:10503800D0E0F09002B8E0C0E07403121858D0E055
:10504800F0900B1FE0C0E07417121858D0E0F0740D
:1050580015121858E054FEF8A3E0F9900B1EE0A2D0
:10506800E0E433FAE84AF874151218581251A5A268
:10507800E15004D2F08002C2F0E854FDFAA2F0E454
:105088003333F8EA48F874151218581251A5A2E3F8
:105098005004D2F08002C2F0E854F7FAA2F0E433E8
:1050A800F50C750D007403780C1217FA12519E1244
:1050B80018581251A5A2E45004D2F08002C2F0E8B8
:1050C80054EFFAA2F0E433F50C7404780C1217FAD2
:1050D80012519E1218581251A5A2E55004D2F08020
:1050E80002C2F0E854DFFAA2F0E433F50C74057854
:1050F8000C1217FA12519E1218581251A5A2E2501A
:1051080004D2F08002C2F0E854FBFAA2F0E433F5CE
:105118000C7402780C1217FA12519E121858E8F003
:10512800A3E9F09002B8E0601D750C10780C121A13
:10513800777CB97D027406121858AA82AB831204D0
:10514800BA74021218239002C9E06011E50A6009D6
:105158007415121858E04402F0780180027800743F
:1051680014121858E048F09002B6E0600478048001
:105178000278007414121858E048F0AC08AD09859C
:105188001882851983AA82AB83120A8474181218AC
:10519800237F06021936EA450CF8741522E8F0A3B5
:1051A800E9F0900B1EE02274F312186474E51218EB
:1051B8000DEAFEEBFF8C098D0A7428121858E0F5E9
:1051C8000C75F006E9A4F87408650A700474228066
:1051D80002742128F50B7C1B7D00790085188285D7
:1051E8001983AA82AB831204D2851882851983ACED
:1051F80082AD837A1BA90B12089EE97032741A12C9
:105208001858E024F9C3940A5025E50CF50B780BDF
:10521800121A7B7401121858AC82AD83E509A2E01A
:10522800E433F9EEFAEFFB120A96740112182374AC
:105238001B024DF074F7121864120D48750800E54A
:105248000875F00EA4F8A9F074D128FE740239FF8D
:105258007C0679FFEEFAEFFB120532E97009EEFAE7
:10526800EFFB7900120D4E0508E508C3940A40CFFC
:10527800024CABC082C0839061907404F0A3744860
:10528800F0A3E4F09061807440F09061BC7407F082
:105298009061877469F09061B67416F07900120F06
:1052A800BE7902120FC4902514E493F46006E493C7
:1052B800F9120F9A79051212B80256BDC082C0833E
:1052C800E9540FF9906185E0696012E5C65480449D
:1052D80049F5C6E59E547F644970F8E9F053C680E5
:1052E800E59E547F70FA0256BD74F7121864E5A85B
:1052F800FE53A87E120FA6C2BA539AFEC289759BA6
:1053080000C2C2120FAC75A91175B905120FB2D23D
:10531800BA439A0174805E42A8025C4AC082C08384
:10532800906181E4F0A30256BA75E90075910075A1
:10533800BF00020135C082C083906181E4F0A3748C
:10534800C0F0A3E40256BCC082C08374F812180DE2
:105358009006A8125B2CE84970030254069006A830
:10536800E0544060237908851882851983AA82ABA6
:10537800831210B4851882851983AA82AB83120D13
:10538800669006A8E054BFF0E054806010790C7A6B
:10539800647B081210B49006A8E0547FF0E0A2E005
:1053A8005008790012540E54FEF0E0540260087957
:1053B8000112540E54FDF0E05404600879001254B0
:1053C8001954FBF0E054086008790112541954F795
:1053D800F0E054106008790212541954EFF0E054C8
:1053E800206008790312541954DFF0A3E0540160D7
:1053F8000D120FD0120D789006A9E054FEF0740833
:105408001218230256BD120FBE120D6C9006A8E0AA
:1054180022120FC4120D729006A8E022C082C08327
:10542800E9600514602A804F90619A7433F0A37480
:1054380055F09061A0743AF0900840E0640170095A
:10544800C2919006AA7467802D9006AA746180267E
:1054580090619A743FF0A3745AF09061A0747FF041
:10546800900840E064017009D2919006AA74718096
:10547800059006AA746AF00256BDC082C083E9602E
:105488000B14600D14600F14601180209025188093
:1054980015902519801090251A800B900840E0641B
:1054A8000160F390251BE493906186F00256BD7469
:1054B800EE12186474F412180D851882851983ACDD
:1054C80082AD8375838F7582D0740412172090255E
:1054D8001893F46003025649907808E0C394025088
:1054E800030256297404121858AC82AD8375838F51
:1054F80075827E7408121720F97AFF7BFF7FFF7E82
:10550800008982858210801874086E70030255DE47
:1055180074096E70030255DE740A6E70030255DE5C
:10552800E510C333FCE433FD7404121858E5822CEB
:10553800F582E5833DF583E0F50EA3E0F50F8E08CF
:10554800750900740278081217FA74482508FC7463
:10555800783509FD8C828D8378081216DD740878F9
:105568000812161E85080C85090D8C828D83780813
:105578001216DD7418780812161EE50C4508F50891
:10558800E50DF509C3E50E9508E50F95098C828DA3
:105598008378081216DD8C828D8378081216DD74E4
:1055A800187808401412161EE50C4508FCAD0DE5E8
:1055B8000EC39CFCE50F9D800F12161EE50C4508D6
:1055C800C3950EFCE50D950FFDC3EC9AED9B5006B7
:1055D800ECFAEDFBEEFF0EEEC394135003025510E8
:1055E80074FF6A700374FF6B602D8F08740278086B
:1055F8001217FA74481262D874783509F583780856
:105608001216DD851882851983E5822510F582E555
:1056180083126065E508F009E9C394045003025554
:10562800017508017509007808121A7774021218B2
:1056380058AC82AD837A467B091206FA74021218B6
:1056480023740C1218237F0A021936C082C0839073
:105658006186E0F890251BE49368700990251AE4A8
:1056680093906186F09061AE7468F0A3746AF090CC
:10567800624574FBF0A304F053F4FD43FE02900866
:10568800407401F09061A0E0643A700479008002EF
:105698007901120FBE0256BDC082C0839007F2E0A6
:1056A8006401700A9007F7E06004790C80027900C1
:1056B8008003F0A3F0D083D082020135C082C0837A
:1056C80075E1F19007F5E0604D146008146051141D
:1056D80060498051120FE29007EBE0F97AEC7B0702
:1056E80012123A908FC81216FB121270908FE012A5
:1056F80016FB1212469007F6E0F9121252790112BF
:1057080012AC9007E9E0241612585274FAF0A37408
:105718000FF07900809F120FE880BC120FEE80B75F
:10572800120FF480B2791280EB74F412186475D9F0
:105738000D9007DAE0A2E0E4331313F81257BE48DD
:105748004401F5D9780012583C40FB780088087469
:10575800DB1262D8740712584640F275E19590073B
:10576800DAE0F97ADB7B07121240900D857470F04D
:10577800A3740F1258611258811258781259B9122D
:1057880057C878081216DD908FC4780812166990E9
:105798008FD878081216B712584C78081216EC9061
:1057A80007E9E024141258527413F09006A6740204
:1057B800F07F040219369007EBE0C4333354C0225B
:1057C8009007E9E0F8A3E0F5838882A3A32274F6A2
:1057D80012186412598A8AD9780012583C40FB780A
:1057E8000080061258F0125A3CE8C39940F5125945
:1057F8007C12583C40FB780080081262D47408126E
:105808005A3CE8C39940F375E195900D85747CF096
:10581800A3740F12586112586B1216FB12584C12CF
:1058280017079007E9E024141258527412F09006F2
:10583800A6025C27880874EC2508F5827407125BB9
:10584800989406229007E9E0240EF8A3E01258592C
:10585800223400F988828983221259A27476F0A32F
:10586800740F221258811258781259BD9090142240
:10587800F0A3748EF0A3740F22125885221258894F
:1058880022F0A37420F0A374112274F61218641283
:1058980058E51257BE4402F5D9780012583C40FB2F
:1058A800780080061258F0125A3CE8C39940F57502
:1058B800E195900D851258FBF0A31258FB12586E13
:1058C8001216FB12584C1217079007E9E02414121D
:1058D80058527414F09006A67404025C299007FBD1
:1058E800E0F9740729F5D922880874FC2508F5829F
:1058F8007407227488125908125908F0A3740F22E9
:10590800F0A3740FF0A374882274F6121864125965
:105918008A74064AF5D9780012583C40FB78008012
:10592800061258F0125A3CE8C39940F512597C12F5
:10593800583C40FB780080081262D47408125A3C24
:10594800E8C39940F375E195900D857482F0A374CE
:105958000F12599812586B1216FB12584C1217074F
:105968009007E9E024141258527415F09006A674B2
:1059780003025C2990081B1258E874044AF5D97888
:1059880000221258E59007EBE0C4333354C0FA22E2
:105998001259A27420F0A37411221259A622125986
:1059A800B37420F0A374111259B322125889F0A3CA
:1059B800221259BD22F0900D937420F0A374111295
:1059C80059A67420F0A37411125885F022C082C021
:1059D800831257C8A3A3A3A3E40256BA74F71218F4
:1059E8006412651AF8740639F9E82405FAE93400EE
:1059F800FB8A828B8312628988828983A3A3A3A3EB
:105A0800A3A3A3A3A3ECF0A3EDF088828983A3A3A7
:105A1800A3A3A3A3A3E024FFF8A3E034FFF98A8299
:105A28008B83E8F0A3E9F0025C4A880874442508EF
:105A3800F58274081261B0F5D90822EAFEEBFF90EE
:105A480061D0E0F87480C398FAEE248322125A5B7E
:105A5800940422126073E0F5D90AEAC32274F6129C
:105A68001864EAFEEBFF9061D0E0707575D90E7589
:105A7800D90375D9047A008A08EE25081265E82446
:105A88008C125AFE40F17A008A08EE25081265E861
:105A98002484125A5540F175E1957908EE248C1248
:105AA8005AF72484125AEE7C008C82AA82C3E49AA4
:105AB800F895E0F9EE28F8EF39F9E8248BF582E952
:105AC8001261ACC0E0EE2A1265E824ABF582E91257
:105AD8006065D0E0F00CECC3940840CD125BB48054
:105AE800027900025C2AFAEF3400FB1210A8221295
:105AF8005AEE7904EE22125A5B940822C082C083BF
:105B080075D90275D90375D90575E195EA2470F53B
:105B180082EB125B29EA2472F582EB125BC602560D
:105B2800BD126076125B3022E0F8A3E0F92274F629
