:020000040000FA
:0600000002011D021DBA01
:03002B0002245656
:03005300021E305A
:03006B0002242448
:10008300021CABE5C754F84401F5C779012200000F
:100093000080FB120086B90003020107E47921788E
:1000A30008B800028004F709D8FCE479297802B87B
:1000B30000028004F709D8FCE490028178377908BC
:1000C3008002F0A3D8FCD9FA781A90014D7A01BACC
:1000D30000028007E493A3F608DAF99009B7AA822D
:1000E300AB8390014E783879048015E493A3AC82F6
:1000F300AD838A828B83F0A3AA82AB838C828D83A8
:10010300D8E9D9E775821275839A740312012F75A2
:100113008291758300740012012F75D00075813FA1
:10012300751881751902759F00020096C09FF59F8F
:10013300E473D09F22D083D082C09FE493C0E07445
:100143000193C0E0740293F59F2201FF0000B40005
:100153000028002800283075A000A000A000A000FF
:1001630000080008E001F00010001000100010006B
:100173001000100050005000500010001000D00775
:100183000000000000000F000100050030750700AB
:100193001000010081FF0000FF8306A1068906FF0E
:1001A30002020208025000A0000000E803021A90B5
:1001B30001000003900216900100000C0A02069051
:1001C300010000B2020216900100000D0A0208901D
:1001D300010000C8020216900100000E0A020A90F4
:1001E300010000CA020216900100000F0A020C90DF
:1001F300080000CB02021690010000100A020E90C4
:10020300010000110AFF0100FF20021A9001000003
:100213000090021690010000750A02109000000081
:100223000000022A8F0300001803A70CA70CA70CD9
:10023300A70CA70CA70CA70CA70CA70CA70CA70C23
:10024300A70CA70C7D0F950F770FFFFF0202020289
:100253000202020202010D0000001001021A9001C5
:100263000000FD8F021690010000B80A02289001D9
:1002730000007807021690010000B90A02269001D7
:100283000000158F021690010000BA0A02249001A3
:100293000000F98E021690010000BB0A02229001B1
:1002A3000000A58E021690010000BC0A02209001F6
:1002B3000000B78E021690010000BD0A021E9001D5
:1002C3000000938E021690010000BE0A021C9001EA
:1002D3000000818E021690010000BF0A02389001CF
:1002E3000000078F021690010000C00A024090012F
:1002F3000000C10A01E803053F10FF000130750348
:1003030002010600000000000000000000000000E1
:10031300000000000000000000000000000000FFDB
:10032300FF0600800CE803140953696D706C654285
:100333004C455065726970686572616C05125000B6
:100343002003020A000201050302F0FF53696D70E6
:100353006C6520424C452050657269706865726116
:100363006CD9130000DF130A43686172616374651B
:100373007269737469632031000243686172616357
:10038300746572697374696320320008436861722B
:100393006163746572697374696320330010436821
:1003A30061726163746572697374696320340002F6
:1003B300436861726163746572697374696320353C
:1003C30000021A90010000FA8F021690010000D378
:1003D3000B022E90030000A109021490010000D427
:1003E3000B021690010000E50B023090010000A201
:1003F30009021490010000E60B021690010000F7B9
:100403000B023290020000A309021490010000F8CD
:100413000B021690010000090C023490000000A4A6
:1004230009022A8F030000A5090214900100000AA3
:100433000C0216900100001B0C023690040000AB66
:10044300090214900100001C0C104B6579205072B6
:1004530065737320537461746500021A9001000080
:10046300F78F021690010000B50C023E90000000C9
:10047300B009022A8F030000B109021490010000A1
:10048300B60C1201380C8F03120138238F031201AB
:1004930038528F031201388B8F03120138B38F0345
:1004A300120138E18F03120138F88F031201380F5C
:1004B30090031201382590031201384C9003120166
:1004C300385F900312013875900312013888900346
:1004D300120138AD9003120138828C021201388167
:1004E3008D02120138B68D02120138D78D02120126
:1004F30038E78D02120138088E02120138148F0278
:10050300120138E18F02120138549002120138DAD5
:1005130090021201381D9102120138549102120106
:1005230038DA9102120138AC92021201380A9302AE
:100533001201382293021201389C93021201389F50
:100543009302120138A29302120138499402120154
:1005530038619402120138919402120138B1940265
:100563001201389F95021201385596021201386222
:10057300D5021201388AD502120138B8D502120108
:1005830038EFD50212013857D602120138A0D6022D
:10059300120138EBD60212013829D702120138664C
:1005A300D70212013894D7021201383BD802120144
:1005B3003845D80212013852D80212013885D802C0
:1005C30012013847D90212013853D9021201386B8C
:1005D300D90212013875D902120138399703120171
:1005E300384797031201385F97031201387797034F
:1005F3001201389EAE011201383CAF01120138B42A
:10060300AF01120138C9B00112013803B10112015F
:1006130038ACB10112013881B201120138E5B301DE
:100623001201383CB401120138C3B401120138AAD3
:10063300B501120138F7B50112013885B60112016F
:1006430038A9B6011201387EB801120138BFB801CA
:10065300120138E1B80112013862B9011201384CB4
:10066300BA0112013812BB0112013814BA02120185
:1006730038E6BA021201388FBB02120138D2BB022C
:100683001201385FBC02120138EBBC02120138CCF4
:10069300BD02120138FBBD02120138F7BE0212017E
:1006A300383FBF0212013841C00212013885C0022F
:1006B300120138ABC002120138A898031201386B3B
:1006C300F30212013881F302120138A7F302120177
:1006D30038CFF402120138D9F40212013832F6028B
:1006E30012013832F702120138A6C602120138DBB2
:1006F300C7021201380EC80212013858C80212018B
:100703003816CA02120138439001120138A690012B
:10071300120138EB9101120138FB91011201381ECD
:1007230092011201386992011201380E93011201EC
:1007330038049401120138CE94011201384696010F
:100743001201388896011201382697011201387375
:100753009701120138999701120138879901120103
:10076300388C99011201386D9B01120138C19B012C
:10077300120138239C011201384B9C01120138EFFE
:100783009C01120138B19D01120138E29D01120151
:1007930038E59D011201382D9E011201386F9E012B
:1007A300120138D69E01120138DE8203120138F19C
:1007B30082031201380A830312013855830312019D
:1007C30038308403120138BF84031201380A8503C9
:1007D300120138842400120138902400120138C910
:1007E30024001201380E2500120138C5250012011C
:1007F300384B2600120138B02600120138DC2600DF
:100803001201381527001201382929001201380571
:100813002B00120138F02C00120138272E00120190
:1008230038873000120138733100120138B93200B1
:10083300120138C63300120138E333001201381BAA
:1008430034001201383534001201389D340012018E
:1008530038373900120138D83900120138293A00E3
:10086300120138503A001201389E3A00120138BC86
:100873003A00120138103B00120138E93B00120123
:1008830038703D00120138F83D00120138A4DE0231
:10089300120138AEDE0212013879DF0212013894F8
:1008A300DF02120138BADF02120138FEDF02120141
:1008B3003836E0021201385FE002120138D8E00254
:1008C300120138EDE00212013802E1021201383957
:1008D300E1021201384DE1021201387EE1021201F8
:1008E30038B8E102120138E4E1021201385BE20296
:1008F300120138A4E202120138CEE202120138F3E7
:10090300E2021201387FEF0212013849F0021201AC
:10091300382CF102120138A2F102120138E4F1027B
:1009230012013811F3021201380080021201382932
:1009330080021201384280021201388781021201BB
:10094300386582021201388482021201381183024F
:10095300120138548302120138A184021201384073
:100963008502120138BF870212013856880212012C
:10097300382A89021201380C8A02120138788B0254
:100983001201380B8C02120138539203120138BC46
:1009930092031201381093031201383793031201A3
:1009A300381BE30212013888E302120138D3E30251
:1009B300120138C8E402120138C4E502120138AE4C
:1009C300E60212013864A902120138A6A902120133
:1009D3003880AA0212013859AB0212013854AC0212
:1009E30012013833AD021201389FAD02120138668D
:1009F300AE02120138D1AE0212013838AF02120131
:100A03003863AF02120138D4AF0212013867B00263
:100A1300120138D0B002120138E5B0021201382DAC
:100A2300B10212013846B102120138ABB102120110
:100A330038AEB102120138D2FA02120138FAFA02C0
:100A430012013838FB02120138F6FB021201386139
:100A5300FC021201387DFC02120138A5FC021201CE
:100A630038D5FC02120138E4FC021201385EFD02A3
:100A730012013884FD02120138A09F011201383D92
:100A8300A10112013823A301120138EDA3011201C0
:100A93003834A4011201387BA4011201388DA4015A
:100AA300120138CDA401120138FCA4011201384807
:100AB300A50112013880A501120138AEA50112016A
:100AC30038FFA5011201388EA6011201387CA90155
:100AD30012013856AB0112013892AB01120138EC06
:100AE300AC0112013833AD01120138A8AD01120176
:100AF30038F6AD0112013861A0021201387EA0025E
:100B030012013818A6021201381AA70212013894EA
:100B1300A80212013842A9021201387352001201CD
:100B230038BC5200120138E952001201381C53003C
:100B33001201382953001201383553001201384786
:100B430053001201381C54001201387A5400120168
:100B530038AF54001201384B560012013898560032
:100B6300120138BC5600120138295700120138CE41
:100B730057001201388A580012013809590012012E
:100B830038CD5900120138DC59001201385D5A0082
:100B9300120138FC5A001201382E5B00120138C9C9
:100BA3005B00120138275C00120138615C001201FE
:100BB30038E25C00120138AB5D00120138545E006C
:100BC300120138DB5E00120138335F0012013894E2
:100BD3005F00120138BD5F0012013873600012011B
:100BE30038BD61001201380062001201381D620035
:100BF3001201383C6200120138876200120138ACDE
:100C03006200120138D562001201384463001201F8
:100C1300388663001201388A6400120138246500A3
:100C2300120138F06500120138096600120138C05C
:100C330096021201381397021201381F970212010C
:100C430038F497021201381B9802120138569802A1
:100C5300120138C29802120138F698021201382F95
:100C63009902120138479902120138A09902120120
:100C730038B99902120138029A02120138159A0200
:100C83001201382F9A02120138459A021201386173
:100C93009B02120138729C02120138BF9D0212019D
:100CA30038A49E02120138F17F00120138A5E60133
:100CB300120138D9E60112013844EA011201388ED3
:100CC300EB0112013858EC01120138E2ED01120177
:100CD30038BDEE01120138F7EE011201381AEF01A7
:100CE3001201385CEF0112013865EF01120138AFD0
:100CF300EF01120138B9EF0112013865F001120159
:100D03003839F1011201388DF101120138EFF10187
:100D130012013842F20112013871F201120138B0A6
:100D2300F2011201383B6600120138956E00120180
:100D3300389B6E001201385674001201383C78005B
:100D43001201383CF702120138B2F702120138C817
:100D5300F70212013805F8021201383DF8021201B8
:100D630038BAF802120138F5F80212013870F902A4
:100D7300120138ACF902120138B5F902120138C177
:100D8300F902120138DBF90212013800FA021201EA
:100D93003816FA021201383FFA02120138A2FA0297
:100DA300120138A0D002120138B3D002120138CD9B
:100DB300D002120138F6D00212013839D1021201E1
:100DC3003878D102120138B6D1021201381BD2028F
:100DD30012013830D2021201383BD20212013848D4
:100DE300D2021201385FD2021201386DD20212010F
:100DF3003878D20212013884D20212013897D20213
:100E0300120138A2D202120138C5D2021201386E81
:100E1300D3021201387ED30212013898D302120191
:100E230038B5D302120138D1D302120138F6D302F6
:100E330012013800D40212013814D40212013833DB
:100E4300D40212013894D4021201389AD402120146
:100E530038A0D402120138A6D402120138B2D40247
:100E6300120138E5D402120138CACB011201384C01
:100E7300CC01120138F5CC011201383DCE0112012B
:100E8300384BD00112013831D10112013866D1013A
:100E930012013888D10112013831D201120138010F
:100EA300D4011201382AD401120138A2D40112014B
:100EB30038D4D401120138E1D4011201382CD50100
:100EC30012013850D501120138A1D701120138ABF4
:100ED300D80112013807D90112013847BD011201A7
:100EE3003858BE011201383CBF0112013846BF0118
:100EF30012013868BF0112013874BF01120138189A
:100F0300C10112013845C1011201385BC20112014E
:100F130038B0C201120138FFC301120138D4C40131
:100F230012013830C5011201389BC501120138D0B6
:100F3300C50112013813C601120138DDC8011201BF
:100F430038F5C80112013886C90112013894C90164
:100F5300120138E1C901120138EFC9011201385BEE
:100F6300CA01120138D6CA011201382DCB01120170
:100F7300388BF301120138ADF301120138BEF501CC
:100F83001201387DF801120138A7F9011201386501
:100F9300FA0112013851FB01120138538D0312017A
:100FA30038788D03120138EE8D031201388B7800E7
:100FB3001201389478001201389D780012013875B7
:100FC3007900120138267B00120138567B0012018A
:100FD30038817B00120138B17B00120138DC7B00C1
:100FE300120138107C001201383C7C001201387F5A
:100FF3007C00120138AA7C00120138F17C00120136
:1010030038467D00120138887D00120138E27D00E8
:101013001201380D7E001201385C7E001201388CFB
:101023007E00120138B77E00120138E57E001201FE
:1010330038087F001201383199031201385D990392
:101043001201388A9903120138949903120138A4C2
:10105300990312013820C1021201382AC102120178
:101063003868C102120138B1C102120138EBC10262
:1010730012013845C20212013866C2021201386FEA
:10108300C202120138BCC202120138E5C2021201C7
:1010930038EFC2021201385BC302120138EDC302FA
:1010A30012013837C4021201386DC402120138F933
:1010B300C4021201383AC50212013871C502120185
:1010C3003883C502120138A2C502120138ABC5022A
:1010D30012013878C602120138639503120138CC25
:1010E300FD0212013802FE0212013838FE0212011B
:1010F3003883FF021201381098031201382698032F
:101103001201383098031201387A9803120138AE6D
:1011130099031201380ADA021201381FDA021201A6
:1011230038CFDA021201380FDB0212013828DB0252
:1011330012013863DB02120138B0DB02120138E21C
:10114300DB0212013824DC0212013825DE0212010F
:101153003897DE021201386C940312013895940318
:10116300120138C49403120138DC94031201381EAF
:101173009503120138008003120138258003120100
:10118300384F80031201386A9A031201385F3E0018
:101193001201383C4000120138E241001201389636
:1011A3004200120138204300120138A1430012010A
:1011B30038CA43001201388847001201380E48002C
:1011C3001201383549001201386F4900120138B055
:1011D3004900120138F84A00120138554B00120138
:1011E300389E4B00120138094C001201387A4C002A
:1011F300120138AC4C00120138C44C00120138F013
:101203004D00120138004E00120138AA4F0012019E
:1012130038C14F00120138F34F00120138A75100B3
:10122300120138345200120138C09A03120138A84F
:101233007F00120138E77F00120138E9FF02120133
:10124300385A96031201386A96031201387F9603BF
:10125300120138339703120138689303120138EDF2
:101263009303120138539403120138A9FE011201AA
:1012730038CBFE011201382CFF011201383EFF0169
:101283001201388EFF01120138CCFF01120138CF51
:10129300FF0112013870E70212013884E7021201DC
:1012A30038FEE702120138E2E802120138B9EA0215
:1012B3001201381EEB0212013875EB02120138F8E5
:1012C3007F001201387987031201380D8903120157
:1012D300386E8903120138B48903120138D19A0395
:1012E300120138D69A03120138DD9A03120138BF6E
:1012F30090031201381191031201388491031201F2
:1013030038ED91031201383485031201385E8503E9
:101313001201382C8603120138078703120138D2D1
:10132300B10212013899B202120138D0B20212018D
:1013330038FAB2021201385AB302120138B0B302BA
:1013430012013815B402120138ADB402120138BCCF
:10135300B50212013853B702120138E0B702120185
:101363003847B8021201385EB80212013878B90260
:10137300120138B6B90212013854D901120138A149
:10138300DC011201381DDE0112013874DE01120185
:101393003891DE011201380FDF0112013892E001AA
:1013A30012013877E1011201382CE50112013802EC
:1013B300E601120138B789031201384D8A0312017D
:1013C30038708A03120138E58A03120138CCCB0244
:1013D3001201387FCE02120138A5CF021201386BF9
:1013E300D00212013889EB02120138CEEB0212014E
:1013F30038EBEB02120138A1EC02120138F4EC02D3
:10140300120138CAED02120138E4EE021201381D4E
:10141300EF02120138868B03120138CB8B031201C2
:10142300381F8C03120138A28C031201381A8D0362
:10143300120138BDFF02120138D8FF01E0667010B7
:1014430008A3E066700A08A3E066700408A3E066D8
:1014530022C3E7960809E7960809E7960809E7967D
:1014630022C3E09608A3E09608A3E09608A3E096BB
:1014730022C008C3E096F50808A3E096420808A333
:10148300E096420808A3E09645087001D3D00822ED
:10149300080808EAC0E0EBC0E086F0E7A4FA180900
:1014A30086F0E7A42AFA180986F0E7A42AFA1809AD
:1014B30086F0E7A42AFA1986F0E7A4FBE5F02AFAF6
:1014C300190886F0E7A42BFBE5F03AFA190886F031
:1014D300E7A42BFBE5F03AFA18180986F0E7A4C550
:1014E300F02BFBE43AFA1908E7C5F0C6A426F6E5A3
:1014F300F03BFBE43AFA1886F0E7A4F6E5F0082699
:10150300F6E43B08F6E43A08F6D0E0FBD0E0FA2232
:10151300E4CFC0E0E4CEC0E0E4CDC0E0E4CCC0E082
:1015230075F020C3E633F608E633F608E633F6082B
:10153300E633F6181818EC33FCED33FDEE33FEEF0B
:1015430033FFC3EC9709ED9709EE9709EF97191944
:1015530019400FFFEC97FC09ED97FD09EE97FE1973
:101563001906D5F0BEECF709EDF709EEF709EFF729
:10157300191919D0E0FCD0E0FDD0E0FED0E0FF2245
:101583006016080808C6C313C618C613C618C613C0
:10159300C618C613C6D5E0EA2270090808082260F7
:1015A30016181818C6C333C608C633C608C633C6CA
:1015B30008C633C6D5E0EA22E627F60809E637F679
:1015C3000809E637F60809E637F622E026F608A307
:1015D300E036F608A3E036F608A3E036F622E02666
:1015E300F008A3E036F008A3E036F008A3E036F0F5
:1015F30022C3E697F60809E697F60809E697F60880
:1016030009E697F622C3E096F008A3E096F008A354
:10161300E096F008A3E096F022E056F608A3E05621
:10162300F608A3E056F608A3E056F622E056F008C3
:10163300A3E056F008A3E056F008A3E056F022E03A
:10164300F608A3E0F608A3E0F608A3E0F622E6F026
:1016530008A3E6F008A3E6F008A3E6F022E0FAA365
:10166300E0FBA3E0FCA3E0FD22EAF0A3EBF0A3EC94
:10167300F0A3EDF022CAC0E0E6F0A308DAFAD0E066
:10168300FA22CAC0E0E0A3C582CCC582C583CDC51A
:1016930083F0A3C582CCC582C583CDC583DAE6D0EA
:1016A300E0CA22C3E498F8E499F91216E78026C346
:1016B300E49AFAE49BFBE920E7E91216E7E498F8D9
:1016C300E499F922C3E498F8E499F91216E7E49847
:1016D300F8E499F9C3E49AFAE49BFB22EB20E7CF01
:1016E300E920E7E0B90010BB0008E88AF084F8AA13
:1016F300F022E4FBC8FA22EB70227B10C833C8C97E
:1017030033C9335007C39AC3DBF280069A50012AC8
:10171300DBEAC833F4C8C933F4C9FA2275F008E424
:10172300C833C8C933C933C99AC99B5004C92AC924
:101733003BD5F0ECFBC833F4C8E4C9FA22600D08CA
:10174300C6A2E713C618C613C6D5E0F322600C0879
:10175300C6C313C618C613C6D5E0F42270042260AC
:101763000D18C6C333C608C633C6D5E0F418222500
:101773001810AF08F518400215198008F518400233
:101783001519D2AF22C0D0251810AF08F518500292
:1017930005198008F51850020519D2AFD0D02225BB
:1017A30018F58210AF08F518400215198008F518CE
:1017B30040021519D2AF851983222518F582E43525
:1017C30019F58322E4732518C582C0E0E51934FFB7
:1017D300C583C0E0E518C3958224F810AF0885835C
:1017E300198582188008858319858218D2AFCEF0B7
:1017F300A3E520F0A37808E608F0A3DEFAEFF0A350
:10180300E58124FAF8E608F0A3E608F0A3E608F079
:10181300A30808E608F0A3E608F0A315811581D014
:10182300E0FED0E0F8158115811581E8C0E0EEC037
:10183300E0222518C582C0E0E51934FFC583C0E066
:10184300E518C3958224F910AF088583198582189A
:101853008008858319858218D2AFCEF0A3E520F0E6
:10186300A37808E608F0A3DEFAEFF0A3E58124FBF2
:10187300F8E608F0A3E608F0A30808E608F0A3E6F4
:1018830008F0A315811581D0E0FED0E0F81581158D
:1018930081E8C0E0EEC0E022851983851882E0A3C9
:1018A300FEE0A3F5207808E0A3F608DFFAE0A3FF43
:1018B300E0A3C0E0E0A3C0E0E0A3C0E0E0A3C0E099
:1018C300E0A3C0E010AF08858218858319800885DE
:1018D3008218858319D2AFD083D08202013585194E
:1018E30083851882E0A3FEE0A3F5207808E0A3F641
:1018F30008DFFAE0A3FFE0A3C0E0E0A3C0E0E0A3B9
:10190300C0E0E0A3C0E010AF08858218858319808A
:1019130008858218858319D2AFD083D08222C0D0A4
:101923002518C582C0E0E51934FFC583C0E0E5187A
:10193300C3958224F310AF08858319858218800824
:10194300858319858218D2AFC8F0A3E9F0A3EAF022
:10195300A3EBF0A37908E709F0A3D8FAECF0A3ED21
:10196300F0A3EEF0A3EFF0A3D0E0F0A3D0E0F0A358
:10197300D0E0F0A3E520F0A3E5F0F0A322851983DE
:10198300851882E0C0E0A3E0F9A3E0FAA3E0FBA39B
:101993007808E0F608A3DFFAE0FCA3E0FDA3E0FE8D
:1019A300A3E0FFA3E0C0E0A3E0C0E0A3E0F5D0A381
:1019B300E0F520A3E0A3F5F010AF08858319858235
:1019C300188008858319858218D2AFD082D083D03E
:1019D300E0F8D0E03274048006740280027401C01F
:1019E300E0F4041217A2D0E01216782274048004E3
:1019F30074028000CCC0E0EDC0E0E518C39CCCAD20
:101A03001950011D10AF068C188D1980068C188D86
:101A130019D2AF121685D0E0FDD0E0FC22D083D0DE
:101A230082E9C0E0E493A3C386F0C5F095F0F9081A
:101A3300E493A386F0C5F095F0700BE493A3C399E8
:101A43004005E9048002A3E475F002A42582F5822F
:101A5300E5F03583F583D0E0F9E493A3C0E0E493A4
:101A6300C0E022D083D082ECC0E0EDC0E0E493A3D9
:101A7300FCE493A3FDED4C600D121AB2EC24FFFCC1
:101A8300ED34FFFD80EFE493A3FCE493A3FDED4C61
:101A9300600D121AF1EC24FFFCED34FFFD80EFD052
:101AA300E0FDD0E0FCE493A3C0E0E493C0E022C0F7
:101AB300E0C3E49396087401939618400FE4936689
:101AC300700808740193661870007019A3A3C3E427
:101AD3009396087401939618A3A3400DD0E0D0E029
:101AE300D0E0021AA2A3A3A3A3A3A3D0E022C0E041
:101AF300C0F088F0E4936670080874019366187068
:101B030000A8F0A3A3700BD0F0D0E0D0E0D0E002A7
:101B13001AA2A3A3D0F0D0E02274F5121835EAFE7E
:101B2300EBFFEE2434F8EF3400F988088909EE243A
:101B330035121C54F8EE2437121C54F50AEC850AAE
:101B4300F0A4FCAAF0850AF0EDA42AFDE82CF8E441
:101B53003DF97A257B001216E7EA85088285098319
:101B6300F05407F87401B800028004C333D8FCC0F2
:101B7300E0E0131313541FF8EE28F8EF3400F9E8EC
:101B8300245DF582E93400F583D0E0F8E05860087D
:101B9300850882850983801DEE2436121C54F5F0D6
:101BA300EA84A8F0EE28F8EF3400F9E82438F58247
:101BB300E93400F583E0F97F040218E174F51218A3
:101BC30035EAFEEBFFEE2434121C54C0E0EE24355C
:101BD300F582EF3400F583D0E0F08E828F83A3A3E8
:101BE300A3A3A3E0FAA3E0FB8E828F83A3A3A3A303
:101BF300A3A3A3E0FCA3E0FDECC39AF50AED9BF5D8
:101C03000BEE2480F508EF3400F509850882F5838F
:101C1300E06401702BEE2481F582EF3400F583122A
:101C230019F3121C5D7402121788E960137CFD7DA1
:101C330004EEFAEFFB120BD5850882850983E4F0E5
:101C4300AC0AAD0BEEFAEFFB121B1C122416021B9F
:101C5300BAF582EF3400F583E022C082C083851891
:101C630082851983E0F8A3E0F9C3EA9CEB9D501247
:101C7300C3EC98ED994019C3EA98EB995012790196
:101C83008010C3EA98EB9940F5C3EC98ED9950EEB8
:101C93007900D083D08222EAC39CFAEB9DFB220019
:101CA300008521878522C622C0E074EF12192175B1
:101CB3009B00906182E0A2E64003021D6CE591A2C5
:101CC300E64003021D6C7591BF9003C2E06405708A
:101CD30008120D73120D7F8003120D797521001206
:101CE3000DEBE99003C3F07900120DDF120B3F7A7D
:101CF300017B009003C1E0F91210AF907803E06418
:101D0300426003021DB590055FE014F06003021DFD
:101D1300B5C2AF121D1900782AD0E0F618D0E0F64C
:101D2300E59F5407F97005908F7F8003908F7B7830
:101D330008121642E9C4C0E07829E65508F50808F8
:101D4300E65509F509740B7808121750D0E02508F9
:101D5300F8906270E0A2E740F8E8C333906272F053
:101D6300906270E0D2E0F08049E0A2E55024E59172
:101D7300A2E5501E7591DF9003C2E0640D701390CD
:101D830003E4E004F064287002E4F07A00E0F9125E
:101D93000E5D906181E0A2E35009E5E9A2E35003FF
:101DA30075E9F7A3E0A2E75009E591A2E7500375AF
:101DB300917F7F04021980C0E0C0D0C082C08390AD
:101DC3006183E0A2E05009E5BFA2E0500375BFFEC6
:101DD300E0A2E15009E5BFA2E1500375BFFDE0A217
:101DE300E25009E5BFA2E2500375BFFBE0A2E35056
:101DF30009E5BFA2E3500375BFF7E0A2E45009E58C
:101E0300BFA2E4500375BFEFE0A2E55009E5BFA20E
:101E1300E5500375BFDFE0A2E65009E5BFA2E65037
:101E23000375BFBFD083D082D0D0D0E032C0E0747E
:101E3300F2121921E5A7A2E4500FE5A1A2E450098B
:101E430053A7EF75A1EF121E84E5A7A2E5500CE599
:101E5300A1A2E5500653A7DF75A1DFE5A7A2E150D4
:101E630009E5A1A2E1500375A1FDE5A7A2E2500C8B
:101E7300E5A1A2E2500653A7FB75A1FB7F0102195E
:101E83008074F81218357521019003C2E06406705E
:101E9300077A007B00120D5BA2AFE433FED2AF9052
:101EA30003C8E0640170187A207B009003C1E0F955
:101EB3001211397A207B009003C1E0F91210B5901A
:101EC3006182E0D2E6F090055EE0602185C6228063
:101ED300169003C7E064017008E5C654F84405F59D
:101EE300C653BEFC121CA47401652160E4EEA2E09B
:101EF30092AF7F010218E100008E238F2485822890
:101F0300858327851882851983E0CEA3E0CF8528B2
:101F130082852783EBC9EAC8EDCBECCA75F010C301
:101F2300E833C8E933C9EA33CAEB33CBC3EA9EF5D6
:101F330026EB9FF525B35004AB25AA26EC33CCED55
:101F430033CDD5F0DAAE23AF242274E912183574F9
:101F5300FA121772EAFEEBFF8C088D099003C2E0B8
:101F630024F7C394055006908FA7022074120CD750
:101F73008A0A8B0BEA450B7003022071120D918ABA
:101F83000C8B0D120D91EA650C7003EB650D60EC83
:101F9300EEFCEFFD851882851983AA82AB83120DAF
:101FA30097850A82850B83A3A3780C121642908F20
:101FB300CB780C12161C8518828519837814121697
:101FC30042908FCB781412161C780C791412145487
:101FD300501F780C79141215F4908F73780C121427
:101FE300744047850C10850D11850E12850F1380E3
:101FF30041851410851511851612851713781079EC
:102003000C1215F4908F737810121474501C751001
:1020130000751100751200751301781079141215EB
:10202300F47810790C1215BB8008908FA7781012E2
:1020330016427409781012159C908FDF780C1216D3
:10204300427810790C1215139003C2E06408600AF9
:10205300E064066005E06405701C908FCF78101271
:1020630014745012908F7778101215CE8008908FC9
:10207300EB781012164285088285098378101216B0
:102083005174061217887F100218E174F71218357D
:10209300120DA990055CE064017010906245E4F0B4
:1020A300A3F053F4F343FE0C5390F3120D49E5C62A
:1020B30054804449F5C6E59E547F644970F89061A5
:1020C30085740FF090055AE0F47002A3E0602C755C
:1020D300080175090090055AE0780812175FE508B2
:1020E300F4FAA3E0600814600A14600C800DEA524D
:1020F300808008EA52908003EA52A079007F0202AE
:1021030018E174F7121835E9FEEAFF74016E700CDA
:102113007A807B009003C1E0F91210AF90247CE435
:1021230093F46008E493F9120B21800953C680E508
:102133009E547F70FA120D4F90055CE064017003AA
:10214300120B5790055AE0F47002A3E0602A750859
:102153000175090090055AE0780812175FAA08A3D1
:10216300E0600814600A14600C800DEA4280800865
:10217300EA42908003EA42A0120CD78A088B09A88E
:1021830008A909E8496017E5E170FCE82414F58221
:10219300E93400F583E0F874FF68600288E17401B4
:1021A3006F700A7A019003C1E0F912110302210052
:1021B30074F11218358A088B098C0A8D0B740F126F
:1021C30017BD780C121642908FCB780812161C900C
:1021D3008FCB780C12161C7808790C1214545015F6
:1021E3007808790C1215F4908F73780812147440E0
:1021F3001579018013780C79081215F4908F737890
:102203000C12147440EB79007F080218E174ED128C
:1022130018358A088B098C0A8D0B74131217BD7835
:102223000C121642908FCB780812161C908FCB7825
:102233000C12161C780C7908121454401178087982
:102243000C1215F4AA08AB09AC0AAD0B8022751069
:10225300007511007512007513017810790C1215B1
:10226300F4781079081215BBAA10AB11AC12AD1398
:102273007F0C0218E1908FCB78081216428A828B6A
:1022830083780812162F7F040218E174F5121835AB
:102293008C828D8378081216428A828B8378081287
:1022A30016081222E2C3E098F0A3E0991222D44068
:1022B3001E908FAB78081216428A828B837808129D
:1022C30015E18E828F83E02420F0A3E0344EF0806A
:1022D300A4F08E828F83C3E09420A3E0944E22EA7D
:1022E3002404F8EB3400F9E8FEE9FF8C828D83A324
:1022F300A3A3A3E0F8A3E0F98E828F832274F512DF
:102303001835E9FE900514E0FAA3E0FBEEC333F8B9
:10231300E433F974E928F582748E39F583E02AF5FC
:1023230008A3E03BF50978081219DC908FEF121629
:1023330060121EFC74021217888A088B098C0A8D9E
:102343000B74107808121583AA08AB097F040218CE
:10235300E174F11218358A0C8B0D8C0E8D0F740FEE
:102363001217BDE0FAA3E0FB74111217BDE0F508E4
:10237300A3E0F50974131217BDE0FEA3E0FF78088C
:102383001219DCEA2401F508EB3400F509E4F50A37
:10239300F50B780C7908121493908F837808121632
:1023A30042780C7908121493AA0CAB0DAC0EAD0F46
:1023B300121EFC74021217888B09EA450960047A1D
:1023C3000180027A00EC2AFCED3400FDECF8EDF913
:1023D3007A717B021216E788088909E4F50AF50B7E
:1023E3008E828F837808121651ECF8EDF97A717B9F
:1023F300021216E78A088B097405780812175F8E94
:10240300828F83A3A3A3A3E508F0A3E509F07F08C4
:102413000218E1C082C083E9906000F0D083D082CB
:1024230022C0E074F2121921A2AFE433FED2AFE569
:1024330089A2E04006E589A2E1500312128375895F
:1024430000758900C2C5751A00EEA2E092AF7F0144
:10245300021980C0E0C0D0E8C0E0E9C0E0E5A8D23E
:10246300AFC2C7751A00A2E7A2E792AFD0E0F9D0D6
:07247300E0F8D0D0D0E03208
:10247C00FFFFFFFFFFFFFFFFC082C083E9900A74DC
:10248C00F002270874F71217C9E99002E0F07C18E3
:10249C007D037AFF7BFF1208639002E174FFF0A3C7
:1024AC00F0A3E4F0A3F079051207EB9002E0E0F959
:1024BC001207137A817B08120A3D02341674F41247
:1024CC0017C98A088B09EB548060309002E0E0F960
:1024DC001210978A0A8B0BAE0AAF0BEE4F60138E5D
:1024EC00828F83E064B07003120803EEFAEFFB12E4
:1024FC001085AA08E5096480FB80047A007B000241
:10250C0026D774F21217C974FC121772EAFEEBFF8D
:10251C0074121217BD1238FDEE4F70030225B17400
:10252C00021217BDEEF0A3EF122912ECF0A3ED127C
:10253C002912AA82AB8312070DE9F50A706AE50825
:10254C00450960648E828F831238E3EE4F60567AB1
:10255C00067B001210EB8A0C8B0DA80CA90DE84918
:10256C007005750A13804188828983E41225BEEEBA
:10257C00F0A3EF12390EE508F0A3E509F09002E69E
:10258C001226459002E670051233C0801B1233AE42
:10259C008003EAFCEBFD8C828D8312264570F38C54
:1025AC00828D8380E3750A02A90A740412178802CB
:1025BC003AFDF0A31238B4A32274F21217C9890A97
:1025CC00E975F017A4FEAFF09002E5E4F09002E399
:1025DC00122645600A1210F19002E3E4F0A3F0EE2B
:1025EC00FAEFFB1210EB8A088B09EA4509602FEE13
:1025FC00FCEFFD79001210739002E3E508F0A3E5FF
:10260C0009F07B00800812262FE4F0A3F00BEBC33B
:10261C00950A40F2E50A9002E5F079008002791300
:10262C00023AFDEB75F017A4F8A9F09002E3E0284C
:10263C00FAA3E0398A82F58322123052EA4B2274D3
:10264C00F41217C9740C1217BD1238D8FEE9FF75B5
:10265C000800750900800CE5082401F508E509342B
:10266C0000F509C3E5089CE5099D503285080A85EB
:10267C00090B7403780A12175FEA250AF8EB350B7D
:10268C00F988828983A3A3A3A3A3A3123495EE652F
:10269C000A7003EF650B70BFE8FAE9FB80047A005F
:1026AC007B00802774F41217C97900EAA2E0501B52
:1026BC0075085075098F78081219DC7C047D007A36
:1026CC00767B0A1207E574021217887F0402189BA6
:1026DC00C082C0839002E612270F601C8882898317
:1026EC00A3A3E06A7003A3E06B8882898370E8A3DC
:1026FC00A3A3A312304E80047A007B00D083D08237
:10270C00020135123BE3E8492274EE1217C974FC3E
:10271C00121772EAFEEBFF851882851983E4F0A389
:10272C00F0EE24021233A0EE24051238BBEE240482
:10273C00F50EEF122CC7E024FE603924FC60462411
:10274C00FE605224FE605E24FE700302282824FEE4
:10275C00700302288C24FE700302289B24FE700355
:10276C000228AA24FC70030228B924FE7003022854
:10277C00C80229059002FF7417F0A3E412291A125B
:10278C00048B022905851882851983AC82AD8312CE
:10279C0008090228D5851882851983AC82AD83126D
:1027AC00080F0228D5850C08850D0974021217BD77
:1027BC00AC82AD8385088285098312304E120731B5
:1027CC008A0C8B0DAC0CAD0DEC4D603BE4F50CF5AF
:1027DC000D780C1219DC750CFF750D02780C1219A2
:1027EC00DC750C00750D03780C1219DC74081217CB
:1027FC00BD1219F3123D5F121788E9F50C700B121C
:10280C0030441204A3800F750C018508828509835E
:10281C001229081233C0850C080228D8740212172A
:10282C00BDAC82AD83850C82850D83122E19603C64
:10283C00850C82850D83A3A31219F37510FF7511F6
:10284C000278101219DC751000751103781012192A
:10285C00DC74081217BD1219F3123D5F121788E9C8
:10286C00F509700B1230441204A9800F750901850B
:10287C000C82850D831229081233C0850908804CFF
:10288C00851882851983AC82AD83120815803A8530
:10289C001882851983AC82AD8312081B802B851896
:1028AC0082851983AC82AD83120821801C85188225
:1028BC00851983AC82AD83120827800D851882851B
:1028CC001983AC82AD8312082DE9F508E50860295F
:1028DC008E828F83A3E06414601F850E82850F8324
:1028EC00E09002FF122912123BDF9003001233C05A
:1028FC00E508A312291A1204850232AF123BE385B4
:10290C00188285198322F085188285198322F07C20
:10291C00FF7D02850A82850B831230522274EE12DF
:10292C0017C974FC1217728A0A8B0B8C0E8D0FEA66
:10293C002405F508EB3400F5097C157D0079007A47
:10294C00FF7B02121073E5082402F50CE50912381E
:10295C00BE851882851983858210858311781012A3
:10296C0019DC850882850983A3A3A3A3122E101258
:10297C0019DCE5082405F510E5093400F51178108B
:10298C001219DC850C82850D8312316512072B74AC
:10299C00061217888A108B11AE10AF11E50A2402AB
:1029AC00F50AE50B1233A3EE4F7003022AE78017EA
:1029BC0074021217BD12304E88828983EAF0A3EBA1
:1029CC00F09002FFE004F09002FFE0C39405400396
:1029DC00022AE7E4F510F51178101219DC7510E8ED
:1029EC0075110278101219DC7510E9751102781046
:1029FC001219DC74061217BD1219F37910EEFCEFE4
:102A0C00FD123D61121788E9705E85088285098385
:102A1C00A3A3A3A3A3A3A3E0F89002E8E0687048E3
:102A2C00122E101219DC7CE97D02E5082408FAE567
:102A3C00093400FB12106D7402121788E960298E9C
:102A4C00828F83A3A3A3A312304E9002FFE0F51054
:102A5C007402781012175F74002510F58274033518
:102A6C0011F583EAF0A3EBF074021217BD85821006
:102A7C0085831178101219DC74021217BD1219F328
:102A8C00850C82850D831230741217888A108B1175
:102A9C00AE10AF119002FFE0F510751100740278C2
:102AAC001012175F74FF2510F874023511F9888223
:102ABC008983A312264570030229B3E8240308086E
:102ACC0008E93400F9EE4F60030229BC888289833F
:102ADC0074FFF0A3F09002FFE004F09002FFE060BE
:102AEC000A1230441204977900800B8508828509FC
:102AFC00831233B7790A0232AF74EA1217C974FE23
:102B0C001217728C128D13EA2405F50CEB123D4949
:102B1C001238E7750800750900EA2402F510EB3449
:102B2C0000F51185188285198385820A85830B78B7
:102B3C000A1219DC850C82850D83A3A3A3A3122C86
:102B4C00DD1219DCE50C2405F50AE50D1233A3782A
:102B5C000A1219DC850C82850D83122CE112072BCD
:102B6C0074061217888A0A8B0BEA450B7003022C29
:102B7C0082EA2404F50EEB122CC71238E78A828BFA
:102B8C0083A3A3A3E0F985108285118312305860CA
:102B9C0003022C82E4F514F51578141219DC751463
:102BAC00E875150278141219DC7514E9751502789C
:102BBC00141219DC74061217BD1219F37913AC0A2E
:102BCC00AD0B851082851183123D67121788E9F5CC
:102BDC00096003022C829002E8E0F8E5087009E035
:102BEC002402900300F08014900300E0FCE824021F
:102BFC00FAE43400FBEA6C7001EB707E850882AA63
:102C0C0082122E079414122DFF506B850E82850FA5
:102C1C0083E0C0E074012A122CBED0E0F0050885D8
:102C2C000E82850F83A3E0C0E085080A7401250A93
:102C3C00122CBED0E0F005089002E8122CDD12191F
:102C4C00DC7CE97D0285080A7401250A122CD1125C
:102C5C0017889002E8E02508F50874FF6E7003747D
:102C6C00FF6F6012EE24010EEF3400FFE508C394F1
:102C7C00145003022B2FE50860131230628510826A
:102C8C0085118312304E12049D79008014E5097071
:102C9C000375090A851282851383EEF0A3EFF0A960
:102CAC000974021217887F0E02189B85080C740198
:102CBC00250CF58274033400F583223400F50F855E
:102CCC000E82F58322FA74033400FB12105B74023B
:102CDC002212391D22A3A3122CE7221233AEFDEED1
:102CEC00FAEFFB2274EE1217C974FE1217728C0ED7
:102CFC008D0FEA2405F50CEB1238BE750B00900213
:102D0C00FFE4F0F50AEA2402F508EB3400F509803B
:102D1C00449002FFE0FA9002E8E0F8122E079417B4
:102D2C00122DFF400D9002FFE0F87416C39890022C
:102D3C00E8F0122E101219DC7CE97D0274002AFADC
:102D4C007403122CD41217889002E8E0F89002FF5A
:102D5C00E028F0050AE50C2416F582E50D122CC2CC
:102D6C00E0F8E50AC39850749002FFE0C394165043
:102D7C006BE50AC333F8E433F9E50C28FEE50D39AD
:102D8C00FF851882851983AC82AD838E828F831266
:102D9C002E197008750B011233B38050E4F510F541
:102DAC001178101219DC7510E875110278101219CF
:102DBC00DC7510E975110278101219DC7406121703
:102DCC00BD1219F37916850882850983123D6712A5
:102DDC001788E9F50B7003022D1D80BB7CFF7D026B
:102DEC0085088285098312304E1204AFA90B740238
:102DFC000232B1E99400C365D03322EA28F8E434F6
:102E0C0000F9E822E0F5107511007810221232A6B4
:102E1C008A108B11AC10AD11EC4D2274EA1217C94B
:102E2C0074FC1217728A0C8B0D8C128D13EA24050C
:102E3C00F50AEB1233A3750800750900E50A2402A4
:102E4C00F510E50B3400F51174021217BD85820ED6
:102E5C0085830F780E1219DC850A82850B83A3A358
:102E6C00A3A31238C31219DCE50A2405F50EE50BF1
:102E7C003400F50F780E1219DC851082851183123F
:102E8C0033A912304812072B74061217888A0E8B3E
:102E9C000FAE0EAF0FE50C2402F50EE50D3400F568
:102EAC000F80388882898374FFF00508122CB77460
:102EBC00FFF005089002E8E0F50C750D00780C1297
:102ECC0019DC7CE97D0285080C7401250C122CD1CF
:102EDC001217889002E8E02508F508EE4F60278E5F
:102EEC00828F83A3A3A3E0F9850E82850F83123012
:102EFC0058EE24041238BBE96027850C82850D83BB
:102F0C0012303A1233C0E5087003023020123062DE
:102F1C00850E82850F8312304E1204B57900023073
:102F2C0035E4F514F51578141219DC7514E87515DB
:102F3C000278141219DC7514E9751502781412193B
:102F4C00DC74081217BD1219F37911EEFCEFFD8534
:102F5C000E82850F83123D67121788E9F509709A66
:102F6C00850882AA82EA9002E87009E024049003A2
:102F7C0000F08025E0F8900300E0F514E82404FC50
:102F8C00E43400FDEC65147001ED7081122E079491
:102F9C0012122DFF4003022F19850C82850D83E040
:102FAC00C0E074012A122CBED0E0F00508850C821A
:102FBC00850D83A3E0C0E0122CB7D0E012307D85E4
:102FCC00820C85830D780C1219DC74041217BD1257
:102FDC0019F38510828511831230741217888A0CAC
:102FEC008B0DAE0CAF0D85080C7401250CF8740319
:102FFC003400F9EE4F7003022EAF851882851983C9
:10300C00E08882898312307DA3E0C0E0122CB7D017
:10301C00E0022EBDE509700375090A850A82850B4D
:10302C008312303A1233C0A9097404022CAF123B3C
:10303C00E3851282851383227CFF7D02850A8285BB
:10304C000B8312305222E0FAA3E0FB221230521210
:10305C000719E9F50922900300E0F5F0E5088490E2
:10306C0002FFF07CFF7D0222122CE712073774045A
:10307C0022F005088518828519832274EC1217C971
:10308C0074FE1217728A088B098C0E8D0FEA2405B8
:10309C00FEEB3400FF123290EE24181238BBEA45D6
:1030AC000B700302313312327950291231588A10C5
:1030BC008B11EA4511606B7912AC0AAD0B85088255
:1030CC0085098312304E8510828511831217C7E94A
:1030DC00F50A7058E4F50AF50B780A1219DC8E82A1
:1030EC008F83A3A3E0F50A780A1219DCEE240312ED
:1030FC0033A0780A1219DC8E828F83123165120884
:10310C00517406121788E9F50A7021850C82850D19
:10311C0083E0701F85088285098312304E1204BB30
:10312C008011750A0E8009750A018004E50A600396
:10313C001233B3850C82850D83E060047900800224
:10314C00A90A74021217887F0C02189B85188285B5
:10315C00198312305212083F221233AEFD850882B9
:10316C008509831230522274EE1217C974FE12179D
:10317C00728A088B098C0C8D0DEA2405FEEB340049
:10318C00FF750E00123290EA450B70030232571293
:10319C003279502C1231588A0E8B0FEA450F604A47
:1031AC007912AC0AAD0B85088285098312304E85E5
:1031BC000E82850F831217C7E9F50E600302325A8F
:1031CC00850882850983123495AA0AFB12326B702A
:1031DC00147AFF7BFF12326B606C88828983E50A5C
:1031EC00F0A3E50BF0750A008007750E0E805F05E5
:1031FC000A9002E5E0FAE50AC39A504AE50A75F02E
:10320C0017A4FAABF088828983A3A3E02AFAA3E07F
:10321C003BFB8A828B831233A9EC4D70D2750A1753
:10322C00750B00780A1219DCEEFCEFFD12105B74C2
:10323C0002121788EEFCEFFD850882850983123097
:10324C004E1204C18014750E098003750E01123BD9
:10325C00DB850C82850D831233C0A90E022DFA1268
:10326C0008338A108B11A810A911E84922E508240B
:10327C0002F508E5093400F5098A828B83A3A3A320
:10328C00E0A2E522851882851983AC82AD838E82FB
:10329C008F831232A68A0A8B0B22E0FAA3E0FB1270
:1032AC0007312274041217887F0A02189B74EC12DF
:1032BC0017C98C108D11EA2405F50CEB1238BE756C
:1032CC000F00EA2402F50AEB1233A3850A82F58378
:1032DC0012304E123DED7003023395750E00807165
:1032EC00850C82850D83E06401704F8E828F83A3E1
:1032FC00A31219F38E828F83A3A3A3A3E0F51275F7
:10330C00130078121219DCEE2405F512EF3400F5D7
:10331C001378121219DC1230481208517406121765
:10332C0088E9F50F6014850C82850D83E4F0123B5F
:10333C00DB8510828511831233C07C177D007900E8
:10334C00EEFAEFFB1210738E828F83E4F0A3F0057C
:10335C000E9002E5E0F8E50EC398501EE50E75F0F0
:10336C0017A4F8A9F0850882850983A3A3123D53FD
:10337C001233A9EC4D60030232EC85088285098377
:10338C0074FFF0A3F0E50F70061230481204C7A9C1
:10339C000F023153F50AEF3400F50B22A31233AEB2
:1033AC00FD22E0FCA3E0228E828F83123BE3850E8C
:1033BC0082850F83E8F0A3E9F022C082C0839002DB
:1033CC00E1E06A7003A3E06B70067AE17B02800493
:1033DC007A007B0002270874F71217C97F00EF757B
:1033EC00F003A4F8A9F0EC28F8ED39F98882898368
:1033FC00E06A7003A3E06B7006E8FAE9FB800B0F40
:10340C00EFC3940240D87A007B007F0102189B74B2
:10341C00F61217C91239CC70067A007B008007A30C
:10342C00A3A3A312304E023A8D74F21217C9E9FE0F
:10343C00740E1217BD12349574101217BD1238FD8C
:10344C008C828D83E06402703BA3123BDF888289FF
:10345C0083E0F50CA3E0F9A80C74026870037429DE
:10346C00697021750C02750D00780C1219DC780846
:10347C001219DC780A1219DCEEF9120875740612AE
:10348C00178880027901023AFDE0F50AA3E0F50BFA
:10349C002274E81217C974FB121772E98518828519
:1034AC001983F08A168B178C0E8D0F741F1217BD93
:1034BC001238FD74211217BD12349574231217BDE6
:1034CC001238E77510008C828D83A3A3A3E0A2E4CD
:1034DC00502A741D1217BD12315E8A828B83E582CD
:1034EC00458370030235A9790AAC0EAD0FAA16AB51
:1034FC00171217C7E9F51060030235AC850E8285EB
:10350C000F83E064026003023862A3123BDF85087C
:10351C0082850983A3858212858313E50E2406F523
:10352C000CE50F1238BE88828983E0FAA3E0F9EA31
:10353C002400F514E439F5157814121A660100000C
:10354C0028012871350700022848360328B83500B1
:10355C0029723701299A3702294137032972370416
:10356C002903386238EE4F703E850C82850D83122C
:10357C0038D8FAE9FB8A828B83E0850A82850B8333
:10358C001239141219DC8A828B83A31233AEFDAA72
:10359C0008AB0912105B7402121788800375100EA9
:1035AC00A9107405023D4175100B80F4EE4F70F7B5
:1035BC00850A82850B837401F01238ED85088285AB
:1035CC000983F07C007D00850E82850F83A3A3A365
:1035DC00A3E02401FAA3E03400FB120731EA4B60AC
:1035EC00418A828B83E02402F8850A82850B83E072
:1035FC0028F0EA2404F8EB3400F988828983E0850A
:10360C0012828513831239261239141219DC8A821C
:10361C008B831233A8E5082403FAE5093400FB0276
:10362C00359F850A82850B83E02404F07C047D00A1
:10363C007900AA12AB131210730235ACEE4F600373
:10364C000235B31238EDFEA3E0FF850A82850B83A9
:10365C007404F0EE850882850983F0EF851282856B
:10366C001383F074031217BDAC82AD83EEFAEFFB3B
:10367C001239BA700302371E8A828B83A3A31238C5
:10368C00E374011217BD85820E85830F780E121913
:10369C00DC74051217BD1219F37CFF7DFF1207377E
:1036AC0074041217888B0FEA450F7033850C8285D2
:1036BC000D831238C31219DC850C82850D83A3127D
:1036CC0019F37C027D007A187B9012056374041246
:1036DC001788E9700A74011217BD74FFF0A3F08EFD
:1036EC00828F83E064027034750C02750D00780CC7
:1036FC001219DC8E828F831233A8E5082404FAE5B4
:10370C0009122CD4121788850A82850B83E02402B7
:10371C00800974011217BDEEF0A3EFF074011217BB
:10372C00BD1238D4F074011217BDA31238CCA3A368
:10373C00A3F00235ACEE4F60030235B3850C8285E5
:10374C000D831233A9AA16AB17120869850A828554
:10375C000B837402F0EA850882850983F085128256
:10376C00851383EB80CBEE4F60030235B31238ED3B
:10377C00F8A3E0F9850A82850B837402F0E88508CA
:10378C0082850983F0E985128285138380A3850CD9
:10379C0082850D8312304E121055EAFC8C82A88261
:1037AC00C39EE49F404BE86E7001EF70047C008078
:1037BC001F851882851983E0FAEE2AFAEF3400FB94
:1037CC00C3EA98EB94005003E08004EECCC39CFC5D
:1037DC00EC850A82850B83F08C0A750B00780A1233
:1037EC0019DC850C82850D83E02EFCA3E03F0235AD
:1037FC009A7510070235ACEE4F60030235B3850C99
:10380C0082850D83123BDF850A82850B837407F05A
:10381C00888289831238CC1238B4E08512828513E1
:10382C0083F0E82402FAE93400FB8A828B83123895
:10383C00CC1239051238D4A312390E1238DDF0E847
:10384C002405F8E93400F9888289831238DDA31243
:10385C003926A302373A741D1217BD1239C57003ED
:10386C000235A9123BDF880C890DE8450D70030267
:10387C0035A98E108F1178101219DC780A1219DC08
:10388C0078081219DC74061217BDE0F9AC0EAD0FF6
:10389C00AA16AB17850C82850D831217C7740612F6
:1038AC001788E9F5100235ACF088828983A322F5DC
:1038BC000CEF3400F50D22E0F50E750F00780E229A
:1038CC00E08508828509832212392D22123BE3E818
:1038DC002212392DA3A322A3A3A3A3E0FEA3E0FFEE
:1038EC0022850C82850D83E0F8A3E0F5838882E0C5
:1038FC0022E0F508A3E0F50922A3A3F08A828B83CA
:10390C00A3221225C0A3A322F08A828B8312391D15
:10391C0022E0F50A750B00780A221238B412392D00
:10392C0022E0850882850983A3A32274EE1217C9AD
:10393C0074FE1217728A0A8B0BECFAEDFB741412DC
:10394C0017BDE0F510A3E0F51174161217BDE0FEDB
:10395C0074181217BDE0F50EA3E0F50F85188285DB
:10396C001983AC82AD831239BA603E8518828519F1
:10397C00831239C5602FA3A31238FDE508450960F1
:10398C0024780E1219DC78101219DCEEF9AC0CAD9F
:10399C000DAA0AAB0B8508828509831217C774041C
:1039AC001217888006790E80027901022DFA12070F
:1039BC00318A0C8B0DEA450D221230521239CC2271
:1039CC001207FD8A828B83E58245832274F61217D7
:1039DC00C974FE121772740C1217BD1238D88518E0
:1039EC0082851983F074011217BDE9F0E4F508F52E
:1039FC000978081219DC75080278081219DC7404AD
:103A0C001217BD85820885830978081219DC120803
:103A1C005174061217887402121788806474F71296
:103A2C0017C9EAFEEBFF89087C187D03120869EAC6
:103A3C005402600BA908EEFAEFFB120725800279FD
:103A4C000102341674F61217C974FF6A700374FFFE
:103A5C006B701C7B00EB75F003A4F8A9F0EC28F854
:103A6C00ED39F9123A920BEBC39402501480E61222
:103A7C0008398A088B09A808A909E8496003123A91
:103A8C00927F0202189B8882898374FF1225BEE400
:103A9C00F02274F61217C91208398A828B83E582D8
:103AAC0045836006A3A3E0FA80027A007B0080D1F4
:103ABC0074F21217C98A088B09ECFEEDFF740E1212
:103ACC0017BDE0F50A123B02701CEEFCEFFD7AFF0D
:103ADC007BFF123B0270047911801688828983E582
:103AEC0008F0A3E509F088828983A3A3E50AF0799D
:103AFC00007F0602189B1208398A0C8B0DA80CA9A2
:103B0C000DE8492274EE1217C9EAFEEBFF8C088D02
:103B1C0009890C74121217BD123BDF74141217BDF5
:103B2C001233A974161217BD12304E750D00EC4DE0
:103B3C006003023BD37402650C6003023BCE8882A7
:103B4C0089831233AEF9EC2400F50EE439F50FEA53
:103B5C00F4F8EBF4F9EC58F8E50F59F9E849705D15
:103B6C00E5082406F8E5093400F9880A890B8882EF
:103B7C00F583122CE31208698A108B11E50E65107F
:103B8C007004E50F65116042780E1219DC850A820B
:103B9C00850B83122CE312086F7402121788E9F557
:103BAC000D7027780E1219DC850882850983A3A372
:103BBC00122CE11208877402121788800D750D8083
:103BCC008008750D0D8003750D0BA90D0232B48E96
:103BDC00828F83123BE322E0F8A3E0F92274E8120F
:103BEC0017C974E7121772851882851983EAF0A336
:103BFC00EBF08C168D17890E74311217BDE0F5128F
:103C0C00A3E0F51374331217BDE0F514A3E0F5151A
:103C1C0074351217BDE0F50F750800750900E5093C
:103C2C0075F003A4F8A9F0851882851983123D5309
:103C3C00E0F47003A3E0F47003023D31EE2402F5CE
:103C4C000CEF123D49E07003023D3185160A8517D1
:103C5C000B780A1219DCAC14AD15AA12AB131207AF
:103C6C00F174021217888A0A8B0BEA450B70030257
:103C7C003D31E4F510F51178101219DC74061217A9
:103C8C00BD85821085831178101219DC7409121706
:103C9C00BD85821085831178101219DC85128285FE
:103CAC001383A3A3A3A31219F37914AC0AAD0B8E3F
:103CBC00828F83123D67121788E97069850A8285A5
:103CCC000B83A3A3A3A3123BDF74021217BD123301
:103CDC00C0850C82850D83E0A2E05018A90E7402F9
:103CEC001217BDAC82AD838E828F8312304E1207B9
:103CFC0049E94208850C82850D83E0A2E15026E556
:103D0C000FF50A780A1219E0A90E74031217BDAC4C
:103D1C0082AD838E828F8312304E12074374011250
:103D2C001788E942080509E509C394025003023CCF
:103D3C002AA90874191217887F1002189B3400F5F1
:103D4C000D850C82F58322E028FEA3E039FF8E82DC
:103D5C008F83227916850A82850B831230521208C2
:103D6C004B74082274F21217C9EAFEEBFF890B742C
:103D7C0001650B600E7402650B70637901120A5BAE
:103D8C00E9705BEEFAEFFB123DED6047750A0080BF
:103D9C000B7C177D007900121073050A9002E5E088
:103DAC00F8E50AC3985021E50A75F017A4F8A9F0B4
:103DBC00850882850983A3A3E028FAA3E039FB8A4E
:103DCC00828B8312270F70C985088285098374FF43
:103DDC00F0A3F07C187D03EEFAEFFB120863023AB5
:103DEC00FD1208338A088B09EA45092274F212176E
:103DFC00C98A088B09ECFEEDFF740E1217BD123444
:103E0C0095900A74E0F4603D7A097B0012107FEA09
:103E1C004B60328A828B8374B1F0A3E4123907A30E
:103E2C00123905A3E508F0A3E509123E54EEF0A300
:103E3C00EF123E54A3A3E50AF0A3E50BF0900A742D
:103E4C00E0F912108B023AFDF08A828B83A3A3A3B4
:103E5C00A3A32274F41217C9E9FF7E008A088B0908
:103E6C007808121A2000040D0540923EAF3EC83E61
:103E7C00DF3EFC3E133F343F4B3F5E3F873FA13F4D
:103E8C00B13FC73FE13F74016F60030240018C8278
:103E9C008D83E0F8C394034003024001E8900B606B
:103EAC00023FDE74026F60030240018C828D83122C
:103EBC004764900B61E8F0A3E9023FDE74016F6088
:103ECC00030240011240284003024001E8900781A0
:103EDC00023FDE74016F60030240018C828D83E02F
:103EEC00F8C394054003024001E8900782023FDECC
:103EFC0074016F600302400112402840030240012C
:103F0C00E8900783023FDE74106F60030240017576
:103F1C0008108E0978081219DC7A847B0712105B62
:103F2C00740212178802402374016F60030240016F
:103F3C001240284003024001E8900794023FDE74CF
:103F4C00016F60030240018C828D83E0900B640250
:103F5C003FDE74046F60030240018C828D8378080D
:103F6C00121642908FEF780812147450030240011D
:103F7C009007967808121651024023EF70771206BC
:103F8C00D1E9700A1211F379501213738062900800
:103F9C00297401803D74016F705B1240285056E803
:103FAC00900795802D74016F704B8C828D83E0F897
:103FBC00C3940A5040E8900B63801774016F7035FE
:103FCC008C828D83E0F874F928C3940A5027E8900A
:103FDC000B65F0804274016F701B900828E0F88C20
:103FEC00828D83E0900828F0E8702CE06401702743
:103FFC001211E780227E18801EC3EA9426EB9400EF
:10400C00501374026F700E8C828D8312475E1205F2
:10401C006FE9FE80020E0EEEF90240378C828D8322
:10402C00E0F8C3940222740E1217887F0402189BC6
:10403C0074F01217C974CC1217728C0A8D0B742081
:10404C001217BDAC82AD8375838F758238740612DE
:10405C00168574201217BDAC82AD83121199E9F547
:10406C000874441217BDE0FEE9C3940A40030241F0
:10407C00AA75F006E9A4F50974261217BDAC82AD39
:10408C00837A0E74202509F912136DE970097432C4
:10409C001217BDE0FF80027F00900B60E06402709D
:1040AC000474018001E4F50D780D1219E0EEFDEFBA
:1040BC00FCA908AA0AAB0B12121D74011217887CFA
:1040CC00147D007900740C1217BDAA82AB831210F8
:1040DC0073740C1217BDAC82AD837A10742425094D
:1040EC00F912136DE9703C7C1079FF740C1217BD3A
:1040FC00AA82AB831210D3E97029741C1217BDACC1
:10410C0082AD837A0474252509F912136D740C128F
:10411C0017BDAC82AD83EFA2E0E433F9AA0AAB0B76
:10412C001205F9851882851983AC82AD837A0C74DB
:10413C00702508F912136DE970538518828519835F
:10414C00AA82AB831211C9750800E50875F003A4A7
:10415C00F8A9F0851882851983E58228F8E5831281
:10416C004968124AF0601D88828983A3A3E0F50E8A
:10417C00750F00780E1219DCAA0AAB0B12085774D3
:10418C00021217880508E508C3940440BDEFA2E1AC
:10419C00500C900780E0F9AA0AAB0B12085D74046E
:1041AC006E7027900B60E06402701F7A0090079489
:1041BC00E060010A900781E06004780480027800D6
:1041CC00E84AF9AA0AAB0B1206B979007434121733
:1041DC00887F0802189B74F01217C9EAFEEBFF8C5B
:1041EC00088D09750A0AE9600C146009146037140B
:1041FC0060790242911211DBE9F50AC3940A40037B
:10420C00024291E5084509607C750E06750F007831
:10421C000E1219DCEEFCEFFDAA08AB0912105B7450
:10422C0002121788805F750B00750E06750F0078EB
:10423C000E1219DCEEFCEFFDE50B75F00EA4F8A9DF
:10424C00F074A228FA740739FB12106D740212175D
:10425C0088E9600C850B0AE50AC3940A502780167E
:10426C00050BE50BC3940A501C80BE1211E1E9F555
:10427C000AC3940A500FE50845096009AA08AB095E
:10428C00A90A1211D5A90A0241DD74F41217C989C1
:10429C000875091574FF6A700374FF6B70277E0034
:1042AC00AC087A027B00EEF91211B7E960037509CC
:1042BC00000EEEC3940A40E8E50860537A0B7B12BB
:1042CC00120A6D804A120A4F8A0A8B0BAE0AAF0B88
:1042DC00EE4F60387C007D00EE2405FAEF3400FBD5
:1042EC008E828F83A3A3A3A3E0F9121199E9C3943F
:1042FC000A500CAC087A027B001211B7750900E564
:10430C0008600CEEFAEFFB12120B8003750914A96E
:10431C000902403774F21217C9ECFEEDFF7508154F
:10432C00740E1217BD12475174FF6A700374FF6B41
:10433C007021750900AC0AAD0BEEFAEFFBA909125E
:10434C0011BDE960037508000509E509C3940A501D
:10435C003F80E2120A4F8A828B83E5824583602D6F
:10436C007C007D00E5822405FAE5833400FBA3A3E1
:10437C00A3A3E0F9121199E9C3940A5013AC0AAD46
:10438C000BEEFAEFFB1211BD7508008003750814D3
:10439C00A908025191C082C08390079AEAF0A3EB5E
:1043AC00F0900780E0FC7D007A257B0012056F9071
:1043BC000780E0F91207D3D083D08202013574EA6A
:1043CC001217C974EC121772EAFEEBFFEE240CF50F
:1043DC0014EF3400F515EE240AF50CEF3400F50D4E
:1043EC00EE2405F50EEF3400F50FEE2409F50AEF77
:1043FC003400F50BEE2403F508EF3400F5098E823A
:10440C008F83A3A3E024FA700302472924FD7003D1
:10441C000246441470030244AF14601024FD700370
:10442C0002461414700302467902474712476A6029
:10443C004AE0F5838882124764880C890DE8450DA3
:10444C006039851482851583E0F50E780E1219E01B
:10445C00EE240BF582EF3400F583E0F9850A8285B2
:10446C000B8312475E0A0A0AAB09850C82850D8301
:10447C001217C77401121788024747850A82850BE9
:10448C00831219F390079612166012060B7402121F
:10449C001788E970030247477901850A82850B83E7
:1044AC000246F58E828F83A3858212858313E0608A
:1044BC00030245F7850E82850F83E0A2E0400302DC
:1044CC0045F77C0E7D007900851882851983AA82B8
:1044DC00AB83121073EE2408F510EF3400F5118540
:1044EC001082F583124FA4EA4B6010750A06750B07
:1044FC0000780A1219DCEA2410801B124F9E120A53
:10450C004FEA4B7003024747750A06750B00780A91
:10451C001219DCEA2405FCEB3400FD74021217BD01
:10452C00AA82AB8312105B7402121788850E8285E7
:10453C000F83E0A2E25004D2F08002C2F0A2F0E4B9
:10454C0033F8740C1217BDE048F0850C82850D838E
:10455C00124751E50A450B6013E50A2410F582E574
:10456C000B3400F583780C121642800C750CFF7519
:10457C000DFF750EFF750FFFE50A450B7006750AEA
:10458C0000750B00851082851183E0F510A3E0F512
:10459C0011E51045117006751000751100780C129C
:1045AC0019D8780A1219DC78101219DC8514828556
:1045BC0015831219F38E828F83A3124759740A1232
:1045CC0017BDAA82AB831211CF740A121788850803
:1045DC008285098312476490082AE8F0A3E9F07AEF
:1045EC00017B00900780E0F91210AF12476A70034C
:1045FC00024747124775700302474785128285139D
:10460C0083E0FC790102471D12476A700302474799
:10461C00E0F5838882A3A3124764890BE8450B70ED
:10462C00030247478E828F83A3E0FC7902124F9ED0
:10463C008882850B830247247C007D00EE2404FADB
:10464C00EF3400FB850882850983E0F9121199E9A2
:10465C00F8C3940A4003024747AC0CAD0D7A0475BD
:10466C00F006E8A42425F9121367024747124F9E5F
:10467C00900795E06007900B63E0F9806F900B60FA
:10468C00E0700479058065120A4F8A0C8B0DA80C1A
:10469C00A90DE82404F50CE93400F50D8E828F8306
:1046AC00A3A3A3A3A3A3A3E0A2E05045E8497003EE
:1046BC00024747850C82850D83E0FE6034850A82B3
:1046CC00850B83E054107029740E1217BDAC82ADAB
:1046DC0083E82405FAE93400FBEEF9121199E9702C
:1046EC00107903850882850983124FA41206058070
:1046FC004AAC0EAD0F850C82850D83E0F9124F9EEE
:10470C0012121712476A6033124775602E7C0079BB
:10471C0000124F9E8E828F831217C7801E1206D1F5
:10472C00E97018900829E0640170081211F39008E0
:10473C0029E4F079501213731211E77414121788CC
:10474C007F0E02189BE0F50AA3E0F50B22A3A3A3AE
:10475C00A3A3E0FCA3E0FD22E0F8A3E0F92290077C
:10476C009AE0F8A3E0F9E84922E0F5838882A3A354
:10477C00E0F8A3E0F9E8FEE9FFEE4F2274F412171B
:10478C00C974F2121772EAFE8C0B75F006E9A424B8
:10479C0020F508851882851983AC82AD837A0EF9D1
:1047AC0012136DE970577C0679FF85188285198381
:1047BC00AA82AB831210D3E97043740C1217BD128A
:1047CC004764E8F509E50B6005EE42098004EEF458
:1047DC005209850982AA82E86A7001E9601B740C8F
:1047EC001217BDEAF0A3E4F0851882851983AC8218
:1047FC00AD837A0EA9081213677901800279000241
:10480C00403274F21217C974E6121772890A8A08B8
:10481C008B09ECFEEDFF740C1217BDAC82AD837AE4
:10482C000E75F006E9A42420F912136DE960030259
:10483C00492E7C0679FF740C1217BDAA82AB831229
:10484C0010D3E9600302492E7470250AF50B851804
:10485C0082851983AC82AD837A0CF912136DE960F1
:10486C000302492A851882851983AA82AB83121107
:10487C00C9E5084509702C7C0C79008518828519CE
:10488C0083AA82AB831210D3E9600302492A7C0C01
:10489C007D007900851882851983AA82AB8312105A
:1048AC0073805D851882851983AC82AD83AA08ABB1
:1048BC00091211C38A0C8B0DA80CA90DE84970289C
:1048CC00EE4F605E851882851983AC82AD837A00C9
:1048DC007B001211C3EAF8EBF9EA4B604588828938
:1048EC0083E508F0A3E509F01249A4FAEE6A700119
:1048FC00EF602BEEF04F700888828983E4F0A3F010
:10490C00851882851983AA82AB831211C9851882F6
:10491C00851983AC82AD837A0CA90B1213677901CC
:10492C0080027900741A02518E74F71217C97F0035
:10493C00EF75F003A4F8A9F0EC28F8ED124968E043
:10494C006A7003A3E06B7006E8FAE9FB800B0FEFCB
:10495C00C3940440DB7A007B00024CA739F98882AF
:10496C0089832274F71217C97E00EE75F003A4F840
:10497C00A9F0EA28F8EB124968E0F4FCA3E0F4FD96
:10498C0088828983ECF0A3EDF01249A4F4F00EEECA
:10499C00C3940440D5024CA7E82402F582E9340004
:1049AC00F583E02274F41217C974F4121772EAFE3C
:1049BC00EBFF8C088D09EE4F7005790A024ADA126A
:1049CC0011DBE9F50AC3940A4024750B007C0679C7
:1049DC00FFE50B75F00EA4FAABF0749C2AFA740781
:1049EC003BFB1210D3E97003024ADF850B0AE50A80
:1049FC00C3940A4003024AD875F006E50AA4F50BE5
:104A0C00EEFCEFFD7A0E7420250BF9121367E50806
:104A1C004509600EAC08AD097A1B7421250BF912FF
:104A2C00136774181217BD124AF0600A7A1B7422AD
:104A3C00250BF9121367741A1217BD124AF0600A8B
:104A4C007A107423250BF9121367741C1217BD12FC
:104A5C004AF0601D7A107424250BF9121367741E2A
:104A6C001217BDAC82AD837A047425250BF9121391
:104A7C00677C0C7D0079FF851882851983AA82AB2F
:104A8C0083121073851882851983AC82AD837A0CDE
:104A9C007470250AF912136775080E7509007808E9
:104AAC001219DCEEFCEFFDE50A75F00EA4F8A9F086
:104ABC00749C28FA740739FB12105B740212178865
:104ACC00900828E06003121223121211A90A740C28
:104ADC00024034050BE50BC3940A50030249D97507
:104AEC000A0A80E8E0FCA3E0FDEC4D2274F41217F6
:104AFC00C974F2121772EAFEEBFFE9C3940A500470
:104B0C00EE4F70047902803E851882851983AC8241
:104B1C00AD837A0E75F006E9A42420F912136DE921
:104B2C00F5087020750A06750B00780A1219DC74EA
:104B3C00021217BDAC82AD83EEFAEFFB12105B7460
:104B4C0002121788A90802403274F41217C9EAFE3F
:104B5C00EBFF750800750A06750B00780A1219DC54
:104B6C00EEFCEFFDE50875F00EA4F8A9F0749C2896
:104B7C00FA740739FB12106D7402121788E960047D
:104B8C00A908800B0508E508C3940A40C8790A02F5
:104B9C00403774F71217C974F0121772EAFEEBFF64
:104BAC00750800851882851983AC82AD837A1075DF
:104BBC00F006E508A42423F912136DE9702C7C107F
:104BCC0079FF851882851983AA82AB831210D3E9E9
:104BDC007018EEFCEFFD851882851983AA82AB83D1
:104BEC001205DBE97004A908800B0508E508C394DD
:104BFC000A40B0790A7410121788024CA774F71285
:104C0C0017C9750800E50875F00EA4F8A9F0749C96
:104C1C0028FE740739FFEEFCEFFD7A0E75F006E501
:104C2C0008A42420F912136DE9602C7C067D007910
:104C3C00FFEEFAEFFB1210737C067D0079FFEE2479
:104C4C0006FAEF3400FB121073EE240CF582EF34ED
:104C5C0000F583E4F0A3F00508E508C3940A40A529
:104C6C00900828E06003121223121211802D74F7A1
:104C7C001217C97E007F007C0679FFEF75F00EA439
:104C8C00FAABF0749C2AFA74073BFB1210D3E97050
:104C9C00010E0FEFC3940A40DEEEF97F0102189B60
:104CAC0074F71217C97E00EEF91211F90EEEC394C7
:104CBC000A5003E960F180E374F31217C974CB1244
:104CCC001772E9FF75F006A4F50874202508FE7428
:104CDC00271217BDAC82AD837A0EEEF912136DE973
:104CEC006003024DE17C0679FF74271217BDAA827E
:104CFC00AB831210D3E96003024DE17C0E7D007989
:104D0C00FF74271217BDAA82AB831210737C1B7D14
:104D1C000079FF740C1217BDAA82AB831210737C3E
:104D2C000C7D0079FF851882851983AA82AB8312CA
:104D3C00107374271217BDAC82AD837A0EEEF91284
:104D4C001367E9F509740C1217BDAC82AD837A1B9D
:104D5C0074212508F9121367E9FE740C1217BDAC07
:104D6C0082AD837A1B74222508F9121367E9F50AC0
:104D7C00740C1217BDAC82AD837A1074232508F91C
:104D8C00121367E9F50B740C1217BDAC82AD837A64
:104D9C001074242508F9121367E9F50C740C12171A
:104DAC00BDAC82AD837A0474252508F9121367E92A
:104DBC00F508851882851983AC82AD837A0C7470E2
:104DCC002FF9121367E9F8EE450A450B450C450817
:104DDC004842098003750900A90974351217887FA8
:104DEC000502189B74F71217C9E9900780F012118D
:104DFC00E7024CA774F21217C974FB1217728A08D7
:104E0C008B09EB54807003024E98900780E0F912E6
:104E1C0010978A0A8B0BAE0AAF0BEE4F60648E8232
:104E2C008F83E02450603814600624E1604A804B84
:104E3C00A3A3A3A3E070448E828F83A3A3A3A3A3F5
:104E4C00A3A31219F38E828F831247598E828F83FC
:104E5C00A3A3124FA41211A57402121788801CA3CD
:104E6C00A3A3A3E0641E701379008E828F83A3A387
:104E7C00124FA412119F80031211B1EEFAEFFB1224
:104E8C001085AA08E5096480FB024F99EAA2E0406C
:104E9C0003024F9590082A12475174031217BD85CF
:104EAC00820C85830D780C1219DC750C02750D00C3
:104EBC00780C1219DC750C2A750D8F780C1219DC14
:104ECC007CFF7DFF7A017B0012072B74061217887A
:104EDC00024F7DE4F50CF50D780C1219DC740412FC
:104EEC0017BD85820C85830D780C1219DC740412A5
:104EFC0017BD85820C85830D780C1219DC74091290
:104F0C0017BD1219F37902EEFCEFFDAA0AAB0B12D6
:104F1C00084B7408121788E9703585188285198337
:104F2C00E0FA74011217BDE0F9EA2400F50CE4393B
:104F3C00F50DEA450D6018780C1219DC8E828F8302
:104F4C0012475AAA0AAB0B1211A57402121788E465
:104F5C00F50CF50D780C1219DC74051217BD12192D
:104F6C00F37CFF7DFFEEFAEFFB1207377404121788
:104F7C00888A0C8B0DAE0CAF0DEE4F6003024EDF2A
:104F8C00E5086401FAAB0980047A007B0074050221
:104F9C00518E850882850983E0FAA3E0FB22C0824A
:104FAC00C083900780E0F98A828B83A3124FA412EE
:104FBC00085D0243C3C082C08374FF1217721211C2
:104FCC00EDE9C3940285188285198340047402802C
:104FDC0002740AF0AC82AD837A0179051206E97489
:104FEC00011217880243C374F21217C974E812171E
:104FFC0072EAFEEBFF890A8C088D097C187D00791A
:10500C0000851882851983AA82AB831210738518C8
:10501C0082851983EEF0A3EFF0900782E0C0E07474
:10502C00021217BDD0E0F0900783E0C0E0740312C9
:10503C0017BDD0E0F0900B65E0C0E074171217BDFF
:10504C00D0E0F074151217BDE054FEF8A3E0F9900F
:10505C000B64E0A2E0E433FAE84AF874151217BDC9
:10506C0012519DA2E15004D2F08002C2F0E854FD2E
:10507C00FAA2F0E43333F8EA48F874151217BD12AB
:10508C00519DA2E35004D2F08002C2F0E854F7FA2A
:10509C00A2F0E433F50C750D007403780C12175F55
:1050AC001251961217BD12519DA2E45004D2F080F9
:1050BC0002C2F0E854EFFAA2F0E433F50C74047871
:1050CC000C12175F1251961217BD12519DA2E5508A
:1050DC0004D2F08002C2F0E854DFFAA2F0E433F517
:1050EC000C7405780C12175F1251961217BD1251E1
:1050FC009DA2E25004D2F08002C2F0E854FBFAA266
:10510C00F0E433F50C7402780C12175F12519612FE
:10511C0017BDE8F0A3E9F0900783E0601D750C1053
:10512C00780C1219DC7C847D0774061217BDAA82D8
:10513C00AB8312105B7402121788900794E0601115
:10514C00E50A600974151217BDE04402F07801807D
:10515C0002780074141217BDE048F0900781E060EB
:10516C000478048002780074141217BDE048F0AC87
:10517C0008AD09851882851983AA82AB831205FFB5
:10518C0074181217887F0602189BEA450CF87415E0
:10519C0022E8F0A3E9F0900B64E02274F31217C933
:1051AC0074E5121772EAFEEBFF8C098D0A74281253
:1051BC0017BDE0F50C75F006E9A4F87408650A70E3
:1051CC000474228002742128F50B7C1B7D0079006D
:1051DC00851882851983AA82AB8312107385188275
:1051EC00851983AC82AD837A1BA90B12136DE97000
:1051FC0032741A1217BDE024F9C3940A5025E50C39
:10520C00F50B780B1219E074011217BDAC82AD834B
:10521C00E509A2E0E433F9EEFAEFFB120611740192
:10522C00121788741B024DE874F71217C91208CFB5
:10523C00750800E50875F00EA4F8A9F0749C28FE1A
:10524C00740739FF7C0679FFEEFAEFFB1210D3E9F5
:10525C007009EEFAEFFB79001208D50508E508C3D2
:10526C00940A40CF024CA7C082C083906190740412
:10527C00F0A37448F0A3E4F09061807440F0906166
:10528C00BC7407F09061877469F09061B67416F085
:10529C007900120B457902120B4B90247CE493F4A9
:1052AC006006E493F9120B217905120E3F0256B5F4
:1052BC00C082C083E9540FF9906185E0696012E502
:1052CC00C654804449F5C6E59E547F644970F8E99C
:1052DC00F053C680E59E547F70FA0256B574F712EF
:1052EC0017C9E5A8FE53A87E120B2DC2BA539AFE1D
:1052FC00C289759B00C2C2120B3375A91175B90511
:10530C00120B39D2BA439A0174805E42A8025C42F5
:10531C00C082C083906181E4F0A30256B275E900AB
:10532C0075910075BF00020135C082C08390618108
:10533C00E4F0A374C0F0A3E40256B4C082C083743A
:10534C00F81217729003C4125B24E84970030253DD
:10535C00FE9003C4E05440602379088518828519B7
:10536C0083AA82AB83120C3B851882851983AA828F
:10537C00AB831208ED9003C4E054BFF0E05480609E
:10538C0010790C7A807B05120C3B9003C4E0547F9F
:10539C00F0E0A2E05008790012540654FEF0E054FC
:1053AC00026008790112540654FDF0E054046008C0
:1053BC00790012541154FBF0E05408600879011282
:1053CC00541154F7F0E0541060087902125411543F
:1053DC00EFF0E054206008790312541154DFF0A36D
:1053EC00E05401600D120B571208FF9003C5E054F6
:1053FC00FEF074081217880256B5120B451208F30A
:10540C009003C4E022120B4B1208F99003C4E02263
:10541C00C082C083E9600514602A804F90619A7441
:10542C0033F0A37455F09061A0743AF090055CE0F1
:10543C0064017009C2919003C67467802D9003C6F5
:10544C007461802690619A743FF0A3745AF0906155
:10545C00A0747FF090055CE064017009D291900318
:10546C00C6747180059003C6746AF00256B5C0828A
:10547C00C083E9600B14600D14600F146011802060
:10548C0090248080159024818010902482800B9031
:10549C00055CE0640160F3902483E493906186F0F2
:1054AC000256B574EE1217C974F41217728518826D
:1054BC00851983AC82AD8375838F758297740412C2
:1054CC00168590248093F46003025641907808E08E
:1054DC00C39402500302562174041217BDAC82AD62
:1054EC008375838F7582227408121685F97AFF7B77
:1054FC00FF7FFF7E008982858210801874086E7091
:10550C00030255D674096E70030255D6740A6E7078
:10551C00030255D6E510C333FCE433FD74041217B3
:10552C00BDE5822CF582E5833DF583E0F50EA3E025
:10553C00F50F8E087509007402780812175F74480D
:10554C002508FC74783509FD8C828D837808121639
:10555C00427408780812158385080C85090D8C8215
:10556C008D83780812164274187808121583E50C8E
:10557C004508F508E50DF509C3E50E9508E50F9509
:10558C00098C828D8378081216428C828D83780860
:10559C00121642741878084014121583E50C45084D
:1055AC00FCAD0DE50EC39CFCE50F9D800F12158321
:1055BC00E50C4508C3950EFCE50D950FFDC3EC9A63
:1055CC00ED9B5006ECFAEDFBEEFF0EEEC394135080
:1055DC000302550874FF6A700374FF6B602D8F080B
:1055EC007402780812175F74481262D07478350907
:1055FC00F5837808121642851882851983E5822571
:10560C0010F582E58312605DE508F009E9C39404A6
:10561C0050030254F975080175090078081219DC59
:10562C0074021217BDAC82AD837A207B0912125F13
:10563C007402121788740C1217887F0A02189BC008
:10564C0082C083906186E0F8902483E493687009AB
:10565C00902482E493906186F09061AE7468F0A31C
:10566C00746AF090624574FBF0A304F053F4FD43AC
:10567C00FE0290055C7401F09061A0E0643A700445
:10568C00790080027901120B450256B5C082C083A5
:10569C0090050EE06401700A900513E06004790C2B
:1056AC00800279008003F0A3F0D083D08202013510
:1056BC00C082C08375E1F1900511E0604D14600863
:1056CC001460511460498051120B69900507E0F980
:1056DC007A087B05120DC1908F8F121660120DF790
:1056EC00908FD3121660120DCD900512E0F9120DA9
:1056FC00D97901120E33900505E0241612584A741C
:10570C0081F0A3740BF07900809F120B6F80BC1298
:10571C000B7580B7120B7B80B2791280EB74F4128C
:10572C0017C975D90D9004F6E0A2E0E4331313F811
:10573C001257B6484401F5D9780012583440FB781A
:10574C0000880874F71262D0740412583E40F27547
:10575C00E1959004F6E0F97AF77B04120DC7900AF4
:10576C009674F7F0A3740A1258591258791258709B
:10577C001259B11257C07808121642908F8B7808C4
:10578C001215CE908FCB780812161C12584478083C
:10579C00121651900505E0241412584A7413F09017
:1057AC0003C27402F07F0402189B900507E0C43317
:1057BC003354C022900505E0F8A3E0F5838882A35A
:1057CC00A32274F61217C91259828AD9780012587A
:1057DC003440FB780080061258E8125A34E8C3991A
:1057EC0040F512597412583440FB7800800812624C
:1057FC00CC7405125A34E8C39940F375E195900ABC
:10580C00967403F0A3740B12585912586312166055
:10581C0012584412166C900505E0241412584A7460
:10582C0012F09003C2025C1F880874082508F582E8
:10583C007405125B90940622900505E0240EF8A3E3
:10584C00E0125851223400F9888289832212599A25
:10585C0074FDF0A3740A221258791258701259B5BB
:10586C00908FAB22F0A37415F0A3740B2212587D09
:10587C002212588122F0A374A7F0A3740C2274F6A0
:10588C001217C91258DD1257B64402F5D978001216
:10589C00583440FB780080061258E8125A34E8C39A
:1058AC009940F575E195900A961258F3F0A31258A9
:1058BC00F312586612166012584412166C900505B5
:1058CC00E0241412584A7414F09003C27404025C5D
:1058DC0021900517E0F9740729F5D9228808741866
:1058EC002508F582740522740F125900125900F024
:1058FC00A3740B22F0A3740BF0A3740F2274F61292
:10590C0017C912598274064AF5D9780012583440D6
:10591C00FB780080061258E8125A34E8C39940F517
:10592C0012597412583440FB780080081262CC74FF
:10593C0005125A34E8C39940F375E195900A9674B0
:10594C0009F0A3740B125990125863121660125876
:10595C004412166C900505E0241412584A7415F084
:10596C009003C27403025C219005371258E0740452
:10597C004AF5D97800221258DD900507E0C433337C
:10598C0054C0FA2212599A74A7F0A3740C2212591B
:10599C009E221259AB74A7F0A3740C1259AB2212AD
:1059AC005881F0A3221259B522F0900AA474A7F0E2
:1059BC00A3740C12599E74A7F0A3740C12587DF0AA
:1059CC0022C082C0831257C0A3A3A3A3E40256B281
:1059DC0074F71217C9126512F8740339F9E8240523
:1059EC00FAE93400FB8A828B831262818882898374
:1059FC00A3A3A3A3A3A3A3A3A3ECF0A3EDF088827A
:105A0C008983A3A3A3A3A3A3A3E024FFF8A3E03457
:105A1C00FFF98A828B83E8F0A3E9F0025C428808E4
:105A2C0074602508F58274051261A8F5D90822EA7C
:105A3C00FEEBFF9061D0E0F87480C398FAEE2483FB
:105A4C0022125A5394042212606BE0F5D90AEAC36D
:105A5C002274F61217C9EAFEEBFF9061D0E0707564
:105A6C0075D90E75D90375D9047A008A08EE250804
:105A7C001265E0248C125AF640F17A008A08EE2561
:105A8C00081265E02484125A4D40F175E1957908AD
:105A9C00EE248C125AEF2484125AE67C008C82AAD3
:105AAC0082C3E49AF895E0F9EE28F8EF39F9E82486
:105ABC008BF582E91261A4C0E0EE2A1265E024ABFA
:105ACC00F582E912605DD0E0F00CECC3940840CD97
:105ADC00125BAC80027900025C22FAEF3400FB12FC
:105AEC000C2F22125AE67904EE22125A53940822F1
:105AFC00C082C08375D90275D90375D90575E19536
:105B0C00EA2470F582EB125B21EA2472F582EB1227
:105B1C005BBE0256B512606E125B2822E0F8A3E061
:105B2C00F92274F61217C9EAFEEBFF9005607406B1
