:020000040000FA
:0600000002011D021C02BA
:03002B000222C8E6
:03003B000222ECB2
:0300430002226C2A
:03005300021C7814
:03006B0002235E0F
:10008300021AF3E5C754F84401F5C77901220000C9
:100093000080FB120086B90003020107E47921788E
:1000A30008B800028004F709D8FCE479297802B87B
:1000B30000028004F709D8FCE4900281788D790B63
:1000C3008002F0A3D8FCD9FA781A90014D7A01BACC
:1000D30000028007E493A3F608DAF9900D0DAA82D3
:1000E300AB8390014E787379038015E493A3AC82BC
:1000F300AD838A828B83F0A3AA82AB838C828D83A8
:10010300D8E9D9E77582077583A4740312012F75A3
:100113008291758300740012012F75D00075813FA1
:10012300751881751902759F00020096C09FF59F8F
:10013300E473D09F22D083D082C09FE493C0E07445
:100143000193C0E0740293F59F2201FF0000B40005
:100153000028002800283075A000A000A000A000FF
:1001630000080008E001F00010001000100010006B
:100173001000100050005000500010001000D00775
:100183000000000000000F000100050030750700AB
:100193001000010081FF0000FFB805D605BE05FF72
:1001A30002020208025000A0000000E803020A90C5
:1001B300010000F68F022A90010000620D021490E4
:1001C300010000B202022A90010000630D021690A2
:1001D300010000C802022A90010000640D02189079
:1001E300010000CA02022A90010000650D021A9064
:1001F300080000CB02022A90010000660D021C9049
:10020300010000670DFF0100FF20020A90010000BA
:10021300F38F022A90010000CB0D021E9000000014
:1002230000000212900300001803D60BD60BD60B66
:10023300D60BD60BD60BD60BD60BD60BD60BD60BB3
:10024300D60BD60BAC0EC40EA60EFFFF02020202A3
:100253000202020202010D0000001001020A9001D5
:100263000000F08F022A900100000E0E020490019C
:1002730000007807022A900100000F0E020290018D
:100283000000318F022A90010000100E020090013D
:100293000000078F022A90010000110E02FE8F0159
:1002A3000000818E022A90010000120E022C9001A0
:1002B3000000938E022A90010000130E02FC8F01AE
:1002C3000000B78E022A90010000140E024E8F0127
:1002D3000000A58E022A90010000150E020E900167
:1002E3000000238F022A90010000160E02229001C3
:1002F3000000170E01E803053F10FF0001307503EE
:1003030002010600000000000000000000000000E1
:10031300000000000000000000000000000000FFDB
:10032300FF0600800CE8030100080952795A656E44
:100333005438051214001400020A000201050302D6
:10034300E7FE09FF0D0000000000000052795A6526
:100353006E5438481200004E12084368617261639C
:100363007465726973746963203100204368617234
:1003730061637465726973746963203200020A9061
:10038300010000F98F022A900100001B0F02269042
:10039300020000D20C0210900100001C0F022A90F0
:1003A3000100002D0F022890000000040D0212909E
:1003B300030000050D0210900100002E0F120138FA
:1003C300659B031201387C9B03120138AB9B03121C
:1003D3000138E49B031201380C9C031201383A9C48
:1003E30003120138519C03120138689C031201382F
:1003F3007E9C03120138A59C03120138B89C03129A
:100403000138CE9C03120138F69C0312013886A4EE
:100413000212013885A502120138BAA50212013869
:10042300DBA502120138EBA5021201380CA6021259
:10043300013818A702120138E5A70212013858A89B
:1004430002120138DEA80212013821A90212013872
:1004530058A902120138DEA902120138B0AA021209
:1004630001380EAB0212013826AB02120138A0ABE1
:1004730002120138A3AB02120138A6AB02120138F3
:100483004DAC0212013865AC0212013895AC021270
:100493000138B5AC02120138A3AD0212013859AECE
:1004A3000212013899E902120138C1E90212013836
:1004B300EFE90212013826EA021201388EEA02122B
:1004C3000138D7EA0212013822EB0212013860EB3D
:1004D300021201389DEB02120138CBEB02120138F4
:1004E30072EC021201387CEC0212013889EC021220
:1004F3000138BCEC021201387EED021201388AED9C
:1005030002120138A2ED02120138ACED02120138D9
:10051300127F00120138207F00120138387F001249
:100523000138507F00120138F0CE011201388ECF0E
:100533000112013806D0011201381BD10112013812
:1005430055D101120138FED101120138D3D2011263
:10055300013837D4011201388ED40112013815D570
:1005630001120138FCD50112013849D601120138B4
:10057300D7D601120138FBD601120138D0D80112A7
:10058300013811D90112013833D901120138B4D914
:10059300011201389EDA0112013864DB01120138BD
:1005A300D6C902120138A8CA0212013851CB02126D
:1005B300013894CB0212013821CC02120138ADCCA0
:1005C300021201388ECD02120138BDCD021201385C
:1005D300B9CE0212013801CF0212013803D0021240
:1005E300013847D0021201386DD0021201388AA2B5
:1005F30003120138008003120138168003120138F8
:100603003C80031201386481031201386E810312A6
:100613000138C78203120138C78303120138E2D0BD
:100623000212013817D2021201384AD202120138DB
:1006330094D20212013852D402120138E0BF0112DF
:10064300013843C00112013888C10112013898C131
:1006530001120138BBC10112013806C2011201386F
:10066300ABC201120138A1C3011201386BC40112DC
:100673000138E3C50112013825C601120138C3C68A
:1006830001120138E9C601120138D7C80112013835
:10069300DCC801120138BDCA0112013811CB0112A5
:1006A300013873CB011201389BCB011201383FCCC7
:1006B3000112013801CD0112013832CD0112013886
:1006C30035CD011201387DCD01120138BFCD0112A4
:1006D300013826CE01120138B29003120138C590B9
:1006E30003120138DE9003120138299103120138F5
:1006F300049203120138939203120138DE9203121B
:100703000138D02300120138DC23001201381524EC
:10071300001201385A240012013811250012013841
:10072300972500120138C32500120138FC25001259
:100733000138102800120138EC2900120138D72B98
:10074300001201380E2D001201386E2F00120138ED
:100753005A3000120138A03100120138AD320012B4
:100763000138CA32001201380233001201381C3337
:10077300001201388433001201381E380012013888
:10078300BF3800120138103900120138373900120E
:100793000138853900120138A33900120138F739BD
:1007A30000120138FF3A00120138873B001201386A
:1007B30001E0021201380BE002120138D6E0021206
:1007C3000138F1E00212013817E1021201385BE14E
:1007D3000212013893E102120138BCE1021201381E
:1007E30035E2021201384AE2021201385FE20212D4
:1007F300013896E202120138AAE202120138DBE262
:100803000212013815E30212013841E302120138E2
:1008130079E30212013817E40212013860E402128C
:1008230001388AE402120138AFE402120138C3F638
:10083300021201388DF70212013870F802120138E2
:10084300E6F80212013828F90212013855FA0212A9
:100853000138E68C021201380F8D02120138288DFF
:10086300021201386D8E021201384B8F02120138C9
:100873006A8F02120138F78F021201383A9002127E
:100883000138879102120138269202120138A59489
:10089300021201383C9502120138109602120138F7
:1008A300F296021201385E9802120138F198021290
:1008B3000138479E03120138B09E03120138049F8A
:1008C300031201382B9F0312013841EE0212013843
:1008D300AEEE02120138F9EE02120138EEEF021207
:1008E3000138EAF002120138D4F10212013868C16A
:1008F30002120138AAC10212013884C2021201385D
:100903005DC30212013858C40212013837C50212FE
:100913000138A3C5021201386AC602120138D5C6CE
:10092300021201383CC70212013867C702120138AC
:10093300D8C7021201386BC802120138D4C8021298
:100943000138E9C80212013831C9021201384AC913
:1009530002120138AFC902120138B2C902120138BA
:10096300B88D03120138E08D031201381E8E031275
:100973000138DC8E03120138478F03120138638F6D
:10098300031201388B8F03120138BB8F0312013816
:10099300CA8F031201384490031201386A9003127C
:1009A300013895A00112013832A20112013818A4AE
:1009B30001120138E2A40112013829A501120138FC
:1009C30070A50112013882A501120138C2A50112D6
:1009D3000138F1A5011201383DA60112013875A6AF
:1009E30001120138A3A601120138F4A6011201383D
:1009F30083A70112013871AA011201384BAC01120D
:100A0300013887AC01120138E1AD0112013828AE7B
:100A1300011201389DAE01120138EBAE011201380B
:100A230011AF0112013865B80212013882B80212FF
:100A330001381CBE021201381EBF0212013898C0D1
:100A43000212013846C102120138DD510012013889
:100A530026520012013853520012013886520012F6
:100A630001389352001201389F5200120138B152DB
:100A730000120138865300120138E4530012013882
:100A8300195400120138B5550012013802560012EC
:100A93000138265600120138935600120138385790
:100AA30000120138F457001201387358001201384C
:100AB300375900120138465900120138C75900123C
:100AC3000138665A00120138985A00120138335B14
:100AD30000120138915B00120138CB5B0012013820
:100AE3004C5C00120138155D00120138BE5D001226
:100AF3000138455E001201389D5E00120138FE5E2A
:100B030000120138275F00120138DD5F001201383F
:100B13002761001201386A610012013887610012EF
:100B23000138A66100120138F16100120138166222
:100B3300001201383F6200120138AE620012013820
:100B4300F06200120138F463001201388E6400125F
:100B530001385A6500120138736500120138C4AEBA
:100B63000212013817AF0212013823AF0212013803
:100B7300F8AF021201381FB0021201385AB0021244
:100B83000138C6B002120138FAB00212013833B18B
:100B9300021201384BB102120138A4B1021201381A
:100BA300BDB10212013806B20212013819B20212A3
:100BB300013833B20212013849B20212013865B367
:100BC3000212013876B402120138C3B50212013899
:100BD300A8B602120138E97F001201380080021220
:100BE30001383480021201389F8302120138E984EC
:100BF30002120138B385021201383D87021201380F
:100C030018880212013852880212013875880212BC
:100C13000138B78802120138C088021201380A89E4
:100C230002120138148902120138C08902120138F4
:100C3300948A02120138E88A021201384A8B02129E
:100C430001389D8B02120138CC8B021201380B8CB8
:100C530002120138A56500120138FF6D0012013838
:100C6300056E00120138C07300120138A677001216
:100C73000138D183031201384784031201385D849C
:100C8300031201389A8403120138D2840312013803
:100C93004F85031201388A85031201380586031232
:100CA30001384186031201384A86031201385686F9
:100CB3000312013870860312013895860312013836
:100CC300AB8603120138D486031201383787031227
:100CD3000138D7E402120138EAE40212013804E5CC
:100CE300021201382DE50212013870E502120138B3
:100CF300AFE502120138EDE50212013852E60212A5
:100D0300013867E60212013872E6021201387FE603
:100D13000212013896E602120138A4E602120138E3
:100D2300AFE602120138BBE602120138CEE6021228
:100D33000138D9E602120138FCE602120138A5E7B0
:100D430002120138B5E702120138CFE70212013867
:100D5300ECE70212013808E8021201382DE802120A
:100D6300013837E8021201384BE8021201386AE809
:100D730002120138CBE802120138D1E8021201381D
:100D8300D7E802120138DDE802120138E9E802125D
:100D930001381CE9021201381CEC011201389EECE7
:100DA3000112013847ED011201388FEE01120138AB
:100DB3009DF00112013883F101120138B8F10112DB
:100DC3000138DAF10112013883F20112013853F4C8
:100DD300011201387CF401120138F4F401120138D4
:100DE30026F50112013833F5011201387EF501129F
:100DF3000138A2F501120138F3F701120138FDF8A9
:100E03000112013859F90112013899DD0112013833
:100E1300AADE011201388EDF0112013898DF0112B8
:100E23000138BADF01120138C6DF011201386AE165
:100E33000112013897E101120138ADE201120138C4
:100E430002E30112013851E40112013826E50112CF
:100E5300013882E501120138EDE50112013822E67D
:100E63000112013865E6011201382FE90112013838
:100E730047E901120138D8E901120138E6E9011204
:100E8300013833EA0112013841EA01120138ADEAAF
:100E93000112013828EB011201387FEB01120138EE
:100EA3006899021201388A99021201389B9B021237
:100EB30001385A9E02120138849F0212013842A05F
:100EC300021201382EA102120138AC990312013823
:100ED300D19903120138479A03120138F5770012AA
:100EE3000138FE7700120138077800120138DF78E5
:100EF30000120138907A00120138C07A00120138CA
:100F0300EB7A001201381B7B00120138467B00127A
:100F130001387A7B00120138A67B00120138E97B85
:100F230000120138147C001201385B7C0012013876
:100F3300B07C00120138F27C001201384C7D0012A3
:100F43000138777D00120138C67D00120138F67D25
:100F530000120138217E001201384F7E0012013841
:100F6300727E0012013813A3031201383FA3031248
:100F730001386CA30312013876A30312013886A348
:100F830003120138A6F901120138B0F90112013830
:100F9300F2F9011201383DFA0112013894FA0112F3
:100FA3000138EEFA011201380FFB0112013819FB67
:100FB300011201386CFB011201389AFB011201384E
:100FC300A4FB01120138BAFC01120138EBFD011236
:100FD30001382CFE0112013873FE0112013885FE1F
:100FE30001120138A4FE01120138ADFE01120138CD
:100FF30069FF01120138089D031201388397031218
:101003000138B997031201382798031201387299EE
:1010130003120138F2A10312013808A203120138A6
:1010230012A2031201385CA20312013893FF0112CA
:1010330001381CDB0212013831DB0212013819DCE2
:101043000212013854DC02120138A1DC0212013809
:1010530000DD021201386ADD0212013892DF02124A
:10106300013862A0031201388BA003120138BFA01C
:1010730003120138928A03120138B78A0312013826
:10108300E18A031201385FA403120138EE3B001218
:101093000138003E00120138374000120138AC41DC
:1010A300001201380F43001201383843001201388F
:1010B300564700120138554900120138574B0012A8
:1010C3000138424C001201386E4D001201387E4D3A
:1010D30000120138074E00120138A24E00120138E7
:1010E300BB4E0012013883500012013815A50312BC
:1010F30001382EA1031201383EA1031201384AA17F
:1011030003120138E5A1031201385C9F0312013871
:10111300E39F0312013849A003120138C5230012CB
:101123000138FFA4031201380FA50312013812A5D9
:1011330003120138F87F0012013857950312013862
:1011430080970312013896F20212013826F3021235
:101153000138B4F3021201384FF4021201381EF5BC
:1011630002120138F0F502120138F9F502120138C2
:101173007BF6021201388EF602120138A4F602122F
:101183000138ADF602120138C0F60212013890A3FD
:101193000312013894FE02120138EBFE02120138E9
:1011A30069FF0212013808930312013832930312C4
:1011B3000138099403120138E1940312013864B031
:1011C3000112013886B401120138FBB7011201384C
:1011D3000EB901120138C3BB01120138DABB011287
:1011E300013817BE01120138F1BE011201382F90E8
:1011F30001120138CB94011201384A9601120138C9
:10120300A19601120138C3960112013841970112C8
:101213000138EB9901120138F79A01120138F89E4F
:1012230001120138B7FA02120138E0FA021201384A
:1012330044FB0212013898FB0212013808D602124D
:1012430001381DD802120138F8D802120138E6DA43
:1012530002120138678703120138AC870312013881
:10126300CE8703120138058803120138B4880312AC
:1012730001385B8A03120138B5A403120138E1A4D3
:1012830003E066701008A3E066700A08A3E06670C6
:101293000408A3E06622C3E7960809E7960809E76E
:1012A300960809E79622C3E09608A3E09608A3E010
:1012B3009608A3E09622C008C3E096F50808A3E0C9
:1012C30096420808A3E096420808A3E096450870F2
:1012D30001D3D00822080808EAC0E0EBC0E086F09A
:1012E300E7A4FA180986F0E7A42AFA180986F0E7B2
:1012F300A42AFA180986F0E7A42AFA1986F0E7A4C3
:10130300FBE5F02AFA190886F0E7A42BFBE5F03A8F
:10131300FA190886F0E7A42BFBE5F03AFA18180946
:1013230086F0E7A4C5F02BFBE43AFA1908E7C5F009
:10133300C6A426F6E5F03BFBE43AFA1886F0E7A4E8
:10134300F6E5F00826F6E43B08F6E43A08F6D0E0C2
:10135300FBD0E0FA22E4CFC0E0E4CEC0E0E4CDC0AD
:10136300E0E4CCC0E075F020C3E633F608E633F6DC
:1013730008E633F608E633F6181818EC33FCED33B9
:10138300FDEE33FEEF33FFC3EC9709ED9709EE97BC
:1013930009EF97191919400FFFEC97FC09ED97FD19
:1013A30009EE97FE191906D5F0BEECF709EDF7091A
:1013B300EEF709EFF7191919D0E0FCD0E0FDD0E002
:1013C300FED0E0FF226016080808C6C313C618C67D
:1013D30013C618C613C618C613C6D5E0EA22700989
:1013E300080808226016181818C6C333C608C6337F
:1013F300C608C633C608C633C6D5E0EA22E627F6D2
:101403000809E637F60809E637F60809E637F6224B
:10141300E026F608A3E036F608A3E036F608A3E0D4
:1014230036F622E026F008A3E036F008A3E036F013
:1014330008A3E036F022C3E697F60809E697F60814
:1014430009E697F60809E697F622C3E096F008A3A3
:10145300E096F008A3E096F008A3E096F022E056A9
:10146300F608A3E056F608A3E056F608A3E056F6FE
:1014730022E056F008A3E056F008A3E056F008A3D4
:10148300E056F022E0F608A3E0F608A3E0F608A38E
:10149300E0F622E6F008A3E6F008A3E6F008A3E6E8
:1014A300F022E0FAA3E0FBA3E0FCA3E0FD22EAF0D4
:1014B300A3EBF0A3ECF0A3EDF022CAC0E0E6F0A3A7
:1014C30008DAFAD0E0FA22CAC0E0E0A3C582CCC5AC
:1014D30082C583CDC583F0A3C582CCC582C583CD28
:1014E300C583DAE6D0E0CA22C3E498F8E499F91296
:1014F300152C8026C3E49AFAE49BFBE920E7E91262
:10150300152CE498F8E499F922C3E498F8E499F9DE
:1015130012152CE498F8E499F9C3E49AFAE49BFBD6
:1015230022EB20E7CFE920E7E0B90010BB0008E891
:101533008AF084F8AAF022E4FBC8FA22EB70227B3B
:1015430010C833C8C933C9335007C39AC3DBF28009
:10155300069A50012ADBEAC833F4C8C933F4C9FA3E
:101563002275F008E4C833C8C933C933C99AC99B83
:101573005004C92AC93BD5F0ECFBC833F4C8E4C90D
:10158300FA22600D08C6A2E713C618C613C6D5E033
:10159300F322600C08C6C313C618C613C6D5E0F4FD
:1015A30022700422600D18C6C333C608C633C6D5DD
:1015B300E0F41822251810AF08F518400215198019
:1015C30008F51840021519D2AF22C0D0251810AF64
:1015D30008F518500205198008F51850020519D2AC
:1015E300AFD0D0222518F58210AF08F518400215A8
:1015F300198008F51840021519D2AF8519832225E1
:1016030018F582E43519F58322E4732518C582C0E1
:10161300E0E51934FFC583C0E0E518C3958224F8DB
:1016230010AF088583198582188008858319858200
:1016330018D2AFCEF0A3E520F0A37808E608F0A314
:10164300DEFAEFF0A3E58124FAF8E608F0A3E60852
:10165300F0A3E608F0A30808E608F0A3E608F0A361
:1016630015811581D0E0FED0E0F815811581158133
:10167300E8C0E0EEC0E0222518C582C0E0E51934D9
:10168300FFC583C0E0E518C3958224F910AF088530
:1016930083198582188008858319858218D2AFCE75
:1016A300F0A3E520F0A37808E608F0A3DEFAEFF054
:1016B300A3E58124FBF8E608F0A3E608F0A30808F5
:1016C300E608F0A3E608F0A315811581D0E0FED06B
:1016D300E0F815811581E8C0E0EEC0E022851983AA
:1016E300851882E0A3FEE0A3F5207808E0A3F608BE
:1016F300DFFAE0A3FFE0A3C0E0E0A3C0E0E0A3C003
:10170300E0E0A3C0E0E0A3C0E010AF088582188545
:1017130083198008858218858319D2AFD083D0823C
:10172300020135851983851882E0A3FEE0A3F52025
:101733007808E0A3F608DFFAE0A3FFE0A3C0E0E047
:10174300A3C0E0E0A3C0E0E0A3C0E010AF0885823F
:10175300188583198008858218858319D2AFD083B1
:10176300D08222C0D02518C582C0E0E51934FFC558
:1017730083C0E0E518C3958224F310AF088583196D
:101783008582188008858319858218D2AFC8F0A393
:10179300E9F0A3EAF0A3EBF0A37908E709F0A3D8F3
:1017A300FAECF0A3EDF0A3EEF0A3EFF0A3D0E0F09A
:1017B300A3D0E0F0A3D0E0F0A3E520F0A3E5F0F0A0
:1017C300A322851983851882E0C0E0A3E0F9A3E092
:1017D300FAA3E0FBA37808E0F608A3DFFAE0FCA392
:1017E300E0FDA3E0FEA3E0FFA3E0C0E0A3E0C0E0D0
:1017F300A3E0F5D0A3E0F520A3E0A3F5F010AF0834
:101803008583198582188008858319858218D2AF4C
:10181300D082D083D0E0F8D0E03274048006740222
:1018230080027401C0E0F4041215E7D0E01214BD85
:10183300227404800474028000CCC0E0EDC0E0E5B3
:1018430018C39CCCAD1950011D10AF068C188D190F
:1018530080068C188D19D2AF1214CAD0E0FDD0E0E7
:10186300FC22D083D082E9C0E0E493A3C386F0C511
:10187300F095F0F908E493A386F0C5F095F0700BAA
:10188300E493A3C3994005E9048002A3E475F0023D
:10189300A42582F582E5F03583F583D0E0F9E4935E
:1018A300A3C0E0E493C0E022D083D082ECC0E0ED9B
:1018B300C0E0E493A3FCE493A3FDED4C600D121888
:1018C300F7EC24FFFCED34FFFD80EFE493A3FCE48D
:1018D30093A3FDED4C600D121936EC24FFFCED349F
:1018E300FFFD80EFD0E0FDD0E0FCE493A3C0E0E493
:1018F30093C0E022C0E0C3E4939608740193961862
:10190300400FE493667008087401936618700070C2
:1019130019A3A3C3E49396087401939618A3A34051
:101923000DD0E0D0E0D0E00218E7A3A3A3A3A3A3C4
:10193300D0E022C0E0C0F088F0E493667008087439
:10194300019366187000A8F0A3A3700BD0F0D0E049
:0E195300D0E0D0E00218E7A3A3D0F0D0E0224D
:1019640074F512167AEAFEEBFFEE2434F8EF340035
:10197400F988088909EE2435121A9CF8EE243712E6
:101984001A9CF50AEC850AF0A4FCAAF0850AF0ED8D
:10199400A42AFDE82CF8E43DF97A257B0012152CE5
:1019A400EA850882850983F05407F87401B80002B7
:1019B4008004C333D8FCC0E0E0131313541FF8EEC3
:1019C40028F8EF3400F9E8245DF582E93400F58362
:1019D400D0E0F8E0586008850882850983801DEE10
:1019E4002436121A9CF5F0EA84A8F0EE28F8EF34B5
:1019F40000F9E82438F582E93400F583E0F97F043E
:101A040002172674F512167AEAFEEBFFEE2434125E
:101A14001A9CC0E0EE2435F582EF3400F583D0E063
:101A2400F08E828F83A3A3A3A3A3E0FAA3E0FB8E8B
:101A3400828F83A3A3A3A3A3A3A3E0FCA3E0FDEC51
:101A4400C39AF50AED9BF50BEE2480F508EF3400FC
:101A5400F509850882F583E06401702BEE2481F595
:101A640082EF3400F583121838121AA57402121585
:101A7400CDE960137CFD7D04EEFAEFFB120B0485C7
:101A84000882850983E4F0AC0AAD0BEEFAEFFB1291
:101A9400196412225E021A02F582EF3400F583E023
:101AA40022C082C083851882851983E0F8A3E0F9F7
:101AB400C3EA9CEB9D5012C3EC98ED994019C3EA1C
:101AC40098EB99501279018010C3EA98EB9940F58C
:101AD400C3EC98ED9950EE7900D083D08222EAC30A
:101AE4009CFAEB9DFB2200008521878522C622C03B
:101AF400E074EF121766759B00906182E0A2E640E5
:101B040003021BB4E591A2E64003021BB47591BF26
:101B14009003C2E064057008120CA2120CAE80039C
:101B2400120CA8752100120D1AE99003C3F0790074
:101B3400120D0E120A6E7A017B009003C1E0F912B5
:101B44000FCC907803E064426003021BFD90055FB4
:101B5400E014F06003021BFDC2AF121B6100782A7F
:101B6400D0E0F618D0E0F6E59F5407F97005908FA1
:101B7400748003908F787808121487E9C4C0E078E1
:101B840029E65508F50808E65509F509740B78089F
:101B9400121595D0E02508F8906270E0A2E740F8AD
:101BA400E8C333906272F0906270E0D2E0F0804952
:101BB400E0A2E55024E591A2E5501E7591DF900363
:101BC400C2E0640D70139003E4E004F06428700232
:101BD400E4F07A00E0F9120D8C906181E0A2E35008
:101BE40009E5E9A2E3500375E9F7A3E0A2E7500988
:101BF400E591A2E7500375917F7F040217C5C0E009
:101C0400C0D0C082C083906183E0A2E05009E5BFE8
:101C1400A2E0500375BFFEE0A2E15009E5BFA2E1D6
:101C2400500375BFFDE0A2E25009E5BFA2E25003F4
:101C340075BFFBE0A2E35009E5BFA2E3500375BF03
:101C4400F7E0A2E45009E5BFA2E4500375BFEFE05A
:101C5400A2E55009E5BFA2E5500375BFDFE0A2E6A7
:101C64005009E5BFA2E6500375BFBFD083D082D030
:101C7400D0D0E032C0E074F2121766E5A7A2E450B7
:101C84000FE5A1A2E4500953A7EF75A1EF121CCCF4
:101C9400E5A7A2E5500CE5A1A2E5500653A7DF7520
:101CA400A1DFE5A7A2E15009E5A1A2E1500375A1D6
:101CB400FDE5A7A2E2500CE5A1A2E2500653A7FB62
:101CC40075A1FB7F010217C574F812167A752101FC
:101CD4009003C2E0640670077A007B00120C8AA2AB
:101CE400AFE433FED2AF9003C8E0640170187A20E9
:101CF4007B009003C1E0F912104A7A207B00900324
:101D0400C1E0F9120FD2906182E0D2E6F090055E54
:101D1400E0602185C62280169003C7E06401700844
:101D2400E5C654F84405F5C653BEFC121AEC74011A
:101D3400652160E4EEA2E092AF7F01021726000065
:101D44008E238F248582288583278518828519838D
:101D5400E0CEA3E0CF852882852783EBC9EAC8EDCE
:101D6400CBECCA75F010C3E833C8E933C9EA33CA07
:101D7400EB33CBC3EA9EF526EB9FF525B35004ABBA
:101D840025AA26EC33CCED33CDD5F0DAAE23AF243F
:101D94002274E912167A74FA1215B7EAFEEBFF8C74
:101DA400088D099003C2E024F7C394055006908F70
:101DB400D4021EBC120C068A0A8B0BEA450B700374
:101DC400021EB9120CC08A0C8B0D120CC0EA650CF1
:101DD4007003EB650D60ECEEFCEFFD851882851950
:101DE40083AA82AB83120CC6850A82850B83A3A3C4
:101DF400780C121487908F90780C121461851882D5
:101E04008519837814121487908F907814121461B2
:101E1400780C7914121299501F780C791412143911
:101E2400908F98780C1212B94047850C10850D11CB
:101E3400850E12850F1380418514108515118516A2
:101E4400128517137810790C121439908F98781022
:101E54001212B9501C75100075110075120075131B
:101E640001781079141214397810790C1214008046
:101E740008908FD47810121487740978101213E123
:101E8400908F9C780C1214877810790C1213589048
:101E940003C2E06408600AE064066005E06405705B
:101EA4001C908FA478101212B95012908FA0781041
:101EB4001214138008908FD8781012148785088222
:101EC400850983781012149674061215CD7F1002BA
:101ED400172674F712167A120CD890055CE0640188
:101EE4007010906245E4F0A3F053F4F343FE0C53F6
:101EF40090F3120C78E5C654804449F5C6E59E5427
:101F04007F644970F8906185740FF090055AE0F48D
:101F14007002A3E0602C75080175090090055AE071
:101F240078081215A4E508F4FAA3E0600814600A1E
:101F340014600C800DEA52808008EA52908003EA13
:101F440052A079007F0202172674F712167AE9FE6E
:101F5400EAFF74016E700C7A807B009003C1E0F993
:101F6400120FCC9023C8E493F46008E493F9120AA6
:101F740050800953C680E59E547F70FA120C7E90FF
:101F8400055CE064017003120A8690055AE0F4705F
:101F940002A3E0602A75080175090090055AE078EB
:101FA400081215A4AA08A3E0600814600A14600CBF
:101FB400800DEA42808008EA42908003EA42A0123F
:101FC4000C068A088B09A808A909E8496017E5E105
:101FD40070FCE82414F582E93400F583E0F874FF1A
:101FE40068600288E174016F700A7A019003C1E0AD
:101FF400F9121020021F4874F112167A8A088B090C
:102004008C0A8D0B740F121602780C121487908FA1
:10201400907808121461908F90780C1214617808EB
:10202400790C12129950157808790C121439908F82
:102034009878081212B9401579018013780C790840
:10204400121439908F98780C1212B940EB79007FF2
:102054000802172674ED12167A8A088B098C0A8DE9
:102064000B7413121602780C121487908F90780850
:10207400121461908F90780C121461780C79081204
:10208400129940117808790C121439AA08AB09ACDA
:102094000AAD0B80227510007511007512007513BE
:1020A400017810790C12143978107908121400AAE6
:1020B40010AB11AC12AD137F0C021726908F9078E1
:1020C400081214878A828B8378081214747F04029E
:1020D400172674F512167A8C828D83780812148769
:1020E4008A828B83780812144D12212AC3E098F057
:1020F400A3E09912211C401E908FC0780812148707
:102104008A828B8378081214268E828F83E024209F
:10211400F0A3E0344EF080A4F08E828F83C3E09469
:1021240020A3E0944E22EA2404F8EB3400F9E8FEFC
:10213400E9FF8C828D83A3A3A3A3E0F8A3E0F98E27
:10214400828F832274F512167AE9FE900514E0FA60
:10215400A3E0FBEEC333F8E433F974E928F58274A1
:102164008E39F583E02AF508A3E03BF509780812D7
:102174001821908FE41214A5121D4474021215CD77
:102184008A088B098C0A8D0B741078081213C8AA5C
:1021940008AB097F0402172674F112167A8A0C8B95
:1021A4000D8C0E8D0F740F121602E0FAA3E0FB746F
:1021B40011121602E0F508A3E0F5097413121602D1
:1021C400E0FEA3E0FF7808121821EA2401F508EBE9
:1021D4003400F509E4F50AF50B780C79081212D8E5
:1021E400908FAC7808121487780C79081212D8AA48
:1021F4000CAB0DAC0EAD0F121D4474021215CD8B39
:1022040009EA450960047A0180027A00EC2AFCEDAF
:102214003400FDECF8EDF97A717B0212152C880874
:102224008909E4F50AF50B8E828F837808121496D7
:10223400ECF8EDF97A717B0212152C8A088B09747B
:102244000578081215A48E828F83A3A3A3A3E5089F
:10225400F0A3E509F07F08021726C082C083E99045
:102264006000F0D083D08222C0E0C0D0E8C0E0E9B2
:10227400C0E0EAC0E0EBC0E0ECC0E0EDC0E0EEC0DE
:10228400E0C082C083C0F0A2AFE433FED2AFC2C0CC
:10229400E5D1A2E4500653D1EF121188751A00EE6D
:1022A400A2E092AFD0F0D083D082D0E0FED0E0FDA7
:1022B400D0E0FCD0E0FBD0E0FAD0E0F9D0E0F8D0F8
:1022C400D0D0E032C0E0C0D0E8C0E0E9C0E0E5A88A
:1022D400D2AFC2C7751A00A2E7A2E792AFD0E0F965
:1022E400D0E0F8D0D0D0E032C0E0C0D0E8C0E0E91F
:1022F400C0E0C008C009C082C083A2AFE433F9D2F1
:10230400AF9009DAE0F8A3E0687008539AFBA3746D
:10231400018026C2E99009DAE0F50874012508F085
:10232400745A2508F58274093400F583E0F5C190E8
:1023340009DAE0C394804002E4F0900C96E0600275
:1023440014F0E9A2E092AFD083D082D009D008D0B3
:10235400E0F9D0E0F8D0D0D0E032C0E0C0D0E8C09E
:10236400E0E9C0E0EAC0E0EBC0E0ECC0E0EDC0E0D2
:10237400EEC0E0C082C083C0F0E5A8FED2AF75898C
:1023840000C2C5C286900C977401F07A207B00903D
:102394000C95E0F9120FCC751A00EEA2E7A2E792B1
:1023A400AFD0F0D083D082D0E0FED0E0FDD0E0FC0E
:1023B400D0E0FBD0E0FAD0E0F9D0E0F8D0D0D0E023
:1023C40032020135FFFFFFFFFFFFFFFFC082C08322
:1023D400E9900DCAF00225EF74F712160EE9900287
:1023E400E0F07C187D037AFF7BFF12078C9002E1FA
:1023F40074FFF0A3F0A3E4F0A3F0790512071A9098
:1024040002E0E0F91206487AA47B07120966023258
:10241400FD74F412160E8A088B09EB548060309018
:1024240002E0E0F9120FC68A0A8B0BAE0AAF0BEE7C
:102434004F60138E828F83E064B0700312072CEE1A
:10244400FAEFFB120FB4AA08E5096480FB80047A52
:10245400007B000225BE74F212160E74FC1215B72E
:10246400EAFEEBFF74121216021237E4EE4F700309
:102474000224FD7402121602EEF0A3EF1227F9EC07
:10248400F0A3ED1227F9AA82AB83120642E9F50AFA
:10249400706AE508450960648E828F831237CAEE3C
:1024A4004F60567A067B001210088A0C8B0DA80C1C
:1024B400A90DE8497005750A13804188828983E46F
:1024C40012250AEEF0A3EF1237F5E508F0A3E509AB
:1024D400F09002E61225919002E670051232A78070
:1024E4001B1232958003EAFCEBFD8C828D8312254E
:1024F4009170F38C828D8380E3750A02A90A7404B7
:102504001215CD0239E4F0A312379BA32274F21200
:10251400160E890AE975F017A4FEAFF09002E5E4FF
:10252400F09002E3122591600A12100E9002E3E487
:10253400F0A3F0EEFAEFFB1210088A088B09EA45C3
:1025440009602FEEFCEFFD7900120FA29002E3E583
:1025540008F0A3E509F07B00800812257BE4F0A3D2
:10256400F00BEBC3950A40F2E50A9002E5F079001E
:10257400800279130239E4EB75F017A4F8A9F090FE
:1025840002E3E028FAA3E0398A82F58322122F3984
:10259400EA4B2274F412160E7900EAA2E0501B757D
:1025A400085C75098F78081218217C047D007ACCA8
:1025B4007B0D12071474021215CD7F040216E0C0BD
:1025C40082C0839002E61225F6601C88828983A368
:1025D400A3E06A7003A3E06B8882898370E8A3A3F5
:1025E400A3A3122F3580047A007B00D083D082020B
:1025F4000135123ACAE8492274EE12160E74FC121E
:1026040015B7EAFEEBFF851882851983E4F0A3F081
:10261400EE2402123287EE24051237A2EE2404F5CA
:102624000EEF122BAEE024FE603924FC604624FE3B
:10263400605224FE605E24FE700302270F24FE70A5
:102644000302277324FE700302278224FE70030210
:10265400279124FC70030227A024FE70030227AFF5
:102664000227EC9002FF7417F0A3E412280112036E
:10267400C60227EC851882851983AC82AD831207C4
:10268400320227BC851882851983AC82AD83120778
:10269400380227BC850C08850D097402121602AC99
:1026A40082AD83850882850983122F351206668AD6
:1026B4000C8B0DAC0CAD0DEC4D603BE4F50CF50D45
:1026C400780C121821750CFF750D02780C12182164
:1026D400750C00750D03780C12182174081216027B
:1026E400121838123AEE1215CDE9F50C700B122FB0
:1026F4002B1203DE800F750C018508828509831275
:1027040027EF1232A7850C080227BF7402121602A3
:10271400AC82AD83850C82850D83122D00603C85CF
:102724000C82850D83A3A31218387510FF7511024E
:1027340078101218217510007511037810121821E1
:102744007408121602121838123AEE1215CDE9F571
:1027540009700B122F2B1203E4800F750901850CED
:1027640082850D831227EF1232A7850908804C85D4
:102774001882851983AC82AD8312073E803A85188E
:1027840082851983AC82AD83120744802B8518821D
:10279400851983AC82AD8312074A801C8518828513
:1027A4001983AC82AD83120750800D851882851978
:1027B40083AC82AD83120756E9F508E50860298EDB
:1027C400828F83A3E06414601F850E82850F83E0EB
:1027D4009002FF1227F9123AC69003001232A7E5BD
:1027E40008A31228011203C0023196123ACA8518AE
:1027F4008285198322F085188285198322F07CFF53
:102804007D02850A82850B83122F392274EE1216FB
:102814000E74FC1215B78A0A8B0B8C0E8D0FEA24EA
:1028240005F508EB3400F5097C157D0079007AFF85
:102834007B02120FA2E5082402F50CE5091237A564
:102844008518828519838582108583117810121862
:1028540021850882850983A3A3A3A3122CF7121848
:1028640021E5082405F510E5093400F51178101266
:102874001821850C82850D8312304C120660740673
:102884001215CD8A108B11AE10AF11E50A2402F592
:102894000AE50B12328AEE4F70030229CE801774B8
:1028A40002121602122F3588828983EAF0A3EBF014
:1028B4009002FFE004F09002FFE0C394054003029D
:1028C40029CEE4F510F51178101218217510E87569
:1028D400110278101218217510E97511027810127E
:1028E400182174061216021218387910EEFCEFFD46
:1028F400123AF01215CDE9705E850882850983A32A
:10290400A3A3A3A3A3A3E0F89002E8E0687048128D
:102914002CF71218217CE97D02E5082408FAE50960
:102924003400FB120F9C74021215CDE960298E82CB
:102934008F83A3A3A3A3122F359002FFE0F5107495
:102944000278101215A474002510F5827403351151
:10295400F583EAF0A3EBF074021216028582108567
:102964008311781012182174021216021218388575
:102974000C82850D83122F5B1215CD8A108B11AE3C
:1029840010AF119002FFE0F5107511007402781079
:102994001215A474FF2510F874023511F988828980
:1029A40083A3122591700302289AE82403080808D7
:1029B400E93400F9EE4F60030228A3888289837406
:1029C400FFF0A3F09002FFE004F09002FFE0600A41
:1029D400122F2B1203D27900800B8508828509837C
:1029E40012329E790A02319674EA12160E74FE129D
:1029F40015B78C128D13EA2405F50CEB123AD81294
:102A040037CE750800750900EA2402F510EB34008E
:102A1400F51185188285198385820A85830B780AC6
:102A2400121821850C82850D83A3A3A3A3122BC4A2
:102A3400121821E50C2405F50AE50D12328A780AEC
:102A4400121821850C82850D83122BC8120660741E
:102A5400061215CD8A0A8B0BEA450B7003022B690B
:102A6400EA2404F50EEB122BAE1237CE8A828B8346
:102A7400A3A3A3E0F9851082851183122F3F60037D
:102A8400022B69E4F514F51578141218217514E86D
:102A940075150278141218217514E9751502781445
:102AA40012182174061216021218387913AC0AADE2
:102AB4000B851082851183123AF61215CDE9F509BA
:102AC4006003022B699002E8E0F8E5087009E0244D
:102AD40002900300F08014900300E0FCE82402FA62
:102AE400E43400FBEA6C7001EB707E850882AA82F4
:102AF400122CEE9414122CE6506B850E82850F83F3
:102B0400E0C0E074012A122BA5D0E0F00508850E80
:102B140082850F83A3E0C0E085080A7401250A12A8
:102B24002BA5D0E0F005089002E8122BC41218215E
:102B34007CE97D0285080A7401250A122BB8121556
:102B4400CD9002E8E02508F50874FF6E700374FF69
:102B54006F6012EE24010EEF3400FFE508C39414F5
:102B64005003022A16E5086013122F498510828546
:102B74001183122F351203D879008014E5097003EC
:102B840075090A851282851383EEF0A3EFF0A90973
:102B940074021215CD7F0E0216E085080C7401250F
:102BA4000CF58274033400F583223400F50F850E8E
:102BB40082F58322FA74033400FB120F8A74022212
:102BC40012380422A3A3122BCE22123295FDEEFA60
:102BD400EFFB2274EE12160E74FE1215B78C0E8DD6
:102BE4000FEA2405F50CEB1237A5750B009002FFD4
:102BF400E4F0F50AEA2402F508EB3400F509804410
:102C04009002FFE0FA9002E8E0F8122CEE9417121A
:102C14002CE6400D9002FFE0F87416C3989002E889
:102C2400F0122CF71218217CE97D0274002AFA7440
:102C340003122BBB1215CD9002E8E0F89002FFE0DE
:102C440028F0050AE50C2416F582E50D122BA9E0FF
:102C5400F8E50AC39850749002FFE0C39416506BD1
:102C6400E50AC333F8E433F9E50C28FEE50D39FF32
:102C7400851882851983AC82AD838E828F83122D51
:102C8400007008750B0112329A8050E4F510F511AA
:102C940078101218217510E8751102781012182195
:102CA4007510E975110278101218217406121602B3
:102CB4001218387916850882850983123AF6121596
:102CC400CDE9F50B7003022C0480BB7CFF7D0285EB
:102CD4000882850983122F351203EAA90B740202B4
:102CE4003198E99400C365D03322EA28F8E434002B
:102CF400F9E822E0F51075110078102212318D8A5E
:102D0400108B11AC10AD11EC4D2274EA12160E7436
:102D1400FC1215B78A0C8B0D8C128D13EA2405F561
:102D24000AEB12328A750800750900E50A2402F5D7
:102D340010E50B3400F511740212160285820E851B
:102D4400830F780E121821850A82850B83A3A3A30F
:102D5400A31237AA121821E50A2405F50EE50B344F
:102D640000F50F780E121821851082851183123216
:102D740090122F2F12066074061215CD8A0E8B0F37
:102D8400AE0EAF0FE50C2402F50EE50D3400F50F81
:102D940080388882898374FFF00508122B9E74FFA3
:102DA400F005089002E8E0F50C750D00780C121897
:102DB400217CE97D0285080C7401250C122BB812C4
:102DC40015CD9002E8E02508F508EE4F60278E82C5
:102DD4008F83A3A3A3E0F9850E82850F83122F3F6F
:102DE400EE24041237A2E96027850C82850D831234
:102DF4002F211232A7E5087003022F07122F4985ED
:102E04000E82850F83122F351203F07900022F1CD6
:102E1400E4F514F51578141218217514E8751502E3
:102E240078141218217514E97515027814121821F2
:102E340074081216021218387911EEFCEFFD850E93
:102E440082850F83123AF61215CDE9F509709A8539
:102E54000882AA82EA9002E87009E0240490030040
:102E6400F08025E0F8900300E0F514E82404FCE485
:102E74003400FDEC65147001ED7081122CEE941297
:102E8400122CE64003022E00850C82850D83E0C0DF
:102E9400E074012A122BA5D0E0F00508850C828588
:102EA4000D83A3E0C0E0122B9ED0E0122F64858234
:102EB4000C85830D780C1218217404121602121852
:102EC40038851082851183122F5B1215CD8A0C8BE5
:102ED4000DAE0CAF0D85080C7401250CF874033489
:102EE40000F9EE4F7003022D96851882851983E050
:102EF40088828983122F64A3E0C0E0122B9ED0E065
:102F0400022DA4E509700375090A850A82850B83DD
:102F1400122F211232A7A9097404022B96123ACA5D
:102F2400851282851383227CFF7D02850A82850BAC
:102F340083122F3922E0FAA3E0FB22122F39120662
:102F44004EE9F50922900300E0F5F0E508849002CB
:102F5400FFF07CFF7D0222122BCE12066C74042239
:102F6400F005088518828519832274EC12160E74F4
:102F7400FE1215B78A088B098C0E8D0FEA2405FE04
:102F8400EB3400FF123177EE24181237A2EA450B16
:102F9400700302301A123160502912303F8A108BAC
:102FA40011EA4511606B7912AC0AAD0B8508828574
:102FB4000983122F3585108285118312160CE9F5C9
:102FC4000A7058E4F50AF50B780A1218218E828FDC
:102FD40083A3A3E0F50A780A121821EE240312321F
:102FE40087780A1218218E828F8312304C12077A46
:102FF40074061215CDE9F50A7021850C82850D83BE
:10300400E0701F850882850983122F351203F6802C
:1030140011750A0E8009750A018004E50A6003121D
:10302400329A850C82850D83E0600479008002A9C0
:103034000A74021215CD7F0C0216E08518828519D8
:1030440083122F3912076822123295FD8508828572
:103054000983122F392274EE12160E74FE1215B75C
:103064008A088B098C0C8D0DEA2405FEEB3400FFD5
:10307400750E00123177EA450B700302313E1231AE
:1030840060502C12303F8A0E8B0FEA450F604A794C
:1030940012AC0AAD0B850882850983122F35850E83
:1030A40082850F8312160CE9F50E60030231418507
:1030B400088285098312337CAA0AFB1231527014E8
:1030C4007AFF7BFF123152606C88828983E50AF0B3
:1030D400A3E50BF0750A008007750E0E805F050AE4
:1030E4009002E5E0FAE50AC39A504AE50A75F0173A
:1030F400A4FAABF088828983A3A3E02AFAA3E03B75
:10310400FB8A828B83123290EC4D70D2750A17754C
:103114000B00780A121821EEFCEFFD120F8A7402DC
:103124001215CDEEFCEFFD850882850983122F353B
:103134001203FC8014750E098003750E01123AC245
:10314400850C82850D831232A7A90E022CE1120789
:103154005C8A108B11A810A911E84922E508240201
:10316400F508E5093400F5098A828B83A3A3A3E05B
:10317400A2E522851882851983AC82AD838E828F65
:103184008312318D8A0A8B0B22E0FAA3E0FB12062C
:10319400662274041215CD7F0A0216E074EC12162E
:1031A4000E8C108D11EA2405F50CEB1237A5750F62
:1031B40000EA2402F50AEB12328A850A82F58312A8
:1031C4002F35123B7C700302327C750E00807185B2
:1031D4000C82850D83E06401704F8E828F83A3A3DC
:1031E4001218388E828F83A3A3A3A3E0F51275135C
:1031F400007812121821EE2405F512EF3400F513AD
:103204007812121821122F2F12077A74061215CD74
:10321400E9F50F6014850C82850D83E4F0123AC23F
:103224008510828511831232A77C177D007900EE08
:10323400FAEFFB120FA28E828F83E4F0A3F0050E47
:103244009002E5E0F8E50EC398501EE50E75F01700
:10325400A4F8A9F0850882850983A3A3123AE2128F
:103264003290EC4D60030231D38508828509837462
:10327400FFF0A3F0E50F7006122F2F120402A90F1E
:1032840002303AF50AEF3400F50B22A3123295FD11
:1032940022E0FCA3E0228E828F83123ACA850E823A
:1032A400850F83E8F0A3E9F022C082C0839002E195
:1032B400E06A7003A3E06B70067AE17B0280047A13
:1032C400007B000225EF74F712160E7F00EF75F0F5
:1032D40003A4F8A9F0EC28F8ED39F988828983E091
:1032E4006A7003A3E06B7006E8FAE9FB800B0FEF4A
:1032F400C3940240D87A007B007F010216E074F682
:1033040012160E1238B370067A007B008007A3A34E
:10331400A3A3122F3502397474F212160EE9FE7447
:103324000E12160212337C74101216021237E48C39
:10333400828D83E06402703BA3123AC6888289833B
:10334400E0F50CA3E0F9A80C740268700374296911
:103354007021750C02750D00780C12182178081272
:103364001821780A121821EEF912079E7406121514
:10337400CD800279010239E4E0F50AA3E0F50B22DD
:1033840074E812160E74FB1215B7E98518828519B4
:1033940083F08A168B178C0E8D0F741F121602126F
:1033A40037E4742112160212337C742312160212AB
:1033B40037CE7510008C828D83A3A3A3E0A2E450C2
:1033C4002A741D1216021230458A828B83E58245C7
:1033D400837003023490790AAC0EAD0FAA16AB17B2
:1033E40012160CE9F5106003023493850E82850FE2
:1033F40083E064026003023749A3123AC685088257
:10340400850983A3858212858313E50E2406F50CB2
:10341400E50F1237A588828983E0FAA3E0F9EA244C
:1034240000F514E439F51578141218AB01000028DE
:1034340001285834070002282F3503289F34002917
:103444005936012981360229283603295936042997
:10345400EA364937EE4F703E850C82850D8312376C
:10346400BFFAE9FB8A828B83E0850A82850B83128B
:1034740037FB1218218A828B83A3123295FDAA0886
:10348400AB09120F8A74021215CD800375100EA9B0
:10349400107405023AD075100B80F4EE4F70F78566
:1034A4000A82850B837401F01237D485088285095A
:1034B40083F07C007D00850E82850F83A3A3A3A3E4
:1034C400E02401FAA3E03400FB120666EA4B6041F3
:1034D4008A828B83E02402F8850A82850B83E028A4
:1034E400F0EA2404F8EB3400F988828983E0851239
:1034F4008285138312380D1237FB1218218A828BAE
:103504008312328FE5082403FAE5093400FB023400
:1035140086850A82850B83E02404F07C047D00798F
:1035240000AA12AB13120FA2023493EE4F600302EF
:10353400349A1237D4FEA3E0FF850A82850B837484
:1035440004F0EE850882850983F0EF8512828513E5
:1035540083F07403121602AC82AD83EEFAEFFB1211
:1035640038A170030236058A828B83A3A31237CA5B
:10357400740112160285820E85830F780E121821AB
:1035840074051216021218387CFF7DFF12066C7443
:10359400041215CD8B0FEA450F7033850C82850D0F
:1035A400831237AA121821850C82850D83A3121861
:1035B400387C027D007A0C7B9012049874041215F6
:1035C400CDE9700A740112160274FFF0A3F08E8222
:1035D4008F83E064027034750C02750D00780C1250
:1035E40018218E828F8312328FE5082404FAE509AC
:1035F400122BBB1215CD850A82850B83E024028031
:10360400097401121602EEF0A3EFF074011216020F
:103614001237BBF07401121602A31237B3A3A3A38B
:10362400F0023493EE4F600302349A850C82850DC8
:1036340083123290AA16AB17120792850A82850B61
:10364400837402F0EA850882850983F085128285F5
:103654001383EB80CBEE4F600302349A1237D4F815
:10366400A3E0F9850A82850B837402F0E885088259
:10367400850983F0E985128285138380A3850C82F2
:10368400850D83122F35120F84EAFC8C82A882C325
:103694009EE49F404BE86E7001EF70047C00801F35
:1036A400851882851983E0FAEE2AFAEF3400FBC309
:1036B400EA98EB94005003E08004EECCC39CFCEC4D
:1036C400850A82850B83F08C0A750B00780A121820
:1036D40021850C82850D83E02EFCA3E03F0234811A
:1036E400751007023493EE4F600302349A850C82FE
:1036F400850D83123AC6850A82850B837407F08888
:103704008289831237B312379BE085128285138333
:10371400F0E82402FAE93400FB8A828B831237B37F
:103724001237EC1237BBA31237F51237C4F0E82472
:1037340005F8E93400F9888289831237C4A3123862
:103744000DA3023621741D1216021238AC70030246
:103754003490123AC6880C890DE8450D7003023482
:10376400908E108F117810121821780A121821786F
:10377400081218217406121602E0F9AC0EAD0FAA55
:1037840016AB17850C82850D8312160C7406121560
:10379400CDE9F510023493F088828983A322F50CD5
:1037A400EF3400F50D22E0F50E750F00780E22E0DF
:1037B4008508828509832212381422123ACAE82223
:1037C400123814A3A322A3A3A3A3E0FEA3E0FF2221
:1037D400850C82850D83E0F8A3E0F5838882E022DE
:1037E400E0F508A3E0F50922A3A3F08A828B83A362
:1037F4002212250CA3A322F08A828B83123804227E
:10380400E0F50A750B00780A2212379B123814224D
:10381400E0850882850983A3A32274EE12160E7430
:10382400FE1215B78A0A8B0BECFAEDFB7414121610
:1038340002E0F510A3E0F5117416121602E0FE740E
:1038440018121602E0F50EA3E0F50F85188285190B
:1038540083AC82AD831238A1603E851882851983BA
:103864001238AC602FA3A31237E4E508450960249D
:10387400780E1218217810121821EEF9AC0CAD0D47
:10388400AA0AAB0B85088285098312160C740412EC
:1038940015CD8006790E80027901022CE1120666AC
:1038A4008A0C8B0DEA450D22122F391238B32212DD
:1038B40007268A828B83E58245832274F612160ECC
:1038C40074FE1215B7740C1216021237BF851882D3
:1038D400851983F07401121602E9F0E4F508F5097C
:1038E4007808121821750802780812182174041235
:1038F4001602858208858309780812182112077A2E
:1039040074061215CD74021215CD806474F7121664
:103914000EEAFEEBFF89087C187D03120792EA5435
:1039240002600BA908EEFAEFFB12065A8002790135
:103934000232FD74F612160E74FF6A700374FF6B84
:10394400701C7B00EB75F003A4F8A9F0EC28F8EDEB
:1039540039F91239790BEBC39402501480E612073B
:10396400628A088B09A808A909E849600312397911
:103974007F020216E08882898374FF12250AE4F02C
:103984002274F612160E1207628A828B83E5824530
:10399400836006A3A3E0FA80027A007B0080D174DE
:1039A400F212160E8A088B09ECFEEDFF740E121645
:1039B40002E0F50A1239E9701CEEFCEFFD7AFF7B98
:1039C400FF1239E970047911801688828983E50829
:1039D400F0A3E509F088828983A3A3E50AF07900BE
:1039E4007F060216E01207628A0C8B0DA80CA90D43
:1039F400E8492274EE12160EEAFEEBFF8C088D09DC
:103A0400890C7412121602123AC674141216021297
:103A140032907416121602122F35750D00EC4D609B
:103A240003023ABA7402650C6003023AB5888289CB
:103A340083123295F9EC2400F50EE439F50FEAF41B
:103A4400F8EBF4F9EC58F8E50F59F9E849705DE53D
:103A5400082406F8E5093400F9880A890B8882F5F8
:103A640083122BCA1207928A108B11E50E6510700F
:103A740004E50F65116042780E121821850A8285CB
:103A84000B83122BCA12079874021215CDE9F50D97
:103A94007027780E121821850882850983A3A31242
:103AA4002BC81207AA74021215CD800D750D8080E3
:103AB40008750D0D8003750D0BA90D02319B8E82C7
:103AC4008F83123ACA22E0F8A3E0F9221215CD7FBF
:103AD400100216E03400F50D850C82F58322E028EF
:103AE400FEA3E039FF8E828F83227916850A8285B0
:103AF4000B83122F3912077474082274F212160EF3
:103B0400EAFEEBFF890B7401650B600E7402650B12
:103B140070637901120984E9705BEEFAEFFB123BE2
:103B24007C6047750A00800B7C177D007900120FBA
:103B3400A2050A9002E5E0F8E50AC3985021E50AD7
:103B440075F017A4F8A9F0850882850983A3A3E07A
:103B540028FAA3E039FB8A828B831225F670C98583
:103B6400088285098374FFF0A3F07C187D03EEFAC4
:103B7400EFFB12078C0239E412075C8A088B09EA0E
:103B840045092274F212160E8A088B09ECFEEDFF29
:103B9400740E12160212337C900DCAE0F4603D7A62
:103BA400097B00120FAEEA4B60328A828B8374B1B8
:103BB400F0A3E41237EEA31237ECA3E508F0A3E573
:103BC40009123BE3EEF0A3EF123BE3A3A3E50AF0F3
:103BD400A3E50BF0900DCAE0F9120FBA0239E4F034
:103BE4008A828B83A3A3A3A3A32274EC12160E8947
:103BF4000A7F008A088B09780812186500040DD81A
:103C04003D213C3F3C5B3C793C973CB53CD73CF583
:103C14003C093D3D3D6A3D813D983DB33D740165A0
:103C24000A6003023DD48C828D83E0F8C394034080
:103C340003023DD4E8900EB6023DB07402650A60FA
:103C440003023DD48C828D83E0F8A3E0F9900EB793
:103C5400E8F0A3E9023DB07401650A6003023DD4B3
:103C64008C828D83E0F8C394024003023DD4E89033
:103C74000781023DB07401650A6003023DD48C8261
:103C84008D83E0F8C394054003023DD4E890078295
:103C9400023DB07401650A6003023DD48C828D83B9
:103CA400E0F8C394024003023DD4E8900783023D48
:103CB400B07410650A6003023DD47508108F09784A
:103CC400081218217A847B07120F8A74021215CD08
:103CD400023DF97401650A6003023DD48C828D8330
:103CE400E0F8C394024003023DD4E8900794023DF7
:103CF400B07401650A6003023DD48C828D83E09028
:103D04000EBA023DB07404650A6003023DD48C828D
:103D14008D83780C12148775104075114275120F3B
:103D24008F137810790C1212994003023DD4900736
:103D340096780C121496023DF9E96003023DD41200
:103D44000606E9701A7E00EEF91210C2E9F80EEECA
:103D5400C3940A5003E860EF79501211E8806C9024
:103D64000829740180467401650A70648C828D830D
:103D7400E0F8C394025059E8900795802F740165C8
:103D84000A704D8C828D83E0F8C3940A5042E89007
:103D94000EB980187401650A70368C828D83E0F840
:103DA40074F928C3940A5028E8900EBBF080467436
:103DB40001650A701B900828E0F88C828D83E090DE
:103DC4000828F0E8702FE06401702A1210BC8025E6
:103DD4007F188021C3EA9426EB9400501674026580
:103DE4000A70108C828D83E0FCA3E0FD1204A4E928
:103DF400FF80020F0FEFF97F0C0216E074F0121629
:103E04000E74B11215B78C0A8D0B7420121602AC05
:103E140082AD8375838F75826874061214CA742008
:103E2400121602AC82AD83121098E9FF745F121669
:103E340002E0F50CEFC3940A4003023FFE75F0065E
:103E4400EFA4F5087441121602AC82AD837A0E74A5
:103E5400202508F91211E2E97009744D121602E0E6
:103E6400FE80027E00900EB6E064027005750E01BD
:103E74008003750E007408650C700474228002744B
:103E8400212508F5097C1B7D007900742612160291
:103E9400AA82AB83120FA27426121602AC82AD83DF
:103EA4007A1BA9091211E2E970317440121602E07A
:103EB40024F9C3940A5024E50EF50978091218254B
:103EC4007427121602AC82AD83EEA2E0E433F9AAA1
:103ED4000AAB0B12054674011215CD7C147D0079D2
:103EE40000740C121602AA82AB83120FA2740C1275
:103EF4001602AC82AD837A1074242508F91211E2FB
:103F0400E9703C7C1079FF740C121602AA82AB8310
:103F1400120FF0E97029741C121602AC82AD837A78
:103F24000474252508F91211E2740C121602AC82ED
:103F3400AD83EEA2E0E433F9AA0AAB0B12052E8599
:103F44001882851983AC82AD837A0C74702FF912B0
:103F540011E2E96003023FED851882851983A88286
:103F6400A98388828983E0F4FAA3E0F4FB88828938
:103F740083EAF0A3EBF0E82402F582E93400F58348
:103F8400E0F4F0E82403F8E93400F9740C121602A2
:103F9400E582687003E5836970C87F0085188285AF
:103FA4001983858208858309850882850983E0FC55
:103FB400A3E0FDEC4D601F850882850983A3A3E07F
:103FC400F50E750F00780E121821AA0AAB0B120712
:103FD4008074021215CD0FE5082403F508E50934B1
:103FE40000F509EFC3940440BFEEA2E1500C900722
:103FF40080E0F9AA0AAB0B1207867404650C7027DB
:10400400900EB6E06402701F7A00900794E060019D
:104014000A900781E06004780480027800E84AF995
:10402400AA0AAB0B1205EE7900744F1215CD7F0866
:104034000216E074EE12160E74E21215B78A0A8B99
:104044000BECFEEDFF75080AE9600F14600C1460B8
:104054007014700302410B024193750E00750C9CA1
:10406400750D077510067511007810121821AC0A29
:10407400AD0BAA0CAB0D120F9C74021215CDE960A6
:1040840026850E08E508C3940A4003024193EE4FC7
:104094007003024193750C06750D00780C121821FB
:1040A400AC0AAD0B024187050EE50C240EF50CE5B8
:1040B4000D3400F50DE50EC3940A400302419380CC
:1040C400A2750E00750CA2750D077510067511000A
:1040D4007810121821AC0AAD0BAA0CAB0D120F9C70
:1040E40074021215CDE96005850E08805C050EE5A5
:1040F4000C240EF50CE50D3400F50DE50EC3940A01
:10410400400302419380C3750C00750D23740E1295
:104114001602AC82AD837A10A90D1211E2E9707611
:104124007C1079FF740E121602AA82AB83120FF070
:10413400E97063AC0AAD0B740E121602AA82AB834B
:10414400120510E97050850C08E508C3940A503F25
:10415400EE4F603B851882851983AC82AD837A0E5D
:1041640075F006E508A42420F91211E2E97020751F
:104174000A06750B00780A1218217402121602AC92
:1041840082AD83EEFAEFFB120F8A74021215CDA9E9
:1041940008741E02474E050C7406250DF50DE50C3A
:1041A400C3940A50EA02411174F412160E74F21206
:1041B40015B7890875091574FF6A700374FF6B607D
:1041C4000302424A7E20851882851983AC82AD831E
:1041D4007A0EEEF91211E2E970527C0679FF851825
:1041E40082851983AA82AB83120FF0E9703E740CA6
:1041F400121602E0F8A3E0F9E8FAE5086005EAD24D
:10420400E18003EAC2E1FAE86A7001E9601B740C18
:10421400121602EAF0A3E4F0851882851983AC82B1
:10422400AD837A0EEEF91211DC75090074062EFEC8
:10423400745C6E7091E50870030243057ADA7B10B2
:104244001209960243051209788A0A8B0BAE0AAF4B
:104254000BEE4F70030243027C007D00EE2405FA4E
:10426400EF3400FB8E828F83A3A3A3A3E0F9121083
:1042740098E9F8C3940A506E75F006E8A42420F572
:1042840009851882851983AC82AD837A0EF91211DF
:10429400E2E9704F7C0679FF851882851983AA822A
:1042A400AB83120FF0E9703B740C121602E0F8A312
:1042B400E0F9E8FAE5086005EAD2E18003EAC2E140
:1042C400FAE86A7001E9601B740C121602EAF0A3A2
:1042D400E4F0851882851983AC82AD837A0EA9092E
:1042E4001211DC750900E5086017900780E0F98E6B
:1042F400828F83A3E0FAA3E0FB120786800375098B
:1043040014A909740E1215CD024E02C082C0839006
:10431400079AEAF0A3EBF0900780E0FC7D007A2591
:104324007B001204A4900780E0F9120702D083D026
:104334008202013574EE12160E74EC1215B7EAFE01
:10434400EBFF8E828F83A3A3E024FA700302471E3F
:1043540024FD70030245F514700302440C1460102C
:1043640024FD70030245B314700302462F02474C28
:1043740090079AE0F8A3E0F9E849605CE0F58388E7
:1043840082E0F8A3E0F988088909E845096049EE64
:10439400240CF582EF3400F583E0F50A780A12184C
:1043A40025EE240BF582EF3400F583E0F98E828F3D
:1043B40083A3A3A3A3A3A3A3A3A3E0FCA3E0FDEE71
:1043C4002403FAEF3400FB85088285098312160C56
:1043D40074011215CD02474CEE2409F8EF3400F9AC
:1043E400E8FEE9FF8E828F83121838900796121424
:1043F400A512054074021215CDE9700302474C79E9
:10440400018E828F830246B98E828F83A3858210A8
:10441400858311E06003024582EE2405F508EF343C
:1044240000F509850882F583E0A2E0400302458295
:104434007C0E7D007900851882851983AA82AB835E
:10444400120FA2EE2408F50EEF3400F50F850E824C
:10445400F583E0FAA3E0FBEA4B6010750A06750BDE
:1044640000780A121821EA241080248E828F83A3F4
:10447400A3A3E0FAA3E0FB120978EA4B7003024716
:104484004C750A06750B00780A121821EA2405FCFB
:10449400EB3400FD7402121602AA82AB83120F8A57
:1044A40074021215CD850882850983E0A2E25004C6
:1044B400D2F08002C2F0A2F0E433F8740C121602B7
:1044C400E048F08E828F83A3A3A3A3A3A3A3A3A3F3
:1044D400A3E0F50CA3E0F50DE50C450D6013E50C28
:1044E4002410F582E50D3400F583780812148780D2
:1044F4000C7508FF7509FF750AFF750BFFE50C4580
:104504000D7006750C00750D00850E82850F83E015
:10451400F50EA3E0F50FE50E450F7006750E007558
:104524000F00780812181D780C121821780E121832
:1045340021EE240CF582EF3400F5831218388E82B4
:104544008F83A3A3A3A3A3A3E0FCA3E0FD740A1297
:104554001602AA82AB831210B6740A1215CD8E828B
:104564008F83A3A3A3E0F8A3E0F990082AE8F0A3BB
:10457400E9F07A017B00900780E0F9120FCC9007F4
:104584009AE0F8A3E0F9E849700302474CE0F583A8
:104594008882A3A3E0F8A3E0F98909E84509700338
:1045A40002474C851082851183E0FC7901802E90AE
:1045B400079AE0F8A3E0F9E849700302474CE0F5F4
:1045C400838882A3A3E0F8A3E0F98909E845097088
:1045D4000302474C8E828F83A3E0FC79028E828F84
:1045E40083A3A3A3E0FAA3E0FB888285098302479F
:1045F400197C007D00EE2404FAEF3400FB8E828FD8
:1046040083A3A3A3E0F9121098E9F8C3940A400322
:1046140002474CEE240AFCEF3400FD7A0475F006E0
:10462400E8A42425F91211DC02474CEE2403F50A10
:10463400EF3400F50B850A82F583E0FAA3E0FB90E2
:104644000795E06007900EB9E0F9806E900EB6E031
:104654007004790580641209788A088B098E828F28
:1046640083A3A3A3A3A3A3A3E0A2E05053EA450911
:10467400700302474C8A828B83A3A3A3A3E0F50CA7
:10468400603E8E828F83A3A3A3A3A3A3A3A3A3E0CB
:104694005410702C740E121602AC82AD83EA2405F9
:1046A400FAEB3400FBA90C121098E9701379038516
:1046B4000A82850B83E0FAA3E0FB12053A02474C19
:1046C400EE2405FCEF3400FD850882850983A3A34D
:1046D400A3A3E0F9850A82850B83E0FAA3E0FB1229
:1046E40010E090079AE0F8A3E0F9E849605AE0F591
:1046F400838882A3A3E0F8A3E0F9E8FEE9FFEE4F84
:1047040060467C007900850A82850B83E0FAA3E089
:10471400FB8E828F8312160C802E120606E97028F7
:10472400900829E0640170187E00EEF91210C2E9C5
:10473400F80EEEC3940A5003E860EF900829E4F001
:1047440079501211E81210BC74141215CD7F0A02AC
:1047540016E074F212160E74E61215B7890D8A0863
:104764008B09ECFEEDFF740C121602AC82AD837A59
:104774000E75F006E9A42420F91211E2E96003029F
:1047840049497C0679FF740C121602AA82AB831283
:104794000FF0E960030249497470250DF50C851882
:1047A40082851983AC82AD837A0CF91211E2E96037
:1047B40003024945851882851983A882A9838882C2
:1047C4008983E0F4FAA3E0F4FB88828983EAF0A306
:1047D400EBF0E82402F582E93400F583E0F4F0E834
:1047E4002403F8E93400F9740C12160285820A8550
:1047F400830BE8650A7003E9650B70C2E508450997
:10480400702D7C0C7900851882851983AA82AB836C
:10481400120FF0E960030249457C0C7D00790085A4
:104824001882851983AA82AB83120FA20248F77AF1
:1048340000851882851983A882A98388828983E0E8
:1048440065087004A3E065097018EA75F003A4F81C
:10485400A9F0851882851983E58228F8E58339F95A
:1048640080130AE82403F8E93400F9EAC394044005
:10487400CA78007900E849705AEE4F70030249493A
:104884007C00851882851983A882A98388828983FC
:10489400E0FAA3E0FBEA4B7018EC75F003A4F8A966
:1048A400F0851882851983E58228F8E58339F98033
:1048B400130CE82403F8E93400F9ECC3940440CC65
:1048C40078007900E849607D88828983E508F0A34F
:1048D400E509F0E82402F582E93400F583E0FAEE14
:1048E4006A7001EF605BEEF04F700888828983E4A0
:1048F400F0A3F0851882851983A882A98388828908
:1049040083E0F4FAA3E0F4FB88828983EAF0A3EB62
:10491400F0E82402F582E93400F583E0F4F0E824B9
:1049240003F8E93400F9E8650A7003E9650B70CD12
:10493400851882851983AC82AD837A0CA90C121177
:10494400DC790180027900741A1215CD7F060216F3
:10495400E074F012160E74F31215B7EAFEEBFF8C36
:10496400088D09EE4F7005790A024B52750B0075DC
:104974000C9C750D07750E06750F00780E12182124
:10498400EEFCEFFDAA0CAB0D120F9C74021215CDB8
:10499400E97003024AF3850B0AE50AC3940A40034B
:1049A400024B0BE50AC3940A4003024B5075F00610
:1049B400E50AA4F50BEEFCEFFD7A0E7420250BF945
:1049C4001211DCE5084509600EAC08AD097A1B74C8
:1049D40021250BF91211DC741D121602E0FCA3E070
:1049E400FDEC4D600A7A1B7422250BF91211DC745C
:1049F4001F121602E0FCA3E0FDEC4D600A7A10746D
:104A040023250BF91211DC7421121602E0FCA3E039
:104A1400FDEC4D601D7A107424250BF91211DC7421
:104A240023121602AC82AD837A047425250BF91285
:104A340011DC7C0C7D0079FF7401121602AA82AB92
:104A440083120FA27401121602AC82AD837A0C7425
:104A540070250AF91211DC75080E75090078081220
:104A64001821EEFCEFFDE50A75F00EA4F8A9F07428
:104A74009C28FA740739FB120F8A74021215CD9020
:104A84000828E060301207F27E9C7F077C0679FFDD
:104A9400EEFAEFFB120FF0E97009EEFAEFFB790082
:104AA4001207F8EE240EFEEF3400FFEE64287003C4
:104AB400EF640870D77508007E9C7F077C0679FF39
:104AC400EEFAEFFB120FF0E970020508EE240EFE79
:104AD400EF3400FFEE64287003EF640870DEE5082D
:104AE400C39402851882851983405374028051054A
:104AF4000BE50C240EF50CE50D3400F50DE50BC3A8
:104B0400940A5003024979750B00750C9C750D07C6
:104B14007C0679FFAA0CAB0D120FF0E96006850B39
:104B24000A0249A7050BE50C240EF50CE50D34002B
:104B3400F50DE50BC3940A40D7750A0A800E740A72
:104B4400F0AC82AD837A01790512061EA90A740DB0
:104B540002402F74F712160E74FF1215B775080071
:104B64007E9C7F07EEFCEFFD7A0E75F006E508A447
:104B74002420F91211E2E9602C7C067D0079FFEE15
:104B8400FAEFFB120FA27C067D0079FFEE2406FAF1
:104B9400EF3400FB120FA2EE240CF582EF3400F583
:104BA40083E4F0A3F00508EE240EFEEF3400FFE5E5
:104BB40008C3940A40AE900828E060301207F27EE1
:104BC4009C7F077C0679FFEEFAEFFB120FF0E97089
:104BD40009EEFAEFFB79001207F8EE240EFEEF342B
:104BE40000FFEE64287003EF640870D77508007E38
:104BF4009C7F077C0679FFEEFAEFFB120FF0E97059
:104C0400020508EE240EFEEF3400FFEE6428700364
:104C1400EF640870DEE508C3940285188285198361
:104C2400400474028002740AF0AC82AD837A017984
:104C34000512061E74011215CD7F010216E074F3ED
:104C440012160E74CB1215B7E9FF75F006A4F50819
:104C540074202508FE7427121602AC82AD837A0EE6
:104C6400EEF91211E2E96003024D5F7C0679FF74EC
:104C740027121602AA82AB83120FF0E96003024DD9
:104C84005F7C0E7D0079FF7427121602AA82AB8323
:104C9400120FA27C1B7D0079FF740C121602AA82EB
:104CA400AB83120FA27C0C7D0079FF8518828519D5
:104CB40083AA82AB83120FA27427121602AC82ADB0
:104CC400837A0EEEF91211DCE9F509740C1216025E
:104CD400AC82AD837A1B74212508F91211DCE9FE3C
:104CE400740C121602AC82AD837A1B74222508F967
:104CF4001211DCE9F50A740C121602AC82AD837A47
:104D04001074232508F91211DCE9F50B740C121642
:104D140002AC82AD837A1074242508F91211DCE9FF
:104D2400F50C740C121602AC82AD837A047425253A
:104D340008F91211DCE9F508851882851983AC821B
:104D4400AD837A0C74702FF91211DCE9F8EE450A80
:104D5400450B450C45084842098003750900A9091B
:104D640074351215CD7F050216E074F712160EE99C
:104D7400900780F01210BC024C3D74F412160E8A97
:104D8400088B09EB54806059900780E0F9120FC634
:104D94008A0A8B0BAE0AAF0BEE4F603C8E828F8378
:104DA400E02450600E14600624E160228023121077
:104DB400D4801EA3A3A3A3E0641E701579008E8281
:104DC4008F83A3A3E0FAA3E0FB12109E80031210CA
:104DD400AAEEFAEFFB120FB4AA08E5096480FB807F
:104DE4001DEAA2E0501490082AE0FAA3E0FB121096
:104DF400E6E5086401FAAB0980047A007B007F04CD
:104E04000216E074F412160E8A828B83A3A3A3A362
:104E1400E06003024E9F8A828B83A3A3A3A3A3A370
:104E2400A3E0FEA3E0FF8A828B83A3A3A3A3A3E052
:104E3400F508A3E0F5098A828B83A3A3E0FAA3E033
:104E4400FB74FF6A700374FF6B701B750A00EEFC41
:104E5400EFFDAA08AB09A90A1210B0050AE50AC3B6
:104E6400940A503780E81209788A828B83E5824558
:104E74008360287C007D00E5822405FAE583340004
:104E8400FBA3A3A3A3E0F9121098E9C3940A500B5F
:104E9400EEFCEFFDAA08AB091210B0024E02C0826C
:104EA400C083900780E0F98A828B83A3E0FAA3E0B1
:104EB400FB12078602433174F212160E74E81215BF
:104EC400B7EAFEEBFF890A8C088D097C187D00790E
:104ED40000851882851983AA82AB83120FA28518D4
:104EE40082851983EEF0A3EFF0900782E0C0E074AE
:104EF40002121602D0E0F0900783E0C0E0740312BF
:104F04001602D0E0F0900EBBE0C0E0741712160257
:104F1400D0E0F07415121602E054FEF8A3E0F99004
:104F24000EBAE0A2E0E433FAE84AF8741512160265
:104F3400E8F0A3E9F0900EBAE0A2E15004D2F080C8
:104F440002C2F0E854FDFAA2F0E43333F8EA48F878
:104F54007415121602E8F0A3E9F0900EBAE0A2E389
:104F64005004D2F08002C2F0E854F7FAA2F0E4331D
:104F7400F50C750D007403780C1215A4EA450CF8B1
:104F84007415121602E8F0A3E9F0900EBAE0A2E458
:104F94005004D2F08002C2F0E854EFFAA2F0E433F5
:104FA400F50C7404780C1215A4EA450CF874151267
:104FB4001602E8F0A3E9F0900EBAE0A2E55004D29C
:104FC400F08002C2F0E854DFFAA2F0E433F50C7486
:104FD40005780C1215A4EA450CF87415121602E8AB
:104FE400F0A3E9F0900EBAE0A2E25004D2F08002FD
:104FF400C2F0E854FBFAA2F0E433F50C7402780C26
:105004001215A4EA450CF87415121602E8F0A3E987
:10501400F0900783E0601D750C10780C1218217C49
:10502400847D077406121602AA82AB83120F8A7457
:10503400021215CD900794E06011E50A6009741519
:10504400121602E04402F07801800278007414120F
:105054001602E048F0900781E0600478048002784A
:10506400007414121602E048F0AC08AD09851882E9
:10507400851983AA82AB83120534741802494D74CE
:10508400F012160E74FB1215B78A0C8B0D740312F2
:10509400160285820885830978081218217508028A
:1050A4007509007808121821750812750990780896
:1050B4001218217CFF7DFF7A017B001206607406C2
:1050C4001215CD8A088B09EA450970030251D8E408
:1050D400F50AF50B780A1218217404121602858257
:1050E4000A85830B780A1218217404121602858229
:1050F4000A85830B780A12182174091216021218F1
:10510400387902AC08AD09AA0CAB0D120774740807
:105114001215CDE960030251AA851882851983E02E
:10512400FA7401121602E0F8E4C8F9EA2400FEE475
:1051340039FFEE4F6070850882850983A3A3A3A37A
:10514400E0F50AA3E0F50B74FF650C700474FF65C9
:105154000D701A880EEEFCEFFDAA0AAB0BA90E1215
:1051640010B0050EE50EC3940A503B80E8AA0CABC0
:105174000D1209788A828B83E582458360287C003E
:105184007D00E5822405FAE5833400FBA3A3A3A3F1
:10519400E0F9121098E9C3940A500BEEFCEFFDAA53
:1051A4000AAB0B1210B0E4F50AF50B780A121821B9
:1051B40074051216021218387CFF7DFFAA08AB0989
:1051C40012066C74041215CD8A088B09EA4509602D
:1051D400030250D3740502402FC082C083906190B3
:1051E4007404F0A37448F0A3E4F09061807440F078
:1051F4009061BC7407F09061877469F09061B67433
:1052040016F07900120A747902120A7A9023C8E41B
:1052140093F46006E493F9120A507905120D6E02B4
:10522400561FC082C083E9540FF9906185E069601C
:1052340012E5C654804449F5C6E59E547F6449701E
:10524400F8E9F053C680E59E547F70FA02561F7445
:10525400F712160EE5A8FE53A87E120A5CC2BA53D2
:105264009AFEC289759B00C2C2120A6275A91175A1
:10527400B905120A68D2BA439A0174805E42A80240
:105284005BACC082C083906181E4F0A302561C75BC
:10529400E90075910075BF00020135C082C083909A
:1052A4006181E4F0A374C0F0A3E402561EC082C07E
:1052B4008374F81215B79003C4125A8EE849700328
:1052C4000253689003C4E05440602379088518822F
:1052D400851983AA82AB83120B6A85188285198388
:1052E400AA82AB831208169003C4E054BFF0E054C2
:1052F400806010790C7A807B05120B6A9003C4E0FD
:10530400547FF0E0A2E05008790012537054FEF08C
:10531400E054026008790112537054FDF0E0540423
:105324006008790012537B54FBF0E054086008795C
:105334000112537B54F7F0E05410600879021253C1
:105344007B54EFF0E054206008790312537B54DF60
:10535400F0A3E05401600D120A861208289003C5D8
:10536400E054FEF074081215CD02561F120A74128E
:10537400081C9003C4E022120A7A1208229003C483
:10538400E022C082C083E9600514602A804F9061E6
:105394009A7433F0A37455F09061A0743AF09005B8
:1053A4005CE064017009C2919003C67467802D901B
:1053B40003C67461802690619A743FF0A3745AF016
:1053C4009061A0747FF090055CE064017009D29153
:1053D4009003C6747180059003C6746AF002561F68
:1053E400C082C083E9600B14600D14600F14601157
:1053F40080209023CC80159023CD80109023CE80E4
:105404000B90055CE0640160F39023CFE49390611A
:1054140086F002561F74EE12160E74F41215B78538
:105424001882851983AC82AD8375838F7582C474A9
:10543400041214CA9023CC93F460030255AB907801
:1054440008E0C39402500302558B7404121602AC94
:1054540082AD8375838F75824674081214CAF97AF3
:10546400FF7BFF7FFF7E008982858210801874088D
:105474006E700302554074096E7003025540740A3D
:105484006E7003025540E510C333FCE433FD74042D
:10549400121602E5822CF582E5833DF583E0F50ED4
:1054A400A3E0F50F8E08750900740278081215A49C
:1054B40074482508FC74783509FD8C828D8378083E
:1054C400121487740878081213C885080C85090D0E
:1054D4008C828D837808121487741878081213C884
:1054E400E50C4508F508E50DF509C3E50E9508E555
:1054F4000F95098C828D8378081214878C828D8392
:1055040078081214877418780840141213C8E50C2C
:105514004508FCAD0DE50EC39CFCE50F9D800F1204
:1055240013C8E50C4508C3950EFCE50D950FFDC3A6
:10553400EC9AED9B5006ECFAEDFBEEFF0EEEC394F5
:1055440013500302547274FF6A700374FF6B602D6E
:105554008F08740278081215A4744812623A747899
:105564003509F5837808121487851882851983E52F
:10557400822510F582E583125FC7E508F009E9C3C7
:1055840094045003025463750801750900780812E5
:1055940018217402121602AC82AD837AF37B0812CE
:1055A400111074021215CD740C1215CD7F0A021657
:1055B400E0C082C083906186E0F89023CFE49368D2
:1055C40070099023CEE493906186F09061AE746884
:1055D400F0A3746AF090624574FBF0A304F053F4F2
:1055E400FD43FE0290055C7401F09061A0E0643A12
:1055F4007004790080027901120A7402561FC08275
:10560400C08390050EE06401700A900513E0600405
:10561400790C800279008003F0A3F0D083D0820259
:105624000135C082C08375E1F1900511E0604D142D
:1056340060081460511460498051120A989005075B
:10564400E0F97A087B05120CF0908FBC1214A512B5
:105654000D26908FB01214A5120CFC900512E0F9DF
:10566400120D087901120D62900505E024161257F7
:10567400B474B0F0A3740AF07900809F120A9E807B
:10568400BC120AA480B7120AAA80B2791280EB7401
:10569400F412160E75D90D9004F6E0A2E0E433136B
:1056A40013F8125720484401F5D9780012579E4048
:1056B400FB7800880874F712623A74041257A84001
:1056C400F275E1959004F6E0F97AF77B04120CF692
:1056D400900DEC7426F0A3740A1257C31257E31208
:1056E40057DA12591B12572A7808121487908FB868
:1056F4007808121413908F9078081214611257AE20
:105704007808121496900505E024141257B4741303
:10571400F09003C27402F07F040216E0900507E0E3
:10572400C4333354C022900505E0F8A3E0F5838820
:1057340082A3A32274F612160E1258EC8AD97800AA
:1057440012579E40FB7800800612585212599EE868
:10575400C39940F51258DE12579E40FB780080082A
:10576400126236740512599EE8C39940F375E195A7
:10577400900DEC7432F0A3740A1257C31257CD1271
:1057840014A51257AE1214B1900505E02414125753
:10579400B47412F09003C2025B8988087408250867
:1057A400F5827405125AFA940622900505E0240E37
:1057B400F8A3E01257BB223400F9888289832212AD
:1057C4005904742CF0A3740A221257E31257DA1204
:1057D400591F908FC022F0A37444F0A3740A2212BC
:1057E40057E7221257EB22F0A374D6F0A3740B22CE
:1057F40074F612160E1258471257204402F5D9783F
:105804000012579E40FB7800800612585212599E8F
:10581400E8C39940F575E195900DEC12585DF0A33D
:1058240012585D1257D01214A51257AE1214B1902B
:105834000505E024141257B47414F09003C27404E0
:10584400025B8B900517E0F9740729F5D9228808C3
:1058540074182508F582740522743E12586A125889
:105864006AF0A3740A22F0A3740AF0A3743E2274AB
:10587400F612160E1258EC74064AF5D9780012572F
:105884009E40FB7800800612585212599EE8C39934
:1058940040F51258DE12579E40FB780080081262D1
:1058A40036740512599EE8C39940F375E195900D3D
:1058B400EC7438F0A3740A1258FA1257CD1214A5D6
:1058C4001257AE1214B1900505E024141257B474A3
:1058D40015F09003C27403025B8B90053712584A8B
:1058E40074044AF5D9780022125847900507E0C499
:1058F400333354C0FA2212590474D6F0A3740B2221
:105904001259082212591574D6F0A3740B125915A2
:10591400221257EBF0A32212591F22F0900DFA74B1
:10592400D6F0A3740B12590874D6F0A3740B125753
:10593400E7F022C082C08312572AA3A3A3A3E402E0
:10594400561C74F712160E12647CF8740339F9E8C5
:105954002405FAE93400FB8A828B831261EB888286
:105964008983A3A3A3A3A3A3A3A3A3ECF0A3EDF010
:1059740088828983A3A3A3A3A3A3A3E024FFF8A3FA
:10598400E034FFF98A828B83E8F0A3E9F0025BAC90
:10599400880874602508F5827405126112F5D90827
:1059A40022EAFEEBFF9061D0E0F87480C398FAEE2F
:1059B4002483221259BD940422125FD5E0F5D90A3A
:1059C400EAC32274F612160EEAFEEBFF9061D0E0F1
:1059D400707575D90E75D90375D9047A008A08EEE5
:1059E400250812654A248C125A6040F17A008A080C
:1059F400EE250812654A24841259B740F175E195E1
:105A04007908EE248C125A592484125A507C008C42
:105A140082AA82C3E49AF895E0F9EE28F8EF39F9FE
:105A2400E8248BF582E912610EC0E0EE2A12654A81
:105A340024ABF582E9125FC7D0E0F00CECC3940804
:105A440040CD125B1680027900025B8CFAEF3400C1
:105A5400FB120B5E22125A507904EE221259BD94A5
:105A64000822C082C08375D90275D90375D905751A
:105A7400E195EA2470F582EB125A8BEA2472F582DE
:105A8400EB125B2802561F125FD8125A9222E0F8DA
:105A9400A3E0F92274F612160EEAFEEBFF900560FD
:105AA4007406125B041218217C017903125E301211
:105AB40015CD75D90675D9037800125AEA40FB75DD
:105AC400E1959003C2E064087017EE2470F582EF4C
:105AD400125A8BEE2472F582EF125FC7E8F0A3E945
:105AE400F07901025B8C880874602508F5827405DE
:105AF400125AFA940522125FD8E0F5D908E8C322B5
:105B0400F075086075090578082275E19579041225
:105B14000D2CEE2470F582EF125FD8125A92EE2407
:105B240072F582EF125FD8E8F0A3E9F079012274EC
