:020000040000FA
:0600000002011D021C2E8E
:03002B000222F4BA
:03003B0002231885
:03004300022298FE
:03005300021CA4E8
:03006B0002238AE3
:10008300021B1FE5C754F84401F5C779012200009C
:100093000080FB120086B90003020107E47921788E
:1000A30008B800028004F709D8FCE479297802B87B
:1000B30000028004F709D8FCE4900281788D790B63
:1000C3008002F0A3D8FCD9FA781A90014D7A01BACC
:1000D30000028007E493A3F608DAF9900D0DAA82D3
:1000E300AB8390014E78A179038015E493A3AC828E
:1000F300AD838A828B83F0A3AA82AB838C828D83A8
:10010300D8E9D9E77582467583A4740312012F7564
:100113008291758300740012012F75D00075813FA1
:10012300751881751902759F00020096C09FF59F8F
:10013300E473D09F22D083D082C09FE493C0E07445
:100143000193C0E0740293F59F2201FF0000B40005
:100153000028002800283075A000A000A000A000FF
:1001630000080008E001F00010001000100010006B
:100173001000100050005000500010001000D00775
:100183000000000000000F000100050030750700AB
:100193001000010081FF0000FFE6050406EC05FFE7
:1001A30002020208025000A0000000E803020A90C5
:1001B300010000F68F022A90010000620D021490E4
:1001C300010000B202022A90010000630D021690A2
:1001D300010000C802022A90010000640D02189079
:1001E300010000CA02022A90010000650D021A9064
:1001F300080000CB02022A90010000660D021C9049
:10020300010000670DFF0100FF20020A90010000BA
:10021300F38F022A90010000CB0D021E9000000014
:1002230000000212900300001803040C040C040CD9
:10023300040C040C040C040C040C040C040C040C3B
:10024300040C040CDA0EF20ED40EFFFF02020202BB
:100253000202020202010D0000001001020A9001D5
:100263000000F08F022A900100000E0E020490019C
:1002730000007807022A900100000F0E020290018D
:100283000000318F022A90010000100E020090013D
:100293000000078F022A90010000110E02FE8F0159
:1002A3000000818E022A90010000120E022C9001A0
:1002B3000000938E022A90010000130E02FC8F01AE
:1002C3000000B78E022A90010000140E024E8F0127
:1002D3000000A58E022A90010000150E020E900167
:1002E3000000238F022A90010000160E02229001C3
:1002F3000000170E01E803053F10FF0001307503EE
:1003030002010600000000000000000000000000E1
:10031300000000000000000000000000000000FFDB
:10032300FF0600800CE803010008095061756C4268
:100333004C45051214001400020A000201050302D1
:10034300E7FE09FF0D000000000000005061756C1E
:10035300424C4500000000000000000000000000C7
:1003630000761200007C1208436861726163746551
:100373007269737469632031002043686172616339
:100383007465726973746963203200020A90010014
:1003930000F98F022A90010000290F022690020023
:1003A30000D20C0210900100002A0F022A900100D3
:1003B300003B0F022890000000040D02129003007E
:1003C30000050D0210900100003C0F00000000002A
:1003D300000000000000000000000000000000001A
:1003E3000000000000000000000000120138659BBF
:1003F300031201387C9B03120138AB9B03120138B3
:10040300E49B031201380C9C031201383A9C03123B
:100413000138519C03120138689C031201387E9CF9
:1004230003120138A59C03120138B89C031201384A
:10043300CE9C03120138F69C0312013886A40212E3
:10044300013885A502120138BAA502120138DBA5CD
:1004530002120138EBA5021201380CA60212013870
:1004630018A702120138E5A70212013858A8021290
:100473000138DEA80212013821A90212013858A955
:1004830002120138DEA902120138B0AA02120138A1
:100493000EAB0212013826AB02120138A0AB0212D6
:1004A3000138A3AB02120138A6AB021201384DACDE
:1004B3000212013865AC0212013895AC0212013800
:1004C300B5AC02120138A3AD0212013859AE0212C3
:1004D300013899E902120138C1E902120138EFE942
:1004E3000212013826EA021201388EEA021201389A
:1004F300D7EA0212013822EB0212013860EB021232
:1005030001389DEB02120138CBEB0212013872EC79
:10051300021201387CEC0212013889EC0212013814
:10052300BCEC021201387EED021201388AED021290
:100533000138A2ED02120138ACED0212013862A0BB
:100543000312013870A00312013888A00312013886
:10055300A0A003120138F0CE011201388ECF011290
:10056300013806D0011201381BD10112013855D1CF
:1005730001120138FED101120138D3D20112013820
:1005830037D4011201388ED40112013815D5011266
:100593000138FCD50112013849D601120138D7D6EA
:1005A30001120138FBD601120138D0D801120138EB
:1005B30011D90112013833D901120138B4D901120A
:1005C30001389EDA0112013864DB01120138D6C901
:1005D30002120138A8CA0212013851CB02120138A3
:1005E30094CB0212013821CC02120138ADCC021295
:1005F30001388ECD02120138BDCD02120138B9CEB9
:100603000212013801CF0212013803D0021201385D
:1006130047D0021201386DD002120138C9A2031269
:1006230001380080031201381680031201383C8020
:10063300031201386481031201386E8103120138F9
:10064300C78203120138C78303120138E2D00212B2
:10065300013817D2021201384AD20212013894D259
:100663000212013852D402120138E0BF01120138DC
:1006730043C00112013888C10112013898C1011227
:100683000138BBC10112013806C201120138ABC2E5
:1006930001120138A1C3011201386BC401120138E0
:1006A300E3C50112013825C601120138C3C6011280
:1006B3000138E9C601120138D7C801120138DCC874
:1006C30001120138BDCA0112013811CB01120138E0
:1006D30073CB011201389BCB011201383FCC0112BD
:1006E300013801CD0112013832CD0112013835CD67
:1006F300011201387DCD01120138BFCD011201383D
:1007030026CE01120138B29003120138C5900312AC
:100713000138DE9003120138299103120138049243
:1007230003120138939203120138DE920312013847
:10073300FC2300120138082400120138412400125E
:1007430001388624001201383D2500120138C325E3
:1007530000120138EF250012013828260012013853
:100763003C2800120138182A00120138032C001209
:1007730001383A2D001201389A2F001201388630C1
:1007830000120138CC3100120138D932001201387D
:10079300F632001201382E330012013848330012AA
:1007A3000138B033001201384A3800120138EB38EF
:1007B300001201383C390012013863390012013844
:1007C300B13900120138CF3900120138233A00122F
:1007D30001382B3B00120138B33B0012013801E012
:1007E300021201380BE002120138D6E0021201387E
:1007F300F1E00212013817E1021201385BE1021243
:10080300013893E102120138BCE10212013835E2EA
:10081300021201384AE2021201385FE20212013881
:1008230096E202120138AAE202120138DBE2021256
:10083300013815E30212013841E30212013879E36A
:100843000212013817E40212013860E4021201387F
:100853008AE402120138AFE402120138C3F602122D
:1008630001388DF70212013870F802120138E6F8E8
:100873000212013828F90212013855FA021201381E
:10088300E68C021201380F8D02120138288D0212F4
:1008930001386D8E021201384B8F021201386A8FB4
:1008A30002120138F78F021201383A90021201380E
:1008B300879102120138269202120138A59402127E
:1008C30001383C9502120138109602120138F29653
:1008D300021201385E9802120138F19802120138AF
:1008E300479E03120138B09E03120138049F03127E
:1008F30001382B9F0312013841EE02120138AEEE8C
:1009030002120138F9EE02120138EEEF0212013839
:10091300EAF002120138D4F10212013868C102125E
:100923000138AAC10212013884C2021201385DC320
:100933000212013858C40212013837C502120138B5
:10094300A3C5021201386AC602120138D5C60212C3
:1009530001383CC70212013867C702120138D8C7F1
:10096300021201386BC802120138D4C802120138CE
:10097300E9C80212013831C9021201384AC9021208
:100983000138AFC902120138B2C902120138B88D59
:1009930003120138E08D031201381E8E0312013851
:1009A300DC8E03120138478F03120138638F031261
:1009B30001388B8F03120138BB8F03120138CA8FA2
:1009C300031201384490031201386A90031201386C
:1009D30095A00112013832A20112013818A40112A4
:1009E3000138E2A40112013829A50112013870A5CA
:1009F3000112013882A501120138C2A50112013882
:100A0300F1A5011201383DA60112013875A60112A4
:100A13000138A3A601120138F4A60112013883A7F5
:100A23000112013871AA011201384BAC01120138CD
:100A330087AC01120138E1AD0112013828AE011271
:100A430001389DAE01120138EBAE0112013811AF2E
:100A53000112013865B80212013882B80212013856
:100A63001CBE021201381EBF0212013898C00212C6
:100A7300013846C10212013809520012013852529C
:100A8300001201387F5200120138B25200120138AD
:100A9300BF5200120138CB5200120138DD5200124E
:100AA3000138B25300120138105400120138455472
:100AB30000120138E155001201382E560012013898
:100AC300525600120138BF56001201386457001203
:100AD30001382058001201389F5800120138635919
:100AE30000120138725900120138F359001201380B
:100AF300925A00120138C45A001201385F5B001287
:100B03000138BD5B00120138F75B00120138785CD5
:100B130000120138415D00120138EA5D001201380C
:100B2300715E00120138C95E001201382A5F00129B
:100B33000138535F00120138096000120138536114
:100B430000120138966100120138B36100120138B6
:100B5300D261001201381D62001201384262001294
:100B630001386B6200120138DA62001201381C632B
:100B730000120138206400120138BA6400120138EF
:100B83008665001201389F6500120138C4AE021257
:100B9300013817AF0212013823AF02120138F8AF40
:100BA300021201381FB0021201385AB00212013882
:100BB300C6B002120138FAB00212013833B1021280
:100BC30001384BB102120138A4B102120138BDB190
:100BD3000212013806B20212013819B202120138A8
:100BE30033B20212013849B20212013865B302125C
:100BF300013876B402120138C3B502120138A8B61F
:100C030002120138F47F0012013800800212013809
:100C13003480021201389F8302120138E9840212E0
:100C23000138B385021201383D8702120138188852
:100C330002120138528802120138758802120138F3
:100C4300B78802120138C088021201380A890212D9
:100C53000138148902120138C08902120138948ABA
:100C630002120138E88A021201384A8B0212013853
:100C73009D8B02120138CC8B021201380B8C0212AD
:100C83000138D165001201382B6E00120138316E24
:100C930000120138EC7300120138D27700120138C8
:100CA300D183031201384784031201385D84031290
:100CB30001389A8403120138D284031201384F8514
:100CC300031201388A85031201380586031201389D
:100CD3004186031201384A860312013856860312ED
:100CE3000138708603120138958603120138AB86EA
:100CF30003120138D48603120138378703120138EF
:100D0300D7E402120138EAE40212013804E50212C0
:100D130001382DE50212013870E502120138AFE502
:100D230002120138EDE50212013852E602120138CF
:100D330067E60212013872E6021201387FE60212F8
:100D4300013896E602120138A4E602120138AFE632
:100D530002120138BBE602120138CEE60212013854
:100D6300D9E602120138FCE602120138A5E70212A5
:100D73000138B5E702120138CFE702120138ECE778
:100D83000212013808E8021201382DE80212013874
:100D930037E8021201384BE8021201386AE80212FE
:100DA3000138CBE802120138D1E802120138D7E842
:100DB30002120138DDE802120138E9E802120138B3
:100DC3001CE9021201381CEC011201389EEC0112DD
:100DD300013847ED011201388FEE011201389DF001
:100DE3000112013883F101120138B8F101120138FF
:100DF300DAF10112013883F20112013853F40112BE
:100E030001387CF401120138F4F40112013826F59B
:100E13000112013833F5011201387EF50112013850
:100E2300A2F501120138F3F701120138FDF801129E
:100E3300013859F90112013899DD01120138AADE8E
:100E4300011201388EDF0112013898DF01120138D7
:100E5300BADF01120138C6DF011201386AE101125B
:100E6300013897E101120138ADE20112013802E3C2
:100E73000112013851E40112013826E5011201384B
:100E830082E501120138EDE50112013822E6011273
:100E9300013865E6011201382FE90112013847E9EB
:100EA30001120138D8E901120138E6E901120138CB
:100EB30033EA0112013841EA01120138ADEA0112A5
:100EC300013828EB011201387FEB011201386899D0
:100ED300021201388A99021201389B9B02120138CF
:100EE3005A9E02120138849F0212013842A0021254
:100EF30001382EA102120138AC9903120138D1999D
:100F030003120138479A031201382178001201387D
:100F13002A78001201383378001201380B79001255
:100F23000138BC7A00120138EC7A00120138177BC1
:100F330000120138477B00120138727B001201381E
:100F4300A67B00120138D27B00120138157C0012F7
:100F53000138407C00120138877C00120138DC7CA8
:100F6300001201381E7D00120138787D001201380D
:100F7300A37D00120138F27D00120138227E001297
:100F830001384D7E001201387B7E001201389E7EAF
:100F93000012013852A3031201387EA30312013851
:100FA300ABA303120138B5A303120138C5A303127F
:100FB3000138A6F901120138B0F901120138F2F92A
:100FC300011201383DFA0112013894FA0112013875
:100FD300EEFA011201380FFB0112013819FB01125D
:100FE30001386CFB011201389AFB01120138A4FB92
:100FF30001120138BAFC01120138EBFD011201386C
:101003002CFE0112013873FE0112013885FE011214
:101013000138A4FE01120138ADFE0112013869FF47
:1010230001120138089D0312013883970312013816
:10103300B9970312013827980312013872990312E2
:1010430001383E7F00120138547F001201385E7F61
:1010530000120138A87F0012013893FF01120138F2
:101063001CDB0212013831DB0212013819DC0212D7
:10107300013854DC02120138A1DC0212013800DD10
:10108300021201386ADD0212013892DF02120138BE
:1010930039A10312013862A10312013896A1031288
:1010A3000138928A03120138B78A03120138E18AA0
:1010B300031201389EA4031201381A3C00120138AE
:1010C3002C3E00120138634000120138D84100124F
:1010D30001383B4300120138644300120138824750
:1010E30000120138814900120138834B0012013884
:1010F3006E4C001201389A4D00120138AA4D0012AD
:101103000138334E00120138CE4E00120138E74E3B
:1011130000120138AF500012013836A5031201380E
:1011230005A20312013815A20312013821A20312EA
:101133000138BCA2031201385C9F03120138E39FFC
:101143000312013849A003120138F12300120138B8
:1011530020A50312013830A50312013833A5031269
:101163000138F87F00120138579503120138809730
:101173000312013896F20212013826F302120138E3
:10118300B4F3021201384FF4021201381EF50212B1
:101193000138F0F502120138F9F5021201387BF635
:1011A300021201388EF602120138A4F60212013837
:1011B300ADF602120138C0F602120138CFA30312B2
:1011C300013894FE02120138EBFE0212013869FF66
:1011D30002120138089303120138329303120138C3
:1011E300099403120138E1940312013864B0011227
:1011F300013886B401120138FBB7011201380EB968
:1012030001120138C3BB01120138DABB01120138E4
:1012130017BE01120138F1BE011201382F900112DD
:101223000138CB94011201384A9601120138A19674
:1012330001120138C3960112013841970112013896
:10124300EB9901120138F79A01120138F89E011245
:101253000138B7FA02120138E0FA0212013844FBEE
:101263000212013898FB0212013808D60212013823
:101273001DD802120138F8D802120138E6DA021238
:101283000138678703120138AC8703120138CE8710
:1012930003120138058803120138B4880312013898
:1012A3005B8A03120138F4A403120138D67F00E0ED
:1012B30066701008A3E066700A08A3E0667004086D
:1012C300A3E06622C3E7960809E7960809E79608AC
:1012D30009E79622C3E09608A3E09608A3E09608E0
:1012E300A3E09622C008C3E096F50808A3E096425F
:1012F3000808A3E096420808A3E09645087001D3C6
:10130300D00822080808EAC0E0EBC0E086F0E7A4B2
:10131300FA180986F0E7A42AFA180986F0E7A42A3E
:10132300FA180986F0E7A42AFA1986F0E7A4FBE580
:10133300F02AFA190886F0E7A42BFBE5F03AFA192C
:101343000886F0E7A42BFBE5F03AFA18180986F0B3
:10135300E7A4C5F02BFBE43AFA1908E7C5F0C6A4E5
:1013630026F6E5F03BFBE43AFA1886F0E7A4F6E547
:10137300F00826F6E43B08F6E43A08F6D0E0FBD0A2
:10138300E0FA22E4CFC0E0E4CEC0E0E4CDC0E0E484
:10139300CCC0E075F020C3E633F608E633F608E682
:1013A30033F608E633F6181818EC33FCED33FDEE8C
:1013B30033FEEF33FFC3EC9709ED9709EE9709EF7F
:1013C30097191919400FFFEC97FC09ED97FD09EEEA
:1013D30097FE191906D5F0BEECF709EDF709EEF7FC
:1013E30009EFF7191919D0E0FCD0E0FDD0E0FED0E9
:1013F300E0FF226016080808C6C313C618C613C642
:1014030018C613C618C613C6D5E0EA227009080821
:1014130008226016181818C6C333C608C633C60890
:10142300C633C608C633C6D5E0EA22E627F608095E
:10143300E637F60809E637F60809E637F622E02626
:10144300F608A3E036F608A3E036F608A3E036F67E
:1014530022E026F008A3E036F008A3E036F008A364
:10146300E036F022C3E697F60809E697F60809E6A0
:1014730097F60809E697F622C3E096F008A3E096EC
:10148300F008A3E096F008A3E096F022E056F608F1
:10149300A3E056F608A3E056F608A3E056F622E0CA
:1014A30056F008A3E056F008A3E056F008A3E05670
:1014B300F022E0F608A3E0F608A3E0F608A3E0F6BE
:1014C30022E6F008A3E6F008A3E6F008A3E6F0227C
:1014D300E0FAA3E0FBA3E0FCA3E0FD22EAF0A3EB28
:1014E300F0A3ECF0A3EDF022CAC0E0E6F0A308DA23
:1014F300FAD0E0FA22CAC0E0E0A3C582CCC582C517
:1015030083CDC583F0A3C582CCC582C583CDC583F6
:10151300DAE6D0E0CA22C3E498F8E499F912155A3E
:101523008026C3E49AFAE49BFBE920E7E912155A03
:10153300E498F8E499F922C3E498F8E499F91215C8
:101543005AE498F8E499F9C3E49AFAE49BFB22EB92
:1015530020E7CFE920E7E0B90010BB0008E88AF0F4
:1015630084F8AAF022E4FBC8FA22EB70227B10C8AD
:1015730033C8C933C9335007C39AC3DBF280069A11
:1015830050012ADBEAC833F4C8C933F4C9FA227517
:10159300F008E4C833C8C933C933C99AC99B500496
:1015A300C92AC93BD5F0ECFBC833F4C8E4C9FA2215
:1015B300600D08C6A2E713C618C613C6D5E0F3220A
:1015C300600C08C6C313C618C613C6D5E0F4227050
:1015D3000422600D18C6C333C608C633C6D5E0F46B
:1015E3001822251810AF08F518400215198008F5C0
:1015F3001840021519D2AF22C0D0251810AF08F534
:1016030018500205198008F51850020519D2AFD0F9
:10161300D0222518F58210AF08F51840021519805D
:1016230008F51840021519D2AF851983222518F53C
:1016330082E43519F58322E4732518C582C0E0E5F9
:101643001934FFC583C0E0E518C3958224F810AFB1
:10165300088583198582188008858319858218D2A5
:10166300AFCEF0A3E520F0A37808E608F0A3DEFAF6
:10167300EFF0A3E58124FAF8E608F0A3E608F0A367
:10168300E608F0A30808E608F0A3E608F0A315812E
:101693001581D0E0FED0E0F8158115811581E8C0F1
:1016A300E0EEC0E0222518C582C0E0E51934FFC58D
:1016B30083C0E0E518C3958224F910AF0885831928
:1016C3008582188008858319858218D2AFCEF0A34E
:1016D300E520F0A37808E608F0A3DEFAEFF0A3E52F
:1016E3008124FBF8E608F0A3E608F0A30808E6085F
:1016F300F0A3E608F0A315811581D0E0FED0E0F851
:1017030015811581E8C0E0EEC0E0228519838518B4
:1017130082E0A3FEE0A3F5207808E0A3F608DFFA51
:10172300E0A3FFE0A3C0E0E0A3C0E0E0A3C0E0E0EB
:10173300A3C0E0E0A3C0E010AF0885821885831939
:101743008008858218858319D2AFD083D0820201A5
:1017530035851983851882E0A3FEE0A3F520780878
:10176300E0A3F608DFFAE0A3FFE0A3C0E0E0A3C034
:10177300E0E0A3C0E0E0A3C0E010AF0885821885D5
:1017830083198008858218858319D2AFD083D082CC
:1017930022C0D02518C582C0E0E51934FFC583C037
:1017A300E0E518C3958224F310AF08858319858279
:1017B300188008858319858218D2AFC8F0A3E9F091
:1017C300A3EAF0A3EBF0A37908E709F0A3D8FAECB6
:1017D300F0A3EDF0A3EEF0A3EFF0A3D0E0F0A3D0DD
:1017E300E0F0A3D0E0F0A3E520F0A3E5F0F0A3221E
:1017F300851983851882E0C0E0A3E0F9A3E0FAA38A
:10180300E0FBA37808E0F608A3DFFAE0FCA3E0FD21
:10181300A3E0FEA3E0FFA3E0C0E0A3E0C0E0A3E0F9
:10182300F5D0A3E0F520A3E0A3F5F010AF0885837E
:10183300198582188008858319858218D2AFD082D2
:10184300D083D0E0F8D0E0327404800674028002C2
:101853007401C0E0F404121615D0E01214EB2274E4
:1018630004800474028000CCC0E0EDC0E0E518C33E
:101873009CCCAD1950011D10AF068C188D19800634
:101883008C188D19D2AF1214F8D0E0FDD0E0FC22F1
:10189300D083D082E9C0E0E493A3C386F0C5F0957A
:1018A300F0F908E493A386F0C5F095F0700BE49388
:1018B300A3C3994005E9048002A3E475F002A425BB
:1018C30082F582E5F03583F583D0E0F9E493A3C094
:1018D300E0E493C0E022D083D082ECC0E0EDC0E02E
:1018E300E493A3FCE493A3FDED4C600D121925ECE6
:1018F30024FFFCED34FFFD80EFE493A3FCE493A30A
:10190300FDED4C600D121964EC24FFFCED34FFFD7A
:1019130080EFD0E0FDD0E0FCE493A3C0E0E493C00B
:10192300E022C0E0C3E49396087401939618400F35
:10193300E49366700808740193661870007019A325
:10194300A3C3E49396087401939618A3A3400DD000
:10195300E0D0E0D0E0021915A3A3A3A3A3A3D0E092
:1019630022C0E0C0F088F0E4936670080874019325
:1019730066187000A8F0A3A3700BD0F0D0E0D0E0FD
:0C198300D0E0021915A3A3D0F0D0E022A0
:1019900074F51216A8EAFEEBFFEE2434F8EF3400DB
:1019A000F988088909EE2435121AC8F8EE2437128E
:1019B0001AC8F50AEC850AF0A4FCAAF0850AF0ED35
:1019C000A42AFDE82CF8E43DF97A257B0012155A8B
:1019D000EA850882850983F05407F87401B800028B
:1019E0008004C333D8FCC0E0E0131313541FF8EE97
:1019F00028F8EF3400F9E8245DF582E93400F58336
:101A0000D0E0F8E0586008850882850983801DEEE3
:101A10002436121AC8F5F0EA84A8F0EE28F8EF345C
:101A200000F9E82438F582E93400F583E0F97F0411
:101A300002175474F51216A8EAFEEBFFEE243412D6
:101A40001AC8C0E0EE2435F582EF3400F583D0E00B
:101A5000F08E828F83A3A3A3A3A3E0FAA3E0FB8E5F
:101A6000828F83A3A3A3A3A3A3A3E0FCA3E0FDEC25
:101A7000C39AF50AED9BF50BEE2480F508EF3400D0
:101A8000F509850882F583E06401702BEE2481F569
:101A900082EF3400F583121866121AD174021215FF
:101AA000FBE960137CFD7D04EEFAEFFB120B32853F
:101AB0000882850983E4F0AC0AAD0BEEFAEFFB1265
:101AC000199012228A021A2EF582EF3400F583E073
:101AD00022C082C083851882851983E0F8A3E0F9CB
:101AE000C3EA9CEB9D5012C3EC98ED994019C3EAF0
:101AF00098EB99501279018010C3EA98EB9940F560
:101B0000C3EC98ED9950EE7900D083D08222EAC3DD
:101B10009CFAEB9DFB2200008521878522C622C00E
:101B2000E074EF121794759B00906182E0A2E6408A
:101B300003021BE0E591A2E64003021BE07591BFA2
:101B40009003C2E064057008120CD0120CDC800314
:101B5000120CD6752100120D48E99003C3F07900EC
:101B6000120D3C120A9C7A017B009003C1E0F9122D
:101B70000FFA907803E064426003021C2990055F2D
:101B8000E014F06003021C29C2AF121B8D00782AFA
:101B9000D0E0F618D0E0F6E59F5407F97005908F75
:101BA000748003908F7878081214B5E9C4C0E07887
:101BB00029E65508F50808E65509F509740B780873
:101BC0001215C3D0E02508F8906270E0A2E740F853
:101BD000E8C333906272F0906270E0D2E0F0804926
:101BE000E0A2E55024E591A2E5501E7591DF900337
:101BF000C2E0640D70139003E4E004F06428700206
:101C0000E4F07A00E0F9120DBA906181E0A2E350AD
:101C100009E5E9A2E3500375E9F7A3E0A2E750095B
:101C2000E591A2E7500375917F7F040217F3C0E0AE
:101C3000C0D0C082C083906183E0A2E05009E5BFBC
:101C4000A2E0500375BFFEE0A2E15009E5BFA2E1AA
:101C5000500375BFFDE0A2E25009E5BFA2E25003C8
:101C600075BFFBE0A2E35009E5BFA2E3500375BFD7
:101C7000F7E0A2E45009E5BFA2E4500375BFEFE02E
:101C8000A2E55009E5BFA2E5500375BFDFE0A2E67B
:101C90005009E5BFA2E6500375BFBFD083D082D004
:101CA000D0D0E032C0E074F2121794E5A7A2E4505D
:101CB0000FE5A1A2E4500953A7EF75A1EF121CF89C
:101CC000E5A7A2E5500CE5A1A2E5500653A7DF75F4
:101CD000A1DFE5A7A2E15009E5A1A2E1500375A1AA
:101CE000FDE5A7A2E2500CE5A1A2E2500653A7FB36
:101CF00075A1FB7F010217F374F81216A875210174
:101D00009003C2E0640670077A007B00120CB8A250
:101D1000AFE433FED2AF9003C8E0640170187A20BC
:101D20007B009003C1E0F91210787A207B009003C9
:101D3000C1E0F9121000906182E0D2E6F090055EF9
:101D4000E0602185C62280169003C7E06401700818
:101D5000E5C654F84405F5C653BEFC121B187401C1
:101D6000652160E4EEA2E092AF7F0102175400000B
:101D70008E238F2485822885832785188285198361
:101D8000E0CEA3E0CF852882852783EBC9EAC8EDA2
:101D9000CBECCA75F010C3E833C8E933C9EA33CADB
:101DA000EB33CBC3EA9EF526EB9FF525B35004AB8E
:101DB00025AA26EC33CCED33CDD5F0DAAE23AF2413
:101DC0002274E91216A874FA1215E5EAFEEBFF8CEC
:101DD000088D099003C2E024F7C394055006908F44
:101DE000D4021EE8120C348A0A8B0BEA450B7003EE
:101DF000021EE5120CEE8A0C8B0D120CEEEA650C3D
:101E00007003EB650D60ECEEFCEFFD851882851923
:101E100083AA82AB83120CF4850A82850B83A3A369
:101E2000780C1214B5908F90780C12148F8518824C
:101E300085198378141214B5908F90781412148F2A
:101E4000780C79141212C7501F780C791412146789
:101E5000908F98780C1212E74047850C10850D1171
:101E6000850E12850F138041851410851511851676
:101E7000128517137810790C121467908F987810C8
:101E80001212E7501C7510007511007512007513C1
:101E900001781079141214677810790C12142E80BE
:101EA00008908FD478101214B57409781012140F9A
:101EB000908F9C780C1214B57810790C12138690C0
:101EC00003C2E06408600AE064066005E06405702F
:101ED0001C908FA478101212E75012908FA07810E7
:101EE0001214418008908FD878101214B58508829A
:101EF00085098378101214C474061215FB7F100232
:101F0000175474F71216A8120D0690055CE06401D0
:101F10007010906245E4F0A3F053F4F343FE0C53C9
:101F200090F3120CA6E5C654804449F5C6E59E54CC
:101F30007F644970F8906185740FF090055AE0F461
:101F40007002A3E0602C75080175090090055AE045
:101F500078081215D2E508F4FAA3E0600814600AC4
:101F600014600C800DEA52808008EA52908003EAE7
:101F700052A079007F0202175474F71216A8E9FEE6
:101F8000EAFF74016E700C7A807B009003C1E0F967
:101F9000120FFA9023F4E493F46008E493F9120A20
:101FA0007E800953C680E59E547F70FA120CAC9077
:101FB000055CE064017003120AB490055AE0F47005
:101FC00002A3E0602A75080175090090055AE078BF
:101FD000081215D2AA08A3E0600814600A14600C65
:101FE000800DEA42808008EA42908003EA42A01213
:101FF0000C348A088B09A808A909E8496017E5E1AB
:1020000070FCE82414F582E93400F583E0F874FFED
:1020100068600288E174016F700A7A019003C1E080
:10202000F912104E021F7474F11216A88A088B0957
:102030008C0A8D0B740F121630780C1214B5908F19
:1020400090780812148F908F90780C12148F780863
:10205000790C1212C750157808790C121467908FFA
:102060009878081212E7401579018013780C7908E6
:10207000121467908F98780C1212E740EB79007F6A
:102080000802175474ED1216A88A088B098C0A8D61
:102090000B7413121630780C1214B5908F907808C8
:1020A00012148F908F90780C12148F780C7908127C
:1020B00012C740117808790C121467AA08AB09AC52
:1020C0000AAD0B8022751000751100751200751392
:1020D000017810790C1214677810790812142EAA5E
:1020E00010AB11AC12AD137F0C021754908F907887
:1020F000081214B58A828B8378081214A27F040216
:10210000175474F51216A88C828D8378081214B5B2
:102110008A828B83780812147B122156C3E098F0D0
:10212000A3E099122148401E908FC078081214B580
:102130008A828B8378081214548E828F83E0242045
:10214000F0A3E0344EF080A4F08E828F83C3E0943D
:1021500020A3E0944E22EA2404F8EB3400F9E8FED0
:10216000E9FF8C828D83A3A3A3A3E0F8A3E0F98EFB
:10217000828F832274F51216A8E9FE900514E0FA06
:10218000A3E0FBEEC333F8E433F974E928F5827475
:102190008E39F583E02AF508A3E03BF509780812AB
:1021A000184F908FE41214D3121D7074021215FB95
:1021B0008A088B098C0A8D0B741078081213F6AA02
:1021C00008AB097F0402175474F11216A88A0C8B0D
:1021D0000D8C0E8D0F740F121630E0FAA3E0FB7415
:1021E00011121630E0F508A3E0F509741312163049
:1021F000E0FEA3E0FF780812184FEA2401F508EB8F
:102200003400F509E4F50AF50B780C790812130689
:10221000908FAC78081214B5780C7908121306AABE
:102220000CAB0DAC0EAD0F121D7074021215FB8BB2
:1022300009EA450960047A0180027A00EC2AFCED83
:102240003400FDECF8EDF97A717B0212155A88081A
:102250008909E4F50AF50B8E828F8378081214C47D
:10226000ECF8EDF97A717B0212155A8A088B097421
:102270000578081215D28E828F83A3A3A3A3E50845
:10228000F0A3E509F07F08021754C082C083E990EB
:102290006000F0D083D08222C0E0C0D0E8C0E0E986
:1022A000C0E0EAC0E0EBC0E0ECC0E0EDC0E0EEC0B2
:1022B000E0C082C083C0F0A2AFE433FED2AFC2C0A0
:1022C000E5D1A2E4500653D1EF1211B6751A00EE13
:1022D000A2E092AFD0F0D083D082D0E0FED0E0FD7B
:1022E000D0E0FCD0E0FBD0E0FAD0E0F9D0E0F8D0CC
:1022F000D0D0E032C0E0C0D0E8C0E0E9C0E0E5A85E
:10230000D2AFC2C7751A00A2E7A2E792AFD0E0F938
:10231000D0E0F8D0D0D0E032C0E0C0D0E8C0E0E9F2
:10232000C0E0C008C009C082C083A2AFE433F9D2C4
:10233000AF9009DAE0F8A3E0687008539AFBA37441
:10234000018026C2E99009DAE0F50874012508F059
:10235000745A2508F58274093400F583E0F5C190BC
:1023600009DAE0C394804002E4F0900C96E0600249
:1023700014F0E9A2E092AFD083D082D009D008D087
:10238000E0F9D0E0F8D0D0D0E032C0E0C0D0E8C072
:10239000E0E9C0E0EAC0E0EBC0E0ECC0E0EDC0E0A6
:1023A000EEC0E0C082C083C0F0E5A8FED2AF758960
:1023B00000C2C5C286900C977401F07A207B009011
:1023C0000C95E0F9120FFA751A00EEA2E7A2E79257
:1023D000AFD0F0D083D082D0E0FED0E0FDD0E0FCE2
:1023E000D0E0FBD0E0FAD0E0F9D0E0F8D0D0D0E0F7
:1023F00032020135FFFFFFFFFFFFFFFFC082C083F6
:10240000E9900DCAF002261B74F712163CE99002FF
:10241000E0F07C187D037AFF7BFF1207BA9002E19F
:1024200074FFF0A3F0A3E4F0A3F07905120748903D
:1024300002E0E0F91206767AD27B071209940233A1
:102440002974F412163C8A088B09EB548060309092
:1024500002E0E0F9120FF48A0A8B0BAE0AAF0BEE22
:102460004F60138E828F83E064B0700312075AEEC0
:10247000FAEFFB120FE2AA08E5096480FB80047AF8
:10248000007B000225EA74F212163C74FC1215E57A
:10249000EAFEEBFF7412121630123810EE4F700382
:1024A0000225297402121630EEF0A3EF122825EC53
:1024B000F0A3ED122825AA82AB83120670E9F50A73
:1024C000706AE508450960648E828F831237F6EEE4
:1024D0004F60567A067B001210368A0C8B0DA80CC2
:1024E000A90DE8497005750A13804188828983E443
:1024F000122536EEF0A3EF123821E508F0A3E50926
:10250000F09002E61225BD9002E670051232D380EB
:102510001B1232C18003EAFCEBFD8C828D831225F5
:10252000BD70F38C828D8380E3750A02A90A74045E
:102530001215FB023A10F0A31237C7A32274F2124D
:10254000163C890AE975F017A4FEAFF09002E5E4A5
:10255000F09002E31225BD600A12103C9002E3E401
:10256000F0A3F0EEFAEFFB1210368A088B09EA4569
:1025700009602FEEFCEFFD7900120FD09002E3E529
:1025800008F0A3E509F07B0080081225A7E4F0A37A
:10259000F00BEBC3950A40F2E50A9002E5F07900F2
:1025A00080027913023A10EB75F017A4F8A9F090A5
:1025B00002E3E028FAA3E0398A82F58322122F652C
:1025C000EA4B2274F412163C7900EAA2E0501B7523
:1025D000085C75098F780812184F7C047D007ACC4E
:1025E0007B0D12074274021215FB7F0402170EC006
:1025F00082C0839002E6122622601C88828983A30F
:10260000A3E06A7003A3E06B8882898370E8A3A3C8
:10261000A3A3122F6180047A007B00D083D08202B2
:102620000135123AF6E8492274EE12163C74FC1297
:1026300015E5EAFEEBFF851882851983E4F0A3F027
:10264000EE24021232B3EE24051237CEEE2404F546
:102650000EEF122BDAE024FE603924FC604624FEE3
:10266000605224FE605E24FE700302273B24FE704D
:102670000302279F24FE70030227AE24FE7003028C
:1026800027BD24FC70030227CC24FE70030227DB45
:102690000228189002FF7417F0A3E412282D1203E9
:1026A000F4022818851882851983AC82AD8312073D
:1026B000600227E8851882851983AC82AD831207F2
:1026C000660227E8850C08850D097402121630ACE5
:1026D00082AD83850882850983122F611206948A50
:1026E0000C8B0DAC0CAD0DEC4D603BE4F50CF50D19
:1026F000780C12184F750CFF750D02780C12184FDC
:10270000750C00750D03780C12184F7408121630F2
:10271000121866123B1A1215FBE9F50C700B122FFA
:102720005712040C800F750C0185088285098312ED
:10273000281B1232D3850C080227EB7402121630C4
:10274000AC82AD83850C82850D83122D2C603C8577
:102750000C82850D83A3A31218667510FF751102F4
:10276000781012184F751000751103781012184F59
:102770007408121630121866123B1A1215FBE9F58E
:1027800009700B122F57120412800F750901850C66
:1027900082850D8312281B1232D3850908804C854F
:1027A0001882851983AC82AD8312076C803A851834
:1027B00082851983AC82AD83120772802B851882C3
:1027C000851983AC82AD83120778801C85188285B9
:1027D0001983AC82AD8312077E800D85188285191E
:1027E00083AC82AD83120784E9F508E50860298E81
:1027F000828F83A3E06414601F850E82850F83E0BF
:102800009002FF122825123AF29003001232D3E50B
:1028100008A312282D1203EE0231C2123AF68518CF
:102820008285198322F085188285198322F07CFF26
:102830007D02850A82850B83122F652274EE1216A3
:102840003C74FC1215E58A0A8B0B8C0E8D0FEA2462
:1028500005F508EB3400F5097C157D0079007AFF59
:102860007B02120FD0E5082402F50CE5091237D1DE
:102870008518828519838582108583117810121836
:102880004F850882850983A3A3A3A3122D231218C1
:102890004FE5082405F510E5093400F5117810120C
:1028A000184F850C82850D8312307812068E7406BF
:1028B0001215FB8A108B11AE10AF11E50A2402F538
:1028C0000AE50B1232B6EE4F70030229FA80177434
:1028D00002121630122F6188828983EAF0A3EBF08E
:1028E0009002FFE004F09002FFE0C3940540030271
:1028F00029FAE4F510F511781012184F7510E875E3
:102900001102781012184F7510E975110278101223
:10291000184F74061216301218667910EEFCEFFD8F
:10292000123B1C1215FBE9705E850882850983A3A2
:10293000A3A3A3A3A3A3E0F89002E8E06870481261
:102940002D2312184F7CE97D02E5082408FAE509D9
:102950003400FB120FCA74021215FBE960298E8243
:102960008F83A3A3A3A3122F619002FFE0F510743D
:102970000278101215D274002510F58274033511F7
:10298000F583EAF0A3EBF07402121630858210850D
:102990008311781012184F740212163012186685BF
:1029A0000C82850D83122F871215FB8A108B11AEB6
:1029B00010AF119002FFE0F510751100740278104D
:1029C0001215D274FF2510F874023511F988828926
:1029D00083A31225BD70030228C6E8240308080853
:1029E000E93400F9EE4F60030228CF8882898374AE
:1029F000FFF0A3F09002FFE004F09002FFE0600A15
:102A0000122F571204007900800B850882850983F4
:102A10001232CA790A0231C274EA12163C74FE12EA
:102A200015E58C128D13EA2405F50CEB123B04120C
:102A300037FA750800750900EA2402F510EB340036
:102A4000F51185188285198385820A85830B780A9A
:102A500012184F850C82850D83A3A3A3A3122BF01C
:102A600012184FE50C2405F50AE50D1232B6780A66
:102A700012184F850C82850D83122BF412068E746A
:102A8000061215FB8A0A8B0BEA450B7003022B9585
:102A9000EA2404F50EEB122BDA1237FA8A828B83C2
:102AA000A3A3A3E0F9851082851183122F6B600325
:102AB000022B95E4F514F515781412184F7514E8E7
:102AC000751502781412184F7514E97515027814EB
:102AD00012184F74061216301218667913AC0AAD2C
:102AE0000B851082851183123B221215FBE9F50933
:102AF0006003022B959002E8E0F8E5087009E024F5
:102B000002900300F08014900300E0FCE82402FA35
:102B1000E43400FBEA6C7001EB707E850882AA82C7
:102B2000122D1A9414122D12506B850E82850F836C
:102B3000E0C0E074012A122BD1D0E0F00508850E28
:102B400082850F83A3E0C0E085080A7401250A127C
:102B50002BD1D0E0F005089002E8122BF012184FAC
:102B60007CE97D0285080A7401250A122BE41215FE
:102B7000FB9002E8E02508F50874FF6E700374FF0F
:102B80006F6012EE24010EEF3400FFE508C39414C9
:102B90005003022A42E5086013122F7585108285C2
:102BA0001183122F6112040679008014E509700365
:102BB00075090A851282851383EEF0A3EFF0A90947
:102BC00074021215FB7F0E02170E85080C74012586
:102BD0000CF58274033400F583223400F50F850E62
:102BE00082F58322FA74033400FB120FB8740222B8
:102BF00012383022A3A3122BFA221232C1FDEEFAB0
:102C0000EFFB2274EE12163C74FE1215E58C0E8D4D
:102C10000FEA2405F50CEB1237D1750B009002FF7B
:102C2000E4F0F50AEA2402F508EB3400F5098044E3
:102C30009002FFE0FA9002E8E0F8122D1A941712C1
:102C40002D12400D9002FFE0F87416C3989002E830
:102C5000F0122D2312184F7CE97D0274002AFA74B9
:102C600003122BE71215FB9002E8E0F89002FFE058
:102C700028F0050AE50C2416F582E50D122BD5E0A7
:102C8000F8E50AC39850749002FFE0C39416506BA5
:102C9000E50AC333F8E433F9E50C28FEE50D39FF06
:102CA000851882851983AC82AD838E828F83122D25
:102CB0002C7008750B011232C68050E4F510F51126
:102CC000781012184F7510E8751102781012184F0D
:102CD0007510E9751102781012184F74061216302B
:102CE0001218667916850882850983123B2212150F
:102CF000FBE9F50B7003022C3080BB7CFF7D028565
:102D00000882850983122F61120418A90B7402022C
:102D100031C4E99400C365D03322EA28F8E43400D2
:102D2000F9E822E0F5107511007810221231B98A05
:102D3000108B11AC10AD11EC4D2274EA12163C74DC
:102D4000FC1215E58A0C8B0D8C128D13EA2405F507
:102D50000AEB1232B6750800750900E50A2402F57F
:102D600010E50B3400F511740212163085820E85C1
:102D7000830F780E12184F850A82850B83A3A3A3B5
:102D8000A31237D612184FE50A2405F50EE50B34C9
:102D900000F50F780E12184F8510828511831232BC
:102DA000BC122F5B12068E74061215FB8A0E8B0F57
:102DB000AE0EAF0FE50C2402F50EE50D3400F50F55
:102DC00080388882898374FFF00508122BCA74FF4B
:102DD000F005089002E8E0F50C750D00780C12186B
:102DE0004F7CE97D0285080C7401250C122BE4123E
:102DF00015FB9002E8E02508F508EE4F60278E826B
:102E00008F83A3A3A3E0F9850E82850F83122F6B16
:102E1000EE24041237CEE96027850C82850D8312DB
:102E20002F4D1232D3E5087003022F33122F758510
:102E30000E82850F83122F6112041E7900022F4823
:102E4000E4F514F515781412184F7514E875150289
:102E5000781412184F7514E9751502781412184F6A
:102E600074081216301218667911EEFCEFFD850E0B
:102E700082850F83123B221215FBE9F509709A85B2
:102E80000882AA82EA9002E87009E0240490030014
:102E9000F08025E0F8900300E0F514E82404FCE459
:102EA0003400FDEC65147001ED7081122D1A94123E
:102EB000122D124003022E2C850C82850D83E0C05A
:102EC000E074012A122BD1D0E0F00508850C828530
:102ED0000D83A3E0C0E0122BCAD0E0122F908582B0
:102EE0000C85830D780C12184F74041216301218CA
:102EF00066851082851183122F871215FB8A0C8B31
:102F00000DAE0CAF0D85080C7401250CF87403345C
:102F100000F9EE4F7003022DC2851882851983E0F7
:102F200088828983122F90A3E0C0E0122BCAD0E0E0
:102F3000022DD0E509700375090A850A82850B8385
:102F4000122F4D1232D3A9097404022BC2123AF681
:102F5000851282851383227CFF7D02850A82850B80
:102F600083122F6522E0FAA3E0FB22122F651206DE
:102F70007CE9F50922900300E0F5F0E50884900271
:102F8000FFF07CFF7D0222122BFA12069A740422B3
:102F9000F005088518828519832274EC12163C749A
:102FA000FE1215E58A088B098C0E8D0FEA2405FEAA
:102FB000EB3400FF1231A3EE24181237CEEA450B92
:102FC000700302304612318C502912306B8A108BFC
:102FD00011EA4511606B7912AC0AAD0B8508828548
:102FE0000983122F6185108285118312163AE9F543
:102FF0000A7058E4F50AF50B780A12184F8E828F82
:1030000083A3A3E0F50A780A12184FEE24031232C4
:10301000B3780A12184F8E828F831230781207A865
:1030200074061215FBE9F50A7021850C82850D8363
:10303000E0701F850882850983122F6112042480A5
:1030400011750A0E8009750A018004E50A600312F1
:1030500032C6850C82850D83E0600479008002A968
:103060000A74021215FB7F0C02170E85188285194F
:1030700083122F65120796221232C1FD85088285C0
:103080000983122F652274EE12163C74FE1215E5A8
:103090008A088B098C0C8D0DEA2405FEEB3400FFA9
:1030A000750E001231A3EA450B700302316A12312A
:1030B0008C502C12306B8A0E8B0FEA450F604A79C8
:1030C00012AC0AAD0B850882850983122F61850E2B
:1030D00082850F8312163AE9F50E600302316D8581
:1030E00008828509831233A8AA0AFB12317E701464
:1030F0007AFF7BFF12317E606C88828983E50AF05B
:10310000A3E50BF0750A008007750E0E805F050AB7
:103110009002E5E0FAE50AC39A504AE50A75F0170D
:10312000A4FAABF088828983A3A3E02AFAA3E03B48
:10313000FB8A828B831232BCEC4D70D2750A1775F4
:103140000B00780A12184FEEFCEFFD120FB8740254
:103150001215FBEEFCEFFD850882850983122F61B5
:1031600012042A8014750E098003750E01123AEEBE
:10317000850C82850D831232D3A90E022D0D120704
:103180008A8A108B11A810A911E84922E5082402A7
:10319000F508E5093400F5098A828B83A3A3A3E02F
:1031A000A2E522851882851983AC82AD838E828F39
:1031B000831231B98A0A8B0B22E0FAA3E0FB1206D4
:1031C000942274041215FB7F0A02170E74EC121677
:1031D0003C8C108D11EA2405F50CEB1237D1750FDC
:1031E00000EA2402F50AEB1232B6850A82F5831250
:1031F0002F61123BA870030232A8750E0080718502
:103200000C82850D83E06401704F8E828F83A3A3AF
:103210001218668E828F83A3A3A3A3E0F512751301
:1032200000781212184FEE2405F512EF3400F51352
:10323000781212184F122F5B1207A874061215FB92
:10324000E9F50F6014850C82850D83E4F0123AEEE7
:103250008510828511831232D37C177D007900EEB0
:10326000FAEFFB120FD08E828F83E4F0A3F0050EED
:103270009002E5E0F8E50EC398501EE50E75F017D4
:10328000A4F8A9F0850882850983A3A3123B0E1236
:1032900032BCEC4D60030231FF85088285098374DE
:1032A000FFF0A3F0E50F7006122F5B120430A90F98
:1032B000023066F50AEF3400F50B22A31232C1FD8D
:1032C00022E0FCA3E0228E828F83123AF6850E82E2
:1032D000850F83E8F0A3E9F022C082C0839002E169
:1032E000E06A7003A3E06B70067AE17B0280047AE7
:1032F000007B0002261B74F712163C7F00EF75F06E
:1033000003A4F8A9F0EC28F8ED39F988828983E064
:103310006A7003A3E06B7006E8FAE9FB800B0FEF1D
:10332000C3940240D87A007B007F0102170E74F626
:1033300012163C1238DF70067A007B008007A3A3C8
:10334000A3A3122F610239A074F212163CE9FE7495
:103350000E1216301233A874101216301238108C58
:10336000828D83E06402703BA3123AF288828983E3
:10337000E0F50CA3E0F9A80C7402687003742969E5
:103380007021750C02750D00780C12184F78081218
:10339000184F780A12184FEEF91207CC740612155E
:1033A000FB80027901023A10E0F50AA3E0F50B2256
:1033B00074E812163C74FB1215E5E985188285192C
:1033C00083F08A168B178C0E8D0F741F1216301215
:1033D000381074211216301233A8742312163012CA
:1033E00037FA7510008C828D83A3A3A3E0A2E4506A
:1033F0002A741D1216301230718A828B83E5824541
:103400008370030234BC790AAC0EAD0FAA16AB1759
:1034100012163AE9F51060030234BF850E82850F5B
:1034200083E064026003023775A3123AF2850882D2
:10343000850983A3858212858313E50E2406F50C86
:10344000E50F1237D188828983E0FAA3E0F9EA24F4
:1034500000F514E439F51578141218D90100002884
:1034600001288434070002285B350328CB34002967
:1034700085360129AD3602295436032985360429BB
:1034800016377537EE4F703E850C82850D831237E7
:10349000EBFAE9FB8A828B83E0850A82850B831233
:1034A000382712184F8A828B83A31232C1FDAA08D3
:1034B000AB09120FB874021215FB800375100EA928
:1034C000107405023AFC75100B80F4EE4F70F7850E
:1034D0000A82850B837401F0123800850882850901
:1034E00083F07C007D00850E82850F83A3A3A3A3B8
:1034F000E02401FAA3E03400FB120694EA4B604199
:103500008A828B83E02402F8850A82850B83E02877
:10351000F0EA2404F8EB3400F988828983E085120C
:103520008285138312383912382712184F8A828BFA
:10353000831232BBE5082403FAE5093400FB0234A8
:10354000B2850A82850B83E02404F07C047D007937
:1035500000AA12AB13120FD00234BFEE4F60030269
:1035600034C6123800FEA3E0FF850A82850B8374FF
:1035700004F0EE850882850983F0EF8512828513B9
:1035800083F07403121630AC82AD83EEFAEFFB12B7
:1035900038CD70030236318A828B83A3A31237F6AB
:1035A000740112163085820E85830F780E12184F23
:1035B00074051216301218667CFF7DFF12069A748D
:1035C000041215FB8B0FEA450F7033850C82850DB5
:1035D000831237D612184F850C82850D83A31218DB
:1035E000667C027D007A0C7B901204C6740412156E
:1035F000FBE9700A740112163074FFF0A3F08E829A
:103600008F83E064027034750C02750D00780C1223
:10361000184F8E828F831232BBE5082404FAE50925
:10362000122BE71215FB850A82850B83E0240280AA
:10363000097401121630EEF0A3EFF0740112163087
:103640001237E7F07401121630A31237DFA3A3A3D9
:10365000F00234BFEE4F60030234C6850C82850D44
:10366000831232BCAA16AB171207C0850A82850BDB
:10367000837402F0EA850882850983F085128285C9
:103680001383EB80CBEE4F60030234C6123800F890
:10369000A3E0F9850A82850B837402F0E88508822D
:1036A000850983F0E985128285138380A3850C82C6
:1036B000850D83122F61120FB2EAFC8C82A882C39F
:1036C0009EE49F404BE86E7001EF70047C00801F09
:1036D000851882851983E0FAEE2AFAEF3400FBC3DD
:1036E000EA98EB94005003E08004EECCC39CFCEC21
:1036F000850A82850B83F08C0A750B00780A1218F4
:103700004F850C82850D83E02EFCA3E03F0234AD93
:103710007510070234BFEE4F60030234C6850C8279
:10372000850D83123AF2850A82850B837407F0882F
:103730008289831237DF1237C7E0851282851383AF
:10374000F0E82402FAE93400FB8A828B831237DF27
:103750001238181237E7A31238211237F0F0E82494
:1037600005F8E93400F9888289831237F0A312380A
:1037700039A302364D741D1216301238D870030268
:1037800034BC123AF2880C890DE8450D70030234FE
:10379000BC8E108F11781012184F780A12184F78BB
:1037A0000812184F7406121630E0F9AC0EAD0FAACD
:1037B00016AB17850C82850D8312163A7406121506
:1037C000FBE9F5100234BFF088828983A322F50C4F
:1037D000EF3400F50D22E0F50E750F00780E22E0B3
:1037E0008508828509832212384022123AF6E8229F
:1037F000123840A3A322A3A3A3A3E0FEA3E0FF22C9
:10380000850C82850D83E0F8A3E0F5838882E022B1
:10381000E0F508A3E0F50922A3A3F08A828B83A335
:1038200022122538A3A322F08A828B8312383022F9
:10383000E0F50A750B00780A221237C712384022C9
:10384000E0850882850983A3A32274EE12163C74D6
:10385000FE1215E58A0A8B0BECFAEDFB74141216B6
:1038600030E0F510A3E0F5117416121630E0FE7486
:1038700018121630E0F50EA3E0F50F8518828519B1
:1038800083AC82AD831238CD603E85188285198362
:103890001238D8602FA3A3123810E5084509602418
:1038A000780E12184F781012184FEEF9AC0CAD0DBF
:1038B000AA0AAB0B85088285098312163A74041292
:1038C00015FB8006790E80027901022D0D120694F7
:1038D0008A0C8B0DEA450D22122F651238DF221259
:1038E00007548A828B83E58245832274F612163C44
:1038F00074FE1215E5740C1216301237EB8518821F
:10390000851983F07401121630E9F0E4F508F50921
:10391000780812184F750802780812184F740412AC
:103920001630858208858309780812184F1207A877
:1039300074061215FB74021215FB806474F71216DC
:103940003CEAFEEBFF89087C187D031207C0EA54AD
:1039500002600BA908EEFAEFFB12068880027901DB
:1039600002332974F612163C74FF6A700374FF6BFD
:10397000701C7B00EB75F003A4F8A9F0EC28F8EDBF
:1039800039F91239A50BEBC39402501480E61207E3
:10399000908A088B09A808A909E84960031239A58B
:1039A0007F0202170E8882898374FF122536E4F0A5
:1039B0002274F612163C1207908A828B83E58245A8
:1039C000836006A3A3E0FA80027A007B0080D174B2
:1039D000F212163C8A088B09ECFEEDFF740E1216EB
:1039E00030E0F50A123A15701CEEFCEFFD7AFF7B11
:1039F000FF123A1570047911801688828983E508D0
:103A0000F0A3E509F088828983A3A3E50AF0790091
:103A10007F0602170E1207908A0C8B0DA80CA90DB9
:103A2000E8492274EE12163CEAFEEBFF8C088D0981
:103A3000890C7412121630123AF2741412163012E3
:103A400032BC7416121630122F61750D00EC4D60E9
:103A500003023AE67402650C6003023AE188828947
:103A6000831232C1F9EC2400F50EE439F50FEAF4C3
:103A7000F8EBF4F9EC58F8E50F59F9E849705DE511
:103A8000082406F8E5093400F9880A890B8882F5CC
:103A900083122BF61207C08A108B11E50E65107089
:103AA00004E50F65116042780E12184F850A828571
:103AB0000B83122BF61207C674021215FBE9F50DE3
:103AC0007027780E12184F850882850983A3A312E8
:103AD0002BF41207D874021215FB800D750D80802F
:103AE00008750D0D8003750D0BA90D0231C78E826F
:103AF0008F83123AF622E0F8A3E0F9221215FB7F39
:103B00001002170E3400F50D850C82F58322E02893
:103B1000FEA3E039FF8E828F83227916850A828583
:103B20000B83122F651207A274082274F212163C3E
:103B3000EAFEEBFF890B7401650B600E7402650BE6
:103B4000706379011209B2E9705BEEFAEFFB123B88
:103B5000A86047750A00800B7C177D007900120F62
:103B6000D0050A9002E5E0F8E50AC3985021E50A7D
:103B700075F017A4F8A9F0850882850983A3A3E04E
:103B800028FAA3E039FB8A828B8312262270C9852A
:103B9000088285098374FFF0A3F07C187D03EEFA98
:103BA000EFFB1207BA023A1012078A8A088B09EA59
:103BB00045092274F212163C8A088B09ECFEEDFFCF
:103BC000740E1216301233A8900DCAE0F4603D7ADC
:103BD000097B00120FDCEA4B60328A828B8374B15E
:103BE000F0A3E412381AA3123818A3E508F0A3E5ED
:103BF00009123C0FEEF0A3EF123C0FA3A3E50AF06D
:103C0000A3E50BF0900DCAE0F9120FE8023A10F0AC
:103C10008A828B83A3A3A3A3A32274EC12163C89EC
:103C20000A7F008A088B09780812189300040D0493
:103C30003E4D3C6B3C873CA53CC33CE13C033D21F5
:103C40003D353D693D963DAD3DC43DDF3D7401656B
:103C50000A6003023E008C828D83E0F8C394034027
:103C600003023E00E8900EB6023DDC7402650A6075
:103C700003023E008C828D83E0F8A3E0F9900EB73A
:103C8000E8F0A3E9023DDC7401650A6003023E002E
:103C90008C828D83E0F8C394024003023E00E890DA
:103CA0000781023DDC7401650A6003023E008C82DC
:103CB0008D83E0F8C394054003023E00E89007823C
:103CC000023DDC7401650A6003023E008C828D8334
:103CD000E0F8C394024003023E00E8900783023DEF
:103CE000DC7410650A6003023E007508108F0978C5
:103CF0000812184F7A847B07120FB874021215FB52
:103D0000023E257401650A6003023E008C828D83A9
:103D1000E0F8C394024003023E00E8900794023D9D
:103D2000DC7401650A6003023E008C828D83E090A2
:103D30000EBA023DDC7404650A6003023E008C8208
:103D40008D83780C1214B575104075114275120FE1
:103D50008F137810790C1212C74003023E009007AF
:103D600096780C1214C4023E25E96003023E00124C
:103D70000634E9701A7E00EEF91210F0E9F80EEE42
:103D8000C3940A5003E860EF7950121216806C90C9
:103D90000829740180467401650A70648C828D83E1
:103DA000E0F8C394025059E8900795802F7401659C
:103DB0000A704D8C828D83E0F8C3940A5042E890DB
:103DC0000EB980187401650A70368C828D83E0F814
:103DD00074F928C3940A5028E8900EBBF08046740A
:103DE00001650A701B900828E0F88C828D83E090B2
:103DF0000828F0E8702FE06401702A1210EA80258C
:103E00007F188021C3EA9426EB9400501674026553
:103E10000A70108C828D83E0FCA3E0FD1204D2E9CD
:103E2000FF80020F0FEFF97F0C02170E74F01216CD
:103E30003C74B11215E58C0A8D0B7420121630AC4F
:103E400082AD8375838F75826874061214F87420AE
:103E5000121630AC82AD831210C6E9FF745F1216E1
:103E600030E0F50CEFC3940A400302402A75F006D7
:103E7000EFA4F5087441121630AC82AD837A0E744B
:103E8000202508F9121210E97009744D121630E05D
:103E9000FE80027E00900EB6E064027005750E0191
:103EA0008003750E007408650C700474228002741F
:103EB000212508F5097C1B7D007900742612163037
:103EC000AA82AB83120FD07426121630AC82AD8357
:103ED0007A1BA909121210E970317440121630E0F1
:103EE00024F9C3940A5024E50EF5097809121853F1
:103EF0007427121630AC82AD83EEA2E0E433F9AA47
:103F00000AAB0B12057474011215FB7C147D007949
:103F100000740C121630AA82AB83120FD0740C12EC
:103F20001630AC82AD837A1074242508F912121071
:103F3000E9703C7C1079FF740C121630AA82AB83B6
:103F400012101EE97029741C121630AC82AD837AEF
:103F50000474252508F9121210740C121630AC8264
:103F6000AD83EEA2E0E433F9AA0AAB0B12055C853F
:103F70001882851983AC82AD837A0C74702FF91284
:103F80001210E96003024019851882851983A882FE
:103F9000A98388828983E0F4FAA3E0F4FB8882890C
:103FA00083EAF0A3EBF0E82402F582E93400F5831C
:103FB000E0F4F0E82403F8E93400F9740C12163048
:103FC000E582687003E5836970C87F008518828583
:103FD0001983858208858309850882850983E0FC29
:103FE000A3E0FDEC4D601F850882850983A3A3E053
:103FF000F50E750F00780E12184FAA0AAB0B1207B8
:10400000AE74021215FB0FE5082403F508E5093428
:1040100000F509EFC3940440BFEEA2E1500C9007F5
:1040200080E0F9AA0AAB0B1207B47404650C702780
:10403000900EB6E06402701F7A00900794E0600171
:104040000A900781E06004780480027800E84AF969
:10405000AA0AAB0B12061C7900744F1215FB7F08DD
:1040600002170E74EE12163C74E21215E58A0A8BE2
:104070000BECFEEDFF75080AE9600F14600C14608C
:10408000701470030241370241BF750E00750C9C1D
:10409000750D07751006751100781012184FAC0ACF
:1040A000AD0BAA0CAB0D120FCA74021215FBE9601E
:1040B00026850E08E508C3940A40030241BFEE4F6F
:1040C00070030241BF750C06750D00780C12184F75
:1040D000AC0AAD0B0241B3050EE50C240EF50CE560
:1040E0000D3400F50DE50EC3940A40030241BF8074
:1040F000A2750E00750CA2750D07751006751100DE
:10410000781012184FAC0AAD0BAA0CAB0D120FCAE7
:1041100074021215FBE96005850E08805C050EE54A
:104120000C240EF50CE50D3400F50DE50EC3940AD4
:1041300040030241BF80C3750C00750D23740E123D
:104140001630AC82AD837A10A90D121210E9707688
:104150007C1079FF740E121630AA82AB8312101EE7
:10416000E97063AC0AAD0B740E121630AA82AB83F1
:1041700012053EE97050850C08E508C3940A503FCB
:10418000EE4F603B851882851983AC82AD837A0E31
:1041900075F006E508A42420F9121210E9702075C4
:1041A0000A06750B00780A12184F7402121630AC0A
:1041B00082AD83EEFAEFFB120FB874021215FBA961
:1041C00008741E02477A050C7406250DF50DE50CE2
:1041D000C3940A50EA02413D74F412163C74F21280
:1041E00015E5890875091574FF6A700374FF6B6023
:1041F000030242767E20851882851983AC82AD83C6
:104200007A0EEEF9121210E970527C0679FF8518C9
:1042100082851983AA82AB8312101EE9703E740C4A
:10422000121630E0F8A3E0F9E8FAE5086005EAD2F2
:10423000E18003EAC2E1FAE86A7001E9601B740CEC
:10424000121630EAF0A3E4F0851882851983AC8257
:10425000AD837A0EEEF912120A75090074062EFE6D
:10426000745C6E7091E50870030243317A087B112B
:104270001209C40243311209A68A0A8B0BAE0AAF97
:104280000BEE4F700302432E7C007D00EE2405FAF6
:10429000EF3400FB8E828F83A3A3A3A3E0F9121057
:1042A000C6E9F8C3940A506E75F006E8A42420F518
:1042B00009851882851983AC82AD837A0EF91212B2
:1042C00010E9704F7C0679FF851882851983AA82D0
:1042D000AB8312101EE9703B740C121630E0F8A389
:1042E000E0F9E8FAE5086005EAD2E18003EAC2E114
:1042F000FAE86A7001E9601B740C121630EAF0A348
:10430000E4F0851882851983AC82AD837A0EA90901
:1043100012120A750900E5086017900780E0F98E0F
:10432000828F83A3E0FAA3E0FB1207B48003750930
:1043300014A909740E1215FB024E2EC082C0839080
:10434000079AEAF0A3EBF0900780E0FC7D007A2565
:104350007B001204D2900780E0F9120730D083D09E
:104360008202013574EE12163C74EC1215E5EAFE79
:10437000EBFF8E828F83A3A3E024FA700302474AE7
:1043800024FD7003024621147003024438146010A7
:1043900024FD70030245DF14700302465B02477878
:1043A00090079AE0F8A3E0F9E849605CE0F58388BB
:1043B00082E0F8A3E0F988088909E845096049EE38
:1043C000240CF582EF3400F583E0F50A780A121820
:1043D00053EE240BF582EF3400F583E0F98E828FE3
:1043E00083A3A3A3A3A3A3A3A3A3E0FCA3E0FDEE45
:1043F0002403FAEF3400FB85088285098312163AFC
:1044000074011215FB024778EE2409F8EF3400F925
:10441000E8FEE9FF8E828F831218669007961214C9
:10442000D312056E74021215FBE970030247787906
:10443000018E828F830246E58E828F83A385821050
:10444000858311E060030245AEEE2405F508EF34E4
:1044500000F509850882F583E0A2E040030245AE3D
:104460007C0E7D007900851882851983AA82AB8332
:10447000120FD0EE2408F50EEF3400F50F850E82F2
:10448000F583E0FAA3E0FBEA4B6010750A06750BB2
:1044900000780A12184FEA241080248E828F83A39A
:1044A000A3A3E0FAA3E0FB1209A6EA4B70030247BC
:1044B00078750A06750B00780A12184FEA2405FC75
:1044C000EB3400FD7402121630AA82AB83120FB8CF
:1044D00074021215FB850882850983E0A2E250046C
:1044E000D2F08002C2F0A2F0E433F8740C1216305D
:1044F000E048F08E828F83A3A3A3A3A3A3A3A3A3C7
:10450000A3E0F50CA3E0F50DE50C450D6013E50CFB
:104510002410F582E50D3400F58378081214B58077
:104520000C7508FF7509FF750AFF750BFFE50C4553
:104530000D7006750C00750D00850E82850F83E0E9
:10454000F50EA3E0F50FE50E450F7006750E00752C
:104550000F00780812184B780C12184F780E1218AA
:104560004FEE240CF582EF3400F5831218668E822C
:104570008F83A3A3A3A3A3A3E0FCA3E0FD740A126B
:104580001630AA82AB831210E4740A1215FB8E82D5
:104590008F83A3A3A3E0F8A3E0F990082AE8F0A38F
:1045A000E9F07A017B00900780E0F9120FFA90079A
:1045B0009AE0F8A3E0F9E8497003024778E0F58350
:1045C0008882A3A3E0F8A3E0F98909E8450970030C
:1045D000024778851082851183E0FC7901802E9056
:1045E000079AE0F8A3E0F9E8497003024778E0F59C
:1045F000838882A3A3E0F8A3E0F98909E84509705C
:10460000030247788E828F83A3E0FC79028E828F2B
:1046100083A3A3A3E0FAA3E0FB8882850983024772
:10462000457C007D00EE2404FAEF3400FB8E828F7F
:1046300083A3A3A3E0F91210C6E9F8C3940A4003C8
:10464000024778EE240AFCEF3400FD7A0475F00688
:10465000E8A42425F912120A024778EE2403F50A89
:10466000EF3400F50B850A82F583E0FAA3E0FB90B6
:104670000795E06007900EB9E0F9806E900EB6E005
:104680007004790580641209A68A088B098E828FCE
:1046900083A3A3A3A3A3A3A3E0A2E05053EA4509E5
:1046A00070030247788A828B83A3A3A3A3E0F50C4F
:1046B000603E8E828F83A3A3A3A3A3A3A3A3A3E09F
:1046C0005410702C740E121630AC82AD83EA24059F
:1046D000FAEB3400FBA90C1210C6E97013790385BC
:1046E0000A82850B83E0FAA3E0FB12056802477893
:1046F000EE2405FCEF3400FD850882850983A3A321
:10470000A3A3E0F9850A82850B83E0FAA3E0FB12FC
:10471000110E90079AE0F8A3E0F9E849605AE0F535
:10472000838882A3A3E0F8A3E0F9E8FEE9FFEE4F57
:1047300060467C007900850A82850B83E0FAA3E05D
:10474000FB8E828F8312163A802E120634E970286F
:10475000900829E0640170187E00EEF91210F0E96B
:10476000F80EEEC3940A5003E860EF900829E4F0D5
:1047700079501212161210EA74141215FB7F0A02F5
:10478000170E74F212163C74E61215E5890D8A08AC
:104790008B09ECFEEDFF740C121630AC82AD837AFF
:1047A0000E75F006E9A42420F9121210E960030244
:1047B00049757C0679FF740C121630AA82AB8312FD
:1047C000101EE960030249757470250DF50C8518FB
:1047D00082851983AC82AD837A0CF9121210E960DC
:1047E00003024971851882851983A882A98388826A
:1047F0008983E0F4FAA3E0F4FB88828983EAF0A3DA
:10480000EBF0E82402F582E93400F583E0F4F0E807
:104810002403F8E93400F9740C12163085820A85F5
:10482000830BE8650A7003E9650B70C2E50845096A
:10483000702D7C0C7900851882851983AA82AB8340
:1048400012101EE960030249717C0C7D007900851D
:104850001882851983AA82AB83120FD00249237A6A
:1048600000851882851983A882A98388828983E0BC
:1048700065087004A3E065097018EA75F003A4F8F0
:10488000A9F0851882851983E58228F8E58339F92E
:1048900080130AE82403F8E93400F9EAC3940440D9
:1048A000CA78007900E849705AEE4F7003024975E2
:1048B0007C00851882851983A882A98388828983D0
:1048C000E0FAA3E0FBEA4B7018EC75F003A4F8A93A
:1048D000F0851882851983E58228F8E58339F98007
:1048E000130CE82403F8E93400F9ECC3940440CC39
:1048F00078007900E849607D88828983E508F0A323
:10490000E509F0E82402F582E93400F583E0FAEEE7
:104910006A7001EF605BEEF04F700888828983E473
:10492000F0A3F0851882851983A882A983888289DB
:1049300083E0F4FAA3E0F4FB88828983EAF0A3EB36
:10494000F0E82402F582E93400F583E0F4F0E8248D
:1049500003F8E93400F9E8650A7003E9650B70CDE6
:10496000851882851983AC82AD837A0CA90C12124A
:104970000A790180027900741A1215FB7F0602176A
:104980000E74F012163C74F31215E5EAFEEBFF8C80
:10499000088D09EE4F7005790A024B7E750B007584
:1049A0000C9C750D07750E06750F00780E12184FCA
:1049B000EEFCEFFDAA0CAB0D120FCA74021215FB30
:1049C000E97003024B1F850B0AE50AC3940A4003F2
:1049D000024B37E50AC3940A4003024B7C75F0068C
:1049E000E50AA4F50BEEFCEFFD7A0E7420250BF919
:1049F00012120AE5084509600EAC08AD097A1B746D
:104A000021250BF912120A741D121630E0FCA3E0E6
:104A1000FDEC4D600A7A1B7422250BF912120A7400
:104A20001F121630E0FCA3E0FDEC4D600A7A107412
:104A300023250BF912120A7421121630E0FCA3E0B0
:104A4000FDEC4D601D7A107424250BF912120A74C6
:104A500023121630AC82AD837A047425250BF9122B
:104A6000120A7C0C7D0079FF7401121630AA82AB09
:104A700083120FD07401121630AC82AD837A0C749D
:104A800070250AF912120A75080E750900780812C5
:104A9000184FEEFCEFFDE50A75F00EA4F8A9F074CE
:104AA0009C28FA740739FB120FB874021215FB9098
:104AB0000828E060301208207E9C7F077C0679FF82
:104AC000EEFAEFFB12101EE97009EEFAEFFB790027
:104AD000120826EE240EFEEF3400FFEE6428700369
:104AE000EF640870D77508007E9C7F077C0679FF0D
:104AF000EEFAEFFB12101EE970020508EE240EFE1E
:104B0000EF3400FFEE64287003EF640870DEE50800
:104B1000C39402851882851983405374028051051D
:104B20000BE50C240EF50CE50D3400F50DE50BC37B
:104B3000940A50030249A5750B00750C9C750D076E
:104B40007C0679FFAA0CAB0D12101EE96006850BDE
:104B50000A0249D3050BE50C240EF50CE50D3400D3
:104B6000F50DE50BC3940A40D7750A0A800E740A46
:104B7000F0AC82AD837A01790512064CA90A740D56
:104B800002405B74F712163C74FF1215E5750800BD
:104B90007E9C7F07EEFCEFFD7A0E75F006E508A41B
:104BA0002420F9121210E9602C7C067D0079FFEEBA
:104BB000FAEFFB120FD07C067D0079FFEE2406FA97
:104BC000EF3400FB120FD0EE240CF582EF3400F529
:104BD00083E4F0A3F00508EE240EFEEF3400FFE5B9
:104BE00008C3940A40AE900828E060301208207E86
:104BF0009C7F077C0679FFEEFAEFFB12101EE9702E
:104C000009EEFAEFFB7900120826EE240EFEEF34CF
:104C100000FFEE64287003EF640870D77508007E0B
:104C20009C7F077C0679FFEEFAEFFB12101EE970FD
:104C3000020508EE240EFEEF3400FFEE6428700338
:104C4000EF640870DEE508C3940285188285198335
:104C5000400474028002740AF0AC82AD837A017958
:104C60000512064C74011215FB7F0102170E74F336
:104C700012163C74CB1215E5E9FF75F006A4F50891
:104C800074202508FE7427121630AC82AD837A0E8C
:104C9000EEF9121210E96003024D8B7C0679FF7465
:104CA00027121630AA82AB8312101EE96003024D50
:104CB0008B7C0E7D0079FF7427121630AA82AB839D
:104CC000120FD07C1B7D0079FF740C121630AA8263
:104CD000AB83120FD07C0C7D0079FF85188285197B
:104CE00083AA82AB83120FD07427121630AC82AD28
:104CF000837A0EEEF912120AE9F509740C121630D5
:104D0000AC82AD837A1B74212508F912120AE9FEE0
:104D1000740C121630AC82AD837A1B74222508F90C
:104D200012120AE9F50A740C121630AC82AD837ABD
:104D30001074232508F912120AE9F50B740C1216E7
:104D400030AC82AD837A1074242508F912120AE976
:104D5000F50C740C121630AC82AD837A04742525E0
:104D600008F912120AE9F508851882851983AC82C0
:104D7000AD837A0C74702FF912120AE9F8EE450A25
:104D8000450B450C45084842098003750900A909EF
:104D900074351215FB7F0502170E74F712163CE9E5
:104DA000900780F01210EA024C6974F412163C8AE3
:104DB000088B09EB54806059900780E0F9120FF4DA
:104DC0008A0A8B0BAE0AAF0BEE4F603C8E828F834C
:104DD000E02450600E14600624E16022802312114A
:104DE00002801EA3A3A3A3E0641E701579008E8227
:104DF0008F83A3A3E0FAA3E0FB1210CC8003121070
:104E0000D8EEFAEFFB120FE2AA08E5096480FB80F6
:104E10001DEAA2E0501490082AE0FAA3E0FB121168
:104E200014E5086401FAAB0980047A007B007F0472
:104E300002170E74F412163C8A828B83A3A3A3A3D9
:104E4000E06003024ECB8A828B83A3A3A3A3A3A318
:104E5000A3E0FEA3E0FF8A828B83A3A3A3A3A3E026
:104E6000F508A3E0F5098A828B83A3A3E0FAA3E007
:104E7000FB74FF6A700374FF6B701B750A00EEFC15
:104E8000EFFDAA08AB09A90A1210DE050AE50AC35C
:104E9000940A503780E81209A68A828B83E58245FE
:104EA0008360287C007D00E5822405FAE5833400D8
:104EB000FBA3A3A3A3E0F91210C6E9C3940A500B05
:104EC000EEFCEFFDAA08AB091210DE024E2EC082E6
:104ED000C083900780E0F98A828B83A3E0FAA3E085
:104EE000FB1207B402435D74F212163C74E812150B
:104EF000E5EAFEEBFF890A8C088D097C187D0079B4
:104F000000851882851983AA82AB83120FD0851879
:104F100082851983EEF0A3EFF0900782E0C0E07481
:104F200002121630D0E0F0900783E0C0E074031264
:104F30001630D0E0F0900EBBE0C0E07417121630CF
:104F4000D0E0F07415121630E054FEF8A3E0F990AA
:104F50000EBAE0A2E0E433FAE84AF874151216300B
:104F6000E8F0A3E9F0900EBAE0A2E15004D2F0809C
:104F700002C2F0E854FDFAA2F0E43333F8EA48F84C
:104F80007415121630E8F0A3E9F0900EBAE0A2E32F
:104F90005004D2F08002C2F0E854F7FAA2F0E433F1
:104FA000F50C750D007403780C1215D2EA450CF857
:104FB0007415121630E8F0A3E9F0900EBAE0A2E4FE
:104FC0005004D2F08002C2F0E854EFFAA2F0E433C9
:104FD000F50C7404780C1215D2EA450CF87415120D
:104FE0001630E8F0A3E9F0900EBAE0A2E55004D242
:104FF000F08002C2F0E854DFFAA2F0E433F50C745A
:1050000005780C1215D2EA450CF87415121630E822
:10501000F0A3E9F0900EBAE0A2E25004D2F08002D0
:10502000C2F0E854FBFAA2F0E433F50C7402780CF9
:105030001215D2EA450CF87415121630E8F0A3E9FF
:10504000F0900783E0601D750C10780C12184F7CEF
:10505000847D077406121630AA82AB83120FB874CF
:10506000021215FB900794E06011E50A60097415BF
:10507000121630E04402F0780180027800741412B5
:105080001630E048F0900781E060047804800278F0
:10509000007414121630E048F0AC08AD098518828F
:1050A000851983AA82AB8312056274180249797448
:1050B000F012163C74FB1215E58A0C8B0D7403126A
:1050C0001630858208858309780812184F75080202
:1050D000750900780812184F75081275099078083C
:1050E00012184F7CFF7DFF7A017B0012068E74063A
:1050F0001215FB8A088B09EA45097003025204E481
:10510000F50AF50B780A12184F74041216308582CE
:105110000A85830B780A12184F74041216308582A0
:105120000A85830B780A12184F7409121630121868
:10513000667902AC08AD09AA0CAB0D1207A274087F
:105140001215FBE960030251D6851882851983E0A8
:10515000FA7401121630E0F8E4C8F9EA2400FEE41B
:1051600039FFEE4F6070850882850983A3A3A3A34E
:10517000E0F50AA3E0F50B74FF650C700474FF659D
:105180000D701A880EEEFCEFFDAA0AAB0BA90E12E9
:1051900010DE050EE50EC3940A503B80E8AA0CAB66
:1051A0000D1209A68A828B83E582458360287C00E4
:1051B0007D00E5822405FAE5833400FBA3A3A3A3C5
:1051C000E0F91210C6E9C3940A500BEEFCEFFDAAF9
:1051D0000AAB0B1210DEE4F50AF50B780A12184F31
:1051E00074051216301218667CFF7DFFAA08AB0901
:1051F00012069A74041215FB8A088B09EA450960A5
:10520000030250FF740502405BC082C0839061902E
:105210007404F0A37448F0A3E4F09061807440F04B
:105220009061BC7407F09061877469F09061B67406
:1052300016F07900120AA27902120AA89023F4E467
:1052400093F46006E493F9120A7E7905120D9C022C
:10525000564BC082C083E9540FF9906185E06960C4
:1052600012E5C654804449F5C6E59E547F644970F2
:10527000F8E9F053C680E59E547F70FA02564B74ED
:10528000F712163CE5A8FE53A87E120A8AC2BA534A
:105290009AFEC289759B00C2C2120A9075A9117547
:1052A000B905120A96D2BA439A0174805E42A802E6
:1052B0005BD8C082C083906181E4F0A30256487538
:1052C000E90075910075BF00020135C082C083906E
:1052D0006181E4F0A374C0F0A3E402564AC082C026
:1052E0008374F81215E59003C4125ABAE8497003A2
:1052F0000253949003C4E0544060237908851882D7
:10530000851983AA82AB83120B988518828519832D
:10531000AA82AB831208449003C4E054BFF0E05467
:10532000806010790C7A807B05120B989003C4E0A2
:10533000547FF0E0A2E05008790012539C54FEF034
:10534000E054026008790112539C54FDF0E05404CB
:10535000600879001253A754FBF0E0540860087904
:10536000011253A754F7F0E0541060087902125369
:10537000A754EFF0E05420600879031253A754DFDC
:10538000F0A3E05401600D120AB41208569003C550
:10539000E054FEF074081215FB02564B120AA212DA
:1053A000084A9003C4E022120AA81208509003C4CD
:1053B000E022C082C083E9600514602A804F9061BA
:1053C0009A7433F0A37455F09061A0743AF090058C
:1053D0005CE064017009C2919003C67467802D90EF
:1053E00003C67461802690619A743FF0A3745AF0EA
:1053F0009061A0747FF090055CE064017009D29127
:105400009003C6747180059003C6746AF002564B0F
:10541000C082C083E9600B14600D14600F1460112A
:1054200080209023F880159023F980109023FA8033
:105430000B90055CE0640160F39023FBE4939061C2
:1054400086F002564B74EE12163C74F41215E58584
:105450001882851983AC82AD8375838F7582C4747D
:10546000041214F89023F893F460030255D790784F
:1054700008E0C3940250030255B77404121630AC0E
:1054800082AD8375838F75824674081214F8F97A99
:10549000FF7BFF7FFF7E0089828582108018740861
:1054A0006E700302556C74096E700302556C740AB9
:1054B0006E700302556CE510C333FCE433FD7404D5
:1054C000121630E5822CF582E5833DF583E0F50E7A
:1054D000A3E0F50F8E08750900740278081215D242
:1054E00074482508FC74783509FD8C828D83780812
:1054F0001214B5740878081213F685080C85090D86
:105500008C828D8378081214B5741878081213F6FB
:10551000E50C4508F508E50DF509C3E50E9508E528
:105520000F95098C828D8378081214B58C828D8337
:1055300078081214B57418780840141213F6E50CA4
:105540004508FCAD0DE50EC39CFCE50F9D800F12D8
:1055500013F6E50C4508C3950EFCE50D950FFDC34C
:10556000EC9AED9B5006ECFAEDFBEEFF0EEEC394C9
:1055700013500302549E74FF6A700374FF6B602D16
:105580008F08740278081215D27448126266747813
:105590003509F58378081214B5851882851983E5D5
:1055A000822510F582E583125FF3E508F009E9C36F
:1055B0009404500302548F7508017509007808128D
:1055C000184F7402121630AC82AD837AFE7B08123B
:1055D000113E74021215FB740C1215FB7F0A0217A0
:1055E0000EC082C083906186E0F89023FBE493684C
:1055F00070099023FAE493906186F09061AE74682C
:10560000F0A3746AF090624574FBF0A304F053F4C5
:10561000FD43FE0290055C7401F09061A0E0643AE5
:105620007004790080027901120AA202564BC082EE
:10563000C08390050EE06401700A900513E06004D9
:10564000790C800279008003F0A3F0D083D082022D
:105650000135C082C08375E1F1900511E0604D1401
:1056600060081460511460498051120AC690050701
:10567000E0F97A087B05120D1E908FBC1214D3122C
:105680000D54908FB01214D3120D2A900512E0F928
:10569000120D367901120D90900505E0241612576F
:1056A000E074DEF0A3740AF07900809F120ACC80C7
:1056B000BC120AD280B7120AD880B2791280EB7479
:1056C000F412163C75D90D9004F6E0A2E0E4331311
:1056D00013F812574C484401F5D978001257CA40C4
:1056E000FB7800880874F712626674041257D4407D
:1056F000F275E1959004F6E0F97AF77B04120D2437
:10570000900DEC7454F0A3740A1257EF12580F1254
:10571000580612594712575678081214B5908FB888
:105720007808121441908F90780812148F1257DA6B
:1057300078081214C4900505E024141257E074137D
:10574000F09003C27402F07F0402170E900507E088
:10575000C4333354C022900505E0F8A3E0F58388F4
:1057600082A3A32274F612163C1259188AD9780023
:105770001257CA40FB7800800612587E1259CAE8B8
:10578000C39940F512590A1257CA40FB78008008A5
:1057900012626274051259CAE8C39940F375E19523
:1057A000900DEC7460F0A3740A1257EF1257F912BF
:1057B00014D31257DA1214DF900505E0241412579F
:1057C000E07412F09003C2025BB5880874082508E3
:1057D000F5827405125B26940622900505E0240EDE
:1057E000F8A3E01257E7223400F988828983221255
:1057F0005930745AF0A3740A2212580F1258061224
:10580000594B908FC022F0A37472F0A3740A221235
:1058100058132212581722F0A37404F0A3740C2218
:1058200074F612163C12587312574C4402F5D9788C
:10583000001257CA40FB7800800612587E1259CADF
:10584000E8C39940F575E195900DEC125889F0A3E5
:105850001258891257FC1214D31257DA1214DF901F
:105860000505E024141257E07414F09003C2740488
:10587000025BB7900517E0F9740729F5D92288086B
:1058800074182508F582740522746C125896125803
:1058900096F0A3740A22F0A3740AF0A3746C227425
:1058A000F612163C12591874064AF5D978001257A8
:1058B000CA40FB7800800612587E1259CAE8C39984
:1058C00040F512590A1257CA40FB7800800812624C
:1058D0006274051259CAE8C39940F375E195900DB9
:1058E000EC7466F0A3740A1259261257F91214D3F5
:1058F0001257DA1214DF900505E024141257E074F1
:1059000015F09003C27403025BB790053712587606
:1059100074044AF5D9780022125873900507E0C440
:10592000333354C0FA221259307404F0A3740C2299
:10593000125934221259417404F0A3740C125941C3
:1059400022125817F0A32212594B22F0900DFA742C
:1059500004F0A3740C1259347404F0A3740C12589C
:1059600013F022C082C083125756A3A3A3A3E4025C
:10597000564874F712163C1264A8F8740339F9E813
:105980002405FAE93400FB8A828B8312621788822D
:105990008983A3A3A3A3A3A3A3A3A3ECF0A3EDF0E4
:1059A00088828983A3A3A3A3A3A3A3E024FFF8A3CE
:1059B000E034FFF98A828B83E8F0A3E9F0025BD838
:1059C000880874602508F582740512613EF5D908CF
:1059D00022EAFEEBFF9061D0E0F87480C398FAEE03
:1059E0002483221259E9940422126001E0F5D90AB5
:1059F000EAC32274F612163CEAFEEBFF9061D0E097
:105A0000707575D90E75D90375D9047A008A08EEB8
:105A10002508126576248C125A8C40F17A008A0887
:105A2000EE250812657624841259E340F175E1955C
:105A30007908EE248C125A852484125A7C7C008CBE
:105A400082AA82C3E49AF895E0F9EE28F8EF39F9D2
:105A5000E8248BF582E912613AC0E0EE2A126576FD
:105A600024ABF582E9125FF3D0E0F00CECC39408AC
:105A700040CD125B4280027900025BB8FAEF34003D
:105A8000FB120B8C22125A7C7904EE221259E994F3
:105A90000822C082C08375D90275D90375D90575EE
:105AA000E195EA2470F582EB125AB7EA2472F58286
:105AB000EB125B5402564B126004125ABE22E0F8FD
:105AC000A3E0F92274F612163CEAFEEBFF900560A3
:105AD0007406125B3012184F7C017903125E5C125F
:105AE00015FB75D90675D9037800125B1640FB7556
:105AF000E1959003C2E064087017EE2470F582EF20
:105B0000125AB7EE2472F582EF125FF3E8F0A3E9C0
:105B1000F07901025BB8880874602508F582740585
:105B2000125B26940522126004E0F5D908E8C3222E
