:020000040000FA
:0600000002011D021C9E1E
:03002B0002236449
:030043000223088D
:03005300021D1477
:03006B00022388E5
:10008300021B8FE5C754F84401F5C779012200002C
:100093000080FB120086B90003020107E47921788E
:1000A30008B800028004F709D8FCE479297802B87B
:1000B30000028004F709D8FCE49002817802790EEB
:1000C3008002F0A3D8FCD9FA781A90014D7A01BACC
:1000D30000028007E493A3F608DAF9900F82AA825C
:1000E300AB8390014E78E579038015E493A3AC824A
:1000F300AD838A828B83F0A3AA82AB838C828D83A8
:10010300D8E9D9E77582B77583A7740312012F75F0
:100113008291758300740012012F75D00075813FA1
:10012300751881751902759F00020096C09FF59F8F
:10013300E473D09F22D083D082C09FE493C0E07445
:100143000193C0E0740293F59F2201FF0000B40005
:100153000028002800283075A000A000A000A000FF
:1001630000080008E001F00010001000100010006B
:100173001000100050005000500010001000D00775
:100183000000000000000F000100050030750700AB
:100193001000010081FF0000FF30064E063606FF07
:1001A30002020208025000A0000000E80302F78FD9
:1001B300010000DF8F02FB8F010000D70F020190C7
:1001C300010000B20202FB8F010000D80F0203906E
:1001D300010000C80202FB8F010000D90F02059045
:1001E300010000CA0202FB8F010000DA0F02079030
:1001F300080000CB0202FB8F010000DB0F02099015
:10020300010000DC0FFF0100FF2002F78F01000057
:10021300D98F02FB8F0100004010020B90000000F9
:10022300000002FF8F0300001803600C600C600CD9
:10023300600C600C600C600C600C600C600C600C5B
:10024300600C600C360F4E0F300FFFFF02020202EC
:100253000202020202010D000000100102F78F01E9
:100263000000DC8F02FB8F010000831002ED8F0181
:100273000000780702FB8F010000841002EB8F015E
:100283000000158F02FB8F010000851002E98F012A
:100293000000F98E02FB8F0100008610021D900101
:1002A3000000B78E02FB8F010000871002E78F0169
:1002B3000000818E02FB8F010000881002E58F0190
:1002C3000000A58E02FB8F010000891002F18F014F
:1002D3000000938E02FB8F0100008A1002F58F014C
:1002E3000000078F02FB8F0100008B10020F9001AB
:1002F30000008C1001E803053F10FF000130750377
:1003030002010600000000000000000000000000E1
:10031300000000000000000000000000000000FFDB
:10032300FF0600800CE803080945435A20303032A9
:10033300051208000800020A000201050302F0FF8B
:1003430045435A20303032D2120000D8120A436893
:100353006172616374657269737469632031000249
:10036300436861726163746572697374696320328F
:1003730000084368617261637465726973746963C9
:10038300203300104368617261637465726973742A
:100393006963203400024368617261637465726942
:1003A3007374696320350002F78F010000E28F0246
:1003B300FB8F0100008411021390030000600F0201
:1003C300FD8F010000851102FB8F010000961102D1
:1003D3001590010000740F02FD8F010000971102B8
:1003E300FB8F010000A811021790020000750F0295
:1003F300FD8F010000A91102FB8F010000BA110259
:100403001990000000760F02FF8F030000770F02A0
:10041300FD8F010000BB1102FB8F010000CC110214
:100423001B900400007D0F02FD8F010000CD11120F
:100433000138E59C03120138FC9C031201382B9D03
:1004430003120138649D031201388C9D0312013895
:10045300BA9D03120138D19D03120138E89D03129E
:100463000138FE9D03120138259E03120138389E80
:10047300031201384E9E03120138619E03120138A4
:10048300869E0312013886A40212013885A5021242
:100493000138BAA502120138DBA502120138EBA517
:1004A300021201380CA60212013818A702120138F1
:1004B300E5A70212013858A802120138DEA8021279
:1004C300013821A90212013858A902120138DEA904
:1004D30002120138B0AA021201380EAB021201381F
:1004E30026AB02120138A0AB02120138A3AB0212F1
:1004F3000138A6AB021201384DAC0212013865ACCB
:100503000212013895AC02120138B5AC021201385F
:10051300A3AD0212013859AE02120138A2EB021246
:100523000138CAEB02120138F8EB021201382FEC42
:100533000212013897EC02120138E0EC0212013882
:100543002BED0212013869ED02120138A6ED0212F9
:100553000138D4ED021201387BEE0212013885EE28
:100563000212013892EE02120138C5EE021201386E
:1005730087EF0212013893EF02120138ABEF021238
:100583000138B5EF021201384EA3031201385CA300
:100593000312013874A3031201388CA30312013828
:1005A300D5CE0112013873CF01120138EBCF0112FE
:1005B300013800D1011201383AD101120138E3D1D7
:1005C30001120138B8D2011201381CD401120138CA
:1005D30073D401120138FAD401120138E1D50112A2
:1005E30001382ED601120138BCD601120138E0D6EB
:1005F30001120138B5D801120138F6D801120138B9
:1006030018D90112013899D90112013883DA01127C
:10061300013849DB01120138F3D002120138C5D188
:10062300021201386ED202120138B1D2021201381D
:100633003ED302120138CAD302120138ABD40212DC
:100643000138DAD402120138D6D5021201381ED687
:100653000212013820D70212013864D7021201387E
:100663008AD7021201384DA603120138D387031229
:100673000138E987031201380F88031201383789DB
:10068300031201384189031201389A8A031201388F
:100693009A8B03120138FFD70212013834D90212A0
:1006A300013867D902120138B1D9021201386FDB60
:1006B3000212013878BF01120138DBBF0112013881
:1006C30020C10112013830C10112013853C1011296
:1006D30001389EC10112013843C20112013839C3E6
:1006E3000112013803C4011201387BC5011201381C
:1006F300BDC5011201385BC601120138A8C601123B
:100703000138CEC601120138BCC801120138C1C874
:1007130001120138A2CA01120138F6CA01120138C6
:1007230058CB0112013880CB0112013824CC0112BD
:100733000138E6CC0112013817CD011201381ACD68
:100743000112013862CD01120138A4CD0112013822
:100753000BCE01120138349203120138479203126F
:100763000138609203120138AB9203120138869369
:1007730003120138159403120138609403120138EF
:100783000024001201380C24001201384524001201
:1007930001388A2400120138412500120138C72587
:1007A300001201382C260012013858260012013895
:1007B300912600120138A52800120138812A00125F
:1007C30001386C2C00120138A32D001201380330BC
:1007D30000120138EF3000120138353200120138AF
:1007E3004233001201385F3300120138973300128D
:1007F3000138B13300120138193400120138B3380B
:1008030000120138543900120138A5390012013899
:10081300CC39001201381A3A00120138383A001262
:1008230001388C3A00120138653B00120138EC3C68
:1008330000120138743D001201380AE20212013835
:1008430014E202120138DFE202120138FAE2021264
:10085300013820E30212013864E3021201389CE3F9
:1008630002120138C5E3021201383EE402120138D4
:1008730053E40212013868E4021201389FE40212C1
:100883000138B3E402120138E4E4021201381EE530
:10089300021201384AE50212013882E502120138D8
:1008A30020E60212013869E60212013893E60212C9
:1008B3000138B8E602120138008003120138CA80F9
:1008C30003120138AD810312013823820312013868
:1008D300658203120138928303120138E68C0212F7
:1008E30001380F8D02120138288D021201386D8EE6
:1008F300021201384B8F021201386A8F021201383B
:10090300F78F021201383A900212013887910212CE
:100913000138269202120138A594021201383C953F
:1009230002120138109602120138F29602120138AF
:100933005E9802120138F1980212013833A10312B2
:1009430001389CA103120138F0A10312013817A248
:10095300031201384AF002120138B7F002120138CB
:1009630002F102120138F7F102120138F3F2021216
:100973000138DDF30212013868C102120138AAC13D
:100983000212013884C2021201385DC30212013817
:1009930058C40212013837C502120138A3C5021226
:1009A30001386AC602120138D5C6021201383CC7A3
:1009B3000212013867C702120138D8C70212013880
:1009C3006BC802120138D4C802120138E9C80212F6
:1009D300013831C9021201384AC902120138AFC9BC
:1009E30002120138B2C9021201383A8F03120138D8
:1009F300628F03120138A08F031201385E90031235
:100A03000138C99003120138E590031201380D91A2
:100A1300031201383D91031201384C91031201383E
:100A2300C69103120138EC91031201382DA0011273
:100A33000138CAA101120138B0A3011201387AA406
:100A430001120138C1A40112013808A501120138AD
:100A53001AA5011201385AA50112013889A50112FC
:100A63000138D5A5011201380DA6011201383BA6A4
:100A7300011201388CA6011201381BA7011201389B
:100A830009AA01120138E3AB011201381FAC0112AC
:100A9300013879AD01120138C0AD0112013835AE0C
:100AA3000112013883AE01120138A9AE01120138D7
:100AB30065B80212013882B8021201381CBE021254
:100AC30001381EBF0212013898C00212013846C114
:100AD30002120138CA5300120138135400120138AC
:100AE300405400120138735400120138805400122C
:100AF30001388C54001201389E540012013873558A
:100B030000120138D155001201380656001201387F
:100B1300A25700120138EF57001201381358001280
:100B23000138805800120138255900120138E15963
:100B330000120138605A00120138245B0012013898
:100B4300335B00120138B45B00120138535C0012AE
:100B53000138855C00120138205D001201387E5D8A
:100B630000120138B85D00120138395E00120138F5
:100B7300025F00120138AB5F0012013832600012CD
:100B830001388A6000120138EB60001201381461E9
:100B930000120138CA6100120138146300120138CF
:100BA3005763001201387463001201389363001213
:100BB3000138DE63001201380364001201382C642B
:100BC300001201389B6400120138DD640012013801
:100BD300E165001201387B66001201384767001295
:100BE3000138606700120138C4AE0212013817AF32
:100BF3000212013823AF02120138F8AF0212013892
:100C03001FB0021201385AB002120138C6B00212E4
:100C13000138FAB00212013833B1021201384BB174
:100C230002120138A4B102120138BDB10212013817
:100C330006B20212013819B20212013833B202129B
:100C4300013849B20212013865B30212013876B491
:100C530002120138C3B502120138A8B602120138D4
:100C6300F07F001201380080021201383480021232
:100C730001389F8302120138E98402120138B385D7
:100C8300021201383D870212013818880212013816
:100C9300528802120138758802120138B78802128D
:100CA3000138C088021201380A89021201381489F6
:100CB30002120138C08902120138948A02120138E3
:100CC300E88A021201384A8B021201389D8B021204
:100CD3000138CC8B021201380B8C02120138926757
:100CE30000120138EC6F00120138F26F0012013864
:100CF300AD7500120138937900120138A48B0312E9
:100D030001381A8C03120138308C031201386D8CB0
:100D130003120138A58C03120138228D0312013806
:100D23005D8D03120138D88D03120138148E03121E
:100D330001381D8E03120138298E03120138438EA8
:100D430003120138688E031201387E8E03120138B4
:100D5300A78E031201380A8F03120138E0E602124C
:100D63000138F3E6021201380DE70212013836E7C3
:100D73000212013879E702120138B8E7021201388A
:100D8300F6E7021201385BE80212013870E802123A
:100D930001387BE80212013888E8021201389FE823
:100DA30002120138ADE802120138B8E80212013824
:100DB300C4E802120138D7E802120138E2E802124D
:100DC300013805E902120138AEE902120138BEE921
:100DD30002120138D8E902120138F5E9021201388A
:100DE30011EA0212013836EA0212013840EA02120D
:100DF300013854EA0212013873EA02120138D4EAC4
:100E030002120138DAEA02120138E0EA021201386A
:100E1300E6EA02120138F2EA0212013825EB021265
:100E2300013801EC0112013883EC011201382CED79
:100E33000112013874EE0112013882F001120138F7
:100E430068F1011201389DF101120138BFF101125D
:100E5300013868F20112013838F40112013861F4E3
:100E630001120138D9F4011201380BF501120138CE
:100E730018F50112013863F50112013887F50112E3
:100E83000138D8F701120138E2F8011201383EF9AE
:100E9300011201387EDD011201388FDE01120138A3
:100EA30073DF011201387DDF011201389FDF011268
:100EB3000138ABDF011201384FE1011201387CE147
:100EC3000112013892E201120138E7E201120138FE
:100ED30036E4011201380BE50112013867E501120E
:100EE3000138D2E50112013807E6011201384AE65A
:100EF3000112013814E9011201382CE901120138F9
:100F0300BDE901120138CBE90112013818EA0112D7
:100F1300013826EA0112013892EA011201380DEB79
:100F23000112013864EB0112013868990212013889
:100F33008A99021201389B9B021201385A9E0212AF
:100F43000138849F0212013842A0021201382EA1F7
:100F5300021201382C9B03120138519B03120138F2
:100F6300C79B03120138D6C902120138DFC9021226
:100F73000138E8C902120138C0CA0212013871CC23
:100F830002120138A1CC02120138CCCC0212013872
:100F9300FCCC0212013827CD021201385BCD0212BC
:100FA300013887CD02120138CACD02120138F5CDBE
:100FB300021201383CCE0212013891CE02120138DE
:100FC300D3CE021201382DCF0212013858CF0212AC
:100FD3000138A7CF02120138D7CF0212013802D04D
:100FE3000212013830D00212013853D002120138F4
:100FF300D6A60312013802A7031201382FA7031242
:10100300013839A70312013849A703120138E279DD
:1010130000120138EC79001201382E7A00120138DF
:10102300797A00120138D07A001201382A7B001233
:1010330001384B7B00120138557B00120138A87B25
:1010430000120138D67B00120138E07B0012013810
:10105300F67C00120138277E00120138687E0012E8
:101063000138AF7E00120138C17E00120138E07EE4
:1010730000120138E97E00120138A57F0012013801
:10108300F49F0312013803990312013839990312AB
:101093000138A79903120138F29A03120138B5A552
:1010A30003120138CBA503120138D5A50312013869
:1010B3001FA60312013853A70312013825DD0212BC
:1010C30001383ADD0212013822DE021201385DDEF8
:1010D30002120138AADE0212013809DF02120138B6
:1010E30073DF021201389BE10212013825A40312B7
:1010F30001384EA40312013882A403120138C5FC3F
:1011030002120138EAFC0212013814FD02120138FE
:101113000FA803120138DB3D00120138ED3F001226
:101123000138244200120138994300120138FC446B
:1011330000120138254500120138434900120138D5
:10114300424B00120138444D001201382F4E001259
:1011530001385B4F001201386B4F00120138F44F16
:10116300001201388F5000120138A85000120138C4
:10117300705200120138EBFF02120138F1A403127E
:10118300013801A5031201380DA503120138A8A5E2
:101193000312013848A203120138CFA20312013807
:1011A30035A303120138ED7F0012013891A8031211
:1011B3000138A1A803120138A4A803120138F87F4B
:1011C30000120138D996031201380099031201382D
:1011D3008BF90112013835FA01120138C3FA0112F1
:1011E3000138DEFB01120138E7FC01120138B9FDB9
:1011F3000112013855FE01120138D4FE01120138E3
:10120300DDFE011201385DFF0112013873FF011287
:10121300013886FF011201388FFF01120138A2FF46
:1012230001120138989E03120138EF9E0312013810
:101233006D9F031201388A9403120138B494031288
:1012430001388B9503120138639603120138FCAF02
:10125300011201381EB40112013893B7011201388B
:10126300A6B8011201385BBB0112013872BB01122F
:101273000138AFBD0112013889BE01120138209037
:1012830001120138BC94011201383B960112013856
:101293008B9601120138099701120138B399011293
:1012A3000138BF9A01120138909E011201389FF450
:1012B300021201382CF502120138AEF50212013880
:1012C300DBF502120138EC83031201387D86031229
:1012D3000138D38603120138A18703120138BEF8FF
:1012E30002120138FFF8021201381CF90212013808
:1012F300CFF9021201382DFA0212013813FB021240
:10130300013825FC021201385EFC02120138ABFFE2
:101313000112013865A803120138CF7F00E066701F
:101323001008A3E066700A08A3E066700408A3E04F
:101333006622C3E7960809E7960809E7960809E7CE
:101343009622C3E09608A3E09608A3E09608A3E0DC
:101353009622C008C3E096F50808A3E09642080861
:10136300A3E096420808A3E09645087001D3D0088D
:1013730022080808EAC0E0EBC0E086F0E7A4FA1808
:101383000986F0E7A42AFA180986F0E7A42AFA18CE
:101393000986F0E7A42AFA1986F0E7A4FBE5F02A08
:1013A300FA190886F0E7A42BFBE5F03AFA19088648
:1013B300F0E7A42BFBE5F03AFA18180986F0E7A446
:1013C300C5F02BFBE43AFA1908E7C5F0C6A426F6E4
:1013D300E5F03BFBE43AFA1886F0E7A4F6E5F008FB
:1013E30026F6E43B08F6E43A08F6D0E0FBD0E0FA50
:1013F30022E4CFC0E0E4CEC0E0E4CDC0E0E4CCC062
:10140300E075F020C3E633F608E633F608E633F674
:1014130008E633F6181818EC33FCED33FDEE33FE13
:10142300EF33FFC3EC9709ED9709EE9709EF97198F
:101433001919400FFFEC97FC09ED97FD09EE97FE94
:10144300191906D5F0BEECF709EDF709EEF709EF28
:10145300F7191919D0E0FCD0E0FDD0E0FED0E0FF91
:10146300226016080808C6C313C618C613C618C6D2
:1014730013C618C613C6D5E0EA2270090808082265
:101483006016181818C6C333C608C633C608C63351
:10149300C608C633C6D5E0EA22E627F60809E637CA
:1014A300F60809E637F60809E637F622E026F608D5
:1014B300A3E036F608A3E036F608A3E036F622E00A
:1014C30026F008A3E036F008A3E036F008A3E036E0
:1014D300F022C3E697F60809E697F60809E697F6B9
:1014E3000809E697F622C3E096F008A3E096F00811
:1014F300A3E096F008A3E096F022E056F608A3E0F6
:1015030056F608A3E056F608A3E056F622E056F096
:1015130008A3E056F008A3E056F008A3E056F02233
:10152300E0F608A3E0F608A3E0F608A3E0F622E657
:10153300F008A3E6F008A3E6F008A3E6F022E0FA39
:10154300A3E0FBA3E0FCA3E0FD22EAF0A3EBF0A3FE
:10155300ECF0A3EDF022CAC0E0E6F0A308DAFAD07B
:10156300E0FA22CAC0E0E0A3C582CCC582C583CD20
:10157300C583F0A3C582CCC582C583CDC583DAE616
:10158300D0E0CA22C3E498F8E499F91215C880267A
:10159300C3E49AFAE49BFBE920E7E91215C8E4984F
:1015A300F8E499F922C3E498F8E499F91215C8E428
:1015B30098F8E499F9C3E49AFAE49BFB22EB20E759
:1015C300CFE920E7E0B90010BB0008E88AF084F80F
:1015D300AAF022E4FBC8FA22EB70227B10C833C8BE
:1015E300C933C9335007C39AC3DBF280069A50014B
:1015F3002ADBEAC833F4C8C933F4C9FA2275F00800
:10160300E4C833C8C933C933C99AC99B5004C92A2A
:10161300C93BD5F0ECFBC833F4C8E4C9FA22600D2A
:1016230008C6A2E713C618C613C6D5E0F322600C9A
:1016330008C6C313C618C613C6D5E0F42270042225
:10164300600D18C6C333C608C633C6D5E0F41822E6
:10165300251810AF08F518400215198008F5184031
:10166300021519D2AF22C0D0251810AF08F51850B3
:101673000205198008F51850020519D2AFD0D022FF
:101683002518F58210AF08F518400215198008F5E2
:101693001840021519D2AF851983222518F582E463
:1016A3003519F58322E4732518C582C0E0E51934A2
:1016B300FFC583C0E0E518C3958224F810AF088501
:1016C30083198582188008858319858218D2AFCE45
:1016D300F0A3E520F0A37808E608F0A3DEFAEFF024
:1016E300A3E58124FAF8E608F0A3E608F0A3E608E8
:1016F300F0A30808E608F0A3E608F0A31581158116
:10170300D0E0FED0E0F8158115811581E8C0E0EE48
:10171300C0E0222518C582C0E0E51934FFC583C0A7
:10172300E0E518C3958224F910AF088583198582F3
:10173300188008858319858218D2AFCEF0A3E520DF
:10174300F0A37808E608F0A3DEFAEFF0A3E581241E
:10175300FBF8E608F0A3E608F0A30808E608F0A300
:10176300E608F0A315811581D0E0FED0E0F81581DD
:101773001581E8C0E0EEC0E022851983851882E078
:10178300A3FEE0A3F5207808E0A3F608DFFAE0A3C0
:10179300FFE0A3C0E0E0A3C0E0E0A3C0E0E0A3C09B
:1017A300E0E0A3C0E010AF088582188583198008A4
:1017B300858218858319D2AFD083D0820201358503
:1017C3001983851882E0A3FEE0A3F5207808E0A33F
:1017D300F608DFFAE0A3FFE0A3C0E0E0A3C0E0E087
:1017E300A3C0E0E0A3C0E010AF0885821885831989
:1017F3008008858218858319D2AFD083D08222C016
:10180300D02518C582C0E0E51934FFC583C0E0E5E3
:1018130018C3958224F310AF088583198582188035
:1018230008858319858218D2AFC8F0A3E9F0A3EA2B
:10183300F0A3EBF0A37908E709F0A3D8FAECF0A33F
:10184300EDF0A3EEF0A3EFF0A3D0E0F0A3D0E0F02F
:10185300A3D0E0F0A3E520F0A3E5F0F0A3228519DF
:1018630083851882E0C0E0A3E0F9A3E0FAA3E0FBDC
:10187300A37808E0F608A3DFFAE0FCA3E0FDA3E009
:10188300FEA3E0FFA3E0C0E0A3E0C0E0A3E0F5D047
:10189300A3E0F520A3E0A3F5F010AF088583198535
:1018A30082188008858319858218D2AFD082D083AD
:1018B300D0E0F8D0E0327404800674028002740130
:1018C300C0E0F404121683D0E01215592274048088
:1018D3000474028000CCC0E0EDC0E0E518C39CCCEA
:1018E300AD1950011D10AF068C188D1980068C1888
:1018F3008D19D2AF121566D0E0FDD0E0FC22D08363
:10190300D082E9C0E0E493A3C386F0C5F095F0F973
:1019130008E493A386F0C5F095F0700BE493A3C39A
:10192300994005E9048002A3E475F002A42582F539
:1019330082E5F03583F583D0E0F9E493A3C0E0E4D6
:1019430093C0E022D083D082ECC0E0EDC0E0E4930A
:10195300A3FCE493A3FDED4C600D121993EC24FF5B
:10196300FCED34FFFD80EFE493A3FCE493A3FDEDD2
:101973004C600D1219D2EC24FFFCED34FFFD80EF17
:10198300D0E0FDD0E0FCE493A3C0E0E493C0E02208
:10199300C0E0C3E49396087401939618400FE49350
:1019A30066700808740193661870007019A3A3C3C6
:1019B300E49396087401939618A3A3400DD0E0D046
:1019C300E0D0E0021983A3A3A3A3A3A3D0E022C082
:1019D300E0C0F088F0E49366700808740193661819
:1019E3007000A8F0A3A3700BD0F0D0E0D0E0D0E05B
:0A19F300021983A3A3D0F0D0E02274
:101A000074F5121716EAFEEBFFEE2434F8EF3400FB
:101A1000F988088909EE2435121B38F8EE243712AC
:101A20001B38F50AEC850AF0A4FCAAF0850AF0ED53
:101A3000A42AFDE82CF8E43DF97A257B001215C8AC
:101A4000EA850882850983F05407F87401B800021A
:101A50008004C333D8FCC0E0E0131313541FF8EE26
:101A600028F8EF3400F9E8245DF582E93400F583C5
:101A7000D0E0F8E0586008850882850983801DEE73
:101A80002436121B38F5F0EA84A8F0EE28F8EF347B
:101A900000F9E82438F582E93400F583E0F97F04A1
:101AA0000217C274F5121716EAFEEBFFEE24341289
:101AB0001B38C0E0EE2435F582EF3400F583D0E02A
:101AC000F08E828F83A3A3A3A3A3E0FAA3E0FB8EEF
:101AD000828F83A3A3A3A3A3A3A3E0FCA3E0FDECB5
:101AE000C39AF50AED9BF50BEE2480F508EF340060
:101AF000F509850882F583E06401702BEE2481F5F9
:101B000082EF3400F5831218D4121B4174021216AE
:101B100069E960137CFD7D04EEFAEFFB120B8E8504
:101B20000882850983E4F0AC0AAD0BEEFAEFFB12F4
:101B30001A001222FA021A9EF582EF3400F583E0B1
:101B400022C082C083851882851983E0F8A3E0F95A
:101B5000C3EA9CEB9D5012C3EC98ED994019C3EA7F
:101B600098EB99501279018010C3EA98EB9940F5EF
:101B7000C3EC98ED9950EE7900D083D08222EAC36D
:101B80009CFAEB9DFB2200008521878522C622C09E
:101B9000E074EF121802759B00906182E0A2E640AB
:101BA00003021C50E591A2E64003021C507591BF50
:101BB0009003C2E064057008120D2C120D388003EA
:101BC000120D32752100120DA4E99003C3F07900C3
:101BD000120D98120AF87A017B009003C1E0F91205
:101BE0001056907803E064426003021C9990055FF0
:101BF000E014F06003021C99C2AF121BFD00782AAA
:101C0000D0E0F618D0E0F6E59F5407F97005908F04
:101C1000618003908F657808121523E9C4C0E078CD
:101C200029E65508F50808E65509F509740B780802
:101C3000121631D0E02508F8906270E0A2E740F873
:101C4000E8C333906272F0906270E0D2E0F08049B5
:101C5000E0A2E55024E591A2E5501E7591DF9003C6
:101C6000C2E0640D70139003E4E004F06428700295
:101C7000E4F07A00E0F9120E16906181E0A2E350E0
:101C800009E5E9A2E3500375E9F7A3E0A2E75009EB
:101C9000E591A2E7500375917F7F04021861C0E0CF
:101CA000C0D0C082C083906183E0A2E05009E5BF4C
:101CB000A2E0500375BFFEE0A2E15009E5BFA2E13A
:101CC000500375BFFDE0A2E25009E5BFA2E2500358
:101CD00075BFFBE0A2E35009E5BFA2E3500375BF67
:101CE000F7E0A2E45009E5BFA2E4500375BFEFE0BE
:101CF000A2E55009E5BFA2E5500375BFDFE0A2E60B
:101D00005009E5BFA2E6500375BFBFD083D082D093
:101D1000D0D0E032C0E074F2121802E5A7A2E4507D
:101D20000FE5A1A2E4500953A7EF75A1EF121D68BA
:101D3000E5A7A2E5500CE5A1A2E5500653A7DF7583
:101D4000A1DFE5A7A2E15009E5A1A2E1500375A139
:101D5000FDE5A7A2E2500CE5A1A2E2500653A7FBC5
:101D600075A1FB7F0102186174F812171675210125
:101D70009003C2E0640670077A007B00120D14A283
:101D8000AFE433FED2AF9003C8E0640170187A204C
:101D90007B009003C1E0F91210D47A207B009003FD
:101DA000C1E0F912105C906182E0D2E6F090055E2D
:101DB000E0602185C62280169003C7E064017008A8
:101DC000E5C654F84405F5C653BEFC121B887401E1
:101DD000652160E4EEA2E092AF7F010217C200002D
:101DE0008E238F24858228858327851882851983F1
:101DF000E0CEA3E0CF852882852783EBC9EAC8ED32
:101E0000CBECCA75F010C3E833C8E933C9EA33CA6A
:101E1000EB33CBC3EA9EF526EB9FF525B35004AB1D
:101E200025AA26EC33CCED33CDD5F0DAAE23AF24A2
:101E30002274E912171674FA121653EAFEEBFF8C9D
:101E4000088D099003C2E024F7C394055006908FD3
:101E5000C1021F58120C908A0A8B0BEA450B7003C3
:101E6000021F55120D4A8A0C8B0D120D4AEA650CA1
:101E70007003EB650D60ECEEFCEFFD8518828519B3
:101E800083AA82AB83120D50850A82850B83A3A39C
:101E9000780C121523908FB5780C1214FD851882DA
:101EA0008519837814121523908FB578141214FDB8
:101EB000780C7914121335501F780C79141214D53C
:101EC000908F85780C1213554047850C10850D11A5
:101ED000850E12850F138041851410851511851606
:101EE000128517137810790C1214D5908F857810FD
:101EF000121355501C7510007511007512007513E2
:101F000001781079141214D57810790C12149C8071
:101F100008908FC178101215237409781012147D5F
:101F2000908F89780C1215237810790C1213F49085
:101F300003C2E06408600AE064066005E0640570BE
:101F40001C908FB978101213555012908F8D781005
:101F50001214AF8008908FC978101215238508825B
:101F6000850983781012153274061216697F1002E3
:101F700017C274F7121716120D6290055CE0640127
:101F80007010906245E4F0A3F053F4F343FE0C5359
:101F900090F3120D02E5C654804449F5C6E59E54FF
:101FA0007F644970F8906185740FF090055AE0F4F1
:101FB0007002A3E0602C75080175090090055AE0D5
:101FC0007808121640E508F4FAA3E0600814600AE5
:101FD00014600C800DEA52808008EA52908003EA77
:101FE00052A079007F020217C274F7121716E9FE99
:101FF000EAFF74016E700C7A807B009003C1E0F9F7
:102000001210569023F8E493F46008E493F9120A4E
:10201000DA800953C680E59E547F70FA120D08904D
:10202000055CE064017003120B1090055AE0F47037
:1020300002A3E0602A75080175090090055AE0784E
:1020400008121640AA08A3E0600814600A14600C85
:10205000800DEA42808008EA42908003EA42A012A2
:102060000C908A088B09A808A909E8496017E5E1DE
:1020700070FCE82414F582E93400F583E0F874FF7D
:1020800068600288E174016F700A7A019003C1E010
:10209000F91210AA021FE474F11217168A088B09AC
:1020A0008C0A8D0B740F12169E780C121523908FCC
:1020B000B578081214FD908FB5780C1214FD7808CD
:1020C000790C12133550157808790C1214D5908FAD
:1020D000857808121355401579018013780C79081A
:1020E0001214D5908F85780C12135540EB79007F30
:1020F000080217C274ED1217168A088B098C0A8D14
:102100000B741312169E780C121523908FB5780855
:102110001214FD908FB5780C1214FD780C7908120A
:10212000133540117808790C1214D5AA08AB09AC04
:102130000AAD0B8022751000751100751200751321
:10214000017810790C1214D57810790812149CAA11
:1021500010AB11AC12AD137F0C0217C2908FB57883
:10216000081215238A828B8378081215107F0402C7
:1021700017C274F51217168C828D837808121523F6
:102180008A828B8378081214E91221C6C3E098F082
:10219000A3E0991221B8401E908F9578081215235C
:1021A0008A828B8378081214C28E828F83E0242067
:1021B000F0A3E0344EF080A4F08E828F83C3E094CD
:1021C00020A3E0944E22EA2404F8EB3400F9E8FE60
:1021D000E9FF8C828D83A3A3A3A3E0F8A3E0F98E8B
:1021E000828F832274F5121716E9FE900514E0FA27
:1021F000A3E0FBEEC333F8E433F974C928F5827425
:102200008E39F583E02AF508A3E03BF5097808123A
:1022100018BD908FAD121541121DE074021216699F
:102220008A088B098C0A8D0B74107808121464AA22
:1022300008AB097F040217C274F11217168A0C8BBF
:102240000D8C0E8D0F740F12169EE0FAA3E0FB7436
:102250001112169EE0F508A3E0F509741312169EFC
:10226000E0FEA3E0FF78081218BDEA2401F508EBB0
:102270003400F509E4F50AF50B780C7908121374AB
:10228000908F997808121523780C7908121374AA84
:102290000CAB0DAC0EAD0F121DE074021216698B63
:1022A00009EA450960047A0180027A00EC2AFCED13
:1022B0003400FDECF8EDF97A717B021215C888083C
:1022C0008909E4F50AF50B8E828F8378081215329E
:1022D000ECF8EDF97A717B021215C88A088B097443
:1022E0000578081216408E828F83A3A3A3A3E50866
:1022F000F0A3E509F07F080217C2C082C083E9900D
:102300006000F0D083D08222C0E0C0D0E8C0E0E915
:10231000C0E0EAC0E0EBC0E0ECC0E0EDC0E0EEC041
:10232000E0C082C083C0F0A2AFE433FED2AFC2C02F
:10233000E5D1A2E4500653D1EF12121E751A00EE39
:10234000A2E092AFD0F0D083D082D0E0FED0E0FD0A
:10235000D0E0FCD0E0FBD0E0FAD0E0F9D0E0F8D05B
:10236000D0D0E032C0E0C0D0E8C0E0E9C0E0E5A8ED
:10237000D2AFC2C7751A00A2E7A2E792AFD0E0F9C8
:10238000D0E0F8D0D0D0E032C0E0C0D0E8C0E0E982
:10239000C0E0EAC0E0EBC0E0ECC0E0EDC0E0EEC0C1
:1023A000E0EFC0E0C082C083C0F0E5A8FED2AF7508
:1023B0008900C2C57A047B00900F3AE0F9121056EA
:1023C000EEA2E7A2E792AF7C097D007A227B8F79AB
:1023D0000012120CD0F0D083D082D0E0FFD0E0FE0B
:1023E000D0E0FDD0E0FCD0E0FBD0E0FAD0E0F9D0C6
:0723F000E0F8D0D0D0E0328C
:1023F800FFFFFFFFFFFFFFFFC082C083E990103F90
:10240800F002268474F71216AAE99002E0F07C180C
:102418007D037AFF7BFF1208109002E174FFF0A39E
:10242800F0A3E4F0A3F079051207989002E0E0F930
:102438001206C07A2E7B081209F002339274F41245
:1024480016AA8A088B09EB548060309002E0E0F904
:102458001210508A0A8B0BAE0AAF0BEE4F60138E28
:10246800828F83E064B070031207B0EEFAEFFB12BC
:10247800103EAA08E5096480FB80047A007B00020C
:10248800265374F21216AA74FC121653EAFEEBFFD6
:10249800741212169E123879EE4F700302252D74AD
:1024A8000212169EEEF0A3EF12288EECF0A3ED12A6
:1024B800288EAA82AB831206BAE9F50A706AE50883
:1024C800450960648E828F8312385FEE4F60567ABA
:1024D800067B001210928A0C8B0DA80CA90DE849F6
:1024E8007005750A13804188828983E412253AEEC3
:1024F800F0A3EF12388AE508F0A3E509F09002E6A8
:102508001225C19002E6700512333C801B12332A53
:102518008003EAFCEBFD8C828D831225C170F38C5D
:10252800828D8380E3750A02A90A7404121669026F
:102538003A79F0A3123830A32274F21216AA890A43
:10254800E975F017A4FEAFF09002E5E4F09002E31D
:102558001225C1600A1210989002E3E4F0A3F0EE8D
:10256800FAEFFB1210928A088B09EA4509602FEEF0
:10257800FCEFFD790012102C9002E3E508F0A3E5CA
:1025880009F07B0080081225ABE4F0A3F00BEBC345
:10259800950A40F2E50A9002E5F079008002791385
:1025A800023A79EB75F017A4F8A9F09002E3E02855
:1025B800FAA3E0398A82F58322122FCEEA4B2274DD
:1025C800F41216AA740C12169E123854FEE9FF75FE
:1025D8000800750900800CE5082401F508E50934B0
:1025E80000F509C3E5089CE5099D503285080A8570
:1025F800090B7403780A121640EA250AF8EB350B22
:10260800F988828983A3A3A3A3A3A3123411EE6537
:102618000A7003EF650B70BFE8FAE9FB80047A00E3
:102628007B00802774F41216AA7900EAA2E0501BF6
:1026380075085275098F78081218BD7C047D007AD8
:10264800417B1012079274021216697F0402177CEC
:10265800C082C0839002E612268B601C8882898320
:10266800A3A3E06A7003A3E06B8882898370E8A360
:10267800A3A3A3122FCA80047A007B00D083D08240
:10268800020135123B5FE8492274EE1216AA74FC67
:10269800121653EAFEEBFF851882851983E4F0A32E
:1026A800F0EE240212331CEE2405123837EE24040F
:1026B800F50EEF122C43E024FE603924FC6046241A
:1026C800FE605224FE605E24FE70030227A424FEEE
:1026D800700302280824FE700302281724FE7003E2
:1026E80002282624FC700302283524FE70030228E1
:1026F800440228819002FF7417F0A3E4122896126E
:102708000438022881851882851983AC82AD83122A
:1027180007B6022851851882851983AC82AD8312C9
:1027280007BC022851850C08850D09740212169EF3
:10273800AC82AD83850882850983122FCA1206DE12
:102748008A0C8B0DAC0CAD0DEC4D603BE4F50CF533
:102758000D780C1218BD750CFF750D02780C121847
:10276800BD750C00750D03780C1218BD740812168F
:102778009E1218D4123CDB121669E9F50C700B1284
:102788002FC0120450800F750C01850882850983BB
:1027980012288412333C850C08022854740212163D
:1027A8009EAC82AD83850C82850D83122D95603C8D
:1027B800850C82850D83A3A31218D47510FF75119B
:1027C8000278101218BD75100075110378101218D0
:1027D800BD740812169E1218D4123CDB121669E951
:1027E800F509700B122FC0120456800F7509018568
:1027F8000C82850D8312288412333C850908804C8D
:10280800851882851983AC82AD831207C2803A8508
:102818001882851983AC82AD831207C8802B85186E
:1028280082851983AC82AD831207CE801C851882FD
:10283800851983AC82AD831207D4800D85188285F3
:102848001983AC82AD831207DAE9F508E508602937
:102858008E828F83A3E06414601F850E82850F83A8
:10286800E09002FF12288E123B5B90030012333C6B
:10287800E508A312289612043202322B123B5F8518
:10288800188285198322F085188285198322F07CA5
:10289800FF7D02850A82850B83122FCE2274EE12E9
:1028A80016AA74FC1216538A0A8B0B8C0E8D0FEA2B
:1028B8002405F508EB3400F5097C157D0079007ACC
:1028C800FF7B0212102CE5082402F50CE5091238EA
:1028D8003A851882851983858210858311781012AC
:1028E80018BD850882850983A3A3A3A3122D8C1282
:1028F80018BDE5082405F510E5093400F511781030
:102908001218BD850C82850D831230E11206D87429
:10291800061216698A108B11AE10AF11E50A24024F
:10292800F50AE50B12331FEE4F7003022A63801776
:10293800740212169E122FCA88828983EAF0A3EBCA
:10294800F09002FFE004F09002FFE0C3940540031A
:10295800022A63E4F510F51178101218BD7510E815
:1029680075110278101218BD7510E97511027810EA
:102978001218BD740612169E1218D47910EEFCEFC8
:10298800FD123CDD121669E9705E850882850983AF
:10299800A3A3A3A3A3A3A3E0F89002E8E068704868
:1029A800122D8C1218BD7CE97D02E5082408FAE591
:1029B800093400FB1210267402121669E960298E88
:1029C800828F83A3A3A3A3122FCA9002FFE0F5105E
:1029D8007402781012164074002510F582740335BD
:1029E80011F583EAF0A3EBF0740212169E858210AB
:1029F80085831178101218BD740212169E1218D40D
:102A0800850C82850D83122FF01216698A108B119E
:102A1800AE10AF119002FFE0F51075110074027846
:102A28001012164074FF2510F874023511F98882C7
:102A38008983A31225C1700302292FE824030808FB
:102A480008E93400F9EE4F60030229388882898347
:102A580074FFF0A3F09002FFE004F09002FFE06042
:102A68000A122FC01204447900800B850882850958
:102A780083123333790A02322B74EA1216AA74FECF
:102A88001216538C128D13EA2405F50CEB123CC573
:102A9800123863750800750900EA2402F510EB3452
:102AA80000F51185188285198385820A85830B783C
:102AB8000A1218BD850C82850D83A3A3A3A3122C2B
:102AC800591218BDE50C2405F50AE50D12331F78D7
:102AD8000A1218BD850C82850D83122C5D1206D84A
:102AE80074061216698A0A8B0BEA450B7003022BCF
:102AF800FEEA2404F50EEB122C431238638A828B0B
:102B080083A3A3A3E0F9851082851183122FD460D3
:102B180003022BFEE4F514F51578141218BD75148C
:102B2800E875150278141218BD7514E97515027840
:102B3800141218BD740612169E1218D47913AC0A12
:102B4800AD0B851082851183123CE3121669E9F5F5
:102B5800096003022BFE9002E8E0F8E5087009E03E
:102B68002402900300F08014900300E0FCE82402A3
:102B7800FAE43400FBEA6C7001EB707E850882AAE7
:102B880082122D839414122D7B506B850E82850F33
:102B980083E0C0E074012A122C3AD0E0F0050885E1
:102BA8000E82850F83A3E0C0E085080A7401250A18
:102BB800122C3AD0E0F005089002E8122C591218AD
:102BC800BD7CE97D0285080A7401250A122C4D1284
:102BD80016699002E8E02508F50874FF6E70037422
:102BE800FF6F6012EE24010EEF3400FFE508C39476
:102BF800145003022AABE5086013122FDE851082F9
:102C0800851183122FCA12044A79008014E50970CD
:102C18000375090A851282851383EEF0A3EFF0A9E4
:102C28000974021216697F0E02177C85080C74015C
:102C3800250CF58274033400F583223400F50F85E2
:102C48000E82F58322FA74033400FB121014740206
:102C58002212389922A3A3122C632212332AFDEEE2
:102C6800FAEFFB2274EE1216AA74FE1216538C0E9B
:102C78008D0FEA2405F50CEB12383A750B0090021B
:102C8800FFE4F0F50AEA2402F508EB3400F50980C0
:102C9800449002FFE0FA9002E8E0F8122D839417BE
:102CA800122D7B400D9002FFE0F87416C398900235
:102CB800E8F0122D8C1218BD7CE97D0274002AFA06
:102CC8007403122C501216699002E8E0F89002FF83
:102CD800E028F0050AE50C2416F582E50D122C3ED5
:102CE800E0F8E50AC39850749002FFE0C3941650C8
:102CF8006BE50AC333F8E433F9E50C28FEE50D3932
:102D0800FF851882851983AC82AD838E828F8312EA
:102D18002D957008750B0112332F8050E4F510F5CE
:102D28001178101218BD7510E87511027810121874
:102D3800BD7510E975110278101218BD74061216C7
:102D48009E1218D47916850882850983123CE312ED
:102D58001669E9F50B7003022C9980BB7CFF7D0294
:102D6800850882850983122FCA12045CA90B740294
:102D780002322DE99400C365D03322EA28F8E434FE
:102D880000F9E822E0F510751100781022123222BD
:102D98008A108B11AC10AD11EC4D2274EA1216AAF0
:102DA80074FC1216538A0C8B0D8C128D13EA2405B1
:102DB800F50AEB12331F750800750900E50A2402AD
:102DC800F510E50B3400F511740212169E85820E7B
:102DD80085830F780E1218BD850A82850B83A3A3FD
:102DE800A3A312383F1218BDE50A2405F50EE50B1A
:102DF8003400F50F780E1218BD85108285118312E4
:102E08003325122FC41206D874061216698A0E8B3F
:102E18000FAE0EAF0FE50C2402F50EE50D3400F5EC
:102E28000F80388882898374FFF00508122C337468
:102E3800FFF005089002E8E0F50C750D00780C121B
:102E480018BD7CE97D0285080C7401250C122C4DF7
:102E58001216699002E8E02508F508EE4F60278E03
:102E6800828F83A3A3A3E0F9850E82850F83122F97
:102E7800D4EE2404123837E96027850C82850D8347
:102E8800122FB612333CE5087003022F9C122FDE76
:102E9800850E82850F83122FCA1204627900022FD1
:102EA800B1E4F514F51578141218BD7514E8751504
:102EB8000278141218BD7514E975150278141218E1
:102EC800BD740812169E1218D47911EEFCEFFD8518
:102ED8000E82850F83123CE3121669E9F509709A90
:102EE800850882AA82EA9002E87009E02404900327
:102EF80000F08025E0F8900300E0F514E82404FCD5
:102F0800E43400FDEC65147001ED7081122D83949A
:102F180012122D7B4003022E95850C82850D83E0CD
:102F2800C0E074012A122C3AD0E0F00508850C8222
:102F3800850D83A3E0C0E0122C33D0E0122FF98571
:102F4800820C85830D780C1218BD740412169E121B
:102F580018D4851082851183122FF01216698A0CF5
:102F68008B0DAE0CAF0D85080C7401250CF874039D
:102F78003400F9EE4F7003022E2B851882851983D1
:102F8800E088828983122FF9A3E0C0E0122C33D0A5
:102F9800E0022E39E509700375090A850A82850B56
:102FA80083122FB612333CA9097404022C2B123B4E
:102FB8005F851282851383227CFF7D02850A8285C4
:102FC8000B83122FCE22E0FAA3E0FB22122FCE129F
:102FD80006C6E9F50922900300E0F5F0E5088490BB
:102FE80002FFF07CFF7D0222122C631206E47404B7
:102FF80022F005088518828519832274EC1216AA16
:1030080074FE1216538A088B098C0E8D0FEA24055C
:10301800FEEB3400FF12320CEE2418123837EA4562
:103028000B70030230AF1231F550291230D48A10D8
:103038008B11EA4511606B7912AC0AAD0B850882D9
:10304800850983122FCA8510828511831216A8E973
:10305800F50A7058E4F50AF50B780A1218BD8E8245
:103068008F83A3A3E0F50A780A1218BDEE24031291
:10307800331C780A1218BD8E828F831230E1120732
:10308800FE7406121669E9F50A7021850C82850D11
:1030980083E0701F850882850983122FCA1204688D
:1030A8008011750A0E8009750A018004E50A60031B
:1030B80012332F850C82850D83E06004790080022D
:1030C800A90A74021216697F0C02177C851882857A
:1030D8001983122FCE1207EC2212332AFD8508829B
:1030E800850983122FCE2274EE1216AA74FE1216C8
:1030F800538A088B098C0C8D0DEA2405FEEB3400ED
:10310800FF750E0012320CEA450B70030231D31220
:1031180031F5502C1230D48A0E8B0FEA450F604AD5
:103128007912AC0AAD0B850882850983122FCA85EE
:103138000E82850F831216A8E9F50E60030231D6B8
:10314800850882850983123411AA0AFB1231E770B7
:10315800147AFF7BFF1231E7606C88828983E50A65
:10316800F0A3E50BF0750A008007750E0E805F0569
:103178000A9002E5E0FAE50AC39A504AE50A75F0B2
:1031880017A4FAABF088828983A3A3E02AFAA3E004
:103198003BFB8A828B83123325EC4D70D2750A175C
:1031A800750B00780A1218BDEEFCEFFD12101474AE
:1031B80002121669EEFCEFFD850882850983122F3D
:1031C800CA12046E8014750E098003750E01123B35
:1031D80057850C82850D8312333CA90E022D761279
:1031E80007E08A108B11A810A911E84922E50824E4
:1031F80002F508E5093400F5098A828B83A3A3A3A5
:10320800E0A2E522851882851983AC82AD838E827F
:103218008F831232228A0A8B0B22E0FAA3E0FB1278
:1032280006DE2274041216697F0A02177C74EC12F7
:1032380016AA8C108D11EA2405F50CEB12383A7594
:103248000F00EA2402F50AEB12331F850A82F58380
:10325800122FCA123D697003023311750E00807176
:10326800850C82850D83E06401704F8E828F83A365
:10327800A31218D48E828F83A3A3A3A3E0F512759B
:10328800130078121218BDEE2405F512EF3400F57C
:103298001378121218BD122FC41207FE74061216E4
:1032A80069E9F50F6014850C82850D83E4F0123B03
:1032B8005785108285118312333C7C177D00790075
:1032C800EEFAEFFB12102C8E828F83E4F0A3F00548
:1032D8000E9002E5E0F8E50EC398501EE50E75F075
:1032E80017A4F8A9F0850882850983A3A3123CCF07
:1032F800123325EC4D600302326885088285098304
:1033080074FFF0A3F0E50F7006122FC4120474A91D
:103318000F0230CFF50AEF3400F50B22A312332A3F
:10332800FD22E0FCA3E0228E828F83123B5F850E94
:1033380082850F83E8F0A3E9F022C082C08390025F
:10334800E1E06A7003A3E06B70067AE17B02800417
:103358007A007B0002268474F71216AA7F00EF75A4
:10336800F003A4F8A9F0EC28F8ED39F988828983EC
:10337800E06A7003A3E06B7006E8FAE9FB800B0FC4
:10338800EFC3940240D87A007B007F0102177C7457
:10339800F61216AA12394870067A007B008007A335
:1033A800A3A3A3122FCA023A0974F21216AAE9FEBD
:1033B800740E12169E123411741012169E12387959
:1033C8008C828D83E06402703BA3123B5B88828908
:1033D80083E0F50CA3E0F9A80C7402687003742963
:1033E800697021750C02750D00780C1218BD7808EB
:1033F8001218BD780A1218BDEEF9120822740612C6
:10340800166980027901023A79E0F50AA3E0F50B22
:103418002274E81216AA74FB121653E985188285DD
:103428001983F08A168B178C0E8D0F741F12169E37
:10343800123879742112169E123411742312169EB2
:103448001238637510008C828D83A3A3A3E0A2E4D5
:10345800502A741D12169E1230DA8A828B83E582F6
:1034680045837003023525790AAC0EAD0FAA16AB59
:10347800171216A8E9F5106003023528850E828513
:103488000F83E0640260030237DEA3123B5B85080A
:1034980082850983A3858212858313E50E2406F5A8
:1034A8000CE50F12383A88828983E0FAA3E0F9EA3A
:1034B8002400F514E439F5157814121947010000B1
:1034C800280128ED3407000228C4350328343500C4
:1034D80029EE36012916370229BD360329EE3604AE
:1034E800297F37DE37EE4F703E850C82850D8312BB
:1034F8003854FAE9FB8A828B83E0850A82850B833C
:103508001238901218BD8A828B83A312332AFDAA1F
:1035180008AB091210147402121669800375100E94
:10352800A9107405023CBD75100B80F4EE4F70F7BE
:10353800850A82850B837401F012386985088285B3
:103548000983F07C007D00850E82850F83A3A3A3E9
:10355800A3E02401FAA3E03400FB1206DEEA4B6084
:10356800418A828B83E02402F8850A82850B83E0F6
:1035780028F0EA2404F8EB3400F988828983E0858E
:1035880012828513831238A21238901218BD8A82CB
:103598008B83123324E5082403FAE5093400FB027F
:1035A800351B850A82850B83E02404F07C047D00AA
:1035B8007900AA12AB1312102C023528EE4F6003C3
:1035C80002352F123869FEA3E0FF850A82850B8336
:1035D8007404F0EE850882850983F0EF85128285F0
:1035E8001383F0740312169EAC82AD83EEFAEFFBE0
:1035F800123936700302369A8A828B83A3A3123853
:103608005F740112169E85820E85830F780E12183C
:10361800BD740512169E1218D47CFF7DFF1206E4B5
:1036280074041216698B0FEA450F7033850C828576
:103638000D8312383F1218BD850C82850D83A312A5
:1036480018D47C027D007AF97B8F1205107404125D
:103658001669E9700A740112169E74FFF0A3F08EC1
:10366800828F83E064027034750C02750D00780C4B
:103678001218BD8E828F83123324E5082404FAE5DC
:1036880009122C50121669850A82850B83E02402E0
:103698008009740112169EEEF0A3EFF07401121661
:1036A8009E123850F0740112169EA3123848A3A334
:1036B800A3F0023528EE4F600302352F850C828572
:1036C8000D83123325AA16AB17120816850A8285B0
:1036D8000B837402F0EA850882850983F0851282DB
:1036E800851383EB80CBEE4F600302352F123869C8
:1036F800F8A3E0F9850A82850B837402F0E885084F
:1037080082850983F0E985128285138380A3850C5D
:1037180082850D83122FCA12100EEAFC8C82A882B1
:10372800C39EE49F404BE86E7001EF70047C0080FC
:103738001F851882851983E0FAEE2AFAEF3400FB18
:10374800C3EA98EB94005003E08004EECCC39CFCE1
:10375800EC850A82850B83F08C0A750B00780A12B7
:1037680018BD850C82850D83E02EFCA3E03F023551
:1037780016751007023528EE4F600302352F850CA9
:1037880082850D83123B5B850A82850B837407F063
:1037980088828983123848123830E085128285136E
:1037A80083F0E82402FAE93400FB8A828B8312381A
:1037B80048123881123850A312388A123859F0E862
:1037C8002405F8E93400F988828983123859A3124C
:1037D80038A2A30236B6741D12169E123941700320
:1037E800023525123B5B880C890DE8450D700302F4
:1037F80035258E108F1178101218BD780A1218BD51
:1038080078081218BD740612169EE0F9AC0EAD0FBA
:10381800AA16AB17850C82850D831216A87406129A
:103828001669E9F510023528F088828983A322F504
:103838000CEF3400F50D22E0F50E750F00780E221E
:10384800E0850882850983221238A922123B5FE8A5
:10385800221238A9A3A322A3A3A3A3E0FEA3E0FFF7
:1038680022850C82850D83E0F8A3E0F5838882E049
:1038780022E0F508A3E0F50922A3A3F08A828B834E
:10388800A32212253CA3A322F08A828B83123899A3
:1038980022E0F50A750B00780A221238301238A98E
:1038A80022E0850882850983A3A32274EE1216AA52
:1038B80074FE1216538A0A8B0BECFAEDFB74141281
:1038C800169EE0F510A3E0F511741612169EE0FEA0
:1038D800741812169EE0F50EA3E0F50F8518828580
:1038E8001983AC82AD83123936603E8518828519FA
:1038F80083123941602FA3A3123879E5084509607E
:1039080024780E1218BD78101218BDEEF9AC0CAD63
:103918000DAA0AAB0B8508828509831216A87404C0
:103928001216698006790E80027901022D76120638
:10393800DE8A0C8B0DEA450D22122FCE1239482251
:103948001207AA8A828B83E58245832274F61216AF
:10395800AA74FE121653740C12169E123854851847
:1039680082851983F0740112169EE9F0E4F508F5D2
:103978000978081218BD75080278081218BD740471
:1039880012169E85820885830978081218BD1207C9
:10399800FE74061216697402121669806474F712AE
:1039A80016AAEAFEEBFF89087C187D03120816EABE
:1039B8005402600BA908EEFAEFFB1206D2800279D6
:1039C8000102339274F61216AA74FF6A700374FF28
:1039D8006B701C7B00EB75F003A4F8A9F0EC28F8D9
:1039E800ED39F9123A0E0BEBC39402501480E6122B
:1039F80007E68A088B09A808A909E8496003123A6A
:103A08000E7F0202177C8882898374FF12253AE4AC
:103A1800F02274F61216AA1207E68A828B83E582D0
:103A280045836006A3A3E0FA80027A007B0080D178
:103A380074F21216AA8A088B09ECFEEDFF740E12B6
:103A4800169EE0F50A123A7E701CEEFCEFFD7AFF36
:103A58007BFF123A7E70047911801688828983E58B
:103A680008F0A3E509F088828983A3A3E50AF07921
:103A7800007F0602177C1207E68A0C8B0DA80CA99A
:103A88000DE8492274EE1216AAEAFEEBFF8C088DA7
:103A980009890C741212169E123B5B741412169E3E
:103AA800123325741612169E122FCA750D00EC4D8E
:103AB8006003023B4F7402650C6003023B4A888234
:103AC800898312332AF9EC2400F50EE439F50FEA5C
:103AD800F4F8EBF4F9EC58F8E50F59F9E849705D9A
:103AE800E5082406F8E5093400F9880A890B888274
:103AF800F583122C5F1208168A108B11E50E6510DB
:103B08007004E50F65116042780E1218BD850A82AF
:103B1800850B83122C5F12081C7402121669E9F5D2
:103B28000D7027780E1218BD850882850983A3A316
:103B3800122C5D1208347402121669800D750D80FE
:103B48008008750D0D8003750D0BA90D0232308E9E
:103B5800828F83123B5F22E0F8A3E0F92274E81217
:103B680016AA74E7121653851882851983EAF0A3FA
:103B7800EBF08C168D17890E743112169EE0F51233
:103B8800A3E0F513743312169EE0F514A3E0F515BF
:103B9800743512169EE0F50F750800750900E509E1
:103BA80075F003A4F8A9F0851882851983123CCF13
:103BB800E0F47003A3E0F47003023CADEE2402F5D8
:103BC8000CEF123CC5E07003023CAD85160A851760
:103BD8000B780A1218BDAC14AD15AA12AB13120754
:103BE8009E74021216698A0A8B0BEA450B7003024F
:103BF8003CADE4F510F51178101218BD74061216D4
:103C08009E85821085831178101218BD74091216CA
:103C18009E85821085831178101218BD85128285C1
:103C28001383A3A3A3A31218D47914AC0AAD0B8EE3
:103C3800828F83123CE3121669E97069850A8285CE
:103C48000B83A3A3A3A3123B5B740212169E123329
:103C58003C850C82850D83E0A2E05018A90E740201
:103C680012169EAC82AD838E828F83122FCA1206E3
:103C7800F6E94208850C82850D83E0A2E15026E52D
:103C88000FF50A780A1218C1A90E740312169EAC11
:103C980082AD838E828F83122FCA1206F0740112AE
:103CA8001669E942080509E509C394025003023B75
:103CB800A6A90874191216697F1002177C3400F53A
:103CC8000D850C82F58322E028FEA3E039FF8E8261
:103CD8008F83227916850A82850B83122FCE1207CD
:103CE800F874082274F21216AAEAFEEBFF890B7424
:103CF80001650B600E7402650B70637901120A0E80
:103D0800E9705BEEFAEFFB123D696047750A0080C7
:103D18000B7C177D00790012102C050A9002E5E053
:103D2800F8E50AC3985021E50A75F017A4F8A9F038
:103D3800850882850983A3A3E028FAA3E039FB8AD2
:103D4800828B8312268B70C985088285098374FF4C
:103D5800F0A3F07C187D03EEFAEFFB120810023A8C
:103D6800791207E08A088B09EA45092274F21216CB
:103D7800AA8A088B09ECFEEDFF740E12169E123407
:103D88001190103FE0F4603D7A097B00121038EA88
:103D98004B60328A828B8374B1F0A3E4123883A318
:103DA800123881A3E508F0A3E509123DD0EEF0A38F
:103DB800EF123DD0A3A3E50AF0A3E50BF090103F66
:103DC800E0F9121044023A79F08A828B83A3A3A304
:103DD800A3A32274EC1216AA890A7F008A088B0909
:103DE800780812190100040DC53F0E3E2C3E483ECE
:103DF800663E843EA23EC43EE23EF63E2A3F573F20
:103E08006E3F853FA03F7401650A6003023FC18C85
:103E1800828D83E0F8C394034003023FC1E8901108
:103E28002B023F9D7402650A6003023FC18C828D9C
:103E380083E0F8A3E0F990112CE8F0A3E9023F9D94
:103E48007401650A6003023FC18C828D83E0F8C368
:103E580094024003023FC1E8900781023F9D74012C
:103E6800650A6003023FC18C828D83E0F8C3940524
:103E78004003023FC1E8900782023F9D7401650A32
:103E88006003023FC18C828D83E0F8C39402400333
:103E9800023FC1E8900783023F9D7410650A6003E2
:103EA800023FC17508108F0978081218BD7A847B03
:103EB800071210147402121669023FE67401650AAB
:103EC8006003023FC18C828D83E0F8C394024003F3
:103ED800023FC1E8900794023F9D7401650A6003A0
:103EE800023FC18C828D83E090112F023F9D7404A4
:103EF800650A6003023FC18C828D83780C121523FA
:103F080075104075114275120F8F137810790C12C5
:103F180013354003023FC1900796780C1215320200
:103F28003FE6E96003023FC112067EE9701A7E008F
:103F3800EEF912114CE9F80EEEC3940A5003E8604A
:103F4800EF7950121278806C9008297401804674B9
:103F580001650A70648C828D83E0F8C3940250591D
:103F6800E8900795802F7401650A704D8C828D83C7
:103F7800E0F8C3940A5042E890112E801874016545
:103F88000A70368C828D83E0F874F928C3940A503D
:103F980028E8901130F080467401650A701B90087B
:103FA80028E0F88C828D83E0900828F0E8702FE0F4
:103FB8006401702A12114680257F188021C3EA9473
:103FC80026EB940050167402650A70108C828D835B
:103FD800E0FCA3E0FD12051CE9FF80020F0FEFF9DA
:103FE8007F0C02177C74F01216AA74B11216538C47
:103FF8000A8D0B742012169EAC82AD8375838F7563
:1040080082407406121566742012169EAC82AD8327
:10401800121122E9FF745F12169EE0F50CEFC394AB
:104028000A40030241EB75F006EFA4F5087441124B
:10403800169EAC82AD837A0E74202508F91212728E
:10404800E97009744D12169EE0FE80027E00901100
:104058002BE064027005750E018003750E0074086C
:10406800650C70047422800274212508F5097C1BF4
:104078007D007900742612169EAA82AB8312102C3A
:10408800742612169EAC82AD837A1BA9091212728D
:10409800E97031744012169EE024F9C3940A502442
:1040A800E50EF50978091218C1742712169EAC821C
:1040B800AD83EEA2E0E433F9AA0AAB0B1205BE7495
:1040C800011216697C147D007900740C12169EAAE0
:1040D80082AB8312102C740C12169EAC82AD837ABC
:1040E8001074242508F9121272E9703C7C1079FFCB
:1040F800740C12169EAA82AB8312107AE970297486
:104108001C12169EAC82AD837A0474252508F91218
:104118001272740C12169EAC82AD83EEA2E0E433E8
:10412800F9AA0AAB0B1205A6851882851983AC82F9
:10413800AD837A0C74702FF9121272E96003024190
:10414800DA851882851983A882A98388828983E001
:10415800F4FAA3E0F4FB88828983EAF0A3EBF0E8A1
:104168002402F582E93400F583E0F4F0E82403F84A
:10417800E93400F9740C12169EE582687003E58331
:104188006970C87F008518828519838582088583B0
:1041980009850882850983E0FCA3E0FDEC4D601FDA
:1041A800850882850983A3A3E0F50E750F00780EB4
:1041B8001218BDAA0AAB0B12080474021216690F72
:1041C800E5082403F508E5093400F509EFC394046C
:1041D80040BFEEA2E1500C900780E0F9AA0AAB0BB1
:1041E80012080A7404650C702790112BE0640270A1
:1041F8001F7A00900794E060010A900781E060044C
:10420800780480027800E84AF9AA0AAB0B1206661D
:104218007900744F1216697F0802177C74EE121623
:10422800AA74E21216538A0A8B0BECFEEDFF75088E
:104238000AE9600F14600C1460701470030242F8ED
:10424800024380750E00750C9C750D077510067578
:10425800110078101218BDAC0AAD0BAA0CAB0D12E8
:1042680010267402121669E96026850E08E508C34F
:10427800940A4003024380EE4F7003024380750C9A
:1042880006750D00780C1218BDAC0AAD0B0243740C
:10429800050EE50C240EF50CE50D3400F50DE50EC4
:1042A800C3940A400302438080A2750E00750CA2D5
:1042B800750D0775100675110078101218BDAC0A37
:1042C800AD0BAA0CAB0D1210267402121669E96028
:1042D80005850E08805C050EE50C240EF50CE50D31
:1042E8003400F50DE50EC3940A400302438080C3F1
:1042F800750C00750D23740E12169EAC82AD837A70
:1043080010A90D121272E970767C1079FF740E12E2
:10431800169EAA82AB8312107AE97063AC0AAD0BC1
:10432800740E12169EAA82AB83120588E970508516
:104338000C08E508C3940A503FEE4F603B8518828D
:10434800851983AC82AD837A0E75F006E508A4243E
:1043580020F9121272E97020750A06750B00780AA6
:104368001218BD740212169EAC82AD83EEFAEFFBF2
:104378001210147402121669A908741E02493B052A
:104388000C7406250DF50DE50CC3940A50EA02429B
:10439800FE74F41216AA74F21216538908750915D8
:1043A80074FF6A700374FF6B60030244377E2085D4
:1043B8001882851983AC82AD837A0EEEF9121272D7
:1043C800E970527C0679FF851882851983AA82AB29
:1043D8008312107AE9703E740C12169EE0F8A3E07E
:1043E800F9E8FAE5086005EAD2E18003EAC2E1FAF1
:1043F800E86A7001E9601B740C12169EEAF0A3E4E7
:10440800F0851882851983AC82AD837A0EEEF91295
:10441800126C75090074062EFE745C6E7091E508C6
:1044280070030244F27A647B11120A200244F212E9
:104438000A028A0A8B0BAE0AAF0BEE4F70030244D6
:10444800EF7C007D00EE2405FAEF3400FB8E828FAE
:1044580083A3A3A3A3E0F9121122E9F8C3940A5095
:104468006E75F006E8A42420F5098518828519835D
:10447800AC82AD837A0EF9121272E9704F7C06791C
:10448800FF851882851983AA82AB8312107AE97096
:104498003B740C12169EE0F8A3E0F9E8FAE5086010
:1044A80005EAD2E18003EAC2E1FAE86A7001E9604C
:1044B8001B740C12169EEAF0A3E4F0851882851985
:1044C80083AC82AD837A0EA90912126C750900E5D6
:1044D800086017900780E0F98E828F83A3E0FAA323
:1044E800E0FB12080A8003750914A909740E121654
:1044F80069024FEFC082C08390079AEAF0A3EBF0FD
:10450800900780E0FC7D007A257B0012051C90074F
:1045180080E0F9120780D083D08202013574EE1250
:1045280016AA74EC121653EAFEEBFF8E828F83A351
:10453800A3E024FA700302490B24FD70030247E24A
:104548001470030245F914601024FD70030247A09B
:1045580014700302481C02493990079AE0F8A3E056
:10456800F9E849605CE0F5838882E0F8A3E0F9881F
:10457800088909E845096049EE240CF582EF340002
:10458800F583E0F50A780A1218C1EE240BF582EFDC
:104598003400F583E0F98E828F83A3A3A3A3A3A39A
:1045A800A3A3A3E0FCA3E0FDEE2403FAEF3400FB91
:1045B8008508828509831216A874011216690249B2
:1045C80039EE2409F8EF3400F9E8FEE9FF8E828F0E
:1045D800831218D49007961215411205B874021266
:1045E8001669E9700302493979018E828F8302487E
:1045F800A68E828F83A3858210858311E0600302D3
:10460800476FEE2405F508EF3400F509850882F5B3
:1046180083E0A2E0400302476F7C0E7D00790085AD
:104628001882851983AA82AB8312102CEE2408F510
:104638000EEF3400F50F850E82F583E0FAA3E0FB58
:10464800EA4B6010750A06750B00780A1218BDEA65
:10465800241080248E828F83A3A3A3E0FAA3E0FB17
:10466800120A02EA4B7003024939750A06750B00F3
:10467800780A1218BDEA2405FCEB3400FD74021216
:10468800169EAA82AB83121014740212166985084A
:1046980082850983E0A2E25004D2F08002C2F0A22F
:1046A800F0E433F8740C12169EE048F08E828F8383
:1046B800A3A3A3A3A3A3A3A3A3A3E0F50CA3E0F53B
:1046C8000DE50C450D6013E50C2410F582E50D345D
:1046D80000F5837808121523800C7508FF7509FF0B
:1046E800750AFF750BFFE50C450D7006750C007516
:1046F8000D00850E82850F83E0F50EA3E0F50FE52A
:104708000E450F7006750E00750F0078081218B95F
:10471800780C1218BD780E1218BDEE240CF582EF35
:104728003400F5831218D48E828F83A3A3A3A3A386
:10473800A3E0FCA3E0FD740A12169EAA82AB8312C2
:104748001140740A1216698E828F83A3A3A3E0F81E
:10475800A3E0F990082AE8F0A3E9F07A017B009039
:104768000780E0F912105690079AE0F8A3E0F9E8FC
:10477800497003024939E0F5838882A3A3E0F8A3CE
:10478800E0F98909E84509700302493985108285ED
:104798001183E0FC7901802E90079AE0F8A3E0F9F4
:1047A800E8497003024939E0F5838882A3A3E0F859
:1047B800A3E0F98909E8450970030249398E828F17
:1047C80083A3E0FC79028E828F83A3A3A3E0FAA3DC
:1047D800E0FB88828509830249067C007D00EE247F
:1047E80004FAEF3400FB8E828F83A3A3A3E0F912AF
:1047F8001122E9F8C3940A4003024939EE240AFC5D
:10480800EF3400FD7A0475F006E8A42425F91212A5
:104818006C024939EE2403F50AEF3400F50B850ADA
:1048280082F583E0FAA3E0FB900795E0600790111A
:104838002EE0F9806E90112BE070047905806412E7
:104848000A028A088B098E828F83A3A3A3A3A3A33A
:10485800A3E0A2E05053EA450970030249398A826D
:104868008B83A3A3A3A3E0F50C603E8E828F83A362
:10487800A3A3A3A3A3A3A3A3E05410702C740E12A4
:10488800169EAC82AD83EA2405FAEB3400FBA90C32
:10489800121122E970137903850A82850B83E0FAE5
:1048A800A3E0FB1205B2024939EE2405FCEF3400FF
:1048B800FD850882850983A3A3A3A3E0F9850A825D
:1048C800850B83E0FAA3E0FB12116A90079AE0F8DF
:1048D800A3E0F9E849605AE0F5838882A3A3E0F8E9
:1048E800A3E0F9E8FEE9FFEE4F60467C0079008519
:1048F8000A82850B83E0FAA3E0FB8E828F8312166F
:10490800A8802E12067EE97028900829E0640170BC
:10491800187E00EEF912114CE9F80EEEC3940A5015
:1049280003E860EF900829E4F07950121278121128
:104938004674141216697F0A02177C74F21216AABA
:1049480074E6121653890D8A088B09ECFEEDFF7484
:104958000C12169EAC82AD837A0E75F006E9A4247B
:1049680020F9121272E96003024B367C0679FF7453
:104978000C12169EAA82AB8312107AE96003024BCE
:10498800367470250DF50C851882851983AC82ADB7
:10499800837A0CF9121272E96003024B328518828D
:1049A800851983A882A98388828983E0F4FAA3E021
:1049B800F4FB88828983EAF0A3EBF0E82402F5820D
:1049C800E93400F583E0F4F0E82403F8E93400F969
:1049D800740C12169E85820A85830BE8650A70039B
:1049E800E9650B70C2E5084509702D7C0C790085D6
:1049F8001882851983AA82AB8312107AE9600302B0
:104A08004B327C0C7D007900851882851983AA8237
:104A1800AB8312102C024AE47A0085188285198328
:104A2800A882A98388828983E065087004A3E06569
:104A3800097018EA75F003A4F8A9F0851882851999
:104A480083E58228F8E58339F980130AE82403F816
:104A5800E93400F9EAC3940440CA78007900E849C7
:104A6800705AEE4F7003024B367C00851882851908
:104A780083A882A98388828983E0FAA3E0FBEA4BB2
:104A88007018EC75F003A4F8A9F0851882851983CD
:104A9800E58228F8E58339F980130CE82403F8E95E
:104AA8003400F9ECC3940440CC78007900E84960FC
:104AB8007D88828983E508F0A3E509F0E82402F5FA
:104AC80082E93400F583E0FAEE6A7001EF605BEE8C
:104AD800F04F700888828983E4F0A3F085188285F6
:104AE8001983A882A98388828983E0F4FAA3E0F471
:104AF800FB88828983EAF0A3EBF0E82402F582E9D7
:104B08003400F583E0F4F0E82403F8E93400F9E828
:104B1800650A7003E9650B70CD851882851983AC29
:104B280082AD837A0CA90C12126C7901800279008B
:104B3800741A1216697F0602177C74F01216AA748A
:104B4800F3121653EAFEEBFF8C088D09EE4F700541
:104B5800790A024D3F750B00750C9C750D07750E93
:104B680006750F00780E1218BDEEFCEFFDAA0CAB0F
:104B78000D1210267402121669E97003024CE085C2
:104B88000B0AE50AC3940A4003024CF8E50AC394E9
:104B98000A4003024D3D75F006E50AA4F50BEEFC4C
:104BA800EFFD7A0E7420250BF912126CE508450901
:104BB800600EAC08AD097A1B7421250BF912126C32
:104BC800741D12169EE0FCA3E0FDEC4D600A7A1BF2
:104BD8007422250BF912126C741F12169EE0FCA3A6
:104BE800E0FDEC4D600A7A107423250BF912126C63
:104BF800742112169EE0FCA3E0FDEC4D601D7A10B6
:104C08007424250BF912126C742312169EAC82AD13
:104C1800837A047425250BF912126C7C0C7D0079BB
:104C2800FF740112169EAA82AB8312102C74011213
:104C3800169EAC82AD837A0C7470250AF912126C38
:104C480075080E75090078081218BDEEFCEFFDE531
:104C58000A75F00EA4F8A9F0749C28FA740739FBB9
:104C68001210147402121669900828E060301208B5
:104C78007C7E9C7F077C0679FFEEFAEFFB12107AA8
:104C8800E97009EEFAEFFB7900120882EE240EFEB5
:104C9800EF3400FFEE64287003EF640870D77508DE
:104CA800007E9C7F077C0679FFEEFAEFFB12107AF4
:104CB800E970020508EE240EFEEF3400FFEE6428CA
:104CC8007003EF640870DEE508C3940285188285D6
:104CD8001983405374028051050BE50C240EF50C22
:104CE800E50D3400F50DE50BC3940A5003024B663D
:104CF800750B00750C9C750D077C0679FFAA0CAB2B
:104D08000D12107AE96006850B0A024B94050BE533
:104D18000C240EF50CE50D3400F50DE50BC3940AD3
:104D280040D7750A0A800E740AF0AC82AD837A0106
:104D38007905120696A90A740D02421C74F7121618
:104D4800AA74FF1216537508007E9C7F07EEFCEFCD
:104D5800FD7A0E75F006E508A42420F9121272E90E
:104D6800602C7C067D0079FFEEFAEFFB12102C7C9C
:104D7800067D0079FFEE2406FAEF3400FB12102CB2
:104D8800EE240CF582EF3400F583E4F0A3F0050877
:104D9800EE240EFEEF3400FFE508C3940A40AE90FF
:104DA8000828E0603012087C7E9C7F077C0679FF2B
:104DB800EEFAEFFB12107AE97009EEFAEFFB7900D0
:104DC800120882EE240EFEEF3400FFEE6428700312
:104DD800EF640870D77508007E9C7F077C0679FF12
:104DE800EEFAEFFB12107AE970020508EE240EFEC7
:104DF800EF3400FFEE64287003EF640870DEE50806
:104E0800C394028518828519834004740280027451
:104E18000AF0AC82AD837A01790512069674011204
:104E280016697F0102177C74F31216AA74CB121646
:104E380053E9FF75F006A4F50874202508FE7427C9
:104E480012169EAC82AD837A0EEEF9121272E960E8
:104E580003024F4C7C0679FF742712169EAA82AB78
:104E68008312107AE96003024F4C7C0E7D0079FFB3
:104E7800742712169EAA82AB8312102C7C1B7D000D
:104E880079FF740C12169EAA82AB8312102C7C0C2C
:104E98007D0079FF851882851983AA82AB83121059
:104EA8002C742712169EAC82AD837A0EEEF912127C
:104EB8006CE9F509740C12169EAC82AD837A1B74EA
:104EC800212508F912126CE9FE740C12169EAC82A8
:104ED800AD837A1B74222508F912126CE9F50A745D
:104EE8000C12169EAC82AD837A1074232508F91231
:104EF800126CE9F50B740C12169EAC82AD837A1015
:104F080074242508F912126CE9F50C740C12169E1B
:104F1800AC82AD837A0474252508F912126CE9F580
:104F280008851882851983AC82AD837A0C74702F3A
:104F3800F912126CE9F8EE450A450B450C4508488C
:104F480042098003750900A90974351216697F059D
:104F580002177C74F71216AAE9900780F01211461E
:104F6800024E2A74F41216AA8A088B09EB54806040
:104F780059900780E0F91210508A0A8B0BAE0AAFDD
:104F88000BEE4F603C8E828F83E02450600E1460DD
:104F98000624E16022802312115E801EA3A3A3A32E
:104FA800E0641E701579008E828F83A3A3E0FAA3B4
:104FB800E0FB1211288003121134EEFAEFFB1210F5
:104FC8003EAA08E5096480FB801DEAA2E05014901F
:104FD800082AE0FAA3E0FB121170E5086401FAABB5
:104FE8000980047A007B007F0402177C74F412168F
:104FF800AA8A828B83A3A3A3A3E0600302508C8AAE
:10500800828B83A3A3A3A3A3A3A3E0FEA3E0FF8AA9
:10501800828B83A3A3A3A3A3E0F508A3E0F5098AE1
:10502800828B83A3A3E0FAA3E0FB74FF6A70037486
:10503800FF6B701B750A00EEFCEFFDAA08AB09A90F
:105048000A12113A050AE50AC3940A503780E81291
:105058000A028A828B83E582458360287C007D0072
:10506800E5822405FAE5833400FBA3A3A3A3E0F9B2
:10507800121122E9C3940A500BEEFCEFFDAA08AB0B
:105088000912113A024FEFC082C083900780E0F9FD
:105098008A828B83A3E0FAA3E0FB12080A02451E6A
:1050A80074F21216AA74E8121653EAFEEBFF890A84
:1050B8008C088D097C187D007900851882851983F4
:1050C800AA82AB8312102C851882851983EEF0A36F
:1050D800EFF0900782E0C0E0740212169ED0E0F074
:1050E800900783E0C0E0740312169ED0E0F09011A0
:1050F80030E0C0E0741712169ED0E0F07415121656
:105108009EE054FEF8A3E0F990112FE0A2E0E4330A
:10511800FAE84AF8741512169EE8F0A3E9F090111F
:105128002FE0A2E15004D2F08002C2F0E854FDFA68
:10513800A2F0E43333F8EA48F8741512169EE8F042
:10514800A3E9F090112FE0A2E35004D2F08002C24C
:10515800F0E854F7FAA2F0E433F50C750D00740387
:10516800780C121640EA450CF8741512169EE8F0F1
:10517800A3E9F090112FE0A2E45004D2F08002C21B
:10518800F0E854EFFAA2F0E433F50C7404780C124A
:105198001640EA450CF8741512169EE8F0A3E9F0DB
:1051A80090112FE0A2E55004D2F08002C2F0E8543A
:1051B800DFFAA2F0E433F50C7405780C121640EA15
:1051C800450CF8741512169EE8F0A3E9F090112F1B
:1051D800E0A2E25004D2F08002C2F0E854FBFAA246
:1051E800F0E433F50C7402780C121640EA450CF81A
:1051F800741512169EE8F0A3E9F0900783E0601D8D
:10520800750C10780C1218BD7C847D077406121674
:105218009EAA82AB83121014740212166990079426
:10522800E06011E50A6009741512169EE04402F068
:10523800780180027800741412169EE048F09007F6
:1052480081E06004780480027800741412169EE0ED
:1052580048F0AC08AD09851882851983AA82AB830A
:105268001205AC7418024B3A74F01216AA74FB12A9
:1052780016538A0C8B0D740312169E85820885833B
:105288000978081218BD75080275090078081218FF
:10529800BD7508FF75098F78081218BD7CFF7DFF62
:1052A8007A017B001206D874061216698A088B09DF
:1052B800EA450970030253C5E4F50AF50B780A12AA
:1052C80018BD740412169E85820A85830B780A120B
:1052D80018BD740412169E85820A85830B780A12FB
:1052E80018BD740912169E1218D47902AC08AD09BB
:1052F800AA0CAB0D1207F87408121669E9600302CC
:105308005397851882851983E0FA740112169EE076
:10531800F8E4C8F9EA2400FEE439FFEE4F6070852E
:105328000882850983A3A3A3A3E0F50AA3E0F50BEC
:1053380074FF650C700474FF650D701A880EEEFC1E
:10534800EFFDAA0AAB0BA90E12113A050EE50EC322
:10535800940A503B80E8AA0CAB0D120A028A828B91
:1053680083E582458360287C007D00E5822405FA78
:10537800E5833400FBA3A3A3A3E0F9121122E9C338
:10538800940A500BEEFCEFFDAA0AAB0B12113AE49B
:10539800F50AF50B780A1218BD740512169E121834
:1053A800D47CFF7DFFAA08AB091206E47404121628
:1053B800698A088B09EA450960030252C07405022C
:1053C800421CC082C0839061907404F0A37448F0BA
:1053D800A3E4F09061807440F09061BC7407F09091
:1053E80061877469F09061B67416F07900120AFE4C
:1053F8007902120B049023F8E493F46006E493F91D
:10540800120ADA7905120DF802580CC082C083E935
:10541800540FF9906185E0696012E5C654804449EB
:10542800F5C6E59E547F644970F8E9F053C680E5F7
:105438009E547F70FA02580C74F71216AAE5A8FE5B
:1054480053A87E120AE6C2BA539AFEC289759B0017
:10545800C2C2120AEC75A91175B905120AF2D2BABC
:10546800439A0174805E42A8025D99C082C083900D
:105478006181E4F0A302580975E90075910075BFD0
:1054880000020135C082C083906181E4F0A374C03A
:10549800F0A3E402580BC082C08374F8121653902C
:1054A80003C4125C7BE84970030255559003C4E0BD
:1054B800544060237908851882851983AA82AB83B2
:1054C800120BF4851882851983AA82AB831208A06F
:1054D8009003C4E054BFF0E054806010790C7A80E7
:1054E8007B05120BF49003C4E0547FF0E0A2E05077
:1054F80008790012555D54FEF0E054026008790105
:1055080012555D54FDF0E0540460087900125568A6
:1055180054FBF0E054086008790112556854F7F01C
:10552800E054106008790212556854EFF0E05420F6
:105538006008790312556854DFF0A3E05401600D48
:10554800120B101208B29003C5E054FEF074081252
:10555800166902580C120AFE1208A69003C4E0222B
:10556800120B041208AC9003C4E022C082C083E985
:10557800600514602A804F90619A7433F0A37455C3
:10558800F09061A0743AF090055CE064017009C283
:10559800919003C67467802D9003C674618026902D
:1055A800619A743FF0A3745AF09061A0747FF090F0
:1055B800055CE064017009D2919003C6747180059E
:1055C8009003C6746AF002580CC082C083E9600B6D
:1055D80014600D14600F14601180209023FC801556
:1055E8009023FD80109023FE800B90055CE0640101
:1055F80060F39023FFE493906186F002580C74EEF8
:105608001216AA74F4121653851882851983AC826F
:10561800AD8375838F75829D74041215669023FC83
:1056280093F46003025798907808E0C394025003FB
:10563800025778740412169EAC82AD8375838F75F9
:1056480082327408121566F97AFF7BFF7FFF7E00AD
:105658008982858210801874086E700302572D7431
:10566800096E700302572D740A6E700302572DE5F8
:1056780010C333FCE433FD740412169EE5822CF546
:1056880082E5833DF583E0F50EA3E0F50F8E0875FE
:1056980009007402780812164074482508FC7478CA
:1056A8003509FD8C828D83780812152374087808D3
:1056B80012146485080C85090D8C828D8378081274
:1056C800152374187808121464E50C4508F508E5E4
:1056D8000DF509C3E50E9508E50F95098C828D83B4
:1056E80078081215238C828D837808121523741874
:1056F80078084014121464E50C4508FCAD0DE50E5D
:10570800C39CFCE50F9D800F121464E50C4508C38B
:10571800950EFCE50D950FFDC3EC9AED9B5006EC3C
:10572800FAEDFBEEFF0EEEC39413500302565F74BE
:10573800FF6A700374FF6B602D8F0874027808127B
:105748001640744812642774783509F5837808126E
:105758001523851882851983E5822510F582E5834E
:105768001261B4E508F009E9C394045003025650E5
:1057780075080175090078081218BD740212169E82
:10578800AC82AD837AFF7B0812119A7402121669F3
:10579800740C1216697F0A02177CC082C08390615C
:1057A80086E0F89023FFE4936870099023FEE49361
:1057B800906186F09061AE7468F0A3746AF09062AC
:1057C8004574FBF0A304F053F4FD43FE0290055C1E
:1057D8007401F09061A0E0643A7004790080027965
:1057E80001120AFE02580CC082C08390050EE064C4
:1057F80001700A900513E06004790C80027900803A
:1058080003F0A3F0D083D082020135C082C0837533
:10581800E1F1900511E0604D1460081460511460C6
:10582800498051120B22900507E0F97A087B05128E
:105838000D7A908F81121541120DB0908FD11215EB
:1058480041120D86900512E0F9120D927901120DA0
:10585800EC900505E024161259A1743AF0A3740BD4
:10586800F07900809F120B2880BC120B2E80B71293
:105878000B3480B2791280EB74F41216AA75D90D24
:105888009004F6E0A2E0E4331313F812590D4844EB
:1058980001F5D9780012598B40FB7800880874F715
:1058A800126427740412599540F275E1959004F634
:1058B800E0F97AF77B04120D8090106174B0F0A3C0
:1058C800740A1259B01259D01259C7125B081259EA
:1058D800177808121523908F5D78081214AF908FEF
:1058E800B578081214FD12599B78081215329005E4
:1058F80005E024141259A17413F09003C27402F045
:105908007F0402177C900507E0C4333354C022900B
:105918000505E0F8A3E0F5838882A3A32274F612B4
:1059280016AA125AD98AD9780012598B40FB7800E6
:105938008006125A3F125B8BE8C39940F5125ACB86
:1059480012598B40FB780080081264237405125B9F
:105958008BE8C39940F375E19590106174BCF0A38E
:10596800740A1259B01259BA12154112599B1215DC
:105978004D900505E024141259A17412F09003C249
:10598800025D76880874082508F5827405125CE7BC
:10599800940622900505E0240EF8A3E01259A822E7
:1059A8003400F98882898322125AF174B6F0A374FC
:1059B8000A221259D01259C7125B0C908F9522F007
:1059C800A374CEF0A3740A221259D4221259D822F1
:1059D800F0A37460F0A3740C2274F61216AA125A7B
:1059E8003412590D4402F5D9780012598B40FB78CE
:1059F800008006125A3F125B8BE8C39940F575E1A7
:105A080095901061125A4AF0A3125A4A1259BD12BF
:105A1800154112599B12154D900505E02414125991
:105A2800A17414F09003C27404025D78900517E025
:105A3800F9740729F5D922880874182508F582749D
:105A4800052274C8125A57125A57F0A3740A22F042
:105A5800A3740AF0A374C82274F61216AA125AD9AB
:105A680074064AF5D9780012598B40FB78008006F5
:105A7800125A3F125B8BE8C39940F5125ACB125960
:105A88008B40FB780080081264237405125B8BE856
:105A9800C39940F375E19590106174C2F0A3740A3C
:105AA800125AE71259BA12154112599B12154D9004
:105AB8000505E024141259A17415F09003C274036B
:105AC800025D78900537125A3774044AF5D9780080
:105AD80022125A34900507E0C4333354C0FA221214
:105AE8005AF17460F0A3740C22125AF522125B0268
:105AF8007460F0A3740C125B02221259D8F0A3222E
:105B0800125B0C22F090106F7460F0A3740C125AA0
:105B1800F57460F0A3740C1259D4F022C082C083CB
:105B2800125917A3A3A3A3E402580974F71216AADB
