:020000040000FA
:0600000002011D021D4A71
:03002B00021A8A2C
:03005300021DC0CB
:03006B00021A581E
:10008300021C3BE5C754F84401F5C779012200007F
:100093000080FB120086B90003020107E47921788E
:1000A30008B800028004F709D8FCE479297802B87B
:1000B30000028004F709D8FCE490028178EC790708
:1000C3008002F0A3D8FCD9FA781A90014D7A01BACC
:1000D30000028007E493A3F608DAF990096CAA8278
:1000E300AB8390014E788B79038015E493A3AC82A4
:1000F300AD838A828B83F0A3AA82AB838C828D83A8
:10010300D8E9D9E7758292758396740312012F7526
:100113008291758300740012012F75D00075813FA1
:10012300751881751902759F00020096C09FF59F8F
:10013300E473D09F22D083D082C09FE493C0E07445
:100143000193C0E0740293F59F2201FFFF1101990F
:10015300010F12640401022290010000FD8F021EB0
:100163009001000073090240900100007409021C11
:1001730090030000A702020E90010000750902021D
:1001830002020202020202010D000000100102221B
:10019300900100000390021E900100009F09023AA3
:1001A30090010000AD02021E90010000A009023878
:1001B30090010000138F021E90010000A109023676
:1001C30090010000F78E021E90010000A209023484
:1001D30090010000B58E021E90010000A3090232B7
:1001E300900100007F8E021E90010000A4090230DE
:1001F30090010000918E021E90010000A509022EBD
:1002030090010000A38E021E90010000A609022C9B
:1002130090010000058F021E90010000A709022A29
:1002230090010000A80901E803053F101209486581
:1002330061727420526174652053656E736F72022C
:10024300010605020D180F1848656172742052618A
:1002530074652053656E736F720000000049490393
:100263004903A806000010020802229001000006BC
:1002730090021E90010000870A022490000000DA19
:1002830003021C90030000DB03021E9001000088A0
:100293000A022890010000E103021E900100008978
:1002A3000A023E90020000E203FF000130750302E0
:1002B3000106000000000000000000000000000034
:1002C3000000000000000000000000000000FFFF2D
:1002D3000600800CE803FF0000B40000280028009B
:1002E300283075A000A000A000A00000080008E0CE
:1002F30001F000100010001000100010001000505A
:10030300005000500010001000D007000000000053
:10031300000F000100050030750700100001008187
:10032300FF0000FFA809C609AE09FF020202080286
:100333005000A0000000E80302229001000000909A
:10034300021E900100004C0B021A90010000C3042E
:10035300021E900100004D0B021890010000D90409
:10036300021E900100004E0B021690010000DB04F8
:10037300021E900100004F0B021490080000DC04E1
:10038300021E90010000500B021290010000510B5D
:10039300FF0100FF200222900100000990021E903D
:1003A300010000B50B0210900000000000021C9039
:1003B3000300002905C00FC00FC00FC00FC00FC03E
:1003C3000FC00FC00FC00FC00FC00FC00FC00F96DC
:1003D30012AE1290121201389CC402120138A6C444
:1003E30002120138E4C4021201382DC50212013889
:1003F30067C502120138C1C502120138E2C50212F3
:100403000138EBC50212013838C60212013861C641
:10041300021201386BC602120138D7C60212013824
:1004230069C702120138B3C702120138E9C70212C1
:10043300013875C802120138B6C802120138EDC876
:1004430002120138FFC8021201381EC90212013814
:1004530027C902120138F4C902120138F7900312B6
:1004630001380289031201383889031201386E8971
:1004730003120138B98A0312013895940312013823
:10048300AB9403120138B59403120138FF9403129D
:100493000138B2D802120138C7D80212013877D90D
:1004A30002120138B7D902120138D0D90212013829
:1004B3000BDA0212013858DA021201388ADA021210
:1004C3000138CCDA02120138CDDC021201383FDDEB
:1004D30002120138339603120138EE9103120138E8
:1004E3001792031201384692031201385E920312E7
:1004F3000138A0920312013884F502120138B4F5D1
:1005030002120138C7F502120138F6F5021201385A
:1005130015F602120138C0F60212013855F702121D
:100523000138DEF702120138ABF802120138DCFBA6
:100533000212013801FC021201382BFC02120138AD
:10054300EA9603120138DA3B00120138B73D001274
:1005530001385D3F001201381140001201389B4001
:10056300001201381C4100120138454100120138C4
:10057300034500120138894500120138B0460012C4
:100583000138EA46001201382B470012013873483C
:1005930000120138D04800120138194900120138FD
:1005A300844900120138F54900120138274A001224
:1005B30001383F4A001201386B4B001201387B4B64
:1005C30000120138254D001201383C4D001201384C
:1005D3006E4D00120138224F00120138AF4F001246
:1005E3000138F3FF01120138FAFF01120138E9FF64
:1005F30002120138E59203120138F5920312013811
:10060300049303120138B89303120138F38F0312D2
:100613000138789003120138DE9003120138BAFED4
:1006230002120138DCFE021201383DFF02120138CA
:100633004FFF021201389FFF02120138DDFF021241
:100643000138E0FF0212013818E6021201382CE6E5
:1006530002120138A6E6021201388AE702120138B3
:1006630061E902120138C6E9021201381DEA0212D9
:100673000138F87F001201389B8403120138318658
:1006830003120138928603120138D8860312013807
:100693009CBE02120138ADC00212013857C10212CA
:1006A3000138F4C102120138BDC2021201380CC470
:1006B300021201385BC402120138DB8603120138CF
:1006C3001987031201382C87031201384887031254
:1006D3000138868703120138098803120138C98853
:1006E300031201385F8E03120138B18E03120138F1
:1006F300248F031201388D8F03120138568203129F
:1007030001388082031201384E8303120138298491
:100713000312013831A802120138F8A80212013875
:100723002FA90212013859A902120138B9A90212DC
:1007330001380FAA0212013874AA021201380CAB55
:10074300021201381BAC02120138B2AD0212013899
:100753003FAE02120138A6AE02120138BDAE02123C
:100763000138D7AF0212013815B00212013858D937
:1007730001120138A5DC0112013821DE0112013812
:1007830078DE0112013895DE0112013813DF011200
:10079300013896E0011201387BE10112013861E56D
:1007A3000112013837E601120138AC8C031201380B
:1007B300C38C03120138F28C031201382B8D031200
:1007C3000138538D03120138818D03120138988D3E
:1007D30003120138AF8D03120138C58D031201389E
:1007E300EC8D03120138FF8D03120138158E0312AD
:1007F3000138288E031201384D8E03120138828C82
:1008030002120138818D02120138B68D02120138AD
:10081300D78D02120138E78D02120138088E0212B9
:100823000138148F02120138E18F021201385490FB
:1008330002120138DA90021201381D9102120138B6
:10084300549102120138DA9102120138AC92021269
:1008530001380A93021201382293021201389C9341
:10086300021201389F9302120138A2930212013837
:1008730049940212013861940212013891940212D0
:100883000138B194021201389F950212013855962E
:10089300021201380AD40212013832D4021201388A
:1008A30060D40212013897D402120138FFD4021225
:1008B300013848D50212013893D502120138D1D537
:1008C300021201380ED6021201383CD60212013848
:1008D300E3D602120138EDD602120138FAD602121B
:1008E30001382DD702120138EFD702120138FBD796
:1008F3000212013813D8021201381DD8021201382E
:10090300BE9303120138CC9303120138E49303120C
:100913000138FC9303120138A2AE0112013840AF33
:1009230001120138B8AF01120138CDB001120138FC
:1009330007B101120138B0B10112013885B20112B9
:100943000138E9B30112013840B401120138C7B4C8
:1009530001120138AEB501120138FBB5011201389D
:1009630089B601120138ADB60112013882B80112FD
:100973000138C3B801120138E5B80112013866B96C
:100983000112013850BA0112013816BB01120138A5
:1009930090B70212013862B8021201380BB9021281
:1009A30001384EB902120138DBB90212013867BAB5
:1009B3000212013848BB0212013877BB0212013818
:1009C30073BC02120138BBBC02120138BDBD021256
:1009D300013801BE0212013827BE021201382D95DB
:1009E300031201381DEE0212013833EE02120138F0
:1009F30059EE0212013881EF021201388BEF021215
:100A03000138E4F002120138E4F10212013822CA7B
:100A13000212013857CB021201388ACB0212013875
:100A2300D4CB0212013892CD021201384790011241
:100A33000138AA9001120138EF9101120138FF9198
:100A4300011201382292011201386D92011201380C
:100A5300129301120138089401120138D294011241
:100A630001384A96011201388C96011201382A97EF
:100A7300011201387797011201389D97011201384D
:100A83008B9901120138909901120138719B01125F
:100A93000138C59B01120138279C011201384F9C74
:100AA30001120138F39C01120138B59D011201387E
:100AB300E69D01120138E99D01120138319E0112B0
:100AC3000138739E01120138DA9E01120138008049
:100AD300031201381380031201382C8003120138EA
:100AE300778003120138528103120138E181031226
:100AF30001382C8203120138BC2300120138C823A9
:100B03000012013801240012013846240012013872
:100B1300FD2400120138832500120138AF2500128D
:100B23000138E82500120138FC2700120138D829C2
:100B330000120138C32B00120138FA2C00120138BD
:100B43005A2F001201384630001201388C3100123E
:100B53000138993200120138B63200120138EE32F0
:100B630000120138083300120138703300120138C3
:100B73000A3800120138AB3800120138FC38001271
:100B830001382339001201387139001201388F39C5
:100B930000120138E33900120138EB3A0012013830
:100BA300733B001201384CDD0212013856DD02128C
:100BB300013821DE021201383CDE0212013862DE06
:100BC30002120138A6DE02120138DEDE02120138FB
:100BD30007DF0212013880DF0212013895DF0212AB
:100BE3000138AADF02120138E1DF02120138F5DF12
:100BF3000212013826E00212013860E002120138C5
:100C03008CE00212013803E1021201384CE10212B6
:100C1300013876E1021201389BE10212013831EA10
:100C230002120138FBEA02120138DEEB021201382C
:100C330054EC0212013896EC02120138C3ED021291
:100C430001380080021201382980021201384280E3
:100C530002120138878102120138658202120138BB
:100C63008482021201381183021201385483021262
:100C73000138A18402120138408502120138BF876E
:100C8300021201385688021201382A8902120138E9
:100C93000C8A02120138788B021201380B8C021273
:100CA3000138DEFE0112013847FF011201389BFFB4
:100CB30001120138C2FF01120138C3E102120138E7
:100CC30030E2021201387BE20212013870E30212B1
:100CD30001386CE40212013856E502120138C39F51
:100CE3000212013805A002120138DFA002120138F6
:100CF300B8A102120138B3A20212013892A3021260
:100D03000138FEA302120138C5A40212013830A52E
:100D13000212013897A502120138C2A50212013846
:100D230033A602120138C6A6021201382FA70212F7
:100D3300013844A7021201388CA702120138A5A773
:100D4300021201380AA8021201380DA80212013852
:100D5300E2F8021201380AF90212013848F90212C4
:100D6300013806FA0212013871FA021201388DFABB
:100D730002120138B5FA02120138E5FA02120138FB
:100D8300F4FA021201386EFB0212013894FB0212CC
:100D93000138A49F0112013841A10112013827A390
:100DA30001120138F1A30112013838A401120138EC
:100DB3007FA40112013891A401120138D1A40112B8
:100DC300013800A5011201384CA50112013884A590
:100DD30001120138B2A50112013803A6011201382C
:100DE30092A60112013880A9011201385AAB0112EF
:100DF300013896AB01120138F0AC0112013837AD5E
:100E030001120138ACAD01120138FAAD01120138FB
:100E1300C09602120138DD9602120138779C021245
:100E23000138799D02120138F39E02120138A19F05
:100E330002120138EE4F0012013837500012013808
:100E4300645000120138975000120138A450001268
:100E53000138B05000120138C250001201389751C6
:100E630000120138F551001201382A5200120138DC
:100E7300C6530012013813540012013837540012BC
:100E83000138A4540012013849550012013805569F
:100E930000120138845600120138485700120138F5
:100EA300575700120138D8570012013877580012EB
:100EB3000138A95800120138445900120138A259C7
:100EC30000120138DC59001201385D5A0012013852
:100ED300265B00120138CF5B00120138565C00120A
:100EE3000138AE5C001201380F5D00120138385D25
:100EF30000120138EE5D00120138385F001201382C
:100F03007B5F00120138985F00120138B75F00124F
:100F13000138026000120138276000120138506066
:100F230000120138BF60001201380161001201385C
:100F33000562001201389F62001201386B630012D0
:100F4300013884630012013806760012013859769D
:100F5300001201386576001201383A770012013821
:100F63006177001201389C7700120138087800126B
:100F730001383C78001201387578001201388D78F9
:100F830000120138E67800120138FF7800120138A8
:100F93004879001201385B79001201387579001223
:100FA30001388B7900120138A77A00120138B87B17
:100FB30000120138057D00120138EA7D0012013864
:100FC300F17F00120138DAE6011201380EE701124F
:100FD300013879EA01120138C3EB011201388DECB3
:100FE3000112013817EE01120138F2EE0112013835
:100FF3002CEF011201384FEF0112013891EF01126A
:1010030001389AEF01120138E4EF01120138EEEFD3
:10101300011201389AF0011201386EF10112013800
:10102300C2F10112013824F20112013877F20112E0
:101033000138A6F201120138E5F201120138B66354
:1010430000120138106C00120138166C00120138BE
:10105300D17100120138B77500120138EEF1021296
:10106300013864F2021201387AF202120138B7F23F
:1010730002120138EFF2021201386CF30212013846
:10108300A7F30212013822F4021201385EF40212AD
:10109300013867F40212013873F4021201388DF437
:1010A30002120138B2F402120138C8F402120138F4
:1010B300F1F40212013854F50212013848CF02123A
:1010C30001385BCF0212013875CF021201389ECF6F
:1010D30002120138E1CF0212013820D00212013886
:1010E3005ED002120138C3D002120138D8D00212E6
:1010F3000138E3D002120138F0D00212013807D1CF
:101103000212013815D10212013820D1021201381E
:101113002CD1021201383FD1021201384AD10212F6
:1011230001386DD10212013816D20212013826D2CB
:101133000212013840D2021201385DD20212013884
:1011430079D2021201389ED202120138A8D20212B9
:101153000138BCD202120138DBD2021201383CD36F
:101163000212013842D30212013848D30212013865
:101173004ED3021201385AD3021201388DD3021210
:101183000138CECB0112013850CC01120138F9CC11
:101193000112013841CE011201384FD0011201383A
:1011A30035D1011201386AD1011201388CD10112F3
:1011B300013835D20112013805D4011201382ED479
:1011C30001120138A6D401120138D8D40112013812
:1011D300E5D40112013830D50112013854D501127A
:1011E3000138A5D701120138AFD8011201380BD944
:1011F300011201384BBD011201385CBE01120138E6
:1012030040BF011201384ABF011201386CBF0112FD
:10121300013878BF011201381CC10112013849C1DC
:10122300011201385FC201120138B4C20112013840
:1012330003C401120138D8C40112013834C50112A4
:1012430001389FC501120138D4C50112013817C6F0
:1012530001120138E1C801120138F9C8011201383D
:101263008AC90112013898C901120138E5C901126E
:101273000138F3C9011201385FCA01120138DACA11
:101283000112013831CB01120138C0F301120138C8
:10129300E2F301120138F3F501120138B2F8011239
:1012A3000138DCF9011201389AFA0112013886FB80
:1012B30001120138F38A03120138188B0312013823
:1012C3008E8B0312013873B0021201387CB0021204
:1012D300013885B0021201385DB1021201380EB334
:1012E300021201383EB30212013869B30212013807
:1012F30099B302120138C4B302120138F8B30212CF
:10130300013824B40212013867B40212013892B4CE
:1013130002120138D9B4021201382EB50212013873
:1013230070B502120138CAB502120138F5B50212BE
:10133300013844B60212013874B6021201389FB65E
:1013430002120138CDB602120138F0B6021201388A
:10135300B69503120138E295031201380F96031272
:101363000138199603120138299603120138A77F11
:1013730000120138D37F00E066701008A3E06670A6
:101383000A08A3E066700408A3E06622C3E7960890
:1013930009E7960809E7960809E79622C3E0960845
:1013A300A3E09608A3E09608A3E09622C008C3E052
:1013B30096F50808A3E096420808A3E096420808B9
:1013C300A3E09645087001D3D00822080808EAC0B4
:1013D300E0EBC0E086F0E7A4FA180986F0E7A42A58
:1013E300FA180986F0E7A42AFA180986F0E7A42A6E
:1013F300FA1986F0E7A4FBE5F02AFA190886F0E764
:10140300A42BFBE5F03AFA190886F0E7A42BFBE5D9
:10141300F03AFA18180986F0E7A4C5F02BFBE43A72
:10142300FA1908E7C5F0C6A426F6E5F03BFBE43A53
:10143300FA1886F0E7A4F6E5F00826F6E43B08F68A
:10144300E43A08F6D0E0FBD0E0FA22E4CFC0E0E4CF
:10145300CEC0E0E4CDC0E0E4CCC0E075F020C3E64C
:1014630033F608E633F608E633F608E633F61818DB
:1014730018EC33FCED33FDEE33FEEF33FFC3EC9793
:1014830009ED9709EE9709EF97191919400FFFEC2A
:1014930097FC09ED97FD09EE97FE191906D5F0BEE5
:1014A300ECF709EDF709EEF709EFF7191919D0E091
:1014B300FCD0E0FDD0E0FED0E0FF22601608080873
:1014C300C6C313C618C613C618C613C618C613C692
:1014D300D5E0EA227009080808226016181818C611
:1014E300C333C608C633C608C633C608C633C6D513
:1014F300E0EA22E627F60809E637F60809E637F6B2
:101503000809E637F622E026F608A3E036F608A334
:10151300E036F608A3E036F622E026F008A3E0362C
:10152300F008A3E036F008A3E036F022C3E697F60E
:101533000809E697F60809E697F60809E697F622FA
:10154300C3E096F008A3E096F008A3E096F008A3A2
:10155300E096F022E056F608A3E056F608A3E0561C
:10156300F608A3E056F622E056F008A3E056F0088A
:10157300A3E056F008A3E056F022E0F608A3E0F655
:1015830008A3E0F608A3E0F622E6F008A3E6F008D5
:10159300A3E6F008A3E6F022E0FAA3E0FBA3E0FC55
:1015A300A3E0FD22EAF0A3EBF0A3ECF0A3EDF0221D
:1015B300CAC0E0E6F0A308DAFAD0E0FA22CAC0E033
:1015C300E0A3C582CCC582C583CDC583F0A3C58204
:1015D300CCC582C583CDC583DAE6D0E0CA22C3E495
:1015E30098F8E499F91216228026C3E49AFAE49B48
:1015F300FBE920E7E9121622E498F8E499F922C3FB
:10160300E498F8E499F9121622E498F8E499F9C3F6
:10161300E49AFAE49BFB22EB20E7CFE920E7E0B969
:101623000010BB0008E88AF084F8AAF022E4FBC8A3
:10163300FA22EB70227B10C833C8C933C933500771
:10164300C39AC3DBF280069A50012ADBEAC833F45B
:10165300C8C933F4C9FA2275F008E4C833C8C933DA
:10166300C933C99AC99B5004C92AC93BD5F0ECFBBD
:10167300C833F4C8E4C9FA22600D08C6A2E713C64A
:1016830018C613C6D5E0F322600C08C6C313C618E8
:10169300C613C6D5E0F422700422600D18C6C33306
:1016A300C608C633C6D5E0F41822251810AF08F5CE
:1016B30018400215198008F51840021519D2AF22F7
:1016C300C0D0251810AF08F518500205198008F589
:1016D3001850020519D2AFD0D0222518F58210AFC9
:1016E30008F518400215198008F51840021519D29B
:1016F300AF851983222518F582E43519F58322E491
:10170300732518C582C0E0E51934FFC583C0E0E541
:1017130018C3958224F810AF088583198582188031
:1017230008858319858218D2AFCEF0A3E520F0A3F4
:101733007808E608F0A3DEFAEFF0A3E58124FAF8CF
:10174300E608F0A3E608F0A3E608F0A30808E60815
:10175300F0A3E608F0A315811581D0E0FED0E0F8F0
:10176300158115811581E8C0E0EEC0E0222518C57A
:1017730082C0E0E51934FFC583C0E0E518C3958254
:1017830024F910AF08858319858218800885831989
:10179300858218D2AFCEF0A3E520F0A37808E6083F
:1017A300F0A3DEFAEFF0A3E58124FBF8E608F0A34B
:1017B300E608F0A30808E608F0A3E608F0A31581FD
:1017C3001581D0E0FED0E0F815811581E8C0E0EE88
:1017D300C0E022851983851882E0A3FEE0A3F520EB
:1017E3007808E0A3F608DFFAE0A3FFE0A3C0E0E097
:1017F300A3C0E0E0A3C0E0E0A3C0E0E0A3C0E0102A
:10180300AF08858218858319800885821885831916
:10181300D2AFD083D082020135851983851882E047
:10182300A3FEE0A3F5207808E0A3F608DFFAE0A31F
:10183300FFE0A3C0E0E0A3C0E0E0A3C0E0E0A3C0FA
:10184300E010AF0885821885831980088582188582
:101853008319D2AFD083D08222C0D02518C582C0CD
:10186300E0E51934FFC583C0E0E518C3958224F38E
:1018730010AF0885831985821880088583198582AE
:1018830018D2AFC8F0A3E9F0A3EAF0A3EBF0A37971
:1018930008E709F0A3D8FAECF0A3EDF0A3EEF0A368
:1018A300EFF0A3D0E0F0A3D0E0F0A3D0E0F0A3E505
:1018B30020F0A3E5F0F0A322851983851882E0C008
:1018C300E0A3E0F9A3E0FAA3E0FBA37808E0F608BD
:1018D300A3DFFAE0FCA3E0FDA3E0FEA3E0FFA3E0A7
:1018E300C0E0A3E0C0E0A3E0F5D0A3E0F520A3E0CF
:1018F300A3F5F010AF0885831985821880088583C6
:1019030019858218D2AFD082D083D0E0F8D0E032EC
:1019130074048006740280027401C0E0F404121699
:10192300DDD0E01215B3227404800474028000CC6D
:10193300C0E0EDC0E0E518C39CCCAD1950011D100B
:10194300AF068C188D1980068C188D19D2AF12151D
:10195300C0D0E0FDD0E0FC22D083D082E9C0E0E437
:1019630093A3C386F0C5F095F0F908E493A386F03A
:10197300C5F095F0700BE493A3C3994005E9048087
:1019830002A3E475F002A42582F582E5F03583F520
:1019930083D0E0F9E493A3C0E0E493C0E022D083D2
:1019A300D082ECC0E0EDC0E0E493A3FCE493A3FD9C
:1019B300ED4C600D1219EDEC24FFFCED34FFFD80BE
:1019C300EFE493A3FCE493A3FDED4C600D121A2CFA
:1019D300EC24FFFCED34FFFD80EFD0E0FDD0E0FC14
:1019E300E493A3C0E0E493C0E022C0E0C3E4939691
:1019F300087401939618400FE49366700808740105
:101A030093661870007019A3A3C3E4939608740136
:101A1300939618A3A3400DD0E0D0E0D0E00219DDE7
:101A2300A3A3A3A3A3A3D0E022C0E0C0F088F0E463
:101A3300936670080874019366187000A8F0A3A356
:101A4300700BD0F0D0E0D0E0D0E00219DDA3A3D03A
:041A5300F0D0E022CD
:101A5800C0E074F212185CA2AFE433FED2AFE5899D
:101A6800A2E04006E589A2E1500312063675890016
:101A7800758900C2C5751A00EEA2E092AF7F010217
:101A880018BBC0E0C0D0E8C0E0E9C0E0E5A8D2AF2C
:101A9800C2C7751A00A2E7A2E792AFD0E0F9D0E07A
:101AA800F8D0D0D0E03274F5121770EAFEEBFFEEF2
:101AB8002434F8EF3400F988088909EE2435121B1C
:101AC800E6F8EE2437121BE6F50AEC850AF0A4FCCA
:101AD800AAF0850AF0EDA42AFDE82CF8E43DF97A8D
:101AE800257B00121622EA850882850983F05407AF
:101AF800F87401B800028004C333D8FCC0E0E013D6
:101B08001313541FF8EE28F8EF3400F9E8245DF5B4
:101B180082E93400F583D0E0F8E05860088508824F
:101B2800850983801DEE2436121BE6F5F0EA84A8A9
:101B3800F0EE28F8EF3400F9E82438F582E93400AB
:101B4800F583E0F97F0402181C74F5121770EAFE99
:101B5800EBFFEE2434121BE6C0E0EE2435F582EFED
:101B68003400F583D0E0F08E828F83A3A3A3A3A3D0
:101B7800E0FAA3E0FB8E828F83A3A3A3A3A3A3A36E
:101B8800E0FCA3E0FDECC39AF50AED9BF50BEE240F
:101B980080F508EF3400F509850882F583E06401D3
:101BA800702BEE2481F582EF3400F58312192E1282
:101BB8001BEF74021216C3E960137C0E7D07EEFA60
:101BC800EFFB120EEE850882850983E4F0AC0AADBE
:101BD8000BEEFAEFFB121AAE1223A6021B4CF5828B
:101BE800EF3400F583E022C082C08385188285190E
:101BF80083E0F8A3E0F9C3EA9CEB9D5012C3EC988C
:101C0800ED994019C3EA98EB99501279018010C3F5
:101C1800EA98EB9940F5C3EC98ED9950EE7900D02D
:101C280083D08222EAC39CFAEB9DFB22852187851B
:101C380022C622C0E074EF12185C759B0090618286
:101C4800E0A2E64003021CFCE591A2E64003021C68
:101C5800FC7591BF9005D3E06405700812108C12D2
:101C680010988003121092752100121104E9900552
:101C7800D4F079001210F8120E587A017B00900502
:101C8800D2E0F9120432907803E064426003021D46
:101C980045900770E014F06003021D45C2AF121CA6
:101CA800A900782AD0E0F618D0E0F6E59F5407F9A5
:101CB8007005908F698003908F65780812157DE90B
:101CC800C4C0E07829E65508F50808E65509F5097D
:101CD800740B780812168BD0E02508F8906270E033
:101CE800A2E740F8E8C333906272F0906270E0D2E5
:101CF800E0F08049E0A2E55024E591A2E5501E7588
:101D080091DF9005D3E0640D70139005F5E004F0C1
:101D180064287002E4F07A00E0F91211769061818B
:101D2800E0A2E35009E5E9A2E3500375E9F7A3E06F
:101D3800A2E75009E591A2E7500375917F7F04025D
:101D480018BBC0E0C0D0C082C083906183E0A2E02D
:101D58005009E5BFA2E0500375BFFEE0A2E15009BB
:101D6800E5BFA2E1500375BFFDE0A2E25009E5BF5F
:101D7800A2E2500375BFFBE0A2E35009E5BFA2E36E
:101D8800500375BFF7E0A2E45009E5BFA2E4500391
:101D980075BFEFE0A2E55009E5BFA2E5500375BFA6
:101DA800DFE0A2E65009E5BFA2E6500375BFBFD049
:101DB80083D082D0D0D0E032C0E074F212185CE553
:101DC800A7A2E4500FE5A1A2E4500953A7EF75A11B
:101DD800EF121E14E5A7A2E5500CE5A1A2E55006F6
:101DE80053A7DF75A1DFE5A7A2E15009E5A1A2E1AC
:101DF800500375A1FDE5A7A2E2500CE5A1A2E250AF
:101E08000653A7FB75A1FB7F010218BB74F81217D4
:101E1800707521019005D3E0640670077A007B0095
:101E2800121074A2AFE433FED2AF9005D9E064017A
:101E380070187A207B009005D2E0F91204B67A2057
:101E48007B009005D2E0F9120438906182E0D2E676
:101E5800F090076FE0602185C62280169005D8E0D3
:101E680064017008E5C654F84405F5C653BEFC1273
:101E78001C347401652160E4EEA2E092AF7F010298
:101E8800181C00008E238F248582288583278518B7
:101E980082851983E0CEA3E0CF852882852783EB4E
:101EA800C9EAC8EDCBECCA75F010C3E833C8E9330A
:101EB800C9EA33CAEB33CBC3EA9EF526EB9FF52577
:101EC800B35004AB25AA26EC33CCED33CDD5F0DAEC
:101ED800AE23AF242274E912177074FA1216ADEA11
:101EE800FEEBFF8C088D099005D3E024F7C3940519
:101EF8005006908FF1022004120FF08A0A8B0BEA29
:101F0800450B70030220011210AA8A0C8B0D1210C7
:101F1800AAEA650C7003EB650D60ECEEFCEFFD853D
:101F28001882851983AA82AB831210B0850A82852C
:101F38000B83A3A3780C12157D908F89780C12154A
:101F480057851882851983781412157D908F8978A2
:101F580014121557780C791412138F501F780C79B6
:101F68001412152F908F5D780C1213AF4047850C13
:101F780010850D11850E12850F138041851410856B
:101F880015118516128517137810790C12152F90D4
:101F98008F5D78101213AF501C7510007511007505
:101FA80012007513017810791412152F7810790C16
:101FB8001214F68008908FF1781012157D74097844
:101FC800101214D7908F9D780C12157D7810790C0B
:101FD80012144E9005D3E06408600AE064066005B8
:101FE800E06405701C908F8D78101213AF5012901A
:101FF8008F5978101215098008908FF578101215EE
:102008007D850882850983781012158C740612164E
:10201800C37F1002181C74F71217701210C29007B1
:102028006DE064017010906245E4F0A3F053F4F39E
:1020380043FE0C5390F3121062E5C654804449F5F0
:10204800C6E59E547F644970F8906185740FF090DE
:10205800076BE0F47002A3E0602C750801750900B5
:1020680090076BE0780812169AE508F4FAA3E06086
:102078000814600A14600C800DEA52808008EA5245
:10208800908003EA52A079007F0202181C74F712AC
:102098001770E9FEEAFF74016E700C7A807B00907D
:1020A80005D2E0F91204329023B4E493F46008E412
:1020B80093F9120E3A800953C680E59E547F70FA50
:1020C80012106890076DE064017003120E7090079B
:1020D8006BE0F47002A3E0602A75080175090090AE
:1020E800076BE0780812169AAA08A3E06008146043
:1020F8000A14600C800DEA42808008EA429080034E
:10210800EA42A0120FF08A088B09A808A909E84931
:102118006017E5E170FCE82414F582E93400F583E2
:10212800E0F874FF68600288E174016F700A7A0150
:102138009005D2E0F912048602209074F11217700B
:102148008A088B098C0A8D0B740F1216F8780C12FA
:10215800157D908F897808121557908F89780C1201
:1021680015577808790C12138F50157808790C12C6
:10217800152F908F5D78081213AF401579018013E1
:10218800780C790812152F908F5D780C1213AF40D8
:10219800EB79007F0802181C74ED1217708A088BFF
:1021A800098C0A8D0B74131216F8780C12157D9091
:1021B8008F897808121557908F89780C12155778DF
:1021C8000C790812138F40117808790C12152FAA70
:1021D80008AB09AC0AAD0B802275100075110075AB
:1021E80012007513017810790C12152F78107908E0
:1021F8001214F6AA10AB11AC12AD137F0C02181C06
:10220800908F89780812157D8A828B837808121539
:102218006A7F0402181C74F51217708C828D8378FB
:102228000812157D8A828B83780812154312227250
:10223800C3E098F0A3E099122264401E908FC17801
:102248000812157D8A828B83780812151C8E828F5E
:1022580083E02420F0A3E0344EF080A4F08E828F37
:1022680083C3E09420A3E0944E22EA2404F8EB34DC
:1022780000F9E8FEE9FF8C828D83A3A3A3A3E0F80D
:10228800A3E0F98E828F832274F5121770E9FE900D
:102298000725E0FAA3E0FBEEC333F8E433F974C78B
:1022A80028F582748E39F583E02AF508A3E03BF51A
:1022B800097808121917908F6112159B121E8C74D9
:1022C800021216C38A088B098C0A8D0B74107808C1
:1022D8001214BEAA08AB097F0402181C74F1121765
:1022E800708A0C8B0D8C0E8D0F740F1216F8E0FA95
:1022F800A3E0FB74111216F8E0F508A3E0F50974E1
:10230800131216F8E0FEA3E0FF7808121917EA2462
:1023180001F508EB3400F509E4F50AF50B780C79BA
:10232800081213CE908FD1780812157D780C790891
:102338001213CEAA0CAB0DAC0EAD0F121E8C74028C
:102348001216C38B09EA450960047A0180027A00F3
:10235800EC2AFCED3400FDECF8EDF97A717B021201
:10236800162288088909E4F50AF50B8E828F83788E
:102378000812158CECF8EDF97A717B021216228A94
:10238800088B097405780812169A8E828F83A3A386
:10239800A3A3E508F0A3E509F07F0802181CC08292
:1023A800C083E9906000F0D083D08222FFFFFFFF56
:1023B800FFFFFFFFC082C083E9900BB4F00225DB6A
:1023C80074F7121704E99004F1F07C297D057AFF6F
:1023D8007BFF120B829004F274FFF0A3F0A3E4F0E9
:1023E800A3F07905120B109004F1E0F9120A387A7B
:1023F8009A7B0B120D560232E974F41217048A08FC
:102408008B09EB548060309004F1E0F912041A8AC9
:102418000A8B0BAE0AAF0BEE4F60138E828F83E0F0
:1024280064B07003120B22EEFAEFFB120408AA083C
:10243800E5096480FB80047A007B000225AA74F217
:1024480012170474FC1216ADEAFEEBFF7412121692
:10245800F81237D0EE4F70030224E974021216F80E
:10246800EEF0A3EF1227E5ECF0A3ED1227E5AA8220
:10247800AB83120A32E9F50A706AE5084509606417
:102488008E828F831237B6EE4F60567A067B001223
:10249800046E8A0C8B0DA80CA90DE8497005750A05
:1024A80013804188828983E41224F6EEF0A3EF12A8
:1024B80037E1E508F0A3E509F09004F712257D90CF
:1024C80004F77005123293801B1232818003EAFCF4
:1024D800EBFD8C828D8312257D70F38C828D838039
:1024E800E3750A02A90A74041216C30239D0F0A3CC
:1024F800123787A32274F2121704890AE975F017B4
:10250800A4FEAFF09004F6E4F09004F412257D6088
:102518000A1204749004F4E4F0A3F0EEFAEFFB124C
:10252800046E8A088B09EA4509602FEEFCEFFD79F5
:10253800001203F69004F4E508F0A3E509F07B0027
:102548008008122567E4F0A3F00BEBC3950A40F26C
:10255800E50A9004F6F07900800279130239D0EB8D
:1025680075F017A4F8A9F09004F4E028FAA3E0396C
:102578008A82F58322122F25EA4B2274F41217045B
:102588007900EAA2E0501B75083B75098F7808129C
:1025980019177C047D007AB67B0B120B0A740212A1
:1025A80016C37F040217D6C082C0839004F7122591
:1025B800E2601C88828983A3A3E06A7003A3E06BAE
:1025C8008882898370E8A3A3A3A3122F2180047AA9
:1025D800007B00D083D082020135123AB6E8492246
:1025E80074EE12170474FC1216ADEAFEEBFF8518A0
:1025F80082851983E4F0A3F0EE2402123273EE24EC
:102608000512378EEE2404F50EEF122B9AE024FE05
:10261800603924FC604624FE605224FE605E24FE7D
:1026280070030226FB24FE700302275F24FE70035A
:1026380002276E24FE700302277D24FC7003022704
:102648008C24FE700302279B0227D890051074176C
:10265800F0A3E41227ED1207B00227D88518828567
:102668001983AC82AD83120B280227A885188285AE
:102678001983AC82AD83120B2E0227A8850C08851E
:102688000D0974021216F8AC82AD8385088285099B
:1026980083122F21120A568A0C8B0DAC0CAD0DEC4F
:1026A8004D603BE4F50CF50D780C121917750C10FC
:1026B800750D05780C121917750C11750D05780C28
:1026C80012191774081216F812192E123ADA12167D
:1026D800C3E9F50C700B122F171207C8800F750C81
:1026E800018508828509831227DB123293850C083D
:1026F8000227AB74021216F8AC82AD83850C828572
:102708000D83122CEC603C850C82850D83A3A312EB
:10271800192E7510107511057810121917751011EA
:10272800751105781012191774081216F812192E57
:10273800123ADA1216C3E9F509700B122F171207AD
:10274800CE800F750901850C82850D831227DB1257
:102758003293850908804C851882851983AC82AD2F
:1027680083120B34803A851882851983AC82AD8335
:10277800120B3A802B851882851983AC82AD83129F
:102788000B40801C851882851983AC82AD83120B9F
:1027980046800D851882851983AC82AD83120B4C57
:1027A800E9F508E50860298E828F83A3E064146048
:1027B8001F850E82850F83E09005101227E5123AD7
:1027C800B2900511123293E508A31227ED1207AA59
:1027D800023182123AB685188285198322F085184B
:1027E8008285198322F07C107D05850A82850B83FA
:1027F800122F252274EE12170474FC1216AD8A0AE1
:102808008B0B8C0E8D0FEA2405F508EB3400F509C7
:102818007C157D0079007A107B051203F6E5082403
:1028280002F50CE50912379185188285198385828E
:10283800108583117810121917850882850983A3DA
:10284800A3A3A3122CE3121917E5082405F510E534
:10285800093400F5117810121917850C82850D833B
:10286800123038120A5074061216C38A108B11AE31
:1028780010AF11E50A2402F50AE50B123276EE4F85
:1028880070030229BA801774021216F8122F2188D1
:10289800828983EAF0A3EBF0900510E004F090053C
:1028A80010E0C3940540030229BAE4F510F5117845
:1028B800101219177510F975110478101219177577
:1028C80010FA751104781012191774061216F812F6
:1028D800192E7910EEFCEFFD123ADC1216C3E970DE
:1028E8005E850882850983A3A3A3A3A3A3A3E0F815
:1028F8009004F9E0687048122CE31219177CFA7DED
:1029080004E5082408FAE5093400FB1203F0740210
:102918001216C3E960298E828F83A3A3A3A3122F63
:1029280021900510E0F5107402781012169A7411AF
:102938002510F58274053511F583EAF0A3EBF074E0
:10294800021216F8858210858311781012191774EF
:10295800021216F812192E850C82850D83122F4744
:102968001216C38A108B11AE10AF11900510E0F546
:10297800107511007402781012169A74102510F848
:1029880074053511F988828983A312257D700302A5
:102998002886E82403080808E93400F9EE4F6003A4
:1029A80002288F8882898374FFF0A3F0900510E0D5
:1029B80004F0900510E0600A122F171207BC790086
:1029C800800B85088285098312328A790A0231824E
:1029D80074EA12170474FE1216AD8C128D13EA24D1
:1029E80005F50CEB123AC41237BA750800750900E0
:1029F800EA2402F510EB3400F51185188285198355
:102A080085820A85830B780A121917850C82850D31
:102A180083A3A3A3A3122BB0121917E50C2405F561
:102A28000AE50D123276780A121917850C82850D7F
:102A380083122BB4120A5074061216C38A0A8B0B1F
:102A4800EA450B7003022B55EA2404F50EEB122B12
:102A58009A1237BA8A828B83A3A3A3E0F9851082DE
:102A6800851183122F2B6003022B55E4F514F515FD
:102A780078141219177514F97515047814121917A2
:102A88007514FA751504781412191774061216F8C5
:102A980012192E7913AC0AAD0B8510828511831299
:102AA8003AE21216C3E9F5096003022B559004F9BE
:102AB800E0F8E5087009E02402900511F080149010
:102AC8000511E0FCE82402FAE43400FBEA6C70012A
:102AD800EB707E850882AA82122CDA9414122CD20A
:102AE800506B850E82850F83E0C0E074122A122B8A
:102AF80091D0E0F00508850E82850F83A3E0C0E041
:102B080085080A7412250A122B91D0E0F005089066
:102B180004F9122BB01219177CFA7D0485080A747F
:102B280012250A122BA41216C39004F9E02508F501
:102B38000874FF6E700374FF6F6012EE24010EEFCD
:102B48003400FFE508C394145003022A02E5086024
:102B580013122F35851082851183122F211207C277
:102B680079008014E509700375090A8512828513B6
:102B780083EEF0A3EFF0A90974021216C37F0E02C8
:102B880017D685080C7412250CF58274053400F5E7
:102B980083223400F50F850E82F58322FA740534FA
:102BA80000FB1203DE7402221237F022A3A3122BB9
:102BB800BA22123281FDEEFAEFFB2274EE121704EC
:102BC80074FE1216AD8C0E8D0FEA2405F50CEB126F
:102BD8003791750B00900510E4F0F50AEA2402F528
:102BE80008EB3400F5098044900510E0FA9004F9E8
:102BF800E0F8122CDA9417122CD2400D900510E050
:102C0800F87416C3989004F9F0122CE31219177C83
:102C1800FA7D0474112AFA7405122BA71216C390B0
:102C280004F9E0F8900510E028F0050AE50C2416F0
:102C3800F582E50D122B95E0F8E50AC398507490DB
:102C48000510E0C39416506BE50AC333F8E433F972
:102C5800E50C28FEE50D39FF851882851983AC82BD
:102C6800AD838E828F83122CEC7008750B011232A3
:102C7800868050E4F510F51178101219177510F9BF
:102C880075110478101219177510FA751104781057
:102C980012191774061216F812192E791685088259
:102CA800850983123AE21216C3E9F50B7003022B69
:102CB800F080BB7C107D05850882850983122F2151
:102CC8001207D4A90B7402023184E99400C365D0B9
:102CD8003322EA28F8E43400F9E822E0F510751107
:102CE800007810221231798A108B11AC10AD11ECDA
:102CF8004D2274EA12170474FC1216AD8A0C8B0D5F
:102D08008C128D13EA2405F50AEB12327675080049
:102D1800750900E50A2402F510E50B3400F5117475
:102D2800021216F885820E85830F780E1219178500
:102D38000A82850B83A3A3A3A3123796121917E55A
:102D48000A2405F50EE50B3400F50F780E12191755
:102D580085108285118312327C122F1B120A50743F
:102D6800061216C38A0E8B0FAE0EAF0FE50C2402A7
:102D7800F50EE50D3400F50F80388882898374FFDD
:102D8800F00508122B8A74FFF005089004F9E0F5A5
:102D98000C750D00780C1219177CFA7D0485080C47
:102DA8007412250C122BA41216C39004F9E02508FE
:102DB800F508EE4F60278E828F83A3A3A3E0F985E1
:102DC8000E82850F83122F2BEE240412378EE960B2
:102DD80027850C82850D83122F0D123293E508701A
:102DE80003022EF3122F35850E82850F83122F21B1
:102DF8001207DA7900022F08E4F514F51578141291
:102E080019177514F975150478141219177514FA29
:102E1800751504781412191774081216F812192E59
:102E28007911EEFCEFFD850E82850F83123AE212CE
:102E380016C3E9F509709A850882AA82EA9004F90E
:102E48007009E02404900511F08025E0F890051140
:102E5800E0F514E82404FCE43400FDEC651470018A
:102E6800ED7081122CDA9412122CD24003022DEC50
:102E7800850C82850D83E0C0E074122A122B91D054
:102E8800E0F00508850C82850D83A3E0C0E0122BD5
:102E98008AD0E0122F5085820C85830D780C121988
:102EA8001774041216F812192E85108285118312D0
:102EB8002F471216C38A0C8B0DAE0CAF0D85080C6C
:102EC8007412250CF874053400F9EE4F7003022DC6
:102ED80082851882851983E088828983122F50A3FE
:102EE800E0C0E0122B8AD0E0022D90E5097003754E
:102EF800090A850A82850B83122F0D123293A909BC
:102F08007404022B82123AB6851282851383227CBE
:102F1800107D05850A82850B83122F2522E0FAA3EE
:102F2800E0FB22122F25120A3EE9F509229005112D
:102F3800E0F5F0E50884900510F07C107D0522127C
:102F48002BBA120A5C740422F005088518828519C8
:102F5800832274EC12170474FE1216AD8A088B09CA
:102F68008C0E8D0FEA2405FEEB3400FF123163EE60
:102F7800241812378EEA450B700302300612314CC2
:102F8800502912302B8A108B11EA4511606B791287
:102F9800AC0AAD0B850882850983122F2185108222
:102FA800851183121702E9F50A7058E4F50AF50B42
:102FB800780A1219178E828F83A3A3E0F50A780A7C
:102FC800121917EE2403123273780A1219178E8217
:102FD8008F83123038120B7074061216C3E9F50A83
:102FE8007021850C82850D83E0701F850882850914
:102FF80083122F211207E08011750A0E8009750AC5
:10300800018004E50A6003123286850C82850D83EF
:10301800E0600479008002A90A74021216C37F0CCA
:103028000217D6851882851983122F25120B5E2266
:10303800123281FD850882850983122F252274EEBC
:1030480012170474FE1216AD8A088B098C0C8D0DAC
:10305800EA2405FEEB3400FF750E00123163EA45E1
:103068000B700302312A12314C502C12302B8A0E6D
:103078008B0FEA450F604A7912AC0AAD0B850882BE
:10308800850983122F21850E82850F83121702E985
:10309800F50E600302312D85088285098312336895
:1030A800AA0AFB12313E70147AFF7BFF12313E6090
:1030B8006C88828983E50AF0A3E50BF0750A008025
:1030C80007750E0E805F050A9004F6E0FAE50AC35C
:1030D8009A504AE50A75F017A4FAABF088828983FA
:1030E800A3A3E02AFAA3E03BFB8A828B8312327CFB
:1030F800EC4D70D2750A17750B00780A121917EE85
:10310800FCEFFD1203DE74021216C3EEFCEFFD8520
:103118000882850983122F211207E68014750E098B
:103128008003750E01123AAE850C82850D8312322A
:1031380093A90E022CCD120B528A108B11A810A93C
:1031480011E84922E5082402F508E5093400F509E3
:103158008A828B83A3A3A3E0A2E52285188285191E
:1031680083AC82AD838E828F831231798A0A8B0B6E
:1031780022E0FAA3E0FB120A562274041216C37F57
:103188000A0217D674EC1217048C108D11EA240564
:10319800F50CEB123791750F00EA2402F50AEB12D1
:1031A8003276850A82F583122F21123B687003025A
:1031B8003268750E008071850C82850D83E064018C
:1031C800704F8E828F83A3A312192E8E828F83A3B2
:1031D800A3A3A3E0F5127513007812121917EE24B1
:1031E80005F512EF3400F5137812121917122F1B78
:1031F800120B7074061216C3E9F50F6014850C8261
:10320800850D83E4F0123AAE85108285118312325F
:10321800937C177D007900EEFAEFFB1203F68E829D
:103228008F83E4F0A3F0050E9004F6E0F8E50EC3F2
:1032380098501EE50E75F017A4F8A9F08508828548
:103248000983A3A3123ACE12327CEC4D60030231FB
:10325800BF85088285098374FFF0A3F0E50F700627
:10326800122F1B1207ECA90F023026F50AEF3400C3
:10327800F50B22A3123281FD22E0FCA3E0228E820C
:103288008F83123AB6850E82850F83E8F0A3E9F0A2
:1032980022C082C0839004F2E06A7003A3E06B70DE
:1032A800067AF27B0480047A007B000225DB74F73F
:1032B8001217047F00EF75F003A4F8A9F0EC28F8C2
:1032C800ED39F988828983E06A7003A3E06B7006A0
:1032D800E8FAE9FB800B0FEFC3940240D87A007B31
:1032E800007F010217D674F612170412389F700671
:1032F8007A007B008007A3A3A3A3122F21023960C1
:1033080074F2121704E9FE740E1216F81233687478
:10331800101216F81237D08C828D83E06402703B4D
:10332800A3123AB288828983E0F50CA3E0F9A80CCD
:1033380074026870037429697021750C02750D0098
:10334800780C1219177808121917780A121917EE3B
:10335800F9120B9474061216C3800279010239D04F
:10336800E0F50AA3E0F50B2274E812170474FB12C7
:1033780016ADE9851882851983F08A168B178C0E8D
:103388008D0F741F1216F81237D074211216F81206
:10339800336874231216F81237BA7510008C828DB0
:1033A80083A3A3A3E0A2E4502A741D1216F81230D6
:1033B800318A828B83E5824583700302347C790AE3
:1033C800AC0EAD0FAA16AB17121702E9F510600381
:1033D80002347F850E82850F83E064026003023722
:1033E80035A3123AB2850882850983A3858212859E
:1033F8008313E50E2406F50CE50F123791888289B0
:1034080083E0FAA3E0F9EA2400F514E439F5157825
:10341800141219A1010000280128443407000228C9
:103428001B3503288B340029453601296D360229BE
:103438001436032945360429D6363537EE4F703E03
:10344800850C82850D831237ABFAE9FB8A828B8360
:10345800E0850A82850B831237E71219178A828B57
:1034680083A3123281FDAA08AB091203DE7402128B
:1034780016C3800375100EA9107405023ABC7510A6
:103488000B80F4EE4F70F7850A82850B837401F088
:103498001237C0850882850983F07C007D00850E7F
:1034A80082850F83A3A3A3A3E02401FAA3E0340039
:1034B800FB120A56EA4B60418A828B83E02402F8A9
:1034C800850A82850B83E028F0EA2404F8EB3400AF
:1034D800F988828983E08512828513831237F9126D
:1034E80037E71219178A828B8312327BE508240387
:1034F800FAE5093400FB023472850A82850B83E001
:103508002404F07C047D007900AA12AB131203F6A0
:1035180002347FEE4F60030234861237C0FEA3E008
:10352800FF850A82850B837404F0EE85088285097D
:1035380083F0EF851282851383F074031216F8ACBA
:1035480082AD83EEFAEFFB12388D70030235F18AF3
:10355800828B83A3A31237B674011216F885820EE4
:1035680085830F780E12191774051216F812192E82
:103578007CFF7DFF120A5C74041216C38B0FEA45A8
:103588000F7033850C82850D8312379612191785B3
:103598000C82850D83A312192E7C027D007A207B74
:1035A8009012088874041216C3E9700A740112167E
:1035B800F874FFF0A3F08E828F83E0640270347594
:1035C8000C02750D00780C1219178E828F83123237
:1035D8007BE5082404FAE509122BA71216C3850A0D
:1035E80082850B83E02402800974011216F8EEF03C
:1035F800A3EFF074011216F81237A7F0740112162F
:10360800F8A312379FA3A3A3F002347FEE4F600301
:10361800023486850C82850D8312327CAA16AB177C
:10362800120B88850A82850B837402F0EA8508826A
:10363800850983F0851282851383EB80CBEE4F607A
:10364800030234861237C0F8A3E0F9850A82850B95
:10365800837402F0E8850882850983F0E98512827F
:1036680085138380A3850C82850D83122F21120375
:10367800D8EAFC8C82A882C39EE49F404BE86E7017
:1036880001EF70047C00801F851882851983E0FA99
:10369800EE2AFAEF3400FBC3EA98EB94005003E0FB
:1036A8008004EECCC39CFCEC850A82850B83F08CED
:1036B8000A750B00780A121917850C82850D83E0AC
:1036C8002EFCA3E03F02346D75100702347FEE4FE5
:1036D8006003023486850C82850D83123AB2850A0E
:1036E80082850B837407F08882898312379F12378B
:1036F80087E0851282851383F0E82402FAE9340012
:10370800FB8A828B8312379F1237D81237A7A312EE
:1037180037E11237B0F0E82405F8E93400F9888277
:1037280089831237B0A31237F9A302360D741D121C
:1037380016F8123898700302347C123AB2880C8951
:103748000DE8450D700302347C8E108F117810122D
:103758001917780A12191778081219177406121609
:10376800F8E0F9AC0EAD0FAA16AB17850C82850DE3
:103778008312170274061216C3E9F51002347FF09B
:1037880088828983A322F50CEF3400F50D22E0F539
:103798000E750F00780E22E08508828509832212B3
:1037A800380022123AB6E822123800A3A322A3A3B3
:1037B800A3A3E0FEA3E0FF22850C82850D83E0F839
:1037C800A3E0F5838882E022E0F508A3E0F509226A
:1037D800A3A3F08A828B83A3221224F8A3A322F046
:1037E8008A828B831237F022E0F50A750B00780A7B
:1037F8002212378712380022E0850882850983A3C0
:10380800A32274EE12170474FE1216AD8A0A8B0BEB
:10381800ECFAEDFB74141216F8E0F510A3E0F511BC
:1038280074161216F8E0FE74181216F8E0F50EA3D6
:10383800E0F50F851882851983AC82AD8312388D27
:10384800603E851882851983123898602FA3A312C9
:1038580037D0E50845096024780E12191778101238
:103868001917EEF9AC0CAD0DAA0AAB0B85088285C9
:10387800098312170274041216C38006790E800297
:103888007901022CCD120A568A0C8B0DEA450D22BD
:10389800122F2512389F22120B1C8A828B83E582F5
:1038A80045832274F612170474FE1216AD740C12B6
:1038B80016F81237AB851882851983F07401121631
:1038C800F8E9F0E4F508F5097808121917750802FF
:1038D800780812191774041216F885820885830966
:1038E8007808121917120B7074061216C374021294
:1038F80016C3806474F7121704EAFEEBFF89087C8C
:10390800297D05120B88EA5402600BA908EEFAEF2C
:10391800FB120A4A800279010232E974F61217048E
:1039280074FF6A700374FF6B701C7B00EB75F00307
:10393800A4F8A9F0EC28F8ED39F91239650BEBC3B6
:103948009402501480E6120B588A088B09A808A91B
:1039580009E84960031239657F020217D68882890F
:103968008374FF1224F6E4F02274F6121704120B83
:10397800588A828B83E58245836006A3A3E0FA8098
:10398800027A007B0080D174F21217048A088B092E
:10399800ECFEEDFF740E1216F8E0F50A1239D57038
:1039A8001CEEFCEFFD7AFF7BFF1239D5700479110C
:1039B800801688828983E508F0A3E509F088828962
:1039C80083A3A3E50AF079007F060217D6120B58E5
:1039D8008A0C8B0DA80CA90DE8492274EE12170465
:1039E800EAFEEBFF8C088D09890C74121216F81286
:1039F8003AB274141216F812327C74161216F812AF
:103A08002F21750D00EC4D6003023AA67402650C77
:103A18006003023AA188828983123281F9EC24007A
:103A2800F50EE439F50FEAF4F8EBF4F9EC58F8E59B
:103A38000F59F9E849705DE5082406F8E5093400EE
:103A4800F9880A890B8882F583122BB6120B888AAB
:103A5800108B11E50E65107004E50F651160427852
:103A68000E121917850A82850B83122BB6120B8E3C
:103A780074021216C3E9F50D7027780E121917850E
:103A88000882850983A3A3122BB4120BA074021217
:103A980016C3800D750D808008750D0D8003750D9A
:103AA8000BA90D0231878E828F83123AB622E0F875
:103AB800A3E0F9221216C37F100217D63400F50DC1
:103AC800850C82F58322E028FEA3E039FF8E828FE1
:103AD80083227916850A82850B83122F25120B6A99
:103AE80074082274F2121704EAFEEBFF890B7401C2
:103AF800650B600E7402650B70637901120D74E931
:103B0800705BEEFAEFFB123B686047750A00800BAA
:103B18007C177D0079001203F6050A9004F6E0F898
:103B2800E50AC3985021E50A75F017A4F8A9F085AD
:103B38000882850983A3A3E028FAA3E039FB8A82D7
:103B48008B831225E270C985088285098374FFF08A
:103B5800A3F07C297D05EEFAEFFB120B820239D027
:103B6800120B528A088B09EA45092274F2121704CB
:103B78008A088B09ECFEEDFF740E1216F8123368F2
:103B8800900BB4E0F4603D7A097B00120402EA4B22
:103B980060328A828B8374B1F0A3E41237DAA312FD
:103BA80037D8A3E508F0A3E509123BCFEEF0A3EF61
:103BB800123BCFA3A3E50AF0A3E50BF0900BB4E00A
:103BC800F912040E0239D0F08A828B83A3A3A3A32F
:103BD800A32274F4121704E9FF7E008A088B09787F
:103BE8000812195B00040D803D0D3C2A3C433C5AE9
:103BF8003C773C8E3CAF3CC63CD93C023D1C3D2C3E
:103C08003D423D5C3D74016F6003023D7C8C828DBA
:103C180083E0F8C394034003023D7CE8900A47021E
:103C28003D5974026F6003023D7C8C828D8312447F
:103C3800DF900A48E8F0A3E9023D5974016F600378
:103C4800023D7C123DA34003023D7CE89002B6028F
:103C58003D5974016F6003023D7C8C828D83E0F8CE
:103C6800C394054003023D7CE89002B7023D5974B5
:103C7800016F6003023D7C123DA34003023D7CE8D6
:103C88009002B8023D5974106F6003023D7C7508BC
:103C9800108E0978081219177AB97B021203DE749C
:103CA800021216C3023D9E74016F6003023D7C122E
:103CB8003DA34003023D7CE89002C9023D597401CE
:103CC8006F6003023D7C8C828D83E0900A4B023D3D
:103CD8005974046F6003023D7C8C828D83780812CE
:103CE800157D908F6178081213AF5003023D7C90C8
:103CF80002CB780812158C023D9EEF70771209F6F8
:103D0800E9700A1205AC7950120768806290035E68
:103D18007401803D74016F705B123DA35056E890AA
:103D280002CA802D74016F704B8C828D83E0F8C3BA
:103D3800940A5040E8900A4A801774016F70358CD5
:103D4800828D83E0F874F928C3940A5027E8900A12
:103D58004CF0804274016F701B90035DE0F88C8218
:103D68008D83E090035DF0E8702CE0640170271209
:103D780005A080227E18801EC3EA9426EB9400508A
:103D88001374026F700E8C828D831244D9120894BA
:103D9800E9FE80020E0EEEF9023DB28C828D83E0C0
:103DA800F8C3940222740E1216C37F040217D67445
:103DB800F012170474CC1216AD8C0A8D0B742012F5
:103DC80016F8AC82AD8375838F7582477406121519
:103DD800C074201216F8AC82AD83120552E9F508BA
:103DE80074441216F8E0FEE9C3940A4003023F2522
:103DF80075F006E9A4F50974261216F8AC82AD83AD
:103E08007A0E74202509F9120762E97009743212D2
:103E180016F8E0FF80027F00900A47E06402700411
:103E280074018001E4F50D780D12191BEEFDEFFC0D
:103E3800A908AA0AAB0B1205D674011216C37C1482
:103E48007D007900740C1216F8AA82AB831203F66F
:103E5800740C1216F8AC82AD837A1074242509F913
:103E6800120762E9703C7C1079FF740C1216F8AAEC
:103E780082AB83120456E97029741C1216F8AC82BE
:103E8800AD837A0474252509F9120762740C121699
:103E9800F8AC82AD83EFA2E0E433F9AA0AAB0B12C7
:103EA800091E851882851983AC82AD837A0C7470DB
:103EB8002508F9120762E97053851882851983AAC3
:103EC80082AB83120582750800E50875F003A4F833
:103ED800A9F0851882851983E58228F8E5831246BA
:103EE800E312486B601D88828983A3A3E0F50E75F1
:103EF8000F00780E121917AA0AAB0B120B76740270
:103F08001216C30508E508C3940440BDEFA2E150AA
:103F18000C9002B5E0F9AA0AAB0B120B7C74046E84
:103F28007027900A47E06402701F7A009002C9E087
:103F380060010A9002B6E06004780480027800E824
:103F48004AF9AA0AAB0B1209DE790074341216C3B7
:103F58007F080217D674F0121704EAFEEBFF8C08EC
:103F68008D09750A0AE9600C146009146037146039
:103F78007902400C120594E9F50AC3940A40030239
:103F8800400CE5084509607C750E06750F00780E33
:103F9800121917EEFCEFFDAA08AB091203DE740232
:103FA8001216C3805F750B00750E06750F00780E2C
:103FB800121917EEFCEFFDE50B75F00EA4F8A9F049
:103FC80074D728FA740239FB1203F074021216C36C
:103FD800E9600C850B0AE50AC3940A502780160588
:103FE8000BE50BC3940A501C80BE12059AE9F50A2A
:103FF800C3940A500FE50845096009AA08AB09A946
:104008000A12058EA90A023F5874F4121704890887
:1040180075091574FF6A700374FF6B70277E00AC16
:10402800087A027B00EEF9120570E9600375090051
:104038000EEEC3940A40E8E50860537AC47B051283
:104048000D86804A120D688A0A8B0BAE0AAF0BEEFA
:104058004F60387C007D00EE2405FAEF3400FB8EBB
:10406800828F83A3A3A3A3E0F9120552E9C3940A9C
:10407800500CAC087A027B00120570750900E5083F
:10408800600CEEFAEFFB1205C48003750914A90948
:10409800023DB274F2121704ECFEEDFF75081574B8
:1040A8000E1216F81244CC74FF6A700374FF6B701A
:1040B80021750900AC0AAD0BEEFAEFFBA909120550
:1040C80076E960037508000509E509C3940A503FBD
:1040D80080E2120D688A828B83E5824583602D7C9D
:1040E800007D00E5822405FAE5833400FBA3A3A341
:1040F800A3E0F9120552E9C3940A5013AC0AAD0BB8
:10410800EEFAEFFB1205767508008003750814A90E
:1041180008024F0CC082C0839002CFEAF0A3EBF0F4
:104128009002B5E0FC7D007A257B0012089490028D
:10413800B5E0F9120AF8D083D08202013574EA1288
:10414800170474EC1216ADEAFEEBFFEE240CF5141E
:10415800EF3400F515EE240AF50CEF3400F50DEEFA
:104168002405F50EEF3400F50FEE2409F50AEF34B7
:1041780000F50BEE2403F508EF3400F5098E828F65
:1041880083A3A3E024FA70030244A424FD7003026D
:1041980043BF14700302422A14601024FD70030206
:1041A800438F1470030243F40244C21244E5604A88
:1041B800E0F58388821244DF880C890DE8450D609C
:1041C80039851482851583E0F50E780E12191BEED9
:1041D800240BF582EF3400F583E0F9850A82850B1C
:1041E800831244D90A0A0AAB09850C82850D831209
:1041F800170274011216C30244C2850A82850B8312
:1042080012192E9002CB12159B1209307402121645
:10421800C3E970030244C27901850A82850B8302CF
:1042280044708E828F83A3858212858313E0600396
:10423800024372850E82850F83E0A2E040030243A9
:10424800727C0E7D007900851882851983AA82AB5D
:10425800831203F6EE2408F510EF3400F5118510EB
:1042680082F583124D1FEA4B6010750A06750B0024
:10427800780A121917EA2410801B124D19120D68BA
:10428800EA4B70030244C2750A06750B00780A12DD
:104298001917EA2405FCEB3400FD74021216F8AA7B
:1042A80082AB831203DE74021216C3850E82850F59
:1042B80083E0A2E25004D2F08002C2F0A2F0E4331C
:1042C800F8740C1216F8E048F0850C82850D8312FC
:1042D80044CCE50A450B6013E50A2410F582E50B8A
:1042E8003400F583780C12157D800C750CFF750D64
:1042F800FF750EFF750FFFE50A450B7006750A007E
:10430800750B00851082851183E0F510A3E0F51187
:10431800E51045117006751000751100780C12191A
:1043280013780A121917781012191785148285152F
:104338008312192E8E828F83A31244D4740A121604
:10434800F8AA82AB83120588740A1216C3850882FC
:104358008509831244DF90035FE8F0A3E9F07A014E
:104368007B009002B5E0F91204321244E5700302B2
:1043780044C21244F070030244C28512828513833A
:10438800E0FC79010244981244E570030244C2E05B
:10439800F5838882A3A31244DF890BE8450B7003D9
:1043A8000244C28E828F83A3E0FC7902124D1988E1
:1043B80082850B8302449F7C007D00EE2404FAEF83
:1043C8003400FB850882850983E0F9120552E9F873
:1043D800C3940A40030244C2AC0CAD0D7A0475F0D4
:1043E80006E8A42425F912075C0244C2124D19906C
:1043F80002CAE06007900A4AE0F9806F900A47E035
:10440800700479058065120D688A0C8B0DA80CA9BB
:104418000DE82404F50CE93400F50D8E828F83A392
:10442800A3A3A3A3A3A3E0A2E05045E84970030215
:1044380044C2850C82850D83E0FE6034850A82853E
:104448000B83E054107029740E1216F8AC82AD83F9
:10445800E82405FAE93400FBEEF9120552E9701078
:104468007903850882850983124D1F12092A804A1B
:10447800AC0EAD0F850C82850D83E0F9124D191233
:1044880005D01244E560331244F0602E7C007900B8
:10449800124D198E828F83121702801E1209F6E9B7
:1044A800701890035EE0640170081205AC90035E1A
:1044B800E4F079501207681205A074141216C37F2D
:1044C8000E0217D6E0F50AA3E0F50B22A3A3A3A3D7
:1044D800A3E0FCA3E0FD22E0F8A3E0F9229002CFDC
:1044E800E0F8A3E0F9E84922E0F5838882A3A3E095
:1044F800F8A3E0F9E8FEE9FFEE4F2274F41217047E
:1045080074F21216ADEAFE8C0B75F006E9A42420AD
:10451800F508851882851983AC82AD837A0EF91265
:104528000762E970577C0679FF851882851983AA86
:1045380082AB83120456E97043740C1216F81244C5
:10454800DFE8F509E50B6005EE42098004EEF45258
:1045580009850982AA82E86A7001E9601B740C1255
:1045680016F8EAF0A3E4F0851882851983AC82ADC9
:10457800837A0EA90812075C790180027900023D4E
:10458800AD74F212170474E61216AD890A8A088B04
:1045980009ECFEEDFF740C1216F8AC82AD837A0EAE
:1045A80075F006E9A42420F9120762E960030246BF
:1045B800A97C0679FF740C1216F8AA82AB83120440
:1045C80056E960030246A97470250AF50B8518821E
:1045D800851983AC82AD837A0CF9120762E960030E
:1045E8000246A5851882851983AA82AB83120582A3
:1045F800E5084509702C7C0C79008518828519839B
:10460800AA82AB83120456E960030246A57C0C7D9E
:10461800007900851882851983AA82AB831203F674
:10462800805D851882851983AC82AD83AA08AB09A1
:1046380012057C8A0C8B0DA80CA90DE8497028EE90
:104648004F605E851882851983AC82AD837A007BC2
:104658000012057CEAF8EBF9EA4B60458882898309
:10466800E508F0A3E509F012471FFAEE6A7001EFBA
:10467800602BEEF04F700888828983E4F0A3F08500
:104688001882851983AA82AB8312058285188285D0
:104698001983AC82AD837A0CA90B12075C7901806F
:1046A800027900741A024F0974F71217047F00EF99
:1046B80075F003A4F8A9F0EC28F8ED1246E3E06AD7
:1046C8007003A3E06B7006E8FAE9FB800B0FEFC3F9
:1046D800940440DB7A007B00024A2239F9888289F7
:1046E800832274F71217047E00EE75F003A4F8A96C
:1046F800F0EA28F8EB1246E3E0F4FCA3E0F4FD88C6
:10470800828983ECF0A3EDF012471FF4F00EEEC39C
:10471800940440D5024A22E82402F582E93400F5DF
:1047280083E02274F412170474F41216ADEAFEEB57
:10473800FF8C088D09EE4F7005790A02485512055D
:1047480094E9F50AC3940A4024750B007C0679FFA6
:10475800E50B75F00EA4FAABF074D12AFA74023B9B
:10476800FB120456E9700302485A850B0AE50AC38E
:10477800940A400302485375F006E50AA4F50BEEC7
:10478800FCEFFD7A0E7420250BF912075CE508454D
:1047980009600EAC08AD097A1B7421250BF91207C4
:1047A8005C74181216F812486B600A7A1B7422257A
:1047B8000BF912075C741A1216F812486B600A7A21
:1047C800107423250BF912075C741C1216F8124892
:1047D8006B601D7A107424250BF912075C741E1285
:1047E80016F8AC82AD837A047425250BF912075CA0
:1047F8007C0C7D0079FF851882851983AA82AB839A
:104808001203F6851882851983AC82AD837A0C74FD
:1048180070250AF912075C75080E750900780812E8
:104828001917EEFCEFFDE50A75F00EA4F8A9F0746F
:10483800D128FA740239FB1203DE74021216C390EF
:10484800035DE060031205DC1205CAA90A740C02B4
:104858003DAF050BE50BC3940A5003024754750A94
:104868000A80E8E0FCA3E0FDEC4D2274F412170482
:1048780074F21216ADEAFEEBFFE9C3940A5004EE97
:104888004F70047902803E851882851983AC82AD09
:10489800837A0E75F006E9A42420F9120762E9F577
:1048A800087020750A06750B00780A121917740229
:1048B8001216F8AC82AD83EEFAEFFB1203DE740237
:1048C8001216C3A908023DAD74F4121704EAFEEBF0
:1048D800FF750800750A06750B00780A121917EE9D
:1048E800FCEFFDE50875F00EA4F8A9F074D128FADC
:1048F800740239FB1203F074021216C3E96004A9AA
:1049080008800B0508E508C3940A40C8790A023DE7
:10491800B274F712170474F01216ADEAFEEBFF75C5
:104928000800851882851983AC82AD837A1075F0EA
:1049380006E508A42423F9120762E9702C7C107993
:10494800FF851882851983AA82AB83120456E97001
:1049580018EEFCEFFD851882851983AA82AB8312B5
:104968000900E97004A908800B0508E508C3940A42
:1049780040B0790A74101216C3024A2274F712174B
:1049880004750800E50875F00EA4F8A9F074D1289C
:10499800FE740239FFEEFCEFFD7A0E75F006E508AD
:1049A800A42420F9120762E9602C7C067D0079FFB7
:1049B800EEFAEFFB1203F67C067D0079FFEE240683
:1049C800FAEF3400FB1203F6EE240CF582EF340004
:1049D800F583E4F0A3F00508E508C3940A40A59020
:1049E800035DE060031205DC1205CA802D74F7121E
:1049F80017047E007F007C0679FFEF75F00EA4FA9D
:104A0800ABF074D12AFA74023BFB120456E9700128
:104A18000E0FEFC3940A40DEEEF97F010217D67439
:104A2800F71217047E00EEF91205B20EEEC3940ACF
:104A38005003E960F180E374F312170474CB121683
:104A4800ADE9FF75F006A4F50874202508FE742763
:104A58001216F8AC82AD837A0EEEF9120762E9609D
:104A680003024B5C7C0679FF74271216F8AA82AB06
:104A780083120456E96003024B5C7C0E7D0079FFCB
:104A880074271216F8AA82AB831203F67C1B7D00EA
:104A980079FF740C1216F8AA82AB831203F67C0C09
:104AA8007D0079FF851882851983AA82AB8312035A
:104AB800F674271216F8AC82AD837A0EEEF9120757
:104AC8005CE9F509740C1216F8AC82AD837A1B7494
:104AD800212508F912075CE9FE740C1216F8AC825D
:104AE800AD837A1B74222508F912075CE9F50A746C
:104AF8000C1216F8AC82AD837A1074232508F912CB
:104B0800075CE9F50B740C1216F8AC82AD837A10C9
:104B180074242508F912075CE9F50C740C1216F8D0
:104B2800AC82AD837A0474252508F912075CE9F58F
:104B380008851882851983AC82AD837A0C74702F2E
:104B4800F912075CE9F8EE450A450B450C4508489B
:104B580042098003750900A90974351216C37F0537
:104B68000217D674F7121704E99002B5F01205A0DF
:104B7800024A2274F212170474FB1216AD8A088BCB
:104B880009EB54807003024C139002B5E0F912044B
:104B98001A8A0A8B0BAE0AAF0BEE4F60648E828FB7
:104BA80083E02450603814600624E1604A804BA3F7
:104BB800A3A3A3E070448E828F83A3A3A3A3A3A37C
:104BC800A312192E8E828F831244D48E828F83A3D0
:104BD800A3124D1F12055E74021216C3801CA3A3F4
:104BE800A3A3E0641E701379008E828F83A3A3129F
:104BF8004D1F120558800312056AEEFAEFFB1204E6
:104C080008AA08E5096480FB024D14EAA2E0400303
:104C1800024D1090035F1244CC74031216F885827B
:104C28000C85830D780C121917750C02750D007818
:104C38000C121917750C1C750D90780C1219177C2D
:104C4800FF7DFF7A017B00120A5074061216C30218
:104C58004CF8E4F50CF50D780C12191774041216BB
:104C6800F885820C85830D780C12191774041216B6
:104C7800F885820C85830D780C12191774091216A1
:104C8800F812192E7902EEFCEFFDAA0AAB0B120BF3
:104C98006A74081216C3E97035851882851983E08D
:104CA800FA74011216F8E0F9EA2400F50CE439F573
:104CB8000DEA450D6018780C1219178E828F831231
:104CC80044D5AA0AAB0B12055E74021216C3E4F5AA
:104CD8000CF50D780C12191774051216F812192E06
:104CE8007CFF7DFFEEFAEFFB120A5C74041216C318
:104CF8008A0C8B0DAE0CAF0DEE4F6003024C5AE5DB
:104D0800086401FAAB0980047A007B007405024F3D
:104D180009850882850983E0FAA3E0FB22C082C0E6
:104D2800839002B5E0F98A828B83A3124D1F120B80
:104D38007C02413EC082C08374FF1216AD1205A6E4
:104D4800E9C394028518828519834004740280029D
:104D5800740AF0AC82AD837A017905120A0E7401E7
:104D68001216C302413E74F212170474E81216AD0B
:104D7800EAFEEBFF890A8C088D097C187D00790012
:104D8800851882851983AA82AB831203F685188257
:104D9800851983EEF0A3EFF09002B7E0C0E074024B
:104DA8001216F8D0E0F09002B8E0C0E074031216D2
:104DB800F8D0E0F0900A4CE0C0E074171216F8D072
:104DC800E0F074151216F8E054FEF8A3E0F9900A22
:104DD8004BE0A2E0E433FAE84AF874151216F81228
:104DE8004F18A2E15004D2F08002C2F0E854FDFA54
:104DF800A2F0E43333F8EA48F874151216F8124FA3
:104E080018A2E35004D2F08002C2F0E854F7FAA2E4
:104E1800F0E433F50C750D007403780C12169A1231
:104E28004F111216F8124F18A2E45004D2F0800263
:104E3800C2F0E854EFFAA2F0E433F50C7404780CED
:104E480012169A124F111216F8124F18A2E55004B2
:104E5800D2F08002C2F0E854DFFAA2F0E433F50C95
:104E68007405780C12169A124F111216F8124F1870
:104E7800A2E25004D2F08002C2F0E854FBFAA2F099
:104E8800E433F50C7402780C12169A124F111216AC
:104E9800F8E8F0A3E9F09002B8E0601D750C10780E
:104EA8000C1219177CB97D0274061216F8AA82AB87
:104EB800831203DE74021216C39002C9E06011E582
:104EC8000A600974151216F8E04402F078018002AD
:104ED800780074141216F8E048F09002B6E0600406
:104EE80078048002780074141216F8E048F0AC08D0
:104EF800AD09851882851983AA82AB8312092474A7
:104F0800181216C37F060217D6EA450CF874152244
:104F1800E8F0A3E9F0900A4BE02274F31217047446
:104F2800E51216ADEAFEEBFF8C098D0A74281216FD
:104F3800F8E0F50C75F006E9A4F87408650A700441
:104F480074228002742128F50B7C1B7D0079008572
:104F58001882851983AA82AB831203F68518828585
:104F68001983AC82AD837A1BA90B120762E97032F0
:104F7800741A1216F8E024F9C3940A5025E50CF5C2
:104F88000B780B12191B74011216F8AC82AD83E56D
:104F980009A2E0E433F9EEFAEFFB120936740112C4
:104FA80016C3741B024B6374F7121704120BE875CF
:104FB8000800E50875F00EA4F8A9F074D128FE746D
:104FC8000239FF7C0679FFEEFAEFFB120456E9700E
:104FD80009EEFAEFFB7900120BEE0508E508C39419
:104FE8000A40CF024A22C082C0839061907404F0C4
:104FF800A37448F0A3E4F09061807440F09061BC21
:105008007407F09061877469F09061B67416F0794E
:1050180000120E5E7902120E649023B4E493F460D9
:1050280006E493F9120E3A7905121158025430C069
:1050380082C083E9540FF9906185E0696012E5C682
:1050480054804449F5C6E59E547F644970F8E9F0F8
:1050580053C680E59E547F70FA02543074F71217D5
:1050680004E5A8FE53A87E120E46C2BA539AFEC2A1
:1050780089759B00C2C2120E4C75A91175B905122B
:105088000E52D2BA439A0174805E42A80259BDC03A
:1050980082C083906181E4F0A302542D75E9007504
:1050A800910075BF00020135C082C083906181E420
:1050B800F0A374C0F0A3E402542FC082C08374F834
:1050C8001216AD9005D512589FE849700302517920
:1050D8009005D5E0544060237908851882851983A6
:1050E800AA82AB83120F54851882851983AA82ABD2
:1050F80083120C069005D5E054BFF0E05480601090
:10510800790C7A917B07120F549005D5E0547FF003
:10511800E0A2E05008790012518154FEF0E05402F8
:105128006008790112518154FDF0E0540460087957
:105138000012518C54FBF0E05408600879011251B8
:105148008C54F7F0E054106008790212518C54EF37
:10515800F0E054206008790312518C54DFF0A3E08A
:105168005401600D120E70120C189005D6E054FE12
:10517800F074081216C3025430120E5E120C0C9012
:1051880005D5E022120E64120C129005D5E022C05B
:1051980082C083E9600514602A804F90619A743355
:1051A800F0A37455F09061A0743AF090076DE06434
:1051B800017009C2919005D77467802D9005D77446
:1051C80061802690619A743FF0A3745AF09061A0B0
:1051D800747FF090076DE064017009D2919005D753
:1051E800747180059005D7746AF0025430C082C08B
:1051F80083E9600B14600D14600F14601180209017
:1052080023B880159023B980109023BA800B90079B
:105218006DE0640160F39023BBE493906186F00233
:10522800543074EE12170474F41216AD8518828582
:105238001983AC82AD8375838F7582D5740412157A
:10524800C09023B893F460030253BC907808E0C37D
:105258009402500302539C74041216F8AC82AD8376
:1052680075838F75822074081215C0F97AFF7BFF49
:105278007FFF7E008982858210801874086E700313
:1052880002535174096E7003025351740A6E70030D
:10529800025351E510C333FCE433FD74041216F8CD
:1052A800E5822CF582E5833DF583E0F50EA3E0F574
:1052B8000F8E087509007402780812169A7448252A
:1052C80008FC74783509FD8C828D83780812157D69
:1052D800740878081214BE85080C85090D8C828D17
:1052E80083780812157D741878081214BEE50C45E9
:1052F80008F508E50DF509C3E50E9508E50F9509CC
:105308008C828D83780812157D8C828D83780812A3
:10531800157D7418780840141214BEE50C4508FC75
:10532800AD0DE50EC39CFCE50F9D800F1214BEE584
:105338000C4508C3950EFCE50D950FFDC3EC9AEDE1
:105348009B5006ECFAEDFBEEFF0EEEC394135003F0
:1053580002528374FF6A700374FF6B602D8F0874A8
:1053680002780812169A744812604B74783509F559
:1053780083780812157D851882851983E5822510A2
:10538800F582E583125DD8E508F009E9C394045075
:105398000302527475080175090078081219177408
:1053A800021216F8AC82AD837AEE7B0812061274EC
:1053B800021216C3740C1216C37F0A0217D6C082D3
:1053C800C083906186E0F89023BBE49368700990ED
:1053D80023BAE493906186F09061AE7468F0A37488
:1053E8006AF090624574FBF0A304F053F4FD43FEA9
:1053F8000290076D7401F09061A0E0643A7004793E
:105408000080027901120E5E025430C082C083907F
:10541800071FE06401700A900724E06004790C809B
:105428000279008003F0A3F0D083D082020135C056
:1054380082C08375E1F1900722E0604D1460081482
:1054480060511460498051120E82900718E0F97A71
:10545800197B071210DA908F7912159B1211109090
:105468008F9112159B1210E6900723E0F91210F2A3
:10547800790112114C900716E024161255C5749A3A
:10548800F0A3740EF07900809F120E8880BC120E73
:105498008E80B7120E9480B2791280EB74F41217D2
:1054A8000475D90D900707E0A2E0E4331313F8124E
:1054B8005531484401F5D978001255AF40FB7800C2
:1054C8008808740812604B74071255B940F275E1E8
:1054D80095900707E0F97A087B071210E0900BD641
:1054E8007410F0A3740E1255D41255F41255EB1221
:1054F800572C12553B780812157D908F7578081235
:105508001509908F8978081215571255BF78081217
:10551800158C900716E024141255C57413F09005E5
:10552800D37402F07F040217D6900718E0C433330F
:1055380054C022900716E0F8A3E0F5838882A3A35D
:105548002274F61217041256FD8AD978001255AF44
:1055580040FB780080061256631257AFE8C39940A3
:10556800F51256EF1255AF40FB78008008126047DD
:1055780074071257AFE8C39940F375E195900BD6BD
:10558800741CF0A3740E1255D41255DE12159B121A
:1055980055BF1215A7900716E024141255C57412AA
:1055A800F09005D302599A880874192508F5827471
:1055B8000712590B940622900716E0240EF8A3E070
:1055C8001255CC223400F988828983221257157427
:1055D80016F0A3740E221255F41255EB12573090A0
:1055E8008FC122F0A3742EF0A3740E221255F82254
:1055F8001255FC22F0A374C0F0A3740F2274F612A3
:1056080017041256581255314402F5D9780012552C
:10561800AF40FB780080061256631257AFE8C39973
:1056280040F575E195900BD612566EF0A312566EA2
:105638001255E112159B1255BF1215A7900716E0D7
:1056480024141255C57414F09005D3740402599C9F
:10565800900728E0F9740729F5D9228808742925C4
:1056680008F582740722742812567B12567BF0A321
:10567800740E22F0A3740EF0A374282274F6121785
:10568800041256FD74064AF5D978001255AF40FB4E
:10569800780080061256631257AFE8C39940F51296
:1056A80056EF1255AF40FB78008008126047740728
:1056B8001257AFE8C39940F375E195900BD6742261
:1056C800F0A3740E12570B1255DE12159B1255BF1C
:1056D8001215A7900716E024141255C57415F090FA
:1056E80005D3740302599C90074812565B74044A08
:1056F800F5D9780022125658900718E0C43333546D
:10570800C0FA2212571574C0F0A3740F2212571949
:105718002212572674C0F0A3740F1257262212556E
:10572800FCF0A32212573022F0900BE474C0F0A3CF
:10573800740F12571974C0F0A3740F1255F8F022A1
:10574800C082C08312553BA3A3A3A3E402542D74C3
:10575800F712170412628DF8740639F9E82405FA6D
:10576800E93400FB8A828B83125FFC88828983A3D9
:10577800A3A3A3A3A3A3A3A3ECF0A3EDF08882891A
:1057880083A3A3A3A3A3A3A3E024FFF8A3E034FF68
:10579800F98A828B83E8F0A3E9F00259BD8808747E
:1057A800712508F5827407125F23F5D90822EAFEED
:1057B800EBFF9061D0E0F87480C398FAEE2483225E
:1057C8001257CE940422125DE6E0F5D90AEAC32204
:1057D80074F6121704EAFEEBFF9061D0E07075755D
:1057E800D90E75D90375D9047A008A08EE250812EE
:1057F800635B248C12587140F17A008A08EE250800
:1058080012635B24841257C840F175E1957908EE5C
:10581800248C12586A24841258617C008C82AA82D3
:10582800C3E49AF895E0F9EE28F8EF39F9E8248B03
:10583800F582E9125F1FC0E0EE2A12635B24ABF524
:1058480082E9125DD8D0E0F00CECC3940840CD1288
:1058580059278002790002599DFAEF3400FB120F94
:1058680048221258617904EE221257CE940822C0B9
:1058780082C08375D90275D90375D90575E195EA92
:105888002470F582EB12589CEA2472F582EB1259C7
:1058980039025430125DE91258A322E0F8A3E0F966
:1058A8002274F6121704EAFEEBFF900771740612D1
:1058B80059151219177C017903125C411216C37528
:1058C800D90675D90378001258FB40FB75E195900D
:1058D80005D3E064087017EE2470F582EF12589C27
:1058E800EE2472F582EF125DD8E8F0A3E9F07901B1
:1058F80002599D880874712508F582740712590B9E
:10590800940522125DE9E0F5D908E8C322F075088C
:105918007175090778082275E1957904121116EE58
:105928002470F582EF125DE91258A3EE2472F58215
:10593800EF125DE9E8F0A3E9F079012274F6121795
:1059480004EAFEEBFF9061D0E070437901900771A3
:10595800740BF09005D3E06407701775087175092A
:105968000778081219177C010909125C411216C33D
:105978007905740129F5D975D90378008003125780
:10598800A5E8C39940F875E1951259278002790076
:1059980080037401F07F020217D674F7121704EA25
:1059A800FEEBFF75D90375D90375D90DEE24DE1208
:1059B80059C212591F7F010217D6F582EF125F23D1
:1059C800F5D9227F030217D67401250AF5D975D9AE
:1059D8000378002274F5121704125A5160047804EF
:1059E80080027800E8240BF8EAC3984041750A0958
:1059F8009007717409F07908125A3A6014750871A1
:105A08007509077808121917125C391216C3750A36
:105A18000D1259D080031257A5E8C3950A40F775AF
:105A2800E1957904121116125BB6790180027900AA
:105A38008091EE24E3FCEF3400FD7A727B07120FAD
:105A480042850882850983E0221257B6F8EF125F73
:105A5800F0F583E02274F31217048A088B09125CAC
:105A68004CFAE5082483F50AEB125B1B6004780402
:105A780080027800E82408F8EAC3985003025B140F
:105A8800750C06900771740CF09005F0E0900772A1
:105A9800F07402C0E0F97CF17D057A737B07120F80
:105AA80042D0E0F97CF37D05120F42850A82850B0E
:105AB80083E0601C750A71750B07780A1219177C48
:105AC800067903AA08AB09125C411216C3750C0AC1
:105AD8007401250CF5D975D90378008009880A74F2
:105AE80071250A1257ABE8C3950C40F175E1957919
:105AF80004121116E5082470F582E50912589CE590
:105B0800082472F582E509125939800279007F0567
:105B18000217D63400F50B850A82F583E02274F665
:105B2800121704EAFEEBFF125C4CFCEE2483F8EF3C
