:020000040000FA
:0600000002011D021F0AAF
:03002B00021C476D
:03003300021C2983
:03005300021F8009
:03006B00021C0074
:10008300021DFBE5C754F84401F5C77901220000BE
:100093000080FB120086B90003020107E47921788E
:1000A30008B800028004F709D8FCE479297802B87B
:1000B30000028004F709D8FCE490028178D679071E
:1000C3008002F0A3D8FCD9FA781A90014D7A01BACC
:1000D30000028007E493A3F608DAF9900956AA828E
:1000E300AB8390014E78C279048015E493A3AC826C
:1000F300AD838A828B83F0A3AA82AB838C828D83A8
:10010300D8E9D9E77582337583A0740312012F757B
:100113008291758300740012012F75D00075813FA1
:10012300751881751902759F00020096C09FF59F8F
:10013300E473D09F22D083D082C09FE493C0E07445
:100143000193C0E0740293F59F2201FFFF0A41630C
:1001530063656C20456E61626C65000002140041AA
:100163006363656C2052616E676500001010104177
:100173006363656C20582D436F6F7264696E61749D
:10018300650000416363656C20592D436F6F726492
:10019300696E6174650000416363656C205A2D4389
:1001A3006F6F7264696E61746500000241900100B3
:1001B300001990023D900100005809026D90030060
:1001C30000A0020263900100005909023D90010062
:1001D300006709026B900100006809026390010047
:1001E300006A09023D90010000770902699000004E
:1001F30000A102023990030000A4020263900100EF
:10020300007A09023D90010000780902679000001E
:1002130000A202023990030000AA020263900100C7
:10022300008E09023D9001000079090265900000EB
:1002330000A302023990030000B0020263900100A0
:1002430000A209110199010F1264040102419001F6
:1002530000000A90023D90010000530A025F9001E2
:100263000000540A023990030000BE0202279001E5
:100273000000550A020202020202020202010D00FC
:10028300000010010241900100001690023D900110
:1002930000007F0A025990010000C502023D90014F
:1002A3000000800A025790010000138F023D900165
:1002B3000000810A025590010000058F023D900164
:1002C3000000820A0253900100007F8E023D9001DC
:1002D3000000830A025190010000918E023D9001BB
:1002E3000000840A024F90010000A38E023D90019A
:1002F3000000850A024D90010000B58E023D900179
:100303000000860A024B90010000F78E023D900127
:100313000000870A024990010000880A01E80305EA
:100323003F100B094B6579666F6264656D6F02015F
:10033300050702031802180418544920424C4520AB
:100343004B6579666F62000000000000000015082D
:1003530000001B08FF0001307503020106000000C6
:10036300000000000000000000000000000000008A
:10037300000000000000000000FFFF0600800CE802
:10038300030A04120241900100000D90023D900106
:1003930000008C0B0271900300006C040241900179
:1003A30000001090023D900100008D0B027190023D
:1003B30000006D040241900100001390023D900182
:1003C30000008E0B025D900100006E040239900361
:1003D30000006F04104B65792050726573732053CE
:1003E30074617465000241900100001F90023D900A
:1003F300010000DF0B023790000000750402399002
:100403000300007604026390010000E00BFF00008C
:10041300B4000028002800283075A000A000A00028
:10042300A00000080008E001F00010001000100018
:100433001000100010005000500050001000100079
:10044300D0070000000000000F0001000500307518
:1004530007001000010081FF0000FF390B570B3F1D
:100463000BFF02020208025000A0000000E8030292
:1004730041900100002290023D900100006D0C02AA
:100483003590010000AD04023D900100006E0C02A6
:100493003390010000C304023D900100006F0C0281
:1004A3002F90010000C504023D90010000700C0272
:1004B3002D90080000C604023D90010000710C025B
:1004C3002B90010000720CFF0100FF2002419001FC
:1004D30000001C90023D90010000D60C0229900000
:1004E300000000000239900300001305691169112F
:1004F3006911691169116911691169116911691129
:100503006911691169113F145714391412013883A1
:1005130079001201388D7900120138CB790012016C
:1005230038147A001201384E7A00120138A87A0082
:10053300120138C97A00120138D27A001201381F29
:100543007B00120138487B00120138527B001201F4
:1005530038BE7B00120138507C001201389A7C00AF
:10056300120138D07C001201385C7D001201389DE5
:100573007D00120138D47D00120138E67D0012019E
:1005830038057E001201380E7E00120138DB7E0032
:100593001201386B9C03120138D49F031201389C5B
:1005A3008F03120138D28F0312013808900312010E
:1005B30038539103120138369E031201384C9E03BF
:1005C300120138569E03120138A09E031201383DD2
:1005D300E30212013852E30212013802E40212016B
:1005E3003842E4021201385BE40212013896E40255
:1005F300120138E3E40212013815E50212013857FB
:10060300E50212013858E702120138749B03120104
:10061300389D9B03120138CC9B03120138E49B03E2
:10062300120138269C03120138DCF3021201383719
:10063300F40212013846F50212013891F502120153
:10064300384FF60212013844F702120138FA8203D6
:10065300120138318303120138508303120138FB2E
:1006630083031201389084031201381885031201A1
:1006730038F2A003120138F7A0031201385E990380
:10068300120138BB9903120138D39903120138F1CF
:1006930099031201380C9A03120138499A03120183
:1006A30038579A03120138E585031201380A860385
:1006B3001201383486031201388BA0031201385714
:1006C3003F00120138344100120138DA42001201AE
:1006D300388E43001201381844001201389944003F
:1006E300120138C244001201388048001201380652
:1006F30049001201382D4A00120138674A001201DD
:1007030038A84A00120138F04B001201384D4C0052
:10071300120138964C00120138014D001201387253
:100723004D00120138A44D00120138BC4D001201D6
:1007330038E84E00120138F84E00120138A250007A
:10074300120138B95000120138EB50001201389FE2
:1007530052001201382C5300120138F5FF01120127
:1007630038FCFF01120138E1A003120138629D0336
:10077300120138729D031201387E9D031201383035
:100783009E03120138709A03120138F59A0312017D
:10079300385B9B031201381395031201383C950310
:1007A300120138A29503120138C2950312013813BE
:1007B30096031201386E9603120138A896031201AC
:1007C30038AB9603120138E07F00120138F07F0046
:1007D300120138F37F00120138F87F001201385EEE
:1007E3008D03120138F28E03120138538F03120165
:1007F30038998F0312013814BA02120138F4BB027C
:1008030012013863BD0212013838BE02120138D911
:10081300BE02120138F8BE0212013845C0021201AD
:100823003884C002120138CCC002120138B59603D5
:100833001201380797031201387A9703120138E33C
:100843009703120138198B03120138438B031201EA
:1008530038118C03120138EC8C03120138D2B10227
:1008630012013899B202120138D0B202120138FAD9
:10087300B2021201385AB302120138B0B3021201A4
:100883003815B402120138ADB402120138BCB502F6
:1008930012013853B702120138E0B7021201384788
:1008A300B8021201385EB80212013878B902120197
:1008B30038B6B90212013856DA01120138A3DD0144
:1008C3001201381FDF0112013876DF01120138935C
:1008D300DF0112013811E00112013894E101120124
:1008E3003879E2011201382EE60112013804E701DA
:1008F30012013827FB02120138A5FB02120138C28C
:10090300FB021201384BFC0212013876FC02120181
:100913003808FD0212013814FE021201388D9103CA
:10092300120138D29103120138269203120138A919
:1009330092031201382193031201384DFE02120172
:100943003864FE0212013893FE02120138CCFE0213
:10095300120138F4FE0212013822FF021201383963
:10096300FF0212013850FF0212013866FF02120122
:10097300388DFF02120138A0FF02120138B6FF02C0
:10098300120138C9FF02120138EEFF021201388248
:100993008C02120138818D02120138B68D021201C8
:1009A30038D78D02120138E78D02120138088E0202
:1009B300120138148F02120138E18F0212013854E8
:1009C3009002120138DA90021201381D91021201CD
:1009D30038549102120138DA9102120138AC9202B2
:1009E3001201380A93021201382293021201389C31
:1009F30093021201389F9302120138A2930212014B
:100A03003849940212013861940212013891940218
:100A1300120138B194021201389F95021201385520
:100A2300960212013895DE02120138BDDE02120170
:100A330038EBDE0212013822DF021201388ADF02AC
:100A4300120138D3DF021201381EE0021201385CB2
:100A5300E00212013899E002120138C7E0021201E4
:100A6300386EE10212013878E10212013885E102A1
:100A7300120138B8E1021201387AE2021201388613
:100A8300E2021201389EE202120138A8E2021201C8
:100A930038097F00120138177F001201382F7F00B9
:100AA300120138477F00120138A0AF011201383E0E
:100AB300B001120138B6B001120138CBB1011201F5
:100AC3003805B201120138AEB20112013883B30105
:100AD300120138E7B4011201383EB501120138C5DD
:100AE300B501120138ACB601120138F9B601120191
:100AF3003887B701120138ABB70112013880B90149
:100B0300120138C1B901120138E3B9011201386485
:100B1300BA011201384EBB0112013814BC01120193
:100B230038CBC8021201389DC90212013846CA02E5
:100B330012013889CA0212013816CB02120138A2F7
:100B4300CB0212013883CC02120138B2CC0212015B
:100B530038AECD02120138F6CD02120138F8CE02BA
:100B63001201383CCF0212013862CF02120138CE93
:100B73009E031201380BF00212013821F002120118
:100B83003847F0021201386FF10212013879F1028D
:100B9300120138D2F202120138D2F302120138D70D
:100BA300CF021201380CD1021201383FD1021201D7
:100BB3003889D10212013847D30212013843A00108
:100BC300120138A6A001120138EBA101120138FB72
:100BD300A1011201381EA20112013869A2011201FA
:100BE300380EA30112013804A401120138CEA40166
:100BF30012013846A60112013888A60112013826CF
:100C0300A70112013873A70112013899A701120134
:100C13003887A9011201388CA9011201386DAB0183
:100C2300120138C1AB0112013823AC011201384B58
:100C3300AC01120138EFAC01120138B1AD01120160
:100C430038E2AD01120138E5AD011201382DAE01D4
:100C53001201386FAE01120138D6AE01120138C34A
:100C63008803120138D68803120138EF8803120172
:100C7300383A8903120138158A03120138A48A030A
:100C8300120138EF8A031201387C250012013888DB
:100C93002500120138C12500120138062600120171
:100CA30038BD2600120138432700120138A8270057
:100CB300120138D427001201380D280012013821FF
:100CC3002A00120138FD2B00120138E82D00120111
:100CD300381F2F001201387F31001201386B3200A8
:100CE300120138B13300120138BE3400120138DB6F
:100CF30034001201381335001201382D350012016A
:100D0300389535001201382F3A00120138D03A00D5
:100D1300120138213B00120138483B00120138967A
:100D23003B00120138B43B00120138083C001201A9
:100D330038E13C00120138683E00120138F03E00F1
:100D4300120138FDD40212013807D502120138D23C
:100D5300D502120138EDD50212013813D602120161
:100D63003857D6021201388FD602120138B8D6028C
:100D730012013831D70212013846D7021201385B0B
:100D8300D70212013892D702120138A6D7021201F4
:100D930038D7D70212013811D8021201383DD802D0
:100DA30012013875D80212013813D9021201385CC6
:100DB300D90212013886D902120138ABD9021201C5
:100DC300381FEC02120138E9EC02120138CCED02B3
:100DD30012013842EE0212013884EE02120138B1D8
:100DE300EF02120138008002120138298002120139
:100DF300384280021201388781021201386582026B
:100E0300120138848202120138118302120138540C
:100E13008302120138A184021201384085021201B3
:100E230038BF87021201385688021201382A890214
:100E33001201380C8A02120138788B021201380B26
:100E43008C02120138499803120138B29803120137
:100E5300380699031201382D9903120138CAE702A3
:100E630012013837E80212013882E802120138779A
:100E7300E90212013873EA021201385DEB02120132
:100E83003864A902120138A6A90212013880AA0205
:100E930012013859AB0212013854AC021201383333
:100EA300AD021201389FAD0212013866AE02120183
:100EB30038D1AE0212013838AF0212013863AF02E3
:100EC300120138D4AF0212013867B002120138D0D0
:100ED300B002120138E5B0021201382DB10212013D
:100EE3003846B102120138ABB102120138AEB10279
:100EF300120138008003120138288003120138667A
:100F030080031201382481031201388F81031201F7
:100F130038AB8103120138D38103120138038203F2
:100F23001201381282031201388C8203120138B283
:100F330082031201387490011201381192011201D7
:100F430038F79301120138C1940112013808950151
:100F53001201384F9501120138619501120138A130
:100F63009501120138D095011201381C9601120126
:100F730038549601120138829601120138D3960132
:100F8300120138629701120138509A011201382A6E
:100F93009C01120138669C01120138C09D011201A7
:100FA30038079E011201387C9E01120138CA9E0146
:100FB300120138F09E0112013861A0021201387E3D
:100FC300A00212013818A6021201381AA702120150
:100FD3003894A80212013842A9021201386B530057
:100FE300120138B45300120138E1530012013814CE
:100FF30054001201382154001201382D54001201FB
:10100300383F54001201381455001201387255004C
:10101300120138A7550012013843570012013890C6
:101023005700120138B45700120138215800120139
:1010330038C65800120138825900120138015A008B
:10104300120138C55A00120138D45A00120138551A
:101053005B00120138F45B00120138265C001201B8
:1010630038C15C001201381F5D00120138595D0060
:10107300120138DA5D00120138A35E001201384C08
:101083005F00120138D35F001201382B6000120198
:10109300388C6000120138B560001201386B6100B2
:1010A300120138B56200120138F8620012013815D6
:1010B30063001201383463001201387F63001201A8
:1010C30038A46300120138CD63001201383C640078
:1010D3001201387E64001201388265001201381C47
:1010E3006600120138E86600120138016700120138
:1010F30038C096021201381397021201381F970263
:10110300120138F497021201381B98021201385663
:101113009802120138C29802120138F6980212019D
:10112300382F9902120138479902120138A0990207
:10113300120138B99902120138029A0212013815C4
:101143009A021201382F9A02120138459A021201AB
:1011530038619B02120138729C02120138BF9D0252
:10116300120138A49E02120138FAA003120138A713
:10117300E701120138DBE70112013846EB011201E6
:101183003890EC011201385AED01120138E4EE01F6
:10119300120138BFEF01120138F9EF011201381CB7
:1011A300F0011201385EF00112013867F0011201FB
:1011B30038B1F001120138BBF00112013867F101B7
:1011C3001201383BF2011201388FF201120138F19A
:1011D300F20112013844F30112013873F3011201D1
:1011E30038B2F3011201383367001201388D6F00F2
:1011F300120138936F001201384E75001201383412
:10120300790012013891F70212013807F80212012E
:10121300381DF8021201385AF80212013892F80206
:101223001201380FF9021201384AF902120138C5C6
:10123300F90212013801FA021201380AFA02120104
:101243003816FA0212013830FA0212013855FA023E
:101253001201386BFA0212013894FA02120138F7BC
:10126300FA02120138D3D902120138E6D902120167
:101273003800DA0212013829DA021201386CDA0274
:10128300120138ABDA02120138E9DA021201384EE0
:10129300DB0212013863DB021201386EDB0212013A
:1012A300387BDB0212013892DB02120138A0DB0229
:1012B300120138ABDB02120138B7DB02120138CA64
:1012C300DB02120138D5DB02120138F8DB0212010E
:1012D30038A1DC02120138B1DC02120138CBDC0286
:1012E300120138E8DC0212013804DD021201382948
:1012F300DD0212013833DD0212013847DD0212012B
:101303003866DD02120138C7DD02120138CDDD0275
:10131300120138D3DD02120138D9DD02120138E59A
:10132300DD0212013818DE02120138CCCC011201A1
:10133300384ECD01120138F7CD011201383FCF01EC
:101343001201384DD10112013833D201120138682C
:10135300D2011201388AD20112013833D3011201AA
:101363003803D5011201382CD501120138A4D50157
:10137300120138D6D501120138E3D5011201382EF6
:10138300D60112013852D601120138A3D801120135
:1013930038ADD90112013809DA0112013849BE0109
:1013A3001201385ABF011201383EC00112013848F8
:1013B300C0011201386AC00112013876C00112015E
:1013C300381AC20112013847C2011201385DC30144
:1013D300120138B2C30112013801C501120138D616
:1013E300C50112013832C6011201389DC60112012E
:1013F30038D2C60112013815C701120138DFC901FD
:10140300120138F7C90112013888CA01120138964E
:10141300CA01120138E3CA01120138F1CA011201EB
:10142300385DCB01120138D8CB011201382FCC0122
:101433001201388DF401120138AFF401120138C0E2
:10144300F6011201387FF901120138A9FA011201DC
:101453003867FB0112013853FC011201385A930318
:101463001201387F9303120138F59303120138AE4A
:10147300C102120138B7C102120138C0C102120100
:101483003898C20212013849C40212013879C402E1
:10149300120138A4C402120138D4C402120138FF65
:1014A300C40212013833C5021201385FC5021201AA
:1014B30038A2C502120138CDC50212013814C60282
:1014C30012013869C602120138ABC602120138058F
:1014D300C70212013830C7021201387FC702120156
:1014E30038AFC702120138DAC70212013808C8023E
:1014F3001201382BC802120138579F031201388397
:101503009F03120138B09F03120138BA9F031201DF
:1015130038CA9F03120138ABFF01120138D7FF010C
:10152300E066701008A3E066700A08A3E066700422
:1015330008A3E06622C3E7960809E7960809E79639
:101543000809E79622C3E09608A3E09608A3E0966D
:1015530008A3E09622C008C3E096F50808A3E09626
:10156300420808A3E096420808A3E09645087001E4
:10157300D3D00822080808EAC0E0EBC0E086F0E711
:10158300A4FA180986F0E7A42AFA180986F0E7A452
:101593002AFA180986F0E7A42AFA1986F0E7A4FBC9
:1015A300E5F02AFA190886F0E7A42BFBE5F03AFAEE
:1015B300190886F0E7A42BFBE5F03AFA1818098618
:1015C300F0E7A4C5F02BFBE43AFA1908E7C5F0C627
:1015D300A426F6E5F03BFBE43AFA1886F0E7A4F616
:1015E300E5F00826F6E43B08F6E43A08F6D0E0FB1B
:1015F300D0E0FA22E4CFC0E0E4CEC0E0E4CDC0E026
:10160300E4CCC0E075F020C3E633F608E633F60811
:10161300E633F608E633F6181818EC33FCED33FD21
:10162300EE33FEEF33FFC3EC9709ED9709EE97090D
:10163300EF97191919400FFFEC97FC09ED97FD0976
:10164300EE97FE191906D5F0BEECF709EDF709EE92
:10165300F709EFF7191919D0E0FCD0E0FDD0E0FE4F
:10166300D0E0FF226016080808C6C313C618C613C5
:10167300C618C613C618C613C6D5E0EA22700908F1
:101683000808226016181818C6C333C608C633C61E
:1016930008C633C608C633C6D5E0EA22E627F608ED
:1016A30009E637F60809E637F60809E637F622E0D1
:1016B30026F608A3E036F608A3E036F608A3E036DC
:1016C300F622E026F008A3E036F008A3E036F0089F
:1016D300A3E036F022C3E697F60809E697F6080971
:1016E300E697F60809E697F622C3E096F008A3E02A
:1016F30096F008A3E096F008A3E096F022E056F6F1
:1017030008A3E056F608A3E056F608A3E056F6222F
:10171300E056F008A3E056F008A3E056F008A3E073
:1017230056F022E0F608A3E0F608A3E0F608A3E0EB
:10173300F622E6F008A3E6F008A3E6F008A3E6F035
:1017430022E0FAA3E0FBA3E0FCA3E0FD22EAF0A37E
:10175300EBF0A3ECF0A3EDF022CAC0E0E6F0A3089F
:10176300DAFAD0E0FA22CAC0E0E0A3C582CCC5828F
:10177300C583CDC583F0A3C582CCC582C583CDC542
:1017830083DAE6D0E0CA22C3E498F8E499F91217A1
:10179300CB8026C3E49AFAE49BFBE920E7E912171E
:1017A300CBE498F8E499F922C3E498F8E499F912A0
:1017B30017CBE498F8E499F9C3E49AFAE49BFB2283
:1017C300EB20E7CFE920E7E0B90010BB0008E88A87
:1017D300F084F8AAF022E4FBC8FA22EB70227B1013
:1017E300C833C8C933C9335007C39AC3DBF2800671
:1017F3009A50012ADBEAC833F4C8C933F4C9FA2280
:1018030075F008E4C833C8C933C933C99AC99B50B2
:1018130004C92AC93BD5F0ECFBC833F4C8E4C9FAC0
:1018230022600D08C6A2E713C618C613C6D5E0F397
:1018330022600C08C6C313C618C613C6D5E0F4222B
:10184300700422600D18C6C333C608C633C6D5E07C
:10185300F41822251810AF08F5184002151980084E
:10186300F51840021519D2AF22C0D0251810AF08C1
:10187300F518500205198008F51850020519D2AF62
:10188300D0D0222518F58210AF08F518400215199B
:101893008008F51840021519D2AF8519832225183F
:1018A300F582E43519F58322E4732518C582C0E077
:1018B300E51934FFC583C0E0E518C3958224F81009
:1018C300AF08858319858218800885831985821856
:1018D300D2AFCEF0A3E520F0A37808E608F0A3DEAC
:1018E300FAEFF0A3E58124FAF8E608F0A3E608F09E
:1018F300A3E608F0A30808E608F0A3E608F0A3159A
:10190300811581D0E0FED0E0F8158115811581E8BD
:10191300C0E0EEC0E0222518C582C0E0E51934FF1F
:10192300C583C0E0E518C3958224F910AF08858309
:10193300198582188008858319858218D2AFCEF065
:10194300A3E520F0A37808E608F0A3DEFAEFF0A3FE
:10195300E58124FBF8E608F0A3E608F0A30808E60F
:1019630008F0A3E608F0A315811581D0E0FED0E0CE
:10197300F815811581E8C0E0EEC0E0228519838562
:101983001882E0A3FEE0A3F5207808E0A3F608DFC1
:10199300FAE0A3FFE0A3C0E0E0A3C0E0E0A3C0E05F
:1019A300E0A3C0E0E0A3C0E010AF08858218858300
:1019B300198008858218858319D2AFD083D082021B
:1019C3000135851983851882E0A3FEE0A3F520780D
:1019D30008E0A3F608DFFAE0A3FFE0A3C0E0E0A37A
:1019E300C0E0E0A3C0E0E0A3C0E010AF0885821828
:1019F3008583198008858218858319D2AFD083D057
:101A03008222C0D02518C582C0E0E51934FFC58302
:101A1300C0E0E518C3958224F310AF0885831985C8
:101A230082188008858319858218D2AFC8F0A3E98C
:101A3300F0A3EAF0A3EBF0A37908E709F0A3D8FA3F
:101A4300ECF0A3EDF0A3EEF0A3EFF0A3D0E0F0A34E
:101A5300D0E0F0A3D0E0F0A3E520F0A3E5F0F0A3FD
:101A630022851983851882E0C0E0A3E0F9A3E0FA98
:101A7300A3E0FBA37808E0F608A3DFFAE0FCA3E009
:101A8300FDA3E0FEA3E0FFA3E0C0E0A3E0C0E0A36A
:101A9300E0F5D0A3E0F520A3E0A3F5F010AF0885AF
:101AA30083198582188008858319858218D2AFD05F
:101AB30082D083D0E0F8D0E03274048006740280D0
:101AC300027401C0E0F404121886D0E012175C22FD
:101AD3007404800474028000CCC0E0EDC0E0E5181B
:101AE300C39CCCAD1950011D10AF068C188D198005
:101AF300068C188D19D2AF121769D0E0FDD0E0FC27
:101B030022D083D082E9C0E0E493A3C386F0C5F07A
:101B130095F0F908E493A386F0C5F095F0700BE413
:101B230093A3C3994005E9048002A3E475F002A4DA
:101B33002582F582E5F03583F583D0E0F9E493A3BC
:101B4300C0E0E493C0E022D083D082ECC0E0EDC0DB
:101B5300E0E493A3FCE493A3FDED4C600D121B960C
:101B6300EC24FFFCED34FFFD80EFE493A3FCE4934E
:101B7300A3FDED4C600D121BD5EC24FFFCED34FFEF
:101B8300FD80EFD0E0FDD0E0FCE493A3C0E0E4935C
:101B9300C0E022C0E0C3E493960874019396184012
:101BA3000FE4936670080874019366187000701947
:101BB300A3A3C3E49396087401939618A3A3400DBB
:101BC300D0E0D0E0D0E0021B86A3A3A3A3A3A3D0BD
:101BD300E022C0E0C0F088F0E49366700808740166
:101BE3009366187000A8F0A3A3700BD0F0D0E0D0D8
:101BF300E0D0E0021B86A3A3D0F0D0E022C0E074C3
:101C0300F2121A05A2AFE433FED2AFE589A2E15086
:101C1300031207B5758900C2C5751A00EEA2E092DA
:101C2300AF7F01021A64C0E074F2121A05A2AFE496
:101C330033FED2AFE58BA2E050031207B5758B00DC
:101C4300C2E880D5C0E0C0D0E8C0E0E9C0E0E5A8C4
:101C5300D2AFC2C7751A00A2E7A2E792AFD0E0F9EC
:101C6300D0E0F8D0D0D0E03274F5121919EAFEEBC7
:101C7300FFEE2434F8EF3400F988088909EE24359F
:101C8300121DA3F8EE2437121DA3F50AEC850AF002
:101C9300A4FCAAF0850AF0EDA42AFDE82CF8E43DA3
:101CA300F97A257B001217CBEA850882850983F030
:101CB3005407F87401B800028004C333D8FCC0E0B1
:101CC300E0131313541FF8EE28F8EF3400F9E82457
:101CD3005DF582E93400F583D0E0F8E058600885CB
:101CE3000882850983801DEE2436121DA3F5F0EAD0
:101CF30084A8F0EE28F8EF3400F9E82438F582E9F7
:101D03003400F583E0F97F040219C574F51219193B
:101D1300EAFEEBFFEE2434121DA3C0E0EE2435F5FA
:101D230082EF3400F583D0E0F08E828F83A3A3A3E8
:101D3300A3A3E0FAA3E0FB8E828F83A3A3A3A3A3B1
:101D4300A3A3E0FCA3E0FDECC39AF50AED9BF50B1E
:101D5300EE2480F508EF3400F509850882F583E069
:101D63006401702BEE2481F582EF3400F583121A9F
:101D7300D7121DAC740212186CE960137CF87D064F
:101D8300EEFAEFFB121097850882850983E4F0AC25
:101D93000AAD0BEEFAEFFB121C6B122566021D094E
:101DA300F582EF3400F583E022C082C08385188278
:101DB300851983E0F8A3E0F9C3EA9CEB9D5012C3B5
:101DC300EC98ED994019C3EA98EB99501279018088
:101DD30010C3EA98EB9940F5C3EC98ED9950EE796E
:101DE30000D083D08222EAC39CFAEB9DFB22000041
:101DF300008521878522C622C0E074EF121A05757B
:101E03009B00906182E0A2E64003021EBCE591A222
:101E1300E64003021EBC7591BF9005BDE0640570EA
:101E230008121235121241800312123B752100125F
:101E330012ADE99005BEF079001212A11210017AD9
:101E4300017B009005BCE0F9120569907803E0641A
:101E5300426003021F0590075AE014F06003021F5B
:101E630005C2AF121E6900782AD0E0F618D0E0F65A
:101E7300E59F5407F97005908F6A8003908F6E7801
:101E830008121726E9C4C0E07829E65508F50808C2
:101E9300E65509F509740B7808121834D0E02508C3
:101EA300F8906270E0A2E740F8E8C333906272F002
:101EB300906270E0D2E0F08049E0A2E55024E59121
:101EC300A2E5501E7591DF9005BDE0640D7013907F
:101ED30005DFE004F064287002E4F07A00E0F91210
:101EE300131F906181E0A2E35009E5E9A2E35003E7
:101EF30075E9F7A3E0A2E75009E591A2E75003755E
:101F0300917F7F04021A64C0E0C0D0C082C0839076
:101F13006183E0A2E05009E5BFA2E0500375BFFE74
:101F2300E0A2E15009E5BFA2E1500375BFFDE0A2C5
:101F3300E25009E5BFA2E2500375BFFBE0A2E35004
:101F430009E5BFA2E3500375BFF7E0A2E45009E53A
:101F5300BFA2E4500375BFEFE0A2E55009E5BFA2BD
:101F6300E5500375BFDFE0A2E65009E5BFA2E650E6
:101F73000375BFBFD083D082D0D0D0E032C0E0742D
:101F8300F2121A05E5A7A2E4500FE5A1A2E4500955
:101F930053A7EF75A1EF121FD4E5A7A2E5500CE5F7
:101FA300A1A2E5500653A7DF75A1DFE5A7A2E15083
:101FB30009E5A1A2E1500375A1FDE5A7A2E2500C3A
:101FC300E5A1A2E2500653A7FB75A1FB7F01021A0C
:101FD3006474F81219197521019005BDE064067047
:101FE300077A007B0012121DA2AFE433FED2AF903A
:101FF30005C3E0640170187A207B009005BCE0F90A
:102003001205F37A207B009005BCE0F912056F906E
:102013006182E0D2E6F0900759E0602185C6228014
:10202300169005C2E064017008E5C654F84405F54E
:10203300C653BEFC121DF47401652160E4EEA2E0F8
:1020430092AF7F010219C500008E238F2485822859
:10205300858327851882851983E0CEA3E0CF852861
:1020630082852783EBC9EAC8EDCBECCA75F010C3B0
:10207300E833C8E933C9EA33CAEB33CBC3EA9EF585
:1020830026EB9FF525B35004AB25AA26EC33CCED04
:1020930033CDD5F0DAAE23AF242274E912191974C3
:1020A300FA121856EAFEEBFF8C088D099005BDE085
:1020B30024F7C394055006908FBA0221C4121199D4
:1020C3008A0A8B0BEA450B70030221C11212538A51
:1020D3000C8B0D121253EA650C7003EB650D60EC6B
:1020E300EEFCEFFD851882851983AA82AB83121259
:1020F30059850A82850B83A3A3780C121726908F28
:1021030092780C1217008518828519837814121798
:1021130026908F927814121700780C7914121538C0
:10212300501F780C79141216D8908FAA780C1215B8
:10213300584047850C10850D11850E12850F1380AD
:10214300418514108515118516128517137810799A
:102153000C1216D8908FAA7810121558501C7510AF
:102163000075110075120075130178107914121699
:10217300D87810790C12169F8008908FBA781012B5
:10218300172674097810121680908FC6780C1217D0
:10219300267810790C1215F79005BDE06408600AE3
:1021A300E064066005E06405701C908F9678101259
:1021B30015585012908FFA78101216B28008908F2B
:1021C300B6781012172685088285098378101217AE
:1021D30035740612186C7F100219C574F712191999
:1021E30012126B900757E064017010906245E4F09F
:1021F300A3F053F4F343FE0C5390F312120BE5C612
:1022030054804449F5C6E59E547F644970F8906153
:1022130085740FF0900755E0F47002A3E0602C750D
:102223000801750900900755E07808121843E5087E
:10223300F4FAA3E0600814600A14600C800DEA52FB
:10224300808008EA52908003EA52A079007F02025C
:1022530019C574F7121919E9FEEAFF74016E700CBF
:102263007A807B009005BCE0F9120569902574E43F
:1022730093F46008E493F9120FE3800953C680E5F1
:102283009E547F70FA121211900757E06401700395
:10229300121019900755E0F47002A3E0602A750844
:1022A30001750900900755E07808121843AA08A39E
:1022B300E0600814600A14600C800DEA4280800814
:1022C300EA42908003EA42A01211998A088B09A876
:1022D30008A909E8496017E5E170FCE82414F582D0
:1022E300E93400F583E0F874FF68600288E1740163
:1022F3006F700A7A019005BCE0F91205C3022250FF
:1023030074F11219198A088B098C0A8D0B740F1238
:1023130018A1780C121726908F9278081217009044
:102323008F92780C1217007808790C121538501513
:102333007808790C1216D8908FAA7808121558408D
:102343001579018013780C79081216D8908FAA7822
:102353000C12155840EB79007F080219C574ED1271
:1023630019198A088B098C0A8D0B74131218A1781A
:102373000C121726908F927808121700908F92787C
:102383000C121700780C7908121538401178087967
:102393000C1216D8AA08AB09AC0AAD0B8022751033
:1023A300007511007512007513017810790C12165F
:1023B300D87810790812169FAA10AB11AC12AD137E
:1023C3007F0C0219C5908F9278081217268A828B88
:1023D3008378081217137F040219C574F5121919AB
:1023E3008C828D8378081217268A828B8378081251
:1023F30016EC122432C3E098F0A3E099122424408F
:102403001E908FE278081217268A828B837808122F
:1024130016C58E828F83E02420F0A3E0344EF08033
:10242300A4F08E828F83C3E09420A3E0944E22EA2B
:102433002404F8EB3400F9E8FEE9FF8C828D83A3D2
:10244300A3A3A3E0F8A3E0F98E828F832274F5128D
:102453001919E9FE90070FE0FAA3E0FBEEC333F886
:10246300E433F974C728F582748E39F583E02AF5CD
:1024730008A3E03BF5097808121AC0908F8612175B
:102483004412204C740212186C8A088B098C0A8D32
:102493000B74107808121667AA08AB097F04021997
:1024A300C574F11219198A0C8B0D8C0E8D0F740FD4
:1024B3001218A1E0FAA3E0FB74111218A1E0F508C9
:1024C300A3E0F50974131218A1E0FEA3E0FF780856
:1024D300121AC0EA2401F508EB3400F509E4F50A01
:1024E300F50B780C7908121577908FFE7808121780
:1024F30026780C7908121577AA0CAB0DAC0EAD0F2C
:1025030012204C740212186C8B09EA450960047A94
:102513000180027A00EC2AFCED3400FDECF8EDF9C1
:102523007A717B021217CB88088909E4F50AF50B47
:102533008E828F837808121735ECF8EDF97A717B68
:10254300021217CB8A088B09740578081218438E78
:10255300828F83A3A3A3A3E508F0A3E509F07F0873
:102563000219C5C082C083E9906000F0D083D08295
:1025730022FFFFFFFFFFFFFFFFC082C083E9900C34
:10258300D5F002280074F71218ADE99004DBF07C53
:10259300137D057AFF7BFF120D199004DC74FFF0A5
:1025A300A3F0A3E4F0A3F07905120CA19004DBE0FF
:1025B300F9120BC97A377B0D120EF902350E74F43A
:1025C3001218AD8A088B09EB548060309004DBE06D
:1025D300F91205518A0A8B0BAE0AAF0BEE4F60134B
:1025E3008E828F83E064B07003120CB9EEFAEFFBB6
:1025F30012053FAA08E5096480FB80047A007B008A
:102603000227CF74F21218AD74FC121856EAFEEBCF
:10261300FF74121218A11239F5EE4F70030226A9A6
:1026230074021218A1EEF0A3EF122A0AECF0A3ED44
:10263300122A0AAA82AB83120BC3E9F50A706AE570
:1026430008450960648E828F831239DBEE4F605632
:102653007A067B001205AB8A0C8B0DA80CA90DE83A
:10266300497005750A13804188828983E41226B66E
:10267300EEF0A3EF123A06E508F0A3E509F09004A3
:10268300E112273D9004E170051234B8801B123427
:10269300A68003EAFCEBFD8C828D8312273D70F349
:1026A3008C828D8380E3750A02A90A740412186C64
:1026B300023BF5F0A31239ACA32274F21218AD89D0
:1026C3000AE975F017A4FEAFF09004E0E4F090047B
:1026D300DE12273D600A1205B19004DEE4F0A3F098
:1026E300EEFAEFFB1205AB8A088B09EA4509602F66
:1026F300EEFCEFFD790012052D9004DEE508F0A352
:10270300E509F07B008008122727E4F0A3F00BEB28
:10271300C3950A40F2E50A9004E0F079008002795B
:1027230013023BF5EB75F017A4F8A9F09004DEE073
:1027330028FAA3E0398A82F5832212314AEA4B222E
:1027430074F41218AD740C1218A11239D0FEE9FFFB
:10275300750800750900800CE5082401F508E509F2
:102763003400F509C3E5089CE5099D503285080A44
:1027730085090B7403780A121843EA250AF8EB3526
:102783000BF988828983A3A3A3A3A3A312358DEE98
:10279300650A7003EF650B70BFE8FAE9FB80047A02
:1027A300007B00802774F41218AD7900EAA2E05090
:1027B3001B75083475098F7808121AC07C047D00D4
:1027C3007AD77B0C120C9B740212186C7F040219CB
:1027D3007FC082C0839004E1122807601C8882892D
:1027E30083A3A3E06A7003A3E06B8882898370E804
:1027F300A3A3A3A312314680047A007B00D083D025
:1028030082020135123CDBE8492274EE1218AD74E2
:10281300FC121856EAFEEBFF851882851983E4F053
:10282300A3F0EE2402123498EE24051239B3EE24F9
:1028330004F50EEF122DBFE024FE603924FC604640
:1028430024FE605224FE605E24FE700302292024CD
:10285300FE700302298424FE700302299324FE7070
:10286300030229A224FC70030229B124FE7003028F
:1028730029C00229FD9004FA7417F0A3E4122A1266
:102883001209410229FD851882851983AC82AD8323
:10289300120CBF0229CD851882851983AC82AD83C2
:1028A300120CC50229CD850C08850D097402121876
:1028B300A1AC82AD83850882850983123146120B50
:1028C300E78A0C8B0DAC0CAD0DEC4D603BE4F50CC5
:1028D300F50D780C121AC0750CFA750D04780C12EC
:1028E3001AC0750CFB750D04780C121AC07408120B
:1028F30018A1121AD7123E5712186CE9F50C700B77
:1029030012313C120959800F750C01850882850923
:1029130083122A001234B8850C080229D0740212DB
:1029230018A1AC82AD83850C82850D83122F1160B3
:102933003C850C82850D83A3A3121AD77510FA75F3
:1029430011047810121AC07510FB75110478101257
:102953001AC074081218A1121AD7123E5712186C13
:10296300E9F509700B12313C12095F800F750901FB
:10297300850C82850D83122A001234B885090880DC
:102983004C851882851983AC82AD83120CCB803AB7
:10299300851882851983AC82AD83120CD1802B8577
:1029A3001882851983AC82AD83120CD7801C8518DD
:1029B30082851983AC82AD83120CDD800D8518826C
:1029C300851983AC82AD83120CE3E9F508E5086051
:1029D300298E828F83A3E06414601F850E82850F86
:1029E30083E09004FA122A0A123CD79004FB1234B3
:1029F300B8E508A3122A1212093B0233A7123CDBE3
:102A030085188285198322F085188285198322F01F
:102A13007CFA7D04850A82850B8312314A2274EE87
:102A23001218AD74FC1218568A0A8B0B8C0E8D0F7C
:102A3300EA2405F508EB3400F5097C157D007900DF
:102A43007AFA7B0412052DE5082402F50CE5091238
:102A530039B685188285198385821085831178108C
:102A6300121AC0850882850983A3A3A3A3122F0882
:102A7300121AC0E5082405F510E5093400F51178AC
:102A830010121AC0850C82850D8312325D120BE180
:102A9300740612186C8A108B11AE10AF11E50A245C
:102AA30002F50AE50B12349BEE4F7003022BDF8015
:102AB3001774021218A112314688828983EAF0A39F
:102AC300EBF09004FAE004F09004FAE0C3940540BC
:102AD30003022BDFE4F510F5117810121AC07510FC
:102AE300E37511047810121AC07510E47511047897
:102AF30010121AC074061218A1121AD77910EEFC1C
:102B0300EFFD123E5912186CE9705E850882850943
:102B130083A3A3A3A3A3A3A3E0F89004E3E06870B3
:102B230048122F08121AC07CE47D04E5082408FA31
:102B3300E5093400FB120527740212186CE96029B9
:102B43008E828F83A3A3A3A31231469004FAE0F5E8
:102B5300107402781012184374FB2510F582740464
:102B63003511F583EAF0A3EBF074021218A1858204
:102B7300108583117810121AC074021218A1121A48
:102B8300D7850C82850D8312316C12186C8A108BD9
:102B930011AE10AF119004FAE0F510751100740234
:102BA300781012184374FA2510F874043511F98853
:102BB300828983A312273D7003022AABE82403080A
:102BC3000808E93400F9EE4F6003022AB4888289C9
:102BD3008374FFF0A3F09004FAE004F09004FAE0A9
:102BE300600A12313C12094D7900800B85088285F9
:102BF30009831234AF790A0233A774EA1218AD7449
:102C0300FE1218568C128D13EA2405F50CEB123EB6
:102C1300411239DF750800750900EA2402F510EB4B
:102C23003400F51185188285198385820A85830B03
:102C3300780A121AC0850C82850D83A3A3A3A3125D
:102C43002DD5121AC0E50C2405F50AE50D12349BA7
:102C5300780A121AC0850C82850D83122DD9120BA6
:102C6300E1740612186C8A0A8B0BEA450B70030297
:102C73002D7AEA2404F50EEB122DBF1239DF8A8276
:102C83008B83A3A3A3E0F9851082851183123150AE
:102C93006003022D7AE4F514F5157814121AC07541
:102CA30014E37515047814121AC07514E475150429
:102CB3007814121AC074061218A1121AD77913AC19
:102CC3000AAD0B851082851183123E5F12186CE9E1
:102CD300F5096003022D7A9004E3E0F8E508700932
:102CE300E024029004FBF080149004FBE0FCE82451
:102CF30002FAE43400FBEA6C7001EB707E85088213
:102D0300AA82122EFF9414122EF7506B850E828521
:102D13000F83E0C0E074FC2A122DB6D0E0F0050862
:102D2300850E82850F83A3E0C0E085080A74FC2525
:102D33000A122DB6D0E0F005089004E3122DD51247
:102D43001AC07CE47D0485080A74FC250A122DC987
:102D530012186C9004E3E02508F50874FF6E700305
:102D630074FF6F6012EE24010EEF3400FFE508C319
:102D730094145003022C27E508601312315A85106E
:102D83008285118312314612095379008014E509B3
:102D9300700375090A851282851383EEF0A3EFF0A1
:102DA300A909740212186C7F0E02197F85080C742E
:102DB300FC250CF58274043400F583223400F50FEE
:102DC300850E82F58322FA74043400FB1205157410
:102DD3000222123A1522A3A3122DDF221234A6FDDA
:102DE300EEFAEFFB2274EE1218AD74FE1218568C35
:102DF3000E8D0FEA2405F50CEB1239B6750B009016
:102E030004FAE4F0F50AEA2402F508EB3400F509C4
:102E130080449004FAE0FA9004E3E0F8122EFF9461
:102E230017122EF7400D9004FAE0F87416C3989029
:102E330004E3F0122F08121AC07CE47D0474FB2A09
:102E4300FA7404122DCC12186C9004E3E0F8900489
:102E5300FAE028F0050AE50C2416F582E50D122D9B
:102E6300BAE0F8E50AC39850749004FAE0C39416E4
:102E7300506BE50AC333F8E433F9E50C28FEE50D9E
:102E830039FF851882851983AC82AD838E828F8347
:102E9300122F117008750B011234AB8050E4F5103A
:102EA300F5117810121AC07510E375110478101219
:102EB3001AC07510E47511047810121AC074061242
:102EC30018A1121AD77916850882850983123E5FE5
:102ED30012186CE9F50B7003022E1580BB7CFA7D8A
:102EE30004850882850983123146120965A90B748A
:102EF300020233A9E99400C365D03322EA28F8E437
:102F03003400F9E822E0F51075110078102212332D
:102F13009E8A108B11AC10AD11EC4D2274EA12187D
:102F2300AD74FC1218568A0C8B0D8C128D13EA2487
:102F330005F50AEB12349B750800750900E50A24B0
:102F430002F510E50B3400F51174021218A1858205
:102F53000E85830F780E121AC0850A82850B83A310
:102F6300A3A3A31239BB121AC0E50A2405F50EE583
:102F73000B3400F50F780E121AC085108285118369
:102F83001234A1123140120BE1740612186C8A0E2E
:102F93008B0FAE0EAF0FE50C2402F50EE50D3400DA
:102FA300F50F80388882898374FFF00508122DAFEE
:102FB30074FFF005089004E3E0F50C750D00780C40
:102FC300121AC07CE47D0485080C74FC250C122DB8
:102FD300C912186C9004E3E02508F508EE4F60274A
:102FE3008E828F83A3A3A3E0F9850E82850F8312BC
:102FF3003150EE24041239B3E96027850C82850D24
:10300300831231321234B8E50870030231181231D9
:103013005A850E82850F8312314612096B7900029D
:10302300312DE4F514F5157814121AC07514E375EF
:1030330015047814121AC07514E475150478141263
:103043001AC074081218A1121AD77911EEFCEFFDF9
:10305300850E82850F83123E5F12186CE9F50970A5
:103063009A850882AA82EA9004E37009E024049016
:1030730004FBF08025E0F89004FBE0F514E8240459
:10308300FCE43400FDEC65147001ED7081122EFF39
:103093009412122EF74003023011850C82850D83A2
:1030A300E0C0E074FC2A122DB6D0E0F00508850CD0
:1030B30082850D83A3E0C0E0122DAFD0E0123175FD
:1030C30085820C85830D780C121AC074041218A122
:1030D300121AD785108285118312316C12186C8AEB
:1030E3000C8B0DAE0CAF0D85080C74FC250CF8741D
:1030F300043400F9EE4F7003022FA7851882851957
:1031030083E088828983123175A3E0C0E0122DAF7A
:10311300D0E0022FB5E509700375090A850A828597
:103123000B831231321234B8A9097404022DA71289
:103133003CDB851282851383227CFA7D04850A8217
:10314300850B8312314A22E0FAA3E0FB2212314AB3
:10315300120BCFE9F509229004FBE0F5F0E50884B2
:103163009004FAF07CFA7D0422122DDF120BED7429
:103173000422F005088518828519832274EC12183D
:10318300AD74FE1218568A088B098C0E8D0FEA2433
:1031930005FEEB3400FF123388EE24181239B3EA2C
:1031A300450B700302322B12337150291232508AAD
:1031B300108B11EA4511606B7912AC0AAD0B8508CF
:1031C300828509831231468510828511831218ABDB
:1031D300E9F50A7058E4F50AF50B780A121AC08E5D
:1031E300828F83A3A3E0F50A780A121AC0EE2403A0
:1031F300123498780A121AC08E828F8312325D12AB
:103203000D07740612186CE9F50A7021850C828586
:103213000D83E0701F8508828509831231461209E8
:10322300718011750A0E8009750A018004E50A6030
:10323300031234AB850C82850D83E0600479008032
:1032430002A90A740212186C7F0C02197F85188276
:1032530085198312314A120CF5221234A6FD850812
:103263008285098312314A2274EE1218AD74FE125C
:1032730018568A088B098C0C8D0DEA2405FEEB3455
:1032830000FF750E00123388EA450B700302334FBB
:10329300123371502C1232508A0E8B0FEA450F6095
:1032A3004A7912AC0AAD0B8508828509831231462F
:1032B300850E82850F831218ABE9F50E6003023386
:1032C3005285088285098312358DAA0AFB1233635E
:1032D30070147AFF7BFF123363606C88828983E505
:1032E3000AF0A3E50BF0750A008007750E0E805FE8
:1032F300050A9004E0E0FAE50AC39A504AE50A7524
:10330300F017A4FAABF088828983A3A3E02AFAA377
:10331300E03BFB8A828B831234A1EC4D70D2750A99
:1033230017750B00780A121AC0EEFCEFFD12051593
:10333300740212186CEEFCEFFD8508828509831276
:1033430031461209778014750E098003750E011238
:103353003CD3850C82850D831234B8A90E022EF25C
:10336300120CE98A108B11A810A911E84922E5086B
:103373002402F508E5093400F5098A828B83A3A3A7
:10338300A3E0A2E522851882851983AC82AD838EE2
:10339300828F8312339E8A0A8B0B22E0FAA3E0FB0F
:1033A300120BE722740412186C7F0A02197F74EC63
:1033B3001218AD8C108D11EA2405F50CEB1239B6F9
:1033C300750F00EA2402F50AEB12349B850A82F595
:1033D30083123146123EE5700302348D750E008070
:1033E30071850C82850D83E06401704F8E828F831B
:1033F300A3A3121AD78E828F83A3A3A3A3E0F512EC
:103403007513007812121AC0EE2405F512EF34007A
:10341300F5137812121AC0123140120D07740612F6
:10342300186CE9F50F6014850C82850D83E4F012A6
:103433003CD38510828511831234B87C177D0079C3
:1034430000EEFAEFFB12052D8E828F83E4F0A3F0DA
:10345300050E9004E0E0F8E50EC398501EE50E75E6
:10346300F017A4F8A9F0850882850983A3A3123E67
:103473004B1234A1EC4D60030233E48508828509C5
:103483008374FFF0A3F0E50F700612314012097D3B
:10349300A90F02324BF50AEF3400F50B22A31234C5
:1034A300A6FD22E0FCA3E0228E828F83123CDB8503
:1034B3000E82850F83E8F0A3E9F022C082C08390D7
:1034C30004DCE06A7003A3E06B70067ADC7B0480A3
:1034D300047A007B0002280074F71218AD7F00EF16
:1034E30075F003A4F8A9F0EC28F8ED39F98882897E
:1034F30083E06A7003A3E06B7006E8FAE9FB800BD4
:103503000FEFC3940240D87A007B007F0102197F3A
:1035130074F61218AD123AC470067A007B00800765
:10352300A3A3A3A3123146023B8574F21218ADE99B
:10353300FE740E1218A112358D74101218A11239CF
:10354300F58C828D83E06402703BA3123CD78882A2
:103553008983E0F50CA3E0F9A80C74026870037486
:1035630029697021750C02750D00780C121AC07848
:1035730008121AC0780A121AC0EEF9120D2B74063B
:1035830012186C80027901023BF5E0F50AA3E0F51D
:103593000B2274E81218AD74FB121856E9851882D1
:1035A300851983F08A168B178C0E8D0F741F1218D2
:1035B300A11239F574211218A112358D7423121832
:1035C300A11239DF7510008C828D83A3A3A3E0A21F
:1035D300E4502A741D1218A11232568A828B83E595
:1035E30082458370030236A1790AAC0EAD0FAA1689
:1035F300AB171218ABE9F51060030236A4850E82EF
:10360300850F83E06402600302395AA3123CD78515
:103613000882850983A3858212858313E50E240618
:10362300F50CE50F1239B688828983E0FAA3E0F935
:10363300EA2400F514E439F5157814121B4A010045
:103643000028012869360700022840370328B036CE
:1036530000296A38012992380229393803296A383E
:103663000429FB385A39EE4F703E850C82850D8351
:103673001239D0FAE9FB8A828B83E0850A82850BB3
:1036830083123A0C121AC08A828B83A31234A6FDCA
:10369300AA08AB09120515740212186C8003751081
:1036A3000EA9107405023E3975100B80F4EE4F70AD
:1036B300F7850A82850B837401F01239E585088248
:1036C300850983F07C007D00850E82850F83A3A38B
:1036D300A3A3E02401FAA3E03400FB120BE7EA4BB7
:1036E30060418A828B83E02402F8850A82850B83FA
:1036F300E028F0EA2404F8EB3400F988828983E0B7
:10370300851282851383123A1E123A0C121AC08A4A
:10371300828B831234A0E5082403FAE5093400FB05
:10372300023697850A82850B83E02404F07C047DAE
:10373300007900AA12AB1312052D0236A4EE4F60D6
:10374300030236AB1239E5FEA3E0FF850A82850B3F
:10375300837404F0EE850882850983F0EF85128275
:10376300851383F074031218A1AC82AD83EEFAEFD4
:10377300FB123AB270030238168A828B83A3A31218
:1037830039DB74011218A185820E85830F780E121E
:103793001AC074051218A1121AD77CFF7DFF120BF1
:1037A300ED740412186C8B0FEA450F7033850C828D
:1037B300850D831239BB121AC0850C82850D83A334
:1037C300121AD77C027D007A3F7B90120A19740487
:1037D30012186CE9700A74011218A174FFF0A3F0B7
:1037E3008E828F83E064027034750C02750D00784D
:1037F3000C121AC08E828F831234A0E5082404FAB7
:10380300E509122DCC12186C850A82850B83E024FE
:1038130002800974011218A1EEF0A3EFF0740112F3
:1038230018A11239CCF074011218A1A31239C4A340
:10383300A3A3F00236A4EE4F60030236AB850C82DD
:10384300850D831234A1AA16AB17120D1F850A82A8
:10385300850B837402F0EA850882850983F085125B
:1038630082851383EB80CBEE4F60030236AB1239B4
:10387300E5F8A3E0F9850A82850B837402F0E885F5
:103883000882850983F0E985128285138380A385E5
:103893000C82850D8312314612050FEAFC8C82A837
:1038A30082C39EE49F404BE86E7001EF70047C007E
:1038B300801F851882851983E0FAEE2AFAEF340017
:1038C300FBC3EA98EB94005003E08004EECCC39C66
:1038D300FCEC850A82850B83F08C0A750B00780A51
:1038E300121AC0850C82850D83E02EFCA3E03F02F3
:1038F30036927510070236A4EE4F60030236AB858D
:103903000C82850D83123CD7850A82850B8374074D
:10391300F0888289831239C41239ACE0851282851A
:103923001383F0E82402FAE93400FB8A828B8312C2
:1039330039C41239FD1239CCA3123A061239D5F023
:10394300E82405F8E93400F9888289831239D5A37C
:10395300123A1EA3023832741D1218A1123ABD7016
:10396300030236A1123CD7880C890DE8450D70037C
:103973000236A18E108F117810121AC0780A121A0B
:10398300C07808121AC074061218A1E0F9AC0EAD83
:103993000FAA16AB17850C82850D831218AB74061C
:1039A30012186CE9F5100236A4F088828983A322E9
:1039B300F50CEF3400F50D22E0F50E750F00780ECF
:1039C30022E085088285098322123A2522123CDBF4
:1039D300E822123A25A3A322A3A3A3A3E0FEA3E014
:1039E300FF22850C82850D83E0F8A3E0F5838882AE
:1039F300E022E0F508A3E0F50922A3A3F08A828B75
:103A030083A3221226B8A3A322F08A828B83123ABD
:103A13001522E0F50A750B00780A221239AC123A26
:103A23002522E0850882850983A3A32274EE121858
:103A3300AD74FE1218568A0A8B0BECFAEDFB741464
:103A43001218A1E0F510A3E0F51174161218A1E005
:103A5300FE74181218A1E0F50EA3E0F50F85188285
:103A6300851983AC82AD83123AB2603E8518828594
:103A73001983123ABD602FA3A31239F5E50845094E
:103A83006024780E121AC07810121AC0EEF9AC0C2A
:103A9300AD0DAA0AAB0B8508828509831218AB7496
:103AA3000412186C8006790E80027901022EF2123C
:103AB3000BE78A0C8B0DEA450D2212314A123AC4E8
:103AC30022120CB38A828B83E58245832274F61219
:103AD30018AD74FE121856740C1218A11239D08541
:103AE3001882851983F074011218A1E9F0E4F5082E
:103AF300F5097808121AC07508027808121AC074FA
:103B0300041218A18582088583097808121AC01245
:103B13000D07740612186C740212186C806474F723
:103B23001218ADEAFEEBFF89087C137D05120D1F09
:103B3300EA5402600BA908EEFAEFFB120BDB8002DA
:103B4300790102350E74F61218AD74FF6A700374AE
:103B5300FF6B701C7B00EB75F003A4F8A9F0EC2855
:103B6300F8ED39F9123B8A0BEBC39402501480E64B
:103B7300120CEF8A088B09A808A909E84960031207
:103B83003B8A7F0202197F8882898374FF1226B6DB
:103B9300E4F02274F61218AD120CEF8A828B83E5DF
:103BA3008245836006A3A3E0FA80027A007B00804B
:103BB300D174F21218AD8A088B09ECFEEDFF740E76
:103BC3001218A1E0F50A123BFA701CEEFCEFFD7A25
:103BD300FF7BFF123BFA7004791180168882898378
:103BE300E508F0A3E509F088828983A3A3E50AF039
:103BF30079007F0602197F120CEF8A0C8B0DA80C3B
:103C0300A90DE8492274EE1218ADEAFEEBFF8C0809
:103C13008D09890C74121218A1123CD7741412184E
:103C2300A11234A174161218A1123146750D00ECBD
:103C33004D6003023CCB7402650C6003023CC688F2
:103C43008289831234A6F9EC2400F50EE439F50FCA
:103C5300EAF4F8EBF4F9EC58F8E50F59F9E8497090
:103C63005DE5082406F8E5093400F9880A890B881C
:103C730082F583122DDB120D1F8A108B11E50E6561
:103C8300107004E50F65116042780E121AC0850AA0
:103C930082850B83122DDB120D25740212186CE939
:103CA300F50D7027780E121AC0850882850983A343
:103CB300A3122DD9120D3D740212186C800D750DCF
:103CC300808008750D0D8003750D0BA90D0233ACB3
:103CD3008E828F83123CDB22E0F8A3E0F92274E8A2
:103CE3001218AD74E7121856851882851983EAF005
:103CF300A3EBF08C168D17890E74311218A1E0F521
:103D030012A3E0F51374331218A1E0F514A3E0F540
:103D13001574351218A1E0F50F750800750900E553
:103D23000975F003A4F8A9F0851882851983123E5A
:103D33004BE0F47003A3E0F47003023E29EE240287
:103D4300F50CEF123E41E07003023E2985160A8509
:103D5300170B780A121AC0AC14AD15AA12AB1312C2
:103D63000CA7740212186C8A0A8B0BEA450B7003BA
:103D7300023E29E4F510F5117810121AC0740612E8
:103D830018A18582108583117810121AC074091244
:103D930018A18582108583117810121AC0851282AA
:103DA300851383A3A3A3A3121AD77914AC0AAD0B6B
:103DB3008E828F83123E5F12186CE97069850A82C6
:103DC300850B83A3A3A3A3123CD774021218A112D9
:103DD30034B8850C82850D83E0A2E05018A90E74D7
:103DE300021218A1AC82AD838E828F8312314612E8
:103DF3000BFFE94208850C82850D83E0A2E1502682
:103E0300E50FF50A780A121AC4A90E74031218A151
:103E1300AC82AD838E828F83123146120BF974010B
:103E230012186CE942080509E509C394025003021C
:103E33003D22A908741912186C7F1002197F3400EF
:103E4300F50D850C82F58322E028FEA3E039FF8E71
:103E5300828F83227916850A82850B8312314A1257
:103E63000D0174082274F21218ADEAFEEBFF890B00
:103E73007401650B600E7402650B70637901120F98
:103E830017E9705BEEFAEFFB123EE56047750A0037
:103E9300800B7C177D00790012052D050A9004E044
:103EA300E0F8E50AC3985021E50A75F017A4F8A9CC
:103EB300F0850882850983A3A3E028FAA3E039FBF0
:103EC3008A828B8312280770C985088285098374C7
:103ED300FFF0A3F07C137D05EEFAEFFB120D190240
:103EE3003BF5120CE98A088B09EA45092274F212A0
:103EF30018AD8A088B09ECFEEDFF740E1218A1129F
:103F0300358D900CD5E0F4603D7A097B00120539BC
:103F1300EA4B60328A828B8374B1F0A3E41239FFD7
:103F2300A31239FDA3E508F0A3E509123F4CEEF017
:103F3300A3EF123F4CA3A3E50AF0A3E50BF0900C0B
:103F4300D5E0F9120545023BF5F08A828B83A3A3E2
:103F5300A3A3A32274F41218ADE9FF7E008A088B91
:103F6300097808121B0400040DFD408A3FA73FC0D7
:103F73003FD73FF43F0B402C40434056407F40998E
:103F830040A940BF40D94074016F60030240F98CDF
:103F9300828D83E0F8C3940340030240F9E8900B59
:103FA300270240D674026F60030240F98C828D832E
:103FB30012485C900B28E8F0A3E90240D674016F25
:103FC30060030240F912412040030240F9E89002E5
:103FD300CE0240D674016F60030240F98C828D8358
:103FE300E0F8C3940540030240F9E89002CF024091
:103FF300D674016F60030240F9124120400302406E
:10400300F9E89002D00240D674106F60030240F9C1
:104013007508108E097808121AC07AD17B0212052E
:1040230015740212186C02411B74016F6003024085
:10403300F912412040030240F9E89002E10240D620
:1040430074016F60030240F98C828D83E0900B2B27
:104053000240D674046F60030240F98C828D83782A
:1040630008121726908F86780812155850030240BD
:10407300F99002E3780812173502411BEF707712AB
:104083000B87E9700A12072579501208B1806290F4
:1040930003767401803D74016F705B1241205056AA
:1040A300E89002E2802D74016F704B8C828D83E067
:1040B300F8C3940A5040E8900B2A801774016F707C
:1040C300358C828D83E0F874F928C3940A5027E86D
:1040D300900B2CF0804274016F701B900375E0F815
:1040E3008C828D83E0900375F0E8702CE06401709E
:1040F3002712071980227E18801EC3EA9426EB94A8
:1041030000501374026F700E8C828D831248561206
:104113000A25E9FE80020E0EEEF902412F8C828DF4
:1041230083E0F8C3940222740E12186C7F04021900
:104133007F74F01218AD74CC1218568C0A8D0B7460
:10414300201218A1AC82AD8375838F75824C7406DF
:1041530012176974201218A1AC82AD831206CBE941
:10416300F50874441218A1E0FEE9C3940A4003025F
:1041730042A275F006E9A4F50974261218A1AC82CF
:10418300AD837A0E74202509F91208ABE97009741E
:10419300321218A1E0FF80027F00900B27E0640237
:1041A300700474018001E4F50D780D121AC4EEFD5C
:1041B300EFFCA908AA0AAB0B12074F740112186C83
:1041C3007C147D007900740C1218A1AA82AB8312AF
:1041D300052D740C1218A1AC82AD837A10742425BA
:1041E30009F91208ABE9703C7C1079FF740C1218C2
:1041F300A1AA82AB8312058DE97029741C1218A140
:10420300AC82AD837A0474252509F91208AB740CCA
:104213001218A1AC82AD83EFA2E0E433F9AA0AAB92
:104223000B120AAF851882851983AC82AD837A0C91
:1042330074702508F91208ABE97053851882851943
:1042430083AA82AB831206FB750800E50875F003A9
:10425300A4F8A9F0851882851983E58228F8E583F7
:10426300124A60124BE8601D88828983A3A3E0F59C
:104273000E750F00780E121AC0AA0AAB0B120D0DA1
:10428300740212186C0508E508C3940440BDEFA23C
:10429300E1500C9002CDE0F9AA0AAB0B120D137496
:1042A300046E7027900B27E06402701F7A0090025F
:1042B300E1E060010A9002CEE060047804800278B5
:1042C30000E84AF9AA0AAB0B120B6F790074341297
:1042D300186C7F0802197F74F01218ADEAFEEBFF29
:1042E3008C088D09750A0AE9600C1460091460379B
:1042F30014607902438912070DE9F50AC3940A4051
:1043030003024389E5084509607C750E06750F00B5
:10431300780E121AC0EEFCEFFDAA08AB09120515C0
:10432300740212186C805F750B00750E06750F0012
:10433300780E121AC0EEFCEFFDE50B75F00EA4F833
:10434300A9F074EF28FA740239FB120527740212DC
:10435300186CE9600C850B0AE50AC3940A502780A0
:1043630016050BE50BC3940A501C80BE120713E914
:10437300F50AC3940A500FE50845096009AA08AB7A
:1043830009A90A120707A90A0242D574F41218AD43
:10439300890875091574FF6A700374FF6B70277EB3
:1043A30000AC087A027B00EEF91206E9E9600375B6
:1043B30009000EEEC3940A40E8E50860537A3D7B9A
:1043C30007120F29804A120F0B8A0A8B0BAE0AAF12
:1043D3000BEE4F60387C007D00EE2405FAEF3400CD
:1043E300FB8E828F83A3A3A3A3E0F91206CBE9C3B9
:1043F300940A500CAC087A027B001206E975090096
:10440300E508600CEEFAEFFB12073D800375091413
:10441300A90902412F74F21218ADECFEEDFF7508E5
:1044230015740E1218A112484974FF6A700374FFC1
:104433006B7021750900AC0AAD0BEEFAEFFBA9090D
:104443001206EFE960037508000509E509C3940A3C
:10445300503F80E2120F0B8A828B83E58245836093
:104463002D7C007D00E5822405FAE5833400FBA35F
:10447300A3A3A3E0F91206CBE9C3940A5013AC0A31
:10448300AD0BEEFAEFFB1206EF750800800375081B
:1044930014A908025289C082C0839002E7EAF0A3FC
:1044A300EBF09002CDE0FC7D007A257B00120A251B
:1044B3009002CDE0F9120C89D083D08202013574C9
:1044C300EA1218AD74EC121856EAFEEBFFEE240C58
:1044D300F514EF3400F515EE240AF50CEF3400F56E
:1044E3000DEE2405F50EEF3400F50FEE2409F50A61
:1044F300EF3400F50BEE2403F508EF3400F5098ED5
:10450300828F83A3A3E024FA700302482124FD7061
:104513000302473C1470030245A714601024FD7086
:104523000302470C14700302477102483F124862AA
:10453300604AE0F583888212485C880C890DE8455F
:104543000D6039851482851583E0F50E780E121AF5
:10455300C4EE240BF582EF3400F583E0F9850A827B
:10456300850B831248560A0A0AAB09850C82850D0E
:10457300831218AB740112186C02483F850A8285B6
:104583000B83121AD79002E3121744120AC1740262
:1045930012186CE9700302483F7901850A82850B82
:1045A300830247ED8E828F83A3858212858313E076
:1045B30060030246EF850E82850F83E0A2E040038D
:1045C3000246EF7C0E7D007900851882851983AA47
:1045D30082AB8312052DEE2408F510EF3400F5119C
:1045E300851082F58312509CEA4B6010750A06759C
:1045F3000B00780A121AC0EA2410801B125096127C
:104603000F0BEA4B700302483F750A06750B0078DF
:104613000A121AC0EA2405FCEB3400FD74021218D6
:10462300A1AA82AB83120515740212186C850E823F
:10463300850F83E0A2E25004D2F08002C2F0A2F020
:10464300E433F8740C1218A1E048F0850C82850D50
:1046530083124849E50A450B6013E50A2410F582E5
:10466300E50B3400F583780C121726800C750CFFCC
:10467300750DFF750EFF750FFFE50A450B70067587
:104683000A00750B00851082851183E0F510A3E005
:10469300F511E51045117006751000751100780CC1
:1046A300121ABC780A121AC07810121AC085148222
:1046B300851583121AD78E828F83A3124851740AE9
:1046C3001218A1AA82AB83120701740A12186C850F
:1046D300088285098312485C900377E8F0A3E9F028
:1046E3007A017B009002CDE0F912056912486270ED
:1046F3000302483F12486D700302483F85128285CA
:104703001383E0FC790102481512486270030248E2
:104713003FE0F5838882A3A312485C890BE8450B2D
:10472300700302483F8E828F83A3E0FC790212500C
:10473300968882850B8302481C7C007D00EE24044E
:10474300FAEF3400FB850882850983E0F91206CB72
:10475300E9F8C3940A400302483FAC0CAD0D7A0458
:1047630075F006E8A42425F91208A502483F125063
:10477300969002E2E06007900B2AE0F9806F900BBD
:1047830027E0700479058065120F0B8A0C8B0DA846
:104793000CA90DE82404F50CE93400F50D8E828F85
:1047A30083A3A3A3A3A3A3A3E0A2E05045E8497076
:1047B3000302483F850C82850D83E0FE6034850A41
:1047C30082850B83E054107029740E1218A1AC82F9
:1047D300AD83E82405FAE93400FBEEF91206CBE9D0
:1047E3007010790385088285098312509C120ABBD5
:1047F300804AAC0EAD0F850C82850D83E0F9125013
:1048030096120749124862603312486D602E7C008D
:1048130079001250968E828F831218AB801E120B72
:1048230087E97018900376E06401700812072590F9
:104833000376E4F079501208B112071974141218B0
:104843006C7F0E02197FE0F50AA3E0F50B22A3A308
:10485300A3A3A3E0FCA3E0FD22E0F8A3E0F92290E8
:1048630002E7E0F8A3E0F9E84922E0F5838882A3B0
:10487300A3E0F8A3E0F9E8FEE9FFEE4F2274F41297
:1048830018AD74F2121856EAFE8C0B75F006E9A403
:104893002420F508851882851983AC82AD837A0EAE
:1048A300F91208ABE970577C0679FF8518828519E0
:1048B30083AA82AB8312058DE97043740C1218A18D
:1048C30012485CE8F509E50B6005EE42098004EE49
:1048D300F45209850982AA82E86A7001E9601B74AF
:1048E3000C1218A1EAF0A3E4F0851882851983ACB1
:1048F30082AD837A0EA9081208A579018002790096
:1049030002412A74F21218AD74E6121856890A8A03
:10491300088B09ECFEEDFF740C1218A1AC82AD8379
:104923007A0E75F006E9A42420F91208ABE96003B6
:10493300024A267C0679FF740C1218A1AA82AB8363
:1049430012058DE96003024A267470250AF50B856A
:104953001882851983AC82AD837A0CF91208ABE90E
:104963006003024A22851882851983AA82AB8312C7
:1049730006FBE5084509702C7C0C790085188285B7
:104983001983AA82AB8312058DE96003024A227C54
:104993000C7D007900851882851983AA82AB831266
:1049A300052D805D851882851983AC82AD83AA08A5
:1049B300AB091206F58A0C8B0DA80CA90DE84970FA
:1049C30028EE4F605E851882851983AC82AD837AA9
:1049D300007B001206F5EAF8EBF9EA4B60458882A2
:1049E3008983E508F0A3E509F0124A9CFAEE6A70A0
:1049F30001EF602BEEF04F700888828983E4F0A307
:104A0300F0851882851983AA82AB831206FB851869
:104A130082851983AC82AD837A0CA90B1208A57920
:104A23000180027900741A02528674F71218AD7F5E
:104A330000EF75F003A4F8A9F0EC28F8ED124A6032
:104A4300E06A7003A3E06B7006E8FAE9FB800B0FE2
:104A5300EFC3940440DB7A007B00024D9F39F98851
:104A63008289832274F71218AD7E00EE75F003A4D9
:104A7300F8A9F0EA28F8EB124A60E0F4FCA3E0F4AA
:104A8300FD88828983ECF0A3EDF0124A9CF4F00ECA
:104A9300EEC3940440D5024D9FE82402F582E93425
:104AA30000F583E02274F41218AD74F4121856EA78
:104AB300FEEBFF8C088D09EE4F7005790A024BD28D
:104AC30012070DE9F50AC3940A4024750B007C060E
:104AD30079FFE50B75F00EA4FAABF074E92AFA74CA
:104AE300023BFB12058DE97003024BD7850B0AE5E8
:104AF3000AC3940A4003024BD075F006E50AA4F5F5
:104B03000BEEFCEFFD7A0E7420250BF91208A5E5D8
:104B1300084509600EAC08AD097A1B7421250BF911
:104B23001208A574181218A1124BE8600A7A1B74B4
:104B330022250BF91208A5741A1218A1124BE8606A
:104B43000A7A107423250BF91208A5741C1218A1F4
:104B5300124BE8601D7A107424250BF91208A57412
:104B63001E1218A1AC82AD837A047425250BF912A9
:104B730008A57C0C7D0079FF851882851983AA829C
:104B8300AB8312052D851882851983AC82AD837A98
:104B93000C7470250AF91208A575080E75090078BA
:104BA30008121AC0EEFCEFFDE50A75F00EA4F8A991
:104BB300F074E928FA740239FB120515740212180D
:104BC3006C900375E06003120755120743A90A743A
:104BD3000C02412C050BE50BC3940A5003024AD186
:104BE300750A0A80E8E0FCA3E0FDEC4D2274F412A0
:104BF30018AD74F2121856EAFEEBFFE9C3940A509B
:104C030004EE4F70047902803E851882851983ACC7
:104C130082AD837A0E75F006E9A42420F91208AB5D
:104C2300E9F5087020750A06750B00780A121AC098
:104C330074021218A1AC82AD83EEFAEFFB120515D4
:104C4300740212186CA90802412A74F41218ADEA0E
:104C5300FEEBFF750800750A06750B00780A121A39
:104C6300C0EEFCEFFDE50875F00EA4F8A9F074E9B9
:104C730028FA740239FB120527740212186CE960D2
:104C830004A908800B0508E508C3940A40C8790AFB
:104C930002412F74F71218AD74F0121856EAFEEBA6
:104CA300FF750800851882851983AC82AD837A105D
:104CB30075F006E508A42423F91208ABE9702C7CEF
:104CC3001079FF851882851983AA82AB8312058D1B
:104CD300E97018EEFCEFFD851882851983AA82AB73
:104CE30083120A91E97004A908800B0508E508C33B
:104CF300940A40B0790A741012186C024D9F74F72D
:104D03001218AD750800E50875F00EA4F8A9F07443
:104D1300E928FE740239FFEEFCEFFD7A0E75F0060A
:104D2300E508A42420F91208ABE9602C7C067D0079
:104D330079FFEEFAEFFB12052D7C067D0079FFEE7D
:104D43002406FAEF3400FB12052DEE240CF582EF56
:104D53003400F583E4F0A3F00508E508C3940A40A2
:104D6300A5900375E06003120755120743802D7465
:104D7300F71218AD7E007F007C0679FFEF75F00E09
:104D8300A4FAABF074E92AFA74023BFB12058DE92D
:104D930070010E0FEFC3940A40DEEEF97F01021992
:104DA3007F74F71218AD7E00EEF912072B0EEEC3D7
:104DB300940A5003E960F180E374F31218AD74CBE5
:104DC300121856E9FF75F006A4F50874202508FEAD
:104DD30074271218A1AC82AD837A0EEEF91208ABD8
:104DE300E96003024ED97C0679FF74271218A1AA41
:104DF30082AB8312058DE96003024ED97C0E7D00E0
:104E030079FF74271218A1AA82AB8312052D7C1B8C
:104E13007D0079FF740C1218A1AA82AB8312052DB1
:104E23007C0C7D0079FF851882851983AA82AB8368
:104E330012052D74271218A1AC82AD837A0EEEF9F8
:104E43001208A5E9F509740C1218A1AC82AD837A96
:104E53001B74212508F91208A5E9FE740C1218A188
:104E6300AC82AD837A1B74222508F91208A5E9F5F3
:104E73000A740C1218A1AC82AD837A10742325082E
:104E8300F91208A5E9F50B740C1218A1AC82AD83D5
:104E93007A1074242508F91208A5E9F50C740C128C
:104EA30018A1AC82AD837A0474252508F91208A5EC
:104EB300E9F508851882851983AC82AD837A0C7471
:104EC300702FF91208A5E9F8EE450A450B450C4584
:104ED300084842098003750900A909743512186C42
:104EE3007F0502197F74F71218ADE99002CDF01215
:104EF3000719024D9F74F21218AD74FB1218568AEB
:104F0300088B09EB54807003024F909002CDE0F9B7
:104F13001205518A0A8B0BAE0AAF0BEE4F60648EFB
:104F2300828F83E02450603814600624E1604A8055
:104F33004BA3A3A3A3E070448E828F83A3A3A3A355
:104F4300A3A3A3121AD78E828F831248518E828F06
:104F530083A3A312509C1206D7740212186C801CF0
:104F6300A3A3A3A3E0641E701379008E828F83A38F
:104F7300A312509C1206D180031206E3EEFAEFFB54
:104F830012053FAA08E5096480FB025091EAA2E0FA
:104F9300400302508D90037712484974031218A1FD
:104FA30085820C85830D780C121AC0750C02750D61
:104FB30000780C121AC0750C39750D90780C121A02
:104FC300C07CFF7DFF7A017B00120BE1740612188F
:104FD3006C025075E4F50CF50D780C121AC07404CC
:104FE3001218A185820C85830D780C121AC07404E3
:104FF3001218A185820C85830D780C121AC07409CE
:105003001218A1121AD77902EEFCEFFDAA0AAB0B14
:10501300120D01740812186CE97035851882851910
:1050230083E0FA74011218A1E0F9EA2400F50CE414
:1050330039F50DEA450D6018780C121AC08E828F6F
:1050430083124852AA0AAB0B1206D7740212186CC9
:10505300E4F50CF50D780C121AC074051218A112A0
:105063001AD77CFF7DFFEEFAEFFB120BED740412EF
:10507300186C8A0C8B0DAE0CAF0DEE4F6003024F14
:10508300D7E5086401FAAB0980047A007B00740554
:10509300025286850882850983E0FAA3E0FB22C0D9
:1050A30082C0839002CDE0F98A828B83A312509C45
:1050B300120D130244BBC082C08374FF1218561230
:1050C300071FE9C39402851882851983400474027B
:1050D3008002740AF0AC82AD837A017905120B9FCA
:1050E300740112186C0244BB74F21218AD74E81206
:1050F3001856EAFEEBFF890A8C088D097C187D009F
:105103007900851882851983AA82AB8312052D85C0
:105113001882851983EEF0A3EFF09002CFE0C0E090
:1051230074021218A1D0E0F09002D0E0C0E0740342
:105133001218A1D0E0F0900B2CE0C0E07417121805
:10514300A1D0E0F074151218A1E054FEF8A3E0F921
:10515300900B2BE0A2E0E433FAE84AF87415121836
:10516300A1125295A2E15004D2F08002C2F0E85499
:10517300FDFAA2F0E43333F8EA48F874151218A1E3
:10518300125295A2E35004D2F08002C2F0E854F721
:10519300FAA2F0E433F50C750D007403780C1218C1
:1051A3004312528E1218A1125295A2E45004D2F067
:1051B3008002C2F0E854EFFAA2F0E433F50C740471
:1051C300780C12184312528E1218A1125295A2E5AE
:1051D3005004D2F08002C2F0E854DFFAA2F0E433C4
:1051E300F50C7405780C12184312528E1218A11282
:1051F3005295A2E25004D2F08002C2F0E854FBFAC6
:10520300A2F0E433F50C7402780C12184312528E98
:105213001218A1E8F0A3E9F09002D0E0601D750C2C
:1052230010780C121AC07CD17D0274061218A1AA40
:1052330082AB83120515740212186C9002E1E060D0
:1052430011E50A600974151218A1E04402F078010F
:105253008002780074141218A1E048F09002CEE0A6
:10526300600478048002780074141218A1E048F0F6
:10527300AC08AD09851882851983AA82AB83120A0B
:10528300B5741812186C7F0602197FEA450CF8747E
:105293001522E8F0A3E9F0900B2BE02274F3121827
:1052A300AD74E5121856EAFEEBFF8C098D0A7428DB
:1052B3001218A1E0F50C75F006E9A4F87408650A64
:1052C300700474228002742128F50B7C1B7D007905
:1052D30000851882851983AA82AB8312052D851850
:1052E30082851983AC82AD837A1BA90B1208ABE9C3
:1052F3007032741A1218A1E024F9C3940A5025E5F8
:105303000CF50B780B121AC474011218A1AC82AD00
:1053130083E509A2E0E433F9EEFAEFFB120AC7745E
:105323000112186C741B024EE074F71218AD120DC3
:1053330085750800E50875F00EA4F8A9F074E9284E
:10534300FE740239FF7C0679FFEEFAEFFB12058D3E
:10535300E97009EEFAEFFB7900120D8B0508E508F9
:10536300C3940A40CF024D9FC082C0839061907462
:1053730004F0A37448F0A3E4F09061807440F090CB
:1053830061BC7407F09061877469F09061B674161C
:10539300F07900121007790212100D902574E4932E
:1053A300F46006E493F9120FE3790512130102572F
:1053B300ADC082C083E9540FF9906185E069601242
:1053C300E5C654804449F5C6E59E547F644970F8A8
:1053D300E9F053C680E59E547F70FA0257AD74F727
:1053E3001218ADE5A8FE53A87E120FEFC2BA539A66
:1053F300FEC289759B00C2C2120FF575A91175B95A
:1054030005120FFBD2BA439A0174805E42A8025D73
:105413003AC082C083906181E4F0A30257AA75E980
:105423000075910075BF00020135C082C083906191
:1054330081E4F0A374C0F0A3E40257ACC082C0833C
:1054430074F81218569005BF125C1CE849700302E9
:1054530054F69005BFE0544060237908851882858F
:105463001983AA82AB831210FD851882851983AA3A
:1054730082AB83120DA99005BFE054BFF0E05480C6
:105483006010790C7A7B7B071210FD9005BFE05406
:105493007FF0E0A2E0500879001254FE54FEF0E0E1
:1054A3005402600879011254FE54FDF0E054046084
:1054B30008790012550954FBF0E05408600879019B
:1054C30012550954F7F0E054106008790212550997
:1054D30054EFF0E054206008790312550954DFF0CB
:1054E300A3E05401600D121019120DBB9005C0E02A
:1054F30054FEF0740812186C0257AD121007120D07
:10550300AF9005BFE02212100D120DB59005BFE05C
:1055130022C082C083E9600514602A804F90619A9B
:105523007433F0A37455F09061A0743AF090075768
:10553300E064017009C2919005C17467802D9005E4
:10554300C17461802690619A743FF0A3745AF090FD
:1055530061A0747FF0900757E064017009D29190C5
:1055630005C1747180059005C1746AF00257ADC01E
:1055730082C083E9600B14600D14600F1460118006
:10558300209025788015902579801090257A800BBE
:10559300900757E0640160F390257BE49390618664
:1055A300F00257AD74EE1218AD74F4121856851844
:1055B30082851983AC82AD8375838F75825E740493
:1055C30012176990257893F460030257399078088D
:1055D300E0C39402500302571974041218A1AC8259
:1055E300AD8375838F7582207408121769F97AFF6A
:1055F3007BFF7FFF7E008982858210801874086E8E
:1056030070030256CE74096E70030256CE740A6E8E
:1056130070030256CEE510C333FCE433FD74041269
:1056230018A1E5822CF582E5833DF583E0F50EA311
:10563300E0F50F8E08750900740278081218437498
:10564300482508FC74783509FD8C828D837808120F
:1056530017267408780812166785080C85090D8CBF
:10566300828D83780812172674187808121667E556
:105673000C4508F508E50DF509C3E50E9508E50F9A
:1056830095098C828D8378081217268C828D8378F6
:1056930008121726741878084014121667E50C458B
:1056A30008FCAD0DE50EC39CFCE50F9D800F1216A3
:1056B30067E50C4508C3950EFCE50D950FFDC3EC9E
:1056C3009AED9B5006ECFAEDFBEEFF0EEEC394133E
:1056D300500302560074FF6A700374FF6B602D8FD2
:1056E300087402780812184374481263C874783532
:1056F30009F5837808121726851882851983E582B0
:105703002510F582E583126155E508F009E9C39494
:105713000450030255F17508017509007808121A3F
:10572300C074021218A1AC82AD837A5E7B091207A2
:105733008B740212186C740C12186C7F0A02197F96
:10574300C082C083906186E0F890257BE493687003
:105753000990257AE493906186F09061AE7468F0C5
:10576300A3746AF090624574FBF0A304F053F4FD54
:1057730043FE029007577401F09061A0E0643A7011
:10578300047900800279011210070257ADC082C06C
:1057930083900709E06401700A90070EE0600479C2
:1057A3000C800279008003F0A3F0D083D082020141
:1057B30035C082C08375E1F190070CE0604D146041
:1057C30008146051146049805112102B900702E0B5
:1057D300F97A037B07121283909002121744121274
:1057E300B9908F9A12174412128F90070DE0F91295
:1057F300129B79011212F5900700E0241612594208
:105803007443F0A37410F07900809F12103180BCB0
:1058130012103780B712103D80B2791280EB74F406
:105823001218AD75D90D9006F1E0A2E0E43313131D
:10583300F81258AE484401F5D9780012592C40FBB0
:105843007800880874F21263C8740612593640F25D
:1058530075E1959006F1E0F97AF27B0612128990D0
:105863000CF774B9F0A3740F1259511259711259EC
:1058730068125AA91258B87808121726908F6278BE
:10588300081216B2908F92780812170012593C78BA
:1058930008121735900700E024141259427413F0CC
:1058A3009005BD7402F07F0402197F900702E0C4E3
:1058B300333354C022900700E0F8A3E0F5838882D5
:1058C300A3A32274F61218AD125A7A8AD978001259
:1058D300592C40FB780080061259E0125B2CE8C378
:1058E3009940F5125A6C12592C40FB78008008122B
:1058F30063C47407125B2CE8C39940F375E1959078
:105903000CF774C5F0A3740F12595112595B121797
:105913004412593C121750900700E02414125942C4
:105923007412F09005BD025D17880874032508F50D
:10593300827407125C88940622900700E0240EF814
:10594300A3E0125949223400F98882898322125A2A
:105953009274BFF0A3740F22125971125968125A2C
:10596300AD908FE222F0A374D7F0A3740F221259E3
:10597300752212597922F0A37469F0A37411227469
:10598300F61218AD1259D51258AE4402F5D9780063
:1059930012592C40FB780080061259E0125B2CE868
:1059A300C39940F575E195900CF71259EBF0A312EA
:1059B30059EB12595E12174412593C1217509007B3
:1059C30000E024141259427414F09005BD740402CB
:1059D3005D19900712E0F9740729F5D92288087434
:1059E300132508F58274072274D11259F81259F855
:1059F300F0A3740F22F0A3740FF0A374D12274F6F2
:105A03001218AD125A7A74064AF5D9780012592C35
:105A130040FB780080061259E0125B2CE8C39940E2
:105A2300F5125A6C12592C40FB780080081263C49B
:105A33007407125B2CE8C39940F375E195900CF75A
:105A430074CBF0A3740F125A8812595B12174412C5
:105A5300593C121750900700E02414125942741550
:105A6300F09005BD7403025D199007321259D87482
:105A7300044AF5D97800221259D5900702E0C433BD
:105A83003354C0FA22125A927469F0A37411221289
:105A93005A9622125AA37469F0A37411125AA322BC
:105AA300125979F0A322125AAD22F0900D057469B0
:105AB300F0A37411125A967469F0A37411125975F4
:105AC300F022C082C0831258B8A3A3A3A3E4025751
:105AD300AA74F71218AD12660AF8740539F9E824A6
:105AE30005FAE93400FB8A828B8312637988828901
:105AF30083A3A3A3A3A3A3A3A3A3ECF0A3EDF08881
:105B0300828983A3A3A3A3A3A3A3E024FFF8A3E011
:105B130034FFF98A828B83E8F0A3E9F0025D3A88C7
:105B230008745B2508F58274071262A0F5D9082270
:105B3300EAFEEBFF9061D0E0F87480C398FAEE249C
