:020000040000FA
:0600000002011D021DE6D5
:03002B00021B2B8A
:03003300021B0DA0
:03005300021E5C2E
:03006B00021AE492
:10008300021CD7E5C754F84401F5C77901220000E3
:100093000080FB120086B90003020107E4791B7894
:1000A30002B800028004F709D8FCE4791D7802B88D
:1000B30000028004F709D8FCE49003C17842790E6A
:1000C3008002F0A3D8FCD9FA781A90014D7A01BACC
:1000D30000028007E493A3F608DAF9901102AA82DA
:1000E300AB8390014E78D479018015E493A3AC825D
:1000F300AD838A828B83F0A3AA82AB838C828D83A8
:10010300D8E9D9E77582497583CA740312012F753B
:100113008291758300740012012F75D00075813FA1
:100123007518C1751903759F00020096C09FF59F4E
:10013300E473D09F22D083D082C09FE493C0E07445
:100143000193C0E0740293F59F2201FFFF01E803CE
:10015300053F1002FEFFFF00D307E5070F08D9078D
:10016300FF0000B4000028002800283075A000A07C
:1001730000A000A00000080008E001F0001000103B
:10018300001000100010001000500050005000102C
:10019300001000D0070000000000000F0001000560
:1001A30000307507001000010081FF0000FF02020C
:1001B300022C910100001691023291010000651199
:1001C30002269101000037060232910100006611F8
:1001D300021E910100004D06FFFF0100FF20022CCB
:1001E3009101000019910232910100009411021C47
:1001F3009100000000000234910300002A07C50F9C
:10020300C50FC50FC50FC50FC50FC50FC50FC50F4B
:10021300C50FC50FC50FC50FE111FF11DB1112018A
:10022300385DB80212013867B802120138A5B80266
:10023300120138EEB80212013828B90212013882CD
:10024300B902120138A3B9021201387BBC021201B0
:100253003884BC02120138D1BC02120138FABC0244
:1002630012013804BD0212013870BD0212013802B6
:10027300BE021201384CBE0212013882BE021201C4
:10028300380EBF021201384FBF0212013886BF0277
:1002930012013898BF02120138B7BF02120138C0E9
:1002A300BF021201388DC002120138E2C4031201E9
:1002B30038F4FD011201382AFE0112013860FE01F3
:1002C300120138ABFF0112013866C8031201387CF2
:1002D300C80312013886C803120138D0C8031201BB
:1002E30038B28903120138C78903120138778A03A8
:1002F300120138B78A03120138D08A031201380B6E
:100303008B03120138588B031201388A8B031201B5
:1003130038CC8B03120138CD8D031201383F8E0385
:10032300120138EAC9031201386ABE031201389375
:10033300BE03120138C2BE031201385ABF031201B1
:100343003872BF03120138B4BF03120138008003AF
:10035300120138428003120138C48003120138D7D6
:1003630080031201382881031201386D81031201C1
:10037300387C8103120138D78103120138268203A6
:100383001201387C82031201387183031201386829
:100393008403120138A584031201387BC9031201B7
:1003A300381553001201380F5500120138A95600B1
:1003B3001201385F5700120138E957001201386EF5
:1003C3005800120138975800120138E958001201F9
:1003D30038075D001201388D5D00120138B45E00EC
:1003E300120138EE5E001201382F5F0012013877D8
:1003F3006000120138AB600012013808610012017D
:1004030038516100120138B86100120138316200BD
:10041300120138606200120138786200120138A4B8
:100423006300120138B463001201386765001201DA
:10043300387E6500120138B065001201385F67002D
:10044300120138EC6700120138FDC80212013804AA
:10045300CA02120138D0CA02120138FACC021201C0
:100463003869CD021201386CCD0212013834CF0243
:10047300120138AECF0212013869D0021201387767
:10048300C1031201386AC203120138A4C70312015F
:10049300380CC803120138EBD0021201380CD10218
:1004A30012013855D102120138D4D502120138395C
:1004B3009B03120138F6FF01120138E5FF01120117
:1004C30038C8C603120138D8C603120138EAC60376
:1004D3001201389EC703120138DEC30312013863C9
:1004E300C403120138C9C40312013834BB03120117
:1004F300385DBB03120138C3BB03120138E3BB03EE
:1005030012013834BC031201388FBC03120138C9FD
:10051300BC03120138CCBC0312013876AA031201C2
:10052300388BAA03120138B6AB0312013832AC037D
:10053300120138A6AC03120138C0AC03120138D73C
:10054300AC03120138EAAC0312013804AD03120103
:10055300381BAD0312013841AD0312013892AD03CC
:100563001201381D9703120138349703120138AE74
:100573009703120138929803120138699A03120102
:1005830038CE9A03120138259B03120138F87F00F5
:1005930012013898B5031201382EB7031201388FB0
:1005A300B703120138D5B703120138D6BC031201C1
:1005B3003828BD031201389BBD0312013804BE0362
:1005C300120138C7AD03120138F1AD03120138BF70
:1005D300AE031201389AAF0312013821B00312019E
:1005E30038BBC00212013882C102120138B9C102FC
:1005F300120138E3C10212013843C20212013899D1
:10060300C202120138FEC20212013896C30212015D
:1006130038A5C4021201383CC602120138C9C60209
:1006230012013830C70212013847C702120138617C
:10063300C8021201389FC80212013804C003120114
:10064300381AC00312013847C00312013877C003B8
:100653001201388EC003120138AFC003120138E013
:10066300C00312013831C10312013848C10312011A
:10067300385FC10312013891B903120138A8B903D5
:10068300120138D7B90312013810BA0312013838EE
:10069300BA0312013866BA031201387DBA03120194
:1006A3003894BA03120138AABA03120138D1BA0333
:1006B300120138E4BA03120138FABA0312013822DC
:1006C300BB03120138E7D301120138E6D40112014A
:1006D3003810D50112013865D50112013886D501CC
:1006E3001201389FD501120138A1D501120138C278
:1006F300D501120138BBD601120138FDD701120111
:1007030038BAD80112013887D901120138EBD9015F
:1007130012013882DA0112013885DA011201380B2D
:10072300DB011201384EDB01120138A0DB0112019B
:1007330038A3DB01120138DADB0112013801DC01D5
:1007430012013897DC0112013820DD0112013869EA
:10075300DD0112013876DD0112013879DD01120164
:1007630038D7DD01120138EFDD0112013869DE01EE
:100773001201386CDE011201388FDE01120138924A
:10078300DE0112013839DF011201385CDF01120189
:100793003874DF01120138A4DF01120138B1DF011F
:1007A300120138B4DF0112013820E0011201380EC2
:1007B300E101120138C4E101120138E8A402120177
:1007C30038C3A502120138F1A50212013871A6023D
:1007D30012013891A602120138CFA6021201382263
:1007E300A7021201388AA7021201381BA8021201BC
:1007F30038E6A802120138F5AB0212013861AD02E6
:1008030012013884AD0212013848FC02120138D9B2
:10081300FD021201382AFE0212013889FE0212017A
:100823003897FE02120138C0FE0212013825F20287
:100833001201384DF2021201387BF202120138B272
:10084300F2021201381AF30212013863F3021201A1
:1008530038AEF302120138ECF30212013829F40224
:1008630012013857F402120138FEF402120138085B
:10087300F50212013815F50212013848F50212018A
:10088300380AF60212013816F6021201382EF60261
:1008930012013838F602120138B6F602120138D9BD
:1008A300C503120138E7C503120138FFC50312015E
:1008B3003817C6031201382FC6031201383CE20170
:1008C300120138DAE20112013852E30112013867EA
:1008D300E401120138A1E4011201384AE5011201D1
:1008E300381FE60112013883E701120138DAE70104
:1008F30012013861E80112013848E9011201389503
:10090300E90112013823EA0112013847EA01120111
:10091300381CEC011201385DEC011201387FEC0147
:1009230012013844ED011201380AEE011201383F79
:10093300F00112013829A3031201383FA303120166
:100943003865A3031201388DA40312013897A40359
:10095300120138F0A503120138F0A6031201384C36
:100963008E03120138EE8E03120138218F03120118
:10097300386B8F031201382591031201383D910121
:10098300120138BB9101120138CB9101120138A633
:100993009201120138E392011201386A93011201A4
:1009A30038B69301120138C193011201389A9401A8
:1009B300120138FC94011201389895011201389CF8
:1009C3009701120138539901120138CF990112018D
:1009D30038AC9A01120138DA9D01120138789E0170
:1009E300120138D59F0112013848A101120138F1D3
:1009F300A1011201383AA20112013871A2011201B8
:100A03003816A30112013894A30112013867B60105
:100A1300120138BCB60112013801B80112013811B4
:100A2300B80112013834B8011201387FB80112013C
:100A33003824B9011201381ABA01120138E4BA0193
:100A43001201385CBC011201389EBC011201383C12
:100A5300BD0112013862BD0112013850BF011201FC
:100A63003855BF0112013836C1011201388AC1015C
:100A7300120138ECC10112013814C201120138B855
:100A8300C2011201387AC301120138ABC30112014A
:100A930038AEC301120138F6C30112013838C4015C
:100AA3001201389FC40112013839B3031201384CC3
:100AB300B30312013855B3031201386EB3031201A5
:100AC30038B9B30312013894B40312013823B503C0
:100AD3001201386EB503120138682200120138780A
:100AE3002200120138DB22001201382023001201F8
:100AF30038D02300120138A92400120138D224006F
:100B0300120138022500120138162700120138F2AB
:100B13002800120138D22A001201380A2C001201CF
:100B230038832E001201386F2F00120138B53000C0
:100B3300120138C231001201380432001201383C6C
:100B43003200120138563200120138BE320012014F
:100B530038583700120138F937001201384D380080
:100B6300120138743800120138B23800120138D13A
:100B730038001201382539001201382D3A001201CC
:100B830038B63A0012013861EC021201386BEC02FC
:100B930012013807ED02120138D2ED02120138F1C9
:100BA300ED0212013817EE0212013856EE0212015D
:100BB300388EEE02120138B7EE02120138F1EE025E
:100BC30012013806EF02120138D3EF02120138F690
:100BD300EF0212013818F0021201382DF00212014F
:100BE30038B7F002120138F1F00212013865F10250
:100BF300120138AEF102120138D8F102120138FDA8
:100C0300F1021201383D9F0312013807A0031201BC
:100C130038EAA00312013860A103120138A2A1032C
:100C2300120138CFA2031201384EF00112013877B6
:100C3300F00112013890F001120138D5F1011201CF
:100C430038B3F201120138D2F2011201385FF30115
:100C5300120138A2F301120138DAF4011201384605
:100C6300F5011201383CF701120138CAF9011201EA
:100C7300385DFA0112013831FB01120138D4FB014E
:100C8300120138E7FC011201387DFD01120138D150
:100C9300C2031201383AC3031201388EC30312018F
:100CA30038BDC303120138C89203120138359303C8
:100CB30012013880930312013875940312013871BD
:100CC30095031201385B9603120138DBDE02120131
:100CD3003822DF02120138FBDF02120138F6E0028C
:100CE300120138D5E10212013841E2021201385DE6
:100CF300E302120138C4E302120138C7E30212010E
:100D030038F2E30212013863E40212013806E50205
:100D13001201381BE50212013863E5021201387C27
:100D2300E5021201387FE502120138FAA603120127
:100D33003836A70312013874A7031201383EA803FB
:100D4300120138B1A803120138ECA8031201382AA2
:100D5300A9031201385AA90312013881A903120108
:100D630038ECA9031201382EAA031201382B6800AC
:100D7300120138ED6900120138856B001201382C1D
:100D83006C00120138736C00120138B76C00120149
:100D930038C96C00120138096D00120138386D0032
:100DA300120138836D00120138C36D00120138F14E
:100DB3006D00120138426E00120138CF6E0012012D
:100DC300381870001201380C7100120138C172001A
:100DD300120138647700120138AD7700120138F43C
:100DE30077001201380A7A0012013893B003120116
:100DF3003805B1031201385BB1031201389FB10307
:100E0300120138BFB1031201380CB2031201385476
:100E1300B203120138A7B203120138F8B203120168
:100E2300381D3B00120138663B00120138933B002A
:100E3300120138C63B00120138D63B00120138E2DA
:100E43003B00120138F33B00120138C83C00120189
:100E530038263D001201385B3D00120138F73E0091
:100E6300120138493F00120138973F00120138F34D
:100E73003F00120138EF40001201387542001201A1
:100E8300384C43001201385C4300120138784300A8
:100E93001201387B4300120138354400120138FE39
:100EA3004400120138A44500120138034600120120
:100EB300388B4600120138F046001201387F470094
:100EC300120138484800120138E548001201386C15
:100ED3004900120138C34900120138244A001201A3
:100EE300385E4A001201380C4B00120138044D00E1
:100EF300120138544D00120138974D001201380C7D
:100F03004E00120138984E00120138E34E001201D0
:100F130038084F00120138594F001201387B4F0037
:100F2300120138C04F001201382F500012013871DE
:100F33005000120138715100120138F951001201A9
:100F430038CA5200120138E35200120138BCAE0213
:100F53001201380FAF021201381BAF02120138F031
:100F6300AF0212013817B00212013852B002120157
:100F730038BEB002120138F2B0021201382BB102AE
:100F830012013843B1021201389CB102120138B583
:100F9300B102120138FEB10212013811B20212017C
:100FA300382BB20212013841B2021201385DB3028A
:100FB3001201386EB402120138BBB502120138A017
:100FC300B602120138F57F00120138DD84031201E5
:100FD300384F88031201386789031201388F8D0255
:100FE30012013882930212013888930212013808E1
:100FF300960212013847F702120138F2F702120182
:1010030038A2F802120138C7F802120138BEFA02F8
:1010130012013811FC0212013848A4011201387C74
:10102300A401120138D0AC011201381CAE01120127
:101033003839AF01120138C3B001120138A5B1012B
:10104300120138DFB10112013802B2011201384432
:10105300B2011201388EB20112013898B2011201A5
:101063003844B30112013818B4011201386CB401C9
:10107300120138CEB40112013821B50112013850E2
:10108300B5011201388FB501120138377C00120106
:1010930038AD7C00120138C37C00120138007D009A
:1010A300120138387D00120138B57D00120138F085
:1010B3007D001201386B7E00120138A77E001201F9
:1010C30038B07E00120138BC7E00120138D67E0093
:1010D300120138FB7E00120138117F001201383AE9
:1010E3007F001201389D7F00120138A3E50212012F
:1010F30038B6E502120138D0E502120138F9E502EB
:101103001201383CE6021201387BE602120138B9BB
:10111300E6021201381EE70212013833E702120118
:10112300384AE70212013858E70212013867E7022A
:101133001201387CE70212013891E7021201389C50
:10114300E702120138A8E702120138B5E7021201DB
:1011530038C8E702120138D3E702120138F8E70270
:10116300120138A1E802120138B6E802120138CBA5
:10117300E802120138E5E80212013800E90212011F
:10118300381DE90212013828E902120138E4E902A4
:10119300120138D0EA02120138F5EA02120138FFCF
:1011A300EA0212013813EB0212013832EB02120188
:1011B3003893EB0212013899EB021201389FEB02CC
:1011C300120138A5EB02120138B1EB02120138E427
:1011D300EB02120138B19A02120138DD9A021201B0
:1011E30038C19B021201385B9E02120138719F02C3
:1011F3001201388EA00212013831A102120138D730
:10120300A1021201380580021201388780021201FF
:101213003830810212013878820212013886840242
:101223001201386C8502120138A18502120138C3FC
:1012330085021201386C86021201383C88021201C1
:1012430038658802120138DD88021201380F8902DD
:101253001201381C89021201386789021201388B86
:101263008902120138DC8B02120138E68C0212016A
:1012730038428D0212013869C5011201387AC6015C
:101283001201385EC70112013868C7011201388A9A
:10129300C70112013896C7011201383AC901120178
:1012A3003867C9011201387DCA01120138D2CA0157
:1012B30012013821CC01120138F6CC011201385247
:1012C300CD01120138BDCD01120138F2CD01120159
:1012D3003835CE01120138FFD00112013817D10180
:1012E300120138A8D101120138B6D1011201380315
:1012F300D20112013811D2011201387DD20112013B
:1013030038F8D2011201384FD301120138D8B7038C
:10131300120138FDB70312013873B803120138EC18
:10132300D702120138F5D702120138FED702120193
:1013330038D6D80212013887DA02120138B7DA0236
:10134300120138E2DA0212013812DB021201383DCF
:10135300DB0212013871DB021201389DDB0212013C
:1013630038E0DB021201380BDC0212013852DC02D6
:10137300120138A7DC02120138E9DC0212013843FA
:10138300DD021201386EDD02120138BDDD021201E9
:1013930038EDDD0212013818DE021201383BDE029D
:1013A300120138FEC8031201382AC9031201385743
:1013B300C90312013861C90312013871C90312014B
:1013C30038A1CA031201381DCB03120138E7CA033F
:1013D300120138CD7F00120138D8FF02E066701089
:1013E30008A3E066700A08A3E066700408A3E06639
:1013F30022C3E7960809E7960809E7960809E796DE
:1014030022C3E09608A3E09608A3E09608A3E0961B
:1014130022C008C3E096F50808A3E096420808A393
:10142300E096420808A3E09645087001D3D008224D
:10143300080808EAC0E0EBC0E086F0E7A4FA180960
:1014430086F0E7A42AFA180986F0E7A42AFA18090D
:1014530086F0E7A42AFA1986F0E7A4FBE5F02AFA56
:10146300190886F0E7A42BFBE5F03AFA190886F091
:10147300E7A42BFBE5F03AFA18180986F0E7A4C5B0
:10148300F02BFBE43AFA1908E7C5F0C6A426F6E503
:10149300F03BFBE43AFA1886F0E7A4F6E5F00826F9
:1014A300F6E43B08F6E43A08F6D0E0FBD0E0FA2293
:1014B300E4CFC0E0E4CEC0E0E4CDC0E0E4CCC0E0E3
:1014C30075F020C3E633F608E633F608E633F6088C
:1014D300E633F6181818EC33FCED33FDEE33FEEF6C
:1014E30033FFC3EC9709ED9709EE9709EF971919A5
:1014F30019400FFFEC97FC09ED97FD09EE97FE19D4
:101503001906D5F0BEECF709EDF709EEF709EFF789
:10151300191919D0E0FCD0E0FDD0E0FED0E0FF22A5
:101523006016080808C6C313C618C613C618C61320
:10153300C618C613C6D5E0EA227009080808226057
:1015430016181818C6C333C608C633C608C633C62A
:1015530008C633C6D5E0EA22E627F60809E637F6D9
:101563000809E637F60809E637F622E026F608A367
:10157300E036F608A3E036F608A3E036F622E026C6
:10158300F008A3E036F008A3E036F008A3E036F055
:1015930022C3E697F60809E697F60809E697F608E0
:1015A30009E697F622C3E096F008A3E096F008A3B5
:1015B300E096F008A3E096F022E657F60809E6570E
:1015C300F60809E657F60809E657F622E056F60844
:1015D300A3E056F608A3E056F608A3E056F622E089
:1015E30056F008A3E056F008A3E056F008A3E0562F
:1015F300F022E066F608A3E066F608A3E066F608C4
:10160300A3E066F622E0F608A3E0F608A3E0F608F6
:10161300A3E0F622E6F008A3E6F008A3E6F008A3A9
:10162300E6F022E0FAA3E0FBA3E0FCA3E0FD22EA5C
:10163300F0A3EBF0A3ECF0A3EDF022CAC0E0E6F0D8
:10164300A308DAFAD0E0FA22CAC0E0E0A3C582CC4C
:10165300C582C583CDC583F0A3C582CCC582C583AE
:10166300CDC583DAE6D0E0CA22C3E498F8E499F959
:101673001216AD8026C3E49AFAE49BFBE920E7E95E
:101683001216ADE498F8E499F922C3E498F8E499C2
:10169300F91216ADE498F8E499F9C3E49AFAE49BD5
:1016A300FB22EB20E7CFE920E7E0B90010BB0008FD
:1016B300E88AF084F8AAF022E4FBC8FA22EB70224D
:1016C3007B10C833C8C933C9335007C39AC3DBF28D
:1016D30080069A50012ADBEAC833F4C8C933F4C937
:1016E300FA2275F008E4C833C8C933C933C99AC9A3
:1016F3009B5004C92AC93BD5F0ECFBC833F4C8E4BA
:10170300C9FA22600D08C6A2E713C618C613C6D5C8
:10171300E0F322600C08C6C313C618C613C6D5E08F
:10172300F422700422600D18C6C333C608C633C63C
:10173300D5E0F41822251810AF08F5184002151942
:101743008008F51840021519D2AF22C0D025181011
:10175300AF08F518500205198008F518500205194D
:10176300D2AFD0D0222518F58210AF08F518400269
:1017730015198008F51840021519D2AF851983226F
:101783002518F582E43519F58322E4732518C582FB
:10179300C0E0E51934FFC583C0E0E518C395822492
:1017A300F810AF0885831985821880088583198509
:1017B3008218D2AFCEF0A3E520F0A37808E608F0B4
:1017C300A3DEFAEFF0A3E58124FAF8E608F0A3E636
:1017D30008F0A3E608F0A30808E608F0A3E608F07B
:1017E300A315811581D0E0FED0E0F8158115811590
:1017F30081E8C0E0EEC0E0222518C582C0E0E5190B
:1018030034FFC583C0E0E518C3958224F910AF08FF
:101813008583198582188008858319858218D2AF3C
:10182300CEF0A3E520F0A37808E608F0A3DEFAEFF4
:10183300F0A3E58124FBF8E608F0A3E608F0A3088B
:1018430008E608F0A3E608F0A315811581D0E0FEB1
:10185300D0E0F815811581E8C0E0EEC0E0228519DB
:1018630083851882E0A3FEE0A3F5207808E0A3F6C1
:1018730008DFFAE0A3FFE0A3C0E0E0A3C0E0E0A339
:10188300C0E0E0A3C0E0E0A3C0E010AF0885821889
:101893008583198008858218858319D2AFD083D0B8
:1018A30082020135851983851882E0A3FEE0A3F542
:1018B300207808E0A3F608DFFAE0A3FFE0A3C0E086
:1018C300E0A3C0E0E0A3C0E0E0A3C0E010AF088560
:1018D30082188583198008858218858319D2AFD031
:1018E30083D08222C0D02518C582C0E0E51934FF19
:1018F300C583C0E0E518C3958224F310AF08858340
:10190300198582188008858319858218D2AFC8F09B
:10191300A3E9F0A3EAF0A3EBF0A37908E709F0A3A6
:10192300D8FAECF0A3EDF0A3EEF0A3EFF0A3D0E030
:10193300F0A3D0E0F0A3D0E0F0A3E520F0A3E5F01E
:10194300F0A322851983851882E0C0E0A3E0F9A300
:10195300E0FAA3E0FBA37808E0F608A3DFFAE0FCD3
:10196300A3E0FDA3E0FEA3E0FFA3E0C0E0A3E0C08B
:10197300E0A3E0F5D0A3E0F520A3E0A3F5F010AFDA
:10198300088583198582188008858319858218D272
:10199300AFD082D083D0E0F8D0E0327404800674F4
:1019A3000280027401C0E0F404121768D0E012163A
:1019B3003E227404800474028000CCC0E0EDC0E0D9
:1019C300E518C39CCCAD1950011D10AF068C188DC2
:1019D3001980068C188D19D2AF12164BD0E0FDD0AA
:1019E300E0FC22D083D082E9C0E0E493A3C386F075
:1019F300C5F095F0F908E493A386F0C5F095F0706F
:101A03000BE493A3C3994005E9048002A3E475F0B2
:101A130002A42582F582E5F03583F583D0E0F9E46D
:101A230093A3C0E0E493C0E022D083D082ECC0E073
:101A3300EDC0E0E493A3FCE493A3FDED4C600D1231
:101A43001A78EC24FFFCED34FFFD80EFE493A3FC54
:101A5300E493A3FDED4C600D121AB7EC24FFFCEDEB
:101A630034FFFD80EFD0E0FDD0E0FCE493A3C0E0C1
:101A7300E493C0E022C0E0C3E49396087401939614
:101A830018400FE493667008087401936618700099
:101A93007019A3A3C3E49396087401939618A3A3A0
:101AA300400DD0E0D0E0D0E0021A68A3A3A3A3A323
:101AB300A3D0E022C0E0C0F088F0E4936670080889
:101AC30074019366187000A8F0A3A3700BD0F0D034
:0F1AD300E0D0E0D0E0021A68A3A3D0F0D0E02268
:101AE400C0E074F21218E7A2AFE433FED2AFE58986
:101AF400A2E15003120509758900C2C5751A00EEEA
:101B0400A2E092AF7F01021946C0E074F21218E716
:101B1400A2AFE433FED2AFE58BA2E0500312050975
:101B2400758B00C2E880D5C0E0C0D0E8C0E0E9C051
:101B3400E0E5A8D2AFC2C7751A00A2E7A2E792AF48
:101B4400D0E0F9D0E0F8D0D0D0E03274F51217FB31
:101B5400EAFEEBFFEE2434F8EF3400F98808890933
:101B6400EE2435121C87F8EE2437121C87F50AEC94
:101B7400850AF0A4FCAAF0850AF0EDA42AFDE82C5D
:101B8400F8E43DF97A257B001216ADEA85088285D2
:101B94000983F05407F87401B800028004C333D8F1
:101BA400FCC0E0E0131313541FF8EE28F8EF3400E0
:101BB400F9E8245DF582E93400F583D0E0F8E058D3
:101BC4006008850882850983801DEE2436121C87EF
:101BD400F5F0EA84A8F0EE28F8EF3400F9E82438A8
:101BE400F582E93400F583E0F97F040218A774F55F
:101BF4001217FBEAFEEBFFEE2434121C87C0E0EE62
:101C04002435F582EF3400F583D0E0F08E828F83A3
:101C1400A3A3A3A3A3E0FAA3E0FB8E828F83A3A3D1
:101C2400A3A3A3A3A3E0FCA3E0FDECC39AF50AEDF0
:101C34009BF50BEE2480F508EF3400F50985088246
:101C4400F583E06401702BEE2481F582EF3400F516
:101C5400831219B9121C90740212174EE960137C96
:101C6400687D0BEEFAEFFB120EE18508828509838D
:101C7400E4F0AC0AAD0BEEFAEFFB121B4F1222514B
:101C8400021BEDF582EF3400F583E022C082C083AD
:101C9400851882851983E0F8A3E0F9C3EA9CEB9DDB
:101CA4005012C3EC98ED994019C3EA98EB9950127D
:101CB40079018010C3EA98EB9940F5C3EC98ED994B
:101CC40050EE7900D083D08222000000851B8785E6
:101CD4001CC622C0E074EF1218E7759B0090618265
:101CE400E0A2E64003021D98E591A2E64003021D2E
:101CF400987591BF90081FE0640570081210BB121C
:101D040010C780031210C1751B00121139E9900825
:101D140020F0790012111B120E457A017B00900805
:101D24001EE0F9120281907803E064426003021D10
:101D3400E1900B9DE014F06003021DE1C2AF121D9F
:101D44004500781ED0E0F618D0E0F6E59F5407F978
:101D54007005909072800390906E7808121608E9CE
:101D6400C4C0E0781DE65508F50808E65509F509EC
:101D7400740B7808121716D0E02508F8906270E00A
:101D8400A2E740F8E8C333906272F0906270E0D248
:101D9400E0F08049E0A2E55024E591A2E5501E75EB
:101DA40091DF90081FE0640D7013900841E004F087
:101DB40064287002E4F07A00E0F91211C99061819C
:101DC400E0A2E35009E5E9A2E3500375E9F7A3E0D3
:101DD400A2E75009E591A2E7500375917F7F0402C1
:101DE4001946C0E0C0D0C082C083906183E0A2E005
:101DF4005009E5BFA2E0500375BFFEE0A2E150091F
:101E0400E5BFA2E1500375BFFDE0A2E25009E5BFC2
:101E1400A2E2500375BFFBE0A2E35009E5BFA2E3D1
:101E2400500375BFF7E0A2E45009E5BFA2E45003F4
:101E340075BFEFE0A2E55009E5BFA2E5500375BF09
:101E4400DFE0A2E65009E5BFA2E6500375BFBFD0AC
:101E540083D082D0D0D0E032C0E074F21218E7E52B
:101E6400A7A2E4500FE5A1A2E4500953A7EF75A17E
:101E7400EF121EB0E5A7A2E5500CE5A1A2E55006BD
:101E840053A7DF75A1DFE5A7A2E15009E5A1A2E10F
:101E9400500375A1FDE5A7A2E2500CE5A1A2E25012
:101EA4000653A7FB75A1FB7F0102194674F81217AC
:101EB400FB751B0190081FE0640670077A007B0025
:101EC4001210A3A2AFE433FED2AF900825E0640160
:101ED40070187A207B0090081EE0F91203057A201E
:101EE4007B0090081EE0F9120287906182E0D2E63E
:101EF400F0900B9CE0602185C61C8016900824E0BD
:101F040064017008E5C654F84405F5C653BEFC12D6
:101F14001CD07401651B60E4EEA2E092AF7F010265
:101F240018A774E91217FB74FA121738EAFEEBFFCC
:101F34008C088D0990081FE024F7C394055006907F
:101F440090DA02204D1210438A0A8B0BEA450B707B
:101F54000302204A1210D98A0C8B0D1210D9EA659B
:101F64000C7003EB650D60ECEEFCEFFD85188285CB
:101F74001983AA82AB831210DF850A82850B83A39F
:101F8400A3780C121608909106780C1215CF8518B8
:101F94008285198378141216089091067814121504
:101FA400CF780C79141213F4501F780C791412158D
:101FB40094909082780C1214144047850C10850D6F
:101FC40011850E12850F1380418514108515118516
:101FD40016128517137810790C1215949090827844
:101FE40010121414501C7510007511007512007530
:101FF4001301781079141215947810790C12155B6A
:1020040080089090DA781012160874097810121566
:102014003C9090AE780C1216087810790C1214B318
:1020240090081FE06408600AE064066005E0640547
:10203400701C90908A781012141450129090927818
:102044001012156E80089090DE781012160885081C
:10205400828509837810121617740612174E7F10A2
:102064000218A774F71217FB1210F1900B9AE06490
:10207400017010906245E4F0A3F053F4F343FE0CB6
:102084005390F3121091E5C654804449F5C6E59E79
:10209400547F644970F8906185740FF0900B98E058
:1020A400F47002A3E0602C750801750900900B9888
:1020B400E07808121725E508F4FAA3E06008146034
:1020C4000A14600C800DEA52808008EA5290800362
:1020D400EA52A079007F020218A774F71217FBE9ED
:1020E400FEEAFF74016E700C7A807B0090081EE09B
:1020F400F9120281902260E493F46008E493F912E7
:102104000E27800953C680E59E547F70FA121097FB
:10211400900B9AE064017003120E5D900B98E0F44A
:102124007002A3E0602A750801750900900B98E01D
:102134007808121725AA08A3E0600814600A14603E
:102144000C800DEA42808008EA42908003EA42A0B3
:102154001210438A088B09A808A909E8496017E501
:10216400E170FCE82414F582E93400F583E0F874A6
:10217400FF68600288E174016F700A7A0190081E9A
:10218400E0F91202D50220D974F11217FB8A088BE8
:10219400098C0A8D0B740F121783780C1216089091
:1021A400910678081215CF909106780C1215CF7805
:1021B40008790C1213F450157808790C12159490C0
:1021C40090827808121414401579018013780C79E0
:1021D40008121594909082780C12141440EB790034
:1021E4007F080218A774ED1217FB8A088B098C0A62
:1021F4008D0B7413121783780C12160890910678BD
:10220400081215CF909106780C1215CF780C790826
:102214001213F440117808790C121594AA08AB092A
:10222400AC0AAD0B80227510007511007512007593
:1022340013017810790C1215947810790812155B33
:10224400AA10AB11AC12AD137F0C0218A7C082C048
:0B22540083E9906000F0D083D082226C
:10226000FFFFFFFFFFFFFFFFC082C083E9901193D4
:10227000F0D083D08202013574F612178FE99006F0
:10228000EAF07C2A7D077AFF7BFF120B637A008AD3
:10229000087509007402780812172574EB2508F8F0
:1022A000740635091222C7A3F00AEAC3940340DF7B
:1022B0007905120AF19006EAE0F9120A197A7B7B95
:1022C0000B120D31023848F98882898374FF12227B
:1022D000D4E4F022F0A31236D5A32274F412178F9F
:1022E0008A088B09EB548060309006EAE0F912020C
:1022F000698A0A8B0BAE0AAF0BEE4F60138E828F8A
:1023000083E064B07003120B03EEFAEFFB12025786
:10231000AA08E5096480FB80047A007B000224A4FB
:1023200074F212178F74FC121738EAFEEBFF741266
:1023300012178312371EEE4F70030223C37402126A
:102340001783EEF0A3EF1226FFECF0A3ED1226FFA9
:10235000AA82AB83120A13E9F50A706AE5084509F7
:1023600060648E828F831236FFEE4F60567A067B52
:10237000001202BD8A0C8B0DA80CA90DE84970054E
:10238000750A13804188828983E41222D4EEF0A377
:10239000EF12372FE508F0A3E509F09006F81224B4
:1023A0009E9006F870051231BC801B1231AA800382
:1023B000EAFCEBFD8C828D8312249E70F38C828D5F
:1023C0008380E3750A02A90A740412174E023912B7
:1023D00074F212178F890AE975F045A4FEAFF090E8
:1023E00006F7E4F09006ED12249E60281202C379ED
:1023F0000089087509007402780812172574ED2504
:1024000008F58274063509F583E4F0A3F009E9C301
:10241000940340DDEEFAEFFB1202BD8A088B09EA55
:1024200045096075EEFCEFFD790012023F7D008DDD
:102430000C750D007402780C12172574ED250CF83C
:102440007406350DF9E50AF5F0EDA475F017A4FA58
:10245000ABF0E5082AFAE5093BFB88828983EAF0BC
:10246000A3EBF07E00801BEE75F017A4FAABF088AA
:10247000828983E02AFCA3E03B8C82F583E4F0A30D
:10248000F00EEEC3950A40DF0DEDC3940340A0E5C6
:102490000A9006F7F0790080027913023912122EA1
:1024A0004EEA4B227F0402186174F412178F7900F0
:1024B000EAA2E0501B75084275099078081219A22B
:1024C0007C047D007A957B11120AEB740212174E80
:1024D00080D2C082C0839006F812371949601C88E8
:1024E000828983A3A3E06A7003A3E06B8882898357
:1024F00070E7A3A3A3A3122E4A80047A007B0002F4
:10250000227174EE12178F74FC121738EAFEEBFF7B
:10251000851882851983E4F0A3F0EE240212319C21
:10252000EE24051236DCEE2404F50EEF122AA9E0A3
:1025300024FE603924FC604624FE605224FE605E66
:1025400024FE700302261524FE700302267924FE61
:10255000700302268824FE700302269724FC700371
:102560000226A624FE70030226B50226F290071169
:102570007417F0A3E412270712067D0226F28518CD
:1025800082851983AC82AD83120B090226C285189D
:1025900082851983AC82AD83120B0F0226C2850C93
:1025A00008850D097402121783AC82AD83850882F9
:1025B000850983122E4A120A378A0C8B0DAC0CAD9A
:1025C0000DEC4D603BE4F50CF50D780C1219A2757D
:1025D0000C11750D07780C1219A2750C12750D07E8
:1025E000780C1219A274081217831219B9123A1C26
:1025F00012174EE9F50C700B122E40120695800F43
:10260000750C018508828509831226F51231BC8577
:102610000C080226C57402121783AC82AD83850CA8
:1026200082850D83122BFC603C850C82850D83A373
:10263000A31219B975101175110778101219A27526
:10264000101275110778101219A27408121783124C
:1026500019B9123A1C12174EE9F509700B122E40E7
:1026600012069B800F750901850C82850D83122649
:10267000F51231BC850908804C851882851983AC18
:1026800082AD83120B15803A851882851983AC823E
:10269000AD83120B1B802B851882851983AC82AD0C
:1026A00083120B21801C851882851983AC82AD832F
:1026B000120B27800D851882851983AC82AD831299
:1026C0000B2DE9F508E50860298E828F83A3E0646D
:1026D00014601F850E82850F83E09007111226FF7C
:1026E0001239F49007121231BCE508A31227071221
:1026F00006770230AB1239F885188285198322F0EB
:1027000085188285198322F07C117D07850A8285D0
:102710000B83122E4E2274EE12178F74FC12173890
:102720008A0A8B0B8C0E8D0FEA2405F508EB34001A
:10273000F5097C157D0079007A117B0712023FE5CF
:10274000082402F50CE5091236DF85188285198305
:1027500085821085831178101219A2850882850957
:1027600083A3A3A3A3122BF31219A2E5082405F552
:1027700010E5093400F51178101219A2850C828534
:102780000D83122F61120A31740612174E8A108BB4
:1027900011AE10AF11E50A2402F50AE50B12319FC4
:1027A000EE4F70030228D480177402121783122E82
:1027B0004A88828983EAF0A3EBF0900711E004F0E5
:1027C000900711E0C3940540030228D4E4F510F506
:1027D0001178101219A27510FA75110678101219D5
:1027E000A27510FB75110678101219A27406121743
:1027F000831219B97910EEFCEFFD123A1E12174E32
:10280000E9705E850882850983A3A3A3A3A3A3A37C
:10281000E0F89006FAE0687048122BF31219A27CD7
:10282000FB7D06E5082408FAE5093400FB120239AD
:10283000740212174EE960298E828F83A3A3A3A38B
:10284000122E4A900711E0F5107402781012172525
:1028500074122510F58274073511F583EAF0A3EBA5
:10286000F074021217838582108583117810121973
:10287000A274021217831219B9850C82850D831276
:102880002E7012174E8A108B11AE10AF11900711D7
:10289000E0F51075110074027810121725741125D7
:1028A00010F874073511F988828983A312249E7069
:1028B000030227A0E82403080808E93400F9EE4FD2
:1028C00060030227A98882898374FFF0A3F0900730
:1028D00011E004F0900711E0600A122E4012068900
:1028E0007900800B8508828509831231B3790A0249
:1028F00030AB74EA12178F74FE1217388C128D13D6
:10290000EA2405F50CEB123A061237037508007538
:102910000900EA2402F510EB3400F51185188285D0
:10292000198385820A85830B780A1219A2850C8285
:10293000850D83A3A3A3A3122ABF1219A2E50C2419
:1029400005F50AE50D12319F780A1219A2850C824D
:10295000850D83122AC3120A31740612174E8A0A91
:102960008B0BEA450B7003022A74EA2404F50EEB84
:10297000122AA91237038A828B83A3A3A3E0F985C5
:102980001082851183122E546003022A74E4F51418
:10299000F51578141219A27514FA75150678141223
:1029A00019A27514FB75150678141219A274061273
:1029B00017831219B97913AC0AAD0B8510828511F2
:1029C00083123A2412174EE9F5096003022A749023
:1029D00006FAE0F8E5087009E02402900712F0809A
:1029E00017900712E0FCE82402FAE43400FBEA6CDA
:1029F0007001EB6003022A78850882AA82122BEA12
:102A00009414122BE2506D850E82850F83E0C0E096
:102A1000122E1AD0E0F00508850E82850F83A3E000
:102A2000C0E085080A7413250AF58274073400F59E
:102A300083D0E0F005089006FA122ABF1219A27C92
:102A4000FB7D0685080A7413250A122AB312174E55
:102A50009006FAE02508F50874FF6E700374FF6FA6
:102A60006012EE24010EEF3400FFE508C394145009
:102A70000302291CE5086013122E5E851082851161
:102A800083122E4A12068F79008014E509700375AF
:102A9000090A851282851383EEF0A3EFF0A9097469
:102AA0000212174E7F0E0218613400F50F850E8258
:102AB000F58322FA74073400FB12022774022212F3
:102AC000373E22A3A3122AC9221231AAFDEEFAEF41
:102AD000FB2274EE12178F74FE1217388C0E8D0FB6
:102AE000EA2405F50CEB1236DF750B00900711E4B4
:102AF000F0F50AEA2402F508EB3400F50980449069
:102B00000711E0FA9006FAE0F8122BEA9417122B5C
:102B1000E2400D900711E0F87416C3989006FAF0A1
:102B2000122BF31219A27CFB7D0674122AFA740789
:102B3000122AB612174E9006FAE0F8900711E02814
:102B4000F0050AE50C2416F582E50D3400F583E066
:102B5000F8E50AC3985074900711E0C39416506BBF
:102B6000E50AC333F8E433F9E50C28FEE50D39FF37
:102B7000851882851983AC82AD838E828F83122B58
:102B8000FC7008750B011231AF8050E4F510F5119F
:102B900078101219A27510FA75110678101219A280
:102BA0007510FB75110678101219A274061217839E
:102BB0001219B97916850882850983123A241217E9
:102BC0004EE9F50B7003022AFF80BB7C117D07855F
:102BD0000882850983122E4A1206A1A90B740202EB
:102BE00030ADE99400C365D03322EA28F8E434001C
:102BF000F9E822E0F5107511007810221230A28A4F
:102C0000108B11AC10AD11EC4D2274EA12178F74B9
:102C1000FC1217388A0C8B0D8C128D13EA2405F5E3
:102C20000AEB12319F750800750900E50A2402F5C8
:102C300010E50B3400F511740212178385820E859E
:102C4000830F780E1219A2850A82850B83A3A3A392
:102C5000A31236E41219A2E50A2405F50EE50B3499
:102C600000F50F780E1219A285108285118312319A
:102C7000A5122E44120A31740612174E8A0E8B0FBB
:102C8000AE0EAF0FE50C2402F50EE50D3400F50F86
:102C900080388882898374FFF00508122E2674FF1D
:102CA000F005089006FAE0F50C750D00780C121985
:102CB000A27CFB7D0685080C7413250C122AB31226
:102CC000174E9006FAE02508F508EE4F60278E8231
:102CD0008F83A3A3A3E0F9850E82850F83122E5460
:102CE000EE24041236DCE96027850C82850D831200
:102CF0002E361231BCE5087003022E00122E5E85BE
:102D00000E82850F83122E4A1206A77900022E1515
:102D1000E4F514F51578141219A27514FA75150650
:102D200078141219A27514FB75150678141219A2DD
:102D300074081217831219B97911EEFCEFFD850E94
:102D400082850F83123A2412174EE9F509709A858D
:102D50000882AA82EA9006FA7009E0240490071219
:102D6000F08025E0F8900712E0F514E82404FCE474
:102D70003400FDEC65147001ED7081122BEA9412A1
:102D8000122BE24003022CFC850C82850D83E0C0EF
:102D9000E0122E1AD0E0F00508850C82850D83A381
:102DA000E0C0E0122E26D0E0122E7985820C8583B9
:102DB0000D780C1219A274041217831219B9851018
:102DC00082851183122E7012174E8A0C8B0DAE0C59
:102DD000AF0D85080C7413250CF874073400F9EE58
:102DE0004F7003022C92851882851983E0888289AE
:102DF00083122E79A3E0C0E0122E26D0E0022CA090
:102E0000E509700375090A850A82850B83122E363F
:102E10001231BCA9097404022AA174132AF5827420
:102E2000073400F5832285080C7413250CF5827491
:102E3000073400F583221239F88512828513832224
:102E40007C117D07850A82850B83122E4E22E0FAC3
:102E5000A3E0FB22122E4E120A1FE9F50922900769
:102E600012E0F5F0E50884900711F07C117D07224F
:102E7000122AC9120A3D740422F0050885188285B9
:102E800019832274EC12178F74FE1217388A088B7C
:102E9000098C0E8D0FEA2405FEEB3400FF12308CF6
:102EA000EE24181236DCEA450B7003022F2F123085
:102EB000755029122F548A108B11EA4511606B79D5
:102EC00012AC0AAD0B850882850983122E4A851043
:102ED0008285118312178DE9F50A7058E4F50AF519
:102EE0000B780A1219A28E828F83A3A3E0F50A78C9
:102EF0000A1219A2EE240312319C780A1219A28E2A
:102F0000828F83122F61120B51740612174EE9F54E
:102F10000A7021850C82850D83E0701F85088285EB
:102F20000983122E4A1206AD8011750A0E800975AA
:102F30000A018004E50A60031231AF850C82850D19
:102F400083E0600479008002A90A740212174E7FA0
:102F50000C021861851882851983122E4E120B3FC0
:102F6000221231AAFD850882850983122E4E227411
:102F7000EE12178F74FE1217388A088B098C0C8D8D
:102F80000DEA2405FEEB3400FF750E0012308CEACA
:102F9000450B7003023053123075502C122F548A97
:102FA0000E8B0FEA450F604A7912AC0AAD0B85080B
:102FB00082850983122E4A850E82850F8312178D12
:102FC000E9F50E60030230568508828509831232C6
:102FD000B6AA0AFB12306770147AFF7BFF123067C3
:102FE000606C88828983E50AF0A3E50BF0750A001E
:102FF0008007750E0E805F050A9006F7E0FAE50A75
:10300000C39A504AE50A75F017A4FAABF088828992
:1030100083A3A3E02AFAA3E03BFB8A828B831231CD
:10302000A5EC4D70D2750A17750B00780A1219A21B
:10303000EEFCEFFD120227740212174EEEFCEFFDBC
:10304000850882850983122E4A1206B38014750EF4
:10305000098003750E011239F0850C82850D8312EB
:1030600031BCA90E022BDD120B338A108B11A81074
:10307000A911E84922E5082402F508E5093400F51C
:10308000098A828B83A3A3A3E0A2E5228518828507
:103090001983AC82AD838E828F831230A28A0A8B11
:1030A0000B22E0FAA3E0FB120A3722740412174E37
:1030B0007F0A02186174EC12178F8C108D11EA24AC
:1030C00005F50CEB1236DF750F00EA2402F50AEB6A
:1030D00012319F850A82F583122E4A123AAB700391
:1030E000023191750E008071850C82850D83E0643C
:1030F00001704F8E828F83A3A31219B98E828F83A2
:10310000A3A3A3A3E0F51275130078121219A2EE7F
:103110002405F512EF3400F51378121219A2122EBD
:1031200044120B51740612174EE9F50F6014850C0A
:1031300082850D83E4F01239F085108285118312A7
:1031400031BC7C177D007900EEFAEFFB12023F8E56
:10315000828F83E4F0A3F0050E9006F7E0F8E50E09
:10316000C398501EE50E75F017A4F8A9F0850882E3
:10317000850983A3A3123A101231A5EC4D60030216
:1031800030E885088285098374FFF0A3F0E50F70AD
:1031900006122E441206B9A90F022F4FF50AEF347A
:1031A00000F50B22A31231AAFD22E0FCA3E0228E3F
:1031B000828F831239F8850E82850F83E8F0A3E9A8
:1031C000F02274F612178F7C008C087509007402C7
:1031D00078081217251231F46A7003A3E06B7006A9
:1031E000E8FAE9FB800B0CECC3940340DC7A007B2B
:1031F0000002384874EB2508F874063509F988820E
:103200008983E02274F712178F7F00EF75F003A413
:10321000F8A9F0EC28F8ED39F988828983E06A7022
:1032200003A3E06B7006E8FAE9FB800B0FEFC39491
:103230000440D87A007B007F0102186174F61217EF
:103240008F1237ED70067A007B008007A3A3A3A33B
:10325000122E4A02384874F212178FE9FE740E12C9
:1032600017831232B6741012178312371E8C828D98
:1032700083E06402703BA31239F488828983E0F50D
:103280000CA3E0F9A80C740268700374296970211A
:10329000750C02750D00780C1219A278081219A28B
:1032A000780A1219A2EEF9120B75740612174E80E5
:1032B000027901023912E0F50AA3E0F50B2274E865
:1032C00012178F74FB121738E9851882851983F05D
:1032D0008A168B178C0E8D0F741F12178312371ED0
:1032E00074211217831232B6742312178312370314
:1032F0007510008C828D83A3A3A3E0A2E4502A74EE
:103300001D121783122F5A8A828B83E582458370A0
:10331000030233CA790AAC0EAD0FAA16AB17121707
:103320008DE9F51060030233CD850E82850F83E0B1
:1033300064026003023683A31239F485088285098A
:1033400083A3858212858313E50E2406F50CE50F11
:103350001236DF88828983E0FAA3E0F9EA2400F5D7
:1033600014E439F5157814121A2C010000280128EC
:1033700092330700022869340328D9330029933592
:103380000129BB35022962350329933504292436E6
:103390008336EE4F703E850C82850D83123719FA05
:1033A000E9FB8A828B83E0850A82850B831237359D
:1033B0001219A28A828B83A31231AAFDAA08AB0933
:1033C000120227740212174E800375100EA9107492
:1033D000050239FE75100B80F4EE4F70F7850A82F6
:1033E000850B837401F0123709850882850983F003
:1033F0007C007D00850E82850F83A3A3A3A3E02418
:1034000001FAA3E03400FB120A37EA4B60418A82DA
:103410008B83E02402F8850A82850B83E028F0EA9A
:103420002404F8EB3400F988828983E085128285D0
:1034300013831237471237351219A28A828B8312EF
:1034400031A4E5082403FAE5093400FB0233C08502
:103450000A82850B83E02404F07C047D007900AAB5
:1034600012AB1312023F0233CDEE4F60030233D48E
:10347000123709FEA3E0FF850A82850B837404F0EE
:10348000EE850882850983F0EF851282851383F02B
:103490007403121783AC82AD83EEFAEFFB1237DBB5
:1034A000700302353F8A828B83A3A31236FF740117
:1034B00012178385820E85830F780E1219A2740568
:1034C0001217831219B97CFF7DFF120A3D74041292
:1034D000174E8B0FEA450F7033850C82850D8312D2
:1034E00036E41219A2850C82850D83A31219B97CCA
:1034F000027D007A2E7B911207AF740412174EE9F9
:10350000700A740112178374FFF0A3F08E828F8308
:10351000E064027034750C02750D00780C1219A26B
:103520008E828F831231A4E5082404FAE509122A59
:10353000B612174E850A82850B83E0240280097437
:1035400001121783EEF0A3EFF07401121783123605
:10355000F5F07401121783A31236EDA3A3A3F002B2
:1035600033CDEE4F60030233D4850C82850D831278
:1035700031A5AA16AB17120B69850A82850B8374D5
:1035800002F0EA850882850983F08512828513831B
:10359000EB80CBEE4F60030233D4123709F8A3E07F
:1035A000F9850A82850B837402F0E8850882850913
:1035B00083F0E985128285138380A3850C82850DB3
:1035C00083122E4A120221EAFC8C82A882C39EE456
:1035D0009F404BE86E7001EF70047C00801F8518DF
:1035E00082851983E0FAEE2AFAEF3400FBC3EA98E9
:1035F000EB94005003E08004EECCC39CFCEC850A05
:1036000082850B83F08C0A750B00780A1219A2854B
:103610000C82850D83E02EFCA3E03F0233BB7510C6
:10362000070233CDEE4F60030233D4850C82850D43
:10363000831239F4850A82850B837407F0888289A6
:10364000831236ED1236D5E0851282851383F0E8B9
:103650002402FAE93400FB8A828B831236ED12379A
:10366000261236F5A312372F1236F9F0E82405F8A2
:10367000E93400F9888289831236F9A3123747A307
:1036800002355B741D1217831237E670030233CACA
:103690001239F4880C890DE8450D70030233CA8E87
:1036A000108F1178101219A2780A1219A278081234
:1036B00019A27406121783E0F9AC0EAD0FAA16AB6F
:1036C00017850C82850D8312178D740612174EE92B
:1036D000F5100233CDF088828983A322F50CEF34F4
:1036E00000F50D22E0F50E750F00780E22E085083A
:1036F000828509832212374E2212374EA3A322A3BA
:10370000A3A3A3E0FEA3E0FF22850C82850D83E046
:10371000F8A3E0F5838882E0221239F8E822E0F588
:1037200008A3E0F50922A3A3F08A828B83A32212C7
:1037300022D6A3A322F08A828B8312373E22E0F5A1
:103740000A750B00780A221236D512374E22E08510
:103750000882850983A3A32274EE12178F74FE12C8
:1037600017388A0A8B0BECFAEDFB7414121783E0FE
:10377000F510A3E0F5117416121783E0FE74181209
:103780001783E0F50EA3E0F50F851882851983AC49
:1037900082AD831237DB603E85188285198312372C
:1037A000E6602FA3A312371EE50845096024780EB2
:1037B0001219A278101219A2EEF9AC0CAD0DAA0ADA
:1037C000AB0B85088285098312178D740412174E7E
:1037D0008006790E80027901022BDD120A378A0CED
:1037E0008B0DEA450D22122E4E1237ED22120AFDE4
:1037F0008A828B83E58245832274F612178F74FECA
:10380000121738740C12178312371985188285190C
:1038100083F07401121783E9F0E4F508F5097808DC
:103820001219A275080278081219A27404121783DB
:1038300085820885830978081219A2120B51740633
:1038400012174E740212174E7F0202186174F7129B
:10385000178FEAFEEBFF89087C2A7D07120B69EAC5
:103860005402600BA908EEFAEFFB120A2B800279D2
:103870000102323774F612178F74FF6A700374FFF7
:103880006B701B7B00EB75F003A4F8A9F0EC28F833
:10389000ED391222C70BEBC39404501480E7120BCE
:1038A000398A088B09A808A909E84960031222C8C7
:1038B000809674F612178F120B398A828B83E582F9
:1038C00045836006A3A3E0FA80027A007B000238F9
:1038D0004874F212178F8A088B09ECFEEDFF740E04
:1038E000121783E0F50A123917701CEEFCEFFD7A0F
:1038F000FF7BFF1239177004791180168882898343
:10390000E508F0A3E509F088828983A3A3E50AF01E
:1039100079007F06021861120B398A0C8B0DA80CF6
:10392000A90DE8492274EE12178FEAFEEBFF8C080E
:103930008D09890C74121217831239F4741412173A
:10394000831231A57416121783122E4A750D00ECDE
:103950004D60030239E87402650C60030239E388A4
:103960008289831231AAF9EC2400F50EE439F50FAF
:10397000EAF4F8EBF4F9EC58F8E50F59F9E8497076
:103980005DE5082406F8E5093400F9880A890B8802
:1039900082F583122AC5120B698A108B11E50E6518
:1039A000107004E50F65116042780E1219A2850AA5
:1039B00082850B83122AC5120B6F740212174EE90F
:1039C000F50D7027780E1219A2850882850983A348
:1039D000A3122AC3120B81740212174E800D750DAB
:1039E000808008750D0D8003750D0BA90D0230B098
:1039F0008E828F831239F822E0F8A3E0F9221217A1
:103A00004E7F100218613400F50D850C82F583227B
:103A1000E028FEA3E039FF8E828F83227916850A83
:103A200082850B83122E4E120B4B74082274F212F5
:103A3000178FEAFEEBFF890B7401650B600E7402B1
:103A4000650B70647901120D4FE9705CEEFAEFFBC3
:103A5000123AAB6048750A00800B7C177D00790034
:103A600012023F050A9006F7E0F8E50AC3985022D3
:103A7000E50A75F017A4F8A9F0850882850983A3E3
:103A8000A3E028FAA3E039FB8A828B831237194915
:103A900070C885088285098374FFF0A3F07C2A7DB5
:103AA00007EEFAEFFB120B63023912120B338A088E
:103AB0008B09EA45092274F212178F8A088B09ECE8
:103AC000FEEDFF740E1217831232B6901193E0F4DC
:103AD000603D7A097B00120251EA4B60328A828B88
:103AE0008374B1F0A3E4123728A3123726A3E508A4
:103AF000F0A3E509123B12EEF0A3EF123B12A3A3D1
:103B0000E50AF0A3E50BF0901193E0F912025D02D3
:103B10003912F08A828B83A3A3A3A3A322C082C0FD
:103B2000839061907404F0A37448F0A3E4F0906172
:103B3000807440F09061BC7407F09061877469F004
:103B40009061B67416F07900120E4B7902120E5184
:103B5000902260E493F46006E493F9120E2779054D
:103B60001211AB023F83C082C083E9540FF9906108
:103B700085E0696012E5C654804449F5C6E59E5467
:103B80007F644970F8E9F053C680E59E547F70FA6F
:103B9000023F8374F712178FE5A8FE53A87E120E1A
:103BA00033C2BA539AFEC289759B00C2C2120E3943
:103BB00075A91175B905120E3FD2BA439A017480E6
:103BC0005E42A8024E86C082C083906181E4F0A369
:103BD000F0A3F0023F8375E90075910075BF000204
:103BE0000135C082C083906181E4F0A374C0F0A36A
:103BF000E480DFC082C08374F81217389008211265
:103C000045F9E8497003023CAA900821E05440605D
:103C1000237908851882851983AA82AB83120F59EC
:103C2000851882851983AA82AB83120BED90082137
:103C3000E054BFF0E054806010790C7ABE7B0B1228
:103C40000F59900821E0547FF0E0A2E0500879007D
:103C5000123CB254FEF0E0540260087901123CB20A
:103C600054FDF0E0540460087900123CBD54FBF0B0
:103C7000E0540860087901123CBD54F7F0E054109C
:103C800060087902123CBD54EFF0E05420600879DE
:103C900003123CBD54DFF0A3E05401600D120E5D31
:103CA000120BFF900822E054FEF0740812174E0227
:103CB0003F83120E4B120BF3900821E022120E519B
:103CC000120BF9900821E022C082C083E96005143C
:103CD000602A804F90619A7433F0A37455F090611C
:103CE000A0743AF0900B9AE064017009C2919008B8
:103CF000237467802D9008237461802690619A74E4
:103D00003FF0A3745AF09061A0747FF0900B9AE09A
:103D100064017009D2919008237471800590082382
:103D2000746AF0023F83C082C083E9600B14600DA7
:103D300014600F1460118020902264801590226519
:103D40008010902266800B900B9AE0640160F390E3
:103D50002267E493906186F0023F8374EE12178F1E
:103D600074F4121738851882851983AC82AD837577
:103D70008391758212740412164B90226493F4603E
:103D800003023EED907808E0C394025003023ECD5A
:103D90007404121783AC82AD8375838F7582E774C8
:103DA0000812164BF97AFF7BFF7FFF7E0089828520
:103DB0008210801874086E7003023E8274096E705F
:103DC00003023E82740A6E7003023E82E510C33322
:103DD000FCE433FD7404121783E5822CF582E5833D
:103DE0003DF583E0F50EA3E0F50F8E08750900742C
:103DF00002780812172574482508FC74783509FDE7
:103E00008C828D837808121608740878081215239E
:103E100085080C85090D8C828D837808121608742C
:103E2000187808121523E50C4508F508E50DF50985
:103E3000C3E50E9508E50F95098C828D83780812ED
:103E400016088C828D83780812160874187808403A
:103E500014121523E50C4508FCAD0DE50EC39CFCC2
:103E6000E50F9D800F121523E50C4508C3950EFC48
:103E7000E50D950FFDC3EC9AED9B5006ECFAEDFBBA
:103E8000EEFF0EEEC394135003023DB474FF6A704C
:103E90000374FF6B602D8F08740278081217257465
:103EA00048124B0774783509F5837808121608858F
:103EB0001882851983E5822510F582E583124A452B
:103EC000E508F009E9C394045003023DA575080113
:103ED00075090078081219A27402121783AC82AD1A
:103EE000837A997B081204DF740212174E740C1245
:103EF000174E7F0A021861C082C083906186E0F885
:103F0000902267E493687009902266E4939061863A
:103F1000F09061AE7468F0A3746AF090624574FB2F
:103F2000F0A304F053F4FD43FE02900B9A7401F0E9
:103F30009061A0E0643A7004790080027901120E69
:103F40004B023F837F04021861C082C083900B78CC
:103F5000E064017017900B7EE0F87401686009E876
:103F6000700AA3E064017004790C8012900B8FE05A
:103F700064017008900B95E0640160EC79008003A7
:103F80001240E0D083D082020135124651940622BD
:103F9000E0C4333354C022C082C083900B827425A6
:103FA000F0900B807401F0A3E4F07A01FB1211276A
:103FB000900B6EE02416123FE47481F0A3740EF0AF
:103FC000900B7FE064017016900B7EE07010790119
:103FD0001211871211571211817900121193023FA9
:103FE00083E02414F8A3E0123FEB223400F9888226
:103FF00089832274F612178F74FA121738900B7790
:10400000E064017008120E69900B77E4F075E1F13D
:10401000900B6EE02415123FE47401F0900B79E0F0
:1040200064017053909048C082851882851983ACD2
:1040300082AD83758390D082740612164B75D90DAC
:10404000900B70123F904403F5D978008808747182
:10405000124B07740B123F8A40F2780088088518CB
:1040600082851983E582124B07E583123F8A40EC73
:1040700075E19579018002790012112D9011B51228
:1040800040E674FBF0A3740FF0A31240E61240E682
:104090001242457401F0A3741012425A900B70E062
:1040A000F97A717B0B121109900B821240E07901B1
:1040B00012113390910E12162612114B9090FE128F
:1040C0001626121115790012119F900B6E123FE106
:1040D0007416F090081F7405F00412174E0246E2A1
:1040E000E0F91222512274F5F0A3740FF0A32274A8
:1040F000F412178F8908A808124229900B87E0F95B
:104100007A887B0B121109900B95E0701A790012D6
:104110001169900B61E0700B79007A627B0B1211D0
:104120000F8009790180F3790112116975E1F17548
:10413000D923900B87123F904405F5D97800880A5F
:104140007488250AF582740B123F8A40F175D900F4
:1041500075D90075D90075D90075D90075D9007A5F
:10416000001252B5242212457440F67A001252B55C
:104170002426F582E91246EA0AEAC3940340EEEEE9
:10418000242B1246E77A001252B5242C12457A40AD
:10419000F67A001252B5242E12457A40F67A0012B1
:1041A00052B5243012457A40F67A001252B52432C4
:1041B00012457A40F67A008A0AEE250AF8EF124A8A
:1041C000F5124587940540EFEE2437124D47541FF2
:1041D000F8EE242A124D47C43354E048F5D975E16E
:1041E000959011B574CBF0A3740FF0A374D1F0A324
:1041F000740F12423C74D7F0A3740F12425A900B02
:10420000941240E090910E12162612114B9090FEDF
:1042100012162612111590600DE4F0790112119F0B
:1042200090081F7406F0023F44E875F006A4C8AA7F
:10423000F02AF9744F28FE740839FF22F0A31242C5
:1042400045124245221242492274C5F0A3740FF070
:10425000A374C5F0A3740FF0A32212425E22F09063
:1042600011C312426AA312426A2212424974C5F073
:10427000A3740FF02274EC12178F900B85124DFD72
:104280007810121608900B96E0FAF875F006A4C89C
:10429000ACF02CF9747D28F582740839F583E0FEC2
:1042A000A3E0FFEEC333FEEF33FF8E0CF50D750E6A
:1042B00000750F0085100885110985120A85130BFA
:1042C0009090B2780812156E780812199E85100821
:1042D00085110985120A85130B7808790C12155B74
:1042E0007810790C1214B3E4F50EF50F7808790CF8
:1042F0001215948A0C750D007403780C121725782A
:1043000008790C12155B90910678081215CFAA084F
:10431000AB09AC0AAD0B1221E9740412174E8A08DE
:104320008B09A808A909C3EE98EF995006E82EF862
:10433000E93FF9E890600EF0E9A3F0EEA3F0EFA3F7
:10434000F090600D74C1F07F0C021861C082C083D0
:10435000900B6E12436C900B82023F80C082C08330
:10436000900B8512436C900B94023F80124E01A378
:10437000A3A3A3E4F0A3F02202013574F212178F75
:104380001244C6F50AEF12483D60047804800278B2
:1043900000E8240EF8EAC398500302442475080C80
:1043A000900B9EE4F0EE2477124D47900B9FF0792E
:1043B00002EE2478FCEF3400FD7AA07B0B120F474D
:1043C0007902EE247A124429247C124429247EFCAA
:1043D000EF3400FD120F47EE24751244DC850A828B
:1043E000850B83E0601675089E75090B7808121915
:1043F000A27C0C12495112174E7508107401250841
:10440000F5D975D90378008009880A749E250A12A7
:1044100044BBE8C3950840F175E195790412115148
:10442000790180027900024AF0FCEF3400FD120F9E
:10443000477902EE2274F212178F1244C6F508EF84
:104440003400F509850882F583E060047804800271
:104450007800E8240AF8EAC3984055750A08900BDA
:104460009E7401F079057C687D0B7A9F7B0B120F9F
:1044700047EE24811244DC850882850983E06016BA
:1044800075089E75090B78081219A27C081249510B
:1044900012174E750A0C12474480031244B5E8C344
:1044A000950A40F775E1957904121151790180025E
:1044B0007900024AF08808749E2508F582740B1270
:1044C0004D4EF5D908221244CA22EAFEEBFF906154
:1044D000D0E0F87480C398FAEE248322FCEF340015
:1044E000FD8E828F83A3A3A3A3A31245FD8C828D8F
:1044F00083E028F0A3E039F07902120F472274F626
:1045000012178FEAFEEBFF9061D0E0706275D91848
:1045100075D90375D9037A008A08EE25081252BAB4
:10452000249C12459E40F17A008A08EE250812521A
:10453000BA24A412457A40F17A008A08EE250812BE
:1045400052BA249412459E40F17A008A08EE25085A
:104550001252BA248812457440F175E1957908EE3B
:104560002494124597248812458E12466980027958
:10457000000246E2124580940422124580940222F1
:10458000F582E93400F583E0F5D90AEAC322FAEFAF
:104590003400FB120F4D2212458E7904EE22124593
:1045A0008094082274F612178FEAFEEBFF900B9EA0
:1045B000740612465C1219A27C0179031249571243
:1045C000174E75D90675D903780012464140FB7520
:1045D000E19590081FE064087017EE2470F582EFF3
:1045E0001245F6EE2472F582EF124A45E8F0A3E98F
:1045F000F079010246E2124B021245FD22E0F8A3D7
:10460000E0F92274F612178FEAFEEBFF9061D0E01A
:10461000702A900B9E740A12465C1219A27C0179D2
:104620000312495712174E75D90675D9037800122F
:10463000464140FB75E19512466E800279000246C4
:10464000E28808749E2508F582740B124651940581
:10465000223400F583E0F5D908E8C322F075089EFE
:1046600075090B78082275E1957904121151EE2431
:1046700070F582EF124B021245FDEE2472F582EFC7
:10468000124B02E8F0A3E9F079012274F612178FB9
:10469000EAFEEBFF9061D0E070437901900B9E74CD
:1046A0000BF090081FE06407701775089E75090BE2
:1046B00078081219A27C01090912495712174E797C
:1046C00005740129F5D975D903780080031244B522
:1046D000E8C39940F875E19512466E800279008032
:1046E00001F07F02021861F582EF124D4EF5D922DA
:1046F00074F512178F1247736004780480027800F3
:10470000E8240BF8EAC3984036750A09900B9E74AA
:1047100008F0F912475C601475089E75090B78085B
:104720001219A212494F12174E750A0D12474480F2
:10473000031244B5E8C3950A40F712466680027931
:10474000000249BE7401250AF5D975D90378002203
:10475000EE241DF582EF124A57A3F022EE24E5FC69
:10476000EF3400FD7A9F7B0B120F47850882850985
:1047700083E0221244CAF8EF124ED1F583E022748E
:10478000F312178F8A088B09124962FAE50824830D
:10479000F50AEB12483D6004780480027800E824B2
:1047A00008F8EAC3985003024836750C06900B9E31
:1047B000740CF090083CE0900B9FF07402C0E0F99C
:1047C0007C3D7D087AA07B0B120F47D0E0F97C3F3F
:1047D0007D08120F47850A82850B83E0601C750AED
:1047E0009E750B0B780A1219A27C067903AA08ABF6
:1047F0000912495712174E750C0A7401250CF5D988
:1048000075D90378008009880A749E250A1244BB72
:10481000E8C3950C40F175E1957904121151E50852
:104820002470F582E5091245F6E5082472F582E563
:1048300009124680800279007F050218613400F574
:104840000B850A82F583E02274F612178FEAFEEBDD
:10485000FF124962FCEE2483F8EF12495D60047A8E
:104860000480027A00EA2404FAECC39A405E7A02D9
:10487000900B9EEAF0EE24F7F582EF1248D860190B
:1048800075089E75090B78081219A27C027903EE4F
:10489000FA12495712174E7A0674012AF5D975D9BA
:1048A00003780080031244B5E8C39A40F875E19597
:1048B000EE24741248D1EE24801248D11247507968
:1048C00004121151EE240D12467180027900024645
:1048D000E2F582EF124A5722124D4E900B9FF0885C
:1048E000828983E02274F612178F124962FEEA244D
:1048F00083F8EB12495D60047C0480027C00EC24A8
:1049000004FCEEC39C40437C02900B9E7407F0EACB
:1049100024F8F582EB1248D8601575089E75090BCE
:1049200078081219A2790312495712174E7C06749F
:10493000012CF5D975D903780080031244B5E8C37A
:104940009C40F875E1957901800279000246E27C8D
:10495000097903EEFAEFFB120FB9740222123FEB52
:10496000E0229061D0E0F87480C3982274F51217A9
:104970008FE9FEA2AFE433F50AC2AF7F00EA246FED
:10498000F8EB3400F980010F88828983E0FCEFC3E3
:104990009C50188F08EA2508FCEB3400FDEC246BD2
:1049A000F582ED124D4A6E70DE800DEA2CFAEB12A4
:1049B0004CDAEE1248DE04F0E50AA2E092AF7F0383
:1049C00002186174F612178FA2AFE433FFC2AFEA88
:1049D000246FF8EB1252BCFCE9FD8C828D83E0144D
:1049E000F07E00801E8E08EA2508F8EB1252BC24E7
:1049F0006CF582E9124D4AC0E0E8246B124A42D0BD
:104A0000E0F00E8C828D83E0F8EEC39840D7EA2464
:104A10006EF582EB124A4574FF124A49EFA2E0920A
:104A2000AF0246E2C082C083E5A8F8C2AFEA246BB9
:104A3000F582EB124A45E9124A49E8A2E792AF0231
:104A40003F83F582E9124B0222F0EA246AF582EBF9
:104A5000124A5722F582E93400F583E4F02274F219
:104A600012178F8C828D83A3A3A3A3E0541FF0EAB7
:104A700024361250048E828F83E4F0F50C850C826C
:104A800085820AEC250AF8ED124ECDF583E0C0E0F0
:104A9000EA250AF8EB124AF5D0E0F0750D0085081A
:104AA00082850983E0F50A750B00E50D780A121777
:104AB00006E50AA2E05027E50C33333354F8250D00
:104AC000C0E08E828F83E0F8EA28F8EB1252BC2413
:104AD00038124A42D0E0F08E828F83E004F0050D58
:104AE000E50DC3940840B7050CE50CC39405408D53
:104AF0007F060218613400F9E8245D124AFF22F5AE
:104B000082E93400F583222508F5822274F6121713
:104B10008F90084BE0640370077A007B000246E246
:104B20007C00ECF875F006A4C8AAF02AF9745128A4
:104B3000F582740839F583E06003024CBE124F46DB
:104B4000124CECE4F0E82404FAE93400FBEAFEEB52
:104B5000FFEC8E828F83F0E82462124CCB24651226
:104B60004CFB2468124A42124CECA3A3E4F0A312BB
:104B70004D90A3124CFF240F124CCB2435124CD372
:104B8000121626E82418124A42121632E8241C1281
:104B90004CE7241D124CFB2480124CE72474124C69
:104BA000E72469124A427480F0E8246A124CE72430
:104BB0006F124CE72467124CE724ED124CE724EE09
:104BC000124CE724EF124CE724F0124CE724F112C8
:104BD0004CFB24F3124CFB24F6124CE72483124CBA
:104BE000E724D3124CE724D4124CD3121626E8241F
:104BF000D5124A421216329090DE121626E824D9B7
:104C0000124A42121632E824DF124CE724E1124C19
:104C1000E724DD124CE724E2124CE724E3124CE7D0
:104C200024F9124CFB24FB124CFB24FD124CFB24F8
:104C3000FFF582E9124756FC8C08E82508FAE912CC
:104C40004CDA74FFF00CECC3940440EC7C008C82D2
:104C5000AA8274682AF582740B124D4AC0E0E82AD1
:104C6000FAE93400FBEA245DF582EB124A45D0E014
:104C7000F00CECC3940540D67C008C82AA8274337D
:104C80002AF5827408124D4AC0E0E82AFAE9340095
:104C9000FBEA24E5F582EB124A45D0E0F00CECC3C8
:104CA000940840D690084BE004F0640170098E82AD
:104CB0008F83E090084DF0E8FAE9FB024B1D0CEC05
:104CC000C394034003024B19024B22124AFF7401A2
:104CD000F0E822124A549090DE223400FBEA246B62
:104CE000F582EB124B0222124A54E8227401124C54
:104CF000F222F088828983A3A3A322124AFFE4F060
:104D0000A3F0E822C082C083EA2403F582EB124DAF
:104D10004A6008E4F090084CE014F090084BE0146E
:104D2000F0700690084D74FFF08A828B83A3A3E491
:104D3000F0900B6DE0700D90084CE0640170057907
:104D40000012111B023F83F582EF124D4E223400F8
:104D5000F583E022C082C0837B00EBF875F006A4E7
:104D6000C8AAF02AF9744B28F87408124F50A3A36C
:104D7000A3A3A3E4124D90F00BEBC3940340DB908C
:104D8000084BE4F0A3F0A374FFF075E1F1023F8358
:104D9000124CF2A3A3A32274F512178F75080075A5
:104DA0000900750A00A80A1242298E828F83A3A3E4
:104DB000A3E0602DE5084509700AEEF8EFF98808D0
:104DC0008909801D850882850983124DFD1219B558
:104DD000124DF912162612218C740412174EE96036
:104DE000D9050AE50AC3940340BB85088285098377
:104DF000A3A3A3A3E0F90249BE8E828F83124E01C2
:104E000022E0F8A3E0F5838882A3A32274F71217A7
:104E10008F78FF79FF7F00EFFC75F006A4CCAEF031
:104E20002EFD744F2CFC74083DFD8C828D83A3A352
:104E3000A3E06040EC2474F582ED124D4AFE74FF4D
:104E400068700374FF69701574016E700BEC247A3E
:104E5000F582ED1245F6801CEC242E80F374016E71
:104E6000700AEC247A124E8B500A80E1EC242E1248
:104E70004E8B40E40FEFC39403409CC3EA98EB9938
:104E80004004E8FAE9FB7F01021861F582ED124B5C
:104E900002C3E098A3E0992274F612178FEAFEEBA2
:104EA000FF120EEDEE2465F8EF124ECD124EDBEC44
:104EB0004D601090084D1251F1850882850983E4F8
:104EC000F0A3F0EEFAEFFB12103D0246E2124ED1D3
:104ED000223400F988088909888222F583E0FCA33E
:104EE000E0FD2274F712178FEAFEEBFF8E828F83AC
:104EF000A3A3A3A3E0FA7B00120C6BEEFAEFFB1264
:104F00000F0512101F024E86C082C0837B00EBF893
:104F100075F006A4C8AAF02AF9124F46A3E0601A59
:104F2000E8246FF582E9124D4A600FE8246BF582A0
:104F3000E9124D4A7004790180090BEBC3940340D8
:104F4000CD7900023F83744F28F87408124F502225
:104F500039F988828983A3A32274F612178F780007
:104F600088087433124B0774081248D408E8C394B5
:104F70000840ED90083374010246E1C082C083749A
:104F8000FC1217389090DE12162685188285198338
:104F9000121632120F53E9851882851983F0120F09
:104FA000537401121783E9F0120F5374021217831E
:104FB000E9F08518828519831216267404023CAC28
:104FC00074F612178FEA240D125004EC2403F8ED46
:104FD0003400F988088909EC2407F8ED1252BCFC6A
:104FE000E9FD12500E1216AD8E828F83E8F0A3E910
:104FF000F012500E1216AD8B09EA450960031250EB
:10500000210246E2F8EB3400F9E8FEE9FF228C8247
:105010008D831245FD850882850983E0FAA3E0FBB4
:10502000228E828F83E02401F0A3E03400F022740A
:10503000F612178FEA242EF582EB3400124EDBEACB
:105040002470125004780079FAECFAEDFB1216ADD8
:105050008E828F83E8F0A3E9F0780079FAECFAED1C
:10506000FB1216AD8B09EA45096003125021024676
:10507000E274F012178FEAFEEBFF741012178378B8
:10508000081216081210D38A0C8B0D8C0E8D0F90FF
:10509000908E780C12156E909106780C1215CF78C0
:1050A0000C12199E124DF912162612218C7404123C
:1050B000174EE960030251558E828F83E02402F877
:1050C000A3E01252BCFAE9FB8A828B83780812159E
:1050D0008190910678081216088A828B83780812CC
:1050E00015E2EE240BF582EF124A45C082C0838E92
:1050F000828F83A3A3A3A3A3E02401F8A3E0340039
:10510000F9D083D082E0687003A3E069700479016C
:105110008045EE2407F8EF123FEB125025EE247481
:105120001252C17014EE247512515C7003A3E06D2D
:1051300070078A828B83125025EE24801252C17030
:1051400014EE248112515C7003A3E06D70078A8213
:105150008B8312502579007F08021861FAEF340022
:10516000FB8A828B83E0FCA3E0FD88828983E06C6C
:105170002274F312178F90084DE0F812422AEE24A1
:1051800004F50AEF3400F50BEE2465F508EF340062
:10519000F5098010124EDD850882850983E4F0A3AD
:1051A000F01251EB850882850983124EDDEC4D60CB
:1051B00030EE2464124D47F50C780C1219A6EE243B
:1051C00063124D47F9EEFAEFFB120F3B7401121711
:1051D0004EE985088285098360BA1245F9E849706D
:1051E000077C007D001251EB024838850A82850B4E
:1051F00083E0FA7B00120C232274F212178FEAFE6E
:10520000EBFF890A740E121783E0FAEE2462125241
:10521000C160030252B0124962F50CEE2483124DB4
:1052200047FB60047804800278008908E928F8E4E4
:105230001252BC24020808E93400F9E50C98E499FC
:10524000A2D265D0334065EA7005750B0280037504
:105250000B01EB603375090078081219A27A9E7B66
:105260000B120F83740212174E75089E75090B7886
:10527000081219A2AC0AA90B12495312174E740452
:10528000250AF50A7C9E7D0B7401250AF5D9850B4C
:10529000D97800800A8808EC124B07ED1244BFE869
:1052A000C3950A40F075E195790080067907800280
:1052B00079FF024AF08A0AEE250AF8EF3400F9E88D
:1052C00022F582EF124D4E640122C082C08380031A
:1052D0001252F8E9F874FF28190470F4ECFAEDFBA7
:1052E000023F83C082C08380031252F8E9F874FF42
:1052F00028190470F4023F838C828D83E08A828BAC
:1053000083F08C828D83A3AC82AD838A828B83A34E
:10531000AA82AB832274F412178FE9FF7E008A08F9
:105320008B0978081219E600040FD8544C536953BE
:1053300082539953B653CD53EE53055418544154E8
:105340005E546E5484549D54D854BD5474016F609F
:10535000030254D48C828D83E0F8C394034003028B
:1053600054D4E89011040254D174026F60030254C3
:10537000D48C828D83125CE9901105E8F0A3E902D8
:1053800054D174016F60030254D41254FB400302E1
:1053900054D4E89004210254D174016F6003025484
:1053A000D48C828D83E0F8C3940540030254D4E882
:1053B0009004220254D174016F60030254D4125439
:1053C000FB40030254D4E89004230254D174106FBC
:1053D00060030254D47508108E0978081219A27A55
:1053E000247B04120227740212174E0254F6740131
:1053F0006F60030254D41254FB40030254D4E8906B
:1054000004340254D174016F60030254D48C828D31
:1054100083E09011080254D174046F60030254D4E5
:105420008C828D8378081216089090867808121462
:105430001450030254D490043678081216170254FC
:10544000F6EF60030254D4120947E9700A120413FC
:10545000795012063580619004C97401807374011B
:105460006F70711254FB506CE890043580637401C6
:105470006F70618C828D83E0F8C3940A5056E89077
:105480001107804D74016F704B8C828D83E0F8742E
:10549000F928C3940A503DE8901109803474016FD3
:1054A00070329004C8E0F88C828D83E09004C8F0DC
:1054B000E87043E06401703E120407803974016FA4
:1054C00070128C828D83E0F8C394045007E8901129
:1054D0000AF080227E18801EC3EA9426EB940050C6
:1054E0001374026F700E8C828D83125CE312082D90
:1054F000E9FE80020E0EEEF902550A8C828D83E0E1
:10550000F8C3940222740E12174E7F0402186174BD
:10551000F212178F74DA121738890AECFEEDFF7455
:1055200020121783AC82AD83758390758254740604
:1055300012164B7420121783AC82AD831203ADE9AF
:10554000F5087434121783E0F50BE9C3940A40039D
:1055500002566A1203EFE9F509901104E064027043
:105560000474018001E4F50C780C1219A6AD0BACA3
:1055700009A908EEFAEFFB12043D740112174E7CE4
:10558000147D007900740C121783AA82AB83120277
:105590003F75F006E508A4F50B740C121783AC8276
:1055A000AD837A107424250BF912062FE9703D7C27
:1055B0001079FF740C121783AA82AB831202A5E93B
:1055C000702A741C121783AC82AD837A047425256B
:1055D0000BF912062F740C121783AC82AD83E50908
:1055E000A2E0E433F9EEFAEFFB1208C385188285D6
:1055F0001983AC82AD837A0C74702508F912062FDA
:10560000E97053851882851983AA82AB831203E35C
:10561000750800E50875F003A4F8A9F085188285DF
:105620001983E58228F8E583125EE712606F601D3A
:1056300088828983A3A3E0F50C750D00780C1219FC
:10564000A2EEFAEFFB120B57740212174E0508E593
:1056500008C3940440BDE509A2E15046900420E04F
:10566000F9EEFAEFFB120B5D80387408650B7032AF
:10567000901104E06402702A7C007D00A90AEEFA11
:10568000EFFB120437125CEF6018125CFA88828913
:1056900083E5824583600B7C007900EEFAEFFB1214
:1056A000178D7900742602655374F012178FEAFE85
:1056B000EBFF8C088D09750A0AE9600C1460091467
:1056C00060371460790257581203FBE9F50AC39456
:1056D0000A4003025758E5084509607C750E0675B7
:1056E0000F00780E1219A2EEFCEFFDAA08AB09120A
:1056F0000227740212174E805F750B00750E067537
:105700000F00780E1219A2EEFCEFFDE50B75F00EFE
:10571000A4F8A9F0744228FA740439FB120239740F
:105720000212174EE9600C850B0AE50AC3940A5071
:10573000278016050BE50BC3940A501C80BE12048B
:1057400001E9F50AC3940A500FE50845096009AA62
:1057500008AB09A90A1203F5A90A7F0802186174A7
:10576000F412178F890875091574FF6A700374FFA6
:105770006B70277E00AC087A027B00EEF91203D131
:10578000E960037509000EEEC3940A40E8E508607D
:10579000537A2B7B04120D61804A120D438A0A8BC7
:1057A0000BAE0AAF0BEE4F60387C007D00EE240597
:1057B000FAEF3400FB8E828F83A3A3A3A3E0F91238
:1057C00003ADE9C3940A500CAC087A027B001203C3
:1057D000D1750900E508600CEEFAEFFB12042B808E
:1057E00003750914A90902550A74F212178FECFE09
:1057F000EDFF750815740E121783E0F50AA3E0F5A6
:105800000B74FF6A700374FF6B7021750900AC0A9A
:10581000AD0BEEFAEFFBA9091203D7E96003750897
:10582000000509E509C3940A503F80E2120D438A3E
:10583000828B83E5824583602D7C007D00E5822498
:1058400005FAE5833400FBA3A3A3A3E0F91203AD9B
:10585000E9C3940A5013AC0AAD0BEEFAEFFB120346
:10586000D77508008003750814A908026556C08220
:10587000C08390043AEAF0A3EBF0900420E0FC7DB2
:10588000007A257B0012082D900420E0F9120AD935
:10589000D083D08202013574EC12178F8A088B09ED
:1058A000E9FE7414121783780C1216087F00EE704C
:1058B0002E78081219A29090867810121608780C8B
:1058C00079101214B3AA10AB11AC12AD131208D593
:1058D000740212174EE9FF60097901AA08AB091298
:1058E00008CFEFF97F0C02186174EA12178F74EC7D
:1058F000121738EAFEEBFFEE240CF514EF3400F536
:10590000158E828F83A3858210858311EE240AF57C
:105910000AEF3400F50BEE2403F50EEF3400F50F1B
:105920008E828F83A3A3E024FA7003025CB624FD69
:105930007003025BCD1470030259CD146010147013
:1059400003025C0224FE7003025B47025CD4EE2477
:1059500009F508EF3400F509125CEF6045E0F583C6
:105960008882125CE9880A890BE8450B603485144B
:1059700082851583E0F50C780C1219A6EE240BF540
:1059800082EF3400F583E0F9850882850983125C93
:10599000E30A0A0AAB0F850A82850B8312178D0270
:1059A0005C878508828509831219B990043612161E
:1059B000261208D5740212174EE97003025CD479DE
:1059C00001850882850983126561025C9A851082CF
:1059D000851183E06003025B1DEE2405F508EF34BA
:1059E00000F509850882F583E0A2E04003025B1D13
:1059F0007C0E7D007900851882851983AA82AB838D
:105A000012023FEE2408F512EF3400F513851282DE
:105A1000F583126561EA4B6010750C06750D007810
:105A20000C1219A2EA2410801B12655B120D43EAC6
:105A30004B7003025CD4750C06750D00780C1219BE
:105A4000A2EA2405FCEB3400FD7402121783AA823B
:105A5000AB83120227740212174E850882850983D0
:105A6000E0A2E25004D2F08002C2F0A2F0E433F8E7
:105A7000740C121783E048F0850A82850B83E0F5E9
:105A80000CA3E0F50DE50C450D6013E50C2410F5B5
:105A900082E50D3400F5837808121608800C75082D
:105AA000FF7509FF750AFF750BFFE50C450D7006C4
:105AB000750C00750D00851282851383E0F512A325
:105AC000E0F513E5124513700675120075130078A2
:105AD0000812199E780C1219A278121219A28514B4
:105AE000828515831219B98E828F83A3125CDE74AE
:105AF0000A121783AA82AB831203E9740A12174EA3
:105B0000850E82850F83125CE99004CAE8F0A3E950
:105B1000F07A017B00900420E0F9120281125CEF20
:105B20007003025CD4125CFAE8FEE9FFEE4F7003EA
:105B3000025CD4851082851183E0FC790112655BDB
