:020000040000FA
:0600000002011D021D7E3D
:03002B00021AB8FE
:03005300021DF497
:03006B00021A84F2
:10008300021C6FE5C754F84401F5C779012200004B
:100093000080FB120086B90003020107E47921788E
:1000A30008B800028004F709D8FCE479297802B87B
:1000B30000028004F709D8FCE4900281780F7908E4
:1000C3008002F0A3D8FCD9FA781A90014D7A01BACC
:1000D30000028007E493A3F608DAF990098FAA8255
:1000E300AB8390014E787379038015E493A3AC82BC
:1000F300AD838A828B83F0A3AA82AB838C828D83A8
:10010300D8E9D9E77582DE7583BB740312012F75B5
:100113008291758300740012012F75D00075813FA1
:10012300751881751902759F00020096C09FF59F8F
:10013300E473D09F22D083D082C09FE493C0E07445
:100143000193C0E0740293F59F2201FFFF0B094363
:1001530053432053656E736F72020A000201060354
:100163000216184353432053656E736F72000000E9
:1001730000000000000000006400000032003C00AA
:100183004600040500001002020128021A90010033
:10019300000490021690010000CA09023E9000007C
:1001A30000EA02022090030000EB02021690010015
:1001B30000CB09023C90010000F1020216900100FD
:1001C30000CC09023A90010000CD0902169001000B
:1001D30000CE09023890020000F3020220900300CF
:1001E30000F402020202020202020202010D0000F6
:1001F300001001021A900100000A900216900100FB
:1002030000270A023290010000FA02021690010050
:1002130000280A023090010000158F021690010099
:1002230000290A022E90010000078F021690010098
:10023300002A0A022C90010000938E0216900100FE
:10024300002B0A022A90010000A58E0216900100DD
:10025300002C0A022890010000B78E0216900100BC
:10026300002D0A022690010000818E0216900100E3
:10027300002E0A022490010000F98E02169001005C
:10028300002F0A022290010000300A01E803053F13
:1002930010FF00013075030201060000000000009A
:1002A300000000000000000000000000000000004B
:1002B300000000000000FFFF0600800CE803FF00C1
:1002C30000B4000028002800283075A000A000A07A
:1002D30000A00000080008E001F00010001000106A
:1002E30000100010001000500050005000100010CB
:1002F30000D0070000000000000F000100050030DF
:100303007507001000010081FF0000FFD209F0090A
:10031300D809FF02020208025000A0000000E8030F
:10032300021A900100000790021690010000570B7B
:10033300021290010000E604021690010000580B1F
:10034300021090010000FC04021690010000590BFA
:10035300024290010000FE040216900100005A0BB5
:10036300022A8F080000FF040216900100005B0BB5
:100373000214900100005C0BFF0100FF20021A90A1
:100383000100000D90021690010000C00B02369090
:1003930000000000000220900300004C05EA0FEA71
:1003A3000FEA0FEA0FEA0FEA0FEA0FEA0FEA0FEA82
:1003B3000FEA0FEA0FEA0FC012D812BA121201386D
:1003C3008ADB021201389FDB02120138F7DB0212CB
:1003D30001385EDC02120138A6DC021201381CDD92
:1003E300021201384BDD0212013859DD02120138C5
:1003F300BDDD02120138FBDD0212013816DE0212E6
:100403000138AEDE0212013857DF02120138DADF9B
:100413000212013813E0021201389EE00212013881
:10042300F5E00212013854E10212013866E10212CA
:1004330001388CE10212013895E102120138F4E22D
:1004430002120138D2B503120138B1B603120138D2
:100453002EA90312013873A903120138B9A9031293
:1004630001384CAB0312013854B9031201386FB988
:10047300031201387FB903120138D6B903120138C8
:1004830037EA0212013857EA021201385BEB021213
:100493000138A7EB02120138C7EB021201381AEC3C
:1004A3000212013887EC02120138CDEC0212013836
:1004B30031ED02120138E3EF0212013864F0021247
:1004C300013822BA0312013890B403120138C0B4C0
:1004D30003120138F0B40312013810B503120138C6
:1004E3006AB503120138828C02120138418F02125D
:1004F3000138EF90021201381A9102120138A892C2
:10050300021201386C94021201380B97021201385F
:100513001D980212013822D30212013832D302127B
:100523000138C1D302120138DFD302120138E2D3FA
:100533000212013816D4021201386BD402120138A8
:100543007ED402120138E4D40212013825D50212F6
:10055300013874D502120138DED70212013826D8C9
:1005630002120138A4D9021201389BF50212013894
:10057300C0F502120138FBF502120138CBBA03129F
:100583000138F023001201385B2600120138872757
:1005930000120138472900120138F22900120138EC
:1005A300962A001201382F2B001201385E2B0012FD
:1005B3000138C430001201386F3100120138DF32C4
:1005C30000120138473300120138FB33001201389F
:1005D3007B3500120138BA35001201382E3600126D
:1005E30001388D3600120138EC36001201385B37C2
:1005F300001201384E3800120138943800120138C5
:10060300D93800120138FC38001201384C3A001274
:1006130001385F3A00120138D13A00120138083B21
:1006230000120138343B00120138873B00120138B5
:10063300A83B00120138EC3B001201383E3E001289
:1006430001387F3E001201382A3F00120138953FDE
:1006530000120138C7FF011201380DB70312013828
:100663001DB70312013831B70312013839B8031229
:100673000138A9A3031201384FA4031201386BA652
:100683000312013837B30312013864B3031201387C
:10069300CFB303120138E6B30312013842B4031295
:1006A30001387FB40312013882B40312013891FA7E
:1006B30002120138B0FA0212013845FB0212013866
:1006C30035FC0212013892FE02120138F2FE0212C8
:1006D30001385BFF02120138F87F0012013886A649
:1006E3000312013878A803120138E4A80312013871
:1006F3002BA903120138E6AD0312013845AE0312EC
:100703000138F3AE0312013872AF03120138899D29
:1007130003120138BB9D03120138C39E0312013833
:10072300E89F0312013869A3021201384FA4021291
:1007330001389CA402120138DFA40212013854A527
:1007430002120138B5A5021201382AA60212013895
:1007530006A70212013811A80212013892A8021248
:10076300013839AA02120138CFAA0212013842AB6A
:1007730002120138BEAB02120138D5AB02120138A6
:100783000CAD0212013866AD021201388F6C0012F3
:100793000138E17000120138A67300120138CF73DB
:1007A30000120138F67300120138A87400120138E0
:1007B3007B7600120138B67700120138A47C001250
:1007C3000138DD7C00120138217D00120138337EAF
:1007D3000012013884B1031201389BB103120138AE
:1007E300CAB10312013803B2031201382BB2031248
:1007F300013859B20312013870B20312013887B2BB
:10080300031201389DB203120138C4B20312013836
:10081300D7B203120138EDB20312013800B3031249
:10082300013825B303120138D2AD02120138D1AE1B
:100833000212013806AF0212013827AF0212013843
:1008430037AF0212013858AF0212013864B00212F6
:10085300013831B102120138A4B1021201382AB2AF
:10086300021201386DB202120138A4B20212013829
:100873002AB302120138FCB3021201385AB402122D
:10088300013872B402120138ECB402120138EFB429
:1008930002120138F2B40212013899B5021201387A
:1008A300B1B502120138E1B50212013801B60212E4
:1008B3000138EFB602120138A5B702120138C2841B
:1008C30003120138EA840312013818850312013830
:1008D3004F8503120138B7850312013800860312CE
:1008E30001384B8603120138898603120138C68604
:1008F30003120138F486031201389B87031201386F
:10090300A58703120138B28703120138E587031262
:100913000138A78803120138B38803120138CB8842
:1009230003120138D58803120138F37E001201380F
:10093300017F00120138197F00120138317F001244
:100943000138F0C0011201388EC10112013806C20C
:10095300011201381BC30112013855C301120138BA
:10096300FEC301120138D3C40112013837C6011284
:1009730001388EC60112013815C701120138FCC7B0
:100983000112013849C801120138D7C801120138D0
:10099300FBC801120138D0CA0112013811CB011270
:1009A300013833CB01120138B4CB011201389ECC8C
:1009B3000112013864CD011201382BE30212013810
:1009C300FDE302120138A6E402120138E9E402123F
:1009D300013876E50212013802E602120138E3E635
:1009E3000212013812E7021201380EE8021201382E
:1009F30056E80212013858E9021201389CE9021242
:100A03000138C2E90212013855BB0312013822969C
:100A1300031201383896031201385E960312013827
:100A2300869703120138909703120138E99803124D
:100A33000138E9990312013875F002120138AAF15D
:100A430002120138DDF10212013827F202120138D5
:100A5300E5F30212013895A201120138F8A201123E
:100A630001383DA4011201384DA40112013870A4CC
:100A730001120138BBA40112013860A5011201382B
:100A830056A60112013820A70112013898A80112B5
:100A93000138DAA80112013878A901120138C5A971
:100AA30001120138EBA901120138D9AB0112013847
:100AB300DEAB01120138BFAD0112013813AE0112D2
:100AC300013875AE011201389DAE0112013841AFF4
:100AD3000112013803B00112013834B00112013898
:100AE30037B0011201387FB001120138C1B00112D1
:100AF300013828B10112013890AB03120138A3ABBE
:100B030003120138BCAB0312013807AC03120138DE
:100B1300E2AC0312013871AD03120138BCAD03120C
:100B23000138A94000120138B54000120138EE40E7
:100B330000120138334100120138EA410012013832
:100B43007042001201389C4200120138D542001253
:100B53000138E94400120138C54600120138B04893
:100B630000120138E74900120138474C00120138DE
:100B7300334D00120138794E00120138864F0012AE
:100B83000138A34F00120138DB4F00120138F54F33
:100B9300001201385D5000120138F7540012013879
:100BA300985500120138E955001201381056001209
:100BB30001385E56001201387C5600120138D056B7
:100BC30000120138D857001201386058001201385A
:100BD3006A89031201387489031201383F8A0312A8
:100BE30001385A8A03120138808A03120138C48AF1
:100BF30003120138FC8A03120138258B03120138D2
:100C03009E8B03120138B38B03120138C88B031276
:100C13000138FF8B03120138138C03120138448C03
:100C2300031201387E8C03120138AA8C0312013897
:100C3300218D031201386A8D03120138948D03123A
:100C43000138B98D0312013836920312013800932B
:100C530003120138E3930312013859940312013844
:100C63009B9403120138C8950312013800800212C5
:100C7300013829800212013842800212013887812B
:100C8300021201386582021201388482021201388D
:100C9300118302120138548302120138A184021213
:100CA3000138408502120138BF8702120138568885
:100CB300021201382A89021201380C8A0212013801
:100CC300788B021201380B8C021201383FB80312E1
:100CD3000138A8B803120138FCB80312013823B94C
:100CE30003120138E18D031201384E8E03120138CD
:100CF300998E031201388E8F031201388A900312E2
:100D03000138749103120138B4CA02120138F6CAC9
:100D130002120138D0CB02120138A9CC02120138D9
:100D2300A4CD0212013883CE02120138EFCE021293
:100D33000138B6CF0212013821D00212013888D00F
:100D430002120138B3D00212013824D10212013841
:100D5300B7D10212013820D20212013835D2021261
:100D630001387DD20212013896D202120138FBD229
:100D730002120138FED202120138AFA00312013869
:100D8300D7A00312013815A103120138D3A103120E
:100D930001383EA2031201385AA20312013882A27B
:100DA30003120138B2A203120138C1A2031201389F
:100DB3003BA30312013861A303120138F2B10112FC
:100DC30001388FB30112013875B5011201383FB6EE
:100DD3000112013886B601120138CDB6011201386D
:100DE300DFB6011201381FB7011201384EB70112E5
:100DF30001389AB701120138D2B70112013800B88D
:100E03000112013851B801120138E0B8011201385A
:100E1300CEBB01120138A8BD01120138E4BD011295
:100E230001383EBF0112013885BF01120138FABFF4
:100E33000112013848C001120138B1C10212013850
:100E4300CEC10212013868C7021201386AC8021201
:100E53000138E4C90212013892CA02120138C75894
:100E6300001201381059001201383D59001201389F
:100E73007059001201387D59001201388959001246
:100E830001389B5900120138705A00120138CE5AAA
:100E930000120138035B001201389F5C0012013815
:100EA300EC5C00120138105D001201387D5D001208
:100EB3000138225E00120138DE5E001201385D5FE8
:100EC300001201382160001201383060001201382D
:100ED300B1600012013850610012013882610012C2
:100EE30001381D62001201387B6200120138B562BD
:100EF30000120138366300120138FF630012013813
:100F0300A864001201382F650012013887650012AA
:100F13000138E86500120138116600120138C7660E
:100F230000120138116800120138546800120138A8
:100F3300716800120138906800120138DB680012F2
:100F430001380069001201382969001201389869D3
:100F530000120138DA6900120138DE6A0012013822
:100F6300786B00120138446C001201385D6C00127A
:100F7300013810B80212013863B8021201386FB891
:100F83000212013844B9021201386BB90212013856
:100F9300A6B90212013812BA0212013846BA021275
:100FA30001387FBA0212013897BA02120138F0BA37
:100FB3000212013809BB0212013852BB0212013876
:100FC30065BB021201387FBB0212013895BB0212C6
:100FD3000138B1BC02120138C2BD021201380FBF81
:100FE30002120138F4BF02120138E2FF0112013884
:100FF300A6EB01120138DAEB0112013845EF0112B9
:1010030001388FF00112013859F101120138E3F26E
:1010130001120138BEF301120138F8F3011201384D
:101023001BF4011201385DF40112013866F4011258
:101033000138B0F401120138BAF40112013866F52F
:10104300011201383AF6011201388EF60112013805
:10105300F0F60112013843F70112013872F7011259
:101063000138B1F7011201384590011201389F98F8
:1010730001120138A59801120138609E011201384E
:1010830046A201120138F39903120138699A031237
:1010930001387F9A03120138BC9A03120138F49A7B
:1010A30003120138719B03120138AC9B0312013800
:1010B300279C03120138639C031201386C9C0312B2
:1010C3000138789C03120138929C03120138B79CB3
:1010D30003120138CD9C03120138F69C0312013828
:1010E300599D031201380080031201381380031243
:1010F30001382D800312013856800312013899807C
:1011030003120138D8800312013816810312013803
:101113007B81031201389081031201389B810312F2
:101123000138A88103120138BF8103120138CD8130
:1011330003120138D88103120138E4810312013804
:10114300F781031201380282031201382582031248
:101153000138CE8203120138DE8203120138F8828D
:101163000312013815830312013831830312013846
:101173005683031201386083031201387483031208
:101183000138938303120138F48303120138FA837D
:101193000312013800840312013806840312013854
:1011A3001284031201384584031201381CDE011234
:1011B30001389EDE0112013847DF011201388FE04A
:1011C300011201389DE20112013883E30112013853
:1011D300B8E301120138DAE30112013883E40112A2
:1011E300013853E6011201387CE601120138F4E6B6
:1011F3000112013826E70112013833E701120138E1
:101203007EE701120138A2E701120138F3E9011266
:101213000138FDEA0112013859EB0112013899CF67
:1012230001120138AAD0011201388ED101120138FE
:1012330098D101120138BAD101120138C6D1011275
:1012430001386AD30112013897D301120138ADD4A2
:101253000112013802D50112013851D601120138A9
:1012630026D70112013882D701120138EDD70112B6
:10127300013822D80112013865D8011201382FDB59
:101283000112013847DB01120138D8DB01120138A2
:10129300E6DB0112013833DC0112013841DC0112B3
:1012A3000138ADDC0112013828DD011201387FDD80
:1012B300011201384B98021201386D98021201385D
:1012C3007E9A021201383D9D02120138679E021276
:1012D3000138259F0212013811A002120138CBAF49
:1012E30003120138F0AF0312013866B0031201385C
:1012F3008CF80112013895F8011201389EF8011299
:10130300013876F90112013827FB0112013857FB26
:101313000112013882FB01120138B2FB01120138BC
:10132300DDFB0112013811FC011201383DFC0112F1
:10133300013880FC01120138ABFC01120138F2FCC8
:101343000112013847FD0112013889FD01120138EC
:10135300E3FD011201380EFE011201385DFE011298
:1013630001388DFE01120138B8FE01120138E6FE84
:101373000112013809FF0112013879FF0212013805
:10138300A5FF02120138D2FF02120138DCFF02125C
:101393000138ECFF02120138CA7F00120138A9FF9D
:1013A30001E066701008A3E066700A08A3E06670A7
:1013B3000408A3E06622C3E7960809E7960809E74D
:1013C300960809E79622C3E09608A3E09608A3E0EF
:1013D3009608A3E09622C008C3E096F50808A3E0A8
:1013E30096420808A3E096420808A3E096450870D1
:1013F30001D3D00822080808EAC0E0EBC0E086F079
:10140300E7A4FA180986F0E7A42AFA180986F0E790
:10141300A42AFA180986F0E7A42AFA1986F0E7A4A1
:10142300FBE5F02AFA190886F0E7A42BFBE5F03A6E
:10143300FA190886F0E7A42BFBE5F03AFA18180925
:1014430086F0E7A4C5F02BFBE43AFA1908E7C5F0E8
:10145300C6A426F6E5F03BFBE43AFA1886F0E7A4C7
:10146300F6E5F00826F6E43B08F6E43A08F6D0E0A1
:10147300FBD0E0FA22E4CFC0E0E4CEC0E0E4CDC08C
:10148300E0E4CCC0E075F020C3E633F608E633F6BB
:1014930008E633F608E633F6181818EC33FCED3398
:1014A300FDEE33FEEF33FFC3EC9709ED9709EE979B
:1014B30009EF97191919400FFFEC97FC09ED97FDF8
:1014C30009EE97FE191906D5F0BEECF709EDF709F9
:1014D300EEF709EFF7191919D0E0FCD0E0FDD0E0E1
:1014E300FED0E0FF226016080808C6C313C618C65C
:1014F30013C618C613C618C613C6D5E0EA22700968
:10150300080808226016181818C6C333C608C6335D
:10151300C608C633C608C633C6D5E0EA22E627F6B0
:101523000809E637F60809E637F60809E637F6222A
:10153300E026F608A3E036F608A3E036F608A3E0B3
:1015430036F622E026F008A3E036F008A3E036F0F2
:1015530008A3E036F022C3E697F60809E697F608F3
:1015630009E697F60809E697F622C3E096F008A382
:10157300E096F008A3E096F008A3E096F022E05688
:10158300F608A3E056F608A3E056F608A3E056F6DD
:1015930022E056F008A3E056F008A3E056F008A3B3
:1015A300E056F022E0F608A3E0F608A3E0F608A36D
:1015B300E0F622E6F008A3E6F008A3E6F008A3E6C7
:1015C300F022E0FAA3E0FBA3E0FCA3E0FD22EAF0B3
:1015D300A3EBF0A3ECF0A3EDF022CAC0E0E6F0A386
:1015E30008DAFAD0E0FA22CAC0E0E0A3C582CCC58B
:1015F30082C583CDC583F0A3C582CCC582C583CD07
:10160300C583DAE6D0E0CA22C3E498F8E499F91274
:10161300164C8026C3E49AFAE49BFBE920E7E9121F
:10162300164CE498F8E499F922C3E498F8E499F99C
:1016330012164CE498F8E499F9C3E49AFAE49BFB94
:1016430022EB20E7CFE920E7E0B90010BB0008E870
:101653008AF084F8AAF022E4FBC8FA22EB70227B1A
:1016630010C833C8C933C9335007C39AC3DBF280E8
:10167300069A50012ADBEAC833F4C8C933F4C9FA1D
:101683002275F008E4C833C8C933C933C99AC99B62
:101693005004C92AC93BD5F0ECFBC833F4C8E4C9EC
:1016A300FA22600D08C6A2E713C618C613C6D5E012
:1016B300F322600C08C6C313C618C613C6D5E0F4DC
:1016C30022700422600D18C6C333C608C633C6D5BC
:1016D300E0F41822251810AF08F5184002151980F8
:1016E30008F51840021519D2AF22C0D0251810AF43
:1016F30008F518500205198008F51850020519D28B
:10170300AFD0D0222518F58210AF08F51840021586
:10171300198008F51840021519D2AF8519832225BF
:1017230018F582E43519F58322E4732518C582C0C0
:10173300E0E51934FFC583C0E0E518C3958224F8BA
:1017430010AF0885831985821880088583198582DF
:1017530018D2AFCEF0A3E520F0A37808E608F0A3F3
:10176300DEFAEFF0A3E58124FAF8E608F0A3E60831
:10177300F0A3E608F0A30808E608F0A3E608F0A340
:1017830015811581D0E0FED0E0F815811581158112
:10179300E8C0E0EEC0E0222518C582C0E0E51934B8
:1017A300FFC583C0E0E518C3958224F910AF08850F
:1017B30083198582188008858319858218D2AFCE54
:1017C300F0A3E520F0A37808E608F0A3DEFAEFF033
:1017D300A3E58124FBF8E608F0A3E608F0A30808D4
:1017E300E608F0A3E608F0A315811581D0E0FED04A
:1017F300E0F815811581E8C0E0EEC0E02285198389
:10180300851882E0A3FEE0A3F5207808E0A3F6089C
:10181300DFFAE0A3FFE0A3C0E0E0A3C0E0E0A3C0E1
:10182300E0E0A3C0E0E0A3C0E010AF088582188524
:1018330083198008858218858319D2AFD083D0821B
:10184300020135851983851882E0A3FEE0A3F52004
:101853007808E0A3F608DFFAE0A3FFE0A3C0E0E026
:10186300A3C0E0E0A3C0E0E0A3C0E010AF0885821E
:10187300188583198008858218858319D2AFD08390
:10188300D08222C0D02518C582C0E0E51934FFC537
:1018930083C0E0E518C3958224F310AF088583194C
:1018A3008582188008858319858218D2AFC8F0A372
:1018B300E9F0A3EAF0A3EBF0A37908E709F0A3D8D2
:1018C300FAECF0A3EDF0A3EEF0A3EFF0A3D0E0F079
:1018D300A3D0E0F0A3D0E0F0A3E520F0A3E5F0F07F
:1018E300A322851983851882E0C0E0A3E0F9A3E071
:1018F300FAA3E0FBA37808E0F608A3DFFAE0FCA371
:10190300E0FDA3E0FEA3E0FFA3E0C0E0A3E0C0E0AE
:10191300A3E0F5D0A3E0F520A3E0A3F5F010AF0812
:101923008583198582188008858319858218D2AF2B
:10193300D082D083D0E0F8D0E03274048006740201
:1019430080027401C0E0F404121707D0E01215DD21
:10195300227404800474028000CCC0E0EDC0E0E592
:1019630018C39CCCAD1950011D10AF068C188D19EE
:1019730080068C188D19D2AF1215EAD0E0FDD0E0A5
:10198300FC22D083D082E9C0E0E493A3C386F0C5F0
:10199300F095F0F908E493A386F0C5F095F0700B89
:1019A300E493A3C3994005E9048002A3E475F0021C
:1019B300A42582F582E5F03583F583D0E0F9E4933D
:1019C300A3C0E0E493C0E022D083D082ECC0E0ED7A
:1019D300C0E0E493A3FCE493A3FDED4C600D121A65
:1019E30017EC24FFFCED34FFFD80EFE493A3FCE44C
:1019F30093A3FDED4C600D121A56EC24FFFCED345D
:101A0300FFFD80EFD0E0FDD0E0FCE493A3C0E0E471
:101A130093C0E022C0E0C3E4939608740193961840
:101A2300400FE493667008087401936618700070A1
:101A330019A3A3C3E49396087401939618A3A34030
:101A43000DD0E0D0E0D0E0021A07A3A3A3A3A3A381
:101A5300D0E022C0E0C0F088F0E493667008087418
:101A6300019366187000A8F0A3A3700BD0F0D0E028
:0E1A7300D0E0D0E0021A07A3A3D0F0D0E0220A
:101A8400C0E074F2121886A2AFE433FED2AFE58947
:101A9400A2E04006E589A2E1500312069C75890084
:101AA400758900C2C5751A00EEF8EEA2E092AF7F08
:101AB400010218E5C0E0C0D0E8C0E0E9C0E0A2AF90
:101AC400E433F8D2AFC2C7751A00E8F9E8A2E0928D
:101AD400AFD0E0F9D0E0F8D0D0D0E03274F51217EE
:101AE4009AEAFEEBFFEE2434F8EF3400F988088913
:101AF40009EE2435121C18F8EE2437121C18F50AC6
:101B0400EC850AF0A4FCAAF0850AF0EDA42AFDE80D
:101B14002CF8E43DF97A257B0012164CEA850882FC
:101B2400850983F05407F87401B800028004C333B4
:101B3400D8FCC0E0E0131313541FF8EE28F8EF3478
:101B440000F9E8245DF582E93400F583D0E0F8E09B
:101B5400586008850882850983801DEE2436121C8E
:101B640018F5F0EA84A8F0EE28F8EF3400F9E82438
:101B740038F582E93400F583E0F97F0402184674ED
:101B8400F512179AEAFEEBFFEE2434121C18C0E09B
:101B9400EE2435F582EF3400F583D0E0F08E828FA9
:101BA40083A3A3A3A3A3E0FAA3E0FB8E828F83A362
:101BB400A3A3A3A3A3A3E0FCA3E0FDECC39AF50AAB
:101BC400ED9BF50BEE2480F508EF3400F50985084C
:101BD40082F583E06401702BEE2481F582EF3400FA
:101BE400F583121958121C2174021216EDE96013C0
:101BF4007C317D07EEFAEFFB120F18850882850908
:101C040083E4F0AC0AAD0BEEFAEFFB121AE01223F8
:101C1400DA021B7EF582EF3400F583E022C082C035
:101C240083851882851983E0F8A3E0F9C3EA9CEB65
:101C34009D5012C3EC98ED994019C3EA98EB995062
:101C44001279018010C3EA98EB9940F5C3EC98ED42
:101C54009950EE7900D083D08222EAC39CFAEB9D9E
:101C6400FB2200008521878522C622C0E074EF1282
:101C74001886759B00906182E0A2E64003021D3045
:101C8400E591A2E64003021D307591BF9005F6E090
:101C9400640570081210B61210C280031210BC75CD
:101CA400210012112EE99005F7F079001211221289
:101CB4000E827A017B009005F5E0F912041A9078FF
:101CC40003E064426003021D79900793E014F0601E
:101CD40003021D79C2AF121CDD00782AD0E0F61889
:101CE400D0E0F6E59F5407F97005908F6880039063
:101CF4008F6478081215A7E9C4C0E07829E655086E
:101D0400F50808E65509F509740B78081216B5D0DC
:101D1400E02508F8906270E0A2E740F8E8C3339049
:101D24006272F0906270E0D2E0F08049E0A2E55087
:101D340024E591A2E5501E7591DF9005F6E0640D4F
:101D44007013900618E004F064287002E4F07A003E
:101D5400E0F91211A0906181E0A2E35009E5E9A243
:101D6400E3500375E9F7A3E0A2E75009E591A2E780
:101D7400500375917F7F040218E5C0E0C0D0C08293
:101D8400C083906183E0A2E05009E5BFA2E0500364
:101D940075BFFEE0A2E15009E5BFA2E1500375BFA3
:101DA400FDE0A2E25009E5BFA2E2500375BFFBE0EB
:101DB400A2E35009E5BFA2E3500375BFF7E0A2E434
:101DC4005009E5BFA2E4500375BFEFE0A2E5500956
:101DD400E5BFA2E5500375BFDFE0A2E65009E5BF09
:101DE400A2E6500375BFBFD083D082D0D0D0E032FA
:101DF400C0E074F2121886E5A7A2E4500FE5A1A290
:101E0400E4500953A7EF75A1EF121E48E5A7A2E518
:101E1400500CE5A1A2E5500653A7DF75A1DFE5A7A5
:101E2400A2E15009E5A1A2E1500375A1FDE5A7A235
:101E3400E2500CE5A1A2E2500653A7FB75A1FB7F7B
:101E4400010218E574F812179A7521019005F6E05D
:101E5400640670077A007B0012109EA2AFE433FE82
:101E6400D2AF9005FCE0640170187A207B009005E5
:101E7400F5E0F91204A47A207B009005F5E0F9124C
:101E84000420906182E0D2E6F0900792E060218520
:101E9400C62280169005FBE064017008E5C654F87C
:101EA4004405F5C653BEFC121C687401652160E448
:101EB400EEA2E092AF7F0102184600008E238F2429
:101EC400858228858327851882851983E0CEA3E03F
:101ED400CF852882852783EBC9EAC8EDCBECCA7588
:101EE400F010C3E833C8E933C9EA33CAEB33CBC3D0
:101EF400EA9EF526EB9FF525B35004AB25AA26EC04
:101F040033CCED33CDD5F0DAAE23AF242274E9120D
:101F1400179A74FA1216D7EAFEEBFF8C088D099013
:101F240005F6E024F7C394055006908FBC022038D0
:101F340012101A8A0A8B0BEA450B70030220351221
:101F440010D48A0C8B0D1210D4EA650C7003EB6567
:101F54000D60ECEEFCEFFD851882851983AA82AB37
:101F6400831210DA850A82850B83A3A3780C1215D9
:101F7400A7908FA8780C121581851882851983780B
:101F8400141215A7908FA87814121581780C79145F
:101F94001213B9501F780C7914121559908F907838
:101FA4000C1213D94047850C10850D11850E12852E
:101FB4000F1380418514108515118516128517138A
:101FC4007810790C121559908F9078101213D950FB
:101FD4001C751000751100751200751301781079C5
:101FE400141215597810790C1215208008908FBCA2
:101FF40078101215A774097810121501908FD078F3
:102004000C1215A77810790C1214789005F6E06478
:1020140008600AE064066005E06405701C908FACFB
:1020240078101213D95012908F94781012153380AF
:102034000890900078101215A78508828509837886
:10204400101215B674061216ED7F1002184674F7B6
:1020540012179A1210EC900790E0640170109062CD
:1020640045E4F0A3F053F4F343FE0C5390F3121041
:102074008CE5C654804449F5C6E59E547F64497096
:10208400F8906185740FF090078EE0F47002A3E07D
:10209400602C75080175090090078EE07808121607
:1020A400C4E508F4FAA3E0600814600A14600C8024
:1020B4000DEA52808008EA52908003EA52A0790027
:1020C4007F0202184674F712179AE9FEEAFF7401B8
:1020D4006E700C7A807B009005F5E0F912041A907A
:1020E40023E8E493F46008E493F9120E648009533E
:1020F400C680E59E547F70FA121092900790E064B7
:10210400017003120E9A90078EE0F47002A3E0604F
:102114002A75080175090090078EE078081216C424
:10212400AA08A3E0600814600A14600C800DEA4257
:10213400808008EA42908003EA42A012101A8A08BA
:102144008B09A808A909E8496017E5E170FCE824AF
:1021540014F582E93400F583E0F874FF68600288BE
:10216400E174016F700A7A019005F5E0F9120474C4
:102174000220C474F112179A8A088B098C0A8D0BF9
:10218400740F121722780C1215A7908FA8780812D2
:102194001581908FA8780C1215817808790C121388
:1021A400B950157808790C121559908F9078081247
:1021B40013D9401579018013780C790812155990B8
:1021C4008F90780C1213D940EB79007F08021846DF
:1021D40074ED12179A8A088B098C0A8D0B741312EA
:1021E4001722780C1215A7908FA8780812158190E1
:1021F4008FA8780C121581780C79081213B9401144
:102204007808790C121559AA08AB09AC0AAD0B80F1
:10221400227510007511007512007513017810797C
:102224000C12155978107908121520AA10AB11ACAC
:1022340012AD137F0C021846908FA878081215A7C8
:102244008A828B8378081215947F0402184674F5E9
:1022540012179A8C828D8378081215A78A828B8331
:10226400780812156D1222A6C3E098F0A3E0991223
:102274002298401E908F8478081215A78A828B8337
:1022840078081215468E828F83E02420F0A3E03470
:102294004EF080A4F08E828F83C3E09420A3E09458
:1022A4004E22EA2404F8EB3400F9E8FEE9FF8C82BC
:1022B4008D83A3A3A3A3E0F8A3E0F98E828F8322E6
:1022C40074F512179AE9FE900748E0FAA3E0FBEED2
:1022D400C333F8E433F974C928F582748E39F5836D
:1022E400E02AF508A3E03BF5097808121941908F1C
:1022F400981215C5121EC074021216ED8A088B09B5
:102304008C0A8D0B741078081214E8AA08AB097FA4
:102314000402184674F112179A8A0C8B0D8C0E8DD8
:102324000F740F121722E0FAA3E0FB7411121722A4
:10233400E0F508A3E0F5097413121722E0FEA3E008
:10234400FF7808121941EA2401F508EB3400F50975
:10235400E4F50AF50B780C79081213F8908FB87825
:10236400081215A7780C79081213F8AA0CAB0DAC57
:102374000EAD0F121EC074021216ED8B09EA450948
:1023840060047A0180027A00EC2AFCED3400FDEC52
:10239400F8EDF97A717B0212164C88088909E4F584
:1023A4000AF50B8E828F8378081215B6ECF8EDF9D6
:1023B4007A717B0212164C8A088B0974057808120C
:1023C40016C48E828F83A3A3A3A3E508F0A3E50913
:1023D400F07F08021846C082C083E9906000F0D004
:1023E40083D08222FFFFFFFFFFFFFFFF74F012176D
:1023F4002E8A0A8B0B8909ECFEEDFF750800850A0D
:102404000C850B0D780C12198500040D2B262E2437
:102414004F246E248F24B024D124042525253C2563
:102424006A259525B625D6250026740165097015FB
:102434008E828F83E0C39403500B8E828F83E0904F
:102444000ACFF080037508180226547402650970D7
:10245400138E828F83E0F8A3E0F9900AD0E8F0A30A
:10246400E9F0800375081802265474016509701593
:102474008E828F83E0C39402500B8E828F83E09010
:102484000303F0800375081802265474016509706B
:10249400158E828F83E0C39405500B8E828F83E068
:1024A400900304F08003750818022654740165092A
:1024B40070158E828F83E0C39402500B8E828F83BB
:1024C400E0900305F0800375081802265474106523
:1024D400097027750C10750D00780C121941EEFC6B
:1024E400EFFD7A067B031203C674021216ED8A0C02
:1024F4008B0D850C82850D83800375081802265484
:102504007401650970158E828F83E0C39402500BA9
:102514008E828F83E0900316F080037508180226DC
:102524005474016509700B8E828F83E0900AD3F096
:102534008003750818022654740465097022908F6C
:1025440098780C1215A78E828F83780C1213C950B9
:102554000F8E828F831215C59003181215D1800334
:10256400750818022654E5097021120A20E970132F
:10257400120600E9F50C7950120786E9F50D1205EB
:10258400EE800B9003AB7401F080037508180226EB
:10259400547401650970158E828F83E0C3940250D0
:1025A4000B8E828F83E0900317F080037508180266
:1025B40026547401650970158E828F83E0C3940AD2
:1025C400500B8E828F83E0900AD2F0800375081836
:1025D400807E74016509701F8E828F83E0C3940727
:1025E40040158E828F83E0C39411500B8E828F83AB
:1025F400E0900AD4F0805975081880547401650974
:1026040070209003AAE0F50C8E828F83E09003AAD9
:10261400F0E50C703B9003AAE0640170331205EE00
:10262400802E7508188029C3E50A9426E50B9400CA
:10263400501B7402650970158E828F83E0FCA3E041
:10264400FDAA0AAB0B1208BEE9F50880037508025F
:10265400A9087F0802180074F212172E8A088B0941
:10266400ECFEEDFF750A0085080C85090D780C1247
:10267400198500040E60279926A526B926C526D1FA
:1026840026DD2604270F271A276027292734273F0A
:10269400274A275527900ACFE08E828F83F002279E
:1026A40080900AD0E0F8A3E0F98E828F83E8F0A34B
:1026B400E9F0022780900303E08E828F83F00227E3
:1026C40080900304E08E828F83F0022780900305BC
:1026D400E08E828F83F0022780750C10750D0078D0
:1026E4000C1219417C067D03EEFAEFFB1203C6744B
:1026F400021216ED8A0C8B0D850C82850D83807C6D
:10270400900316E08E828F83F08071900AD3E08E5E
:10271400828F83F080669003181215C58E828F8392
:102724001215D18057900317E08E828F83F0804C6E
:10273400900AD2E08E828F83F08041900AD4E08E9A
:10274400828F83F080369003AAE08E828F83F0809C
:102754002B1205FAE98E828F83F08020C3E508945A
:1027640026E50994005012AA08AB091208C48E8207
:102774008F83EAF0A3EBF08003750A02A90A7F06AF
:1027840002180074EC12172E74DA1216D7890D8A07
:10279400128B138C0A8D0B743A121722E0F50C90ED
:1027A4008F44C082C083851882851983AC82AD832F
:1027B400D083D08274061215EA851882851983ACF9
:1027C40082AD83AA12AB13A90D120594E9FEEEC3E0
:1027D400940A4003022926EEF91205D0E9FF900A73
:1027E400CFE064027004740180027400F508780874
:1027F400121945AD0CEFFCEEF9AA0AAB0B12064216
:1028040074011216ED7C147D0079007412121722E3
:10281400AA82AB831203DE8A0E8B0F850E08850F06
:10282400097412121722AC82AD837A1075F006EE89
:10283400A42424F9120780E970437C1079FF7412F0
:10284400121722AA82AB8312043EE970307422125A
:102854001722AC82AD837A0475F006EEA42425F920
:10286400120780E9F5087412121722AC82AD83EFC7
:10287400A2E0E433F9AA0AAB0B120948E974061280
:102884001722AC82AD837A0C74702EF9120780E99A
:10289400707E7406121722AA82AB831205C4750EC9
:1028A40000E50EC394045068E50EA80E7900E8759F
:1028B400F003A4C8AAF075F000A42AFA75F003E99D
:1028C400A42AF97406121722E58228F508E583394B
:1028D400F509850882850983E0F8A3E0F9E84960F1
:1028E4002B850882850983A3A3E0F5107511007870
:1028F40010121941850882850983E0FCA3E0FDAA32
:102904000AAB0B120BA074021216EDE9050E8091AE
:10291400EFA2E1500D900302E0F9AA0AAB0B120BEF
:10292400A6E97404650C700F900ACFE06402700786
:10293400AA0AAB0B12063C790074261216ED7F0C22
:1029440002180074F212172E890BEAFEEBFF8C08B2
:102954008D09750A0AE50B600C14600914604414AF
:1029640060640229EBEEFAEFFB1205E2E9F50AE5F1
:102974000AC3940A5071E5084509606B750C067525
:102984000D00780C121941EEFCEFFDAA08AB0912F8
:1029940003C674021216ED8A0C8B0D850C82850D0C
:1029A400838044EEFAEFFB1205DCE9F50AE50AC37D
:1029B400940A5033E5084509602DAA08AB09A90A11
:1029C4001205D6E98021EEFAEFFB1205E8E9F50AD3
:1029D400E50AC3940A5010E5084509600AAA08AB41
:1029E40009A90A1205D6E9A90A7F0602180074F299
:1029F40012172E8A0C8B0DE9FE7F1574FF650C707F
:102A04000474FF650D702A750800E508C3940A5024
:102A140014EEFC7A027B00A9081205B2E960027F79
:102A240000050880E5EE60637A2A7B06120DB0800B
:102A34005AAA0CAB0D120D928A0A8B0B850A0885D3
:102A44000B09E508450960417C007D00E508240583
:102A5400FAE5093400FB850882850983A3A3A3A3AF
:102A6400E0F9120594E9F50AE50AC3940A500EEE5A
:102A7400FC7A027B00A90A1205B2E97F00EE600B22
:102A8400AA08AB0912062A80027F14EFF97F060216
:102A9400180074EE12172E8A0E8B0F8C0A8D0B748D
:102AA40012121722E0F50CA3E0F50D75081574FF5A
:102AB400650E700474FF650F701E7E00EEC3940AE9
:102AC4005062AC0CAD0DAA0AAB0BEEF91205B8E9D5
:102AD40060037508000E80E4AA0EAB0F120D928AF3
:102AE400108B11AE10AF11EE4F60367C007D00EEFE
:102AF4002405FAEF3400FB8E828F83A3A3A3A3E003
:102B0400F9120594E9F509E509C3940A5016AC0CC9
:102B1400AD0DAA0AAB0BA9091205B8E97508008026
:102B240003750814A9087F0A02180074F712172EF7
:102B3400EAFEEBFF90031CEEF0A3EFF0900302E03B
:102B4400FC7D007A257B001208BEE9F5089003029B
:102B5400E0F9120B227F0102180074EE12172E7492
:102B6400EC1216D78A0A8B0B850A82850B83A3A3E2
:102B7400E024FA700302309724FD7003022F0D1431
:102B84007003022C5114601024FD7003022EB5143E
:102B94007003022F4D0230BAAE0AAF0B90031CE053
:102BA400F8A3E0F9E849606990031CE0F8A3E0F5B4
:102BB400838882E0F8A3E0F9E8496055EE240CF537
:102BC40082EF3400F583E0F5087808121945EE2405
:102BD4000BF582EF3400F583E0F98E828F83A3A393
:102BE400A3A3A3A3A3A3A3E0FCA3E0FDEE2403FA01
:102BF400EF3400FB90031CE0F8A3E0F5838882E047
:102C0400F8A3E0F583888212172C74011216ED8064
:102C1400398E828F83A3A3A3A3A3A3A3A3A312196F
:102C2400589003181215C512095A74021216EDE9C8
:102C3400601879018E828F83A3A3A3A3A3A3A3A364
:102C4400A3E0FAA3E0FB120954E90230BAAE0AAFDA
:102C54000B8E828F83A3E06003022E638E828F83A8
:102C6400A3A3A3A3A3E0A2E04003022E637C0E7DF2
:102C7400007900851882851983AA82AB831203DE4A
:102C84008A088B09AA08AB098E828F83A3A3A3A306
:102C9400A3A3A3A3E0F8A3E0F9E849603D750806FF
:102CA40075090078081219418E828F83A3A3A3A308
:102CB400A3A3A3A3E02410FCA3E03400FD74021238
:102CC4001722AA82AB831203C674021216ED8A0875
:102CD4008B0985088285098380548E828F83A3A300
:102CE400A3E0FAA3E0FB120D928A0C8B0D850C086D
:102CF400850D09E50845096032750C06750D0078E7
:102D04000C121941E5082405FCE5093400FD7402A0
:102D1400121722AA82AB831203C674021216ED8A1A
:102D24000C8B0D850C82850D8380030230BA8E8254
:102D34008F83A3A3A3A3A3E0A2E25004D2F0800252
:102D4400C2F0A2F0E433F87900740C121722E048C0
:102D5400F0A3E049F08E828F83A3A3A3A3A3A3A32C
:102D6400A3A3A3E0F8A3E0F9E84960238E828F834C
:102D7400A3A3A3A3A3A3A3A3A3A3E0F8A3E0C824AA
:102D840010F582E83400F583780C1215A7800C75D1
:102D94000CFF750DFF750EFF750FFF8E828F83A3D9
:102DA400A3A3A3A3A3A3A3A3A3E0F8A3E0F9E849DF
:102DB40060178E828F83A3A3A3A3A3A3A3A3A3A318
:102DC400E0F508A3E0F50980067508007509008E92
:102DD400828F83A3A3A3A3A3A3A3A3E0F8A3E0F9EF
:102DE400E84960158E828F83A3A3A3A3A3A3A3A3FF
:102DF400E0F510A3E0F51180067510007511007858
:102E04000C12193D78081219417810121941EE2458
:102E14000CF582EF3400F5831219588E828F83A348
:102E2400A3A3A3A3A3E0FCA3E0FD740A121722AAA0
:102E340082AB831205CA740A1216EDE9F5088E8274
:102E44008F83A3A3A3E0F8A3E0F99003ACE8F0A375
:102E5400E9F07A017B00900302E0F912041AE99088
:102E6400031CE0F8A3E0F9E849604390031CE0F890
:102E7400A3E0F5838882A3A3E0F8A3E0F9E849601E
:102E84002D8E828F83A3E0FC79018E828F83A3A38E
:102E9400A3E0FAA3E0FB90031CE0F8A3E0F5838829
:102EA40082A3A3E0F8A3E0F583888212172C0230F2
:102EB400BAAE0AAF0B90031CE0F8A3E0F9E849604E
:102EC4004590031CE0F8A3E0F5838882A3A3E0F80F
:102ED400A3E0F9E849602F850A82850B83A3E0FC0F
:102EE40079028E828F83A3A3A3E0FAA3E0FB90036D
:102EF4001CE0F8A3E0F5838882A3A3E0F8A3E0F53F
:102F040083888212172C0230BAAE0AAF0B7C007D84
:102F140000EE2404FAEF3400FB8E828F83A3A3A374
:102F2400E0F9120594E9F508E508C3940A5017EE90
:102F3400240AFCEF3400FD7A0475F006E508A424A5
:102F440025F912077AE90230BAAE0AAF0B900317DB
:102F5400E06018900AD2E0F98E828F83A3A3A3E0E5
:102F6400FAA3E0FB120954E90230BA900ACFE070E8
:102F74001579058E828F83A3A3A3E0FAA3E0FB1245
:102F84000954E90230BA8E828F83A3A3A3E0FAA383
:102F9400E0FB120D928A0C8B0D850C08850D098EB1
:102FA400828F83A3A3A3A3A3A3A3E0A2E05075E508
:102FB400084509606C850882850983A3A3A3A3E05F
:102FC40060628E828F83A3A3A3A3A3A3A3A3A3E07E
:102FD400F8A3E0F9E8C4540FF879005401F8E9546F
:102FE40000F9E8A2E0403D740E121722AC82AD83D2
:102FF400E5082405FAE5093400FB85088285098380
:10300400A3A3A3A3E0F9120594E9701879038E82AF
:103014008F83A3A3A3E0FAA3E0FB120954E90230CF
:10302400BA0230BAEE2405FCEF3400FD850882852F
:103034000983A3A3A3A3E0F98E828F83A3A3A3E0B0
:10304400FAA3E0FB12063690031CE0F8A3E0F9E8CB
:1030540049606390031CE0F8A3E0F5838882A3A38E
:10306400E0F8A3E0F9E849604D7C0079008E828F96
:1030740083A3A3A3E0FAA3E0FB90031CE0F8A3E07E
:10308400F5838882A3A3E0F8A3E0F583888212176E
:103094002C8023120A20E9701D9003ABE0640170B8
:1030A4000B120600E9F89003AB7400F07950120794
:1030B40086E9FE1205EE74141216ED7F0A0218005A
:1030C40074F312172E74F21216D78909EAFEEBFF75
:1030D4008C0C851882851983AC82AD837A0E75F0C9
:1030E40006E509A42420F9120780E970727C0679A8
:1030F400FF851882851983AA82AB8312043EE97086
:103104005E740C121722E0F8A3E0F9E8F508E50C68
:103114006005EE42088004EEF4520885080A750B37
:1031240000740C121722E0650A7004A3E0650B60BA
:103134002AE508A8087900740C121722E508F0A300
:10314400E9F0851882851983AC82AD837A0E75F017
:1031540006E509A42420F912077AE97901800279A5
:1031640000740E1216ED7F0502180074F012172E6B
:1031740074E61216D7890B8A0C8B0DECFEEDFF74E6
:103184000C121722AC82AD837A0E75F006E50BA4FF
:103194002420F9120780E960030232D37C0679FF08
:1031A400740C121722AA82AB8312043EE960030254
:1031B40032D3851882851983AC82AD837A0C7470FE
:1031C400250BF9120780E960030232CF750A0085E6
:1031D4001882851983AA82AB831205C4E50C450DB8
:1031E400703A7C0C7900851882851983AA82AB8396
:1031F40012043EE960030232A97C0C7D007900854B
:103204001882851983AA82AB831203DE8A088B098C
:10321400850882850983750A010232A98518828589
:103224001983AC82AD83AA0CAB0D1205BE8A0E8B3A
:103234000F850E08850F09E50845097036EE4F60C5
:1032440021851882851983AC82AD837A007B0012B4
:1032540005BE8A0E8B0FA80EA90F88088909E849B4
:1032640070047900806B850882850983E50CF0A3DE
:10327400E50DF0850882850983A3A3E0F87900EEC3
:10328400687002EF69601EEE850882850983A3A336
:10329400F0EE4F700D8508828509837400F0A374E5
:1032A40000F0750A01E50A6022851882851983AA4F
:1032B40082AB831205C4851882851983AC82AD83E1
:1032C4007A0C7470250BF912077AE9790180027976
:1032D40000741A1216ED7F0802180074F712172EE4
:1032E400EAFEEBFF7B00EBC39404504EEBF879004D
:1032F400E875F003A4C8AAF075F000A42AFA75F0E2
:1033040003E9A42AF9EC28F582ED39F583E06E701F
:1033140003A3E06F7021EBF87900E875F003A4C80B
:10332400AAF075F000A42AFA75F003E9A42AF9ECCE
:1033340028FAED39FB80070B80AC7A007B007F0113
:1033440002180074F712172E7F00EFC39404400391
:103354000233F6EFF87900E875F003A4C8ACF07511
:10336400F000A42CFC75F003E9A42CF9EA28F582FA
:10337400EB39F583E0F4FCA3E0F4FDEFF87900E821
:1033840075F003A4C8AEF075F000A42EFE75F0032A
:10339400E9A42EF9EA28F582EB39F583ECF0A3EDE4
:1033A400F0EFF87900E875F003A4C8ACF075F0000C
:1033B400A42CFC75F003E9A42CF9EA28F582EB3976
:1033C400F583A3A3E0F4C0E0EFF87900E875F00317
:1033D400A4C8ACF075F000A42CFC75F003E9A42C8F
:1033E400F9EA28F582EB39F583A3A3D0E0F00F02C4
:1033F400334E7F0102180074EA12172E74F4121669
:10340400D7EAFEEBFF8C108D117422121722E0F51F
:103414000EA3E0F50F7424121722E0F50CA3E0F5D7
:103424000D7426121722E0F50AA3E0F50BEE4F7097
:1034340005790A023571EEFAEFFB1205E2E9F508A7
:10344400E508C3940A40061205F4E9F508E508C343
:10345400940A400302356FEEFCEFFD7A0E75F00618
:10346400E508A42420F912077AE9F8E5104511606B
:1034740013AC10AD117A1B75F006E508A42421F9EC
:1034840012077AE9E50E450F6013AC0EAD0F7A1BF7
:1034940075F006E508A42422F912077AE9E50C453B
:1034A4000D6013AC0CAD0D7A1075F006E508A4247C
:1034B40023F912077AE9E50A450B602DAC0AAD0B36
:1034C4007A1075F006E508A42424F912077AE9F5C0
:1034D400097428121722AC82AD837A0475F006E5CC
:1034E40008A42425F912077AE97C0C7D0079FF856C
:1034F4001882851983AA82AB831203DE8A128B1386
:10350400851214851315851882851983AC82AD83C1
:103514007A0C74702508F912077AE9F50975120E08
:103524007513007812121941EEFCEFFDE508A808A6
:103534007900E875F00EA4C8AAF075F000A42AFA80
:1035440075F00EE9A42AF9741E28FA740339FB12E3
:1035540003C674021216ED8A128B13A812A91390D3
:1035640003AAE06003120648120630A908740C127C
:1035740016ED7F0E02180074F712172E74F212164D
:10358400D7E9FE851882851983AC82AD837A0E75DE
:10359400F006A42420F9120780E9700E740C1217A7
:1035A40022E0F8A3E0F9E8F980027900740E12161B
:1035B400ED7F0102180074F412172E74F21216D75C
:1035C4008909EAFEEBFFE509C3940A5004EE4F7043
:1035D400047902804B851882851983AC82AD837A85
:1035E4000E75F006E509A42420F9120780E9F50810
:1035F400E508702A750A06750B00780A12194174D9
:1036040002121722AC82AD83EEFAEFFB1203C674EA
:10361400021216ED8A0A8B0B850A82850B83A90890
:10362400740E1216ED7F0402180074F412172EEAB9
:10363400FEEBFF750800E508C3940A5045750A06B9
:10364400750B00780A121941EEFCEFFDE508A80895
:103654007900E875F00EA4C8AAF075F000A42AFA5F
:1036640075F00EE9A42AF9742428FA740339FB12BC
:1036740003D874021216EDE96004A908800605084F
:1036840080B4790A7F0402180074F412172EEAFE3B
:10369400EBFF750800E508C3940A5045750A0675E2
:1036A4000B00780A121941EEFCEFFDE508A8087931
:1036B40000E875F00EA4C8AAF075F000A42AFA7503
:1036C400F00EE9A42AF9741E28FA740339FB1203D4
:1036D400D874021216EDE96004A908800605088072
:1036E400B4790A7F0402180074F712172E74F012CA
:1036F40016D7EAFEEBFF750800E508C3940A504BA1
:10370400851882851983AC82AD837A1075F006E53D
:1037140008A42423F9120780E9702C7C1079FF8512
:103724001882851983AA82AB8312043EE97018EECD
:10373400FCEFFD851882851983AA82AB8312092ABE
:10374400E97004A9088006050880AE790A7410128D
:1037540016ED7F0102180074F412172E750800E5A7
:1037640008C3940A400302383DE508A8087900E834
:1037740075F00EA4C8AAF075F000A42AFA75F00E2C
:10378400E9A42AF9741E28FC740339FD7A0E75F035
:1037940006E508A42420F9120780E97003023838EA
:1037A4007C067D0079FFE508AA087B00EA75F00E27
:1037B400A4CAA8F075F000A428F875F00EEBA428AC
:1037C400FB741E2AFA74033BFB1203DE8A0A8B0B7A
:1037D400AE0AAF0B7C067D0079FFE508AA087B00E2
:1037E400EA75F00EA4CAA8F075F000A428F875F0E4
:1037F4000EEBA428FB74242AFA74033BFB1203DEA9
:103804008A0A8B0BAC0AAD0BE508A8087900E875A9
:10381400F00EA4C8AAF075F000A42AFA75F00EE917
:10382400A42AF9742A28F582740339F5837400F004
:10383400A37400F005080237639003AAE060031242
:1038440006481206307F0402180074F712172E7E01
:1038540000EEC3940A50327C0679FFEEFA7B00EA4C
:1038640075F00EA4CAA8F075F000A428F875F00E3F
:10387400EBA428FB741E2AFA74033BFB12043EE9F2
:103884006004EEF980050E80C8790A7F01021800F1
:1038940074F712172E7E007F00EFC3940A502F7C1A
:1038A4000679FFEFFA7B00EA75F00EA4CAA8F0755A
:1038B400F000A428F875F00EEBA428FB741E2AFA75
:1038C40074033BFB12043EE970010E0F80CBEEF94A
:1038D4007F0102180074F712172E7E007F00EFC3D9
:1038E400940A500DEE700AEFF9120606E9FE0F80F5
:1038F400EDEEF97F0102180074EE12172E74CB124C
:1039040016D7E9FE7427121722AC82AD837A0E759E
:10391400F006EEA42420F9120780E96003023A3D80
:103924007C0679FF7427121722AA82AB8312043E05
:10393400E96003023A3D7C0E7D0079FF742712177B
:1039440022AA82AB831203DE8A0A8B0B850A0E85B8
:103954000B0F7C1B7D0079FF740C121722AA82AB1B
:10396400831203DE8A0A8B0B850A0C850B0D7C0CF3
:103974007D0079FF851882851983AA82AB8312039F
:10398400DE8A108B1185100A85110B7427121722F9
:10399400AC82AD837A0E75F006EEA42420F91207EA
:1039A4007AE9F508740C121722AC82AD837A1B7580
:1039B400F006EEA42421F912077AE94208740C12E5
:1039C4001722AC82AD837A1B75F006EEA42422F98B
:1039D40012077AE94208740C121722AC82AD837A7A
:1039E4001075F006EEA42423F912077AE94208744C
:1039F4000C121722AC82AD837A1075F006EEA42463
:103A040024F912077AE94208740C121722AC82AD29
:103A1400837A0475F006EEA42425F912077AE942A4
:103A240008851882851983AC82AD837A0C74702E54
:103A3400F912077AE942088003750800A908743569
:103A44001216ED7F0A02180074F712172EE9FE9081
:103A54000302F01205EE7F0102180074F212172E11
:103A6400890A8A088B09E5085400F8E5095480F9A5
:103A7400E8496033900302E0F91204028A0C8B0DCA
:103A8400A80CA90DE8FEE9FFE849600FEEFAEFFB88
:103A9400120618EEFAEFFB1203F0E9E5086400FAE7
:103AA400E5096480FB8021E508A2E050179003AC8F
:103AB400E0FAA3E0FB12064EE5086401FAE50964A6
:103AC40000FB80047A007B007F0602180074F71262
:103AD400172EEAFEEBFF8E828F83E02450601014D1
:103AE400601624E17019EEFAEFFB1205AC8010EEBB
:103AF400FAEFFB12061E8007EEFAEFFB1206247F94
:103B04000102180074F712172EEAFEEBFF8E828F63
:103B140083A3A3A3A3E0641E701179008E828F8314
:103B2400A3A3E0FAA3E0FB12059AE97F01021800BF
:103B340074F612172EEAFEEBFF8E828F83A3A3A3E3
:103B4400A3E0703A8E088F09850882850983A3A3B0
:103B5400A3A3A3A3A3121958850882850983A3A349
:103B6400A3A3A3E0FCA3E0FD850882850983A3A3A6
:103B7400E0FAA3E0FB1205A074021216EDE97F023D
:103B840002180074F712172EEAFEEBFF900302E00E
:103B9400F98E828F83A3E0FAA3E0FB120BA6E97FE0
:103BA40001021800C082C08374FF1216D71205FAEE
:103BB400E9C39402400B8518828519837402F0804E
:103BC40009851882851983740AF0851882851983FA
:103BD400AC82AD837A017905120A38E974011216B0
:103BE400EDD083D08202013574F212172E74E812DC
:103BF40016D7EAFEEBFF890A8C088D097C187D0034
:103C04007900851882851983AA82AB831203DE8A20
:103C14000C8B0DAC0CAD0D851882851983EEF0A3C9
:103C2400EFF0900304E0C0E07402121722D0E0F039
:103C3400900305E0C0E07403121722D0E0F0900A6C
:103C4400D4E0C0E07417121722D0E0F074151217F4
:103C540022E054FEF8A3E054FFF9900AD3E0A2E076
:103C6400E433FA7B00E84AF8E94BF9741512172299
:103C7400E8F0A3E9F0900AD3E0A2E15004D2F08086
:103C840002C2F07415121722E054FDFAA3E054FFA7
:103C9400FBA2F0E433F87900C333F8E933F9EA48D6
:103CA400F8EB49F97415121722E8F0A3E9F0900A29
:103CB400D3E0A2E35004D2F08002C2F074151217CC
:103CC40022E054F7FAA3E054FFFBA2F0E433F50C2E
:103CD400750D007403780C1216C4EA450CF8EB4514
:103CE4000DF97415121722E8F0A3E9F0900AD3E055
:103CF400A2E45004D2F08002C2F07415121722E03C
:103D040054EFFAA3E054FFFBA2F0E433F50C750D75
:103D1400007404780C1216C4EA450CF8EB450DF94E
:103D24007415121722E8F0A3E9F0900AD3E0A2E593
:103D34005004D2F08002C2F07415121722E054DF4E
:103D4400FAA3E054FFFBA2F0E433F50C750D007404
:103D540005780C1216C4EA450CF8EB450DF97415F8
:103D6400121722E8F0A3E9F0900AD3E0A2E250048B
:103D7400D2F08002C2F07415121722E054FBFAA3A9
:103D8400E054FFFBA2F0E433F50C750D00740278E7
:103D94000C1216C4EA450CF8EB450DF9741512170C
:103DA40022E8F0A3E9F0900305E0602A750C107591
:103DB4000D00780C1219417C067D0374061217223B
:103DC400AA82AB831203C674021216ED8A0C8B0D01
:103DD400850C82850D83900316E06012E50A600E5F
:103DE4007415121722E04402F0A3E04400F090039B
:103DF40016E0600678017900800478007900741474
:103E0400121722E048F0900303E06006780479007A
:103E14008004780079007414121722E048F0AC088A
:103E2400AD09851882851983AA82AB8312094EE9EC
:103E340074181216ED7F0602180074F712172EEA92
:103E4400FEEBFF750800900316E060067801790028
:103E5400800478007900E84208900303E060067863
:103E6400047900800478007900E84208A908EEFA91
:103E7400EFFB120A08E97F0102180074EE12172EF4
:103E840074E51216D78A0C8B0DE9FF8C088D097422
:103E94002D121722E0F50A74086509700A75F006F8
:103EA400EFA42422FE800875F006EFA42421FE7CF2
:103EB4001B7D007900851882851983AA82AB831241
:103EC40003DE8A108B1185100E85110F85188285EB
:103ED4001983AC82AD837A1BEEF9120780E9703C3A
:103EE400741A121722E0C394074031741A1217226D
:103EF400E0C394115026E50AF50B780B12194574AA
:103F040001121722AC82AD83E508A2E0E433F9AADA
:103F14000CAB0D12096074011216EDE9741B121634
:103F2400ED7F0A02180074F712172E120C12E97EA4
:103F340000EEC3940A50557C0679FFEEFA7B00EA42
:103F440075F00EA4CAA8F075F000A428F875F00E58
:103F5400EBA428FB741E2AFA74033BFB12043EE90B
:103F64007027EEF87900E875F00EA4C8AAF075F091
:103F740000A42AFA75F00EE9A42AF9741E28FA742A
:103F84000339FB7900120C18E90E80A57F01021891
:103F94000074F412172E74FB1216D78A088B097456
:103FA4000312172285820A85830B780A1219417538
:103FB4000A02750B00780A121941750A20750B90D4
:103FC400780A1219417CFF7DFF7A017B00120A7A7C
:103FD40074061216ED8A0A8B0BAE0AAF0BEE4F7005
:103FE4000302409FE4F50AF50B780A1219417404A0
:103FF40012172285820A85830B780A1219417404E8
:1040040012172285820A85830B780A1219417409D2
:104014001217221219587902EEFCEFFDAA08AB0917
:10402400120B9474081216EDE970438518828519F1
:1040340083E0FA7B007401121722E0F87900E4C8E7
:10404400F9EA28F50AEB39F50BE50A450B601F7808
:104054000A1219418E828F83A3A3A3A3E0FCA3E0D9
:10406400FDAA08AB091205A074021216EDE9E4F5E5
:104074000AF50B780A1219417405121722121958FD
:104084007CFF7DFFEEFAEFFB120A8674041216ED34
:104094008A0A8B0BAE0AAF0B023FE174051216EDD0
:1040A4007F04021800C082C083E9900BBFF0024273
:1040B400C874F712172EE9900514F07C4C7D057A2C
:1040C400FF7BFF120BAC90051574FFF0A3F0A3E483
:1040D400F0A3F07905120B3A900514E0F9120A6284
:1040E4007AC47B0B120D80024FD674F412172E8AF9
:1040F400088B09EB54806030900514E0F912040237
:104104008A0A8B0BAE0AAF0BEE4F60138E828F833D
:10411400E064B07003120B4CEEFAEFFB1203F0AA4A
:1041240008E5096480FB80047A007B0002429774EE
:10413400F212172E74FC1216D7EAFEEBFF74121259
:1041440017221254BDEE4F70030241D674021217A7
:1041540022EEF0A3EF1244D2ECF0A3ED1244D2AA63
:1041640082AB83120A5CE9F50A706AE508450960C6
:10417400648E828F831254A3EE4F60567A067B00BE
:1041840012045C8A0C8B0DA80CA90DE84970057506
:104194000A13804188828983E41241E3EEF0A3EF9D
:1041A4001254CEE508F0A3E509F090051A12426A0C
:1041B40090051A7005124F80801B124F6E8003EA1F
:1041C400FCEBFD8C828D8312426A70F38C828D83AA
:1041D40080E3750A02A90A74041216ED0256BDF0B2
:1041E400A3125474A32274F212172E890AE975F0EB
:1041F40017A4FEAFF0900519E4F090051712426A77
:10420400600A120462900517E4F0A3F0EEFAEFFBE3
:1042140012045C8A088B09EA4509602FEEFCEFFD65
:1042240079001203DE900517E508F0A3E509F07B99
:10423400008008124254E4F0A3F00BEBC3950A404B
:10424400F2E50A900519F07900800279130256BD4F
:10425400EB75F017A4F8A9F0900517E028FAA3E08D
:10426400398A82F58322124C12EA4B2274F4121713
:104274002E7900EAA2E0501B75084A75098F780868
:104284001219417C047D007AC17B0B120B34740239
:104294001216ED7F04021800C082C08390051A1222
:1042A40042CF601C88828983A3A3E06A7003A3E0E1
:1042B4006B8882898370E8A3A3A3A3124C0E8004A5
:1042C4007A007B00D083D0820201351257A3E849DB
:1042D4002274EE12172E74FC1216D7EAFEEBFF8539
:1042E4001882851983E4F0A3F0EE2402124F60EEE5
:1042F400240512547BEE2404F50EEF124887E024C3
:10430400FE603924FC604624FE605224FE605E2474
:10431400FE70030243E824FE700302444C24FE7042
:104324000302445B24FE700302446A24FC7003020B
:10433400447924FE70030244880244C59005337412
:1043440017F0A3E41244DA1207DA0244C58518828E
:10435400851983AC82AD83120B5202449585188271
:10436400851983AC82AD83120B58024495850C08E1
:10437400850D097402121722AC82AD8385088285EB
:104384000983124C0E120A808A0C8B0DAC0CAD0DF5
:10439400EC4D603BE4F50CF50D780C121941750CED
:1043A40033750D05780C121941750C34750D0578AB
:1043B4000C12194174081217221219581257C712F5
:1043C40016EDE9F50C700B124C041207F2800F7510
:1043D4000C018508828509831244C8124F80850C1C
:1043E400080244987402121722AC82AD83850C82B1
:1043F400850D831249D9603C850C82850D83A3A366
:104404001219587510337511057810121941751069
:1044140034751105781012194174081217221219F3
:10442400581257C71216EDE9F509700B124C041215
:1044340007F8800F750901850C82850D831244C825
:10444400124F80850908804C851882851983AC82B7
:10445400AD83120B5E803A851882851983AC82ADD8
:1044640083120B64802B851882851983AC82AD83FB
:10447400120B6A801C851882851983AC82AD831265
:104484000B70800D851882851983AC82AD83120B65
:1044940076E9F508E50860298E828F83A3E0641429
:1044A400601F850E82850F83E09005331244D2127B
:1044B400579F900534124F80E508A31244DA12077F
:1044C400D4024E6F1257A385188285198322F08572
:1044D400188285198322F07C337D05850A82850B39
:1044E40083124C122274EE12172E74FC1216D78A01
:1044F4000A8B0B8C0E8D0FEA2405F508EB3400F5BE
:10450400097C157D0079007A337B051203DEE5080A
:104514002402F50CE50912547E85188285198385D9
:1045240082108583117810121941850882850983C8
:10453400A3A3A3A31249D0121941E5082405F51039
:10454400E5093400F5117810121941850C82850DA6
:1045540083124D25120A7A74061216ED8A108B11F5
:10456400AE10AF11E50A2402F50AE50B124F63EE13
:104574004F70030246A780177402121722124C0EC2
:1045840088828983EAF0A3EBF0900533E004F0908D
:104594000533E0C3940540030246A7E4F510F51182
:1045A400781012194175101C7511057810121941F3
:1045B40075101D7511057810121941740612172211
:1045C4001219587910EEFCEFFD1257C91216EDE9D5
:1045D400705E850882850983A3A3A3A3A3A3A3E094
:1045E400F890051CE06870481249D01219417C1DEE
:1045F4007D05E5082408FAE5093400FB1203D874A4
:10460400021216EDE960298E828F83A3A3A3A3125D
:104614004C0E900533E0F510740278101216C47431
:10462400342510F58274053511F583EAF0A3EBF017
:104634007402121722858210858311781012194191
:104644007402121722121958850C82850D83124C9C
:10465400341216ED8A108B11AE10AF11900533E0B1
:10466400F510751100740278101216C474332510F5
:10467400F874053511F988828983A312426A70039C
:10468400024573E82403080808E93400F9EE4F6092
:104694000302457C8882898374FFF0A3F09005337C
:1046A400E004F0900533E0600A124C041207E67946
:1046B40000800B850882850983124F77790A024EA0
:1046C4006F74EA12172E74FE1216D78C128D13EA29
:1046D4002405F50CEB1257B11254A775080075099F
:1046E40000EA2402F510EB3400F5118518828519CF
:1046F4008385820A85830B780A121941850C828589
:104704000D83A3A3A3A312489D121941E50C24050C
:10471400F50AE50D124F63780A121941850C82855A
:104724000D831248A1120A7A74061216ED8A0A8BB6
:104734000BEA450B7003024842EA2404F50EEB121F
:1047440048871254A78A828B83A3A3A3E0F9851018
:1047540082851183124C186003024842E4F514F573
:1047640015781412194175141C751505781412194D
:104774004175141D75150578141219417406121724
:10478400221219587913AC0AAD0B85108285118356
:104794001257CF1216EDE9F509600302484290055D
:1047A4001CE0F8E5087009E02402900534F0801458
:1047B400900534E0FCE82402FAE43400FBEA6C706F
:1047C40001EB707E850882AA821249C794141249AB
:1047D400BF506B850E82850F83E0C0E074352A12CA
:1047E400487ED0E0F00508850E82850F83A3E0C0E3
:1047F400E085080A7435250A12487ED0E0F00508E1
:1048040090051C12489D1219417C1D7D0585080ADE
:104814007435250A1248911216ED90051CE02508FE
:10482400F50874FF6E700374FF6F6012EE24010EBE
:10483400EF3400FFE508C3941450030246EFE50883
:104844006013124C22851082851183124C0E1207BC
:10485400EC79008014E509700375090A85128285D4
:104864001383EEF0A3EFF0A90974021216ED7F0E84
:1048740002180085080C7435250CF5827405340083
:10488400F583223400F50F850E82F58322FA740530
:104894003400FB1203C67402221254DD22A3A312B5
:1048A40048A722124F6EFDEEFAEFFB2274EE1217A8
:1048B4002E74FE1216D78C0E8D0FEA2405F50CEB20
:1048C40012547E750B00900533E4F0F50AEA2402D5
:1048D400F508EB3400F5098044900533E0FA9005BF
:1048E4001CE0F81249C794171249BF400D900533D4
:1048F400E0F87416C39890051CF01249D0121941BF
:104904007C1D7D0574342AFA74051248941216ED40
:1049140090051CE0F8900533E028F0050AE50C2426
:1049240016F582E50D124882E0F8E50AC398507442
:10493400900533E0C39416506BE50AC333F8E433AF
:10494400F9E50C28FEE50D39FF851882851983AC3D
:1049540082AD838E828F831249D97008750B011240
:104964004F738050E4F510F5117810121941751049
:104974001C751105781012194175101D75110578F3
:104984001012194174061217221219587916850843
:10499400828509831257CF1216EDE9F50B700302D5
:1049A40048DD80BB7C337D05850882850983124CF4
:1049B4000E1207FEA90B7402024E71E99400C3653E
:1049C400D03322EA28F8E43400F9E822E0F510753F
:1049D4001100781022124E668A108B11AC10AD11A2
:1049E400EC4D2274EA12172E74FC1216D78A0C8B23
:1049F4000D8C128D13EA2405F50AEB124F6375082A
:104A040000750900E50A2402F510E50B3400F511E0
:104A1400740212172285820E85830F780E121941B3
:104A2400850A82850B83A3A3A3A31254831219417D
:104A3400E50A2405F50EE50B3400F50F780E12197E
:104A440041851082851183124F69124C08120A7A2B
:104A540074061216ED8A0E8B0FAE0EAF0FE50C2402
:104A640002F50EE50D3400F50F80388882898374D1
:104A7400FFF0050812487774FFF0050890051CE064
:104A8400F50C750D00780C1219417C1D7D05850807
:104A94000C7435250C1248911216ED90051CE02576
:104AA40008F508EE4F60278E828F83A3A3A3E0F955
:104AB400850E82850F83124C18EE240412547BE970
:104AC4006027850C82850D83124BFA124F80E5080E
:104AD4007003024BE0124C22850E82850F83124C28
:104AE4000E1208047900024BF5E4F514F515781458
:104AF40012194175141C7515057814121941751491
:104B04001D7515057814121941740812172212190B
:104B1400587911EEFCEFFD850E82850F831257CF75
:104B24001216EDE9F509709A850882AA82EA9005C1
:104B34001C7009E02404900534F08025E0F8900509
:104B440034E0F514E82404FCE43400FDEC6514704E
:104B540001ED70811249C794121249BF4003024A01
:104B6400D9850C82850D83E0C0E074352A12487E15
:104B7400D0E0F00508850C82850D83A3E0C0E01227
:104B84004877D0E0124C3D85820C85830D780C1259
:104B94001941740412172212195885108285118341
:104BA400124C341216ED8A0C8B0DAE0CAF0D850829
:104BB4000C7435250CF874053400F9EE4F700302BB
:104BC4004A6F851882851983E088828983124C3D57
:104BD400A3E0C0E0124877D0E0024A7DE509700303
:104BE40075090A850A82850B83124BFA124F80A934
:104BF40009740402486F1257A38512828513832215
:104C04007C337D05850A82850B83124C1222E0FADF
:104C1400A3E0FB22124C12120A68E9F5092290055E
:104C240034E0F5F0E50884900533F07C337D05220B
:104C34001248A7120A86740422F005088518828592
:104C440019832274EC12172E74FE1216D78A088B5D
:104C5400098C0E8D0FEA2405FEEB3400FF124E5032
:104C6400EE241812547BEA450B7003024CF3124EE7
:104C7400395029124D188A108B11EA4511606B794D
:104C840012AC0AAD0B850882850983124C0E85107F
:104C94008285118312172CE9F50A7058E4F50AF598
:104CA4000B780A1219418E828F83A3A3E0F50A7848
:104CB4000A121941EE2403124F60780A1219418E28
:104CC400828F83124D25120B9A74061216EDE9F5A4
:104CD4000A7021850C82850D83E0701F850882850A
:104CE4000983124C0E12080A8011750A0E80097588
:104CF4000A018004E50A6003124F73850C82850D56
:104D040083E0600479008002A90A74021216ED7F20
:104D14000C021800851882851983124C12120B8814
:104D240022124F6EFD850882850983124C1222746B
:104D3400EE12172E74FE1216D78A088B098C0C8D6E
:104D44000DEA2405FEEB3400FF750E00124E50EA06
:104D5400450B7003024E17124E39502C124D188A0F
:104D64000E8B0FEA450F604A7912AC0AAD0B850829
:104D740082850983124C0E850E82850F8312172CAF
:104D8400E9F50E6003024E1A8508828509831250E4
:104D940055AA0AFB124E2B70147AFF7BFF124E2B7E
:104DA400606C88828983E50AF0A3E50BF0750A003C
:104DB4008007750E0E805F050A900519E0FAE50A72
:104DC400C39A504AE50A75F017A4FAABF0888289B1
:104DD40083A3A3E02AFAA3E03BFB8A828B83124FCE
:104DE40069EC4D70D2750A17750B00780A121941D7
:104DF400EEFCEFFD1203C674021216EDEEFCEFFD9D
:104E0400850882850983124C0E1208108014750ED1
:104E1400098003750E0112579B850C82850D831240
:104E24004F80A90E0249BA120B7C8A108B11A8106C
:104E3400A911E84922E5082402F508E5093400F53A
:104E4400098A828B83A3A3A3E0A2E5228518828525
:104E54001983AC82AD838E828F83124E668A0A8B4D
:104E64000B22E0FAA3E0FB120A802274041216ED6E
:104E74007F0A02180074EC12172E8C108D11EA248C
:104E840005F50CEB12547E750F00EA2402F50AEBCB
:104E9400124F63850A82F583124C0E125855700323
:104EA400024F55750E008071850C82850D83E06478
:104EB40001704F8E828F83A3A31219588E828F8321
:104EC400A3A3A3A3E0F5127513007812121941EEFF
:104ED4002405F512EF3400F5137812121941124C1F
:104EE40008120B9A74061216EDE9F50F6014850C7E
:104EF40082850D83E4F012579B85108285118312FD
:104F04004F807C177D007900EEFAEFFB1203DE8EF2
:104F1400828F83E4F0A3F0050E900519E0F8E50E06
:104F2400C398501EE50E75F017A4F8A9F085088201
:104F3400850983A3A31257BB124F69EC4D6003028A
:104F44004EAC85088285098374FFF0A3F0E50F70E9
:104F540006124C08120816A90F024D13F50AEF3475
:104F640000F50B22A3124F6EFD22E0FCA3E0228E7B
:104F7400828F831257A3850E82850F83E8F0A3E9FD
:104F8400F022C082C083900515E06A7003A3E06B31
:104F940070067A157B0580047A007B000242C8748F
:104FA400F712172E7F00EF75F003A4F8A9F0EC2890
:104FB400F8ED39F988828983E06A7003A3E06B70A5
:104FC40006E8FAE9FB800B0FEFC3940240D87A009D
:104FD4007B007F0102180074F612172E12558C7094
:104FE400067A007B008007A3A3A3A3124C0E0256EB
:104FF4004D74F212172EE9FE740E12172212505538
:1050040074101217221254BD8C828D83E0640270D6
:105014003BA312579F88828983E0F50CA3E0F9A88B
:105024000C74026870037429697021750C02750D83
:1050340000780C1219417808121941780A121941A2
:10504400EEF9120BBE74061216ED800279010256B7
:10505400BDE0F50AA3E0F50B2274E812172E74FBE9
:105064001216D7E9851882851983F08A168B178C56
:105074000E8D0F741F1217221254BD7421121722A1
:1050840012505574231217221254A77510008C82E3
:105094008D83A3A3A3E0A2E4502A741D1217221245
:1050A4004D1E8A828B83E5824583700302516979A0
:1050B4000AAC0EAD0FAA16AB1712172CE9F5106047
:1050C4000302516C850E82850F83E0640260030243
:1050D4005422A312579F850882850983A3858212CF
:1050E400858313E50E2406F50CE50F12547E8882A1
:1050F4008983E0FAA3E0F9EA2400F514E439F5150C
:1051040078141219CB01000028012831510700023C
:10511400280852032878510029325301295A53028E
:10512400290153032932530429C3532254EE4F70E7
:105134003E850C82850D83125498FAE9FB8A828B92
:1051440083E0850A82850B831254D41219418A8222
:105154008B83A3124F6EFDAA08AB091203C6740217
:105164001216ED800375100EA91074050257A97567
:10517400100B80F4EE4F70F7850A82850B8374015F
:10518400F01254AD850882850983F07C007D00858A
:105194000E82850F83A3A3A3A3E02401FAA3E03422
:1051A40000FB120A80EA4B60418A828B83E024026E
:1051B400F8850A82850B83E028F0EA2404F8EB34AE
:1051C40000F988828983E08512828513831254E66C
:1051D4001254D41219418A828B83124F68E5082431
:1051E40003FAE5093400FB02515F850A82850B83CB
:1051F400E02404F07C047D007900AA12AB131203AE
:10520400DE02516CEE4F60030251731254ADFEA3E3
:10521400E0FF850A82850B837404F0EE850882859D
:105224000983F0EF851282851383F0740312172229
:10523400AC82AD83EEFAEFFB12557A70030252DEB4
:105244008A828B83A3A31254A3740112172285822A
:105254000E85830F780E1219417405121722121944
:10526400587CFF7DFF120A8674041216ED8B0FEA38
:10527400450F7033850C82850D83125483121941B6
:10528400850C82850D83A31219587C027D007A183F
:105294007B901208B274041216EDE9700A740112BC
:1052A400172274FFF0A3F08E828F83E064027034BF
:1052B400750C02750D00780C1219418E828F8312C1
:1052C4004F68E5082404FAE5091248941216ED859E
:1052D4000A82850B83E0240280097401121722EEEE
:1052E400F0A3EFF07401121722125494F074011217
:1052F4001722A312548CA3A3A3F002516CEE4F60A7
:1053040003025173850C82850D83124F69AA16AB73
:1053140017120BB2850A82850B837402F0EA8508A2
:1053240082850983F0851282851383EB80CBEE4F4F
:1053340060030251731254ADF8A3E0F9850A828523
:105344000B837402F0E8850882850983F0E98512ED
:105354008285138380A3850C82850D83124C0E12E3
:1053640003C0EAFC8C82A882C39EE49F404BE86E93
:105374007001EF70047C00801F851882851983E01A
:10538400FAEE2AFAEF3400FBC3EA98EB94005003D8
:10539400E08004EECCC39CFCEC850A82850B83F090
:1053A4008C0A750B00780A121941850C82850D83CD
:1053B400E02EFCA3E03F02515A75100702516CEE37
:1053C4004F6003025173850C82850D8312579F85AC
:1053D4000A82850B837407F08882898312548C12A5
:1053E4005474E0851282851383F0E82402FAE934C8
:1053F40000FB8A828B8312548C1254C5125494A3DA
:105404001254CE12549DF0E82405F8E93400F988CA
:1054140082898312549DA31254E6A30252FA741D86
:10542400121722125585700302516912579F880C76
:10543400890DE8450D70030251698E108F117810A3
:10544400121941780A121941780812194174061286
:105454001722E0F9AC0EAD0FAA16AB17850C8285A6
:105464000D8312172C74061216EDE9F51002516C17
:10547400F088828983A322F50CEF3400F50D22E035
:10548400F50E750F00780E22E085088285098322C7
:105494001254ED221257A3E8221254EDA3A322A31F
:1054A400A3A3A3E0FEA3E0FF22850C82850D83E085
:1054B400F8A3E0F5838882E022E0F508A3E0F5098B
:1054C40022A3A3F08A828B83A3221241E5A3A32201
:1054D400F08A828B831254DD22E0F50A750B007882
:1054E4000A221254741254ED22E08508828509833D
:1054F400A3A32274EE12172E74FE1216D78A0A8BF7
:105504000BECFAEDFB7414121722E0F510A3E0F58E
:10551400117416121722E0FE7418121722E0F50E09
:10552400A3E0F50F851882851983AC82AD831255EB
:105534007A603E851882851983125585602FA3A34E
:105544001254BDE50845096024780E1219417810FB
:10555400121941EEF9AC0CAD0DAA0AAB0B85088209
:1055640085098312172C74041216ED8006790E80B7
:105574000279010249BA120A808A0C8B0DEA450DA0
:1055840022124C1212558C22120B468A828B83E50E
:105594008245832274F612172E74FE1216D7740CE9
:1055A400121722125498851882851983F0740112F7
:1055B4001722E9F0E4F508F509780812194175088D
:1055C400027808121941740412172285820885830F
:1055D400097808121941120B9A74061216ED740216
:1055E4001216ED806474F712172EEAFEEBFF890899
:1055F4007C4C7D05120BB2EA5402600BA908EEFA4A
:10560400EFFB120A7480027901024FD674F6121766
:105614002E74FF6A700374FF6B701C7B00EB75F0D3
:1056240003A4F8A9F0EC28F8ED39F91256520BEB63
:10563400C39402501480E6120B828A088B09A808CE
:10564400A909E84960031256527F020218008882B1
:10565400898374FF1241E3E4F02274F612172E12C8
:105664000B828A828B83E58245836006A3A3E0FADA
:1056740080027A007B0080D174F212172E8A088B84
:1056840009ECFEEDFF740E121722E0F50A1256C261
:10569400701CEEFCEFFD7AFF7BFF1256C27004799A
:1056A40011801688828983E508F0A3E509F08882D1
:1056B4008983A3A3E50AF079007F06021800120B80
:1056C400828A0C8B0DA80CA90DE8492274EE1217DE
:1056D4002EEAFEEBFF8C088D09890C741212172236
:1056E40012579F7414121722124F6974161217223C
:1056F400124C0E750D00EC4D600302579374026555
:105704000C600302578E88828983124F6EF9EC2451
:1057140000F50EE439F50FEAF4F8EBF4F9EC58F877
:10572400E50F59F9E849705DE5082406F8E5093400
:1057340000F9880A890B8882F5831248A3120BB2F8
:105744008A108B11E50E65107004E50F6511604237
:10575400780E121941850A82850B831248A3120B15
:10576400B874021216EDE9F50D7027780E1219417E
:10577400850882850983A3A31248A1120BCA740267
:105784001216ED800D750D808008750D0D80037562
:105794000D0BA90D024E748E828F831257A322E043
:1057A400F8A3E0F9221216ED7F100218003400F578
:1057B4000D850C82F58322E028FEA3E039FF8E825A
:1057C4008F83227916850A82850B83124C12120B61
:1057D4009474082274F212172EEAFEEBFF890B74FC
:1057E40001650B600E7402650B70637901120D9EE6
:1057F400E9705BEEFAEFFB1258556047750A0080BA
:105804000B7C177D0079001203DE050A900519E070
:10581400F8E50AC3985021E50A75F017A4F8A9F031
:10582400850882850983A3A3E028FAA3E039FB8ACB
:10583400828B831242CF70C985088285098374FFE5
:10584400F0A3F07C4C7D05EEFAEFFB120BAC025694
:10585400BD120B7C8A088B09EA45092274F21217DF
:105864002E8A088B09ECFEEDFF740E1217221250DB
:1058740055900BBFE0F4603D7A097B001203EAEA1D
:105884004B60328A828B8374B1F0A3E41254C7A3B1
:105894001254C5A3E508F0A3E5091258BCEEF0A321
:1058A400EF1258BCA3A3E50AF0A3E50BF0900BBFDD
:1058B400E0F91203F60256BDF08A828B83A3A3A3F8
:1058C400A3A322C082C0839061907404F0A374489F
:1058D400F0A3E4F09061807440F09061BC7407F030
:1058E4009061877469F09061B67416F07900120EB5
:1058F400887902120E8E9023E8E493F46006E49310
:10590400F9120E647905121182025D09C082C08306
:10591400E9540FF9906185E0696012E5C65480444A
:1059240049F5C6E59E547F644970F8E9F053C68092
:10593400E59E547F70FA025D0974F712172EE5A8EC
:10594400FE53A87E120E70C2BA539AFEC289759B8A
:1059540000C2C2120E7675A91175B905120E7CD259
:10596400BA439A0174805E42A8026296C082C083E0
:10597400906181E4F0A3025D0675E90075910075FC
:10598400BF00020135C082C083906181E4F0A3743A
:10599400C0F0A3E4025D08C082C08374F81216D775
:1059A4009005F8126178E8497003025A529005F89C
:1059B400E0544060237908851882851983AA82AB54
:1059C40083120F7E851882851983AA82AB83120CF9
:1059D400309005F8E054BFF0E054806010790C7A00
:1059E400B47B07120F7E9005F8E0547FF0E0A2E04C
:1059F40050087900125A5A54FEF0E05402600879B3
:105A040001125A5A54FDF0E0540460087900125A05
:105A14006554FBF0E0540860087901125A6554F7A4
:105A2400F0E0541060087902125A6554EFF0E05423
:105A34002060087903125A6554DFF0A3E054016032
:105A44000D120E9A120C429005F9E054FEF07408FF
:105A54001216ED025D09120E88120C369005F8E05C
:105A640022120E8E120C3C9005F8E022C082C083F4
:105A7400E9600514602A804F90619A7433F0A3742E
:105A840055F09061A0743AF0900790E064017009B9
:105A9400C2919005FA7467802D9005FA746180268E
:105AA40090619A743FF0A3745AF09061A0747FF0EF
:105AB400900790E064017009D2919005FA747180A6
:105AC400059005FA746AF0025D09C082C083E9603A
:105AD4000B14600D14600F14601180209023EC806F
:105AE400159023ED80109023EE800B900790E064D6
:105AF4000160F39023EFE493906186F0025D0974F2
:105B0400EE12172E74F41216D7851882851983ACF9
:105B140082AD8375838F7582A074041215EA902375
:105B2400EC93F46003025C95907808E0C39402500F
:105B340003025C757404121722AC82AD8375838FE3
